{
  "contractName": "AccessRestriction",
  "abi": [
    {
      "anonymous": false,
      "inputs": [
        {
          "indexed": false,
          "internalType": "address",
          "name": "account",
          "type": "address"
        }
      ],
      "name": "Paused",
      "type": "event"
    },
    {
      "anonymous": false,
      "inputs": [
        {
          "indexed": true,
          "internalType": "bytes32",
          "name": "role",
          "type": "bytes32"
        },
        {
          "indexed": true,
          "internalType": "bytes32",
          "name": "previousAdminRole",
          "type": "bytes32"
        },
        {
          "indexed": true,
          "internalType": "bytes32",
          "name": "newAdminRole",
          "type": "bytes32"
        }
      ],
      "name": "RoleAdminChanged",
      "type": "event"
    },
    {
      "anonymous": false,
      "inputs": [
        {
          "indexed": true,
          "internalType": "bytes32",
          "name": "role",
          "type": "bytes32"
        },
        {
          "indexed": true,
          "internalType": "address",
          "name": "account",
          "type": "address"
        },
        {
          "indexed": true,
          "internalType": "address",
          "name": "sender",
          "type": "address"
        }
      ],
      "name": "RoleGranted",
      "type": "event"
    },
    {
      "anonymous": false,
      "inputs": [
        {
          "indexed": true,
          "internalType": "bytes32",
          "name": "role",
          "type": "bytes32"
        },
        {
          "indexed": true,
          "internalType": "address",
          "name": "account",
          "type": "address"
        },
        {
          "indexed": true,
          "internalType": "address",
          "name": "sender",
          "type": "address"
        }
      ],
      "name": "RoleRevoked",
      "type": "event"
    },
    {
      "anonymous": false,
      "inputs": [
        {
          "indexed": false,
          "internalType": "address",
          "name": "account",
          "type": "address"
        }
      ],
      "name": "Unpaused",
      "type": "event"
    },
    {
      "inputs": [],
      "name": "AUCTION_ROLE",
      "outputs": [
        {
          "internalType": "bytes32",
          "name": "",
          "type": "bytes32"
        }
      ],
      "stateMutability": "view",
      "type": "function",
      "constant": true
    },
    {
      "inputs": [],
      "name": "COMMUNITY_GIFTS_ROLE",
      "outputs": [
        {
          "internalType": "bytes32",
          "name": "",
          "type": "bytes32"
        }
      ],
      "stateMutability": "view",
      "type": "function",
      "constant": true
    },
    {
      "inputs": [],
      "name": "DEFAULT_ADMIN_ROLE",
      "outputs": [
        {
          "internalType": "bytes32",
          "name": "",
          "type": "bytes32"
        }
      ],
      "stateMutability": "view",
      "type": "function",
      "constant": true
    },
    {
      "inputs": [],
      "name": "FUNDS_ROLE",
      "outputs": [
        {
          "internalType": "bytes32",
          "name": "",
          "type": "bytes32"
        }
      ],
      "stateMutability": "view",
      "type": "function",
      "constant": true
    },
    {
      "inputs": [],
      "name": "INCREMENTAL_SELL_ROLE",
      "outputs": [
        {
          "internalType": "bytes32",
          "name": "",
          "type": "bytes32"
        }
      ],
      "stateMutability": "view",
      "type": "function",
      "constant": true
    },
    {
      "inputs": [],
      "name": "PLANTER_ROLE",
      "outputs": [
        {
          "internalType": "bytes32",
          "name": "",
          "type": "bytes32"
        }
      ],
      "stateMutability": "view",
      "type": "function",
      "constant": true
    },
    {
      "inputs": [],
      "name": "REGULAR_SELL_ROLE",
      "outputs": [
        {
          "internalType": "bytes32",
          "name": "",
          "type": "bytes32"
        }
      ],
      "stateMutability": "view",
      "type": "function",
      "constant": true
    },
    {
      "inputs": [],
      "name": "TREE_FACTORY_ROLE",
      "outputs": [
        {
          "internalType": "bytes32",
          "name": "",
          "type": "bytes32"
        }
      ],
      "stateMutability": "view",
      "type": "function",
      "constant": true
    },
    {
      "inputs": [
        {
          "internalType": "bytes32",
          "name": "role",
          "type": "bytes32"
        }
      ],
      "name": "getRoleAdmin",
      "outputs": [
        {
          "internalType": "bytes32",
          "name": "",
          "type": "bytes32"
        }
      ],
      "stateMutability": "view",
      "type": "function",
      "constant": true
    },
    {
      "inputs": [
        {
          "internalType": "bytes32",
          "name": "role",
          "type": "bytes32"
        },
        {
          "internalType": "address",
          "name": "account",
          "type": "address"
        }
      ],
      "name": "grantRole",
      "outputs": [],
      "stateMutability": "nonpayable",
      "type": "function"
    },
    {
      "inputs": [
        {
          "internalType": "bytes32",
          "name": "role",
          "type": "bytes32"
        },
        {
          "internalType": "address",
          "name": "account",
          "type": "address"
        }
      ],
      "name": "hasRole",
      "outputs": [
        {
          "internalType": "bool",
          "name": "",
          "type": "bool"
        }
      ],
      "stateMutability": "view",
      "type": "function",
      "constant": true
    },
    {
      "inputs": [],
      "name": "isAccessRestriction",
      "outputs": [
        {
          "internalType": "bool",
          "name": "",
          "type": "bool"
        }
      ],
      "stateMutability": "view",
      "type": "function",
      "constant": true
    },
    {
      "inputs": [],
      "name": "paused",
      "outputs": [
        {
          "internalType": "bool",
          "name": "",
          "type": "bool"
        }
      ],
      "stateMutability": "view",
      "type": "function",
      "constant": true
    },
    {
      "inputs": [
        {
          "internalType": "bytes32",
          "name": "role",
          "type": "bytes32"
        },
        {
          "internalType": "address",
          "name": "account",
          "type": "address"
        }
      ],
      "name": "renounceRole",
      "outputs": [],
      "stateMutability": "nonpayable",
      "type": "function"
    },
    {
      "inputs": [
        {
          "internalType": "bytes32",
          "name": "role",
          "type": "bytes32"
        },
        {
          "internalType": "address",
          "name": "account",
          "type": "address"
        }
      ],
      "name": "revokeRole",
      "outputs": [],
      "stateMutability": "nonpayable",
      "type": "function"
    },
    {
      "inputs": [
        {
          "internalType": "bytes4",
          "name": "interfaceId",
          "type": "bytes4"
        }
      ],
      "name": "supportsInterface",
      "outputs": [
        {
          "internalType": "bool",
          "name": "",
          "type": "bool"
        }
      ],
      "stateMutability": "view",
      "type": "function",
      "constant": true
    },
    {
      "inputs": [
        {
          "internalType": "address",
          "name": "_deployer",
          "type": "address"
        }
      ],
      "name": "initialize",
      "outputs": [],
      "stateMutability": "nonpayable",
      "type": "function"
    },
    {
      "inputs": [
        {
          "internalType": "address",
          "name": "_address",
          "type": "address"
        }
      ],
      "name": "ifPlanter",
      "outputs": [],
      "stateMutability": "view",
      "type": "function",
      "constant": true
    },
    {
      "inputs": [
        {
          "internalType": "address",
          "name": "_address",
          "type": "address"
        }
      ],
      "name": "isPlanter",
      "outputs": [
        {
          "internalType": "bool",
          "name": "",
          "type": "bool"
        }
      ],
      "stateMutability": "view",
      "type": "function",
      "constant": true
    },
    {
      "inputs": [
        {
          "internalType": "address",
          "name": "_address",
          "type": "address"
        }
      ],
      "name": "ifAdmin",
      "outputs": [],
      "stateMutability": "view",
      "type": "function",
      "constant": true
    },
    {
      "inputs": [
        {
          "internalType": "address",
          "name": "_address",
          "type": "address"
        }
      ],
      "name": "isAdmin",
      "outputs": [
        {
          "internalType": "bool",
          "name": "",
          "type": "bool"
        }
      ],
      "stateMutability": "view",
      "type": "function",
      "constant": true
    },
    {
      "inputs": [],
      "name": "ifNotPaused",
      "outputs": [],
      "stateMutability": "view",
      "type": "function",
      "constant": true
    },
    {
      "inputs": [],
      "name": "ifPaused",
      "outputs": [],
      "stateMutability": "view",
      "type": "function",
      "constant": true
    },
    {
      "inputs": [],
      "name": "pause",
      "outputs": [],
      "stateMutability": "nonpayable",
      "type": "function"
    },
    {
      "inputs": [],
      "name": "unpause",
      "outputs": [],
      "stateMutability": "nonpayable",
      "type": "function"
    },
    {
      "inputs": [
        {
          "internalType": "address",
          "name": "_address",
          "type": "address"
        }
      ],
      "name": "ifAuction",
      "outputs": [],
      "stateMutability": "view",
      "type": "function",
      "constant": true
    },
    {
      "inputs": [
        {
          "internalType": "address",
          "name": "_address",
          "type": "address"
        }
      ],
      "name": "isAuction",
      "outputs": [
        {
          "internalType": "bool",
          "name": "",
          "type": "bool"
        }
      ],
      "stateMutability": "view",
      "type": "function",
      "constant": true
    },
    {
      "inputs": [
        {
          "internalType": "address",
          "name": "_address",
          "type": "address"
        }
      ],
      "name": "ifIncrementalSell",
      "outputs": [],
      "stateMutability": "view",
      "type": "function",
      "constant": true
    },
    {
      "inputs": [
        {
          "internalType": "address",
          "name": "_address",
          "type": "address"
        }
      ],
      "name": "ifIncrementalSellOrAuction",
      "outputs": [],
      "stateMutability": "view",
      "type": "function",
      "constant": true
    },
    {
      "inputs": [
        {
          "internalType": "address",
          "name": "_address",
          "type": "address"
        }
      ],
      "name": "isIncrementalSell",
      "outputs": [
        {
          "internalType": "bool",
          "name": "",
          "type": "bool"
        }
      ],
      "stateMutability": "view",
      "type": "function",
      "constant": true
    },
    {
      "inputs": [
        {
          "internalType": "address",
          "name": "_address",
          "type": "address"
        }
      ],
      "name": "ifTreeFactory",
      "outputs": [],
      "stateMutability": "view",
      "type": "function",
      "constant": true
    },
    {
      "inputs": [
        {
          "internalType": "address",
          "name": "_address",
          "type": "address"
        }
      ],
      "name": "isTreeFactory",
      "outputs": [
        {
          "internalType": "bool",
          "name": "",
          "type": "bool"
        }
      ],
      "stateMutability": "view",
      "type": "function",
      "constant": true
    },
    {
      "inputs": [
        {
          "internalType": "address",
          "name": "_address",
          "type": "address"
        }
      ],
      "name": "ifRegularSell",
      "outputs": [],
      "stateMutability": "view",
      "type": "function",
      "constant": true
    },
    {
      "inputs": [
        {
          "internalType": "address",
          "name": "_address",
          "type": "address"
        }
      ],
      "name": "isRegularSell",
      "outputs": [
        {
          "internalType": "bool",
          "name": "",
          "type": "bool"
        }
      ],
      "stateMutability": "view",
      "type": "function",
      "constant": true
    },
    {
      "inputs": [
        {
          "internalType": "address",
          "name": "_address",
          "type": "address"
        }
      ],
      "name": "ifFunds",
      "outputs": [],
      "stateMutability": "view",
      "type": "function",
      "constant": true
    },
    {
      "inputs": [
        {
          "internalType": "address",
          "name": "_address",
          "type": "address"
        }
      ],
      "name": "isFunds",
      "outputs": [
        {
          "internalType": "bool",
          "name": "",
          "type": "bool"
        }
      ],
      "stateMutability": "view",
      "type": "function",
      "constant": true
    },
    {
      "inputs": [
        {
          "internalType": "address",
          "name": "_address",
          "type": "address"
        }
      ],
      "name": "ifCommunityGifts",
      "outputs": [],
      "stateMutability": "view",
      "type": "function",
      "constant": true
    },
    {
      "inputs": [
        {
          "internalType": "address",
          "name": "_address",
          "type": "address"
        }
      ],
      "name": "isCommunityGifts",
      "outputs": [
        {
          "internalType": "bool",
          "name": "",
          "type": "bool"
        }
      ],
      "stateMutability": "view",
      "type": "function",
      "constant": true
    },
    {
      "inputs": [
        {
          "internalType": "address",
          "name": "_address",
          "type": "address"
        }
      ],
      "name": "ifAdminOrCommunityGifts",
      "outputs": [],
      "stateMutability": "view",
      "type": "function",
      "constant": true
    },
    {
      "inputs": [
        {
          "internalType": "address",
          "name": "_address",
          "type": "address"
        }
      ],
      "name": "ifAuctionOrCommunityGifts",
      "outputs": [],
      "stateMutability": "view",
      "type": "function",
      "constant": true
    },
    {
      "inputs": [
        {
          "internalType": "address",
          "name": "_address",
          "type": "address"
        }
      ],
      "name": "ifFundsOrCommunityGifts",
      "outputs": [],
      "stateMutability": "view",
      "type": "function",
      "constant": true
    },
    {
      "inputs": [
        {
          "internalType": "address",
          "name": "_address",
          "type": "address"
        }
      ],
      "name": "ifIncrementalSellOrAuctionOrCommunityGifts",
      "outputs": [],
      "stateMutability": "view",
      "type": "function",
      "constant": true
    },
    {
      "inputs": [
        {
          "internalType": "address",
          "name": "_address",
          "type": "address"
        }
      ],
      "name": "ifIncrementalOrCommunityGifts",
      "outputs": [],
      "stateMutability": "view",
      "type": "function",
      "constant": true
    }
  ],
  "bytecode": "0x608060405234801561001057600080fd5b506117ac806100206000396000f3fe608060405234801561001057600080fd5b50600436106102695760003560e01c80637690d38211610151578063bfe6b9a9116100c3578063d92f4a6511610087578063d92f4a6514610581578063e24ce60a14610594578063eb9535b5146105a7578063efcf8ba0146105ba578063f29bbde8146105e1578063fa0565eb1461060857600080fd5b8063bfe6b9a914610522578063c4d66de814610535578063d26c31f014610548578063d4747a521461055b578063d547741f1461056e57600080fd5b806391d148541161011557806391d14854146104995780639b87ab6d146104ac578063a217fddf146104d3578063a33ab161146104db578063b5dd7992146104ee578063ba84fd691461051557600080fd5b80637690d382146104455780638413ec14146104585780638456cb591461046b57806386d67d11146104735780638ebde5001461048657600080fd5b806336568abe116101ea5780634d868f98116101ae5780634d868f98146103f15780635590f601146103f95780635c975abb1461040157806365ab51c71461040c5780636dc1ccab1461041f5780636efc9b211461043257600080fd5b806336568abe146103895780633c27005f1461039c5780633e486103146103af5780633f4ba83a146103c2578063430730a3146103ca57600080fd5b80632e0b2731116102315780632e0b2731146103285780632ea8de7f1461033d5780632f0a0d4c146103505780632f2ff15d1461036357806334d424541461037657600080fd5b806301ffc9a71461026e57806311e8a19b146102965780631f95d6c4146102cb578063248a9ca3146102f257806324d7806c14610315575b600080fd5b61028161027c366004611569565b61061b565b60405190151581526020015b60405180910390f35b6102bd7fac7c691a03473f8092b89da5909c50347b6fbcf5aadf1fde336cc225dbe6918581565b60405190815260200161028d565b6102bd7ff83548f26d403fffccf722162528cee3be4ab11e3e7934b40e231e4aebbbc4a681565b6102bd610300366004611524565b60009081526065602052604090206001015490565b610281610323366004611509565b610652565b61033b610336366004611509565b61065e565b005b61028161034b366004611509565b6106bb565b61033b61035e366004611509565b6106e7565b61033b61037136600461153d565b61073c565b61033b610384366004611509565b610767565b61033b61039736600461153d565b6107b4565b6102816103aa366004611509565b610832565b61033b6103bd366004611509565b61085e565b61033b6108a9565b6102bd7fc5e2d1653feba496cf5ce3a744b90ea18acf0df3d036aba9b2f85992a146790681565b61033b6108da565b61033b610920565b60975460ff16610281565b61028161041a366004611509565b610969565b61033b61042d366004611509565b610995565b61033b610440366004611509565b6109ea565b61033b610453366004611509565b610a4e565b61033b610466366004611509565b610ab2565b61033b610ad7565b61033b610481366004611509565b610b06565b610281610494366004611509565b610b79565b6102816104a736600461153d565b610ba1565b6102bd7f7840a44bf6bbc1b45786ad46ece0694a9179b33e609d4ac4a51e6466e1f664c281565b6102bd600081565b61033b6104e9366004611509565b610bcc565b6102bd7fc31df4a2a4b3c64237a85925ad6582220132ef51602e7e8289bbe7bc68913fd381565b60c9546102819060ff1681565b61033b610530366004611509565b610c21565b61033b610543366004611509565b610c85565b61033b610556366004611509565b610d28565b610281610569366004611509565b610d7d565b61033b61057c36600461153d565b610da9565b61033b61058f366004611509565b610dcf565b61033b6105a2366004611509565b610e33565b6102816105b5366004611509565b610ec0565b6102bd7f0ec78d622803f52545ab341c25cba2c48addbe09038a53881a5094d4c34459b681565b6102bd7f61d7aa1fb0c6989ceddd273d02e982ddc4445762b9b2dd886d67e5cabfed50cd81565b610281610616366004611509565b610eec565b60006001600160e01b03198216637965db0b60e01b148061064c57506301ffc9a760e01b6001600160e01b03198316145b92915050565b600061064c8183610ba1565b61066781610969565b6106b85760405162461bcd60e51b815260206004820152601960248201527f43616c6c6572206973206e6f7420526567756c617253656c6c0000000000000060448201526064015b60405180910390fd5b50565b600061064c7f61d7aa1fb0c6989ceddd273d02e982ddc4445762b9b2dd886d67e5cabfed50cd83610ba1565b6106f081610ec0565b6106b85760405162461bcd60e51b815260206004820152601d60248201527f43616c6c6572206973206e6f7420496e6372656d656e74616c53656c6c00000060448201526064016106af565b6000828152606560205260409020600101546107588133610f18565b6107628383610f7c565b505050565b61077081610b79565b6106b85760405162461bcd60e51b815260206004820152601560248201527421b0b63632b91034b9903737ba1020bab1ba34b7b760591b60448201526064016106af565b6001600160a01b03811633146108245760405162461bcd60e51b815260206004820152602f60248201527f416363657373436f6e74726f6c3a2063616e206f6e6c792072656e6f756e636560448201526e103937b632b9903337b91039b2b63360891b60648201526084016106af565b61082e8282611002565b5050565b600061064c7f7840a44bf6bbc1b45786ad46ece0694a9179b33e609d4ac4a51e6466e1f664c283610ba1565b61086781610832565b6106b85760405162461bcd60e51b815260206004820152601360248201527243616c6c6572206973206e6f742046756e647360681b60448201526064016106af565b6108b4600033610ba1565b6108d05760405162461bcd60e51b81526004016106af90611689565b6108d8611069565b565b60975460ff16156108d85760405162461bcd60e51b815260206004820152601060248201526f14185d5cd8589b194e881c185d5cd95960821b60448201526064016106af565b60975460ff166108d85760405162461bcd60e51b815260206004820152601460248201527314185d5cd8589b194e881b9bdd081c185d5cd95960621b60448201526064016106af565b600061064c7fac7c691a03473f8092b89da5909c50347b6fbcf5aadf1fde336cc225dbe6918583610ba1565b61099e816106bb565b6106b85760405162461bcd60e51b815260206004820152601760248201527f43616c6c6572206973206e6f74206120706c616e74657200000000000000000060448201526064016106af565b6109f381610b79565b80610a025750610a0281610eec565b6106b85760405162461bcd60e51b815260206004820152601d60248201527f6e6f742041756374696f6e206f7220436f6d6d756e697479476966747300000060448201526064016106af565b610a5781610832565b80610a665750610a6681610eec565b6106b85760405162461bcd60e51b815260206004820152601c60248201527f6e6f742066756e6473206f7220636f6d6d756e6974792067696674730000000060448201526064016106af565b610abb81610652565b6106b85760405162461bcd60e51b81526004016106af90611689565b610ae2600033610ba1565b610afe5760405162461bcd60e51b81526004016106af90611689565b6108d86110fc565b610b0f81610ec0565b80610b1e5750610b1e81610eec565b6106b85760405162461bcd60e51b815260206004820152602660248201527f6e6f7420636f6d6d756e697479206769667473206f7220696e6372656d656e74604482015265185b14d95b1b60d21b60648201526084016106af565b600061064c7fc5e2d1653feba496cf5ce3a744b90ea18acf0df3d036aba9b2f85992a1467906835b60009182526065602090815260408084206001600160a01b0393909316845291905290205460ff1690565b610bd581610eec565b6106b85760405162461bcd60e51b815260206004820152601c60248201527f43616c6c6572206973206e6f7420436f6d6d756e69747947696674730000000060448201526064016106af565b610c2a81610652565b80610c395750610c3981610eec565b6106b85760405162461bcd60e51b815260206004820152601b60248201527f6e6f742041646d696e206f7220436f6d6d756e6974794769667473000000000060448201526064016106af565b600054610100900460ff1680610c9e575060005460ff16155b610cba5760405162461bcd60e51b81526004016106af9061163b565b600054610100900460ff16158015610cdc576000805461ffff19166101011790555b610ce4611177565b610cec6111fa565b60c9805460ff19166001179055610d04600083610ba1565b610d1357610d13600083611261565b801561082e576000805461ff00191690555050565b610d3181610d7d565b6106b85760405162461bcd60e51b815260206004820152601960248201527f43616c6c6572206973206e6f742054726565466163746f72790000000000000060448201526064016106af565b600061064c7ff83548f26d403fffccf722162528cee3be4ab11e3e7934b40e231e4aebbbc4a683610ba1565b600082815260656020526040902060010154610dc58133610f18565b6107628383611002565b610dd881610ec0565b80610de75750610de781610b79565b6106b85760405162461bcd60e51b815260206004820152601e60248201527f6e6f7420496e6372656d656e74616c53656c6c206f722041756374696f6e000060448201526064016106af565b610e3c81610ec0565b80610e4b5750610e4b81610b79565b80610e5a5750610e5a81610eec565b6106b85760405162461bcd60e51b815260206004820152603160248201527f6e6f742061756374696f6e206f7220636f6d6d756e697479206769667473206f6044820152701c881a5b98dc995b595b9d185b14d95b1b607a1b60648201526084016106af565b600061064c7f0ec78d622803f52545ab341c25cba2c48addbe09038a53881a5094d4c34459b683610ba1565b600061064c7fc31df4a2a4b3c64237a85925ad6582220132ef51602e7e8289bbe7bc68913fd383610ba1565b610f228282610ba1565b61082e57610f3a816001600160a01b0316601461126b565b610f4583602061126b565b604051602001610f56929190611593565b60408051601f198184030181529082905262461bcd60e51b82526106af91600401611608565b610f868282610ba1565b61082e5760008281526065602090815260408083206001600160a01b03851684529091529020805460ff19166001179055610fbe3390565b6001600160a01b0316816001600160a01b0316837f2f8788117e7eff1d82e926ec794901d17c78024a50270940304540a733656f0d60405160405180910390a45050565b61100c8282610ba1565b1561082e5760008281526065602090815260408083206001600160a01b0385168085529252808320805460ff1916905551339285917ff6391f5c32d9c69d2a47ea670b442974b53935d1edc7fd64eb21e047a839171b9190a45050565b60975460ff166110b25760405162461bcd60e51b815260206004820152601460248201527314185d5cd8589b194e881b9bdd081c185d5cd95960621b60448201526064016106af565b6097805460ff191690557f5db9ee0a495bf2e6ff9c91a7834c1ba4fdd244a5e8aa4e537bd38aeae4b073aa335b6040516001600160a01b03909116815260200160405180910390a1565b60975460ff16156111425760405162461bcd60e51b815260206004820152601060248201526f14185d5cd8589b194e881c185d5cd95960821b60448201526064016106af565b6097805460ff191660011790557f62e78cea01bee320cd4e420270b5ea74000d11b0c9f74754ebdbfc544b05a2586110df3390565b600054610100900460ff1680611190575060005460ff16155b6111ac5760405162461bcd60e51b81526004016106af9061163b565b600054610100900460ff161580156111ce576000805461ffff19166101011790555b6111d661140e565b6111de61140e565b6111e661140e565b80156106b8576000805461ff001916905550565b600054610100900460ff1680611213575060005460ff16155b61122f5760405162461bcd60e51b81526004016106af9061163b565b600054610100900460ff16158015611251576000805461ffff19166101011790555b61125961140e565b6111e6611478565b61082e8282610f7c565b6060600061127a8360026116ce565b6112859060026116b6565b67ffffffffffffffff81111561129d5761129d611760565b6040519080825280601f01601f1916602001820160405280156112c7576020820181803683370190505b509050600360fc1b816000815181106112e2576112e261174a565b60200101906001600160f81b031916908160001a905350600f60fb1b816001815181106113115761131161174a565b60200101906001600160f81b031916908160001a90535060006113358460026116ce565b6113409060016116b6565b90505b60018111156113b8576f181899199a1a9b1b9c1cb0b131b232b360811b85600f16601081106113745761137461174a565b1a60f81b82828151811061138a5761138a61174a565b60200101906001600160f81b031916908160001a90535060049490941c936113b18161171d565b9050611343565b5083156114075760405162461bcd60e51b815260206004820181905260248201527f537472696e67733a20686578206c656e67746820696e73756666696369656e7460448201526064016106af565b9392505050565b600054610100900460ff1680611427575060005460ff16155b6114435760405162461bcd60e51b81526004016106af9061163b565b600054610100900460ff161580156111e6576000805461ffff191661010117905580156106b8576000805461ff001916905550565b600054610100900460ff1680611491575060005460ff16155b6114ad5760405162461bcd60e51b81526004016106af9061163b565b600054610100900460ff161580156114cf576000805461ffff19166101011790555b6097805460ff1916905580156106b8576000805461ff001916905550565b80356001600160a01b038116811461150457600080fd5b919050565b60006020828403121561151b57600080fd5b611407826114ed565b60006020828403121561153657600080fd5b5035919050565b6000806040838503121561155057600080fd5b82359150611560602084016114ed565b90509250929050565b60006020828403121561157b57600080fd5b81356001600160e01b03198116811461140757600080fd5b7f416363657373436f6e74726f6c3a206163636f756e74200000000000000000008152600083516115cb8160178501602088016116ed565b7001034b99036b4b9b9b4b733903937b6329607d1b60179184019182015283516115fc8160288401602088016116ed565b01602801949350505050565b60208152600082518060208401526116278160408501602087016116ed565b601f01601f19169190910160400192915050565b6020808252602e908201527f496e697469616c697a61626c653a20636f6e747261637420697320616c72656160408201526d191e481a5b9a5d1a585b1a5e995960921b606082015260800190565b60208082526013908201527221b0b63632b91034b9903737ba1030b236b4b760691b604082015260600190565b600082198211156116c9576116c9611734565b500190565b60008160001904831182151516156116e8576116e8611734565b500290565b60005b838110156117085781810151838201526020016116f0565b83811115611717576000848401525b50505050565b60008161172c5761172c611734565b506000190190565b634e487b7160e01b600052601160045260246000fd5b634e487b7160e01b600052603260045260246000fd5b634e487b7160e01b600052604160045260246000fdfea2646970667358221220c2418083451295dbc16e586eb7549cf914d6e1eacd75aafeebc3db1a6423647564736f6c63430008060033",
  "immutableReferences": {},
  "source": "// SPDX-License-Identifier: GPL-3.0\n\npragma solidity ^0.8.6;\n\nimport \"@openzeppelin/contracts-upgradeable/access/AccessControlUpgradeable.sol\";\nimport \"@openzeppelin/contracts-upgradeable/security/PausableUpgradeable.sol\";\n\ncontract AccessRestriction is AccessControlUpgradeable, PausableUpgradeable {\n    bytes32 public constant PLANTER_ROLE = keccak256(\"PLANTER_ROLE\");\n    bytes32 public constant AUCTION_ROLE = keccak256(\"AUCTION_ROLE\");\n    bytes32 public constant TREE_FACTORY_ROLE = keccak256(\"TREE_FACTORY_ROLE\");\n    bytes32 public constant COMMUNITY_GIFTS_ROLE =\n        keccak256(\"COMMUNITY_GIFTS_ROLE\");\n    bytes32 public constant REGULAR_SELL_ROLE = keccak256(\"REGULAR_SELL_ROLE\");\n    bytes32 public constant FUNDS_ROLE = keccak256(\"FUNDS_ROLE\");\n    bytes32 public constant INCREMENTAL_SELL_ROLE =\n        keccak256(\"INCREMENTAL_SELL_ROLE\");\n\n    // @dev Sanity check that allows us to ensure that we are pointing to the\n    //  right contract in our setUpdateFactoryAddress() call.\n    bool public isAccessRestriction;\n\n    function initialize(address _deployer) public initializer {\n        AccessControlUpgradeable.__AccessControl_init();\n        PausableUpgradeable.__Pausable_init();\n\n        isAccessRestriction = true;\n\n        if (hasRole(DEFAULT_ADMIN_ROLE, _deployer) == false) {\n            _setupRole(DEFAULT_ADMIN_ROLE, _deployer);\n        }\n    }\n\n    modifier onlyAdmin() {\n        require(hasRole(DEFAULT_ADMIN_ROLE, msg.sender), \"Caller is not admin\");\n        _;\n    }\n\n    function ifPlanter(address _address) public view {\n        require(isPlanter(_address), \"Caller is not a planter\");\n    }\n\n    function isPlanter(address _address) public view returns (bool) {\n        return hasRole(PLANTER_ROLE, _address);\n    }\n\n    function ifAdmin(address _address) public view {\n        require(isAdmin(_address), \"Caller is not admin\");\n    }\n\n    function isAdmin(address _address) public view returns (bool) {\n        return hasRole(DEFAULT_ADMIN_ROLE, _address);\n    }\n\n    function ifNotPaused() public view {\n        require(!paused(), \"Pausable: paused\");\n    }\n\n    function ifPaused() public view {\n        require(paused(), \"Pausable: not paused\");\n    }\n\n    function pause() external onlyAdmin {\n        _pause();\n    }\n\n    function unpause() external onlyAdmin {\n        _unpause();\n    }\n\n    function ifAuction(address _address) public view {\n        require(isAuction(_address), \"Caller is not Auction\");\n    }\n\n    function isAuction(address _address) public view returns (bool) {\n        return hasRole(AUCTION_ROLE, _address);\n    }\n\n    function ifIncrementalSell(address _address) public view {\n        require(isIncrementalSell(_address), \"Caller is not IncrementalSell\");\n    }\n\n    function ifIncrementalSellOrAuction(address _address) public view {\n        require(\n            isIncrementalSell(_address) || isAuction(_address),\n            \"not IncrementalSell or Auction\"\n        );\n    }\n\n    function isIncrementalSell(address _address) public view returns (bool) {\n        return hasRole(INCREMENTAL_SELL_ROLE, _address);\n    }\n\n    function ifTreeFactory(address _address) public view {\n        require(isTreeFactory(_address), \"Caller is not TreeFactory\");\n    }\n\n    function isTreeFactory(address _address) public view returns (bool) {\n        return hasRole(TREE_FACTORY_ROLE, _address);\n    }\n\n    function ifRegularSell(address _address) public view {\n        require(isRegularSell(_address), \"Caller is not RegularSell\");\n    }\n\n    function isRegularSell(address _address) public view returns (bool) {\n        return hasRole(REGULAR_SELL_ROLE, _address);\n    }\n\n    function ifFunds(address _address) public view {\n        require(isFunds(_address), \"Caller is not Funds\");\n    }\n\n    function isFunds(address _address) public view returns (bool) {\n        return hasRole(FUNDS_ROLE, _address);\n    }\n\n    function ifCommunityGifts(address _address) public view {\n        require(isCommunityGifts(_address), \"Caller is not CommunityGifts\");\n    }\n\n    function isCommunityGifts(address _address) public view returns (bool) {\n        return hasRole(COMMUNITY_GIFTS_ROLE, _address);\n    }\n\n    function ifAdminOrCommunityGifts(address _address) public view {\n        require(\n            isAdmin(_address) || isCommunityGifts(_address),\n            \"not Admin or CommunityGifts\"\n        );\n    }\n\n    function ifAuctionOrCommunityGifts(address _address) public view {\n        require(\n            isAuction(_address) || isCommunityGifts(_address),\n            \"not Auction or CommunityGifts\"\n        );\n    }\n\n    function ifFundsOrCommunityGifts(address _address) public view {\n        require(\n            isFunds(_address) || isCommunityGifts(_address),\n            \"not funds or community gifts\"\n        );\n    }\n\n    function ifIncrementalSellOrAuctionOrCommunityGifts(address _address)\n        public\n        view\n    {\n        require(\n            isIncrementalSell(_address) ||\n                isAuction(_address) ||\n                isCommunityGifts(_address),\n            \"not auction or community gifts or incrementalSell\"\n        );\n    }\n\n    function ifIncrementalOrCommunityGifts(address _address) public view {\n        require(\n            isIncrementalSell(_address) || isCommunityGifts(_address),\n            \"not community gifts or incrementalSell\"\n        );\n    }\n}\n",
  "sourcePath": "/home/ali/Desktop/treejer/contract/contracts/access/AccessRestriction.sol",
  "compiler": {
    "name": "solc",
    "version": "0.8.6+commit.11564f7e.Emscripten.clang"
  },
  "schemaVersion": "3.4.1",
  "updatedAt": "2021-08-13T05:08:52.172Z",
  "networkType": "ethereum",
  "devdoc": {
    "kind": "dev",
    "methods": {
      "getRoleAdmin(bytes32)": {
        "details": "Returns the admin role that controls `role`. See {grantRole} and {revokeRole}. To change a role's admin, use {_setRoleAdmin}."
      },
      "grantRole(bytes32,address)": {
        "details": "Grants `role` to `account`. If `account` had not been already granted `role`, emits a {RoleGranted} event. Requirements: - the caller must have ``role``'s admin role."
      },
      "hasRole(bytes32,address)": {
        "details": "Returns `true` if `account` has been granted `role`."
      },
      "paused()": {
        "details": "Returns true if the contract is paused, and false otherwise."
      },
      "renounceRole(bytes32,address)": {
        "details": "Revokes `role` from the calling account. Roles are often managed via {grantRole} and {revokeRole}: this function's purpose is to provide a mechanism for accounts to lose their privileges if they are compromised (such as when a trusted device is misplaced). If the calling account had been granted `role`, emits a {RoleRevoked} event. Requirements: - the caller must be `account`."
      },
      "revokeRole(bytes32,address)": {
        "details": "Revokes `role` from `account`. If `account` had been granted `role`, emits a {RoleRevoked} event. Requirements: - the caller must have ``role``'s admin role."
      },
      "supportsInterface(bytes4)": {
        "details": "See {IERC165-supportsInterface}."
      }
    },
    "version": 1
  },
  "userdoc": {
    "kind": "user",
    "methods": {},
    "version": 1
  }
}