{
  "contractName": "AccessRestriction",
  "abi": [
    {
      "inputs": [],
      "stateMutability": "nonpayable",
      "type": "constructor"
    },
    {
      "anonymous": false,
      "inputs": [
        {
          "indexed": false,
          "internalType": "address",
          "name": "account",
          "type": "address"
        }
      ],
      "name": "Paused",
      "type": "event"
    },
    {
      "anonymous": false,
      "inputs": [
        {
          "indexed": true,
          "internalType": "bytes32",
          "name": "role",
          "type": "bytes32"
        },
        {
          "indexed": true,
          "internalType": "bytes32",
          "name": "previousAdminRole",
          "type": "bytes32"
        },
        {
          "indexed": true,
          "internalType": "bytes32",
          "name": "newAdminRole",
          "type": "bytes32"
        }
      ],
      "name": "RoleAdminChanged",
      "type": "event"
    },
    {
      "anonymous": false,
      "inputs": [
        {
          "indexed": true,
          "internalType": "bytes32",
          "name": "role",
          "type": "bytes32"
        },
        {
          "indexed": true,
          "internalType": "address",
          "name": "account",
          "type": "address"
        },
        {
          "indexed": true,
          "internalType": "address",
          "name": "sender",
          "type": "address"
        }
      ],
      "name": "RoleGranted",
      "type": "event"
    },
    {
      "anonymous": false,
      "inputs": [
        {
          "indexed": true,
          "internalType": "bytes32",
          "name": "role",
          "type": "bytes32"
        },
        {
          "indexed": true,
          "internalType": "address",
          "name": "account",
          "type": "address"
        },
        {
          "indexed": true,
          "internalType": "address",
          "name": "sender",
          "type": "address"
        }
      ],
      "name": "RoleRevoked",
      "type": "event"
    },
    {
      "anonymous": false,
      "inputs": [
        {
          "indexed": false,
          "internalType": "address",
          "name": "account",
          "type": "address"
        }
      ],
      "name": "Unpaused",
      "type": "event"
    },
    {
      "inputs": [],
      "name": "AMBASSADOR_ROLE",
      "outputs": [
        {
          "internalType": "bytes32",
          "name": "",
          "type": "bytes32"
        }
      ],
      "stateMutability": "view",
      "type": "function",
      "constant": true
    },
    {
      "inputs": [],
      "name": "DEFAULT_ADMIN_ROLE",
      "outputs": [
        {
          "internalType": "bytes32",
          "name": "",
          "type": "bytes32"
        }
      ],
      "stateMutability": "view",
      "type": "function",
      "constant": true
    },
    {
      "inputs": [],
      "name": "PLANTER_ROLE",
      "outputs": [
        {
          "internalType": "bytes32",
          "name": "",
          "type": "bytes32"
        }
      ],
      "stateMutability": "view",
      "type": "function",
      "constant": true
    },
    {
      "inputs": [
        {
          "internalType": "bytes32",
          "name": "role",
          "type": "bytes32"
        }
      ],
      "name": "getRoleAdmin",
      "outputs": [
        {
          "internalType": "bytes32",
          "name": "",
          "type": "bytes32"
        }
      ],
      "stateMutability": "view",
      "type": "function",
      "constant": true
    },
    {
      "inputs": [
        {
          "internalType": "bytes32",
          "name": "role",
          "type": "bytes32"
        },
        {
          "internalType": "uint256",
          "name": "index",
          "type": "uint256"
        }
      ],
      "name": "getRoleMember",
      "outputs": [
        {
          "internalType": "address",
          "name": "",
          "type": "address"
        }
      ],
      "stateMutability": "view",
      "type": "function",
      "constant": true
    },
    {
      "inputs": [
        {
          "internalType": "bytes32",
          "name": "role",
          "type": "bytes32"
        }
      ],
      "name": "getRoleMemberCount",
      "outputs": [
        {
          "internalType": "uint256",
          "name": "",
          "type": "uint256"
        }
      ],
      "stateMutability": "view",
      "type": "function",
      "constant": true
    },
    {
      "inputs": [
        {
          "internalType": "bytes32",
          "name": "role",
          "type": "bytes32"
        },
        {
          "internalType": "address",
          "name": "account",
          "type": "address"
        }
      ],
      "name": "grantRole",
      "outputs": [],
      "stateMutability": "nonpayable",
      "type": "function"
    },
    {
      "inputs": [
        {
          "internalType": "bytes32",
          "name": "role",
          "type": "bytes32"
        },
        {
          "internalType": "address",
          "name": "account",
          "type": "address"
        }
      ],
      "name": "hasRole",
      "outputs": [
        {
          "internalType": "bool",
          "name": "",
          "type": "bool"
        }
      ],
      "stateMutability": "view",
      "type": "function",
      "constant": true
    },
    {
      "inputs": [],
      "name": "owner",
      "outputs": [
        {
          "internalType": "address",
          "name": "",
          "type": "address"
        }
      ],
      "stateMutability": "view",
      "type": "function",
      "constant": true
    },
    {
      "inputs": [],
      "name": "paused",
      "outputs": [
        {
          "internalType": "bool",
          "name": "",
          "type": "bool"
        }
      ],
      "stateMutability": "view",
      "type": "function",
      "constant": true
    },
    {
      "inputs": [
        {
          "internalType": "bytes32",
          "name": "role",
          "type": "bytes32"
        },
        {
          "internalType": "address",
          "name": "account",
          "type": "address"
        }
      ],
      "name": "renounceRole",
      "outputs": [],
      "stateMutability": "nonpayable",
      "type": "function"
    },
    {
      "inputs": [
        {
          "internalType": "bytes32",
          "name": "role",
          "type": "bytes32"
        },
        {
          "internalType": "address",
          "name": "account",
          "type": "address"
        }
      ],
      "name": "revokeRole",
      "outputs": [],
      "stateMutability": "nonpayable",
      "type": "function"
    },
    {
      "inputs": [],
      "name": "pause",
      "outputs": [],
      "stateMutability": "nonpayable",
      "type": "function"
    },
    {
      "inputs": [],
      "name": "unpause",
      "outputs": [],
      "stateMutability": "nonpayable",
      "type": "function"
    }
  ],
  "bytecode": "0x6080604052336001806101000a81548173ffffffffffffffffffffffffffffffffffffffff021916908373ffffffffffffffffffffffffffffffffffffffff1602179055503480156200005157600080fd5b506000600160006101000a81548160ff021916908315150217905550620000826000801b336200011660201b60201c565b620000c960405180807f504c414e5445525f524f4c450000000000000000000000000000000000000000815250600c0190506040518091039020336200011660201b60201c565b6200011060405180807f414d4241535341444f525f524f4c450000000000000000000000000000000000815250600f0190506040518091039020336200011660201b60201c565b620002ac565b6200012882826200012c60201b60201c565b5050565b6200015a81600080858152602001908152602001600020600001620001cf60201b62000bcd1790919060201c565b15620001cb57620001706200020760201b60201c565b73ffffffffffffffffffffffffffffffffffffffff168173ffffffffffffffffffffffffffffffffffffffff16837f2f8788117e7eff1d82e926ec794901d17c78024a50270940304540a733656f0d60405160405180910390a45b5050565b6000620001ff836000018373ffffffffffffffffffffffffffffffffffffffff1660001b6200020f60201b60201c565b905092915050565b600033905090565b60006200022383836200028960201b60201c565b6200027e57826000018290806001815401808255809150506001900390600052602060002001600090919091909150558260000180549050836001016000848152602001908152602001600020819055506001905062000283565b600090505b92915050565b600080836001016000848152602001908152602001600020541415905092915050565b610f2280620002bc6000396000f3fe608060405234801561001057600080fd5b50600436106100ea5760003560e01c80638da5cb5b1161008c578063a217fddf11610066578063a217fddf14610349578063ca15c87314610367578063d547741f146103a9578063f29bbde8146103f7576100ea565b80638da5cb5b146102215780639010d07c1461026b57806391d14854146102e3576100ea565b806336568abe116100c857806336568abe1461019d5780633f4ba83a146101eb5780635c975abb146101f55780638456cb5914610217576100ea565b80630daa2e66146100ef578063248a9ca31461010d5780632f2ff15d1461014f575b600080fd5b6100f7610415565b6040518082815260200191505060405180910390f35b6101396004803603602081101561012357600080fd5b810190808035906020019092919050505061044e565b6040518082815260200191505060405180910390f35b61019b6004803603604081101561016557600080fd5b8101908080359060200190929190803573ffffffffffffffffffffffffffffffffffffffff16906020019092919050505061046d565b005b6101e9600480360360408110156101b357600080fd5b8101908080359060200190929190803573ffffffffffffffffffffffffffffffffffffffff1690602001909291905050506104f6565b005b6101f361058f565b005b6101fd610618565b604051808215151515815260200191505060405180910390f35b61021f61062f565b005b6102296106b8565b604051808273ffffffffffffffffffffffffffffffffffffffff1673ffffffffffffffffffffffffffffffffffffffff16815260200191505060405180910390f35b6102a16004803603604081101561028157600080fd5b8101908080359060200190929190803590602001909291905050506106dd565b604051808273ffffffffffffffffffffffffffffffffffffffff1673ffffffffffffffffffffffffffffffffffffffff16815260200191505060405180910390f35b61032f600480360360408110156102f957600080fd5b8101908080359060200190929190803573ffffffffffffffffffffffffffffffffffffffff16906020019092919050505061070e565b604051808215151515815260200191505060405180910390f35b61035161073f565b6040518082815260200191505060405180910390f35b6103936004803603602081101561037d57600080fd5b8101908080359060200190929190505050610746565b6040518082815260200191505060405180910390f35b6103f5600480360360408110156103bf57600080fd5b8101908080359060200190929190803573ffffffffffffffffffffffffffffffffffffffff16906020019092919050505061076c565b005b6103ff6107f5565b6040518082815260200191505060405180910390f35b60405180807f414d4241535341444f525f524f4c450000000000000000000000000000000000815250600f019050604051809103902081565b6000806000838152602001908152602001600020600201549050919050565b6104936000808481526020019081526020016000206002015461048e61082e565b61070e565b6104e8576040517f08c379a000000000000000000000000000000000000000000000000000000000815260040180806020018281038252602f815260200180610e5f602f913960400191505060405180910390fd5b6104f28282610836565b5050565b6104fe61082e565b73ffffffffffffffffffffffffffffffffffffffff168173ffffffffffffffffffffffffffffffffffffffff1614610581576040517f08c379a000000000000000000000000000000000000000000000000000000000815260040180806020018281038252602f815260200180610ebe602f913960400191505060405180910390fd5b61058b82826108c9565b5050565b61059c6000801b3361070e565b61060e576040517f08c379a00000000000000000000000000000000000000000000000000000000081526004018080602001828103825260138152602001807f43616c6c6572206973206e6f742061646d696e0000000000000000000000000081525060200191505060405180910390fd5b61061661095c565b565b6000600160009054906101000a900460ff16905090565b61063c6000801b3361070e565b6106ae576040517f08c379a00000000000000000000000000000000000000000000000000000000081526004018080602001828103825260138152602001807f43616c6c6572206973206e6f742061646d696e0000000000000000000000000081525060200191505060405180910390fd5b6106b6610a65565b565b6001809054906101000a900473ffffffffffffffffffffffffffffffffffffffff1681565b600061070682600080868152602001908152602001600020600001610b6e90919063ffffffff16565b905092915050565b600061073782600080868152602001908152602001600020600001610b8890919063ffffffff16565b905092915050565b6000801b81565b6000610765600080848152602001908152602001600020600001610bb8565b9050919050565b6107926000808481526020019081526020016000206002015461078d61082e565b61070e565b6107e7576040517f08c379a0000000000000000000000000000000000000000000000000000000008152600401808060200182810382526030815260200180610e8e6030913960400191505060405180910390fd5b6107f182826108c9565b5050565b60405180807f504c414e5445525f524f4c450000000000000000000000000000000000000000815250600c019050604051809103902081565b600033905090565b61085d81600080858152602001908152602001600020600001610bcd90919063ffffffff16565b156108c55761086a61082e565b73ffffffffffffffffffffffffffffffffffffffff168173ffffffffffffffffffffffffffffffffffffffff16837f2f8788117e7eff1d82e926ec794901d17c78024a50270940304540a733656f0d60405160405180910390a45b5050565b6108f081600080858152602001908152602001600020600001610bfd90919063ffffffff16565b15610958576108fd61082e565b73ffffffffffffffffffffffffffffffffffffffff168173ffffffffffffffffffffffffffffffffffffffff16837ff6391f5c32d9c69d2a47ea670b442974b53935d1edc7fd64eb21e047a839171b60405160405180910390a45b5050565b600160009054906101000a900460ff166109de576040517f08c379a00000000000000000000000000000000000000000000000000000000081526004018080602001828103825260148152602001807f5061757361626c653a206e6f742070617573656400000000000000000000000081525060200191505060405180910390fd5b6000600160006101000a81548160ff0219169083151502179055507f5db9ee0a495bf2e6ff9c91a7834c1ba4fdd244a5e8aa4e537bd38aeae4b073aa610a2261082e565b604051808273ffffffffffffffffffffffffffffffffffffffff1673ffffffffffffffffffffffffffffffffffffffff16815260200191505060405180910390a1565b600160009054906101000a900460ff1615610ae8576040517f08c379a00000000000000000000000000000000000000000000000000000000081526004018080602001828103825260108152602001807f5061757361626c653a207061757365640000000000000000000000000000000081525060200191505060405180910390fd5b60018060006101000a81548160ff0219169083151502179055507f62e78cea01bee320cd4e420270b5ea74000d11b0c9f74754ebdbfc544b05a258610b2b61082e565b604051808273ffffffffffffffffffffffffffffffffffffffff1673ffffffffffffffffffffffffffffffffffffffff16815260200191505060405180910390a1565b6000610b7d8360000183610c2d565b60001c905092915050565b6000610bb0836000018373ffffffffffffffffffffffffffffffffffffffff1660001b610cb0565b905092915050565b6000610bc682600001610cd3565b9050919050565b6000610bf5836000018373ffffffffffffffffffffffffffffffffffffffff1660001b610ce4565b905092915050565b6000610c25836000018373ffffffffffffffffffffffffffffffffffffffff1660001b610d54565b905092915050565b600081836000018054905011610c8e576040517f08c379a0000000000000000000000000000000000000000000000000000000008152600401808060200182810382526022815260200180610e3d6022913960400191505060405180910390fd5b826000018281548110610c9d57fe5b9060005260206000200154905092915050565b600080836001016000848152602001908152602001600020541415905092915050565b600081600001805490509050919050565b6000610cf08383610cb0565b610d49578260000182908060018154018082558091505060019003906000526020600020016000909190919091505582600001805490508360010160008481526020019081526020016000208190555060019050610d4e565b600090505b92915050565b60008083600101600084815260200190815260200160002054905060008114610e305760006001820390506000600186600001805490500390506000866000018281548110610d9f57fe5b9060005260206000200154905080876000018481548110610dbc57fe5b9060005260206000200181905550600183018760010160008381526020019081526020016000208190555086600001805480610df457fe5b60019003818190600052602060002001600090559055866001016000878152602001908152602001600020600090556001945050505050610e36565b60009150505b9291505056fe456e756d657261626c655365743a20696e646578206f7574206f6620626f756e6473416363657373436f6e74726f6c3a2073656e646572206d75737420626520616e2061646d696e20746f206772616e74416363657373436f6e74726f6c3a2073656e646572206d75737420626520616e2061646d696e20746f207265766f6b65416363657373436f6e74726f6c3a2063616e206f6e6c792072656e6f756e636520726f6c657320666f722073656c66a2646970667358221220f950210827ab3bc4c63fd3b96845c60a7be82171144cd2f28172a7374e43e58564736f6c63430006020033",
  "source": "// SPDX-License-Identifier: GPL-3.0\n\npragma solidity >=0.4.21 <0.7.0;\n\nimport \"../../node_modules/@openzeppelin/contracts/access/AccessControl.sol\";\nimport \"../../node_modules/@openzeppelin/contracts/utils/Pausable.sol\";\n\n\ncontract AccessRestriction is AccessControl, Pausable {\n\n    address public owner = msg.sender;\n\n    bytes32 public constant PLANTER_ROLE = keccak256(\"PLANTER_ROLE\");\n    bytes32 public constant AMBASSADOR_ROLE = keccak256(\"AMBASSADOR_ROLE\");\n\n    constructor() public {\n        _setupRole(DEFAULT_ADMIN_ROLE, msg.sender);\n        _setupRole(PLANTER_ROLE, msg.sender);\n        _setupRole(AMBASSADOR_ROLE, msg.sender);\n    }\n\n\n    modifier onlyOwnerOfTree(address _account)\n    {\n        require(msg.sender == _account, \"Sender not authorized, Only owner of tree authorized!\");\n        _;\n    }\n\n    modifier planterOrAmbassador()\n    {\n        require(hasRole(PLANTER_ROLE, msg.sender) ||\n                hasRole(AMBASSADOR_ROLE, msg.sender),\n                \"Caller is not a planter or ambassador\");\n        _;\n    }\n\n    modifier onlyPlanter()\n    {\n        require(hasRole(PLANTER_ROLE, msg.sender),\n                \"Caller is not a planter\");\n        _;\n    }\n\n    modifier onlyAdmin()\n    {\n        require(hasRole(DEFAULT_ADMIN_ROLE, msg.sender),\n                \"Caller is not admin\");\n        _;\n    }\n\n    function pause() external onlyAdmin {\n        _pause();\n    }\n\n    function unpause() external onlyAdmin {\n        _unpause();\n    }\n\n\n\n}",
  "sourcePath": "/home/amir/Projects/treejer/contract/contracts/access/AccessRestriction.sol",
  "compiler": {
    "name": "solc",
    "version": "0.6.2+commit.bacdbe57.Emscripten.clang"
  },
  "schemaVersion": "3.0.22",
  "updatedAt": "2020-07-29T06:29:27.792Z",
  "networkType": "ethereum",
  "devdoc": {
    "methods": {
      "getRoleAdmin(bytes32)": {
        "details": "Returns the admin role that controls `role`. See {grantRole} and {revokeRole}.     * To change a role's admin, use {_setRoleAdmin}."
      },
      "getRoleMember(bytes32,uint256)": {
        "details": "Returns one of the accounts that have `role`. `index` must be a value between 0 and {getRoleMemberCount}, non-inclusive.     * Role bearers are not sorted in any particular way, and their ordering may change at any point.     * WARNING: When using {getRoleMember} and {getRoleMemberCount}, make sure you perform all queries on the same block. See the following https://forum.openzeppelin.com/t/iterating-over-elements-on-enumerableset-in-openzeppelin-contracts/2296[forum post] for more information."
      },
      "getRoleMemberCount(bytes32)": {
        "details": "Returns the number of accounts that have `role`. Can be used together with {getRoleMember} to enumerate all bearers of a role."
      },
      "grantRole(bytes32,address)": {
        "details": "Grants `role` to `account`.     * If `account` had not been already granted `role`, emits a {RoleGranted} event.     * Requirements:     * - the caller must have ``role``'s admin role."
      },
      "hasRole(bytes32,address)": {
        "details": "Returns `true` if `account` has been granted `role`."
      },
      "paused()": {
        "details": "Returns true if the contract is paused, and false otherwise."
      },
      "renounceRole(bytes32,address)": {
        "details": "Revokes `role` from the calling account.     * Roles are often managed via {grantRole} and {revokeRole}: this function's purpose is to provide a mechanism for accounts to lose their privileges if they are compromised (such as when a trusted device is misplaced).     * If the calling account had been granted `role`, emits a {RoleRevoked} event.     * Requirements:     * - the caller must be `account`."
      },
      "revokeRole(bytes32,address)": {
        "details": "Revokes `role` from `account`.     * If `account` had been granted `role`, emits a {RoleRevoked} event.     * Requirements:     * - the caller must have ``role``'s admin role."
      }
    }
  },
  "userdoc": {
    "methods": {}
  }
}