{
  "contractName": "Auction",
  "abi": [
    {
      "anonymous": false,
      "inputs": [
        {
          "indexed": false,
          "internalType": "uint256",
          "name": "auctionId",
          "type": "uint256"
        }
      ],
      "name": "AuctionCreated",
      "type": "event"
    },
    {
      "anonymous": false,
      "inputs": [
        {
          "indexed": false,
          "internalType": "uint256",
          "name": "auctionId",
          "type": "uint256"
        },
        {
          "indexed": false,
          "internalType": "uint256",
          "name": "newAuctionEndTime",
          "type": "uint256"
        }
      ],
      "name": "AuctionEndTimeIncreased",
      "type": "event"
    },
    {
      "anonymous": false,
      "inputs": [
        {
          "indexed": false,
          "internalType": "uint256",
          "name": "auctionId",
          "type": "uint256"
        },
        {
          "indexed": false,
          "internalType": "uint256",
          "name": "treeId",
          "type": "uint256"
        }
      ],
      "name": "AuctionEnded",
      "type": "event"
    },
    {
      "anonymous": false,
      "inputs": [
        {
          "indexed": false,
          "internalType": "uint256",
          "name": "auctionId",
          "type": "uint256"
        },
        {
          "indexed": false,
          "internalType": "uint256",
          "name": "treeId",
          "type": "uint256"
        },
        {
          "indexed": false,
          "internalType": "address",
          "name": "winner",
          "type": "address"
        },
        {
          "indexed": false,
          "internalType": "uint256",
          "name": "amount",
          "type": "uint256"
        },
        {
          "indexed": false,
          "internalType": "address",
          "name": "referrer",
          "type": "address"
        }
      ],
      "name": "AuctionSettled",
      "type": "event"
    },
    {
      "anonymous": false,
      "inputs": [
        {
          "indexed": false,
          "internalType": "uint256",
          "name": "auctionId",
          "type": "uint256"
        },
        {
          "indexed": false,
          "internalType": "uint256",
          "name": "treeId",
          "type": "uint256"
        },
        {
          "indexed": false,
          "internalType": "address",
          "name": "bidder",
          "type": "address"
        },
        {
          "indexed": false,
          "internalType": "uint256",
          "name": "amount",
          "type": "uint256"
        },
        {
          "indexed": false,
          "internalType": "address",
          "name": "referrer",
          "type": "address"
        }
      ],
      "name": "HighestBidIncreased",
      "type": "event"
    },
    {
      "inputs": [],
      "name": "accessRestriction",
      "outputs": [
        {
          "internalType": "contract IAccessRestriction",
          "name": "",
          "type": "address"
        }
      ],
      "stateMutability": "view",
      "type": "function",
      "constant": true
    },
    {
      "inputs": [],
      "name": "allocation",
      "outputs": [
        {
          "internalType": "contract IAllocation",
          "name": "",
          "type": "address"
        }
      ],
      "stateMutability": "view",
      "type": "function",
      "constant": true
    },
    {
      "inputs": [
        {
          "internalType": "uint256",
          "name": "",
          "type": "uint256"
        }
      ],
      "name": "auctions",
      "outputs": [
        {
          "internalType": "uint256",
          "name": "treeId",
          "type": "uint256"
        },
        {
          "internalType": "address",
          "name": "bidder",
          "type": "address"
        },
        {
          "internalType": "uint64",
          "name": "startDate",
          "type": "uint64"
        },
        {
          "internalType": "uint64",
          "name": "endDate",
          "type": "uint64"
        },
        {
          "internalType": "uint64",
          "name": "bidInterval",
          "type": "uint64"
        },
        {
          "internalType": "uint256",
          "name": "highestBid",
          "type": "uint256"
        }
      ],
      "stateMutability": "view",
      "type": "function",
      "constant": true
    },
    {
      "inputs": [],
      "name": "isAuction",
      "outputs": [
        {
          "internalType": "bool",
          "name": "",
          "type": "bool"
        }
      ],
      "stateMutability": "view",
      "type": "function",
      "constant": true
    },
    {
      "inputs": [
        {
          "internalType": "address",
          "name": "",
          "type": "address"
        },
        {
          "internalType": "uint256",
          "name": "",
          "type": "uint256"
        }
      ],
      "name": "referrals",
      "outputs": [
        {
          "internalType": "address",
          "name": "",
          "type": "address"
        }
      ],
      "stateMutability": "view",
      "type": "function",
      "constant": true
    },
    {
      "inputs": [],
      "name": "regularSale",
      "outputs": [
        {
          "internalType": "contract IRegularSale",
          "name": "",
          "type": "address"
        }
      ],
      "stateMutability": "view",
      "type": "function",
      "constant": true
    },
    {
      "inputs": [],
      "name": "treeFactory",
      "outputs": [
        {
          "internalType": "contract ITreeFactory",
          "name": "",
          "type": "address"
        }
      ],
      "stateMutability": "view",
      "type": "function",
      "constant": true
    },
    {
      "inputs": [],
      "name": "wethFund",
      "outputs": [
        {
          "internalType": "contract IWethFund",
          "name": "",
          "type": "address"
        }
      ],
      "stateMutability": "view",
      "type": "function",
      "constant": true
    },
    {
      "inputs": [],
      "name": "wethToken",
      "outputs": [
        {
          "internalType": "contract IERC20Upgradeable",
          "name": "",
          "type": "address"
        }
      ],
      "stateMutability": "view",
      "type": "function",
      "constant": true
    },
    {
      "inputs": [
        {
          "internalType": "address",
          "name": "_accessRestrictionAddress",
          "type": "address"
        }
      ],
      "name": "initialize",
      "outputs": [],
      "stateMutability": "nonpayable",
      "type": "function"
    },
    {
      "inputs": [
        {
          "internalType": "address",
          "name": "_address",
          "type": "address"
        }
      ],
      "name": "setTreeFactoryAddress",
      "outputs": [],
      "stateMutability": "nonpayable",
      "type": "function"
    },
    {
      "inputs": [
        {
          "internalType": "address",
          "name": "_address",
          "type": "address"
        }
      ],
      "name": "setAllocationAddress",
      "outputs": [],
      "stateMutability": "nonpayable",
      "type": "function"
    },
    {
      "inputs": [
        {
          "internalType": "address",
          "name": "_address",
          "type": "address"
        }
      ],
      "name": "setWethFundAddress",
      "outputs": [],
      "stateMutability": "nonpayable",
      "type": "function"
    },
    {
      "inputs": [
        {
          "internalType": "address",
          "name": "_address",
          "type": "address"
        }
      ],
      "name": "setRegularSaleAddress",
      "outputs": [],
      "stateMutability": "nonpayable",
      "type": "function"
    },
    {
      "inputs": [
        {
          "internalType": "address",
          "name": "_address",
          "type": "address"
        }
      ],
      "name": "setWethTokenAddress",
      "outputs": [],
      "stateMutability": "nonpayable",
      "type": "function"
    },
    {
      "inputs": [
        {
          "internalType": "uint256",
          "name": "_treeId",
          "type": "uint256"
        },
        {
          "internalType": "uint64",
          "name": "_startDate",
          "type": "uint64"
        },
        {
          "internalType": "uint64",
          "name": "_endDate",
          "type": "uint64"
        },
        {
          "internalType": "uint256",
          "name": "_intialPrice",
          "type": "uint256"
        },
        {
          "internalType": "uint64",
          "name": "_bidInterval",
          "type": "uint64"
        }
      ],
      "name": "createAuction",
      "outputs": [],
      "stateMutability": "nonpayable",
      "type": "function"
    },
    {
      "inputs": [
        {
          "internalType": "uint256",
          "name": "auctionId_",
          "type": "uint256"
        },
        {
          "internalType": "uint256",
          "name": "_amount",
          "type": "uint256"
        },
        {
          "internalType": "address",
          "name": "_referrer",
          "type": "address"
        }
      ],
      "name": "bid",
      "outputs": [],
      "stateMutability": "nonpayable",
      "type": "function"
    },
    {
      "inputs": [
        {
          "internalType": "uint256",
          "name": "auctionId_",
          "type": "uint256"
        },
        {
          "internalType": "uint256",
          "name": "_minDaiOut",
          "type": "uint256"
        }
      ],
      "name": "endAuction",
      "outputs": [],
      "stateMutability": "nonpayable",
      "type": "function"
    }
  ],
  "bytecode": "0x608060405234801561001057600080fd5b50612536806100206000396000f3fe608060405234801561001057600080fd5b50600436106101365760003560e01c806388a17bde116100b2578063c4d66de811610081578063e697b5d811610066578063e697b5d814610395578063e81c4c3e146103d6578063f7dff4b0146103e957600080fd5b8063c4d66de81461035d578063d6762c4a1461037057600080fd5b806388a17bde146102ed57806395ab5aa51461030d578063b83b89781461032d578063c17723f91461034057600080fd5b8063571a26a0116101095780636acc9777116100ee5780636acc9777146102b4578063742f0a90146102c7578063881e4cb4146102da57600080fd5b8063571a26a0146101cd57806359bac35b146102a157600080fd5b80630bf351f81461013b578063421ef6d41461015057806347afe4371461019a5780634b57b0be146101ad575b600080fd5b61014e6101493660046121f3565b610409565b005b6003546101709073ffffffffffffffffffffffffffffffffffffffff1681565b60405173ffffffffffffffffffffffffffffffffffffffff90911681526020015b60405180910390f35b61014e6101a836600461232a565b610562565b6006546101709073ffffffffffffffffffffffffffffffffffffffff1681565b61024f6101db3660046122f8565b6008602052600090815260409020805460018201546002830154600390930154919273ffffffffffffffffffffffffffffffffffffffff82169267ffffffffffffffff7401000000000000000000000000000000000000000090930483169282811692680100000000000000009004169086565b6040805196875273ffffffffffffffffffffffffffffffffffffffff909516602087015267ffffffffffffffff93841694860194909452908216606085015216608083015260a082015260c001610191565b61014e6102af3660046121f3565b610aa6565b61014e6102c23660046121f3565b610bff565b61014e6102d536600461234c565b610d4b565b61014e6102e83660046121f3565b6114f5565b6005546101709073ffffffffffffffffffffffffffffffffffffffff1681565b6007546101709073ffffffffffffffffffffffffffffffffffffffff1681565b61014e61033b366004612381565b61164e565b60025461034d9060ff1681565b6040519015158152602001610191565b61014e61036b3660046121f3565b611b13565b60025461017090610100900473ffffffffffffffffffffffffffffffffffffffff1681565b6101706103a3366004612215565b600960209081526000928352604080842090915290825290205473ffffffffffffffffffffffffffffffffffffffff1681565b61014e6103e43660046121f3565b611d03565b6004546101709073ffffffffffffffffffffffffffffffffffffffff1681565b6002546040517f8413ec1400000000000000000000000000000000000000000000000000000000815233600482015261010090910473ffffffffffffffffffffffffffffffffffffffff1690638413ec149060240160006040518083038186803b15801561047657600080fd5b505afa15801561048a573d6000803e3d6000fd5b5050505060008190508073ffffffffffffffffffffffffffffffffffffffff1663e0eb4eb96040518163ffffffff1660e01b815260040160206040518083038186803b1580156104d957600080fd5b505afa1580156104ed573d6000803e3d6000fd5b505050506040513d601f19601f82011682018060405250810190610511919061223f565b61051a57600080fd5b600380547fffffffffffffffffffffffff00000000000000000000000000000000000000001673ffffffffffffffffffffffffffffffffffffffff9290921691909117905550565b600260019054906101000a900473ffffffffffffffffffffffffffffffffffffffff1673ffffffffffffffffffffffffffffffffffffffff16634d868f986040518163ffffffff1660e01b815260040160006040518083038186803b1580156105ca57600080fd5b505afa1580156105de573d6000803e3d6000fd5b5050506000838152600860205260409020600281015490915067ffffffffffffffff1661066c576040517f08c379a000000000000000000000000000000000000000000000000000000000815260206004820152601660248201527f41756374696f6e20697320756e617661696c61626c650000000000000000000060448201526064015b60405180910390fd5b600281015467ffffffffffffffff164210156106e4576040517f08c379a000000000000000000000000000000000000000000000000000000000815260206004820152601560248201527f41756374696f6e206e6f742079657420656e64656400000000000000000000006044820152606401610663565b600181015473ffffffffffffffffffffffffffffffffffffffff161561096f576006546004805460038401546040517fa9059cbb00000000000000000000000000000000000000000000000000000000815273ffffffffffffffffffffffffffffffffffffffff928316938101939093526024830152600092169063a9059cbb90604401602060405180830381600087803b15801561078257600080fd5b505af1158015610796573d6000803e3d6000fd5b505050506040513d601f19601f820116820180604052508101906107ba919061223f565b905080610823576040517f08c379a000000000000000000000000000000000000000000000000000000000815260206004820152601560248201527f756e7375636365737366756c207472616e7366657200000000000000000000006044820152606401610663565b61082d8484611e5c565b600182015473ffffffffffffffffffffffffffffffffffffffff90811660009081526009602090815260408083208884529091529020541680156108f8576007546040517f211b1cdd00000000000000000000000000000000000000000000000000000000815273ffffffffffffffffffffffffffffffffffffffff8381166004830152600160248301529091169063211b1cdd90604401600060405180830381600087803b1580156108df57600080fd5b505af11580156108f3573d6000803e3d6000fd5b505050505b82546001840154600385015460408051898152602081019490945273ffffffffffffffffffffffffffffffffffffffff928316908401526060830152821660808201527fe3696d50d6f87544888f2045f19158a693b27d4e77403e36e161bec6ccc7cd6d9060a00160405180910390a15050610a39565b60035481546040517fac5064a000000000000000000000000000000000000000000000000000000000815273ffffffffffffffffffffffffffffffffffffffff9092169163ac5064a0916109c99160040190815260200190565b600060405180830381600087803b1580156109e357600080fd5b505af11580156109f7573d6000803e3d6000fd5b505082546040805187815260208101929092527fe536ac546f86787f3ea4069f79235c6b5a681e87d051300a3ed19a6ebb0db71c935001905060405180910390a15b505060009081526008602052604081208181556001810180547fffffffff000000000000000000000000000000000000000000000000000000001690556002810180547fffffffffffffffffffffffffffffffff0000000000000000000000000000000016905560030155565b6002546040517f8413ec1400000000000000000000000000000000000000000000000000000000815233600482015261010090910473ffffffffffffffffffffffffffffffffffffffff1690638413ec149060240160006040518083038186803b158015610b1357600080fd5b505afa158015610b27573d6000803e3d6000fd5b5050505060008190508073ffffffffffffffffffffffffffffffffffffffff16632f10d7956040518163ffffffff1660e01b815260040160206040518083038186803b158015610b7657600080fd5b505afa158015610b8a573d6000803e3d6000fd5b505050506040513d601f19601f82011682018060405250810190610bae919061223f565b610bb757600080fd5b600580547fffffffffffffffffffffffff00000000000000000000000000000000000000001673ffffffffffffffffffffffffffffffffffffffff9290921691909117905550565b6002546040517f8413ec1400000000000000000000000000000000000000000000000000000000815233600482015261010090910473ffffffffffffffffffffffffffffffffffffffff1690638413ec149060240160006040518083038186803b158015610c6c57600080fd5b505afa158015610c80573d6000803e3d6000fd5b50839250505073ffffffffffffffffffffffffffffffffffffffff8116610d03576040517f08c379a000000000000000000000000000000000000000000000000000000000815260206004820152600f60248201527f696e76616c6964206164647265737300000000000000000000000000000000006044820152606401610663565b50600680547fffffffffffffffffffffffff00000000000000000000000000000000000000001673ffffffffffffffffffffffffffffffffffffffff92909216919091179055565b600260019054906101000a900473ffffffffffffffffffffffffffffffffffffffff1673ffffffffffffffffffffffffffffffffffffffff16634d868f986040518163ffffffff1660e01b815260040160006040518083038186803b158015610db357600080fd5b505afa158015610dc7573d6000803e3d6000fd5b5050505073ffffffffffffffffffffffffffffffffffffffff8116331415610e4b576040517f08c379a000000000000000000000000000000000000000000000000000000000815260206004820152601760248201527f496e76616c6964207265666572616c20616464726573730000000000000000006044820152606401610663565b6000838152600860205260409020600281015467ffffffffffffffff16421115610ed1576040517f08c379a000000000000000000000000000000000000000000000000000000000815260206004820152601560248201527f61756374696f6e20616c726561647920656e64656400000000000000000000006044820152606401610663565b600181015474010000000000000000000000000000000000000000900467ffffffffffffffff16421015610f61576040517f08c379a000000000000000000000000000000000000000000000000000000000815260206004820152601360248201527f61756374696f6e206e6f742073746172746564000000000000000000000000006044820152606401610663565b6003810154600282015460009161271091610f92919068010000000000000000900467ffffffffffffffff1661247d565b610f9c9190612442565b905067016345785d8a00008111610fbb5767016345785d8a0000610fbd565b805b8260030154610fcc91906123fe565b841015611035576040517f08c379a000000000000000000000000000000000000000000000000000000000815260206004820152600e60248201527f696e76616c696420616d6f756e740000000000000000000000000000000000006044820152606401610663565b6006546040517f70a08231000000000000000000000000000000000000000000000000000000008152336004820152859173ffffffffffffffffffffffffffffffffffffffff16906370a082319060240160206040518083038186803b15801561109e57600080fd5b505afa1580156110b2573d6000803e3d6000fd5b505050506040513d601f19601f820116820180604052508101906110d69190612311565b101561113e576040517f08c379a000000000000000000000000000000000000000000000000000000000815260206004820152601460248201527f696e73756666696369656e742062616c616e63650000000000000000000000006044820152606401610663565b6006546040517f23b872dd0000000000000000000000000000000000000000000000000000000081523360048201523060248201526044810186905260009173ffffffffffffffffffffffffffffffffffffffff16906323b872dd90606401602060405180830381600087803b1580156111b757600080fd5b505af11580156111cb573d6000803e3d6000fd5b505050506040513d601f19601f820116820180604052508101906111ef919061223f565b905080611258576040517f08c379a000000000000000000000000000000000000000000000000000000000815260206004820152601560248201527f756e7375636365737366756c207472616e7366657200000000000000000000006044820152606401610663565b73ffffffffffffffffffffffffffffffffffffffff8416158015906112ab575033600090815260096020908152604080832089845290915290205473ffffffffffffffffffffffffffffffffffffffff16155b1561130957336000908152600960209081526040808320898452909152902080547fffffffffffffffffffffffff00000000000000000000000000000000000000001673ffffffffffffffffffffffffffffffffffffffff86161790555b60018301805460038501805490889055337fffffffffffffffffffffffff0000000000000000000000000000000000000000831681179093558554604080518b815260208101929092528101939093526060830188905273ffffffffffffffffffffffffffffffffffffffff8781166080850152909116917f263d893bf8cb4829494d4bfc0bcd1060212888cbc932a26bf3ea4bc31dcadae89060a00160405180910390a16113b7886120d1565b73ffffffffffffffffffffffffffffffffffffffff8216156114eb576006546040517fa9059cbb00000000000000000000000000000000000000000000000000000000815273ffffffffffffffffffffffffffffffffffffffff848116600483015260248201849052600092169063a9059cbb90604401602060405180830381600087803b15801561144857600080fd5b505af115801561145c573d6000803e3d6000fd5b505050506040513d601f19601f82011682018060405250810190611480919061223f565b9050806114e9576040517f08c379a000000000000000000000000000000000000000000000000000000000815260206004820152601560248201527f756e7375636365737366756c207472616e7366657200000000000000000000006044820152606401610663565b505b5050505050505050565b6002546040517f8413ec1400000000000000000000000000000000000000000000000000000000815233600482015261010090910473ffffffffffffffffffffffffffffffffffffffff1690638413ec149060240160006040518083038186803b15801561156257600080fd5b505afa158015611576573d6000803e3d6000fd5b5050505060008190508073ffffffffffffffffffffffffffffffffffffffff1663a6cd16fd6040518163ffffffff1660e01b815260040160206040518083038186803b1580156115c557600080fd5b505afa1580156115d9573d6000803e3d6000fd5b505050506040513d601f19601f820116820180604052508101906115fd919061223f565b61160657600080fd5b600480547fffffffffffffffffffffffff00000000000000000000000000000000000000001673ffffffffffffffffffffffffffffffffffffffff9290921691909117905550565b600260019054906101000a900473ffffffffffffffffffffffffffffffffffffffff1673ffffffffffffffffffffffffffffffffffffffff16634d868f986040518163ffffffff1660e01b815260040160006040518083038186803b1580156116b657600080fd5b505afa1580156116ca573d6000803e3d6000fd5b50506002546040517fc4d2a31b00000000000000000000000000000000000000000000000000000000815233600482015261010090910473ffffffffffffffffffffffffffffffffffffffff16925063c4d2a31b915060240160006040518083038186803b15801561173b57600080fd5b505afa15801561174f573d6000803e3d6000fd5b50506005546040517f8ea4e59f0000000000000000000000000000000000000000000000000000000081526004810189905273ffffffffffffffffffffffffffffffffffffffff9091169250638ea4e59f915060240160206040518083038186803b1580156117bd57600080fd5b505afa1580156117d1573d6000803e3d6000fd5b505050506040513d601f19601f820116820180604052508101906117f5919061223f565b61185b576040517f08c379a000000000000000000000000000000000000000000000000000000000815260206004820181905260248201527f6571756976616c616e742066756e64204d6f64656c206e6f74206578697374736044820152606401610663565b8067ffffffffffffffff16600010801561188057506127118167ffffffffffffffff16105b6118e6576040517f08c379a000000000000000000000000000000000000000000000000000000000815260206004820152601360248201527f696e76616c696420626964496e74657276616c000000000000000000000000006044820152606401610663565b6003546040517fc6826fc9000000000000000000000000000000000000000000000000000000008152600481018790526001602482015260009173ffffffffffffffffffffffffffffffffffffffff169063c6826fc990604401602060405180830381600087803b15801561195a57600080fd5b505af115801561196e573d6000803e3d6000fd5b505050506040513d601f19601f8201168201806040525081019061199291906123d8565b905063ffffffff811615611a02576040517f08c379a000000000000000000000000000000000000000000000000000000000815260206004820152601960248201527f6e6f7420617661696c61626c6520666f722061756374696f6e000000000000006044820152606401610663565b600060086000611a1160015490565b815260208101919091526040016000208781556001808201805467ffffffffffffffff8a811674010000000000000000000000000000000000000000027fffffffff0000000000000000ffffffffffffffffffffffffffffffffffffffff909216919091179091556002830180546003850189905587831668010000000000000000027fffffffffffffffffffffffffffffffff00000000000000000000000000000000909116928a1692909217919091179055549091507f7e0e356457a92dacd3760ddf327a24dd226c6ca01b2cc41a7fd6f28469c7ab9b9060405190815260200160405180910390a1611b0a600180546001019055565b50505050505050565b600054610100900460ff1680611b2c575060005460ff16155b611bb8576040517f08c379a000000000000000000000000000000000000000000000000000000000815260206004820152602e60248201527f496e697469616c697a61626c653a20636f6e747261637420697320616c72656160448201527f647920696e697469616c697a65640000000000000000000000000000000000006064820152608401610663565b600054610100900460ff16158015611bf757600080547fffffffffffffffffffffffffffffffffffffffffffffffffffffffffffff0000166101011790555b60008290508073ffffffffffffffffffffffffffffffffffffffff1663ba84fd696040518163ffffffff1660e01b815260040160206040518083038186803b158015611c4257600080fd5b505afa158015611c56573d6000803e3d6000fd5b505050506040513d601f19601f82011682018060405250810190611c7a919061223f565b611c8357600080fd5b6002805473ffffffffffffffffffffffffffffffffffffffff909216610100027fffffffffffffffffffffff0000000000000000000000000000000000000000009092169190911760011790558015611cff57600080547fffffffffffffffffffffffffffffffffffffffffffffffffffffffffffff00ff1690555b5050565b6002546040517f8413ec1400000000000000000000000000000000000000000000000000000000815233600482015261010090910473ffffffffffffffffffffffffffffffffffffffff1690638413ec149060240160006040518083038186803b158015611d7057600080fd5b505afa158015611d84573d6000803e3d6000fd5b5050505060008190508073ffffffffffffffffffffffffffffffffffffffff16636a837c8e6040518163ffffffff1660e01b815260040160206040518083038186803b158015611dd357600080fd5b505afa158015611de7573d6000803e3d6000fd5b505050506040513d601f19601f82011682018060405250810190611e0b919061223f565b611e1457600080fd5b600780547fffffffffffffffffffffffff00000000000000000000000000000000000000001673ffffffffffffffffffffffffffffffffffffffff9290921691909117905550565b600082815260086020526040808220600554815492517f0393f3d30000000000000000000000000000000000000000000000000000000081526004810193909352909291829182918291829182918291829173ffffffffffffffffffffffffffffffffffffffff1690630393f3d39060240161010060405180830381600087803b158015611ee957600080fd5b505af1158015611efd573d6000803e3d6000fd5b505050506040513d601f19601f82011682018060405250810190611f219190612261565b97509750975097509750975097509750600460009054906101000a900473ffffffffffffffffffffffffffffffffffffffff1673ffffffffffffffffffffffffffffffffffffffff166386b99f708a600001548b600301548d8c8c8c8c8c8c8c8c6040518c63ffffffff1660e01b8152600401611ffe9b9a999897969594939291909a8b5260208b019990995260408a019790975261ffff95861660608a0152938516608089015291841660a0880152831660c0870152821660e08601528116610100850152908116610120840152166101408201526101600190565b600060405180830381600087803b15801561201857600080fd5b505af115801561202c573d6000803e3d6000fd5b50506003548b5460018d01546040517f9c8446f7000000000000000000000000000000000000000000000000000000008152600481019290925273ffffffffffffffffffffffffffffffffffffffff90811660248301529091169250639c8446f79150604401600060405180830381600087803b1580156120ac57600080fd5b505af11580156120c0573d6000803e3d6000fd5b505050505050505050505050505050565b600081815260086020526040902060020154610258906120fc90429067ffffffffffffffff166124ba565b1161219d5760008181526008602052604081206002018054610258929061212e90849067ffffffffffffffff16612416565b82546101009290920a67ffffffffffffffff8181021990931691831602179091556000838152600860209081526040918290206002015482518681529316908301527f9c9cc6f8fa269c17bd097ed592ca8e0d3b4451b4c7bdbee9b802563aec9cd7b492500160405180910390a15b50565b803573ffffffffffffffffffffffffffffffffffffffff811681146121c457600080fd5b919050565b805161ffff811681146121c457600080fd5b803567ffffffffffffffff811681146121c457600080fd5b60006020828403121561220557600080fd5b61220e826121a0565b9392505050565b6000806040838503121561222857600080fd5b612231836121a0565b946020939093013593505050565b60006020828403121561225157600080fd5b8151801515811461220e57600080fd5b600080600080600080600080610100898b03121561227e57600080fd5b612287896121c9565b975061229560208a016121c9565b96506122a360408a016121c9565b95506122b160608a016121c9565b94506122bf60808a016121c9565b93506122cd60a08a016121c9565b92506122db60c08a016121c9565b91506122e960e08a016121c9565b90509295985092959890939650565b60006020828403121561230a57600080fd5b5035919050565b60006020828403121561232357600080fd5b5051919050565b6000806040838503121561233d57600080fd5b50508035926020909101359150565b60008060006060848603121561236157600080fd5b8335925060208401359150612378604085016121a0565b90509250925092565b600080600080600060a0868803121561239957600080fd5b853594506123a9602087016121db565b93506123b7604087016121db565b9250606086013591506123cc608087016121db565b90509295509295909350565b6000602082840312156123ea57600080fd5b815163ffffffff8116811461220e57600080fd5b60008219821115612411576124116124d1565b500190565b600067ffffffffffffffff808316818516808303821115612439576124396124d1565b01949350505050565b600082612478577f4e487b7100000000000000000000000000000000000000000000000000000000600052601260045260246000fd5b500490565b6000817fffffffffffffffffffffffffffffffffffffffffffffffffffffffffffffffff04831182151516156124b5576124b56124d1565b500290565b6000828210156124cc576124cc6124d1565b500390565b7f4e487b7100000000000000000000000000000000000000000000000000000000600052601160045260246000fdfea2646970667358221220163360da261f464346a73283928546832b45e6b739571e0287ca2bc53dd436e064736f6c63430008060033",
  "immutableReferences": {},
  "source": "// // SPDX-License-Identifier: GPL-3.0\n\npragma solidity ^0.8.6;\n\nimport \"@openzeppelin/contracts-upgradeable/proxy/utils/Initializable.sol\";\nimport \"@openzeppelin/contracts-upgradeable/utils/CountersUpgradeable.sol\";\nimport \"@openzeppelin/contracts-upgradeable/token/ERC20/IERC20Upgradeable.sol\";\nimport \"../access/IAccessRestriction.sol\";\nimport \"../tree/ITreeFactory.sol\";\nimport \"../treasury/IAllocation.sol\";\nimport \"../treasury/IWethFund.sol\";\nimport \"../regularSale/IRegularSale.sol\";\nimport \"./IAuction.sol\";\n\n/** @title Auction */\n\ncontract Auction is Initializable, IAuction {\n    using CountersUpgradeable for CountersUpgradeable.Counter;\n\n    struct AuctionData {\n        uint256 treeId;\n        address bidder;\n        uint64 startDate;\n        uint64 endDate;\n        uint64 bidInterval;\n        uint256 highestBid;\n    }\n\n    CountersUpgradeable.Counter private _auctionId;\n\n    /** NOTE {isAuction} set inside the initialize to {true} */\n\n    bool public override isAuction;\n\n    IAccessRestriction public accessRestriction;\n    ITreeFactory public treeFactory;\n    IWethFund public wethFund;\n    IAllocation public allocation;\n    IERC20Upgradeable public wethToken;\n    IRegularSale public regularSale;\n\n    /** NOTE mapping of auctionId to AuctionData struct */\n    mapping(uint256 => AuctionData) public override auctions;\n\n    /**NOTE mapping of bidder to mapping of auctionId to referral */\n    mapping(address => mapping(uint256 => address)) public override referrals;\n\n    /** NOTE modifier to check msg.sender has admin role */\n    modifier onlyAdmin() {\n        accessRestriction.ifAdmin(msg.sender);\n        _;\n    }\n\n    /** NOTE modifier to check msg.sender has data manager role */\n    modifier onlyDataManager() {\n        accessRestriction.ifDataManager(msg.sender);\n        _;\n    }\n\n    /** NOTE modifier for check if function is not paused*/\n    modifier ifNotPaused() {\n        accessRestriction.ifNotPaused();\n        _;\n    }\n\n    /** NOTE modifier for check valid address */\n    modifier validAddress(address _address) {\n        require(_address != address(0), \"invalid address\");\n        _;\n    }\n\n    /**\n     * @dev initialize accessRestriction contract and set true for isAuction\n     * @param _accessRestrictionAddress set to the address of accessRestriction contract\n     */\n    function initialize(address _accessRestrictionAddress)\n        external\n        override\n        initializer\n    {\n        IAccessRestriction candidateContract = IAccessRestriction(\n            _accessRestrictionAddress\n        );\n        require(candidateContract.isAccessRestriction());\n        isAuction = true;\n        accessRestriction = candidateContract;\n    }\n\n    /**\n     * @dev admin set TreeFactory contract address\n     * @param _address set to the address of TreeFactory contract\n     */\n    function setTreeFactoryAddress(address _address)\n        external\n        override\n        onlyAdmin\n    {\n        ITreeFactory candidateContract = ITreeFactory(_address);\n        require(candidateContract.isTreeFactory());\n        treeFactory = candidateContract;\n    }\n\n    /**\n     * @dev admin set Allocation contract address\n     * @param _address set to the address of Allocation contract\n     */\n\n    function setAllocationAddress(address _address)\n        external\n        override\n        onlyAdmin\n    {\n        IAllocation candidateContract = IAllocation(_address);\n        require(candidateContract.isAllocation());\n        allocation = candidateContract;\n    }\n\n    /**\n     * @dev admin set WethFund contract address\n     * @param _address set to the address of WethFund contract\n     */\n\n    function setWethFundAddress(address _address) external override onlyAdmin {\n        IWethFund candidateContract = IWethFund(_address);\n        require(candidateContract.isWethFund());\n        wethFund = candidateContract;\n    }\n\n    /**\n     * @dev admin set RegularSale contract address\n     * @param _address set to the address of RegularSale contract\n     */\n\n    function setRegularSaleAddress(address _address)\n        external\n        override\n        onlyAdmin\n    {\n        IRegularSale candidateContract = IRegularSale(_address);\n        require(candidateContract.isRegularSale());\n        regularSale = candidateContract;\n    }\n\n    /**\n     * @dev admin set WethToken contract address\n     * @param _address set to the address of WethToken contract\n     */\n\n    function setWethTokenAddress(address _address)\n        external\n        override\n        onlyAdmin\n        validAddress(_address)\n    {\n        IERC20Upgradeable candidateContract = IERC20Upgradeable(_address);\n        wethToken = candidateContract;\n    }\n\n    /**\n     * @dev admin put a tree with saleType of '0' in auction.\n     * NOTE set saleType to '1' to that tree\n     * NOTE its necessary that a allocation data has been assigned to {_treeId}\n     * @param _treeId treeId that auction create for\n     * @param _startDate strat time of auction\n     * @param _endDate end time of auction\n     * @param _intialPrice initial price of auction\n     * @param _bidInterval bid interval for auction.if it set to 10 for example and the last bid is 100.new bidder can bid at least for 110\n     */\n    function createAuction(\n        uint256 _treeId,\n        uint64 _startDate,\n        uint64 _endDate,\n        uint256 _intialPrice,\n        uint64 _bidInterval\n    ) external override ifNotPaused onlyDataManager {\n        require(\n            allocation.allocationExists(_treeId),\n            \"equivalant fund Model not exists\"\n        );\n\n        require(\n            0 < _bidInterval && _bidInterval < 10001,\n            \"invalid bidInterval\"\n        );\n\n        uint32 saleType = treeFactory.manageSaleType(_treeId, 1);\n\n        require(saleType == 0, \"not available for auction\");\n\n        AuctionData storage auctionData = auctions[_auctionId.current()];\n\n        auctionData.treeId = _treeId;\n        auctionData.startDate = _startDate;\n        auctionData.endDate = _endDate;\n        auctionData.highestBid = _intialPrice;\n        auctionData.bidInterval = _bidInterval;\n\n        emit AuctionCreated(_auctionId.current());\n\n        _auctionId.increment();\n    }\n\n    /**\n     * @dev user bid for {_auctionId} in a time beetwen start time and end time\n     * NOTE its require to send at least {higestBid + bidInterval } {_amount}.\n     * NOTE if new bid done old bidder refund automatically.\n     * NOTE if user bid 10 minutes left to auction end, auction's end time increase 10 minute\n     * @param auctionId_ auctionId that user bid for it.\n     */\n\n    function bid(\n        uint256 auctionId_,\n        uint256 _amount,\n        address _referrer\n    ) external override ifNotPaused {\n        require(msg.sender != _referrer, \"Invalid referal address\");\n\n        AuctionData storage auctionData = auctions[auctionId_];\n\n        require(\n            block.timestamp <= auctionData.endDate,\n            \"auction already ended\"\n        );\n\n        require(\n            block.timestamp >= auctionData.startDate,\n            \"auction not started\"\n        );\n\n        uint256 priceJump = (auctionData.bidInterval * auctionData.highestBid) /\n            10000;\n\n        require(\n            _amount >=\n                auctionData.highestBid +\n                    (priceJump > 0.1 ether ? priceJump : 0.1 ether),\n            \"invalid amount\"\n        );\n\n        require(\n            wethToken.balanceOf(msg.sender) >= _amount,\n            \"insufficient balance\"\n        );\n\n        bool success = wethToken.transferFrom(\n            msg.sender,\n            address(this),\n            _amount\n        );\n\n        require(success, \"unsuccessful transfer\");\n\n        if (\n            _referrer != address(0) &&\n            referrals[msg.sender][auctionId_] == address(0)\n        ) {\n            referrals[msg.sender][auctionId_] = _referrer;\n        }\n\n        address oldBidder = auctionData.bidder;\n        uint256 oldBid = auctionData.highestBid;\n\n        auctionData.highestBid = _amount;\n        auctionData.bidder = msg.sender;\n\n        emit HighestBidIncreased(\n            auctionId_,\n            auctionData.treeId,\n            msg.sender,\n            _amount,\n            _referrer\n        );\n\n        _increaseAuctionEndTime(auctionId_);\n\n        if (oldBidder != address(0)) {\n            bool successTransfer = wethToken.transfer(oldBidder, oldBid);\n\n            require(successTransfer, \"unsuccessful transfer\");\n        }\n    }\n\n    /** @dev end auction and mint tree to winner if auction has bidder\n     * and tree funded based on allocation data for that tree\n     * NOTE if winner has referrer, claimable trees of that referrer increase by 1\n     * NOTE if auction does not have bidder, saleType of tree in auction reset\n     * and admin can put that tree in another auction\n     * @param auctionId_ id of auction to end.\n     */\n    function endAuction(uint256 auctionId_, uint256 _minDaiOut)\n        external\n        override\n        ifNotPaused\n    {\n        AuctionData storage auctionData = auctions[auctionId_];\n\n        require(auctionData.endDate > 0, \"Auction is unavailable\");\n\n        require(\n            block.timestamp >= auctionData.endDate,\n            \"Auction not yet ended\"\n        );\n\n        if (auctionData.bidder != address(0)) {\n            bool success = wethToken.transfer(\n                address(wethFund),\n                auctionData.highestBid\n            );\n\n            require(success, \"unsuccessful transfer\");\n\n            _mintTree(auctionId_, _minDaiOut);\n\n            address referrerOfWinner = referrals[auctionData.bidder][\n                auctionId_\n            ];\n\n            if (referrerOfWinner != address(0)) {\n                regularSale.updateReferrerClaimableTreesWeth(\n                    referrerOfWinner,\n                    1\n                );\n            }\n\n            emit AuctionSettled(\n                auctionId_,\n                auctionData.treeId,\n                auctionData.bidder,\n                auctionData.highestBid,\n                referrerOfWinner\n            );\n        } else {\n            treeFactory.resetSaleType(auctionData.treeId);\n            emit AuctionEnded(auctionId_, auctionData.treeId);\n        }\n\n        delete auctions[auctionId_];\n    }\n\n    /** @dev if user bids less than 10 minutes left to the end of auction,\n     * aution end time increase 10 minutes\n     * @param auctionId_ id of auction to increase end time.\n     */\n    function _increaseAuctionEndTime(uint256 auctionId_) private {\n        if (auctions[auctionId_].endDate - block.timestamp <= 600) {\n            auctions[auctionId_].endDate += 600;\n            emit AuctionEndTimeIncreased(\n                auctionId_,\n                auctions[auctionId_].endDate\n            );\n        }\n    }\n\n    function _mintTree(uint256 auctionId_, uint256 _minDaiOut) private {\n        AuctionData storage auctionData = auctions[auctionId_];\n\n        (\n            uint16 planterShare,\n            uint16 ambassadorShare,\n            uint16 researchShare,\n            uint16 localDevelopmentShare,\n            uint16 insuranceShare,\n            uint16 treasuryShare,\n            uint16 reserve1Share,\n            uint16 reserve2Share\n        ) = allocation.findAllocationData(auctionData.treeId);\n\n        wethFund.fundTree(\n            auctionData.treeId,\n            auctionData.highestBid,\n            _minDaiOut,\n            planterShare,\n            ambassadorShare,\n            researchShare,\n            localDevelopmentShare,\n            insuranceShare,\n            treasuryShare,\n            reserve1Share,\n            reserve2Share\n        );\n\n        treeFactory.mintAssignedTree(auctionData.treeId, auctionData.bidder);\n    }\n}\n",
  "sourcePath": "/home/ali/Desktop/treejer/contract/contracts/auction/Auction.sol",
  "compiler": {
    "name": "solc",
    "version": "0.8.6+commit.11564f7e.Emscripten.clang"
  },
  "schemaVersion": "3.4.3",
  "updatedAt": "2022-01-11T12:01:47.686Z",
  "networkType": "ethereum",
  "devdoc": {
    "kind": "dev",
    "methods": {
      "bid(uint256,uint256,address)": {
        "details": "user bid for {_auctionId} in a time beetwen start time and end time NOTE its require to send at least {higestBid + bidInterval } {_amount}. NOTE if new bid done old bidder refund automatically. NOTE if user bid 10 minutes left to auction end, auction's end time increase 10 minute",
        "params": {
          "auctionId_": "auctionId that user bid for it."
        }
      },
      "createAuction(uint256,uint64,uint64,uint256,uint64)": {
        "details": "admin put a tree with saleType of '0' in auction. NOTE set saleType to '1' to that tree NOTE its necessary that a allocation data has been assigned to {_treeId}",
        "params": {
          "_bidInterval": "bid interval for auction.if it set to 10 for example and the last bid is 100.new bidder can bid at least for 110",
          "_endDate": "end time of auction",
          "_intialPrice": "initial price of auction",
          "_startDate": "strat time of auction",
          "_treeId": "treeId that auction create for"
        }
      },
      "endAuction(uint256,uint256)": {
        "details": "end auction and mint tree to winner if auction has bidder and tree funded based on allocation data for that tree NOTE if winner has referrer, claimable trees of that referrer increase by 1 NOTE if auction does not have bidder, saleType of tree in auction reset and admin can put that tree in another auction",
        "params": {
          "auctionId_": "id of auction to end."
        }
      },
      "initialize(address)": {
        "details": "initialize accessRestriction contract and set true for isAuction",
        "params": {
          "_accessRestrictionAddress": "set to the address of accessRestriction contract"
        }
      },
      "setAllocationAddress(address)": {
        "details": "admin set Allocation contract address",
        "params": {
          "_address": "set to the address of Allocation contract"
        }
      },
      "setRegularSaleAddress(address)": {
        "details": "admin set RegularSale contract address",
        "params": {
          "_address": "set to the address of RegularSale contract"
        }
      },
      "setTreeFactoryAddress(address)": {
        "details": "admin set TreeFactory contract address",
        "params": {
          "_address": "set to the address of TreeFactory contract"
        }
      },
      "setWethFundAddress(address)": {
        "details": "admin set WethFund contract address",
        "params": {
          "_address": "set to the address of WethFund contract"
        }
      },
      "setWethTokenAddress(address)": {
        "details": "admin set WethToken contract address",
        "params": {
          "_address": "set to the address of WethToken contract"
        }
      }
    },
    "title": "Auction ",
    "version": 1
  },
  "userdoc": {
    "kind": "user",
    "methods": {
      "auctions(uint256)": {
        "notice": "NOTE mapping of auctionId to AuctionData struct "
      },
      "isAuction()": {
        "notice": "NOTE {isAuction} set inside the initialize to {true} "
      },
      "referrals(address,uint256)": {
        "notice": "NOTE mapping of bidder to mapping of auctionId to referral "
      }
    },
    "version": 1
  }
}