{
  "contractName": "Auction",
  "abi": [
    {
      "anonymous": false,
      "inputs": [
        {
          "indexed": false,
          "internalType": "uint256",
          "name": "auctionId",
          "type": "uint256"
        }
      ],
      "name": "AuctionCreated",
      "type": "event"
    },
    {
      "anonymous": false,
      "inputs": [
        {
          "indexed": false,
          "internalType": "uint256",
          "name": "auctionId",
          "type": "uint256"
        },
        {
          "indexed": false,
          "internalType": "uint256",
          "name": "newAuctionEndTime",
          "type": "uint256"
        }
      ],
      "name": "AuctionEndTimeIncreased",
      "type": "event"
    },
    {
      "anonymous": false,
      "inputs": [
        {
          "indexed": false,
          "internalType": "uint256",
          "name": "auctionId",
          "type": "uint256"
        },
        {
          "indexed": false,
          "internalType": "uint256",
          "name": "treeId",
          "type": "uint256"
        }
      ],
      "name": "AuctionEnded",
      "type": "event"
    },
    {
      "anonymous": false,
      "inputs": [
        {
          "indexed": false,
          "internalType": "uint256",
          "name": "auctionId",
          "type": "uint256"
        },
        {
          "indexed": false,
          "internalType": "uint256",
          "name": "treeId",
          "type": "uint256"
        },
        {
          "indexed": false,
          "internalType": "address",
          "name": "winner",
          "type": "address"
        },
        {
          "indexed": false,
          "internalType": "uint256",
          "name": "amount",
          "type": "uint256"
        },
        {
          "indexed": false,
          "internalType": "address",
          "name": "referrer",
          "type": "address"
        }
      ],
      "name": "AuctionSettled",
      "type": "event"
    },
    {
      "anonymous": false,
      "inputs": [
        {
          "indexed": false,
          "internalType": "uint256",
          "name": "auctionId",
          "type": "uint256"
        },
        {
          "indexed": false,
          "internalType": "uint256",
          "name": "treeId",
          "type": "uint256"
        },
        {
          "indexed": false,
          "internalType": "address",
          "name": "bidder",
          "type": "address"
        },
        {
          "indexed": false,
          "internalType": "uint256",
          "name": "amount",
          "type": "uint256"
        },
        {
          "indexed": false,
          "internalType": "address",
          "name": "referrer",
          "type": "address"
        }
      ],
      "name": "HighestBidIncreased",
      "type": "event"
    },
    {
      "inputs": [],
      "name": "accessRestriction",
      "outputs": [
        {
          "internalType": "contract IAccessRestriction",
          "name": "",
          "type": "address"
        }
      ],
      "stateMutability": "view",
      "type": "function",
      "constant": true
    },
    {
      "inputs": [],
      "name": "allocation",
      "outputs": [
        {
          "internalType": "contract IAllocation",
          "name": "",
          "type": "address"
        }
      ],
      "stateMutability": "view",
      "type": "function",
      "constant": true
    },
    {
      "inputs": [
        {
          "internalType": "uint256",
          "name": "",
          "type": "uint256"
        }
      ],
      "name": "auctions",
      "outputs": [
        {
          "internalType": "uint256",
          "name": "treeId",
          "type": "uint256"
        },
        {
          "internalType": "address",
          "name": "bidder",
          "type": "address"
        },
        {
          "internalType": "uint64",
          "name": "startDate",
          "type": "uint64"
        },
        {
          "internalType": "uint64",
          "name": "endDate",
          "type": "uint64"
        },
        {
          "internalType": "uint256",
          "name": "highestBid",
          "type": "uint256"
        },
        {
          "internalType": "uint256",
          "name": "bidInterval",
          "type": "uint256"
        }
      ],
      "stateMutability": "view",
      "type": "function",
      "constant": true
    },
    {
      "inputs": [],
      "name": "isAuction",
      "outputs": [
        {
          "internalType": "bool",
          "name": "",
          "type": "bool"
        }
      ],
      "stateMutability": "view",
      "type": "function",
      "constant": true
    },
    {
      "inputs": [
        {
          "internalType": "address",
          "name": "forwarder",
          "type": "address"
        }
      ],
      "name": "isTrustedForwarder",
      "outputs": [
        {
          "internalType": "bool",
          "name": "",
          "type": "bool"
        }
      ],
      "stateMutability": "view",
      "type": "function",
      "constant": true
    },
    {
      "inputs": [
        {
          "internalType": "address",
          "name": "",
          "type": "address"
        },
        {
          "internalType": "uint256",
          "name": "",
          "type": "uint256"
        }
      ],
      "name": "referrals",
      "outputs": [
        {
          "internalType": "address",
          "name": "",
          "type": "address"
        }
      ],
      "stateMutability": "view",
      "type": "function",
      "constant": true
    },
    {
      "inputs": [],
      "name": "regularSale",
      "outputs": [
        {
          "internalType": "contract IRegularSale",
          "name": "",
          "type": "address"
        }
      ],
      "stateMutability": "view",
      "type": "function",
      "constant": true
    },
    {
      "inputs": [],
      "name": "treeFactory",
      "outputs": [
        {
          "internalType": "contract ITreeFactory",
          "name": "",
          "type": "address"
        }
      ],
      "stateMutability": "view",
      "type": "function",
      "constant": true
    },
    {
      "inputs": [],
      "name": "trustedForwarder",
      "outputs": [
        {
          "internalType": "address",
          "name": "",
          "type": "address"
        }
      ],
      "stateMutability": "view",
      "type": "function",
      "constant": true
    },
    {
      "inputs": [],
      "name": "versionRecipient",
      "outputs": [
        {
          "internalType": "string",
          "name": "",
          "type": "string"
        }
      ],
      "stateMutability": "pure",
      "type": "function",
      "constant": true
    },
    {
      "inputs": [],
      "name": "wethFund",
      "outputs": [
        {
          "internalType": "contract IWethFund",
          "name": "",
          "type": "address"
        }
      ],
      "stateMutability": "view",
      "type": "function",
      "constant": true
    },
    {
      "inputs": [],
      "name": "wethToken",
      "outputs": [
        {
          "internalType": "contract IERC20Upgradeable",
          "name": "",
          "type": "address"
        }
      ],
      "stateMutability": "view",
      "type": "function",
      "constant": true
    },
    {
      "inputs": [
        {
          "internalType": "address",
          "name": "_accessRestrictionAddress",
          "type": "address"
        }
      ],
      "name": "initialize",
      "outputs": [],
      "stateMutability": "nonpayable",
      "type": "function"
    },
    {
      "inputs": [
        {
          "internalType": "address",
          "name": "_address",
          "type": "address"
        }
      ],
      "name": "setTrustedForwarder",
      "outputs": [],
      "stateMutability": "nonpayable",
      "type": "function"
    },
    {
      "inputs": [
        {
          "internalType": "address",
          "name": "_address",
          "type": "address"
        }
      ],
      "name": "setTreeFactoryAddress",
      "outputs": [],
      "stateMutability": "nonpayable",
      "type": "function"
    },
    {
      "inputs": [
        {
          "internalType": "address",
          "name": "_address",
          "type": "address"
        }
      ],
      "name": "setAllocationAddress",
      "outputs": [],
      "stateMutability": "nonpayable",
      "type": "function"
    },
    {
      "inputs": [
        {
          "internalType": "address",
          "name": "_address",
          "type": "address"
        }
      ],
      "name": "setWethFundAddress",
      "outputs": [],
      "stateMutability": "nonpayable",
      "type": "function"
    },
    {
      "inputs": [
        {
          "internalType": "address",
          "name": "_address",
          "type": "address"
        }
      ],
      "name": "setRegularSaleAddress",
      "outputs": [],
      "stateMutability": "nonpayable",
      "type": "function"
    },
    {
      "inputs": [
        {
          "internalType": "address",
          "name": "_address",
          "type": "address"
        }
      ],
      "name": "setWethTokenAddress",
      "outputs": [],
      "stateMutability": "nonpayable",
      "type": "function"
    },
    {
      "inputs": [
        {
          "internalType": "uint256",
          "name": "_treeId",
          "type": "uint256"
        },
        {
          "internalType": "uint64",
          "name": "_startDate",
          "type": "uint64"
        },
        {
          "internalType": "uint64",
          "name": "_endDate",
          "type": "uint64"
        },
        {
          "internalType": "uint256",
          "name": "_intialPrice",
          "type": "uint256"
        },
        {
          "internalType": "uint256",
          "name": "_bidInterval",
          "type": "uint256"
        }
      ],
      "name": "createAuction",
      "outputs": [],
      "stateMutability": "nonpayable",
      "type": "function"
    },
    {
      "inputs": [
        {
          "internalType": "uint256",
          "name": "_auctionId",
          "type": "uint256"
        },
        {
          "internalType": "uint256",
          "name": "_amount",
          "type": "uint256"
        },
        {
          "internalType": "address",
          "name": "_referrer",
          "type": "address"
        }
      ],
      "name": "bid",
      "outputs": [],
      "stateMutability": "nonpayable",
      "type": "function"
    },
    {
      "inputs": [
        {
          "internalType": "uint256",
          "name": "_auctionId",
          "type": "uint256"
        }
      ],
      "name": "endAuction",
      "outputs": [],
      "stateMutability": "nonpayable",
      "type": "function"
    }
  ],
  "bytecode": "0x608060405234801561001057600080fd5b50611e8b806100206000396000f3fe608060405234801561001057600080fd5b50600436106101425760003560e01c8063881e4cb4116100b8578063c4d66de81161007c578063c4d66de814610372578063d6762c4a14610385578063da7422281461039d578063e697b5d8146103b0578063e81c4c3e146103e4578063f7dff4b0146103f757600080fd5b8063881e4cb41461031957806388a17bde1461032c57806395ab5aa51461033f578063b9a2de3a14610352578063c17723f91461036557600080fd5b8063571a26a01161010a578063571a26a0146101f1578063572b6c051461028f57806359bac35b146102c75780636acc9777146102da578063742f0a90146102ed5780637da0a8771461030057600080fd5b806309172ea6146101475780630bf351f81461015c578063421ef6d41461016f578063486ff0cd1461019f5780634b57b0be146101de575b600080fd5b61015a610155366004611cec565b61040a565b005b61015a61016a366004611b80565b610759565b600354610182906001600160a01b031681565b6040516001600160a01b0390911681526020015b60405180910390f35b604080518082018252601d81527f322e322e302b747265656a65722e6972656c6179726563697069656e74000000602082015290516101969190611d60565b600654610182906001600160a01b031681565b61024c6101ff366004611c85565b6008602052600090815260409020805460018201546002830154600384015460049094015492936001600160a01b03831693600160a01b90930467ffffffffffffffff9081169392169186565b604080519687526001600160a01b03909516602087015267ffffffffffffffff9384169486019490945291166060840152608083015260a082015260c001610196565b6102b761029d366004611b80565b6000546201000090046001600160a01b0390811691161490565b6040519015158152602001610196565b61015a6102d5366004611b80565b610870565b61015a6102e8366004611b80565b610987565b61015a6102fb366004611cb7565b610a69565b600054610182906201000090046001600160a01b031681565b61015a610327366004611b80565b610f8a565b600554610182906001600160a01b031681565b600754610182906001600160a01b031681565b61015a610360366004611c85565b6110a1565b6002546102b79060ff1681565b61015a610380366004611b80565b6116d5565b6002546101829061010090046001600160a01b031681565b61015a6103ab366004611b80565b611830565b6101826103be366004611ba2565b60096020908152600092835260408084209091529082529020546001600160a01b031681565b61015a6103f2366004611b80565b61191a565b600454610182906001600160a01b031681565b600260019054906101000a90046001600160a01b03166001600160a01b0316634d868f986040518163ffffffff1660e01b815260040160006040518083038186803b15801561045857600080fd5b505afa15801561046c573d6000803e3d6000fd5b505060025461010090046001600160a01b0316915063c4d2a31b9050610490611a31565b6040516001600160e01b031960e084901b1681526001600160a01b03909116600482015260240160006040518083038186803b1580156104cf57600080fd5b505afa1580156104e3573d6000803e3d6000fd5b5050600554604051634f558e7960e01b8152600481018990526001600160a01b039091169250634f558e79915060240160206040518083038186803b15801561052b57600080fd5b505afa15801561053f573d6000803e3d6000fd5b505050506040513d601f19601f820116820180604052508101906105639190611bcc565b6105b45760405162461bcd60e51b815260206004820181905260248201527f6571756976616c616e742066756e64204d6f64656c206e6f742065786973747360448201526064015b60405180910390fd5b60035460405163c6826fc960e01b815260048101879052600160248201526000916001600160a01b03169063c6826fc990604401602060405180830381600087803b15801561060257600080fd5b505af1158015610616573d6000803e3d6000fd5b505050506040513d601f19601f8201168201806040525081019061063a9190611d3a565b905063ffffffff8116156106905760405162461bcd60e51b815260206004820152601960248201527f6e6f7420617661696c61626c6520666f722061756374696f6e0000000000000060448201526064016105ab565b60006008600061069f60015490565b815260208101919091526040016000208781556001808201805467ffffffffffffffff60a01b1916600160a01b67ffffffffffffffff8b8116919091029190911790915560028301805467ffffffffffffffff19169189169190911790556003820186905560048201859055549091507f7e0e356457a92dacd3760ddf327a24dd226c6ca01b2cc41a7fd6f28469c7ab9b9060405190815260200160405180910390a1610750600180546001019055565b50505050505050565b60025461010090046001600160a01b0316638413ec14610777611a31565b6040516001600160e01b031960e084901b1681526001600160a01b03909116600482015260240160006040518083038186803b1580156107b657600080fd5b505afa1580156107ca573d6000803e3d6000fd5b505050506000819050806001600160a01b031663e0eb4eb96040518163ffffffff1660e01b815260040160206040518083038186803b15801561080c57600080fd5b505afa158015610820573d6000803e3d6000fd5b505050506040513d601f19601f820116820180604052508101906108449190611bcc565b61084d57600080fd5b600380546001600160a01b0319166001600160a01b039290921691909117905550565b60025461010090046001600160a01b0316638413ec1461088e611a31565b6040516001600160e01b031960e084901b1681526001600160a01b03909116600482015260240160006040518083038186803b1580156108cd57600080fd5b505afa1580156108e1573d6000803e3d6000fd5b505050506000819050806001600160a01b0316632f10d7956040518163ffffffff1660e01b815260040160206040518083038186803b15801561092357600080fd5b505afa158015610937573d6000803e3d6000fd5b505050506040513d601f19601f8201168201806040525081019061095b9190611bcc565b61096457600080fd5b600580546001600160a01b0319166001600160a01b039290921691909117905550565b60025461010090046001600160a01b0316638413ec146109a5611a31565b6040516001600160e01b031960e084901b1681526001600160a01b03909116600482015260240160006040518083038186803b1580156109e457600080fd5b505afa1580156109f8573d6000803e3d6000fd5b5083925050506001600160a01b038116610a465760405162461bcd60e51b815260206004820152600f60248201526e696e76616c6964206164647265737360881b60448201526064016105ab565b50600680546001600160a01b0319166001600160a01b0392909216919091179055565b600260019054906101000a90046001600160a01b03166001600160a01b0316634d868f986040518163ffffffff1660e01b815260040160006040518083038186803b158015610ab757600080fd5b505afa158015610acb573d6000803e3d6000fd5b5050506000848152600860205260409020600281015490915067ffffffffffffffff16421115610b355760405162461bcd60e51b8152602060048201526015602482015274185d58dd1a5bdb88185b1c9958591e48195b991959605a1b60448201526064016105ab565b6001810154600160a01b900467ffffffffffffffff16421015610b905760405162461bcd60e51b8152602060048201526013602482015272185d58dd1a5bdb881b9bdd081cdd185c9d1959606a1b60448201526064016105ab565b80600401548160030154610ba49190611de4565b831015610be45760405162461bcd60e51b815260206004820152600e60248201526d1a5b9d985b1a5908185b5bdd5b9d60921b60448201526064016105ab565b60065483906001600160a01b03166370a08231610bff611a31565b6040516001600160e01b031960e084901b1681526001600160a01b03909116600482015260240160206040518083038186803b158015610c3e57600080fd5b505afa158015610c52573d6000803e3d6000fd5b505050506040513d601f19601f82011682018060405250810190610c769190611c9e565b1015610cbb5760405162461bcd60e51b8152602060048201526014602482015273696e73756666696369656e742062616c616e636560601b60448201526064016105ab565b6006546000906001600160a01b03166323b872dd610cd7611a31565b6040516001600160e01b031960e084901b1681526001600160a01b03909116600482015230602482015260448101879052606401602060405180830381600087803b158015610d2557600080fd5b505af1158015610d39573d6000803e3d6000fd5b505050506040513d601f19601f82011682018060405250810190610d5d9190611bcc565b905080610d7c5760405162461bcd60e51b81526004016105ab90611db5565b6001600160a01b03831615801590610dc857506000600981610d9c611a31565b6001600160a01b039081168252602080830193909352604091820160009081208a825290935291205416145b15610e19578260096000610dda611a31565b6001600160a01b039081168252602080830193909352604091820160009081208a8252909352912080546001600160a01b031916929091169190911790555b6001820154600383018054908690556001600160a01b0390911690610e3c611a31565b6001850180546001600160a01b0319166001600160a01b039290921691909117905583547f263d893bf8cb4829494d4bfc0bcd1060212888cbc932a26bf3ea4bc31dcadae8908890610e8c611a31565b6040805193845260208401929092526001600160a01b0390811683830152606083018a905288166080830152519081900360a00190a1610ecb87611a6b565b6001600160a01b038216156107505760065460405163a9059cbb60e01b81526001600160a01b03848116600483015260248201849052600092169063a9059cbb90604401602060405180830381600087803b158015610f2957600080fd5b505af1158015610f3d573d6000803e3d6000fd5b505050506040513d601f19601f82011682018060405250810190610f619190611bcc565b905080610f805760405162461bcd60e51b81526004016105ab90611db5565b5050505050505050565b60025461010090046001600160a01b0316638413ec14610fa8611a31565b6040516001600160e01b031960e084901b1681526001600160a01b03909116600482015260240160006040518083038186803b158015610fe757600080fd5b505afa158015610ffb573d6000803e3d6000fd5b505050506000819050806001600160a01b031663a6cd16fd6040518163ffffffff1660e01b815260040160206040518083038186803b15801561103d57600080fd5b505afa158015611051573d6000803e3d6000fd5b505050506040513d601f19601f820116820180604052508101906110759190611bcc565b61107e57600080fd5b600480546001600160a01b0319166001600160a01b039290921691909117905550565b600260019054906101000a90046001600160a01b03166001600160a01b0316634d868f986040518163ffffffff1660e01b815260040160006040518083038186803b1580156110ef57600080fd5b505afa158015611103573d6000803e3d6000fd5b5050506000828152600860205260409020600281015490915067ffffffffffffffff1661116b5760405162461bcd60e51b815260206004820152601660248201527541756374696f6e20697320756e617661696c61626c6560501b60448201526064016105ab565b600281015467ffffffffffffffff164210156111c15760405162461bcd60e51b8152602060048201526015602482015274105d58dd1a5bdb881b9bdd081e595d08195b991959605a1b60448201526064016105ab565b60018101546001600160a01b0316156115ed5760065460048054600384015460405163a9059cbb60e01b81526001600160a01b03928316938101939093526024830152600092169063a9059cbb90604401602060405180830381600087803b15801561122c57600080fd5b505af1158015611240573d6000803e3d6000fd5b505050506040513d601f19601f820116820180604052508101906112649190611bcc565b9050806112835760405162461bcd60e51b81526004016105ab90611db5565b6005548254604051630393f3d360e01b815260009283928392839283928392839283926001600160a01b0390911691630393f3d3916112c89160040190815260200190565b61010060405180830381600087803b1580156112e357600080fd5b505af11580156112f7573d6000803e3d6000fd5b505050506040513d601f19601f8201168201806040525081019061131b9190611bee565b97509750975097509750975097509750600460009054906101000a90046001600160a01b03166001600160a01b031663b36758328b600001548c600301548b8b8b8b8b8b8b8b6040518b63ffffffff1660e01b81526004016113d39a99989796959493929190998a5260208a019890985261ffff96871660408a01529486166060890152928516608088015290841660a0870152831660c0860152821660e08501528116610100840152166101208201526101400190565b600060405180830381600087803b1580156113ed57600080fd5b505af1158015611401573d6000803e3d6000fd5b50506003548c5460018e0154604051639c8446f760e01b815260048101929092526001600160a01b0390811660248301529091169250639c8446f79150604401600060405180830381600087803b15801561145b57600080fd5b505af115801561146f573d6000803e3d6000fd5b505050506000600960008c60010160009054906101000a90046001600160a01b03166001600160a01b03166001600160a01b0316815260200190815260200160002060008d815260200190815260200160002060009054906101000a90046001600160a01b0316905060006001600160a01b0316816001600160a01b0316146115595760075460405163211b1cdd60e01b81526001600160a01b038381166004830152600160248301529091169063211b1cdd90604401600060405180830381600087803b15801561154057600080fd5b505af1158015611554573d6000803e3d6000fd5b505050505b7fe3696d50d6f87544888f2045f19158a693b27d4e77403e36e161bec6ccc7cd6d8c8c600001548d60010160009054906101000a90046001600160a01b03168e60030154856040516115d695949392919094855260208501939093526001600160a01b039182166040850152606084015216608082015260a00190565b60405180910390a150505050505050505050611691565b6003548154604051630562832560e51b81526001600160a01b039092169163ac5064a0916116219160040190815260200190565b600060405180830381600087803b15801561163b57600080fd5b505af115801561164f573d6000803e3d6000fd5b505082546040805186815260208101929092527fe536ac546f86787f3ea4069f79235c6b5a681e87d051300a3ed19a6ebb0db71c935001905060405180910390a15b5060009081526008602052604081208181556001810180546001600160e01b031916905560028101805467ffffffffffffffff191690556003810182905560040155565b600054610100900460ff16806116ee575060005460ff16155b6117515760405162461bcd60e51b815260206004820152602e60248201527f496e697469616c697a61626c653a20636f6e747261637420697320616c72656160448201526d191e481a5b9a5d1a585b1a5e995960921b60648201526084016105ab565b600054610100900460ff16158015611773576000805461ffff19166101011790555b6000829050806001600160a01b031663ba84fd696040518163ffffffff1660e01b815260040160206040518083038186803b1580156117b157600080fd5b505afa1580156117c5573d6000803e3d6000fd5b505050506040513d601f19601f820116820180604052508101906117e99190611bcc565b6117f257600080fd5b600280546001600160a01b03909216610100026001600160a81b0319909216919091176001179055801561182c576000805461ff00191690555b5050565b60025461010090046001600160a01b0316638413ec1461184e611a31565b6040516001600160e01b031960e084901b1681526001600160a01b03909116600482015260240160006040518083038186803b15801561188d57600080fd5b505afa1580156118a1573d6000803e3d6000fd5b5083925050506001600160a01b0381166118ef5760405162461bcd60e51b815260206004820152600f60248201526e696e76616c6964206164647265737360881b60448201526064016105ab565b50600080546001600160a01b03909216620100000262010000600160b01b0319909216919091179055565b60025461010090046001600160a01b0316638413ec14611938611a31565b6040516001600160e01b031960e084901b1681526001600160a01b03909116600482015260240160006040518083038186803b15801561197757600080fd5b505afa15801561198b573d6000803e3d6000fd5b505050506000819050806001600160a01b0316636a837c8e6040518163ffffffff1660e01b815260040160206040518083038186803b1580156119cd57600080fd5b505afa1580156119e1573d6000803e3d6000fd5b505050506040513d601f19601f82011682018060405250810190611a059190611bcc565b611a0e57600080fd5b600780546001600160a01b0319166001600160a01b039290921691909117905550565b600060143610801590611a5457506000546201000090046001600160a01b031633145b15611a66575060131936013560601c90565b503390565b60008181526008602052604090206002015461025890611a9690429067ffffffffffffffff16611e28565b11611b3757600081815260086020526040812060020180546102589290611ac890849067ffffffffffffffff16611dfc565b82546101009290920a67ffffffffffffffff8181021990931691831602179091556000838152600860209081526040918290206002015482518681529316908301527f9c9cc6f8fa269c17bd097ed592ca8e0d3b4451b4c7bdbee9b802563aec9cd7b492500160405180910390a15b50565b80356001600160a01b0381168114611b5157600080fd5b919050565b805161ffff81168114611b5157600080fd5b803567ffffffffffffffff81168114611b5157600080fd5b600060208284031215611b9257600080fd5b611b9b82611b3a565b9392505050565b60008060408385031215611bb557600080fd5b611bbe83611b3a565b946020939093013593505050565b600060208284031215611bde57600080fd5b81518015158114611b9b57600080fd5b600080600080600080600080610100898b031215611c0b57600080fd5b611c1489611b56565b9750611c2260208a01611b56565b9650611c3060408a01611b56565b9550611c3e60608a01611b56565b9450611c4c60808a01611b56565b9350611c5a60a08a01611b56565b9250611c6860c08a01611b56565b9150611c7660e08a01611b56565b90509295985092959890939650565b600060208284031215611c9757600080fd5b5035919050565b600060208284031215611cb057600080fd5b5051919050565b600080600060608486031215611ccc57600080fd5b8335925060208401359150611ce360408501611b3a565b90509250925092565b600080600080600060a08688031215611d0457600080fd5b85359450611d1460208701611b68565b9350611d2260408701611b68565b94979396509394606081013594506080013592915050565b600060208284031215611d4c57600080fd5b815163ffffffff81168114611b9b57600080fd5b600060208083528351808285015260005b81811015611d8d57858101830151858201604001528201611d71565b81811115611d9f576000604083870101525b50601f01601f1916929092016040019392505050565b6020808252601590820152743ab739bab1b1b2b9b9b33ab6103a3930b739b332b960591b604082015260600190565b60008219821115611df757611df7611e3f565b500190565b600067ffffffffffffffff808316818516808303821115611e1f57611e1f611e3f565b01949350505050565b600082821015611e3a57611e3a611e3f565b500390565b634e487b7160e01b600052601160045260246000fdfea2646970667358221220d9c8a7a8c5cad97e6354e14454d5bb8291a3bf5b01789a9c32cf76c0d35297c064736f6c63430008060033",
  "immutableReferences": {},
  "source": "// // SPDX-License-Identifier: GPL-3.0\n\npragma solidity ^0.8.6;\n\nimport \"@openzeppelin/contracts-upgradeable/proxy/utils/Initializable.sol\";\nimport \"@openzeppelin/contracts-upgradeable/utils/CountersUpgradeable.sol\";\nimport \"@openzeppelin/contracts-upgradeable/token/ERC20/IERC20Upgradeable.sol\";\nimport \"../access/IAccessRestriction.sol\";\nimport \"../tree/ITreeFactory.sol\";\nimport \"../treasury/IAllocation.sol\";\nimport \"../treasury/IWethFund.sol\";\nimport \"../gsn/RelayRecipient.sol\";\nimport \"../regularSale/IRegularSale.sol\";\n\n/** @title Auction */\n\ncontract Auction is Initializable, RelayRecipient {\n    using CountersUpgradeable for CountersUpgradeable.Counter;\n\n    CountersUpgradeable.Counter private auctionId;\n\n    /** NOTE {isAuction} set inside the initialize to {true} */\n\n    bool public isAuction;\n\n    IAccessRestriction public accessRestriction;\n    ITreeFactory public treeFactory;\n    IWethFund public wethFund;\n    IAllocation public allocation;\n    IERC20Upgradeable public wethToken;\n    IRegularSale public regularSale;\n\n    struct AuctionData {\n        uint256 treeId;\n        address bidder;\n        uint64 startDate;\n        uint64 endDate;\n        uint256 highestBid;\n        uint256 bidInterval;\n    }\n\n    /** NOTE mapping of auctionId to AuctionData struct */\n    mapping(uint256 => AuctionData) public auctions;\n\n    /**NOTE mapping of bidder to mapping of auctionId to referral */\n    mapping(address => mapping(uint256 => address)) public referrals;\n\n    event HighestBidIncreased(\n        uint256 auctionId,\n        uint256 treeId,\n        address bidder,\n        uint256 amount,\n        address referrer\n    );\n    event AuctionSettled(\n        uint256 auctionId,\n        uint256 treeId,\n        address winner,\n        uint256 amount,\n        address referrer\n    );\n    event AuctionCreated(uint256 auctionId);\n    event AuctionEnded(uint256 auctionId, uint256 treeId);\n    event AuctionEndTimeIncreased(uint256 auctionId, uint256 newAuctionEndTime);\n\n    /** NOTE modifier to check msg.sender has admin role */\n    modifier onlyAdmin() {\n        accessRestriction.ifAdmin(_msgSender());\n        _;\n    }\n\n    /** NOTE modifier to check msg.sender has data manager role */\n    modifier onlyDataManager() {\n        accessRestriction.ifDataManager(_msgSender());\n        _;\n    }\n\n    /** NOTE modifier for check if function is not paused*/\n    modifier ifNotPaused() {\n        accessRestriction.ifNotPaused();\n        _;\n    }\n\n    /** NOTE modifier for check valid address */\n    modifier validAddress(address _address) {\n        require(_address != address(0), \"invalid address\");\n        _;\n    }\n\n    /**\n     * @dev initialize accessRestriction contract and set true for isAuction\n     * @param _accessRestrictionAddress set to the address of accessRestriction contract\n     */\n    function initialize(address _accessRestrictionAddress)\n        external\n        initializer\n    {\n        IAccessRestriction candidateContract = IAccessRestriction(\n            _accessRestrictionAddress\n        );\n        require(candidateContract.isAccessRestriction());\n        isAuction = true;\n        accessRestriction = candidateContract;\n    }\n\n    /**\n     * @dev admin set the trustedForwarder adress\n     * @param _address is the address of trusted forwarder\n     */\n\n    function setTrustedForwarder(address _address)\n        external\n        onlyAdmin\n        validAddress(_address)\n    {\n        trustedForwarder = _address;\n    }\n\n    /**\n     * @dev admin set TreeFactoryAddress\n     * @param _address set to the address of treeFactory\n     */\n    function setTreeFactoryAddress(address _address) external onlyAdmin {\n        ITreeFactory candidateContract = ITreeFactory(_address);\n        require(candidateContract.isTreeFactory());\n        treeFactory = candidateContract;\n    }\n\n    /**\n     * @dev admin set Allocation\n     * @param _address set to the address of Allocation\n     */\n\n    function setAllocationAddress(address _address) external onlyAdmin {\n        IAllocation candidateContract = IAllocation(_address);\n        require(candidateContract.isAllocation());\n        allocation = candidateContract;\n    }\n\n    /**\n     * @dev admin set WethFund\n     * @param _address set to the address of wethFund\n     */\n\n    function setWethFundAddress(address _address) external onlyAdmin {\n        IWethFund candidateContract = IWethFund(_address);\n        require(candidateContract.isWethFund());\n        wethFund = candidateContract;\n    }\n\n    /**\n     * @dev admin set RegularSale\n     * @param _address set to the address of regularSale\n     */\n\n    function setRegularSaleAddress(address _address) external onlyAdmin {\n        IRegularSale candidateContract = IRegularSale(_address);\n        require(candidateContract.isRegularSale());\n        regularSale = candidateContract;\n    }\n\n    /**\n     * @dev admin set WethToken\n     * @param _address set to the address of wethToken\n     */\n\n    function setWethTokenAddress(address _address)\n        external\n        onlyAdmin\n        validAddress(_address)\n    {\n        IERC20Upgradeable candidateContract = IERC20Upgradeable(_address);\n        wethToken = candidateContract;\n    }\n\n    /**\n     * @dev admin create auction to a tree with saleType of '0' and push that auction\n     * to {auctions[auctionId]} and increament auctionId by 1.\n     * NOTE its necessary that a allocation data has been assigned to {_treeId}\n     * @param _treeId treeId that auction create for\n     * @param _startDate strat time of auction\n     * @param _endDate end time of auction\n     * @param _intialPrice initial price of auction\n     * @param _bidInterval bid interval for auction . if it set to 10 for example and the last bid is 100.new bidder can bid for 110\n     */\n    function createAuction(\n        uint256 _treeId,\n        uint64 _startDate,\n        uint64 _endDate,\n        uint256 _intialPrice,\n        uint256 _bidInterval\n    ) external ifNotPaused onlyDataManager {\n        require(allocation.exists(_treeId), \"equivalant fund Model not exists\");\n\n        uint32 saleType = treeFactory.manageSaleType(_treeId, 1);\n\n        require(saleType == 0, \"not available for auction\");\n\n        AuctionData storage auctionData = auctions[auctionId.current()];\n\n        auctionData.treeId = _treeId;\n        auctionData.startDate = _startDate;\n        auctionData.endDate = _endDate;\n        auctionData.highestBid = _intialPrice;\n        auctionData.bidInterval = _bidInterval;\n\n        emit AuctionCreated(auctionId.current());\n\n        auctionId.increment();\n    }\n\n    /**\n     * @dev bid to {auctions[_auctionId]} by user in a time beetwen start time and end time\n     * its require to send at least {higestBid + bidInterval } {_amount}.\n     * if new bid done old bidder refund automatically.\n     * @param _auctionId auctionId that user bid for it.\n     */\n\n    function bid(\n        uint256 _auctionId,\n        uint256 _amount,\n        address _referrer\n    ) external ifNotPaused {\n        AuctionData storage auctionData = auctions[_auctionId];\n\n        require(\n            block.timestamp <= auctionData.endDate,\n            \"auction already ended\"\n        );\n\n        require(\n            block.timestamp >= auctionData.startDate,\n            \"auction not started\"\n        );\n\n        require(\n            _amount >= auctionData.highestBid + auctionData.bidInterval,\n            \"invalid amount\"\n        );\n\n        require(\n            wethToken.balanceOf(_msgSender()) >= _amount,\n            \"insufficient balance\"\n        );\n\n        bool success = wethToken.transferFrom(\n            _msgSender(),\n            address(this),\n            _amount\n        );\n\n        require(success, \"unsuccessful transfer\");\n\n        if (\n            _referrer != address(0) &&\n            referrals[_msgSender()][_auctionId] == address(0)\n        ) {\n            referrals[_msgSender()][_auctionId] = _referrer;\n        }\n\n        address oldBidder = auctionData.bidder;\n        uint256 oldBid = auctionData.highestBid;\n\n        auctionData.highestBid = _amount;\n        auctionData.bidder = _msgSender();\n\n        emit HighestBidIncreased(\n            _auctionId,\n            auctionData.treeId,\n            _msgSender(),\n            _amount,\n            _referrer\n        );\n\n        _increaseAuctionEndTime(_auctionId);\n\n        if (oldBidder != address(0)) {\n            bool successTransfer = wethToken.transfer(oldBidder, oldBid);\n\n            require(successTransfer, \"unsuccessful transfer\");\n        }\n    }\n\n    /** @dev everyone can call this method  including the winner of auction after\n     * auction end time and if auction have bidder transfer owner of tree to bidder\n     * and tree funded.\n     * @param _auctionId id of auction that want to finish.\n     */\n    function endAuction(uint256 _auctionId) external ifNotPaused {\n        AuctionData storage auctionData = auctions[_auctionId];\n\n        require(auctionData.endDate > 0, \"Auction is unavailable\");\n\n        require(\n            block.timestamp >= auctionData.endDate,\n            \"Auction not yet ended\"\n        );\n\n        if (auctionData.bidder != address(0)) {\n            bool success = wethToken.transfer(\n                address(wethFund),\n                auctionData.highestBid\n            );\n\n            require(success, \"unsuccessful transfer\");\n\n            (\n                uint16 planterShare,\n                uint16 ambassadorShare,\n                uint16 researchShare,\n                uint16 localDevelopmentShare,\n                uint16 insuranceShare,\n                uint16 treasuryShare,\n                uint16 reserve1Share,\n                uint16 reserve2Share\n            ) = allocation.findAllocationData(auctionData.treeId);\n\n            wethFund.fundTree(\n                auctionData.treeId,\n                auctionData.highestBid,\n                planterShare,\n                ambassadorShare,\n                researchShare,\n                localDevelopmentShare,\n                insuranceShare,\n                treasuryShare,\n                reserve1Share,\n                reserve2Share\n            );\n\n            treeFactory.mintAssignedTree(\n                auctionData.treeId,\n                auctionData.bidder\n            );\n\n            address referrerOfWinner = referrals[auctionData.bidder][\n                _auctionId\n            ];\n\n            if (referrerOfWinner != address(0)) {\n                regularSale.updateReferrerClaimableTreesWeth(\n                    referrerOfWinner,\n                    1\n                );\n            }\n\n            emit AuctionSettled(\n                _auctionId,\n                auctionData.treeId,\n                auctionData.bidder,\n                auctionData.highestBid,\n                referrerOfWinner\n            );\n        } else {\n            treeFactory.resetSaleType(auctionData.treeId);\n            emit AuctionEnded(_auctionId, auctionData.treeId);\n        }\n\n        delete auctions[_auctionId];\n    }\n\n    /** @dev if latest bid is less than 10 minutes to the end of auctionEndTime:\n     * we will increase auctionEndTime 600 seconds\n     * @param _auctionId id of auction that increase end time of it.\n     */\n    function _increaseAuctionEndTime(uint256 _auctionId) private {\n        if (auctions[_auctionId].endDate - block.timestamp <= 600) {\n            auctions[_auctionId].endDate += 600;\n            emit AuctionEndTimeIncreased(\n                _auctionId,\n                auctions[_auctionId].endDate\n            );\n        }\n    }\n}\n",
  "sourcePath": "/media/ali/New Volume/treejer/contract/contracts/auction/Auction.sol",
  "compiler": {
    "name": "solc",
    "version": "0.8.6+commit.11564f7e.Emscripten.clang"
  },
  "schemaVersion": "3.4.1",
  "updatedAt": "2021-10-12T15:17:07.298Z",
  "networkType": "ethereum",
  "devdoc": {
    "kind": "dev",
    "methods": {
      "bid(uint256,uint256,address)": {
        "details": "bid to {auctions[_auctionId]} by user in a time beetwen start time and end time its require to send at least {higestBid + bidInterval } {_amount}. if new bid done old bidder refund automatically.",
        "params": {
          "_auctionId": "auctionId that user bid for it."
        }
      },
      "createAuction(uint256,uint64,uint64,uint256,uint256)": {
        "details": "admin create auction to a tree with saleType of '0' and push that auction to {auctions[auctionId]} and increament auctionId by 1. NOTE its necessary that a allocation data has been assigned to {_treeId}",
        "params": {
          "_bidInterval": "bid interval for auction . if it set to 10 for example and the last bid is 100.new bidder can bid for 110",
          "_endDate": "end time of auction",
          "_intialPrice": "initial price of auction",
          "_startDate": "strat time of auction",
          "_treeId": "treeId that auction create for"
        }
      },
      "endAuction(uint256)": {
        "details": "everyone can call this method  including the winner of auction after auction end time and if auction have bidder transfer owner of tree to bidder and tree funded.",
        "params": {
          "_auctionId": "id of auction that want to finish."
        }
      },
      "initialize(address)": {
        "details": "initialize accessRestriction contract and set true for isAuction",
        "params": {
          "_accessRestrictionAddress": "set to the address of accessRestriction contract"
        }
      },
      "setAllocationAddress(address)": {
        "details": "admin set Allocation",
        "params": {
          "_address": "set to the address of Allocation"
        }
      },
      "setRegularSaleAddress(address)": {
        "details": "admin set RegularSale",
        "params": {
          "_address": "set to the address of regularSale"
        }
      },
      "setTreeFactoryAddress(address)": {
        "details": "admin set TreeFactoryAddress",
        "params": {
          "_address": "set to the address of treeFactory"
        }
      },
      "setTrustedForwarder(address)": {
        "details": "admin set the trustedForwarder adress",
        "params": {
          "_address": "is the address of trusted forwarder"
        }
      },
      "setWethFundAddress(address)": {
        "details": "admin set WethFund",
        "params": {
          "_address": "set to the address of wethFund"
        }
      },
      "setWethTokenAddress(address)": {
        "details": "admin set WethToken",
        "params": {
          "_address": "set to the address of wethToken"
        }
      },
      "versionRecipient()": {
        "details": "return version recipient "
      }
    },
    "title": "Auction ",
    "version": 1
  },
  "userdoc": {
    "kind": "user",
    "methods": {
      "auctions(uint256)": {
        "notice": "NOTE mapping of auctionId to AuctionData struct "
      },
      "isAuction()": {
        "notice": "NOTE {isAuction} set inside the initialize to {true} "
      },
      "isTrustedForwarder(address)": {
        "notice": "return if the forwarder is trusted to forward relayed transactions to us. the forwarder is required to verify the sender's signature, and verify the call is not a replay."
      },
      "referrals(address,uint256)": {
        "notice": "NOTE mapping of bidder to mapping of auctionId to referral "
      }
    },
    "version": 1
  }
}