{
  "contractName": "CommunityGifts",
  "abi": [
    {
      "anonymous": false,
      "inputs": [
        {
          "indexed": false,
          "internalType": "address",
          "name": "giftee",
          "type": "address"
        }
      ],
      "name": "GifteeUpdated",
      "type": "event"
    },
    {
      "anonymous": false,
      "inputs": [
        {
          "indexed": false,
          "internalType": "uint256",
          "name": "treeId",
          "type": "uint256"
        }
      ],
      "name": "TreeClaimed",
      "type": "event"
    },
    {
      "anonymous": false,
      "inputs": [
        {
          "indexed": false,
          "internalType": "uint256",
          "name": "treeId",
          "type": "uint256"
        }
      ],
      "name": "TreeTransfered",
      "type": "event"
    },
    {
      "inputs": [],
      "name": "accessRestriction",
      "outputs": [
        {
          "internalType": "contract IAccessRestriction",
          "name": "",
          "type": "address"
        }
      ],
      "stateMutability": "view",
      "type": "function",
      "constant": true
    },
    {
      "inputs": [],
      "name": "claimedCount",
      "outputs": [
        {
          "internalType": "uint256",
          "name": "",
          "type": "uint256"
        }
      ],
      "stateMutability": "view",
      "type": "function",
      "constant": true
    },
    {
      "inputs": [
        {
          "internalType": "address",
          "name": "",
          "type": "address"
        }
      ],
      "name": "communityGifts",
      "outputs": [
        {
          "internalType": "uint32",
          "name": "symbol",
          "type": "uint32"
        },
        {
          "internalType": "bool",
          "name": "claimed",
          "type": "bool"
        },
        {
          "internalType": "bool",
          "name": "exist",
          "type": "bool"
        }
      ],
      "stateMutability": "view",
      "type": "function",
      "constant": true
    },
    {
      "inputs": [],
      "name": "expireDate",
      "outputs": [
        {
          "internalType": "uint256",
          "name": "",
          "type": "uint256"
        }
      ],
      "stateMutability": "view",
      "type": "function",
      "constant": true
    },
    {
      "inputs": [],
      "name": "giftCount",
      "outputs": [
        {
          "internalType": "uint256",
          "name": "",
          "type": "uint256"
        }
      ],
      "stateMutability": "view",
      "type": "function",
      "constant": true
    },
    {
      "inputs": [],
      "name": "isCommunityGifts",
      "outputs": [
        {
          "internalType": "bool",
          "name": "",
          "type": "bool"
        }
      ],
      "stateMutability": "view",
      "type": "function",
      "constant": true
    },
    {
      "inputs": [
        {
          "internalType": "address",
          "name": "forwarder",
          "type": "address"
        }
      ],
      "name": "isTrustedForwarder",
      "outputs": [
        {
          "internalType": "bool",
          "name": "",
          "type": "bool"
        }
      ],
      "stateMutability": "view",
      "type": "function",
      "constant": true
    },
    {
      "inputs": [],
      "name": "planterFund",
      "outputs": [
        {
          "internalType": "uint256",
          "name": "",
          "type": "uint256"
        }
      ],
      "stateMutability": "view",
      "type": "function",
      "constant": true
    },
    {
      "inputs": [],
      "name": "planterFundContract",
      "outputs": [
        {
          "internalType": "contract IPlanterFund",
          "name": "",
          "type": "address"
        }
      ],
      "stateMutability": "view",
      "type": "function",
      "constant": true
    },
    {
      "inputs": [],
      "name": "referralFund",
      "outputs": [
        {
          "internalType": "uint256",
          "name": "",
          "type": "uint256"
        }
      ],
      "stateMutability": "view",
      "type": "function",
      "constant": true
    },
    {
      "inputs": [],
      "name": "treeAttribute",
      "outputs": [
        {
          "internalType": "contract ITreeAttribute",
          "name": "",
          "type": "address"
        }
      ],
      "stateMutability": "view",
      "type": "function",
      "constant": true
    },
    {
      "inputs": [],
      "name": "treeFactory",
      "outputs": [
        {
          "internalType": "contract ITreeFactory",
          "name": "",
          "type": "address"
        }
      ],
      "stateMutability": "view",
      "type": "function",
      "constant": true
    },
    {
      "inputs": [],
      "name": "trustedForwarder",
      "outputs": [
        {
          "internalType": "address",
          "name": "",
          "type": "address"
        }
      ],
      "stateMutability": "view",
      "type": "function",
      "constant": true
    },
    {
      "inputs": [],
      "name": "versionRecipient",
      "outputs": [
        {
          "internalType": "string",
          "name": "",
          "type": "string"
        }
      ],
      "stateMutability": "pure",
      "type": "function",
      "constant": true
    },
    {
      "inputs": [
        {
          "internalType": "address",
          "name": "_accessRestrictionAddress",
          "type": "address"
        },
        {
          "internalType": "uint256",
          "name": "_expireDate",
          "type": "uint256"
        },
        {
          "internalType": "uint256",
          "name": "_planterFund",
          "type": "uint256"
        },
        {
          "internalType": "uint256",
          "name": "_referralFund",
          "type": "uint256"
        }
      ],
      "name": "initialize",
      "outputs": [],
      "stateMutability": "nonpayable",
      "type": "function"
    },
    {
      "inputs": [
        {
          "internalType": "address",
          "name": "_address",
          "type": "address"
        }
      ],
      "name": "setTrustedForwarder",
      "outputs": [],
      "stateMutability": "nonpayable",
      "type": "function"
    },
    {
      "inputs": [
        {
          "internalType": "address",
          "name": "_address",
          "type": "address"
        }
      ],
      "name": "setTreeAttributesAddress",
      "outputs": [],
      "stateMutability": "nonpayable",
      "type": "function"
    },
    {
      "inputs": [
        {
          "internalType": "address",
          "name": "_address",
          "type": "address"
        }
      ],
      "name": "setTreeFactoryAddress",
      "outputs": [],
      "stateMutability": "nonpayable",
      "type": "function"
    },
    {
      "inputs": [
        {
          "internalType": "address",
          "name": "_address",
          "type": "address"
        }
      ],
      "name": "setPlanterFundAddress",
      "outputs": [],
      "stateMutability": "nonpayable",
      "type": "function"
    },
    {
      "inputs": [
        {
          "internalType": "uint256",
          "name": "_startTreeId",
          "type": "uint256"
        },
        {
          "internalType": "uint256",
          "name": "_endTreeId",
          "type": "uint256"
        }
      ],
      "name": "setGiftsRange",
      "outputs": [],
      "stateMutability": "nonpayable",
      "type": "function"
    },
    {
      "inputs": [
        {
          "internalType": "address",
          "name": "_giftee",
          "type": "address"
        },
        {
          "internalType": "uint32",
          "name": "_symbol",
          "type": "uint32"
        }
      ],
      "name": "updateGiftees",
      "outputs": [],
      "stateMutability": "nonpayable",
      "type": "function"
    },
    {
      "inputs": [],
      "name": "claimTree",
      "outputs": [],
      "stateMutability": "nonpayable",
      "type": "function"
    },
    {
      "inputs": [
        {
          "internalType": "uint256",
          "name": "_expireDate",
          "type": "uint256"
        }
      ],
      "name": "setExpireDate",
      "outputs": [],
      "stateMutability": "nonpayable",
      "type": "function"
    },
    {
      "inputs": [
        {
          "internalType": "address",
          "name": "_giftee",
          "type": "address"
        },
        {
          "internalType": "uint32",
          "name": "_symbol",
          "type": "uint32"
        }
      ],
      "name": "transferTree",
      "outputs": [],
      "stateMutability": "nonpayable",
      "type": "function"
    },
    {
      "inputs": [
        {
          "internalType": "uint256",
          "name": "_planterFund",
          "type": "uint256"
        },
        {
          "internalType": "uint256",
          "name": "_referralFund",
          "type": "uint256"
        }
      ],
      "name": "setPrice",
      "outputs": [],
      "stateMutability": "nonpayable",
      "type": "function"
    }
  ],
  "bytecode": "0x608060405234801561001057600080fd5b506116b9806100206000396000f3fe608060405234801561001057600080fd5b50600436106101735760003560e01c80637d95d6b4116100de578063c08fa1a411610097578063ed70037411610071578063ed700374146103a6578063efeb6746146103af578063f10eff16146103c2578063f7d97577146103d657600080fd5b8063c08fa1a414610377578063d6762c4a14610380578063da7422281461039357600080fd5b80637d95d6b4146102bb5780637da0a877146102ce57806380d663ea146102e7578063b6b38069146102fa578063b8a67c3c1461035b578063be73ba741461036457600080fd5b8063421ef6d411610130578063421ef6d414610202578063486ff0cd146102155780634ad07f9e146102545780634ec81af114610267578063572b6c051461027a5780636d0ed29a146102b257600080fd5b80630bf351f8146101785780630dcf407d1461018d578063207b1c0714610195578063357ae81d146101a85780633891577f146101bb5780633e1ce339146101d7575b600080fd5b61018b6101863660046114ed565b6103e9565b005b61018b6104fb565b61018b6101a3366004611548565b61082c565b61018b6101b63660046114ed565b610aa5565b6101c460015481565b6040519081526020015b60405180910390f35b6006546101ea906001600160a01b031681565b6040516001600160a01b0390911681526020016101ce565b6004546101ea906001600160a01b031681565b604080518082018252601d81527f322e322e302b747265656a65722e6972656c6179726563697069656e74000000602082015290516101ce9190611608565b61018b6102623660046114ed565b610bb7565b61018b61027536600461150f565b610cc9565b6102a26102883660046114ed565b6000546201000090046001600160a01b0390811691161490565b60405190151581526020016101ce565b6101c460025481565b61018b6102c93660046115aa565b610e42565b6000546101ea906201000090046001600160a01b031681565b6005546101ea906001600160a01b031681565b6103376103083660046114ed565b60076020526000908152604090205463ffffffff81169060ff6401000000008204811691600160281b90041683565b6040805163ffffffff909416845291151560208401521515908201526060016101ce565b6101c460095481565b61018b6103723660046115c3565b610eba565b6101c460085481565b6003546101ea906001600160a01b031681565b61018b6103a13660046114ed565b61100b565b6101c4600a5481565b61018b6103bd366004611548565b6110a6565b6000546102a290600160b01b900460ff1681565b61018b6103e43660046115c3565b61141c565b6003546001600160a01b0316638413ec14610402611497565b6040516001600160e01b031960e084901b1681526001600160a01b03909116600482015260240160006040518083038186803b15801561044157600080fd5b505afa158015610455573d6000803e3d6000fd5b505050506000819050806001600160a01b031663e0eb4eb96040518163ffffffff1660e01b815260040160206040518083038186803b15801561049757600080fd5b505afa1580156104ab573d6000803e3d6000fd5b505050506040513d601f19601f820116820180604052508101906104cf9190611588565b6104d857600080fd5b600480546001600160a01b0319166001600160a01b039290921691909117905550565b600060076000610509611497565b6001600160a01b03166001600160a01b0316815260200190815260200160002090506009544211156105785760405162461bcd60e51b815260206004820152601360248201527210dbdb5b5d5b9a5d1e51da599d08195b991959606a1b60448201526064015b60405180910390fd5b60076000610584611497565b6001600160a01b03168152602081019190915260400160002054600160281b900460ff166105e55760405162461bcd60e51b815260206004820152600e60248201526d155cd95c881b9bdd08195e1a5cdd60921b604482015260640161056f565b600760006105f1611497565b6001600160a01b03168152602081019190915260400160002054640100000000900460ff16156106545760405162461bcd60e51b815260206004820152600e60248201526d436c61696d6564206265666f726560901b604482015260640161056f565b6000600854600b610665919061165d565b905060016008600082825461067a919061165d565b9091555050815464010000000064ff00000000198216178355600654604051632a4ddf6d60e01b81526004810184905263ffffffff90921660248301526001600160a01b031690632a4ddf6d90604401600060405180830381600087803b1580156106e457600080fd5b505af11580156106f8573d6000803e3d6000fd5b5050600554600154600254604051633ad7c33b60e01b815260048101879052602481019290925260448201526001600160a01b039091169250633ad7c33b9150606401600060405180830381600087803b15801561075557600080fd5b505af1158015610769573d6000803e3d6000fd5b50506004546001600160a01b0316915063b225afcb905082610789611497565b6040516001600160e01b031960e085901b16815260048101929092526001600160a01b0316602482015260036044820152606401600060405180830381600087803b1580156107d757600080fd5b505af11580156107eb573d6000803e3d6000fd5b505050507f9207234e8877dd545506380a905b8f6bf7239e5ee9cdb570e084ae29e2fd70db8160405161082091815260200190565b60405180910390a15050565b6003546001600160a01b0316638413ec14610845611497565b6040516001600160e01b031960e084901b1681526001600160a01b03909116600482015260240160006040518083038186803b15801561088457600080fd5b505afa158015610898573d6000803e3d6000fd5b505050506001600160a01b03821660009081526007602052604090208054640100000000900460ff16156108ff5760405162461bcd60e51b815260206004820152600e60248201526d436c61696d6564206265666f726560901b604482015260640161056f565b605a600a54106109495760405162461bcd60e51b81526020600482015260156024820152741b585e0819da599d10dbdd5b9d081c995858da1959605a1b604482015260640161056f565b8054600160281b900460ff16610989576001600a600082825461096c919061165d565b9091555050805465ff00000000001916600160281b1781556109f0565b6006548154604051632976925360e01b815263ffffffff90911660048201526001600160a01b0390911690632976925390602401600060405180830381600087803b1580156109d757600080fd5b505af11580156109eb573d6000803e3d6000fd5b505050505b805463ffffffff191663ffffffff8316908117825560065460405163113c55e360e31b815260048101929092526001600160a01b0316906389e2af1890602401600060405180830381600087803b158015610a4a57600080fd5b505af1158015610a5e573d6000803e3d6000fd5b50506040516001600160a01b03861681527f43d1f4adac0a624fbbcfcb8661ceb6217a1aab74829533a11199165e2d7cb2f7925060200190505b60405180910390a1505050565b6003546001600160a01b0316638413ec14610abe611497565b6040516001600160e01b031960e084901b1681526001600160a01b03909116600482015260240160006040518083038186803b158015610afd57600080fd5b505afa158015610b11573d6000803e3d6000fd5b505050506000819050806001600160a01b03166346efcdc16040518163ffffffff1660e01b815260040160206040518083038186803b158015610b5357600080fd5b505afa158015610b67573d6000803e3d6000fd5b505050506040513d601f19601f82011682018060405250810190610b8b9190611588565b610b9457600080fd5b600680546001600160a01b0319166001600160a01b039290921691909117905550565b6003546001600160a01b0316638413ec14610bd0611497565b6040516001600160e01b031960e084901b1681526001600160a01b03909116600482015260240160006040518083038186803b158015610c0f57600080fd5b505afa158015610c23573d6000803e3d6000fd5b505050506000819050806001600160a01b031663349904da6040518163ffffffff1660e01b815260040160206040518083038186803b158015610c6557600080fd5b505afa158015610c79573d6000803e3d6000fd5b505050506040513d601f19601f82011682018060405250810190610c9d9190611588565b610ca657600080fd5b600580546001600160a01b0319166001600160a01b039290921691909117905550565b600054610100900460ff1680610ce2575060005460ff16155b610d455760405162461bcd60e51b815260206004820152602e60248201527f496e697469616c697a61626c653a20636f6e747261637420697320616c72656160448201526d191e481a5b9a5d1a585b1a5e995960921b606482015260840161056f565b600054610100900460ff16158015610d67576000805461ffff19166101011790555b6000859050806001600160a01b031663ba84fd696040518163ffffffff1660e01b815260040160206040518083038186803b158015610da557600080fd5b505afa158015610db9573d6000803e3d6000fd5b505050506040513d601f19601f82011682018060405250810190610ddd9190611588565b610de657600080fd5b6000805460ff60b01b1916600160b01b179055600380546001600160a01b039092166001600160a01b03199092169190911790556009849055600183905560028290558015610e3b576000805461ff00191690555b5050505050565b6003546001600160a01b0316638413ec14610e5b611497565b6040516001600160e01b031960e084901b1681526001600160a01b03909116600482015260240160006040518083038186803b158015610e9a57600080fd5b505afa158015610eae573d6000803e3d6000fd5b50505060099190915550565b6003546001600160a01b0316638413ec14610ed3611497565b6040516001600160e01b031960e084901b1681526001600160a01b03909116600482015260240160006040518083038186803b158015610f1257600080fd5b505afa158015610f26573d6000803e3d6000fd5b505060048054604051635e1d7c1160e11b81529182018690526024820185905260056044830152600093506001600160a01b0316915063bc3af82290606401602060405180830381600087803b158015610f7f57600080fd5b505af1158015610f93573d6000803e3d6000fd5b505050506040513d601f19601f82011682018060405250810190610fb79190611588565b9050806110065760405162461bcd60e51b815260206004820152601860248201527f6e6f7420617661696c61626c6520747265652065786973740000000000000000604482015260640161056f565b505050565b6003546001600160a01b0316638413ec14611024611497565b6040516001600160e01b031960e084901b1681526001600160a01b03909116600482015260240160006040518083038186803b15801561106357600080fd5b505afa158015611077573d6000803e3d6000fd5b5050600080546001600160a01b03909416620100000262010000600160b01b0319909416939093179092555050565b6003546001600160a01b0316638413ec146110bf611497565b6040516001600160e01b031960e084901b1681526001600160a01b03909116600482015260240160006040518083038186803b1580156110fe57600080fd5b505afa158015611112573d6000803e3d6000fd5b5050505060095442116111675760405162461bcd60e51b815260206004820181905260248201527f436f6d6d756e697479476966742054696d65206e6f742079657420656e646564604482015260640161056f565b6059600854106111b15760405162461bcd60e51b8152602060048201526015602482015274636c61696d6564436f756e74206e6f74207472756560581b604482015260640161056f565b60065460405163448e5d2b60e01b815263ffffffff831660048201526001600160a01b039091169063448e5d2b9060240160206040518083038186803b1580156111fa57600080fd5b505afa15801561120e573d6000803e3d6000fd5b505050506040513d601f19601f8201168201806040525081019061123291906115e5565b60ff1660011461127a5760405162461bcd60e51b815260206004820152601360248201527214de5b589bdb081b9bdd081c995cd95c9d9959606a1b604482015260640161056f565b6000600854600b61128b919061165d565b90506001600860008282546112a0919061165d565b9091555050600654604051632a4ddf6d60e01b81526004810183905263ffffffff841660248201526001600160a01b0390911690632a4ddf6d90604401600060405180830381600087803b1580156112f757600080fd5b505af115801561130b573d6000803e3d6000fd5b5050600554600154600254604051633ad7c33b60e01b815260048101879052602481019290925260448201526001600160a01b039091169250633ad7c33b9150606401600060405180830381600087803b15801561136857600080fd5b505af115801561137c573d6000803e3d6000fd5b50506004805460405163b225afcb60e01b81529182018590526001600160a01b0387811660248401526003604484015216925063b225afcb9150606401600060405180830381600087803b1580156113d357600080fd5b505af11580156113e7573d6000803e3d6000fd5b505050507f858ed50bbd89d6eed4b861a6636ef3b02765d6e1c60d7393ec2e26caba12f11f81604051610a9891815260200190565b6003546001600160a01b0316638413ec14611435611497565b6040516001600160e01b031960e084901b1681526001600160a01b03909116600482015260240160006040518083038186803b15801561147457600080fd5b505afa158015611488573d6000803e3d6000fd5b50505060019290925560025550565b6000601436108015906114ba57506000546201000090046001600160a01b031633145b156114cc575060131936013560601c90565b503390565b80356001600160a01b03811681146114e857600080fd5b919050565b6000602082840312156114ff57600080fd5b611508826114d1565b9392505050565b6000806000806080858703121561152557600080fd5b61152e856114d1565b966020860135965060408601359560600135945092505050565b6000806040838503121561155b57600080fd5b611564836114d1565b9150602083013563ffffffff8116811461157d57600080fd5b809150509250929050565b60006020828403121561159a57600080fd5b8151801515811461150857600080fd5b6000602082840312156115bc57600080fd5b5035919050565b600080604083850312156115d657600080fd5b50508035926020909101359150565b6000602082840312156115f757600080fd5b815160ff8116811461150857600080fd5b600060208083528351808285015260005b8181101561163557858101830151858201604001528201611619565b81811115611647576000604083870101525b50601f01601f1916929092016040019392505050565b6000821982111561167e57634e487b7160e01b600052601160045260246000fd5b50019056fea2646970667358221220f60d62ec44d18847cd78f3b00a8cede680e19a0ad68ffad7930b8332e57ca50e64736f6c63430008060033",
  "immutableReferences": {},
  "source": "// // SPDX-License-Identifier: MIT\n\npragma solidity ^0.8.6;\n\nimport \"@openzeppelin/contracts-upgradeable/proxy/utils/Initializable.sol\";\nimport \"../access/IAccessRestriction.sol\";\nimport \"../tree/ITreeFactory.sol\";\nimport \"../tree/ITreeAttribute.sol\";\nimport \"../treasury/IPlanterFund.sol\";\nimport \"../gsn/RelayRecipient.sol\";\n\n/** @title CommunityGifts */\n\ncontract CommunityGifts is Initializable, RelayRecipient {\n    /** NOTE {isCommunityGifts} set inside the initialize to {true} */\n\n    bool public isCommunityGifts;\n    uint256 public planterFund;\n    uint256 public referralFund;\n\n    IAccessRestriction public accessRestriction;\n    ITreeFactory public treeFactory;\n    IPlanterFund public planterFundContract;\n    ITreeAttribute public treeAttribute;\n\n    struct CommunityGift {\n        uint32 symbol;\n        bool claimed;\n        bool exist;\n    }\n\n    /** NOTE mapping of funder address to CommunityGift struct */\n    mapping(address => CommunityGift) public communityGifts;\n\n    uint256 public claimedCount;\n    uint256 public expireDate;\n    uint256 public giftCount;\n\n    event GifteeUpdated(address giftee);\n    event TreeClaimed(uint256 treeId);\n    event TreeTransfered(uint256 treeId);\n\n    modifier onlyAdmin() {\n        accessRestriction.ifAdmin(_msgSender());\n        _;\n    }\n\n    modifier ifNotPaused() {\n        accessRestriction.ifNotPaused();\n        _;\n    }\n\n    /**\n     * @dev initialize accessRestriction contract and set true for isTreeAuction\n     * @param _accessRestrictionAddress set to the address of accessRestriction contract\n     */\n    function initialize(\n        address _accessRestrictionAddress,\n        uint256 _expireDate,\n        uint256 _planterFund,\n        uint256 _referralFund\n    ) public initializer {\n        IAccessRestriction candidateContract = IAccessRestriction(\n            _accessRestrictionAddress\n        );\n\n        require(candidateContract.isAccessRestriction());\n\n        isCommunityGifts = true;\n        accessRestriction = candidateContract;\n\n        expireDate = _expireDate;\n        planterFund = _planterFund;\n        referralFund = _referralFund;\n    }\n\n    /**\n     * @dev admin set the trustedForwarder adress\n     * @param _address is the address of trusted forwarder\n     */\n\n    function setTrustedForwarder(address _address) external onlyAdmin {\n        trustedForwarder = _address;\n    }\n\n    /**\n     * @dev admin set TreeFactoryAddress\n     * @param _address set to the address of treeAttribute\n     */\n\n    function setTreeAttributesAddress(address _address) external onlyAdmin {\n        ITreeAttribute candidateContract = ITreeAttribute(_address);\n        require(candidateContract.isTreeAttribute());\n        treeAttribute = candidateContract;\n    }\n\n    /**\n     * @dev admin set TreeFactoryAddress\n     * @param _address set to the address of treeFactory\n     */\n\n    function setTreeFactoryAddress(address _address) external onlyAdmin {\n        ITreeFactory candidateContract = ITreeFactory(_address);\n        require(candidateContract.isTreeFactory());\n        treeFactory = candidateContract;\n    }\n\n    /**\n     * @dev admin set PlanterFundAddress\n     * @param _address set to the address of PlanterFund\n     */\n\n    function setPlanterFundAddress(address _address) external onlyAdmin {\n        IPlanterFund candidateContract = IPlanterFund(_address);\n        require(candidateContract.isPlanterFund());\n        planterFundContract = candidateContract;\n    }\n\n    function setGiftsRange(uint256 _startTreeId, uint256 _endTreeId)\n        external\n        onlyAdmin\n    {\n        bool check = treeFactory.manageProvideStatus(\n            _startTreeId,\n            _endTreeId,\n            5\n        );\n        require(check, \"not available tree exist\");\n    }\n\n    function updateGiftees(address _giftee, uint32 _symbol) external onlyAdmin {\n        CommunityGift storage communityGift = communityGifts[_giftee];\n\n        require(!communityGift.claimed, \"Claimed before\");\n        require(giftCount < 90, \"max giftCount reached\");\n\n        if (!communityGift.exist) {\n            giftCount += 1;\n            communityGift.exist = true;\n        } else {\n            treeAttribute.freeReserveTreeAttributes(communityGift.symbol);\n        }\n\n        communityGift.symbol = _symbol;\n\n        treeAttribute.reserveTreeAttributes(_symbol);\n\n        emit GifteeUpdated(_giftee);\n    }\n\n    function claimTree() external {\n        CommunityGift storage communityGift = communityGifts[_msgSender()];\n\n        require(block.timestamp <= expireDate, \"CommunityGift ended\");\n        require(communityGifts[_msgSender()].exist, \"User not exist\");\n        require(!communityGifts[_msgSender()].claimed, \"Claimed before\");\n\n        uint256 treeId = 11 + claimedCount;\n\n        claimedCount += 1;\n\n        communityGift.claimed = true;\n\n        treeAttribute.setTreeAttributesByAdmin(treeId, communityGift.symbol);\n\n        planterFundContract.setPlanterFunds(treeId, planterFund, referralFund);\n\n        treeFactory.updateOwner(treeId, _msgSender(), 3);\n\n        emit TreeClaimed(treeId);\n    }\n\n    function setExpireDate(uint256 _expireDate) external onlyAdmin {\n        expireDate = _expireDate;\n    }\n\n    function transferTree(address _giftee, uint32 _symbol) external onlyAdmin {\n        require(\n            block.timestamp > expireDate,\n            \"CommunityGift Time not yet ended\"\n        );\n\n        require(claimedCount < 89, \"claimedCount not true\");\n\n        require(\n            treeAttribute.reservedAttributes(_symbol) == 1,\n            \"Symbol not reserved\"\n        );\n\n        uint256 treeId = 11 + claimedCount;\n\n        claimedCount += 1;\n\n        treeAttribute.setTreeAttributesByAdmin(treeId, _symbol);\n\n        planterFundContract.setPlanterFunds(treeId, planterFund, referralFund);\n\n        treeFactory.updateOwner(treeId, _giftee, 3);\n\n        emit TreeTransfered(treeId);\n    }\n\n    function setPrice(uint256 _planterFund, uint256 _referralFund)\n        external\n        onlyAdmin\n    {\n        planterFund = _planterFund;\n        referralFund = _referralFund;\n    }\n}\n",
  "sourcePath": "/home/ali/Desktop/treejer/contract/contracts/communityGifts/CommunityGifts.sol",
  "compiler": {
    "name": "solc",
    "version": "0.8.6+commit.11564f7e.Emscripten.clang"
  },
  "schemaVersion": "3.4.1",
  "updatedAt": "2021-08-13T05:18:25.119Z",
  "networkType": "ethereum",
  "devdoc": {
    "kind": "dev",
    "methods": {
      "initialize(address,uint256,uint256,uint256)": {
        "details": "initialize accessRestriction contract and set true for isTreeAuction",
        "params": {
          "_accessRestrictionAddress": "set to the address of accessRestriction contract"
        }
      },
      "setPlanterFundAddress(address)": {
        "details": "admin set PlanterFundAddress",
        "params": {
          "_address": "set to the address of PlanterFund"
        }
      },
      "setTreeAttributesAddress(address)": {
        "details": "admin set TreeFactoryAddress",
        "params": {
          "_address": "set to the address of treeAttribute"
        }
      },
      "setTreeFactoryAddress(address)": {
        "details": "admin set TreeFactoryAddress",
        "params": {
          "_address": "set to the address of treeFactory"
        }
      },
      "setTrustedForwarder(address)": {
        "details": "admin set the trustedForwarder adress",
        "params": {
          "_address": "is the address of trusted forwarder"
        }
      }
    },
    "title": "CommunityGifts ",
    "version": 1
  },
  "userdoc": {
    "kind": "user",
    "methods": {
      "communityGifts(address)": {
        "notice": "NOTE mapping of funder address to CommunityGift struct "
      },
      "isCommunityGifts()": {
        "notice": "NOTE {isCommunityGifts} set inside the initialize to {true} "
      },
      "isTrustedForwarder(address)": {
        "notice": "return if the forwarder is trusted to forward relayed transactions to us. the forwarder is required to verify the sender's signature, and verify the call is not a replay."
      }
    },
    "version": 1
  }
}