{
  "contractName": "DaiFunds",
  "abi": [
    {
      "anonymous": false,
      "inputs": [
        {
          "indexed": false,
          "internalType": "uint256",
          "name": "amount",
          "type": "uint256"
        },
        {
          "indexed": false,
          "internalType": "address",
          "name": "account",
          "type": "address"
        },
        {
          "indexed": false,
          "internalType": "string",
          "name": "reason",
          "type": "string"
        }
      ],
      "name": "LocalDevelopBalanceWithdrawn",
      "type": "event"
    },
    {
      "anonymous": false,
      "inputs": [
        {
          "indexed": false,
          "internalType": "uint256",
          "name": "amount",
          "type": "uint256"
        },
        {
          "indexed": false,
          "internalType": "address",
          "name": "account",
          "type": "address"
        },
        {
          "indexed": false,
          "internalType": "string",
          "name": "reason",
          "type": "string"
        }
      ],
      "name": "RescueBalanceWithdrawn",
      "type": "event"
    },
    {
      "anonymous": false,
      "inputs": [
        {
          "indexed": false,
          "internalType": "uint256",
          "name": "amount",
          "type": "uint256"
        },
        {
          "indexed": false,
          "internalType": "address",
          "name": "account",
          "type": "address"
        },
        {
          "indexed": false,
          "internalType": "string",
          "name": "reason",
          "type": "string"
        }
      ],
      "name": "ReserveBalanceWithdrawn1",
      "type": "event"
    },
    {
      "anonymous": false,
      "inputs": [
        {
          "indexed": false,
          "internalType": "uint256",
          "name": "amount",
          "type": "uint256"
        },
        {
          "indexed": false,
          "internalType": "address",
          "name": "account",
          "type": "address"
        },
        {
          "indexed": false,
          "internalType": "string",
          "name": "reason",
          "type": "string"
        }
      ],
      "name": "ReserveBalanceWithdrawn2",
      "type": "event"
    },
    {
      "anonymous": false,
      "inputs": [
        {
          "indexed": false,
          "internalType": "uint256",
          "name": "treeId",
          "type": "uint256"
        },
        {
          "indexed": false,
          "internalType": "uint256",
          "name": "amount",
          "type": "uint256"
        },
        {
          "indexed": false,
          "internalType": "uint256",
          "name": "planterPart",
          "type": "uint256"
        }
      ],
      "name": "TreeFunded",
      "type": "event"
    },
    {
      "anonymous": false,
      "inputs": [
        {
          "indexed": false,
          "internalType": "uint256",
          "name": "amount",
          "type": "uint256"
        },
        {
          "indexed": false,
          "internalType": "address",
          "name": "account",
          "type": "address"
        },
        {
          "indexed": false,
          "internalType": "string",
          "name": "reason",
          "type": "string"
        }
      ],
      "name": "TreeResearchBalanceWithdrawn",
      "type": "event"
    },
    {
      "anonymous": false,
      "inputs": [
        {
          "indexed": false,
          "internalType": "uint256",
          "name": "amount",
          "type": "uint256"
        },
        {
          "indexed": false,
          "internalType": "address",
          "name": "account",
          "type": "address"
        },
        {
          "indexed": false,
          "internalType": "string",
          "name": "reason",
          "type": "string"
        }
      ],
      "name": "TreejerDevelopBalanceWithdrawn",
      "type": "event"
    },
    {
      "inputs": [],
      "name": "accessRestriction",
      "outputs": [
        {
          "internalType": "contract IAccessRestriction",
          "name": "",
          "type": "address"
        }
      ],
      "stateMutability": "view",
      "type": "function",
      "constant": true
    },
    {
      "inputs": [],
      "name": "daiToken",
      "outputs": [
        {
          "internalType": "contract IERC20Upgradeable",
          "name": "",
          "type": "address"
        }
      ],
      "stateMutability": "view",
      "type": "function",
      "constant": true
    },
    {
      "inputs": [],
      "name": "isDaiFunds",
      "outputs": [
        {
          "internalType": "bool",
          "name": "",
          "type": "bool"
        }
      ],
      "stateMutability": "view",
      "type": "function",
      "constant": true
    },
    {
      "inputs": [],
      "name": "localDevelopAddress",
      "outputs": [
        {
          "internalType": "address",
          "name": "",
          "type": "address"
        }
      ],
      "stateMutability": "view",
      "type": "function",
      "constant": true
    },
    {
      "inputs": [],
      "name": "planterFundContract",
      "outputs": [
        {
          "internalType": "contract IPlanterFund",
          "name": "",
          "type": "address"
        }
      ],
      "stateMutability": "view",
      "type": "function",
      "constant": true
    },
    {
      "inputs": [],
      "name": "rescueFundAddress",
      "outputs": [
        {
          "internalType": "address",
          "name": "",
          "type": "address"
        }
      ],
      "stateMutability": "view",
      "type": "function",
      "constant": true
    },
    {
      "inputs": [],
      "name": "reserveFundAddress1",
      "outputs": [
        {
          "internalType": "address",
          "name": "",
          "type": "address"
        }
      ],
      "stateMutability": "view",
      "type": "function",
      "constant": true
    },
    {
      "inputs": [],
      "name": "reserveFundAddress2",
      "outputs": [
        {
          "internalType": "address",
          "name": "",
          "type": "address"
        }
      ],
      "stateMutability": "view",
      "type": "function",
      "constant": true
    },
    {
      "inputs": [],
      "name": "totalFunds",
      "outputs": [
        {
          "internalType": "uint256",
          "name": "treeResearch",
          "type": "uint256"
        },
        {
          "internalType": "uint256",
          "name": "localDevelop",
          "type": "uint256"
        },
        {
          "internalType": "uint256",
          "name": "rescueFund",
          "type": "uint256"
        },
        {
          "internalType": "uint256",
          "name": "treejerDevelop",
          "type": "uint256"
        },
        {
          "internalType": "uint256",
          "name": "reserveFund1",
          "type": "uint256"
        },
        {
          "internalType": "uint256",
          "name": "reserveFund2",
          "type": "uint256"
        }
      ],
      "stateMutability": "view",
      "type": "function",
      "constant": true
    },
    {
      "inputs": [],
      "name": "treeResearchAddress",
      "outputs": [
        {
          "internalType": "address",
          "name": "",
          "type": "address"
        }
      ],
      "stateMutability": "view",
      "type": "function",
      "constant": true
    },
    {
      "inputs": [],
      "name": "treejerDevelopAddress",
      "outputs": [
        {
          "internalType": "address",
          "name": "",
          "type": "address"
        }
      ],
      "stateMutability": "view",
      "type": "function",
      "constant": true
    },
    {
      "inputs": [
        {
          "internalType": "address",
          "name": "_accessRestrictionAddress",
          "type": "address"
        }
      ],
      "name": "initialize",
      "outputs": [],
      "stateMutability": "nonpayable",
      "type": "function"
    },
    {
      "inputs": [
        {
          "internalType": "address",
          "name": "_daiTokenAddress",
          "type": "address"
        }
      ],
      "name": "setDaiTokenAddress",
      "outputs": [],
      "stateMutability": "nonpayable",
      "type": "function"
    },
    {
      "inputs": [
        {
          "internalType": "address",
          "name": "_address",
          "type": "address"
        }
      ],
      "name": "setPlanterFundContractAddress",
      "outputs": [],
      "stateMutability": "nonpayable",
      "type": "function"
    },
    {
      "inputs": [
        {
          "internalType": "address payable",
          "name": "_address",
          "type": "address"
        }
      ],
      "name": "setTreeResearchAddress",
      "outputs": [],
      "stateMutability": "nonpayable",
      "type": "function"
    },
    {
      "inputs": [
        {
          "internalType": "address payable",
          "name": "_address",
          "type": "address"
        }
      ],
      "name": "setLocalDevelopAddress",
      "outputs": [],
      "stateMutability": "nonpayable",
      "type": "function"
    },
    {
      "inputs": [
        {
          "internalType": "address payable",
          "name": "_address",
          "type": "address"
        }
      ],
      "name": "setRescueFundAddress",
      "outputs": [],
      "stateMutability": "nonpayable",
      "type": "function"
    },
    {
      "inputs": [
        {
          "internalType": "address payable",
          "name": "_address",
          "type": "address"
        }
      ],
      "name": "setTreejerDevelopAddress",
      "outputs": [],
      "stateMutability": "nonpayable",
      "type": "function"
    },
    {
      "inputs": [
        {
          "internalType": "address payable",
          "name": "_address",
          "type": "address"
        }
      ],
      "name": "setReserveFund1Address",
      "outputs": [],
      "stateMutability": "nonpayable",
      "type": "function"
    },
    {
      "inputs": [
        {
          "internalType": "address payable",
          "name": "_address",
          "type": "address"
        }
      ],
      "name": "setReserveFund2Address",
      "outputs": [],
      "stateMutability": "nonpayable",
      "type": "function"
    },
    {
      "inputs": [
        {
          "internalType": "uint256",
          "name": "_treeId",
          "type": "uint256"
        },
        {
          "internalType": "uint256",
          "name": "_amount",
          "type": "uint256"
        },
        {
          "internalType": "uint16",
          "name": "_planterFund",
          "type": "uint16"
        },
        {
          "internalType": "uint16",
          "name": "_referralFund",
          "type": "uint16"
        },
        {
          "internalType": "uint16",
          "name": "_treeResearch",
          "type": "uint16"
        },
        {
          "internalType": "uint16",
          "name": "_localDevelop",
          "type": "uint16"
        },
        {
          "internalType": "uint16",
          "name": "_rescueFund",
          "type": "uint16"
        },
        {
          "internalType": "uint16",
          "name": "_treejerDevelop",
          "type": "uint16"
        },
        {
          "internalType": "uint16",
          "name": "_reserveFund1",
          "type": "uint16"
        },
        {
          "internalType": "uint16",
          "name": "_reserveFund2",
          "type": "uint16"
        }
      ],
      "name": "fundTree",
      "outputs": [],
      "stateMutability": "nonpayable",
      "type": "function"
    },
    {
      "inputs": [
        {
          "internalType": "uint256",
          "name": "_amount",
          "type": "uint256"
        },
        {
          "internalType": "string",
          "name": "_reason",
          "type": "string"
        }
      ],
      "name": "withdrawTreeResearch",
      "outputs": [],
      "stateMutability": "nonpayable",
      "type": "function"
    },
    {
      "inputs": [
        {
          "internalType": "uint256",
          "name": "_amount",
          "type": "uint256"
        },
        {
          "internalType": "string",
          "name": "_reason",
          "type": "string"
        }
      ],
      "name": "withdrawLocalDevelop",
      "outputs": [],
      "stateMutability": "nonpayable",
      "type": "function"
    },
    {
      "inputs": [
        {
          "internalType": "uint256",
          "name": "_amount",
          "type": "uint256"
        },
        {
          "internalType": "string",
          "name": "_reason",
          "type": "string"
        }
      ],
      "name": "withdrawRescueFund",
      "outputs": [],
      "stateMutability": "nonpayable",
      "type": "function"
    },
    {
      "inputs": [
        {
          "internalType": "uint256",
          "name": "_amount",
          "type": "uint256"
        },
        {
          "internalType": "string",
          "name": "_reason",
          "type": "string"
        }
      ],
      "name": "withdrawTreejerDevelop",
      "outputs": [],
      "stateMutability": "nonpayable",
      "type": "function"
    },
    {
      "inputs": [
        {
          "internalType": "uint256",
          "name": "_amount",
          "type": "uint256"
        },
        {
          "internalType": "string",
          "name": "_reason",
          "type": "string"
        }
      ],
      "name": "withdrawReserveFund1",
      "outputs": [],
      "stateMutability": "nonpayable",
      "type": "function"
    },
    {
      "inputs": [
        {
          "internalType": "uint256",
          "name": "_amount",
          "type": "uint256"
        },
        {
          "internalType": "string",
          "name": "_reason",
          "type": "string"
        }
      ],
      "name": "withdrawReserveFund2",
      "outputs": [],
      "stateMutability": "nonpayable",
      "type": "function"
    }
  ],
  "bytecode": "0x608060405234801561001057600080fd5b50611c78806100206000396000f3fe608060405234801561001057600080fd5b50600436106101a95760003560e01c806399fece40116100f9578063c4d66de811610097578063e5356a6511610071578063e5356a65146103c1578063ed3b0a00146103d4578063f1326b15146103f7578063ff4eb8bb1461040a57600080fd5b8063c4d66de814610381578063cb13011c14610394578063d6762c4a146103a757600080fd5b8063a47fddb0116100d3578063a47fddb014610335578063b367583214610348578063ba6138a51461035b578063be22f5461461036e57600080fd5b806399fece40146102fc5780639e6454aa1461030f578063a037edcc1461032257600080fd5b80635f335a931161016657806380d663ea1161014057806380d663ea146102785780638194b85b1461028b57806384457b631461029e578063968ed600146102b157600080fd5b80635f335a931461023f578063673dba21146102525780637a876fd81461026557600080fd5b80630a43649a146101ae578063233ac7aa146101de578063310f6dec146101f35780634fe4967414610206578063536ad73a146102195780635773780d1461022c575b600080fd5b600a546101c1906001600160a01b031681565b6040516001600160a01b0390911681526020015b60405180910390f35b6101f16101ec366004611999565b61041d565b005b600b546101c1906001600160a01b031681565b6101f1610214366004611999565b6104a1565b6101f16102273660046119df565b610525565b6101f161023a366004611999565b61073f565b600e546101c1906001600160a01b031681565b6101f16102603660046119df565b610842565b600d546101c1906001600160a01b031681565b6001546101c1906001600160a01b031681565b6101f1610299366004611999565b610a44565b6101f16102ac366004611999565b610ac8565b6003546004546005546006546007546008546102cf95949392919086565b604080519687526020870195909552938501929092526060840152608083015260a082015260c0016101d5565b6101f161030a3660046119df565b610b4c565b6101f161031d366004611999565b610d4f565b6009546101c1906001600160a01b031681565b600c546101c1906001600160a01b031681565b6101f1610356366004611a5b565b610dd3565b6101f16103693660046119df565b611110565b6002546101c1906001600160a01b031681565b6101f161038f366004611999565b611313565b6101f16103a2366004611999565b611474565b6000546101c190630100000090046001600160a01b031681565b6101f16103cf3660046119df565b6114f8565b6000546103e79062010000900460ff1681565b60405190151581526020016101d5565b6101f1610405366004611999565b6116fb565b6101f16104183660046119df565b61177f565b600054604051632104fb0560e21b815233600482015263010000009091046001600160a01b031690638413ec149060240160006040518083038186803b15801561046657600080fd5b505afa15801561047a573d6000803e3d6000fd5b5050600c80546001600160a01b0319166001600160a01b0394909416939093179092555050565b600054604051632104fb0560e21b815233600482015263010000009091046001600160a01b031690638413ec149060240160006040518083038186803b1580156104ea57600080fd5b505afa1580156104fe573d6000803e3d6000fd5b5050600e80546001600160a01b0319166001600160a01b0394909416939093179092555050565b600060039054906101000a90046001600160a01b03166001600160a01b0316634d868f986040518163ffffffff1660e01b815260040160006040518083038186803b15801561057357600080fd5b505afa158015610587573d6000803e3d6000fd5b5050600054604051632104fb0560e21b815233600482015263010000009091046001600160a01b03169250638413ec14915060240160006040518083038186803b1580156105d457600080fd5b505afa1580156105e8573d6000803e3d6000fd5b5050600b546001600160a01b03169150508061061f5760405162461bcd60e51b815260040161061690611b34565b60405180910390fd5b60055484118015906106315750600084115b61064d5760405162461bcd60e51b815260040161061690611b07565b83600360020160008282546106629190611bfd565b9091555050600254600b5460405163a9059cbb60e01b81526001600160a01b0391821660048201526024810187905291169063a9059cbb90604401602060405180830381600087803b1580156106b757600080fd5b505af11580156106cb573d6000803e3d6000fd5b505050506040513d601f19601f820116820180604052508101906106ef91906119bd565b50600b546040517f85700b57d5ec89a15f491812de22a34a5bdca335fc68880dbab357cf81151fab916107319187916001600160a01b03169087908790611b5d565b60405180910390a150505050565b600054604051632104fb0560e21b815233600482015263010000009091046001600160a01b031690638413ec149060240160006040518083038186803b15801561078857600080fd5b505afa15801561079c573d6000803e3d6000fd5b505050506000819050806001600160a01b031663349904da6040518163ffffffff1660e01b815260040160206040518083038186803b1580156107de57600080fd5b505afa1580156107f2573d6000803e3d6000fd5b505050506040513d601f19601f8201168201806040525081019061081691906119bd565b61081f57600080fd5b600180546001600160a01b0319166001600160a01b039290921691909117905550565b600060039054906101000a90046001600160a01b03166001600160a01b0316634d868f986040518163ffffffff1660e01b815260040160006040518083038186803b15801561089057600080fd5b505afa1580156108a4573d6000803e3d6000fd5b5050600054604051632104fb0560e21b815233600482015263010000009091046001600160a01b03169250638413ec14915060240160006040518083038186803b1580156108f157600080fd5b505afa158015610905573d6000803e3d6000fd5b5050600c546001600160a01b0316915050806109335760405162461bcd60e51b815260040161061690611b34565b60065484118015906109455750600084115b6109615760405162461bcd60e51b815260040161061690611b07565b836003800160008282546109759190611bfd565b9091555050600254600c5460405163a9059cbb60e01b81526001600160a01b0391821660048201526024810187905291169063a9059cbb90604401602060405180830381600087803b1580156109ca57600080fd5b505af11580156109de573d6000803e3d6000fd5b505050506040513d601f19601f82011682018060405250810190610a0291906119bd565b50600c546040517f174f34055ef4d06c26032b349f20281a6e7b69b17352d03a658bb3c02561367b916107319187916001600160a01b03169087908790611b5d565b600054604051632104fb0560e21b815233600482015263010000009091046001600160a01b031690638413ec149060240160006040518083038186803b158015610a8d57600080fd5b505afa158015610aa1573d6000803e3d6000fd5b5050600980546001600160a01b0319166001600160a01b0394909416939093179092555050565b600054604051632104fb0560e21b815233600482015263010000009091046001600160a01b031690638413ec149060240160006040518083038186803b158015610b1157600080fd5b505afa158015610b25573d6000803e3d6000fd5b5050600d80546001600160a01b0319166001600160a01b0394909416939093179092555050565b600060039054906101000a90046001600160a01b03166001600160a01b0316634d868f986040518163ffffffff1660e01b815260040160006040518083038186803b158015610b9a57600080fd5b505afa158015610bae573d6000803e3d6000fd5b5050600054604051632104fb0560e21b815233600482015263010000009091046001600160a01b03169250638413ec14915060240160006040518083038186803b158015610bfb57600080fd5b505afa158015610c0f573d6000803e3d6000fd5b5050600a546001600160a01b031691505080610c3d5760405162461bcd60e51b815260040161061690611b34565b6004548411801590610c4f5750600084115b610c6b5760405162461bcd60e51b815260040161061690611b07565b8360036001016000828254610c809190611bfd565b9091555050600254600a5460405163a9059cbb60e01b81526001600160a01b0391821660048201526024810187905291169063a9059cbb90604401602060405180830381600087803b158015610cd557600080fd5b505af1158015610ce9573d6000803e3d6000fd5b505050506040513d601f19601f82011682018060405250810190610d0d91906119bd565b50600a546040517ff55afe4fbf5e2382822e10e484a70ef4849c01a0e4764cfb653bdeea7e47e728916107319187916001600160a01b03169087908790611b5d565b600054604051632104fb0560e21b815233600482015263010000009091046001600160a01b031690638413ec149060240160006040518083038186803b158015610d9857600080fd5b505afa158015610dac573d6000803e3d6000fd5b5050600a80546001600160a01b0319166001600160a01b0394909416939093179092555050565b600054604051632e0b273160e01b815233600482015263010000009091046001600160a01b031690632e0b27319060240160006040518083038186803b158015610e1c57600080fd5b505afa158015610e30573d6000803e3d6000fd5b505050506127108461ffff168a610e479190611bde565b610e519190611bbc565b60058054600090610e63908490611ba4565b909155506127109050610e7a61ffff87168b611bde565b610e849190611bbc565b60048054600090610e96908490611ba4565b909155506127109050610ead61ffff84168b611bde565b610eb79190611bbc565b60078054600090610ec9908490611ba4565b909155506127109050610ee061ffff83168b611bde565b610eea9190611bbc565b60088054600090610efc908490611ba4565b909155506127109050610f1361ffff85168b611bde565b610f1d9190611bbc565b60068054600090610f2f908490611ba4565b909155506127109050610f4661ffff88168b611bde565b610f509190611bbc565b60038054600090610f62908490611ba4565b9091555060009050612710610f7b61ffff8b168c611bde565b610f859190611bbc565b90506000612710610f9a61ffff8b168d611bde565b610fa49190611bbc565b6002546001549192506001600160a01b039081169163a9059cbb9116610fca8486611ba4565b6040516001600160e01b031960e085901b1681526001600160a01b0390921660048301526024820152604401602060405180830381600087803b15801561101057600080fd5b505af1158015611024573d6000803e3d6000fd5b505050506040513d601f19601f8201168201806040525081019061104891906119bd565b50600154604051633ad7c33b60e01b8152600481018e905260248101849052604481018390526001600160a01b0390911690633ad7c33b90606401600060405180830381600087803b15801561109d57600080fd5b505af11580156110b1573d6000803e3d6000fd5b505050507f347f488d341632b8f0297fc353e08cc384d9a8c7bb93600a7ede83515b56b9948c8c83856110e49190611ba4565b6040805193845260208401929092529082015260600160405180910390a1505050505050505050505050565b600060039054906101000a90046001600160a01b03166001600160a01b0316634d868f986040518163ffffffff1660e01b815260040160006040518083038186803b15801561115e57600080fd5b505afa158015611172573d6000803e3d6000fd5b5050600054604051632104fb0560e21b815233600482015263010000009091046001600160a01b03169250638413ec14915060240160006040518083038186803b1580156111bf57600080fd5b505afa1580156111d3573d6000803e3d6000fd5b5050600d546001600160a01b0316915050806112015760405162461bcd60e51b815260040161061690611b34565b60075484118015906112135750600084115b61122f5760405162461bcd60e51b815260040161061690611b07565b83600360040160008282546112449190611bfd565b9091555050600254600d5460405163a9059cbb60e01b81526001600160a01b0391821660048201526024810187905291169063a9059cbb90604401602060405180830381600087803b15801561129957600080fd5b505af11580156112ad573d6000803e3d6000fd5b505050506040513d601f19601f820116820180604052508101906112d191906119bd565b50600d546040517f7933fc59a1b4f8879978109694db0c56041b5c494a007cd879877f579f10df1c916107319187916001600160a01b03169087908790611b5d565b600054610100900460ff168061132c575060005460ff16155b61138f5760405162461bcd60e51b815260206004820152602e60248201527f496e697469616c697a61626c653a20636f6e747261637420697320616c72656160448201526d191e481a5b9a5d1a585b1a5e995960921b6064820152608401610616565b600054610100900460ff161580156113b1576000805461ffff19166101011790555b6000829050806001600160a01b031663ba84fd696040518163ffffffff1660e01b815260040160206040518083038186803b1580156113ef57600080fd5b505afa158015611403573d6000803e3d6000fd5b505050506040513d601f19601f8201168201806040525081019061142791906119bd565b61143057600080fd5b600080546001600160a01b0390921663010000000262010000600160b81b031990921691909117620100001790558015611470576000805461ff00191690555b5050565b600054604051632104fb0560e21b815233600482015263010000009091046001600160a01b031690638413ec149060240160006040518083038186803b1580156114bd57600080fd5b505afa1580156114d1573d6000803e3d6000fd5b5050600b80546001600160a01b0319166001600160a01b0394909416939093179092555050565b600060039054906101000a90046001600160a01b03166001600160a01b0316634d868f986040518163ffffffff1660e01b815260040160006040518083038186803b15801561154657600080fd5b505afa15801561155a573d6000803e3d6000fd5b5050600054604051632104fb0560e21b815233600482015263010000009091046001600160a01b03169250638413ec14915060240160006040518083038186803b1580156115a757600080fd5b505afa1580156115bb573d6000803e3d6000fd5b5050600e546001600160a01b0316915050806115e95760405162461bcd60e51b815260040161061690611b34565b60085484118015906115fb5750600084115b6116175760405162461bcd60e51b815260040161061690611b07565b836003600501600082825461162c9190611bfd565b9091555050600254600e5460405163a9059cbb60e01b81526001600160a01b0391821660048201526024810187905291169063a9059cbb90604401602060405180830381600087803b15801561168157600080fd5b505af1158015611695573d6000803e3d6000fd5b505050506040513d601f19601f820116820180604052508101906116b991906119bd565b50600e546040517fdc46bdffd23b840770c065a6e6fb55e8f31ed7ba8a073048e4b13c947b4701ea916107319187916001600160a01b03169087908790611b5d565b600054604051632104fb0560e21b815233600482015263010000009091046001600160a01b031690638413ec149060240160006040518083038186803b15801561174457600080fd5b505afa158015611758573d6000803e3d6000fd5b5050600280546001600160a01b0319166001600160a01b0394909416939093179092555050565b600060039054906101000a90046001600160a01b03166001600160a01b0316634d868f986040518163ffffffff1660e01b815260040160006040518083038186803b1580156117cd57600080fd5b505afa1580156117e1573d6000803e3d6000fd5b5050600054604051632104fb0560e21b815233600482015263010000009091046001600160a01b03169250638413ec14915060240160006040518083038186803b15801561182e57600080fd5b505afa158015611842573d6000803e3d6000fd5b50506009546001600160a01b0316915050806118705760405162461bcd60e51b815260040161061690611b34565b60035484118015906118825750600084115b61189e5760405162461bcd60e51b815260040161061690611b07565b83600360000160008282546118b39190611bfd565b909155505060025460095460405163a9059cbb60e01b81526001600160a01b0391821660048201526024810187905291169063a9059cbb90604401602060405180830381600087803b15801561190857600080fd5b505af115801561191c573d6000803e3d6000fd5b505050506040513d601f19601f8201168201806040525081019061194091906119bd565b506009546040517f346dd4608342f0849c2ae92a528abcdbde8cf41ca01d05ed0855ad4a3fe38bb5916107319187916001600160a01b03169087908790611b5d565b803561ffff8116811461199457600080fd5b919050565b6000602082840312156119ab57600080fd5b81356119b681611c2a565b9392505050565b6000602082840312156119cf57600080fd5b815180151581146119b657600080fd5b6000806000604084860312156119f457600080fd5b83359250602084013567ffffffffffffffff80821115611a1357600080fd5b818601915086601f830112611a2757600080fd5b813581811115611a3657600080fd5b876020828501011115611a4857600080fd5b6020830194508093505050509250925092565b6000806000806000806000806000806101408b8d031215611a7b57600080fd5b8a35995060208b01359850611a9260408c01611982565b9750611aa060608c01611982565b9650611aae60808c01611982565b9550611abc60a08c01611982565b9450611aca60c08c01611982565b9350611ad860e08c01611982565b9250611ae76101008c01611982565b9150611af66101208c01611982565b90509295989b9194979a5092959850565b6020808252601390820152721a5b9cdd59999a58da595b9d08185b5bdd5b9d606a1b604082015260600190565b6020808252600f908201526e696e76616c6964206164647265737360881b604082015260600190565b8481526001600160a01b03841660208201526060604082018190528101829052818360808301376000818301608090810191909152601f909201601f191601019392505050565b60008219821115611bb757611bb7611c14565b500190565b600082611bd957634e487b7160e01b600052601260045260246000fd5b500490565b6000816000190483118215151615611bf857611bf8611c14565b500290565b600082821015611c0f57611c0f611c14565b500390565b634e487b7160e01b600052601160045260246000fd5b6001600160a01b0381168114611c3f57600080fd5b5056fea2646970667358221220c0fc5b2ef5eff0203e300b94d7bc2fb92d2b34cc13dbd30aa0bd0394d935bd3664736f6c63430008060033",
  "immutableReferences": {},
  "source": "// SPDX-License-Identifier: MIT\n\npragma solidity ^0.8.6;\n\nimport \"@openzeppelin/contracts-upgradeable/utils/CountersUpgradeable.sol\";\nimport \"@openzeppelin/contracts-upgradeable/proxy/utils/Initializable.sol\";\nimport \"@openzeppelin/contracts-upgradeable/token/ERC20/IERC20Upgradeable.sol\";\nimport \"../access/IAccessRestriction.sol\";\nimport \"./IPlanterFund.sol\";\n\n/** @title DaiFunds Contract */\n\ncontract DaiFunds is Initializable {\n    bool public isDaiFunds;\n\n    IAccessRestriction public accessRestriction;\n    IPlanterFund public planterFundContract;\n    IERC20Upgradeable public daiToken;\n\n    TotalFunds public totalFunds;\n\n    address public treeResearchAddress;\n    address public localDevelopAddress;\n    address public rescueFundAddress;\n    address public treejerDevelopAddress;\n    address public reserveFundAddress1;\n    address public reserveFundAddress2;\n\n    struct TotalFunds {\n        uint256 treeResearch;\n        uint256 localDevelop;\n        uint256 rescueFund;\n        uint256 treejerDevelop;\n        uint256 reserveFund1;\n        uint256 reserveFund2;\n    }\n\n    event TreeResearchBalanceWithdrawn(\n        uint256 amount,\n        address account,\n        string reason\n    );\n    event LocalDevelopBalanceWithdrawn(\n        uint256 amount,\n        address account,\n        string reason\n    );\n    event RescueBalanceWithdrawn(\n        uint256 amount,\n        address account,\n        string reason\n    );\n    event TreejerDevelopBalanceWithdrawn(\n        uint256 amount,\n        address account,\n        string reason\n    );\n    event ReserveBalanceWithdrawn1(\n        uint256 amount,\n        address account,\n        string reason\n    );\n    event ReserveBalanceWithdrawn2(\n        uint256 amount,\n        address account,\n        string reason\n    );\n\n    event TreeFunded(uint256 treeId, uint256 amount, uint256 planterPart);\n\n    modifier onlyAdmin() {\n        accessRestriction.ifAdmin(msg.sender);\n        _;\n    }\n\n    modifier ifNotPaused() {\n        accessRestriction.ifNotPaused();\n        _;\n    }\n\n    modifier onlyRegularSell() {\n        accessRestriction.ifRegularSell(msg.sender);\n        _;\n    }\n\n    modifier validAddress(address _address) {\n        require(_address != address(0), \"invalid address\");\n        _;\n    }\n\n    function initialize(address _accessRestrictionAddress) public initializer {\n        IAccessRestriction candidateContract = IAccessRestriction(\n            _accessRestrictionAddress\n        );\n\n        require(candidateContract.isAccessRestriction());\n\n        isDaiFunds = true;\n        accessRestriction = candidateContract;\n    }\n\n    function setDaiTokenAddress(address _daiTokenAddress) external onlyAdmin {\n        IERC20Upgradeable candidateContract = IERC20Upgradeable(\n            _daiTokenAddress\n        );\n        daiToken = candidateContract;\n    }\n\n    function setPlanterFundContractAddress(address _address)\n        external\n        onlyAdmin\n    {\n        IPlanterFund candidateContract = IPlanterFund(_address);\n        require(candidateContract.isPlanterFund());\n        planterFundContract = candidateContract;\n    }\n\n    /**\n     * @dev admin set treeResearch  address to fund\n     * @param _address tree research address\n     */\n    function setTreeResearchAddress(address payable _address)\n        external\n        onlyAdmin\n    {\n        treeResearchAddress = _address;\n    }\n\n    /**\n     * @dev admin set localDevelop  address to fund\n     * @param _address local develop address\n     */\n    function setLocalDevelopAddress(address payable _address)\n        external\n        onlyAdmin\n    {\n        localDevelopAddress = _address;\n    }\n\n    /**\n     * @dev admin set rescue address to fund\n     * @param _address rescue fund address\n     */\n    function setRescueFundAddress(address payable _address) external onlyAdmin {\n        rescueFundAddress = _address;\n    }\n\n    /**\n     * @dev admin set treejerDevelop  address to fund\n     * @param _address treejer develop address\n     */\n    function setTreejerDevelopAddress(address payable _address)\n        external\n        onlyAdmin\n    {\n        treejerDevelopAddress = _address;\n    }\n\n    /**\n     * @dev admin set reserveFund1  address to fund\n     * @param _address reserveFund1 address\n     */\n    function setReserveFund1Address(address payable _address)\n        external\n        onlyAdmin\n    {\n        reserveFundAddress1 = _address;\n    }\n\n    /**\n     * @dev admin set reserveFund2  address to fund\n     * @param _address reserveFund2 address\n     */\n    function setReserveFund2Address(address payable _address)\n        external\n        onlyAdmin\n    {\n        reserveFundAddress2 = _address;\n    }\n\n    function fundTree(\n        uint256 _treeId,\n        uint256 _amount,\n        uint16 _planterFund,\n        uint16 _referralFund,\n        uint16 _treeResearch,\n        uint16 _localDevelop,\n        uint16 _rescueFund,\n        uint16 _treejerDevelop,\n        uint16 _reserveFund1,\n        uint16 _reserveFund2\n    ) external onlyRegularSell {\n        totalFunds.rescueFund += (_amount * _rescueFund) / 10000;\n\n        totalFunds.localDevelop += (_amount * _localDevelop) / 10000;\n\n        totalFunds.reserveFund1 += (_amount * _reserveFund1) / 10000;\n\n        totalFunds.reserveFund2 += (_amount * _reserveFund2) / 10000;\n\n        totalFunds.treejerDevelop += (_amount * _treejerDevelop) / 10000;\n\n        totalFunds.treeResearch += (_amount * _treeResearch) / 10000;\n\n        uint256 planterFund = (_amount * _planterFund) / 10000;\n        uint256 referralFund = (_amount * _referralFund) / 10000;\n\n        daiToken.transfer(\n            address(planterFundContract),\n            planterFund + referralFund\n        );\n\n        planterFundContract.setPlanterFunds(_treeId, planterFund, referralFund);\n\n        emit TreeFunded(_treeId, _amount, planterFund + referralFund);\n    }\n\n    /**\n     * @dev admin withdraw {_amount} from treeResearch totalFund in case of valid {_amount}\n     * and money transfer to {treeResearchAddress}\n     * @param _amount amount to withdraw\n     * @param _reason reason to withdraw\n     */\n    function withdrawTreeResearch(uint256 _amount, string calldata _reason)\n        external\n        ifNotPaused\n        onlyAdmin\n        validAddress(treeResearchAddress)\n    {\n        require(\n            _amount <= totalFunds.treeResearch && _amount > 0,\n            \"insufficient amount\"\n        );\n\n        totalFunds.treeResearch -= _amount;\n\n        daiToken.transfer(treeResearchAddress, _amount);\n\n        emit TreeResearchBalanceWithdrawn(\n            _amount,\n            treeResearchAddress,\n            _reason\n        );\n    }\n\n    /**\n     * @dev admin withdraw {_amount} from localDevelop totalFund in case of valid {_amount}\n     * and money transfer to {localDevelopAddress}\n     * @param _amount amount to withdraw\n     * @param _reason reason to withdraw\n     */\n    function withdrawLocalDevelop(uint256 _amount, string calldata _reason)\n        external\n        ifNotPaused\n        onlyAdmin\n        validAddress(localDevelopAddress)\n    {\n        require(\n            _amount <= totalFunds.localDevelop && _amount > 0,\n            \"insufficient amount\"\n        );\n\n        totalFunds.localDevelop -= _amount;\n\n        daiToken.transfer(localDevelopAddress, _amount);\n\n        emit LocalDevelopBalanceWithdrawn(\n            _amount,\n            localDevelopAddress,\n            _reason\n        );\n    }\n\n    /**\n     * @dev admin withdraw {_amount} from rescueFund totalFund in case of valid {_amount}\n     * and money transfer to {rescueFundAddress}\n     * @param _amount amount to withdraw\n     * @param _reason reason to withdraw\n     */\n    function withdrawRescueFund(uint256 _amount, string calldata _reason)\n        external\n        ifNotPaused\n        onlyAdmin\n        validAddress(rescueFundAddress)\n    {\n        require(\n            _amount <= totalFunds.rescueFund && _amount > 0,\n            \"insufficient amount\"\n        );\n\n        totalFunds.rescueFund -= _amount;\n\n        daiToken.transfer(rescueFundAddress, _amount);\n\n        emit RescueBalanceWithdrawn(_amount, rescueFundAddress, _reason);\n    }\n\n    /**\n     * @dev admin withdraw {_amount} from treejerDevelop totalFund in case of valid {_amount}\n     * and money transfer to {treejerDevelopAddress}\n     * @param _amount amount to withdraw\n     * @param _reason reason to withdraw\n     */\n    function withdrawTreejerDevelop(uint256 _amount, string calldata _reason)\n        external\n        ifNotPaused\n        onlyAdmin\n        validAddress(treejerDevelopAddress)\n    {\n        require(\n            _amount <= totalFunds.treejerDevelop && _amount > 0,\n            \"insufficient amount\"\n        );\n\n        totalFunds.treejerDevelop -= _amount;\n\n        daiToken.transfer(treejerDevelopAddress, _amount);\n\n        emit TreejerDevelopBalanceWithdrawn(\n            _amount,\n            treejerDevelopAddress,\n            _reason\n        );\n    }\n\n    /**\n     * @dev admin withdraw {_amount} from reserveFund1 totalFund in case of valid {_amount}\n     * and money transfer to {reserveFundAddress1}\n     * @param _amount amount to withdraw\n     * @param _reason reason to withdraw\n     */\n    function withdrawReserveFund1(uint256 _amount, string calldata _reason)\n        external\n        ifNotPaused\n        onlyAdmin\n        validAddress(reserveFundAddress1)\n    {\n        require(\n            _amount <= totalFunds.reserveFund1 && _amount > 0,\n            \"insufficient amount\"\n        );\n\n        totalFunds.reserveFund1 -= _amount;\n\n        daiToken.transfer(reserveFundAddress1, _amount);\n\n        emit ReserveBalanceWithdrawn1(_amount, reserveFundAddress1, _reason);\n    }\n\n    /**\n     * @dev admin withdraw {_amount} from reserveFund2 totalFund in case of valid {_amount}\n     * and money transfer to {reserveFundAddress2}\n     * @param _amount amount to withdraw\n     * @param _reason reason to withdraw\n     */\n    function withdrawReserveFund2(uint256 _amount, string calldata _reason)\n        external\n        ifNotPaused\n        onlyAdmin\n        validAddress(reserveFundAddress2)\n    {\n        require(\n            _amount <= totalFunds.reserveFund2 && _amount > 0,\n            \"insufficient amount\"\n        );\n\n        totalFunds.reserveFund2 -= _amount;\n\n        daiToken.transfer(reserveFundAddress2, _amount);\n\n        emit ReserveBalanceWithdrawn2(_amount, reserveFundAddress2, _reason);\n    }\n}\n",
  "sourcePath": "/home/ali/Desktop/treejer/contract/contracts/treasury/DaiFunds.sol",
  "compiler": {
    "name": "solc",
    "version": "0.8.6+commit.11564f7e.Emscripten.clang"
  },
  "schemaVersion": "3.4.1",
  "updatedAt": "2021-08-13T05:24:38.524Z",
  "networkType": "ethereum",
  "devdoc": {
    "kind": "dev",
    "methods": {
      "setLocalDevelopAddress(address)": {
        "details": "admin set localDevelop  address to fund",
        "params": {
          "_address": "local develop address"
        }
      },
      "setRescueFundAddress(address)": {
        "details": "admin set rescue address to fund",
        "params": {
          "_address": "rescue fund address"
        }
      },
      "setReserveFund1Address(address)": {
        "details": "admin set reserveFund1  address to fund",
        "params": {
          "_address": "reserveFund1 address"
        }
      },
      "setReserveFund2Address(address)": {
        "details": "admin set reserveFund2  address to fund",
        "params": {
          "_address": "reserveFund2 address"
        }
      },
      "setTreeResearchAddress(address)": {
        "details": "admin set treeResearch  address to fund",
        "params": {
          "_address": "tree research address"
        }
      },
      "setTreejerDevelopAddress(address)": {
        "details": "admin set treejerDevelop  address to fund",
        "params": {
          "_address": "treejer develop address"
        }
      },
      "withdrawLocalDevelop(uint256,string)": {
        "details": "admin withdraw {_amount} from localDevelop totalFund in case of valid {_amount} and money transfer to {localDevelopAddress}",
        "params": {
          "_amount": "amount to withdraw",
          "_reason": "reason to withdraw"
        }
      },
      "withdrawRescueFund(uint256,string)": {
        "details": "admin withdraw {_amount} from rescueFund totalFund in case of valid {_amount} and money transfer to {rescueFundAddress}",
        "params": {
          "_amount": "amount to withdraw",
          "_reason": "reason to withdraw"
        }
      },
      "withdrawReserveFund1(uint256,string)": {
        "details": "admin withdraw {_amount} from reserveFund1 totalFund in case of valid {_amount} and money transfer to {reserveFundAddress1}",
        "params": {
          "_amount": "amount to withdraw",
          "_reason": "reason to withdraw"
        }
      },
      "withdrawReserveFund2(uint256,string)": {
        "details": "admin withdraw {_amount} from reserveFund2 totalFund in case of valid {_amount} and money transfer to {reserveFundAddress2}",
        "params": {
          "_amount": "amount to withdraw",
          "_reason": "reason to withdraw"
        }
      },
      "withdrawTreeResearch(uint256,string)": {
        "details": "admin withdraw {_amount} from treeResearch totalFund in case of valid {_amount} and money transfer to {treeResearchAddress}",
        "params": {
          "_amount": "amount to withdraw",
          "_reason": "reason to withdraw"
        }
      },
      "withdrawTreejerDevelop(uint256,string)": {
        "details": "admin withdraw {_amount} from treejerDevelop totalFund in case of valid {_amount} and money transfer to {treejerDevelopAddress}",
        "params": {
          "_amount": "amount to withdraw",
          "_reason": "reason to withdraw"
        }
      }
    },
    "title": "DaiFunds Contract ",
    "version": 1
  },
  "userdoc": {
    "kind": "user",
    "methods": {},
    "version": 1
  }
}