{
  "contractName": "Fund",
  "abi": [
    {
      "inputs": [
        {
          "internalType": "contract TreeFactory",
          "name": "_treeFactoryAddress",
          "type": "address"
        },
        {
          "internalType": "contract TreeSale",
          "name": "_treeSaleAddress",
          "type": "address"
        }
      ],
      "stateMutability": "nonpayable",
      "type": "constructor"
    },
    {
      "anonymous": false,
      "inputs": [
        {
          "indexed": false,
          "internalType": "uint256",
          "name": "saleId",
          "type": "uint256"
        },
        {
          "indexed": false,
          "internalType": "uint256",
          "name": "treeId",
          "type": "uint256"
        },
        {
          "indexed": false,
          "internalType": "uint256",
          "name": "price",
          "type": "uint256"
        },
        {
          "indexed": false,
          "internalType": "address",
          "name": "newOwner",
          "type": "address"
        }
      ],
      "name": "TreeBought",
      "type": "event"
    },
    {
      "anonymous": false,
      "inputs": [
        {
          "indexed": false,
          "internalType": "uint256",
          "name": "treeId",
          "type": "uint256"
        },
        {
          "indexed": false,
          "internalType": "string",
          "name": "name",
          "type": "string"
        },
        {
          "indexed": false,
          "internalType": "uint256",
          "name": "balance",
          "type": "uint256"
        }
      ],
      "name": "TreeFunded",
      "type": "event"
    },
    {
      "inputs": [],
      "name": "lastFundedTreeIndex",
      "outputs": [
        {
          "internalType": "uint256",
          "name": "",
          "type": "uint256"
        }
      ],
      "stateMutability": "view",
      "type": "function",
      "constant": true
    },
    {
      "inputs": [],
      "name": "treeFactory",
      "outputs": [
        {
          "internalType": "contract TreeFactory",
          "name": "",
          "type": "address"
        }
      ],
      "stateMutability": "view",
      "type": "function",
      "constant": true
    },
    {
      "inputs": [],
      "name": "treeSale",
      "outputs": [
        {
          "internalType": "contract TreeSale",
          "name": "",
          "type": "address"
        }
      ],
      "stateMutability": "view",
      "type": "function",
      "constant": true
    },
    {
      "inputs": [
        {
          "internalType": "uint256",
          "name": "_count",
          "type": "uint256"
        }
      ],
      "name": "fund",
      "outputs": [],
      "stateMutability": "payable",
      "type": "function",
      "payable": true
    }
  ],
  "bytecode": "0x608060405234801561001057600080fd5b50604051610882380380610882833981810160405261003291908101906100e5565b81600160006101000a81548173ffffffffffffffffffffffffffffffffffffffff021916908373ffffffffffffffffffffffffffffffffffffffff16021790555080600260006101000a81548173ffffffffffffffffffffffffffffffffffffffff021916908373ffffffffffffffffffffffffffffffffffffffff16021790555050506101a5565b6000815190506100ca81610177565b92915050565b6000815190506100df8161018e565b92915050565b600080604083850312156100f857600080fd5b6000610106858286016100bb565b9250506020610117858286016100d0565b9150509250929050565b600061012c82610157565b9050919050565b600061013e82610121565b9050919050565b600061015082610121565b9050919050565b600073ffffffffffffffffffffffffffffffffffffffff82169050919050565b61018081610133565b811461018b57600080fd5b50565b61019781610145565b81146101a257600080fd5b50565b6106ce806101b46000396000f3fe60806040526004361061003f5760003560e01c8063421ef6d41461004457806374f975a81461006f578063c263d9961461009a578063ca1d209d146100c5575b600080fd5b34801561005057600080fd5b506100596100e1565b60405161006691906104ca565b60405180910390f35b34801561007b57600080fd5b50610084610107565b6040516100919190610520565b60405180910390f35b3480156100a657600080fd5b506100af61010d565b6040516100bc91906104e5565b60405180910390f35b6100df60048036036100da919081019061039a565b610133565b005b600160009054906101000a900473ffffffffffffffffffffffffffffffffffffffff1681565b60005481565b600260009054906101000a900473ffffffffffffffffffffffffffffffffffffffff1681565b600081348161013e57fe5b049050600160009054906101000a900473ffffffffffffffffffffffffffffffffffffffff1673ffffffffffffffffffffffffffffffffffffffff166398d5fdca6040518163ffffffff1660e01b815260040160206040518083038186803b1580156101a957600080fd5b505afa1580156101bd573d6000803e3d6000fd5b505050506040513d601f19601f820116820180604052506101e191908101906103c3565b811015610223576040517f08c379a000000000000000000000000000000000000000000000000000000000815260040161021a90610500565b60405180910390fd5b60008090505b828160ff16101561036b5760606040518060400160405280601781526020017f7479706573206e616d652074726565732e6c656e67746800000000000000000081525090506000600160009054906101000a900473ffffffffffffffffffffffffffffffffffffffff1673ffffffffffffffffffffffffffffffffffffffff1663b856eee633866040518363ffffffff1660e01b81526004016102cd9291906104a1565b602060405180830381600087803b1580156102e757600080fd5b505af11580156102fb573d6000803e3d6000fd5b505050506040513d601f19601f8201168201806040525061031f91908101906103c3565b90507fade9995785cb98a08b0c2360405a68ebaeb2aa9e52704b1bf06fea7cbf40b67a8183866040516103549392919061053b565b60405180910390a150508080600101915050610229565b505050565b60008135905061037f81610681565b92915050565b60008151905061039481610681565b92915050565b6000602082840312156103ac57600080fd5b60006103ba84828501610370565b91505092915050565b6000602082840312156103d557600080fd5b60006103e384828501610385565b91505092915050565b6103f5816105bf565b82525050565b610404816105d1565b82525050565b610413816105f5565b82525050565b600061042482610579565b61042e8185610584565b935061043e81856020860161063d565b61044781610670565b840191505092915050565b600061045f601983610584565b91507f42616c616e6365206973206e6f742073756666696369656e74000000000000006000830152602082019050919050565b61049b816105b5565b82525050565b60006040820190506104b660008301856103ec565b6104c36020830184610492565b9392505050565b60006020820190506104df60008301846103fb565b92915050565b60006020820190506104fa600083018461040a565b92915050565b6000602082019050818103600083015261051981610452565b9050919050565b60006020820190506105356000830184610492565b92915050565b60006060820190506105506000830186610492565b81810360208301526105628185610419565b90506105716040830184610492565b949350505050565b600081519050919050565b600082825260208201905092915050565b600073ffffffffffffffffffffffffffffffffffffffff82169050919050565b6000819050919050565b60006105ca82610619565b9050919050565b60006105dc826105e3565b9050919050565b60006105ee82610595565b9050919050565b600061060082610607565b9050919050565b600061061282610595565b9050919050565b60006106248261062b565b9050919050565b600061063682610595565b9050919050565b60005b8381101561065b578082015181840152602081019050610640565b8381111561066a576000848401525b50505050565b6000601f19601f8301169050919050565b61068a816105b5565b811461069557600080fd5b5056fea26469706673582212200b823083b807ecf5c43e82c3f380b06e58dd04a858b6df98495f885eff8529d964736f6c63430006020033",
  "source": "// SPDX-License-Identifier: GPL-3.0\n\npragma solidity >=0.4.21 <0.7.0;\npragma experimental ABIEncoderV2;\n\nimport \"./TreeSale.sol\";\nimport \"./TreeFactory.sol\";\n\ncontract Fund {\n    event TreeBought(\n        uint256 saleId,\n        uint256 treeId,\n        uint256 price,\n        address newOwner\n    );\n\n\n    event TreeFunded(\n        uint256 treeId,\n        string name,\n        uint256 balance\n    );\n\n    uint public lastFundedTreeIndex;\n\n    TreeFactory public treeFactory;\n    TreeSale public treeSale;\n\n\n    constructor(TreeFactory _treeFactoryAddress, TreeSale _treeSaleAddress) public {\n        treeFactory = _treeFactoryAddress;\n        treeSale = _treeSaleAddress;\n    }\n\n\n    function fund(uint _count) external payable {\n\n        // require(types[_typeId].price > 0);\n        \n\n        uint balance = msg.value / _count;\n\n        //@todo check for treePrice\n        require(balance >= treeFactory.getPrice(), \"Balance is not sufficient\");\n\n        \n        for (uint8 i = 0; i < _count; i++) {\n\n            string memory _name = string('types name trees.length');\n\n            // if check for exist tree\n\n            // else\n            uint256 id = treeFactory.simpleFund(msg.sender, balance);\n            \n            emit TreeFunded(\n                id,\n                _name,\n                balance\n            );\n\n        }\n        \n        //distribute fund\n        // (bool sent, bytes memory data) = _to.call.value(msg.value)(\"\");\n        // require(sent, \"Failed to send Ether\");\n    } \n\n}\n",
  "sourcePath": "/home/amir/Projects/treejer/contract/contracts/tree/Fund.sol",
  "compiler": {
    "name": "solc",
    "version": "0.6.2+commit.bacdbe57.Emscripten.clang"
  },
  "schemaVersion": "3.0.22",
  "updatedAt": "2020-07-25T14:05:17.921Z",
  "networkType": "ethereum",
  "devdoc": {
    "methods": {}
  },
  "userdoc": {
    "methods": {}
  }
}