{
  "contractName": "Fund",
  "abi": [
    {
      "inputs": [
        {
          "internalType": "contract TreeFactory",
          "name": "_treeFactoryAddress",
          "type": "address"
        },
        {
          "internalType": "contract TreeSale",
          "name": "_treeSaleAddress",
          "type": "address"
        }
      ],
      "stateMutability": "nonpayable",
      "type": "constructor"
    },
    {
      "anonymous": false,
      "inputs": [
        {
          "indexed": false,
          "internalType": "uint256",
          "name": "saleId",
          "type": "uint256"
        },
        {
          "indexed": false,
          "internalType": "uint256",
          "name": "treeId",
          "type": "uint256"
        },
        {
          "indexed": false,
          "internalType": "uint256",
          "name": "price",
          "type": "uint256"
        },
        {
          "indexed": false,
          "internalType": "address",
          "name": "newOwner",
          "type": "address"
        }
      ],
      "name": "TreeBought",
      "type": "event"
    },
    {
      "anonymous": false,
      "inputs": [
        {
          "indexed": false,
          "internalType": "uint256",
          "name": "treeId",
          "type": "uint256"
        },
        {
          "indexed": false,
          "internalType": "uint256",
          "name": "balance",
          "type": "uint256"
        }
      ],
      "name": "TreeFunded",
      "type": "event"
    },
    {
      "inputs": [],
      "name": "lastFundedTreeIndex",
      "outputs": [
        {
          "internalType": "uint256",
          "name": "",
          "type": "uint256"
        }
      ],
      "stateMutability": "view",
      "type": "function",
      "constant": true
    },
    {
      "inputs": [],
      "name": "treeFactory",
      "outputs": [
        {
          "internalType": "contract TreeFactory",
          "name": "",
          "type": "address"
        }
      ],
      "stateMutability": "view",
      "type": "function",
      "constant": true
    },
    {
      "inputs": [],
      "name": "treeSale",
      "outputs": [
        {
          "internalType": "contract TreeSale",
          "name": "",
          "type": "address"
        }
      ],
      "stateMutability": "view",
      "type": "function",
      "constant": true
    },
    {
      "inputs": [
        {
          "internalType": "uint256",
          "name": "_count",
          "type": "uint256"
        }
      ],
      "name": "fund",
      "outputs": [],
      "stateMutability": "payable",
      "type": "function",
      "payable": true
    }
  ],
  "bytecode": "0x608060405234801561001057600080fd5b5060405161096f38038061096f833981810160405261003291908101906100e5565b81600160006101000a81548173ffffffffffffffffffffffffffffffffffffffff021916908373ffffffffffffffffffffffffffffffffffffffff16021790555080600260006101000a81548173ffffffffffffffffffffffffffffffffffffffff021916908373ffffffffffffffffffffffffffffffffffffffff16021790555050506101a5565b6000815190506100ca81610177565b92915050565b6000815190506100df8161018e565b92915050565b600080604083850312156100f857600080fd5b6000610106858286016100bb565b9250506020610117858286016100d0565b9150509250929050565b600061012c82610157565b9050919050565b600061013e82610121565b9050919050565b600061015082610121565b9050919050565b600073ffffffffffffffffffffffffffffffffffffffff82169050919050565b61018081610133565b811461018b57600080fd5b50565b61019781610145565b81146101a257600080fd5b50565b6107bb806101b46000396000f3fe60806040526004361061003f5760003560e01c8063421ef6d41461004457806374f975a81461006f578063c263d9961461009a578063ca1d209d146100c5575b600080fd5b34801561005057600080fd5b506100596100e1565b60405161006691906105f8565b60405180910390f35b34801561007b57600080fd5b50610084610107565b604051610091919061064e565b60405180910390f35b3480156100a657600080fd5b506100af61010d565b6040516100bc9190610613565b60405180910390f35b6100df60048036036100da9190810190610501565b610133565b005b600160009054906101000a900473ffffffffffffffffffffffffffffffffffffffff1681565b60005481565b600260009054906101000a900473ffffffffffffffffffffffffffffffffffffffff1681565b600081348161013e57fe5b049050600160009054906101000a900473ffffffffffffffffffffffffffffffffffffffff1673ffffffffffffffffffffffffffffffffffffffff166398d5fdca6040518163ffffffff1660e01b815260040160206040518083038186803b1580156101a957600080fd5b505afa1580156101bd573d6000803e3d6000fd5b505050506040513d601f19601f820116820180604052506101e1919081019061052a565b811015610223576040517f08c379a000000000000000000000000000000000000000000000000000000000815260040161021a9061062e565b60405180910390fd5b60008090505b828160ff16101561049457600080905060011515600160009054906101000a900473ffffffffffffffffffffffffffffffffffffffff1673ffffffffffffffffffffffffffffffffffffffff1663f99a5d116040518163ffffffff1660e01b815260040160206040518083038186803b1580156102a557600080fd5b505afa1580156102b9573d6000803e3d6000fd5b505050506040513d601f19601f820116820180604052506102dd91908101906104d8565b1515141561039b57600160009054906101000a900473ffffffffffffffffffffffffffffffffffffffff1673ffffffffffffffffffffffffffffffffffffffff16639df2e5f733856040518363ffffffff1660e01b81526004016103429291906105cf565b602060405180830381600087803b15801561035c57600080fd5b505af1158015610370573d6000803e3d6000fd5b505050506040513d601f19601f82011682018060405250610394919081019061052a565b905061044d565b600160009054906101000a900473ffffffffffffffffffffffffffffffffffffffff1673ffffffffffffffffffffffffffffffffffffffff1663b856eee633856040518363ffffffff1660e01b81526004016103f89291906105cf565b602060405180830381600087803b15801561041257600080fd5b505af1158015610426573d6000803e3d6000fd5b505050506040513d601f19601f8201168201806040525061044a919081019061052a565b90505b7fea44b2e9be950a515189e5814841f40bb80148eb23b90af5d0036d336571129a818460405161047e929190610669565b60405180910390a1508080600101915050610229565b505050565b6000815190506104a881610757565b92915050565b6000813590506104bd8161076e565b92915050565b6000815190506104d28161076e565b92915050565b6000602082840312156104ea57600080fd5b60006104f884828501610499565b91505092915050565b60006020828403121561051357600080fd5b6000610521848285016104ae565b91505092915050565b60006020828403121561053c57600080fd5b600061054a848285016104c3565b91505092915050565b61055c816106d9565b82525050565b61056b816106eb565b82525050565b61057a8161070f565b82525050565b600061058d601983610692565b91507f42616c616e6365206973206e6f742073756666696369656e74000000000000006000830152602082019050919050565b6105c9816106cf565b82525050565b60006040820190506105e46000830185610553565b6105f160208301846105c0565b9392505050565b600060208201905061060d6000830184610562565b92915050565b60006020820190506106286000830184610571565b92915050565b6000602082019050818103600083015261064781610580565b9050919050565b600060208201905061066360008301846105c0565b92915050565b600060408201905061067e60008301856105c0565b61068b60208301846105c0565b9392505050565b600082825260208201905092915050565b60008115159050919050565b600073ffffffffffffffffffffffffffffffffffffffff82169050919050565b6000819050919050565b60006106e482610733565b9050919050565b60006106f6826106fd565b9050919050565b6000610708826106af565b9050919050565b600061071a82610721565b9050919050565b600061072c826106af565b9050919050565b600061073e82610745565b9050919050565b6000610750826106af565b9050919050565b610760816106a3565b811461076b57600080fd5b50565b610777816106cf565b811461078257600080fd5b5056fea26469706673582212205a4324c766d824035d0e237eeffe4b5d7deaba5f067ddebc22ec9c3b6b7ea2ae64736f6c63430006020033",
  "source": "// SPDX-License-Identifier: GPL-3.0\n\npragma solidity >=0.4.21 <0.7.0;\npragma experimental ABIEncoderV2;\n\nimport \"./TreeSale.sol\";\nimport \"./TreeFactory.sol\";\n\ncontract Fund {\n    event TreeBought(\n        uint256 saleId,\n        uint256 treeId,\n        uint256 price,\n        address newOwner\n    );\n\n\n    event TreeFunded(\n        uint256 treeId,\n        uint256 balance\n    );\n\n    uint public lastFundedTreeIndex;\n\n    TreeFactory public treeFactory;\n    TreeSale public treeSale;\n\n\n    constructor(TreeFactory _treeFactoryAddress, TreeSale _treeSaleAddress) public {\n        treeFactory = _treeFactoryAddress;\n        treeSale = _treeSaleAddress;\n    }\n\n\n    function fund(uint _count) external payable {\n\n        uint balance = msg.value / _count;\n\n        //@todo check for treePrice\n        require(balance >= treeFactory.getPrice(), \"Balance is not sufficient\");\n\n        \n        for (uint8 i = 0; i < _count; i++) {\n            \n            uint256 id = 0;\n\n            if(treeFactory.notFundedTreesExists() == true) {\n                id = treeFactory.fundPlantedTress(msg.sender, balance);\n            } else {\n                id = treeFactory.simpleFund(msg.sender, balance);\n            }\n            \n            emit TreeFunded(id, balance);\n        }\n        \n        //distribute fund\n        // (bool sent, bytes memory data) = _to.call.value(msg.value)(\"\");\n        // require(sent, \"Failed to send Ether\");\n    } \n\n}\n",
  "sourcePath": "/home/amir/Projects/treejer/contract/contracts/tree/Fund.sol",
  "compiler": {
    "name": "solc",
    "version": "0.6.2+commit.bacdbe57.Emscripten.clang"
  },
  "schemaVersion": "3.0.22",
  "updatedAt": "2020-07-29T06:29:27.835Z",
  "networkType": "ethereum",
  "devdoc": {
    "methods": {}
  },
  "userdoc": {
    "methods": {}
  }
}