{
  "contractName": "GBFactory",
  "abi": [
    {
      "anonymous": false,
      "inputs": [
        {
          "indexed": false,
          "internalType": "uint256",
          "name": "id",
          "type": "uint256"
        },
        {
          "indexed": false,
          "internalType": "string",
          "name": "title",
          "type": "string"
        }
      ],
      "name": "NewGBAdded",
      "type": "event"
    },
    {
      "anonymous": false,
      "inputs": [
        {
          "indexed": false,
          "internalType": "address",
          "name": "account",
          "type": "address"
        }
      ],
      "name": "Paused",
      "type": "event"
    },
    {
      "anonymous": false,
      "inputs": [
        {
          "indexed": true,
          "internalType": "bytes32",
          "name": "role",
          "type": "bytes32"
        },
        {
          "indexed": true,
          "internalType": "bytes32",
          "name": "previousAdminRole",
          "type": "bytes32"
        },
        {
          "indexed": true,
          "internalType": "bytes32",
          "name": "newAdminRole",
          "type": "bytes32"
        }
      ],
      "name": "RoleAdminChanged",
      "type": "event"
    },
    {
      "anonymous": false,
      "inputs": [
        {
          "indexed": true,
          "internalType": "bytes32",
          "name": "role",
          "type": "bytes32"
        },
        {
          "indexed": true,
          "internalType": "address",
          "name": "account",
          "type": "address"
        },
        {
          "indexed": true,
          "internalType": "address",
          "name": "sender",
          "type": "address"
        }
      ],
      "name": "RoleGranted",
      "type": "event"
    },
    {
      "anonymous": false,
      "inputs": [
        {
          "indexed": true,
          "internalType": "bytes32",
          "name": "role",
          "type": "bytes32"
        },
        {
          "indexed": true,
          "internalType": "address",
          "name": "account",
          "type": "address"
        },
        {
          "indexed": true,
          "internalType": "address",
          "name": "sender",
          "type": "address"
        }
      ],
      "name": "RoleRevoked",
      "type": "event"
    },
    {
      "anonymous": false,
      "inputs": [
        {
          "indexed": false,
          "internalType": "address",
          "name": "account",
          "type": "address"
        }
      ],
      "name": "Unpaused",
      "type": "event"
    },
    {
      "inputs": [],
      "name": "AMBASSADOR_ROLE",
      "outputs": [
        {
          "internalType": "bytes32",
          "name": "",
          "type": "bytes32"
        }
      ],
      "stateMutability": "view",
      "type": "function",
      "constant": true
    },
    {
      "inputs": [],
      "name": "DEFAULT_ADMIN_ROLE",
      "outputs": [
        {
          "internalType": "bytes32",
          "name": "",
          "type": "bytes32"
        }
      ],
      "stateMutability": "view",
      "type": "function",
      "constant": true
    },
    {
      "inputs": [],
      "name": "PLANTER_ROLE",
      "outputs": [
        {
          "internalType": "bytes32",
          "name": "",
          "type": "bytes32"
        }
      ],
      "stateMutability": "view",
      "type": "function",
      "constant": true
    },
    {
      "inputs": [
        {
          "internalType": "uint256",
          "name": "",
          "type": "uint256"
        }
      ],
      "name": "gbToAmbassador",
      "outputs": [
        {
          "internalType": "address",
          "name": "",
          "type": "address"
        }
      ],
      "stateMutability": "view",
      "type": "function",
      "constant": true
    },
    {
      "inputs": [
        {
          "internalType": "uint256",
          "name": "",
          "type": "uint256"
        },
        {
          "internalType": "uint256",
          "name": "",
          "type": "uint256"
        }
      ],
      "name": "gbToPlanters",
      "outputs": [
        {
          "internalType": "address",
          "name": "",
          "type": "address"
        }
      ],
      "stateMutability": "view",
      "type": "function",
      "constant": true
    },
    {
      "inputs": [
        {
          "internalType": "uint256",
          "name": "",
          "type": "uint256"
        },
        {
          "internalType": "uint256",
          "name": "",
          "type": "uint256"
        }
      ],
      "name": "gbToVerifiers",
      "outputs": [
        {
          "internalType": "address",
          "name": "",
          "type": "address"
        }
      ],
      "stateMutability": "view",
      "type": "function",
      "constant": true
    },
    {
      "inputs": [
        {
          "internalType": "bytes32",
          "name": "role",
          "type": "bytes32"
        }
      ],
      "name": "getRoleAdmin",
      "outputs": [
        {
          "internalType": "bytes32",
          "name": "",
          "type": "bytes32"
        }
      ],
      "stateMutability": "view",
      "type": "function",
      "constant": true
    },
    {
      "inputs": [
        {
          "internalType": "bytes32",
          "name": "role",
          "type": "bytes32"
        },
        {
          "internalType": "uint256",
          "name": "index",
          "type": "uint256"
        }
      ],
      "name": "getRoleMember",
      "outputs": [
        {
          "internalType": "address",
          "name": "",
          "type": "address"
        }
      ],
      "stateMutability": "view",
      "type": "function",
      "constant": true
    },
    {
      "inputs": [
        {
          "internalType": "bytes32",
          "name": "role",
          "type": "bytes32"
        }
      ],
      "name": "getRoleMemberCount",
      "outputs": [
        {
          "internalType": "uint256",
          "name": "",
          "type": "uint256"
        }
      ],
      "stateMutability": "view",
      "type": "function",
      "constant": true
    },
    {
      "inputs": [
        {
          "internalType": "bytes32",
          "name": "role",
          "type": "bytes32"
        },
        {
          "internalType": "address",
          "name": "account",
          "type": "address"
        }
      ],
      "name": "grantRole",
      "outputs": [],
      "stateMutability": "nonpayable",
      "type": "function"
    },
    {
      "inputs": [
        {
          "internalType": "uint256",
          "name": "",
          "type": "uint256"
        }
      ],
      "name": "greenBlocks",
      "outputs": [
        {
          "internalType": "string",
          "name": "title",
          "type": "string"
        },
        {
          "internalType": "string",
          "name": "coordinates",
          "type": "string"
        },
        {
          "internalType": "uint256",
          "name": "status",
          "type": "uint256"
        }
      ],
      "stateMutability": "view",
      "type": "function",
      "constant": true
    },
    {
      "inputs": [
        {
          "internalType": "bytes32",
          "name": "role",
          "type": "bytes32"
        },
        {
          "internalType": "address",
          "name": "account",
          "type": "address"
        }
      ],
      "name": "hasRole",
      "outputs": [
        {
          "internalType": "bool",
          "name": "",
          "type": "bool"
        }
      ],
      "stateMutability": "view",
      "type": "function",
      "constant": true
    },
    {
      "inputs": [],
      "name": "owner",
      "outputs": [
        {
          "internalType": "address",
          "name": "",
          "type": "address"
        }
      ],
      "stateMutability": "view",
      "type": "function",
      "constant": true
    },
    {
      "inputs": [],
      "name": "pause",
      "outputs": [],
      "stateMutability": "nonpayable",
      "type": "function"
    },
    {
      "inputs": [],
      "name": "paused",
      "outputs": [
        {
          "internalType": "bool",
          "name": "",
          "type": "bool"
        }
      ],
      "stateMutability": "view",
      "type": "function",
      "constant": true
    },
    {
      "inputs": [
        {
          "internalType": "bytes32",
          "name": "role",
          "type": "bytes32"
        },
        {
          "internalType": "address",
          "name": "account",
          "type": "address"
        }
      ],
      "name": "renounceRole",
      "outputs": [],
      "stateMutability": "nonpayable",
      "type": "function"
    },
    {
      "inputs": [
        {
          "internalType": "bytes32",
          "name": "role",
          "type": "bytes32"
        },
        {
          "internalType": "address",
          "name": "account",
          "type": "address"
        }
      ],
      "name": "revokeRole",
      "outputs": [],
      "stateMutability": "nonpayable",
      "type": "function"
    },
    {
      "inputs": [],
      "name": "unpause",
      "outputs": [],
      "stateMutability": "nonpayable",
      "type": "function"
    },
    {
      "inputs": [
        {
          "internalType": "string",
          "name": "_title",
          "type": "string"
        },
        {
          "internalType": "string",
          "name": "_coordinates",
          "type": "string"
        },
        {
          "internalType": "address",
          "name": "_ambassador",
          "type": "address"
        },
        {
          "internalType": "address[]",
          "name": "_planters",
          "type": "address[]"
        }
      ],
      "name": "add",
      "outputs": [],
      "stateMutability": "nonpayable",
      "type": "function"
    },
    {
      "inputs": [],
      "name": "getAmbassadorGBCount",
      "outputs": [
        {
          "internalType": "uint256",
          "name": "",
          "type": "uint256"
        }
      ],
      "stateMutability": "view",
      "type": "function",
      "constant": true
    },
    {
      "inputs": [
        {
          "internalType": "uint256",
          "name": "_gbId",
          "type": "uint256"
        }
      ],
      "name": "getGBAmbassador",
      "outputs": [
        {
          "internalType": "address",
          "name": "",
          "type": "address"
        }
      ],
      "stateMutability": "view",
      "type": "function",
      "constant": true
    },
    {
      "inputs": [
        {
          "internalType": "uint256",
          "name": "_gbId",
          "type": "uint256"
        }
      ],
      "name": "getGB",
      "outputs": [
        {
          "internalType": "string",
          "name": "",
          "type": "string"
        },
        {
          "internalType": "string",
          "name": "",
          "type": "string"
        },
        {
          "internalType": "uint256",
          "name": "",
          "type": "uint256"
        }
      ],
      "stateMutability": "view",
      "type": "function",
      "constant": true
    }
  ],
  "bytecode": "0x6080604052336001806101000a81548173ffffffffffffffffffffffffffffffffffffffff021916908373ffffffffffffffffffffffffffffffffffffffff1602179055506000600160006101000a81548160ff021916908315150217905550620000746000801b33620000c860201b60201c565b6200009b6040516200008690620002f9565b604051809103902033620000c860201b60201c565b620000c2604051620000ad90620002e2565b604051809103902033620000c860201b60201c565b6200031b565b620000da8282620000de60201b60201c565b5050565b6200010c816000808581526020019081526020016000206000016200018160201b6200125b1790919060201c565b156200017d5762000122620001b960201b60201c565b73ffffffffffffffffffffffffffffffffffffffff168173ffffffffffffffffffffffffffffffffffffffff16837f2f8788117e7eff1d82e926ec794901d17c78024a50270940304540a733656f0d60405160405180910390a45b5050565b6000620001b1836000018373ffffffffffffffffffffffffffffffffffffffff1660001b620001c160201b60201c565b905092915050565b600033905090565b6000620001d583836200023b60201b60201c565b6200023057826000018290806001815401808255809150506001900390600052602060002001600090919091909150558260000180549050836001016000848152602001908152602001600020819055506001905062000235565b600090505b92915050565b600080836001016000848152602001908152602001600020541415905092915050565b60006200026d600f8362000310565b91507f414d4241535341444f525f524f4c4500000000000000000000000000000000006000830152600f82019050919050565b6000620002af600c8362000310565b91507f504c414e5445525f524f4c4500000000000000000000000000000000000000006000830152600c82019050919050565b6000620002ef826200025e565b9150819050919050565b60006200030682620002a0565b9150819050919050565b600081905092915050565b612031806200032b6000396000f3fe608060405234801561001057600080fd5b50600436106101425760003560e01c80639010d07c116100b8578063c76611fe1161007c578063c76611fe14610367578063ca15c87314610397578063d547741f146103c7578063d6f1f96a146103e3578063dfe065bc14610413578063f29bbde81461044557610142565b80639010d07c1461029d57806391d14854146102cd5780639ba2b511146102fd578063a217fddf14610319578063aa515a711461033757610142565b806342946a261161010a57806342946a26146101d75780634674886b146101f55780635c975abb146102275780637ca1d2f6146102455780638456cb59146102755780638da5cb5b1461027f57610142565b80630daa2e6614610147578063248a9ca3146101655780632f2ff15d1461019557806336568abe146101b15780633f4ba83a146101cd575b600080fd5b61014f610463565b60405161015c9190611cb7565b60405180910390f35b61017f600480360361017a9190810190611655565b61047a565b60405161018c9190611cb7565b60405180910390f35b6101af60048036036101aa919081019061167e565b610499565b005b6101cb60048036036101c6919081019061167e565b61050c565b005b6101d561058f565b005b6101df6105e5565b6040516101ec9190611e5c565b60405180910390f35b61020f600480360361020a91908101906117af565b61062c565b60405161021e93929190611cd2565b60405180910390f35b61022f6107d1565b60405161023c9190611c9c565b60405180910390f35b61025f600480360361025a91908101906117d8565b6107e8565b60405161026c9190611c66565b60405180910390f35b61027d610833565b005b610287610889565b6040516102949190611c66565b60405180910390f35b6102b760048036036102b291908101906116ba565b6108ae565b6040516102c49190611c66565b60405180910390f35b6102e760048036036102e2919081019061167e565b6108df565b6040516102f49190611c9c565b60405180910390f35b610317600480360361031291908101906116f6565b610910565b005b610321610ca1565b60405161032e9190611cb7565b60405180910390f35b610351600480360361034c91908101906117d8565b610ca8565b60405161035e9190611c66565b60405180910390f35b610381600480360361037c91908101906117af565b610cf3565b60405161038e9190611c66565b60405180910390f35b6103b160048036036103ac9190810190611655565b610d30565b6040516103be9190611e5c565b60405180910390f35b6103e160048036036103dc919081019061167e565b610d56565b005b6103fd60048036036103f891908101906117af565b610dc9565b60405161040a9190611c66565b60405180910390f35b61042d600480360361042891908101906117af565b610dfc565b60405161043c93929190611d17565b60405180910390f35b61044d610f63565b60405161045a9190611cb7565b60405180910390f35b60405161046f90611c3c565b604051809103902081565b6000806000838152602001908152602001600020600201549050919050565b6104bf600080848152602001908152602001600020600201546104ba610f7a565b6108df565b6104fe576040517f08c379a00000000000000000000000000000000000000000000000000000000081526004016104f590611d7c565b60405180910390fd5b6105088282610f82565b5050565b610514610f7a565b73ffffffffffffffffffffffffffffffffffffffff168173ffffffffffffffffffffffffffffffffffffffff1614610581576040517f08c379a000000000000000000000000000000000000000000000000000000000815260040161057890611e3c565b60405180910390fd5b61058b8282611015565b5050565b61059c6000801b336108df565b6105db576040517f08c379a00000000000000000000000000000000000000000000000000000000081526004016105d290611e1c565b60405180910390fd5b6105e36110a8565b565b6000600660003373ffffffffffffffffffffffffffffffffffffffff1673ffffffffffffffffffffffffffffffffffffffff16815260200190815260200160002054905090565b60608060006002848154811061063e57fe5b90600052602060002090600302016000016002858154811061065c57fe5b90600052602060002090600302016001016002868154811061067a57fe5b906000526020600020906003020160020154828054600181600116156101000203166002900480601f0160208091040260200160405190810160405280929190818152602001828054600181600116156101000203166002900480156107215780601f106106f657610100808354040283529160200191610721565b820191906000526020600020905b81548152906001019060200180831161070457829003601f168201915b50505050509250818054600181600116156101000203166002900480601f0160208091040260200160405190810160405280929190818152602001828054600181600116156101000203166002900480156107bd5780601f10610792576101008083540402835291602001916107bd565b820191906000526020600020905b8154815290600101906020018083116107a057829003601f168201915b505050505091509250925092509193909250565b6000600160009054906101000a900460ff16905090565b6004602052816000526040600020818154811061080157fe5b906000526020600020016000915091509054906101000a900473ffffffffffffffffffffffffffffffffffffffff1681565b6108406000801b336108df565b61087f576040517f08c379a000000000000000000000000000000000000000000000000000000000815260040161087690611e1c565b60405180910390fd5b610887611152565b565b6001809054906101000a900473ffffffffffffffffffffffffffffffffffffffff1681565b60006108d7826000808681526020019081526020016000206000016111fc90919063ffffffff16565b905092915050565b60006109088260008086815260200190815260200160002060000161121690919063ffffffff16565b905092915050565b61092d60405161091f90611c51565b6040518091039020336108df565b80610951575061095060405161094290611c3c565b6040518091039020336108df565b5b610990576040517f08c379a000000000000000000000000000000000000000000000000000000000815260040161098790611dfc565b60405180910390fd5b600160009054906101000a900460ff16156109e0576040517f08c379a00000000000000000000000000000000000000000000000000000000081526004016109d790611ddc565b60405180910390fd5b6002604051806060016040528089898080601f016020809104026020016040519081016040528093929190818152602001838380828437600081840152601f19601f82011690508083019250505050505050815260200187878080601f016020809104026020016040519081016040528093929190818152602001838380828437600081840152601f19601f820116905080830192505050505050508152602001600081525090806001815401808255809150506001900390600052602060002090600302016000909190919091506000820151816000019080519060200190610acb9291906114b4565b506020820151816001019080519060200190610ae89291906114b4565b506040820151816002015550506000600160028054905003905060008090505b838390508160ff161015610bba576004600083815260200190815260200160002084848360ff16818110610b3857fe5b9050602002016020610b4d919081019061162c565b9080600181540180825580915050600190039060005260206000200160009091909190916101000a81548173ffffffffffffffffffffffffffffffffffffffff021916908373ffffffffffffffffffffffffffffffffffffffff1602179055508080600101915050610b08565b50836005600083815260200190815260200160002060006101000a81548173ffffffffffffffffffffffffffffffffffffffff021916908373ffffffffffffffffffffffffffffffffffffffff160217905550600660008573ffffffffffffffffffffffffffffffffffffffff1673ffffffffffffffffffffffffffffffffffffffff168152602001908152602001600020600081548092919060010191905055507f69edcd8f027d69da8f4d4c342db4c2b8ed9f3662514b8e5d90ea159df55aefed818989604051610c8f93929190611e77565b60405180910390a15050505050505050565b6000801b81565b60036020528160005260406000208181548110610cc157fe5b906000526020600020016000915091509054906101000a900473ffffffffffffffffffffffffffffffffffffffff1681565b60006005600083815260200190815260200160002060009054906101000a900473ffffffffffffffffffffffffffffffffffffffff169050919050565b6000610d4f600080848152602001908152602001600020600001611246565b9050919050565b610d7c60008084815260200190815260200160002060020154610d77610f7a565b6108df565b610dbb576040517f08c379a0000000000000000000000000000000000000000000000000000000008152600401610db290611dbc565b60405180910390fd5b610dc58282611015565b5050565b60056020528060005260406000206000915054906101000a900473ffffffffffffffffffffffffffffffffffffffff1681565b60028181548110610e0957fe5b9060005260206000209060030201600091509050806000018054600181600116156101000203166002900480601f016020809104026020016040519081016040528092919081815260200182805460018160011615610100020316600290048015610eb55780601f10610e8a57610100808354040283529160200191610eb5565b820191906000526020600020905b815481529060010190602001808311610e9857829003601f168201915b505050505090806001018054600181600116156101000203166002900480601f016020809104026020016040519081016040528092919081815260200182805460018160011615610100020316600290048015610f535780601f10610f2857610100808354040283529160200191610f53565b820191906000526020600020905b815481529060010190602001808311610f3657829003601f168201915b5050505050908060020154905083565b604051610f6f90611c51565b604051809103902081565b600033905090565b610fa98160008085815260200190815260200160002060000161125b90919063ffffffff16565b1561101157610fb6610f7a565b73ffffffffffffffffffffffffffffffffffffffff168173ffffffffffffffffffffffffffffffffffffffff16837f2f8788117e7eff1d82e926ec794901d17c78024a50270940304540a733656f0d60405160405180910390a45b5050565b61103c8160008085815260200190815260200160002060000161128b90919063ffffffff16565b156110a457611049610f7a565b73ffffffffffffffffffffffffffffffffffffffff168173ffffffffffffffffffffffffffffffffffffffff16837ff6391f5c32d9c69d2a47ea670b442974b53935d1edc7fd64eb21e047a839171b60405160405180910390a45b5050565b600160009054906101000a900460ff166110f7576040517f08c379a00000000000000000000000000000000000000000000000000000000081526004016110ee90611d9c565b60405180910390fd5b6000600160006101000a81548160ff0219169083151502179055507f5db9ee0a495bf2e6ff9c91a7834c1ba4fdd244a5e8aa4e537bd38aeae4b073aa61113b610f7a565b6040516111489190611c81565b60405180910390a1565b600160009054906101000a900460ff16156111a2576040517f08c379a000000000000000000000000000000000000000000000000000000000815260040161119990611ddc565b60405180910390fd5b60018060006101000a81548160ff0219169083151502179055507f62e78cea01bee320cd4e420270b5ea74000d11b0c9f74754ebdbfc544b05a2586111e5610f7a565b6040516111f29190611c81565b60405180910390a1565b600061120b83600001836112bb565b60001c905092915050565b600061123e836000018373ffffffffffffffffffffffffffffffffffffffff1660001b611328565b905092915050565b60006112548260000161134b565b9050919050565b6000611283836000018373ffffffffffffffffffffffffffffffffffffffff1660001b61135c565b905092915050565b60006112b3836000018373ffffffffffffffffffffffffffffffffffffffff1660001b6113cc565b905092915050565b600081836000018054905011611306576040517f08c379a00000000000000000000000000000000000000000000000000000000081526004016112fd90611d5c565b60405180910390fd5b82600001828154811061131557fe5b9060005260206000200154905092915050565b600080836001016000848152602001908152602001600020541415905092915050565b600081600001805490509050919050565b60006113688383611328565b6113c15782600001829080600181540180825580915050600190039060005260206000200160009091909190915055826000018054905083600101600084815260200190815260200160002081905550600190506113c6565b600090505b92915050565b600080836001016000848152602001908152602001600020549050600081146114a8576000600182039050600060018660000180549050039050600086600001828154811061141757fe5b906000526020600020015490508087600001848154811061143457fe5b906000526020600020018190555060018301876001016000838152602001908152602001600020819055508660000180548061146c57fe5b600190038181906000526020600020016000905590558660010160008781526020019081526020016000206000905560019450505050506114ae565b60009150505b92915050565b828054600181600116156101000203166002900490600052602060002090601f016020900481019282601f106114f557805160ff1916838001178555611523565b82800160010185558215611523579182015b82811115611522578251825591602001919060010190611507565b5b5090506115309190611534565b5090565b61155691905b8082111561155257600081600090555060010161153a565b5090565b90565b60008135905061156881611fb6565b92915050565b60008083601f84011261158057600080fd5b8235905067ffffffffffffffff81111561159957600080fd5b6020830191508360208202830111156115b157600080fd5b9250929050565b6000813590506115c781611fcd565b92915050565b60008083601f8401126115df57600080fd5b8235905067ffffffffffffffff8111156115f857600080fd5b60208301915083600182028301111561161057600080fd5b9250929050565b60008135905061162681611fe4565b92915050565b60006020828403121561163e57600080fd5b600061164c84828501611559565b91505092915050565b60006020828403121561166757600080fd5b6000611675848285016115b8565b91505092915050565b6000806040838503121561169157600080fd5b600061169f858286016115b8565b92505060206116b085828601611559565b9150509250929050565b600080604083850312156116cd57600080fd5b60006116db858286016115b8565b92505060206116ec85828601611617565b9150509250929050565b60008060008060008060006080888a03121561171157600080fd5b600088013567ffffffffffffffff81111561172b57600080fd5b6117378a828b016115cd565b9750975050602088013567ffffffffffffffff81111561175657600080fd5b6117628a828b016115cd565b955095505060406117758a828b01611559565b935050606088013567ffffffffffffffff81111561179257600080fd5b61179e8a828b0161156e565b925092505092959891949750929550565b6000602082840312156117c157600080fd5b60006117cf84828501611617565b91505092915050565b600080604083850312156117eb57600080fd5b60006117f985828601611617565b925050602061180a85828601611617565b9150509250929050565b61181d81611f2d565b82525050565b61182c81611edb565b82525050565b61183b81611eed565b82525050565b61184a81611ef9565b82525050565b600061185c8385611ebf565b9350611869838584611f63565b61187283611fa5565b840190509392505050565b600061188882611eb4565b6118928185611ebf565b93506118a2818560208601611f72565b6118ab81611fa5565b840191505092915050565b60006118c182611ea9565b6118cb8185611ebf565b93506118db818560208601611f72565b6118e481611fa5565b840191505092915050565b60006118fc602283611ebf565b91507f456e756d657261626c655365743a20696e646578206f7574206f6620626f756e60008301527f64730000000000000000000000000000000000000000000000000000000000006020830152604082019050919050565b6000611962602f83611ebf565b91507f416363657373436f6e74726f6c3a2073656e646572206d75737420626520616e60008301527f2061646d696e20746f206772616e7400000000000000000000000000000000006020830152604082019050919050565b60006119c8601483611ebf565b91507f5061757361626c653a206e6f74207061757365640000000000000000000000006000830152602082019050919050565b6000611a08600f83611ed0565b91507f414d4241535341444f525f524f4c4500000000000000000000000000000000006000830152600f82019050919050565b6000611a48600c83611ed0565b91507f504c414e5445525f524f4c4500000000000000000000000000000000000000006000830152600c82019050919050565b6000611a88603083611ebf565b91507f416363657373436f6e74726f6c3a2073656e646572206d75737420626520616e60008301527f2061646d696e20746f207265766f6b65000000000000000000000000000000006020830152604082019050919050565b6000611aee601083611ebf565b91507f5061757361626c653a20706175736564000000000000000000000000000000006000830152602082019050919050565b6000611b2e602583611ebf565b91507f43616c6c6572206973206e6f74206120706c616e746572206f7220616d62617360008301527f7361646f720000000000000000000000000000000000000000000000000000006020830152604082019050919050565b6000611b94601383611ebf565b91507f43616c6c6572206973206e6f742061646d696e000000000000000000000000006000830152602082019050919050565b6000611bd4602f83611ebf565b91507f416363657373436f6e74726f6c3a2063616e206f6e6c792072656e6f756e636560008301527f20726f6c657320666f722073656c6600000000000000000000000000000000006020830152604082019050919050565b611c3681611f23565b82525050565b6000611c47826119fb565b9150819050919050565b6000611c5c82611a3b565b9150819050919050565b6000602082019050611c7b6000830184611823565b92915050565b6000602082019050611c966000830184611814565b92915050565b6000602082019050611cb16000830184611832565b92915050565b6000602082019050611ccc6000830184611841565b92915050565b60006060820190508181036000830152611cec818661187d565b90508181036020830152611d00818561187d565b9050611d0f6040830184611c2d565b949350505050565b60006060820190508181036000830152611d3181866118b6565b90508181036020830152611d4581856118b6565b9050611d546040830184611c2d565b949350505050565b60006020820190508181036000830152611d75816118ef565b9050919050565b60006020820190508181036000830152611d9581611955565b9050919050565b60006020820190508181036000830152611db5816119bb565b9050919050565b60006020820190508181036000830152611dd581611a7b565b9050919050565b60006020820190508181036000830152611df581611ae1565b9050919050565b60006020820190508181036000830152611e1581611b21565b9050919050565b60006020820190508181036000830152611e3581611b87565b9050919050565b60006020820190508181036000830152611e5581611bc7565b9050919050565b6000602082019050611e716000830184611c2d565b92915050565b6000604082019050611e8c6000830186611c2d565b8181036020830152611e9f818486611850565b9050949350505050565b600081519050919050565b600081519050919050565b600082825260208201905092915050565b600081905092915050565b6000611ee682611f03565b9050919050565b60008115159050919050565b6000819050919050565b600073ffffffffffffffffffffffffffffffffffffffff82169050919050565b6000819050919050565b6000611f3882611f3f565b9050919050565b6000611f4a82611f51565b9050919050565b6000611f5c82611f03565b9050919050565b82818337600083830152505050565b60005b83811015611f90578082015181840152602081019050611f75565b83811115611f9f576000848401525b50505050565b6000601f19601f8301169050919050565b611fbf81611edb565b8114611fca57600080fd5b50565b611fd681611ef9565b8114611fe157600080fd5b50565b611fed81611f23565b8114611ff857600080fd5b5056fea264697066735822122025f3398875cc2940969c2192918ced1a70c3bd3278fd91cbfed9a4fcfcb5eb3964736f6c63430006020033",
  "source": "// SPDX-License-Identifier: GPL-3.0\n\npragma solidity >=0.4.21 <0.7.0;\npragma experimental ABIEncoderV2;\n\nimport \"../access/AccessRestriction.sol\";\n\n\ncontract GBFactory is AccessRestriction {\n    event NewGBAdded(uint256 id, string title);\n\n    //@todo must change coordinates\n    struct GB {\n        string title;\n        string coordinates;\n        uint256 status;\n    }\n\n    GB[] public greenBlocks;\n\n    mapping(uint256 => address[]) public gbToVerifiers;\n    mapping(uint256 => address[]) public gbToPlanters;\n    mapping(uint256 => address) public gbToAmbassador;\n    mapping(address => uint256) ambassadorGBCount;\n    mapping(address => uint256) verifiersGBCount;\n\n    //@todo permission must check\n    function add(\n        string calldata _title,\n        string calldata _coordinates,\n        address _ambassador,\n        address[] calldata _planters\n    ) external planterOrAmbassador whenNotPaused {\n        greenBlocks.push(GB(_title, _coordinates, 0));\n        uint256 id = greenBlocks.length - 1;\n\n        // require(id == uint256(uint256(id)));\n\n        for (uint8 i = 0; i < _planters.length; i++) {\n            gbToPlanters[id].push(_planters[i]);\n        }\n\n        gbToAmbassador[id] = _ambassador;\n        ambassadorGBCount[_ambassador]++;\n\n        //_transfer();\n\n        emit NewGBAdded(id, _title);\n    }\n\n    function getAmbassadorGBCount() public view returns (uint256) {\n        return ambassadorGBCount[msg.sender];\n    }\n\n    function getGBAmbassador(uint256 _gbId) public view returns (address) {\n        return gbToAmbassador[_gbId];\n    }\n\n    function getGB(uint256 _gbId)\n        public\n        view\n        returns (\n            string memory,\n            string memory,\n            uint256\n        )\n    {\n        return (\n            greenBlocks[_gbId].title,\n            greenBlocks[_gbId].coordinates,\n            greenBlocks[_gbId].status\n        );\n    }\n\n    //@todo premission must check only ambassedor or planters or admin\n    // function updateGB(uint256 _gbId) public external {\n\n    // }\n}\n",
  "sourcePath": "/home/amir/Projects/treejer/contract/contracts/greenblock/GBFactory.sol",
  "compiler": {
    "name": "solc",
    "version": "0.6.2+commit.bacdbe57.Emscripten.clang"
  },
  "schemaVersion": "3.0.22",
  "updatedAt": "2020-07-25T14:05:17.896Z",
  "networkType": "ethereum",
  "devdoc": {
    "methods": {
      "getRoleAdmin(bytes32)": {
        "details": "Returns the admin role that controls `role`. See {grantRole} and {revokeRole}.     * To change a role's admin, use {_setRoleAdmin}."
      },
      "getRoleMember(bytes32,uint256)": {
        "details": "Returns one of the accounts that have `role`. `index` must be a value between 0 and {getRoleMemberCount}, non-inclusive.     * Role bearers are not sorted in any particular way, and their ordering may change at any point.     * WARNING: When using {getRoleMember} and {getRoleMemberCount}, make sure you perform all queries on the same block. See the following https://forum.openzeppelin.com/t/iterating-over-elements-on-enumerableset-in-openzeppelin-contracts/2296[forum post] for more information."
      },
      "getRoleMemberCount(bytes32)": {
        "details": "Returns the number of accounts that have `role`. Can be used together with {getRoleMember} to enumerate all bearers of a role."
      },
      "grantRole(bytes32,address)": {
        "details": "Grants `role` to `account`.     * If `account` had not been already granted `role`, emits a {RoleGranted} event.     * Requirements:     * - the caller must have ``role``'s admin role."
      },
      "hasRole(bytes32,address)": {
        "details": "Returns `true` if `account` has been granted `role`."
      },
      "paused()": {
        "details": "Returns true if the contract is paused, and false otherwise."
      },
      "renounceRole(bytes32,address)": {
        "details": "Revokes `role` from the calling account.     * Roles are often managed via {grantRole} and {revokeRole}: this function's purpose is to provide a mechanism for accounts to lose their privileges if they are compromised (such as when a trusted device is misplaced).     * If the calling account had been granted `role`, emits a {RoleRevoked} event.     * Requirements:     * - the caller must be `account`."
      },
      "revokeRole(bytes32,address)": {
        "details": "Revokes `role` from `account`.     * If `account` had been granted `role`, emits a {RoleRevoked} event.     * Requirements:     * - the caller must have ``role``'s admin role."
      }
    }
  },
  "userdoc": {
    "methods": {}
  }
}