{
  "contractName": "GBFactory",
  "abi": [
    {
      "anonymous": false,
      "inputs": [
        {
          "indexed": false,
          "internalType": "uint256",
          "name": "id",
          "type": "uint256"
        }
      ],
      "name": "GBActivated",
      "type": "event"
    },
    {
      "anonymous": false,
      "inputs": [
        {
          "indexed": false,
          "internalType": "uint256",
          "name": "id",
          "type": "uint256"
        },
        {
          "indexed": false,
          "internalType": "string",
          "name": "title",
          "type": "string"
        }
      ],
      "name": "NewGBAdded",
      "type": "event"
    },
    {
      "anonymous": false,
      "inputs": [
        {
          "indexed": false,
          "internalType": "address",
          "name": "account",
          "type": "address"
        }
      ],
      "name": "Paused",
      "type": "event"
    },
    {
      "anonymous": false,
      "inputs": [
        {
          "indexed": false,
          "internalType": "uint256",
          "name": "id",
          "type": "uint256"
        },
        {
          "indexed": false,
          "internalType": "address",
          "name": "planter",
          "type": "address"
        }
      ],
      "name": "PlanterJoinedGB",
      "type": "event"
    },
    {
      "anonymous": false,
      "inputs": [
        {
          "indexed": true,
          "internalType": "bytes32",
          "name": "role",
          "type": "bytes32"
        },
        {
          "indexed": true,
          "internalType": "bytes32",
          "name": "previousAdminRole",
          "type": "bytes32"
        },
        {
          "indexed": true,
          "internalType": "bytes32",
          "name": "newAdminRole",
          "type": "bytes32"
        }
      ],
      "name": "RoleAdminChanged",
      "type": "event"
    },
    {
      "anonymous": false,
      "inputs": [
        {
          "indexed": true,
          "internalType": "bytes32",
          "name": "role",
          "type": "bytes32"
        },
        {
          "indexed": true,
          "internalType": "address",
          "name": "account",
          "type": "address"
        },
        {
          "indexed": true,
          "internalType": "address",
          "name": "sender",
          "type": "address"
        }
      ],
      "name": "RoleGranted",
      "type": "event"
    },
    {
      "anonymous": false,
      "inputs": [
        {
          "indexed": true,
          "internalType": "bytes32",
          "name": "role",
          "type": "bytes32"
        },
        {
          "indexed": true,
          "internalType": "address",
          "name": "account",
          "type": "address"
        },
        {
          "indexed": true,
          "internalType": "address",
          "name": "sender",
          "type": "address"
        }
      ],
      "name": "RoleRevoked",
      "type": "event"
    },
    {
      "anonymous": false,
      "inputs": [
        {
          "indexed": false,
          "internalType": "address",
          "name": "account",
          "type": "address"
        }
      ],
      "name": "Unpaused",
      "type": "event"
    },
    {
      "inputs": [],
      "name": "AMBASSADOR_ROLE",
      "outputs": [
        {
          "internalType": "bytes32",
          "name": "",
          "type": "bytes32"
        }
      ],
      "stateMutability": "view",
      "type": "function",
      "constant": true
    },
    {
      "inputs": [],
      "name": "DEFAULT_ADMIN_ROLE",
      "outputs": [
        {
          "internalType": "bytes32",
          "name": "",
          "type": "bytes32"
        }
      ],
      "stateMutability": "view",
      "type": "function",
      "constant": true
    },
    {
      "inputs": [],
      "name": "PLANTER_ROLE",
      "outputs": [
        {
          "internalType": "bytes32",
          "name": "",
          "type": "bytes32"
        }
      ],
      "stateMutability": "view",
      "type": "function",
      "constant": true
    },
    {
      "inputs": [
        {
          "internalType": "uint256",
          "name": "",
          "type": "uint256"
        }
      ],
      "name": "gbToAmbassador",
      "outputs": [
        {
          "internalType": "address",
          "name": "",
          "type": "address"
        }
      ],
      "stateMutability": "view",
      "type": "function",
      "constant": true
    },
    {
      "inputs": [
        {
          "internalType": "uint256",
          "name": "",
          "type": "uint256"
        },
        {
          "internalType": "uint256",
          "name": "",
          "type": "uint256"
        }
      ],
      "name": "gbToPlanters",
      "outputs": [
        {
          "internalType": "address",
          "name": "",
          "type": "address"
        }
      ],
      "stateMutability": "view",
      "type": "function",
      "constant": true
    },
    {
      "inputs": [
        {
          "internalType": "uint256",
          "name": "",
          "type": "uint256"
        },
        {
          "internalType": "uint256",
          "name": "",
          "type": "uint256"
        }
      ],
      "name": "gbToVerifiers",
      "outputs": [
        {
          "internalType": "address",
          "name": "",
          "type": "address"
        }
      ],
      "stateMutability": "view",
      "type": "function",
      "constant": true
    },
    {
      "inputs": [
        {
          "internalType": "bytes32",
          "name": "role",
          "type": "bytes32"
        }
      ],
      "name": "getRoleAdmin",
      "outputs": [
        {
          "internalType": "bytes32",
          "name": "",
          "type": "bytes32"
        }
      ],
      "stateMutability": "view",
      "type": "function",
      "constant": true
    },
    {
      "inputs": [
        {
          "internalType": "bytes32",
          "name": "role",
          "type": "bytes32"
        },
        {
          "internalType": "uint256",
          "name": "index",
          "type": "uint256"
        }
      ],
      "name": "getRoleMember",
      "outputs": [
        {
          "internalType": "address",
          "name": "",
          "type": "address"
        }
      ],
      "stateMutability": "view",
      "type": "function",
      "constant": true
    },
    {
      "inputs": [
        {
          "internalType": "bytes32",
          "name": "role",
          "type": "bytes32"
        }
      ],
      "name": "getRoleMemberCount",
      "outputs": [
        {
          "internalType": "uint256",
          "name": "",
          "type": "uint256"
        }
      ],
      "stateMutability": "view",
      "type": "function",
      "constant": true
    },
    {
      "inputs": [
        {
          "internalType": "bytes32",
          "name": "role",
          "type": "bytes32"
        },
        {
          "internalType": "address",
          "name": "account",
          "type": "address"
        }
      ],
      "name": "grantRole",
      "outputs": [],
      "stateMutability": "nonpayable",
      "type": "function"
    },
    {
      "inputs": [
        {
          "internalType": "uint256",
          "name": "",
          "type": "uint256"
        }
      ],
      "name": "greenBlocks",
      "outputs": [
        {
          "internalType": "string",
          "name": "title",
          "type": "string"
        },
        {
          "internalType": "string",
          "name": "coordinates",
          "type": "string"
        },
        {
          "internalType": "enum GBFactory.GBStatus",
          "name": "status",
          "type": "uint8"
        }
      ],
      "stateMutability": "view",
      "type": "function",
      "constant": true
    },
    {
      "inputs": [
        {
          "internalType": "bytes32",
          "name": "role",
          "type": "bytes32"
        },
        {
          "internalType": "address",
          "name": "account",
          "type": "address"
        }
      ],
      "name": "hasRole",
      "outputs": [
        {
          "internalType": "bool",
          "name": "",
          "type": "bool"
        }
      ],
      "stateMutability": "view",
      "type": "function",
      "constant": true
    },
    {
      "inputs": [],
      "name": "owner",
      "outputs": [
        {
          "internalType": "address",
          "name": "",
          "type": "address"
        }
      ],
      "stateMutability": "view",
      "type": "function",
      "constant": true
    },
    {
      "inputs": [],
      "name": "pause",
      "outputs": [],
      "stateMutability": "nonpayable",
      "type": "function"
    },
    {
      "inputs": [],
      "name": "paused",
      "outputs": [
        {
          "internalType": "bool",
          "name": "",
          "type": "bool"
        }
      ],
      "stateMutability": "view",
      "type": "function",
      "constant": true
    },
    {
      "inputs": [
        {
          "internalType": "bytes32",
          "name": "role",
          "type": "bytes32"
        },
        {
          "internalType": "address",
          "name": "account",
          "type": "address"
        }
      ],
      "name": "renounceRole",
      "outputs": [],
      "stateMutability": "nonpayable",
      "type": "function"
    },
    {
      "inputs": [
        {
          "internalType": "bytes32",
          "name": "role",
          "type": "bytes32"
        },
        {
          "internalType": "address",
          "name": "account",
          "type": "address"
        }
      ],
      "name": "revokeRole",
      "outputs": [],
      "stateMutability": "nonpayable",
      "type": "function"
    },
    {
      "inputs": [],
      "name": "unpause",
      "outputs": [],
      "stateMutability": "nonpayable",
      "type": "function"
    },
    {
      "inputs": [
        {
          "internalType": "string",
          "name": "_title",
          "type": "string"
        },
        {
          "internalType": "string",
          "name": "_coordinates",
          "type": "string"
        },
        {
          "internalType": "address",
          "name": "_ambassador",
          "type": "address"
        },
        {
          "internalType": "address[]",
          "name": "_planters",
          "type": "address[]"
        }
      ],
      "name": "add",
      "outputs": [],
      "stateMutability": "nonpayable",
      "type": "function"
    },
    {
      "inputs": [],
      "name": "getAmbassadorGBCount",
      "outputs": [
        {
          "internalType": "uint256",
          "name": "",
          "type": "uint256"
        }
      ],
      "stateMutability": "view",
      "type": "function",
      "constant": true
    },
    {
      "inputs": [
        {
          "internalType": "uint256",
          "name": "_gbId",
          "type": "uint256"
        }
      ],
      "name": "getGBAmbassador",
      "outputs": [
        {
          "internalType": "address",
          "name": "",
          "type": "address"
        }
      ],
      "stateMutability": "view",
      "type": "function",
      "constant": true
    },
    {
      "inputs": [
        {
          "internalType": "uint256",
          "name": "_gbId",
          "type": "uint256"
        }
      ],
      "name": "getGB",
      "outputs": [
        {
          "internalType": "string",
          "name": "",
          "type": "string"
        },
        {
          "internalType": "string",
          "name": "",
          "type": "string"
        },
        {
          "internalType": "enum GBFactory.GBStatus",
          "name": "",
          "type": "uint8"
        }
      ],
      "stateMutability": "view",
      "type": "function",
      "constant": true
    },
    {
      "inputs": [
        {
          "internalType": "uint256",
          "name": "_gbId",
          "type": "uint256"
        }
      ],
      "name": "activate",
      "outputs": [],
      "stateMutability": "nonpayable",
      "type": "function"
    },
    {
      "inputs": [
        {
          "internalType": "uint256",
          "name": "_gbId",
          "type": "uint256"
        },
        {
          "internalType": "address",
          "name": "planter",
          "type": "address"
        }
      ],
      "name": "joinGB",
      "outputs": [],
      "stateMutability": "nonpayable",
      "type": "function"
    }
  ],
  "bytecode": "0x6080604052336001806101000a81548173ffffffffffffffffffffffffffffffffffffffff021916908373ffffffffffffffffffffffffffffffffffffffff1602179055506005600360006101000a81548160ff021916908360ff1602179055503480156200006d57600080fd5b506000600160006101000a81548160ff0219169083151502179055506200009e6000801b33620000f260201b60201c565b620000c5604051620000b09062000323565b604051809103902033620000f260201b60201c565b620000ec604051620000d7906200030c565b604051809103902033620000f260201b60201c565b62000345565b6200010482826200010860201b60201c565b5050565b6200013681600080858152602001908152602001600020600001620001ab60201b620013631790919060201c565b15620001a7576200014c620001e360201b60201c565b73ffffffffffffffffffffffffffffffffffffffff168173ffffffffffffffffffffffffffffffffffffffff16837f2f8788117e7eff1d82e926ec794901d17c78024a50270940304540a733656f0d60405160405180910390a45b5050565b6000620001db836000018373ffffffffffffffffffffffffffffffffffffffff1660001b620001eb60201b60201c565b905092915050565b600033905090565b6000620001ff83836200026560201b60201c565b6200025a5782600001829080600181540180825580915050600190039060005260206000200160009091909190915055826000018054905083600101600084815260200190815260200160002081905550600190506200025f565b600090505b92915050565b600080836001016000848152602001908152602001600020541415905092915050565b600062000297600f836200033a565b91507f414d4241535341444f525f524f4c4500000000000000000000000000000000006000830152600f82019050919050565b6000620002d9600c836200033a565b91507f504c414e5445525f524f4c4500000000000000000000000000000000000000006000830152600c82019050919050565b6000620003198262000288565b9150819050919050565b60006200033082620002ca565b9150819050919050565b600081905092915050565b61257d80620003556000396000f3fe608060405234801561001057600080fd5b50600436106101585760003560e01c806391d14854116100c3578063ca15c8731161007c578063ca15c873146103c9578063d547741f146103f9578063d6f1f96a14610415578063dfe065bc14610445578063f29bbde814610477578063f836c8e01461049557610158565b806391d14854146102e35780639ba2b51114610313578063a217fddf1461032f578063aa515a711461034d578063b260c42a1461037d578063c76611fe1461039957610158565b80634674886b116101155780634674886b1461020b5780635c975abb1461023d5780637ca1d2f61461025b5780638456cb591461028b5780638da5cb5b146102955780639010d07c146102b357610158565b80630daa2e661461015d578063248a9ca31461017b5780632f2ff15d146101ab57806336568abe146101c75780633f4ba83a146101e357806342946a26146101ed575b600080fd5b6101656104b1565b6040516101729190612198565b60405180910390f35b61019560048036038101906101909190611a3e565b6104c8565b6040516101a29190612198565b60405180910390f35b6101c560048036038101906101c09190611a67565b6104e7565b005b6101e160048036038101906101dc9190611a67565b61055a565b005b6101eb6105dd565b005b6101f5610633565b6040516102029190612358565b60405180910390f35b61022560048036038101906102209190611b98565b61067a565b604051610234939291906121b3565b60405180910390f35b61024561082c565b604051610252919061217d565b60405180910390f35b61027560048036038101906102709190611bfd565b610843565b6040516102829190612147565b60405180910390f35b61029361088e565b005b61029d6108e4565b6040516102aa9190612147565b60405180910390f35b6102cd60048036038101906102c89190611aa3565b610909565b6040516102da9190612147565b60405180910390f35b6102fd60048036038101906102f89190611a67565b61093a565b60405161030a919061217d565b60405180910390f35b61032d60048036038101906103289190611adf565b61096b565b005b610337610d6c565b6040516103449190612198565b60405180910390f35b61036760048036038101906103629190611bfd565b610d73565b6040516103749190612147565b60405180910390f35b61039760048036038101906103929190611b98565b610dbe565b005b6103b360048036038101906103ae9190611b98565b610f08565b6040516103c09190612147565b60405180910390f35b6103e360048036038101906103de9190611a3e565b610f45565b6040516103f09190612358565b60405180910390f35b610413600480360381019061040e9190611a67565b610f6b565b005b61042f600480360381019061042a9190611b98565b610fde565b60405161043c9190612147565b60405180910390f35b61045f600480360381019061045a9190611b98565b611011565b60405161046e939291906121b3565b60405180910390f35b61047f611185565b60405161048c9190612198565b60405180910390f35b6104af60048036038101906104aa9190611bc1565b61119c565b005b6040516104bd9061211d565b604051809103902081565b6000806000838152602001908152602001600020600201549050919050565b61050d60008084815260200190815260200160002060020154610508611393565b61093a565b61054c576040517f08c379a000000000000000000000000000000000000000000000000000000000815260040161054390612218565b60405180910390fd5b610556828261139b565b5050565b610562611393565b73ffffffffffffffffffffffffffffffffffffffff168173ffffffffffffffffffffffffffffffffffffffff16146105cf576040517f08c379a00000000000000000000000000000000000000000000000000000000081526004016105c690612338565b60405180910390fd5b6105d9828261142e565b5050565b6105ea6000801b3361093a565b610629576040517f08c379a0000000000000000000000000000000000000000000000000000000008152600401610620906122f8565b60405180910390fd5b6106316114c1565b565b6000600760003373ffffffffffffffffffffffffffffffffffffffff1673ffffffffffffffffffffffffffffffffffffffff16815260200190815260200160002054905090565b60608060006002848154811061068c57fe5b9060005260206000209060030201600001600285815481106106aa57fe5b9060005260206000209060030201600101600286815481106106c857fe5b906000526020600020906003020160020160009054906101000a900460ff16828054600181600116156101000203166002900480601f01602080910402602001604051908101604052809291908181526020018280546001816001161561010002031660029004801561077c5780601f106107515761010080835404028352916020019161077c565b820191906000526020600020905b81548152906001019060200180831161075f57829003601f168201915b50505050509250818054600181600116156101000203166002900480601f0160208091040260200160405190810160405280929190818152602001828054600181600116156101000203166002900480156108185780601f106107ed57610100808354040283529160200191610818565b820191906000526020600020905b8154815290600101906020018083116107fb57829003601f168201915b505050505091509250925092509193909250565b6000600160009054906101000a900460ff16905090565b6005602052816000526040600020818154811061085c57fe5b906000526020600020016000915091509054906101000a900473ffffffffffffffffffffffffffffffffffffffff1681565b61089b6000801b3361093a565b6108da576040517f08c379a00000000000000000000000000000000000000000000000000000000081526004016108d1906122f8565b60405180910390fd5b6108e261156b565b565b6001809054906101000a900473ffffffffffffffffffffffffffffffffffffffff1681565b60006109328260008086815260200190815260200160002060000161161590919063ffffffff16565b905092915050565b60006109638260008086815260200190815260200160002060000161162f90919063ffffffff16565b905092915050565b61098860405161097a90612132565b60405180910390203361093a565b806109ac57506109ab60405161099d9061211d565b60405180910390203361093a565b5b6109eb576040517f08c379a00000000000000000000000000000000000000000000000000000000081526004016109e2906122d8565b60405180910390fd5b600160009054906101000a900460ff1615610a3b576040517f08c379a0000000000000000000000000000000000000000000000000000000008152600401610a3290612278565b60405180910390fd5b6002604051806060016040528089898080601f016020809104026020016040519081016040528093929190818152602001838380828437600081840152601f19601f82011690508083019250505050505050815260200187878080601f016020809104026020016040519081016040528093929190818152602001838380828437600081840152601f19601f82011690508083019250505050505050815260200160006001811115610ae957fe5b81525090806001815401808255809150506001900390600052602060002090600302016000909190919091506000820151816000019080519060200190610b3192919061189d565b506020820151816001019080519060200190610b4e92919061189d565b5060408201518160020160006101000a81548160ff02191690836001811115610b7357fe5b021790555050506000600160028054905003905060008090505b838390508160ff161015610c8557610bdb604051610baa90612132565b604051809103902085858460ff16818110610bc157fe5b9050602002016020810190610bd69190611a15565b61093a565b15610c78576005600083815260200190815260200160002084848360ff16818110610c0257fe5b9050602002016020810190610c179190611a15565b9080600181540180825580915050600190039060005260206000200160009091909190916101000a81548173ffffffffffffffffffffffffffffffffffffffff021916908373ffffffffffffffffffffffffffffffffffffffff1602179055505b8080600101915050610b8d565b50836006600083815260200190815260200160002060006101000a81548173ffffffffffffffffffffffffffffffffffffffff021916908373ffffffffffffffffffffffffffffffffffffffff160217905550600760008573ffffffffffffffffffffffffffffffffffffffff1673ffffffffffffffffffffffffffffffffffffffff168152602001908152602001600020600081548092919060010191905055507f69edcd8f027d69da8f4d4c342db4c2b8ed9f3662514b8e5d90ea159df55aefed818989604051610d5a9392919061239c565b60405180910390a15050505050505050565b6000801b81565b60046020528160005260406000208181548110610d8c57fe5b906000526020600020016000915091509054906101000a900473ffffffffffffffffffffffffffffffffffffffff1681565b610dcb6000801b3361093a565b610e0a576040517f08c379a0000000000000000000000000000000000000000000000000000000008152600401610e01906122f8565b60405180910390fd5b600180811115610e1657fe5b60028281548110610e2357fe5b906000526020600020906003020160020160009054906101000a900460ff166001811115610e4d57fe5b1415610e8e576040517f08c379a0000000000000000000000000000000000000000000000000000000008152600401610e85906122b8565b60405180910390fd5b600160028281548110610e9d57fe5b906000526020600020906003020160020160006101000a81548160ff02191690836001811115610ec957fe5b02179055507f4adeb3818195a413c2596f3d00779157c33e838590dbd18f2e925568a62b826681604051610efd9190612358565b60405180910390a150565b60006006600083815260200190815260200160002060009054906101000a900473ffffffffffffffffffffffffffffffffffffffff169050919050565b6000610f6460008084815260200190815260200160002060000161165f565b9050919050565b610f9160008084815260200190815260200160002060020154610f8c611393565b61093a565b610fd0576040517f08c379a0000000000000000000000000000000000000000000000000000000008152600401610fc790612258565b60405180910390fd5b610fda828261142e565b5050565b60066020528060005260406000206000915054906101000a900473ffffffffffffffffffffffffffffffffffffffff1681565b6002818154811061101e57fe5b9060005260206000209060030201600091509050806000018054600181600116156101000203166002900480601f0160208091040260200160405190810160405280929190818152602001828054600181600116156101000203166002900480156110ca5780601f1061109f576101008083540402835291602001916110ca565b820191906000526020600020905b8154815290600101906020018083116110ad57829003601f168201915b505050505090806001018054600181600116156101000203166002900480601f0160208091040260200160405190810160405280929190818152602001828054600181600116156101000203166002900480156111685780601f1061113d57610100808354040283529160200191611168565b820191906000526020600020905b81548152906001019060200180831161114b57829003601f168201915b5050505050908060020160009054906101000a900460ff16905083565b60405161119190612132565b604051809103902081565b600160009054906101000a900460ff16156111ec576040517f08c379a00000000000000000000000000000000000000000000000000000000081526004016111e390612278565b60405180910390fd5b6112096040516111fb90612132565b60405180910390203361093a565b611248576040517f08c379a000000000000000000000000000000000000000000000000000000000815260040161123f90612318565b60405180910390fd5b600360009054906101000a900460ff1660ff166005600084815260200190815260200160002080549050106112b2576040517f08c379a00000000000000000000000000000000000000000000000000000000081526004016112a990612298565b60405180910390fd5b60056000838152602001908152602001600020819080600181540180825580915050600190039060005260206000200160009091909190916101000a81548173ffffffffffffffffffffffffffffffffffffffff021916908373ffffffffffffffffffffffffffffffffffffffff1602179055507f113f7835c809ac6fd6e6a25d8bf7ea1dc2b6c19c57e57ec5bd4638eda27e3f888282604051611357929190612373565b60405180910390a15050565b600061138b836000018373ffffffffffffffffffffffffffffffffffffffff1660001b611674565b905092915050565b600033905090565b6113c28160008085815260200190815260200160002060000161136390919063ffffffff16565b1561142a576113cf611393565b73ffffffffffffffffffffffffffffffffffffffff168173ffffffffffffffffffffffffffffffffffffffff16837f2f8788117e7eff1d82e926ec794901d17c78024a50270940304540a733656f0d60405160405180910390a45b5050565b611455816000808581526020019081526020016000206000016116e490919063ffffffff16565b156114bd57611462611393565b73ffffffffffffffffffffffffffffffffffffffff168173ffffffffffffffffffffffffffffffffffffffff16837ff6391f5c32d9c69d2a47ea670b442974b53935d1edc7fd64eb21e047a839171b60405160405180910390a45b5050565b600160009054906101000a900460ff16611510576040517f08c379a000000000000000000000000000000000000000000000000000000000815260040161150790612238565b60405180910390fd5b6000600160006101000a81548160ff0219169083151502179055507f5db9ee0a495bf2e6ff9c91a7834c1ba4fdd244a5e8aa4e537bd38aeae4b073aa611554611393565b6040516115619190612162565b60405180910390a1565b600160009054906101000a900460ff16156115bb576040517f08c379a00000000000000000000000000000000000000000000000000000000081526004016115b290612278565b60405180910390fd5b60018060006101000a81548160ff0219169083151502179055507f62e78cea01bee320cd4e420270b5ea74000d11b0c9f74754ebdbfc544b05a2586115fe611393565b60405161160b9190612162565b60405180910390a1565b60006116248360000183611714565b60001c905092915050565b6000611657836000018373ffffffffffffffffffffffffffffffffffffffff1660001b611781565b905092915050565b600061166d826000016117a4565b9050919050565b60006116808383611781565b6116d95782600001829080600181540180825580915050600190039060005260206000200160009091909190915055826000018054905083600101600084815260200190815260200160002081905550600190506116de565b600090505b92915050565b600061170c836000018373ffffffffffffffffffffffffffffffffffffffff1660001b6117b5565b905092915050565b60008183600001805490501161175f576040517f08c379a0000000000000000000000000000000000000000000000000000000008152600401611756906121f8565b60405180910390fd5b82600001828154811061176e57fe5b9060005260206000200154905092915050565b600080836001016000848152602001908152602001600020541415905092915050565b600081600001805490509050919050565b60008083600101600084815260200190815260200160002054905060008114611891576000600182039050600060018660000180549050039050600086600001828154811061180057fe5b906000526020600020015490508087600001848154811061181d57fe5b906000526020600020018190555060018301876001016000838152602001908152602001600020819055508660000180548061185557fe5b60019003818190600052602060002001600090559055866001016000878152602001908152602001600020600090556001945050505050611897565b60009150505b92915050565b828054600181600116156101000203166002900490600052602060002090601f016020900481019282601f106118de57805160ff191683800117855561190c565b8280016001018555821561190c579182015b8281111561190b5782518255916020019190600101906118f0565b5b509050611919919061191d565b5090565b61193f91905b8082111561193b576000816000905550600101611923565b5090565b90565b60008135905061195181612502565b92915050565b60008083601f84011261196957600080fd5b8235905067ffffffffffffffff81111561198257600080fd5b60208301915083602082028301111561199a57600080fd5b9250929050565b6000813590506119b081612519565b92915050565b60008083601f8401126119c857600080fd5b8235905067ffffffffffffffff8111156119e157600080fd5b6020830191508360018202830111156119f957600080fd5b9250929050565b600081359050611a0f81612530565b92915050565b600060208284031215611a2757600080fd5b6000611a3584828501611942565b91505092915050565b600060208284031215611a5057600080fd5b6000611a5e848285016119a1565b91505092915050565b60008060408385031215611a7a57600080fd5b6000611a88858286016119a1565b9250506020611a9985828601611942565b9150509250929050565b60008060408385031215611ab657600080fd5b6000611ac4858286016119a1565b9250506020611ad585828601611a00565b9150509250929050565b60008060008060008060006080888a031215611afa57600080fd5b600088013567ffffffffffffffff811115611b1457600080fd5b611b208a828b016119b6565b9750975050602088013567ffffffffffffffff811115611b3f57600080fd5b611b4b8a828b016119b6565b95509550506040611b5e8a828b01611942565b935050606088013567ffffffffffffffff811115611b7b57600080fd5b611b878a828b01611957565b925092505092959891949750929550565b600060208284031215611baa57600080fd5b6000611bb884828501611a00565b91505092915050565b60008060408385031215611bd457600080fd5b6000611be285828601611a00565b9250506020611bf385828601611942565b9150509250929050565b60008060408385031215611c1057600080fd5b6000611c1e85828601611a00565b9250506020611c2f85828601611a00565b9150509250929050565b611c428161245a565b82525050565b611c51816123f5565b82525050565b611c6081612407565b82525050565b611c6f81612413565b82525050565b611c7e8161246c565b82525050565b6000611c9083856123d9565b9350611c9d8385846124a2565b611ca6836124e4565b840190509392505050565b6000611cbc826123ce565b611cc681856123d9565b9350611cd68185602086016124b1565b611cdf816124e4565b840191505092915050565b6000611cf76022836123d9565b91507f456e756d657261626c655365743a20696e646578206f7574206f6620626f756e60008301527f64730000000000000000000000000000000000000000000000000000000000006020830152604082019050919050565b6000611d5d602f836123d9565b91507f416363657373436f6e74726f6c3a2073656e646572206d75737420626520616e60008301527f2061646d696e20746f206772616e7400000000000000000000000000000000006020830152604082019050919050565b6000611dc36014836123d9565b91507f5061757361626c653a206e6f74207061757365640000000000000000000000006000830152602082019050919050565b6000611e03600f836123ea565b91507f414d4241535341444f525f524f4c4500000000000000000000000000000000006000830152600f82019050919050565b6000611e43600c836123ea565b91507f504c414e5445525f524f4c4500000000000000000000000000000000000000006000830152600c82019050919050565b6000611e836030836123d9565b91507f416363657373436f6e74726f6c3a2073656e646572206d75737420626520616e60008301527f2061646d696e20746f207265766f6b65000000000000000000000000000000006020830152604082019050919050565b6000611ee96010836123d9565b91507f5061757361626c653a20706175736564000000000000000000000000000000006000830152602082019050919050565b6000611f296025836123d9565b91507f506c616e746572206f6620746869732047422069732072656163686564206d6160008301527f78696d756d0000000000000000000000000000000000000000000000000000006020830152604082019050919050565b6000611f8f6012836123d9565b91507f474220616c7265616479206163746976652100000000000000000000000000006000830152602082019050919050565b6000611fcf6025836123d9565b91507f43616c6c6572206973206e6f74206120706c616e746572206f7220616d62617360008301527f7361646f720000000000000000000000000000000000000000000000000000006020830152604082019050919050565b60006120356013836123d9565b91507f43616c6c6572206973206e6f742061646d696e000000000000000000000000006000830152602082019050919050565b60006120756017836123d9565b91507f43616c6c6572206973206e6f74206120706c616e7465720000000000000000006000830152602082019050919050565b60006120b5602f836123d9565b91507f416363657373436f6e74726f6c3a2063616e206f6e6c792072656e6f756e636560008301527f20726f6c657320666f722073656c6600000000000000000000000000000000006020830152604082019050919050565b61211781612450565b82525050565b600061212882611df6565b9150819050919050565b600061213d82611e36565b9150819050919050565b600060208201905061215c6000830184611c48565b92915050565b60006020820190506121776000830184611c39565b92915050565b60006020820190506121926000830184611c57565b92915050565b60006020820190506121ad6000830184611c66565b92915050565b600060608201905081810360008301526121cd8186611cb1565b905081810360208301526121e18185611cb1565b90506121f06040830184611c75565b949350505050565b6000602082019050818103600083015261221181611cea565b9050919050565b6000602082019050818103600083015261223181611d50565b9050919050565b6000602082019050818103600083015261225181611db6565b9050919050565b6000602082019050818103600083015261227181611e76565b9050919050565b6000602082019050818103600083015261229181611edc565b9050919050565b600060208201905081810360008301526122b181611f1c565b9050919050565b600060208201905081810360008301526122d181611f82565b9050919050565b600060208201905081810360008301526122f181611fc2565b9050919050565b6000602082019050818103600083015261231181612028565b9050919050565b6000602082019050818103600083015261233181612068565b9050919050565b60006020820190508181036000830152612351816120a8565b9050919050565b600060208201905061236d600083018461210e565b92915050565b6000604082019050612388600083018561210e565b6123956020830184611c48565b9392505050565b60006040820190506123b1600083018661210e565b81810360208301526123c4818486611c84565b9050949350505050565b600081519050919050565b600082825260208201905092915050565b600081905092915050565b600061240082612430565b9050919050565b60008115159050919050565b6000819050919050565b600081905061242b826124f5565b919050565b600073ffffffffffffffffffffffffffffffffffffffff82169050919050565b6000819050919050565b60006124658261247e565b9050919050565b60006124778261241d565b9050919050565b600061248982612490565b9050919050565b600061249b82612430565b9050919050565b82818337600083830152505050565b60005b838110156124cf5780820151818401526020810190506124b4565b838111156124de576000848401525b50505050565b6000601f19601f8301169050919050565b600281106124ff57fe5b50565b61250b816123f5565b811461251657600080fd5b50565b61252281612413565b811461252d57600080fd5b50565b61253981612450565b811461254457600080fd5b5056fea2646970667358221220cae5e9c15da60ed93e03ca205b8c2a9ba970163cfed6d01dfc3b89caaaf50d2264736f6c63430006090033",
  "source": "// SPDX-License-Identifier: GPL-3.0\n\npragma solidity >=0.4.21 <0.7.0;\npragma experimental ABIEncoderV2;\n\nimport \"../access/AccessRestriction.sol\";\n\n\ncontract GBFactory is AccessRestriction {\n    event NewGBAdded(uint256 id, string title);\n    event GBActivated(uint256 id);\n    event PlanterJoinedGB(uint256 id, address planter);\n\n    enum GBStatus { Pending, Active }\n\n    //@todo must change coordinates\n    struct GB {\n        string title;\n        string coordinates;\n        GBStatus status;\n    }\n\n    GB[] public greenBlocks;\n    uint8 maxGBPlantersCount = 5;\n\n    mapping(uint256 => address[]) public gbToVerifiers;\n    mapping(uint256 => address[]) public gbToPlanters;\n    mapping(uint256 => address) public gbToAmbassador;\n    mapping(address => uint256) ambassadorGBCount;\n    mapping(address => uint256) verifiersGBCount;\n\n    //@todo permission must check\n    function add(\n        string calldata _title,\n        string calldata _coordinates,\n        address _ambassador,\n        address[] calldata _planters\n    ) external planterOrAmbassador whenNotPaused {\n\n        greenBlocks.push(GB(_title, _coordinates, GBStatus.Pending));\n        uint256 id = greenBlocks.length - 1;\n\n        for (uint8 i = 0; i < _planters.length; i++) {\n            if(hasRole(PLANTER_ROLE, _planters[i])) {\n                gbToPlanters[id].push(_planters[i]);\n            }\n        }\n\n        gbToAmbassador[id] = _ambassador;\n        ambassadorGBCount[_ambassador]++;\n\n        emit NewGBAdded(id, _title);\n    }\n\n    function getAmbassadorGBCount() public view returns (uint256) {\n        return ambassadorGBCount[msg.sender];\n    }\n\n    function getGBAmbassador(uint256 _gbId) public view returns (address) {\n        return gbToAmbassador[_gbId];\n    }\n\n    function getGB(uint256 _gbId)\n        public\n        view\n        returns (\n            string memory,\n            string memory,\n            GBStatus\n        )\n    {\n        return (\n            greenBlocks[_gbId].title,\n            greenBlocks[_gbId].coordinates,\n            greenBlocks[_gbId].status\n        );\n    }\n\n    function activate(uint256 _gbId) external onlyAdmin {\n        require(greenBlocks[_gbId].status != GBStatus.Active, \"GB already active!\");\n\n        greenBlocks[_gbId].status = GBStatus.Active;\n\n        emit GBActivated(_gbId);\n    }\n\n    function joinGB(uint256 _gbId, address planter) external whenNotPaused onlyPlanter {\n        require(gbToPlanters[_gbId].length < maxGBPlantersCount, \"Planter of this GB is reached maximum\");\n\n        gbToPlanters[_gbId].push(planter);\n\n        emit PlanterJoinedGB(_gbId, planter);\n    }\n\n    //@todo premission must check only ambassedor or planters or admin\n    // function updateGB(uint256 _gbId) public external {\n\n    // }\n}\n",
  "sourcePath": "/home/amir/Projects/treejer/contract/contracts/greenblock/GBFactory.sol",
  "compiler": {
    "name": "solc",
    "version": "0.6.9+commit.3e3065ac.Emscripten.clang"
  },
  "schemaVersion": "3.0.22",
  "updatedAt": "2020-08-03T08:22:21.705Z",
  "networkType": "ethereum",
  "devdoc": {
    "methods": {
      "getRoleAdmin(bytes32)": {
        "details": "Returns the admin role that controls `role`. See {grantRole} and {revokeRole}. To change a role's admin, use {_setRoleAdmin}."
      },
      "getRoleMember(bytes32,uint256)": {
        "details": "Returns one of the accounts that have `role`. `index` must be a value between 0 and {getRoleMemberCount}, non-inclusive. Role bearers are not sorted in any particular way, and their ordering may change at any point. WARNING: When using {getRoleMember} and {getRoleMemberCount}, make sure you perform all queries on the same block. See the following https://forum.openzeppelin.com/t/iterating-over-elements-on-enumerableset-in-openzeppelin-contracts/2296[forum post] for more information."
      },
      "getRoleMemberCount(bytes32)": {
        "details": "Returns the number of accounts that have `role`. Can be used together with {getRoleMember} to enumerate all bearers of a role."
      },
      "grantRole(bytes32,address)": {
        "details": "Grants `role` to `account`. If `account` had not been already granted `role`, emits a {RoleGranted} event. Requirements: - the caller must have ``role``'s admin role."
      },
      "hasRole(bytes32,address)": {
        "details": "Returns `true` if `account` has been granted `role`."
      },
      "paused()": {
        "details": "Returns true if the contract is paused, and false otherwise."
      },
      "renounceRole(bytes32,address)": {
        "details": "Revokes `role` from the calling account. Roles are often managed via {grantRole} and {revokeRole}: this function's purpose is to provide a mechanism for accounts to lose their privileges if they are compromised (such as when a trusted device is misplaced). If the calling account had been granted `role`, emits a {RoleRevoked} event. Requirements: - the caller must be `account`."
      },
      "revokeRole(bytes32,address)": {
        "details": "Revokes `role` from `account`. If `account` had been granted `role`, emits a {RoleRevoked} event. Requirements: - the caller must have ``role``'s admin role."
      }
    }
  },
  "userdoc": {
    "methods": {}
  }
}