{
  "contractName": "GsnEip712Library",
  "abi": [
    {
      "inputs": [],
      "name": "EIP712DOMAIN_TYPEHASH",
      "outputs": [
        {
          "internalType": "bytes32",
          "name": "",
          "type": "bytes32"
        }
      ],
      "stateMutability": "view",
      "type": "function"
    },
    {
      "inputs": [],
      "name": "GENERIC_PARAMS",
      "outputs": [
        {
          "internalType": "string",
          "name": "",
          "type": "string"
        }
      ],
      "stateMutability": "view",
      "type": "function"
    },
    {
      "inputs": [],
      "name": "RELAYDATA_TYPE",
      "outputs": [
        {
          "internalType": "bytes",
          "name": "",
          "type": "bytes"
        }
      ],
      "stateMutability": "view",
      "type": "function"
    },
    {
      "inputs": [],
      "name": "RELAYDATA_TYPEHASH",
      "outputs": [
        {
          "internalType": "bytes32",
          "name": "",
          "type": "bytes32"
        }
      ],
      "stateMutability": "view",
      "type": "function"
    },
    {
      "inputs": [],
      "name": "RELAY_REQUEST_NAME",
      "outputs": [
        {
          "internalType": "string",
          "name": "",
          "type": "string"
        }
      ],
      "stateMutability": "view",
      "type": "function"
    },
    {
      "inputs": [],
      "name": "RELAY_REQUEST_SUFFIX",
      "outputs": [
        {
          "internalType": "string",
          "name": "",
          "type": "string"
        }
      ],
      "stateMutability": "view",
      "type": "function"
    },
    {
      "inputs": [],
      "name": "RELAY_REQUEST_TYPE",
      "outputs": [
        {
          "internalType": "bytes",
          "name": "",
          "type": "bytes"
        }
      ],
      "stateMutability": "view",
      "type": "function"
    },
    {
      "inputs": [],
      "name": "RELAY_REQUEST_TYPEHASH",
      "outputs": [
        {
          "internalType": "bytes32",
          "name": "",
          "type": "bytes32"
        }
      ],
      "stateMutability": "view",
      "type": "function"
    }
  ],
  "bytecode": "0x61053d61003a600b82828239805160001a60731461002d57634e487b7160e01b600052600060045260246000fd5b30600052607381538281f3fe73000000000000000000000000000000000000000030146080604052600436106100925760003560e01c8063abf0d3f411610065578063abf0d3f4146100f0578063c46cf83f14610106578063c49f91d31461010e578063cc0c62b21461013557600080fd5b8063066a310c146100975780636225e61b146100b5578063931cd38f146100bd578063987673f7146100c5575b600080fd5b61009f61013d565b6040516100ac91906103bf565b60405180910390f35b61009f610159565b61009f6101f1565b61009f6040518060400160405280600c81526020016b14995b185e54995c5d595cdd60a21b81525081565b6100f861021a565b6040519081526020016100ac565b61009f6102b9565b6100f87f8b73c3c69bb8fe3d512ecc4cf759cc79239f7b179b0ffacaa9a75d522b39400f81565b6100f86102d5565b6040518060800160405280605d815260200161040a605d913981565b6040518060400160405280600c81526020016b14995b185e54995c5d595cdd60a21b8152506040518060800160405280605d815260200161040a605d91396040518060e0016040528060a1815260200161046760a191396040516020016101c09190610383565b60408051601f19818403018152908290526101df939291602001610324565b60405160208183030381529060405281565b6040518060e0016040528060a1815260200161046760a191396040516020016101df9190610383565b6040518060400160405280600c81526020016b14995b185e54995c5d595cdd60a21b8152506040518060800160405280605d815260200161040a605d91396040518060e0016040528060a1815260200161046760a191396040516020016102819190610383565b60408051601f19818403018152908290526102a0939291602001610324565b6040516020818303038152906040528051906020012081565b6040518060e0016040528060a1815260200161046760a1913981565b6040518060e0016040528060a1815260200161046760a191398051906020012081565b600081518084526103108160208601602086016103d9565b601f01601f19169290920160200192915050565b600084516103368184602089016103d9565b600560fb1b90830190815284516103548160018401602089016103d9565b600b60fa1b6001929091019182015283516103768160028401602088016103d9565b0160020195945050505050565b7352656c6179446174612072656c6179446174612960601b8152600082516103b28160148501602087016103d9565b9190910160140192915050565b6020815260006103d260208301846102f8565b9392505050565b60005b838110156103f45781810151838201526020016103dc565b83811115610403576000848401525b5050505056fe616464726573732066726f6d2c6164647265737320746f2c75696e743235362076616c75652c75696e74323536206761732c75696e74323536206e6f6e63652c627974657320646174612c75696e743235362076616c6964556e74696c52656c6179446174612875696e743235362067617350726963652c75696e743235362070637452656c61794665652c75696e74323536206261736552656c61794665652c616464726573732072656c6179576f726b65722c61646472657373207061796d61737465722c6164647265737320666f727761726465722c6279746573207061796d6173746572446174612c75696e7432353620636c69656e74496429a264697066735822122078ed84b0fc4f41a614876888bda79d75ada1ad50dc9592586e2df33fa328baef64736f6c63430008060033",
  "immutableReferences": {},
  "source": "// SPDX-License-Identifier: GPL-3.0-only\npragma solidity >=0.7.6;\npragma abicoder v2;\n\nimport \"../utils/GsnTypes.sol\";\nimport \"../interfaces/IRelayRecipient.sol\";\nimport \"../forwarder/IForwarder.sol\";\n\nimport \"./GsnUtils.sol\";\n\n/**\n * Bridge Library to map GSN RelayRequest into a call of a Forwarder\n */\nlibrary GsnEip712Library {\n    // maximum length of return value/revert reason for 'execute' method. Will truncate result if exceeded.\n    uint256 private constant MAX_RETURN_SIZE = 1024;\n\n    //copied from Forwarder (can't reference string constants even from another library)\n    string public constant GENERIC_PARAMS =\n        \"address from,address to,uint256 value,uint256 gas,uint256 nonce,bytes data,uint256 validUntil\";\n\n    bytes public constant RELAYDATA_TYPE =\n        \"RelayData(uint256 gasPrice,uint256 pctRelayFee,uint256 baseRelayFee,address relayWorker,address paymaster,address forwarder,bytes paymasterData,uint256 clientId)\";\n\n    string public constant RELAY_REQUEST_NAME = \"RelayRequest\";\n    string public constant RELAY_REQUEST_SUFFIX =\n        string(abi.encodePacked(\"RelayData relayData)\", RELAYDATA_TYPE));\n\n    bytes public constant RELAY_REQUEST_TYPE =\n        abi.encodePacked(\n            RELAY_REQUEST_NAME,\n            \"(\",\n            GENERIC_PARAMS,\n            \",\",\n            RELAY_REQUEST_SUFFIX\n        );\n\n    bytes32 public constant RELAYDATA_TYPEHASH = keccak256(RELAYDATA_TYPE);\n    bytes32 public constant RELAY_REQUEST_TYPEHASH =\n        keccak256(RELAY_REQUEST_TYPE);\n\n    struct EIP712Domain {\n        string name;\n        string version;\n        uint256 chainId;\n        address verifyingContract;\n    }\n\n    bytes32 public constant EIP712DOMAIN_TYPEHASH =\n        keccak256(\n            \"EIP712Domain(string name,string version,uint256 chainId,address verifyingContract)\"\n        );\n\n    function splitRequest(GsnTypes.RelayRequest calldata req)\n        internal\n        pure\n        returns (bytes memory suffixData)\n    {\n        suffixData = abi.encode(hashRelayData(req.relayData));\n    }\n\n    //verify that the recipient trusts the given forwarder\n    // MUST be called by paymaster\n    function verifyForwarderTrusted(GsnTypes.RelayRequest calldata relayRequest)\n        internal\n        view\n    {\n        (bool success, bytes memory ret) = relayRequest.request.to.staticcall(\n            abi.encodeWithSelector(\n                IRelayRecipient.isTrustedForwarder.selector,\n                relayRequest.relayData.forwarder\n            )\n        );\n        require(success, \"isTrustedForwarder: reverted\");\n        require(ret.length == 32, \"isTrustedForwarder: bad response\");\n        require(abi.decode(ret, (bool)), \"invalid forwarder for recipient\");\n    }\n\n    function verifySignature(\n        GsnTypes.RelayRequest calldata relayRequest,\n        bytes calldata signature\n    ) internal view {\n        bytes memory suffixData = splitRequest(relayRequest);\n        bytes32 _domainSeparator = domainSeparator(\n            relayRequest.relayData.forwarder\n        );\n        IForwarder forwarder = IForwarder(\n            payable(relayRequest.relayData.forwarder)\n        );\n        forwarder.verify(\n            relayRequest.request,\n            _domainSeparator,\n            RELAY_REQUEST_TYPEHASH,\n            suffixData,\n            signature\n        );\n    }\n\n    function verify(\n        GsnTypes.RelayRequest calldata relayRequest,\n        bytes calldata signature\n    ) internal view {\n        verifyForwarderTrusted(relayRequest);\n        verifySignature(relayRequest, signature);\n    }\n\n    function execute(\n        GsnTypes.RelayRequest calldata relayRequest,\n        bytes calldata signature\n    )\n        internal\n        returns (\n            bool forwarderSuccess,\n            bool callSuccess,\n            bytes memory ret\n        )\n    {\n        bytes memory suffixData = splitRequest(relayRequest);\n        bytes32 _domainSeparator = domainSeparator(\n            relayRequest.relayData.forwarder\n        );\n        /* solhint-disable-next-line avoid-low-level-calls */\n        (forwarderSuccess, ret) = relayRequest.relayData.forwarder.call(\n            abi.encodeWithSelector(\n                IForwarder.execute.selector,\n                relayRequest.request,\n                _domainSeparator,\n                RELAY_REQUEST_TYPEHASH,\n                suffixData,\n                signature\n            )\n        );\n        if (forwarderSuccess) {\n            //decode return value of execute:\n            (callSuccess, ret) = abi.decode(ret, (bool, bytes));\n        }\n        truncateInPlace(ret);\n    }\n\n    //truncate the given parameter (in-place) if its length is above the given maximum length\n    // do nothing otherwise.\n    //NOTE: solidity warns unless the method is marked \"pure\", but it DOES modify its parameter.\n    function truncateInPlace(bytes memory data) internal pure {\n        MinLibBytes.truncateInPlace(data, MAX_RETURN_SIZE);\n    }\n\n    function domainSeparator(address forwarder)\n        internal\n        view\n        returns (bytes32)\n    {\n        return\n            hashDomain(\n                EIP712Domain({\n                    name: \"GSN Relayed Transaction\",\n                    version: \"2\",\n                    chainId: getChainID(),\n                    verifyingContract: forwarder\n                })\n            );\n    }\n\n    function getChainID() internal view returns (uint256 id) {\n        /* solhint-disable no-inline-assembly */\n        assembly {\n            id := chainid()\n        }\n    }\n\n    function hashDomain(EIP712Domain memory req)\n        internal\n        pure\n        returns (bytes32)\n    {\n        return\n            keccak256(\n                abi.encode(\n                    EIP712DOMAIN_TYPEHASH,\n                    keccak256(bytes(req.name)),\n                    keccak256(bytes(req.version)),\n                    req.chainId,\n                    req.verifyingContract\n                )\n            );\n    }\n\n    function hashRelayData(GsnTypes.RelayData calldata req)\n        internal\n        pure\n        returns (bytes32)\n    {\n        return\n            keccak256(\n                abi.encode(\n                    RELAYDATA_TYPEHASH,\n                    req.gasPrice,\n                    req.pctRelayFee,\n                    req.baseRelayFee,\n                    req.relayWorker,\n                    req.paymaster,\n                    req.forwarder,\n                    keccak256(req.paymasterData),\n                    req.clientId\n                )\n            );\n    }\n}\n",
  "sourcePath": "/home/ali/Desktop/treejer/contract/contracts/external/gsn/utils/GsnEip712Library.sol",
  "compiler": {
    "name": "solc",
    "version": "0.8.6+commit.11564f7e.Emscripten.clang"
  },
  "schemaVersion": "3.4.1",
  "updatedAt": "2021-08-13T04:41:01.447Z",
  "devdoc": {
    "kind": "dev",
    "methods": {},
    "version": 1
  },
  "userdoc": {
    "kind": "user",
    "methods": {},
    "notice": "Bridge Library to map GSN RelayRequest into a call of a Forwarder",
    "version": 1
  }
}