{
  "contractName": "IncrementalSell",
  "abi": [
    {
      "anonymous": false,
      "inputs": [],
      "name": "IncrementalSellUpdated",
      "type": "event"
    },
    {
      "anonymous": false,
      "inputs": [
        {
          "indexed": false,
          "internalType": "uint256",
          "name": "treeId",
          "type": "uint256"
        },
        {
          "indexed": false,
          "internalType": "address",
          "name": "buyer",
          "type": "address"
        },
        {
          "indexed": false,
          "internalType": "uint256",
          "name": "amount",
          "type": "uint256"
        }
      ],
      "name": "IncrementalTreeSold",
      "type": "event"
    },
    {
      "inputs": [],
      "name": "accessRestriction",
      "outputs": [
        {
          "internalType": "contract IAccessRestriction",
          "name": "",
          "type": "address"
        }
      ],
      "stateMutability": "view",
      "type": "function",
      "constant": true
    },
    {
      "inputs": [],
      "name": "financialModel",
      "outputs": [
        {
          "internalType": "contract IFinancialModel",
          "name": "",
          "type": "address"
        }
      ],
      "stateMutability": "view",
      "type": "function",
      "constant": true
    },
    {
      "inputs": [],
      "name": "incrementalPrice",
      "outputs": [
        {
          "internalType": "uint256",
          "name": "startTree",
          "type": "uint256"
        },
        {
          "internalType": "uint256",
          "name": "endTree",
          "type": "uint256"
        },
        {
          "internalType": "uint256",
          "name": "initialPrice",
          "type": "uint256"
        },
        {
          "internalType": "uint64",
          "name": "increaseStep",
          "type": "uint64"
        },
        {
          "internalType": "uint64",
          "name": "increaseRatio",
          "type": "uint64"
        }
      ],
      "stateMutability": "view",
      "type": "function",
      "constant": true
    },
    {
      "inputs": [],
      "name": "isIncrementalSell",
      "outputs": [
        {
          "internalType": "bool",
          "name": "",
          "type": "bool"
        }
      ],
      "stateMutability": "view",
      "type": "function",
      "constant": true
    },
    {
      "inputs": [
        {
          "internalType": "address",
          "name": "forwarder",
          "type": "address"
        }
      ],
      "name": "isTrustedForwarder",
      "outputs": [
        {
          "internalType": "bool",
          "name": "",
          "type": "bool"
        }
      ],
      "stateMutability": "view",
      "type": "function",
      "constant": true
    },
    {
      "inputs": [
        {
          "internalType": "address",
          "name": "",
          "type": "address"
        }
      ],
      "name": "lastBuy",
      "outputs": [
        {
          "internalType": "uint256",
          "name": "",
          "type": "uint256"
        }
      ],
      "stateMutability": "view",
      "type": "function",
      "constant": true
    },
    {
      "inputs": [],
      "name": "treeFactory",
      "outputs": [
        {
          "internalType": "contract ITreeFactory",
          "name": "",
          "type": "address"
        }
      ],
      "stateMutability": "view",
      "type": "function",
      "constant": true
    },
    {
      "inputs": [],
      "name": "trustedForwarder",
      "outputs": [
        {
          "internalType": "address",
          "name": "",
          "type": "address"
        }
      ],
      "stateMutability": "view",
      "type": "function",
      "constant": true
    },
    {
      "inputs": [],
      "name": "versionRecipient",
      "outputs": [
        {
          "internalType": "string",
          "name": "",
          "type": "string"
        }
      ],
      "stateMutability": "pure",
      "type": "function",
      "constant": true
    },
    {
      "inputs": [],
      "name": "wethFunds",
      "outputs": [
        {
          "internalType": "contract IWethFunds",
          "name": "",
          "type": "address"
        }
      ],
      "stateMutability": "view",
      "type": "function",
      "constant": true
    },
    {
      "inputs": [],
      "name": "wethToken",
      "outputs": [
        {
          "internalType": "contract IERC20Upgradeable",
          "name": "",
          "type": "address"
        }
      ],
      "stateMutability": "view",
      "type": "function",
      "constant": true
    },
    {
      "inputs": [
        {
          "internalType": "address",
          "name": "_accessRestrictionAddress",
          "type": "address"
        }
      ],
      "name": "initialize",
      "outputs": [],
      "stateMutability": "nonpayable",
      "type": "function"
    },
    {
      "inputs": [
        {
          "internalType": "address",
          "name": "_address",
          "type": "address"
        }
      ],
      "name": "setTrustedForwarder",
      "outputs": [],
      "stateMutability": "nonpayable",
      "type": "function"
    },
    {
      "inputs": [
        {
          "internalType": "address",
          "name": "_address",
          "type": "address"
        }
      ],
      "name": "setTreeFactoryAddress",
      "outputs": [],
      "stateMutability": "nonpayable",
      "type": "function"
    },
    {
      "inputs": [
        {
          "internalType": "address",
          "name": "_address",
          "type": "address"
        }
      ],
      "name": "setWethFundsAddress",
      "outputs": [],
      "stateMutability": "nonpayable",
      "type": "function"
    },
    {
      "inputs": [
        {
          "internalType": "address",
          "name": "_address",
          "type": "address"
        }
      ],
      "name": "setWethTokenAddress",
      "outputs": [],
      "stateMutability": "nonpayable",
      "type": "function"
    },
    {
      "inputs": [
        {
          "internalType": "address",
          "name": "_address",
          "type": "address"
        }
      ],
      "name": "setFinancialModelAddress",
      "outputs": [],
      "stateMutability": "nonpayable",
      "type": "function"
    },
    {
      "inputs": [
        {
          "internalType": "uint256",
          "name": "startTree",
          "type": "uint256"
        },
        {
          "internalType": "uint256",
          "name": "initialPrice",
          "type": "uint256"
        },
        {
          "internalType": "uint64",
          "name": "treeCount",
          "type": "uint64"
        },
        {
          "internalType": "uint64",
          "name": "steps",
          "type": "uint64"
        },
        {
          "internalType": "uint64",
          "name": "incrementRate",
          "type": "uint64"
        }
      ],
      "name": "addTreeSells",
      "outputs": [],
      "stateMutability": "nonpayable",
      "type": "function"
    },
    {
      "inputs": [
        {
          "internalType": "uint256",
          "name": "treeCount",
          "type": "uint256"
        }
      ],
      "name": "updateIncrementalEnd",
      "outputs": [],
      "stateMutability": "nonpayable",
      "type": "function"
    },
    {
      "inputs": [
        {
          "internalType": "uint256",
          "name": "treeId",
          "type": "uint256"
        }
      ],
      "name": "buyTree",
      "outputs": [],
      "stateMutability": "nonpayable",
      "type": "function"
    }
  ],
  "bytecode": "0x608060405234801561001057600080fd5b506119a7806100206000396000f3fe608060405234801561001057600080fd5b506004361061012c5760003560e01c8063572b6c05116100ad578063c4d66de811610071578063c4d66de81461032d578063ca24138f14610340578063d6762c4a14610353578063da74222814610366578063e787d40e1461037957600080fd5b8063572b6c05146102985780636acc9777146102c05780637da0a877146102d357806395b64603146102ec578063c1adf7bc146102ff57600080fd5b80633820661a116100f45780633820661a146101f5578063421ef6d414610208578063486ff0cd146102335780634b57b0be146102725780634fe044c41461028557600080fd5b80630bf351f8146101315780630f5f2fbb146101465780631c4722a3146101ab5780631de07982146101be5780632aad7f76146101e2575b600080fd5b61014461013f3660046116df565b61038c565b005b6006546007546008546009546101719392919067ffffffffffffffff80821691600160401b90041685565b6040805195865260208601949094529284019190915267ffffffffffffffff908116606084015216608082015260a0015b60405180910390f35b6101446101b93660046117fa565b61049e565b6000546101d290600160b01b900460ff1681565b60405190151581526020016101a2565b6101446101f03660046116df565b6108a5565b6101446102033660046117c8565b6109b7565b60025461021b906001600160a01b031681565b6040516001600160a01b0390911681526020016101a2565b604080518082018252601d81527f322e322e302b747265656a65722e6972656c6179726563697069656e74000000602082015290516101a29190611851565b60055461021b906001600160a01b031681565b6101446102933660046116df565b610b85565b6101d26102a63660046116df565b6000546201000090046001600160a01b0390811691161490565b6101446102ce3660046116df565b610c97565b60005461021b906201000090046001600160a01b031681565b60045461021b906001600160a01b031681565b61031f61030d3660046116df565b600a6020526000908152604090205481565b6040519081526020016101a2565b61014461033b3660046116df565b610d2a565b61014461034e3660046117c8565b610e91565b60015461021b906001600160a01b031681565b6101446103743660046116df565b6115db565b60035461021b906001600160a01b031681565b6001546001600160a01b0316638413ec146103a5611676565b6040516001600160e01b031960e084901b1681526001600160a01b03909116600482015260240160006040518083038186803b1580156103e457600080fd5b505afa1580156103f8573d6000803e3d6000fd5b505050506000819050806001600160a01b031663e0eb4eb96040518163ffffffff1660e01b815260040160206040518083038186803b15801561043a57600080fd5b505afa15801561044e573d6000803e3d6000fd5b505050506040513d601f19601f82011682018060405250810190610472919061170f565b61047b57600080fd5b600280546001600160a01b0319166001600160a01b039290921691909117905550565b6001546001600160a01b0316638413ec146104b7611676565b6040516001600160e01b031960e084901b1681526001600160a01b03909116600482015260240160006040518083038186803b1580156104f657600080fd5b505afa15801561050a573d6000803e3d6000fd5b5050505060008367ffffffffffffffff161161056d5760405162461bcd60e51b815260206004820152601860248201527f61737369676e206174206c65617374206f6e652074726565000000000000000060448201526064015b60405180910390fd5b606485116105bd5760405162461bcd60e51b815260206004820152601760248201527f74726565732061726520756e6465722041756374696f6e0000000000000000006044820152606401610564565b60008267ffffffffffffffff16116105e75760405162461bcd60e51b8152600401610564906118a6565b6004805460405163cb8b5da360e01b81529182018790526001600160a01b03169063cb8b5da39060240160206040518083038186803b15801561062957600080fd5b505afa15801561063d573d6000803e3d6000fd5b505050506040513d601f19601f82011682018060405250810190610661919061170f565b6106ad5760405162461bcd60e51b815260206004820181905260248201527f6571756976616c616e742066756e64204d6f64656c206e6f74206578697374736044820152606401610564565b60095460069067ffffffffffffffff161561072e5760025481546001830154604051635c8bbd2f60e01b8152600481019290925260248201526001600160a01b0390911690635c8bbd2f90604401600060405180830381600087803b15801561071557600080fd5b505af1158015610729573d6000803e3d6000fd5b505050505b6002546001600160a01b031663bc3af8228761075467ffffffffffffffff8816826118eb565b6040516001600160e01b031960e085901b1681526004810192909252602482015260026044820152606401602060405180830381600087803b15801561079957600080fd5b505af11580156107ad573d6000803e3d6000fd5b505050506040513d601f19601f820116820180604052508101906107d1919061170f565b61081d5760405162461bcd60e51b815260206004820181905260248201527f747265657320617265206e6f7420617661696c61626c6520666f722073656c6c6044820152606401610564565b85815561083467ffffffffffffffff8516876118eb565b60018201556002810185905560038101805467ffffffffffffffff848116600160401b026fffffffffffffffffffffffffffffffff19909216908616171790556040517f5618d1d2c644be58b1467e0209c0b0131da97c67e05fbc102b4d2cceaa59975090600090a1505050505050565b6001546001600160a01b0316638413ec146108be611676565b6040516001600160e01b031960e084901b1681526001600160a01b03909116600482015260240160006040518083038186803b1580156108fd57600080fd5b505afa158015610911573d6000803e3d6000fd5b505050506000819050806001600160a01b031663313b39376040518163ffffffff1660e01b815260040160206040518083038186803b15801561095357600080fd5b505afa158015610967573d6000803e3d6000fd5b505050506040513d601f19601f8201168201806040525081019061098b919061170f565b61099457600080fd5b600380546001600160a01b0319166001600160a01b039290921691909117905550565b6001546001600160a01b0316638413ec146109d0611676565b6040516001600160e01b031960e084901b1681526001600160a01b03909116600482015260240160006040518083038186803b158015610a0f57600080fd5b505afa158015610a23573d6000803e3d6000fd5b50506009546006925067ffffffffffffffff1615159050610a565760405162461bcd60e51b8152600401610564906118a6565b60025460018201546001600160a01b039091169063bc3af82290610a7a85826118eb565b6040516001600160e01b031960e085901b1681526004810192909252602482015260026044820152606401602060405180830381600087803b158015610abf57600080fd5b505af1158015610ad3573d6000803e3d6000fd5b505050506040513d601f19601f82011682018060405250810190610af7919061170f565b610b435760405162461bcd60e51b815260206004820181905260248201527f747265657320617265206e6f7420617661696c61626c6520666f722073656c6c6044820152606401610564565b818160010154610b5391906118eb565b60018201556040517f5618d1d2c644be58b1467e0209c0b0131da97c67e05fbc102b4d2cceaa59975090600090a15050565b6001546001600160a01b0316638413ec14610b9e611676565b6040516001600160e01b031960e084901b1681526001600160a01b03909116600482015260240160006040518083038186803b158015610bdd57600080fd5b505afa158015610bf1573d6000803e3d6000fd5b505050506000819050806001600160a01b031663966da5fb6040518163ffffffff1660e01b815260040160206040518083038186803b158015610c3357600080fd5b505afa158015610c47573d6000803e3d6000fd5b505050506040513d601f19601f82011682018060405250810190610c6b919061170f565b610c7457600080fd5b600480546001600160a01b0319166001600160a01b039290921691909117905550565b6001546001600160a01b0316638413ec14610cb0611676565b6040516001600160e01b031960e084901b1681526001600160a01b03909116600482015260240160006040518083038186803b158015610cef57600080fd5b505afa158015610d03573d6000803e3d6000fd5b5050600580546001600160a01b0319166001600160a01b0394909416939093179092555050565b600054610100900460ff1680610d43575060005460ff16155b610da65760405162461bcd60e51b815260206004820152602e60248201527f496e697469616c697a61626c653a20636f6e747261637420697320616c72656160448201526d191e481a5b9a5d1a585b1a5e995960921b6064820152608401610564565b600054610100900460ff16158015610dc8576000805461ffff19166101011790555b6000829050806001600160a01b031663ba84fd696040518163ffffffff1660e01b815260040160206040518083038186803b158015610e0657600080fd5b505afa158015610e1a573d6000803e3d6000fd5b505050506040513d601f19601f82011682018060405250810190610e3e919061170f565b610e4757600080fd5b6000805460ff60b01b1916600160b01b179055600180546001600160a01b039092166001600160a01b03199092169190911790558015610e8d576000805461ff00191690555b5050565b600160009054906101000a90046001600160a01b03166001600160a01b0316634d868f986040518163ffffffff1660e01b815260040160006040518083038186803b158015610edf57600080fd5b505afa158015610ef3573d6000803e3d6000fd5b505060075460069250831090508015610f0d575080548210155b610f595760405162461bcd60e51b815260206004820152601f60248201527f74726565206973206e6f7420696e20696e6372656d656e74616c2073656c6c006044820152606401610564565b6003810154815460009167ffffffffffffffff1690610f789085611944565b610f829190611903565b6003830154600284015491925060009161271091600160401b900467ffffffffffffffff1690610fb29085611925565b610fbc9190611925565b610fc69190611903565b8360020154610fd591906118eb565b90506000610fe56102bc42611944565b600a6000610ff1611676565b6001600160a01b03166001600160a01b031681526020019081526020016000205411156111e957606461102583605a611925565b61102f9190611903565b6005546001600160a01b03166370a08231611048611676565b6040516001600160e01b031960e084901b1681526001600160a01b03909116600482015260240160206040518083038186803b15801561108757600080fd5b505afa15801561109b573d6000803e3d6000fd5b505050506040513d601f19601f820116820180604052508101906110bf91906117e1565b10156110fe5760405162461bcd60e51b815260206004820152600e60248201526d1b1bddc81c1c9a58d9481c185a5960921b6044820152606401610564565b606461110b83605a611925565b6111159190611903565b6005549091506001600160a01b03166323b872dd611131611676565b60035460405160e084901b6001600160e01b03191681526001600160a01b0392831660048201529116602482015260448101849052606401602060405180830381600087803b15801561118357600080fd5b505af1158015611197573d6000803e3d6000fd5b505050506040513d601f19601f820116820180604052508101906111bb919061170f565b506000600a60006111ca611676565b6001600160a01b03168152602081019190915260400160002055611389565b60055482906001600160a01b03166370a08231611204611676565b6040516001600160e01b031960e084901b1681526001600160a01b03909116600482015260240160206040518083038186803b15801561124357600080fd5b505afa158015611257573d6000803e3d6000fd5b505050506040513d601f19601f8201168201806040525081019061127b91906117e1565b10156112ba5760405162461bcd60e51b815260206004820152600e60248201526d1b1bddc81c1c9a58d9481c185a5960921b6044820152606401610564565b5060055481906001600160a01b03166323b872dd6112d6611676565b60035460405160e084901b6001600160e01b03191681526001600160a01b0392831660048201529116602482015260448101849052606401602060405180830381600087803b15801561132857600080fd5b505af115801561133c573d6000803e3d6000fd5b505050506040513d601f19601f82011682018060405250810190611360919061170f565b5042600a600061136e611676565b6001600160a01b031681526020810191909152604001600020555b60048054604051631123660b60e31b815291820187905260009182918291829182918291829182916001600160a01b03169063891b30589060240161010060405180830381600087803b1580156113df57600080fd5b505af11580156113f3573d6000803e3d6000fd5b505050506040513d601f19601f820116820180604052508101906114179190611731565b97509750975097509750975097509750600360009054906101000a90046001600160a01b03166001600160a01b031663b36758328e8b8b8b8b8b8b8b8b8b6040518b63ffffffff1660e01b81526004016114c79a99989796959493929190998a5260208a019890985261ffff96871660408a01529486166060890152928516608088015290841660a0870152831660c0860152821660e08501528116610100840152166101208201526101400190565b600060405180830381600087803b1580156114e157600080fd5b505af11580156114f5573d6000803e3d6000fd5b50506002546001600160a01b0316915063b225afcb90508e611515611676565b6040516001600160e01b031960e085901b16815260048101929092526001600160a01b0316602482015260016044820152606401600060405180830381600087803b15801561156357600080fd5b505af1158015611577573d6000803e3d6000fd5b505050507fb55ff93e2d19c0774a8734020459e420f60fdcf9216f639f37af01b856cef9568d6115a5611676565b604080519283526001600160a01b03909116602083015281018b905260600160405180910390a150505050505050505050505050565b6001546001600160a01b0316638413ec146115f4611676565b6040516001600160e01b031960e084901b1681526001600160a01b03909116600482015260240160006040518083038186803b15801561163357600080fd5b505afa158015611647573d6000803e3d6000fd5b5050600080546001600160a01b03909416620100000262010000600160b01b0319909416939093179092555050565b60006014361080159061169957506000546201000090046001600160a01b031633145b156116ab575060131936013560601c90565b503390565b805161ffff811681146116c257600080fd5b919050565b803567ffffffffffffffff811681146116c257600080fd5b6000602082840312156116f157600080fd5b81356001600160a01b038116811461170857600080fd5b9392505050565b60006020828403121561172157600080fd5b8151801515811461170857600080fd5b600080600080600080600080610100898b03121561174e57600080fd5b611757896116b0565b975061176560208a016116b0565b965061177360408a016116b0565b955061178160608a016116b0565b945061178f60808a016116b0565b935061179d60a08a016116b0565b92506117ab60c08a016116b0565b91506117b960e08a016116b0565b90509295985092959890939650565b6000602082840312156117da57600080fd5b5035919050565b6000602082840312156117f357600080fd5b5051919050565b600080600080600060a0868803121561181257600080fd5b8535945060208601359350611829604087016116c7565b9250611837606087016116c7565b9150611845608087016116c7565b90509295509295909350565b600060208083528351808285015260005b8181101561187e57858101830151858201604001528201611862565b81811115611890576000604083870101525b50601f01601f1916929092016040019392505050565b60208082526025908201527f696e6372656d656e74616c20706572696f642073686f756c6420626520706f73604082015264697469766560d81b606082015260800190565b600082198211156118fe576118fe61195b565b500190565b60008261192057634e487b7160e01b600052601260045260246000fd5b500490565b600081600019048311821515161561193f5761193f61195b565b500290565b6000828210156119565761195661195b565b500390565b634e487b7160e01b600052601160045260246000fdfea264697066735822122012a7e9a0c699c922a04ef0cb2d6e798ca5b8ba6364fe3e40ce865759190ba78f64736f6c63430008060033",
  "immutableReferences": {},
  "source": "// // SPDX-License-Identifier: MIT\npragma solidity ^0.8.6;\n\nimport \"@openzeppelin/contracts-upgradeable/proxy/utils/Initializable.sol\";\nimport \"@openzeppelin/contracts-upgradeable/token/ERC20/IERC20Upgradeable.sol\";\nimport \"../access/IAccessRestriction.sol\";\nimport \"../tree/ITreeFactory.sol\";\nimport \"../treasury/IWethFunds.sol\";\nimport \"../treasury/IFinancialModel.sol\";\nimport \"../gsn/RelayRecipient.sol\";\n\ncontract IncrementalSell is Initializable, RelayRecipient {\n    bool public isIncrementalSell;\n\n    IAccessRestriction public accessRestriction;\n    ITreeFactory public treeFactory;\n    IWethFunds public wethFunds;\n    IFinancialModel public financialModel;\n    IERC20Upgradeable public wethToken;\n\n    struct IncrementalPrice {\n        uint256 startTree;\n        uint256 endTree;\n        uint256 initialPrice;\n        uint64 increaseStep;\n        uint64 increaseRatio;\n    }\n\n    IncrementalPrice public incrementalPrice;\n\n    mapping(address => uint256) public lastBuy;\n\n    event IncrementalTreeSold(uint256 treeId, address buyer, uint256 amount);\n    event IncrementalSellUpdated();\n\n    modifier onlyAdmin() {\n        accessRestriction.ifAdmin(_msgSender());\n        _;\n    }\n\n    modifier ifNotPaused() {\n        accessRestriction.ifNotPaused();\n        _;\n    }\n\n    function initialize(address _accessRestrictionAddress) public initializer {\n        IAccessRestriction candidateContract = IAccessRestriction(\n            _accessRestrictionAddress\n        );\n        require(candidateContract.isAccessRestriction());\n        isIncrementalSell = true;\n        accessRestriction = candidateContract;\n    }\n\n    function setTrustedForwarder(address _address) external onlyAdmin {\n        trustedForwarder = _address;\n    }\n\n    function setTreeFactoryAddress(address _address) external onlyAdmin {\n        ITreeFactory candidateContract = ITreeFactory(_address);\n        require(candidateContract.isTreeFactory());\n        treeFactory = candidateContract;\n    }\n\n    /** @dev set wethFunds contract address\n     * @param _address wethFunds contract address\n     */\n    function setWethFundsAddress(address _address) external onlyAdmin {\n        IWethFunds candidateContract = IWethFunds(_address);\n\n        require(candidateContract.isWethFunds());\n\n        wethFunds = candidateContract;\n    }\n\n    /** @dev set wethToken contract address\n     * @param _address wethToken contract address\n     */\n    function setWethTokenAddress(address _address) external onlyAdmin {\n        IERC20Upgradeable candidateContract = IERC20Upgradeable(_address);\n        wethToken = candidateContract;\n    }\n\n    /**\n     * @dev admin set FinancialModelAddress\n     * @param _address set to the address of financialModel\n     */\n\n    function setFinancialModelAddress(address _address) external onlyAdmin {\n        IFinancialModel candidateContract = IFinancialModel(_address);\n        require(candidateContract.isFinancialModel());\n        financialModel = candidateContract;\n    }\n\n    function addTreeSells(\n        uint256 startTree,\n        uint256 initialPrice,\n        uint64 treeCount,\n        uint64 steps,\n        uint64 incrementRate\n    ) external onlyAdmin {\n        require(treeCount > 0, \"assign at least one tree\");\n        require(startTree > 100, \"trees are under Auction\");\n        require(steps > 0, \"incremental period should be positive\");\n        require(\n            financialModel.distributionModelExistance(startTree),\n            \"equivalant fund Model not exists\"\n        );\n        IncrementalPrice storage incrPrice = incrementalPrice;\n\n        if (incrPrice.increaseStep > 0) {\n            treeFactory.bulkRevert(incrPrice.startTree, incrPrice.endTree);\n        }\n\n        require(\n            treeFactory.manageProvideStatus(\n                startTree,\n                startTree + treeCount,\n                2\n            ),\n            \"trees are not available for sell\"\n        );\n\n        incrPrice.startTree = startTree;\n        incrPrice.endTree = startTree + treeCount;\n        incrPrice.initialPrice = initialPrice;\n        incrPrice.increaseStep = steps;\n        incrPrice.increaseRatio = incrementRate;\n\n        emit IncrementalSellUpdated();\n    }\n\n    function updateIncrementalEnd(uint256 treeCount) external onlyAdmin {\n        IncrementalPrice storage incrPrice = incrementalPrice;\n        require(\n            incrPrice.increaseStep > 0,\n            \"incremental period should be positive\"\n        );\n        require(\n            treeFactory.manageProvideStatus(\n                incrPrice.endTree,\n                incrPrice.endTree + treeCount,\n                2\n            ),\n            \"trees are not available for sell\"\n        );\n        incrPrice.endTree = incrPrice.endTree + treeCount;\n\n        emit IncrementalSellUpdated();\n    }\n\n    function buyTree(uint256 treeId) external ifNotPaused {\n        //check if treeId is in this incrementalSell\n        IncrementalPrice storage incPrice = incrementalPrice;\n\n        require(\n            treeId < incPrice.endTree && treeId >= incPrice.startTree,\n            \"tree is not in incremental sell\"\n        );\n\n        //calc tree price based on treeId\n        uint256 steps = (treeId - incPrice.startTree) / incPrice.increaseStep;\n        uint256 treePrice = incPrice.initialPrice +\n            (steps * incPrice.initialPrice * incPrice.increaseRatio) /\n            10000;\n\n        uint256 amount;\n\n        //checking price paid is enough for buying the treeId checking discounts\n        if (lastBuy[_msgSender()] > block.timestamp - 700 seconds) {\n            require(\n                wethToken.balanceOf(_msgSender()) >= (treePrice * 90) / 100,\n                \"low price paid\"\n            );\n\n            amount = (treePrice * 90) / 100;\n\n            wethToken.transferFrom(_msgSender(), address(wethFunds), amount);\n\n            lastBuy[_msgSender()] = 0;\n        } else {\n            require(\n                wethToken.balanceOf(_msgSender()) >= treePrice,\n                \"low price paid\"\n            );\n\n            amount = treePrice;\n\n            wethToken.transferFrom(_msgSender(), address(wethFunds), amount);\n\n            lastBuy[_msgSender()] = block.timestamp;\n        }\n\n        (\n            uint16 planterFund,\n            uint16 referralFund,\n            uint16 treeResearch,\n            uint16 localDevelop,\n            uint16 rescueFund,\n            uint16 treejerDevelop,\n            uint16 reserveFund1,\n            uint16 reserveFund2\n        ) = financialModel.findTreeDistribution(treeId);\n\n        wethFunds.fundTree(\n            treeId,\n            amount,\n            planterFund,\n            referralFund,\n            treeResearch,\n            localDevelop,\n            rescueFund,\n            treejerDevelop,\n            reserveFund1,\n            reserveFund2\n        );\n\n        treeFactory.updateOwner(treeId, _msgSender(), 1);\n\n        emit IncrementalTreeSold(treeId, _msgSender(), amount);\n    }\n}\n",
  "sourcePath": "/home/ali/Desktop/treejer/contract/contracts/incrementalSell/IncrementalSell.sol",
  "compiler": {
    "name": "solc",
    "version": "0.8.6+commit.11564f7e.Emscripten.clang"
  },
  "schemaVersion": "3.4.1",
  "updatedAt": "2021-08-13T05:27:22.799Z",
  "networkType": "ethereum",
  "devdoc": {
    "kind": "dev",
    "methods": {
      "setFinancialModelAddress(address)": {
        "details": "admin set FinancialModelAddress",
        "params": {
          "_address": "set to the address of financialModel"
        }
      },
      "setWethFundsAddress(address)": {
        "details": "set wethFunds contract address",
        "params": {
          "_address": "wethFunds contract address"
        }
      },
      "setWethTokenAddress(address)": {
        "details": "set wethToken contract address",
        "params": {
          "_address": "wethToken contract address"
        }
      }
    },
    "version": 1
  },
  "userdoc": {
    "kind": "user",
    "methods": {
      "isTrustedForwarder(address)": {
        "notice": "return if the forwarder is trusted to forward relayed transactions to us. the forwarder is required to verify the sender's signature, and verify the call is not a replay."
      }
    },
    "version": 1
  }
}