{
  "contractName": "IncrementalSale",
  "abi": [
    {
      "anonymous": false,
      "inputs": [],
      "name": "IncrementalSaleDataUpdated",
      "type": "event"
    },
    {
      "anonymous": false,
      "inputs": [],
      "name": "IncrementalSaleUpdated",
      "type": "event"
    },
    {
      "anonymous": false,
      "inputs": [
        {
          "indexed": false,
          "internalType": "address",
          "name": "funder",
          "type": "address"
        },
        {
          "indexed": false,
          "internalType": "address",
          "name": "recipient",
          "type": "address"
        },
        {
          "indexed": false,
          "internalType": "address",
          "name": "referrer",
          "type": "address"
        },
        {
          "indexed": false,
          "internalType": "uint256",
          "name": "startTreeId",
          "type": "uint256"
        },
        {
          "indexed": false,
          "internalType": "uint256",
          "name": "count",
          "type": "uint256"
        }
      ],
      "name": "TreeFunded",
      "type": "event"
    },
    {
      "inputs": [],
      "name": "accessRestriction",
      "outputs": [
        {
          "internalType": "contract IAccessRestriction",
          "name": "",
          "type": "address"
        }
      ],
      "stateMutability": "view",
      "type": "function",
      "constant": true
    },
    {
      "inputs": [],
      "name": "allocation",
      "outputs": [
        {
          "internalType": "contract IAllocation",
          "name": "",
          "type": "address"
        }
      ],
      "stateMutability": "view",
      "type": "function",
      "constant": true
    },
    {
      "inputs": [],
      "name": "attribute",
      "outputs": [
        {
          "internalType": "contract IAttribute",
          "name": "",
          "type": "address"
        }
      ],
      "stateMutability": "view",
      "type": "function",
      "constant": true
    },
    {
      "inputs": [],
      "name": "incrementalSaleData",
      "outputs": [
        {
          "internalType": "uint256",
          "name": "startTreeId",
          "type": "uint256"
        },
        {
          "internalType": "uint256",
          "name": "endTreeId",
          "type": "uint256"
        },
        {
          "internalType": "uint256",
          "name": "initialPrice",
          "type": "uint256"
        },
        {
          "internalType": "uint64",
          "name": "increments",
          "type": "uint64"
        },
        {
          "internalType": "uint64",
          "name": "priceJump",
          "type": "uint64"
        }
      ],
      "stateMutability": "view",
      "type": "function",
      "constant": true
    },
    {
      "inputs": [],
      "name": "isIncrementalSale",
      "outputs": [
        {
          "internalType": "bool",
          "name": "",
          "type": "bool"
        }
      ],
      "stateMutability": "view",
      "type": "function",
      "constant": true
    },
    {
      "inputs": [],
      "name": "lastSold",
      "outputs": [
        {
          "internalType": "uint256",
          "name": "",
          "type": "uint256"
        }
      ],
      "stateMutability": "view",
      "type": "function",
      "constant": true
    },
    {
      "inputs": [],
      "name": "planterFundContract",
      "outputs": [
        {
          "internalType": "contract IPlanterFund",
          "name": "",
          "type": "address"
        }
      ],
      "stateMutability": "view",
      "type": "function",
      "constant": true
    },
    {
      "inputs": [],
      "name": "regularSale",
      "outputs": [
        {
          "internalType": "contract IRegularSale",
          "name": "",
          "type": "address"
        }
      ],
      "stateMutability": "view",
      "type": "function",
      "constant": true
    },
    {
      "inputs": [],
      "name": "treeFactory",
      "outputs": [
        {
          "internalType": "contract ITreeFactory",
          "name": "",
          "type": "address"
        }
      ],
      "stateMutability": "view",
      "type": "function",
      "constant": true
    },
    {
      "inputs": [],
      "name": "wethFund",
      "outputs": [
        {
          "internalType": "contract IWethFund",
          "name": "",
          "type": "address"
        }
      ],
      "stateMutability": "view",
      "type": "function",
      "constant": true
    },
    {
      "inputs": [],
      "name": "wethToken",
      "outputs": [
        {
          "internalType": "contract IERC20Upgradeable",
          "name": "",
          "type": "address"
        }
      ],
      "stateMutability": "view",
      "type": "function",
      "constant": true
    },
    {
      "inputs": [
        {
          "internalType": "address",
          "name": "_accessRestrictionAddress",
          "type": "address"
        }
      ],
      "name": "initialize",
      "outputs": [],
      "stateMutability": "nonpayable",
      "type": "function"
    },
    {
      "inputs": [
        {
          "internalType": "address",
          "name": "_address",
          "type": "address"
        }
      ],
      "name": "setPlanterFundAddress",
      "outputs": [],
      "stateMutability": "nonpayable",
      "type": "function"
    },
    {
      "inputs": [
        {
          "internalType": "address",
          "name": "_address",
          "type": "address"
        }
      ],
      "name": "setRegularSaleAddress",
      "outputs": [],
      "stateMutability": "nonpayable",
      "type": "function"
    },
    {
      "inputs": [
        {
          "internalType": "address",
          "name": "_address",
          "type": "address"
        }
      ],
      "name": "setTreeFactoryAddress",
      "outputs": [],
      "stateMutability": "nonpayable",
      "type": "function"
    },
    {
      "inputs": [
        {
          "internalType": "address",
          "name": "_address",
          "type": "address"
        }
      ],
      "name": "setWethFundAddress",
      "outputs": [],
      "stateMutability": "nonpayable",
      "type": "function"
    },
    {
      "inputs": [
        {
          "internalType": "address",
          "name": "_address",
          "type": "address"
        }
      ],
      "name": "setWethTokenAddress",
      "outputs": [],
      "stateMutability": "nonpayable",
      "type": "function"
    },
    {
      "inputs": [
        {
          "internalType": "address",
          "name": "_address",
          "type": "address"
        }
      ],
      "name": "setAllocationAddress",
      "outputs": [],
      "stateMutability": "nonpayable",
      "type": "function"
    },
    {
      "inputs": [
        {
          "internalType": "address",
          "name": "_address",
          "type": "address"
        }
      ],
      "name": "setAttributesAddress",
      "outputs": [],
      "stateMutability": "nonpayable",
      "type": "function"
    },
    {
      "inputs": [
        {
          "internalType": "uint256",
          "name": "_startTreeId",
          "type": "uint256"
        },
        {
          "internalType": "uint256",
          "name": "_initialPrice",
          "type": "uint256"
        },
        {
          "internalType": "uint64",
          "name": "_treeCount",
          "type": "uint64"
        },
        {
          "internalType": "uint64",
          "name": "_increments",
          "type": "uint64"
        },
        {
          "internalType": "uint64",
          "name": "_priceJump",
          "type": "uint64"
        }
      ],
      "name": "createIncrementalSale",
      "outputs": [],
      "stateMutability": "nonpayable",
      "type": "function"
    },
    {
      "inputs": [
        {
          "internalType": "uint256",
          "name": "_count",
          "type": "uint256"
        }
      ],
      "name": "removeIncrementalSale",
      "outputs": [],
      "stateMutability": "nonpayable",
      "type": "function"
    },
    {
      "inputs": [
        {
          "internalType": "uint256",
          "name": "_treeCount",
          "type": "uint256"
        }
      ],
      "name": "updateEndTreeId",
      "outputs": [],
      "stateMutability": "nonpayable",
      "type": "function"
    },
    {
      "inputs": [
        {
          "internalType": "uint256",
          "name": "_count",
          "type": "uint256"
        },
        {
          "internalType": "address",
          "name": "_referrer",
          "type": "address"
        },
        {
          "internalType": "address",
          "name": "_recipient",
          "type": "address"
        },
        {
          "internalType": "uint256",
          "name": "_minDaiOut",
          "type": "uint256"
        }
      ],
      "name": "fundTree",
      "outputs": [],
      "stateMutability": "nonpayable",
      "type": "function"
    },
    {
      "inputs": [
        {
          "internalType": "uint256",
          "name": "_initialPrice",
          "type": "uint256"
        },
        {
          "internalType": "uint64",
          "name": "_increments",
          "type": "uint64"
        },
        {
          "internalType": "uint64",
          "name": "_priceJump",
          "type": "uint64"
        }
      ],
      "name": "updateIncrementalSaleData",
      "outputs": [],
      "stateMutability": "nonpayable",
      "type": "function"
    }
  ],
  "bytecode": "0x608060405234801561001057600080fd5b506132f9806100206000396000f3fe608060405234801561001057600080fd5b50600436106101985760003560e01c80636fa627bb116100e3578063c4d66de81161008c578063e81c4c3e11610066578063e81c4c3e14610415578063efc8577014610428578063f7dff4b01461043f57600080fd5b8063c4d66de8146103cf578063c96bd9ee146103e2578063d6762c4a146103f557600080fd5b806388a17bde116100bd57806388a17bde1461037c57806395ab5aa51461039c578063a31250f8146103bc57600080fd5b80636fa627bb1461033657806380d663ea14610349578063881e4cb41461036957600080fd5b80634ad07f9e1161014557806359bac35b1161011f57806359bac35b146102fd5780636acc9777146103105780636d1f65ef1461032357600080fd5b80634ad07f9e146102b75780634b57b0be146102ca57806351978592146102ea57600080fd5b80633e93de6c116101765780633e93de6c1461020f578063421ef6d41461023257806345c4f8cd1461025257600080fd5b80630bf351f81461019d57806314b42c77146101b25780633b3780d3146101fc575b600080fd5b6101b06101ab366004612f39565b61045f565b005b600a546101d29073ffffffffffffffffffffffffffffffffffffffff1681565b60405173ffffffffffffffffffffffffffffffffffffffff90911681526020015b60405180910390f35b6101b061020a3660046130e1565b6105b4565b6000546102229062010000900460ff1681565b60405190151581526020016101f3565b6007546101d29073ffffffffffffffffffffffffffffffffffffffff1681565b6002546003546004546005546102829392919067ffffffffffffffff808216916801000000000000000090041685565b6040805195865260208601949094529284019190915267ffffffffffffffff908116606084015216608082015260a0016101f3565b6101b06102c5366004612f39565b610822565b600d546101d29073ffffffffffffffffffffffffffffffffffffffff1681565b6101b06102f8366004613046565b610977565b6101b061030b366004612f39565b610e8d565b6101b061031e366004612f39565b610fe2565b6101b061033136600461308a565b61112a565b6101b0610344366004613014565b61170b565b600b546101d29073ffffffffffffffffffffffffffffffffffffffff1681565b6101b0610377366004612f39565b6119f3565b6009546101d29073ffffffffffffffffffffffffffffffffffffffff1681565b600c546101d29073ffffffffffffffffffffffffffffffffffffffff1681565b6101b06103ca366004613014565b611b48565b6101b06103dd366004612f39565b611ea4565b6101b06103f0366004612f39565b6120ba565b6006546101d29073ffffffffffffffffffffffffffffffffffffffff1681565b6101b0610423366004612f39565b61220f565b61043160015481565b6040519081526020016101f3565b6008546101d29073ffffffffffffffffffffffffffffffffffffffff1681565b6006546040517f8413ec1400000000000000000000000000000000000000000000000000000000815233600482015273ffffffffffffffffffffffffffffffffffffffff90911690638413ec149060240160006040518083038186803b1580156104c857600080fd5b505afa1580156104dc573d6000803e3d6000fd5b5050505060008190508073ffffffffffffffffffffffffffffffffffffffff1663e0eb4eb96040518163ffffffff1660e01b815260040160206040518083038186803b15801561052b57600080fd5b505afa15801561053f573d6000803e3d6000fd5b505050506040513d601f19601f820116820180604052508101906105639190612f5b565b61056c57600080fd5b600780547fffffffffffffffffffffffff00000000000000000000000000000000000000001673ffffffffffffffffffffffffffffffffffffffff9290921691909117905550565b600660009054906101000a900473ffffffffffffffffffffffffffffffffffffffff1673ffffffffffffffffffffffffffffffffffffffff16634d868f986040518163ffffffff1660e01b815260040160006040518083038186803b15801561061c57600080fd5b505afa158015610630573d6000803e3d6000fd5b50506006546040517fc4d2a31b00000000000000000000000000000000000000000000000000000000815233600482015273ffffffffffffffffffffffffffffffffffffffff909116925063c4d2a31b915060240160006040518083038186803b15801561069d57600080fd5b505afa1580156106b1573d6000803e3d6000fd5b5050505060008267ffffffffffffffff161161072e576040517f08c379a000000000000000000000000000000000000000000000000000000000815260206004820152601260248201527f496e76616c696420696e6372656d656e7473000000000000000000000000000060448201526064015b60405180910390fd5b60055460029067ffffffffffffffff166107a4576040517f08c379a000000000000000000000000000000000000000000000000000000000815260206004820152600a60248201527f4e6f7420657869737473000000000000000000000000000000000000000000006044820152606401610725565b6002810184905560038101805467ffffffffffffffff84811668010000000000000000027fffffffffffffffffffffffffffffffff00000000000000000000000000000000909216908616171790556040517f7f6a0aab5a693fe5abfbdbea247da773975456d0f806b8d96cecd07ab4adef4f90600090a150505050565b6006546040517f8413ec1400000000000000000000000000000000000000000000000000000000815233600482015273ffffffffffffffffffffffffffffffffffffffff90911690638413ec149060240160006040518083038186803b15801561088b57600080fd5b505afa15801561089f573d6000803e3d6000fd5b5050505060008190508073ffffffffffffffffffffffffffffffffffffffff1663349904da6040518163ffffffff1660e01b815260040160206040518083038186803b1580156108ee57600080fd5b505afa158015610902573d6000803e3d6000fd5b505050506040513d601f19601f820116820180604052508101906109269190612f5b565b61092f57600080fd5b600b80547fffffffffffffffffffffffff00000000000000000000000000000000000000001673ffffffffffffffffffffffffffffffffffffffff9290921691909117905550565b600660009054906101000a900473ffffffffffffffffffffffffffffffffffffffff1673ffffffffffffffffffffffffffffffffffffffff16634d868f986040518163ffffffff1660e01b815260040160006040518083038186803b1580156109df57600080fd5b505afa1580156109f3573d6000803e3d6000fd5b50505050603384108015610a075750600084115b610a6d576040517f08c379a000000000000000000000000000000000000000000000000000000000815260206004820152600d60248201527f496e76616c696420636f756e74000000000000000000000000000000000000006044820152606401610725565b60035460015460029190610a82908790613140565b10610ae9576040517f08c379a000000000000000000000000000000000000000000000000000000000815260206004820152601160248201527f496e73756666696369656e7420747265650000000000000000000000000000006044820152606401610725565b600073ffffffffffffffffffffffffffffffffffffffff841615610b0d5783610b0f565b335b90508473ffffffffffffffffffffffffffffffffffffffff168173ffffffffffffffffffffffffffffffffffffffff161415610ba7576040517f08c379a000000000000000000000000000000000000000000000000000000000815260206004820152601060248201527f496e76616c6964207265666572726572000000000000000000000000000000006044820152606401610725565b60006001546001610bb89190613140565b90506000610bc68289612364565b600d546040517f70a08231000000000000000000000000000000000000000000000000000000008152336004820152919250829173ffffffffffffffffffffffffffffffffffffffff909116906370a082319060240160206040518083038186803b158015610c3457600080fd5b505afa158015610c48573d6000803e3d6000fd5b505050506040513d601f19601f82011682018060405250810190610c6c919061302d565b1015610cd4576040517f08c379a000000000000000000000000000000000000000000000000000000000815260206004820152601460248201527f496e73756666696369656e742062616c616e63650000000000000000000000006044820152606401610725565b600d546008546040517f23b872dd00000000000000000000000000000000000000000000000000000000815233600482015273ffffffffffffffffffffffffffffffffffffffff91821660248201526044810184905260009291909116906323b872dd90606401602060405180830381600087803b158015610d5557600080fd5b505af1158015610d69573d6000803e3d6000fd5b505050506040513d601f19601f82011682018060405250810190610d8d9190612f5b565b905080610df6576040517f08c379a000000000000000000000000000000000000000000000000000000000815260206004820152601560248201527f556e7375636365737366756c207472616e7366657200000000000000000000006044820152606401610725565b610e05838a33878c878c6124ce565b6001610e118a85613140565b610e1b9190613244565b6001556040805133815273ffffffffffffffffffffffffffffffffffffffff86811660208301528a168183015260608101859052608081018b905290517f036c2aedd2a9fd7043cbdabf33e199aa70cdf09074e600cf862dea17b004188c9181900360a00190a1505050505050505050565b6006546040517f8413ec1400000000000000000000000000000000000000000000000000000000815233600482015273ffffffffffffffffffffffffffffffffffffffff90911690638413ec149060240160006040518083038186803b158015610ef657600080fd5b505afa158015610f0a573d6000803e3d6000fd5b5050505060008190508073ffffffffffffffffffffffffffffffffffffffff16632f10d7956040518163ffffffff1660e01b815260040160206040518083038186803b158015610f5957600080fd5b505afa158015610f6d573d6000803e3d6000fd5b505050506040513d601f19601f82011682018060405250810190610f919190612f5b565b610f9a57600080fd5b600980547fffffffffffffffffffffffff00000000000000000000000000000000000000001673ffffffffffffffffffffffffffffffffffffffff9290921691909117905550565b6006546040517f8413ec1400000000000000000000000000000000000000000000000000000000815233600482015273ffffffffffffffffffffffffffffffffffffffff90911690638413ec149060240160006040518083038186803b15801561104b57600080fd5b505afa15801561105f573d6000803e3d6000fd5b50839250505073ffffffffffffffffffffffffffffffffffffffff81166110e2576040517f08c379a000000000000000000000000000000000000000000000000000000000815260206004820152600f60248201527f496e76616c6964206164647265737300000000000000000000000000000000006044820152606401610725565b50600d80547fffffffffffffffffffffffff00000000000000000000000000000000000000001673ffffffffffffffffffffffffffffffffffffffff92909216919091179055565b600660009054906101000a900473ffffffffffffffffffffffffffffffffffffffff1673ffffffffffffffffffffffffffffffffffffffff16634d868f986040518163ffffffff1660e01b815260040160006040518083038186803b15801561119257600080fd5b505afa1580156111a6573d6000803e3d6000fd5b50506006546040517fc4d2a31b00000000000000000000000000000000000000000000000000000000815233600482015273ffffffffffffffffffffffffffffffffffffffff909116925063c4d2a31b915060240160006040518083038186803b15801561121357600080fd5b505afa158015611227573d6000803e3d6000fd5b5050505060008367ffffffffffffffff1611801561125057506101f58367ffffffffffffffff16105b6112b6576040517f08c379a000000000000000000000000000000000000000000000000000000000815260206004820152601160248201527f496e76616c69642074726565436f756e740000000000000000000000000000006044820152606401610725565b60648511611320576040517f08c379a000000000000000000000000000000000000000000000000000000000815260206004820152601360248201527f496e76616c6964207374617274547265654964000000000000000000000000006044820152606401610725565b60008267ffffffffffffffff1611611394576040517f08c379a000000000000000000000000000000000000000000000000000000000815260206004820152601260248201527f496e76616c696420696e6372656d656e747300000000000000000000000000006044820152606401610725565b600180546002916113a59190613140565b816001015414806113c25750600381015467ffffffffffffffff16155b611428576040517f08c379a000000000000000000000000000000000000000000000000000000000815260206004820152600b60248201527f43616e74206372656174650000000000000000000000000000000000000000006044820152606401610725565b6009546040517f8ea4e59f0000000000000000000000000000000000000000000000000000000081526004810188905273ffffffffffffffffffffffffffffffffffffffff90911690638ea4e59f9060240160206040518083038186803b15801561149257600080fd5b505afa1580156114a6573d6000803e3d6000fd5b505050506040513d601f19601f820116820180604052508101906114ca9190612f5b565b611530576040517f08c379a000000000000000000000000000000000000000000000000000000000815260206004820152601560248201527f416c6c6f636174696f6e206e6f742065786973747300000000000000000000006044820152606401610725565b60075473ffffffffffffffffffffffffffffffffffffffff16636a58d22c8761156367ffffffffffffffff881682613140565b6040517fffffffff0000000000000000000000000000000000000000000000000000000060e085901b1681526004810192909252602482015260026044820152606401602060405180830381600087803b1580156115c057600080fd5b505af11580156115d4573d6000803e3d6000fd5b505050506040513d601f19601f820116820180604052508101906115f89190612f5b565b61165e576040517f08c379a000000000000000000000000000000000000000000000000000000000815260206004820152601360248201527f5472656573206e6f7420617661696c61626c65000000000000000000000000006044820152606401610725565b85815561167567ffffffffffffffff851687613140565b6001808301919091556002820186905560038201805467ffffffffffffffff85811668010000000000000000027fffffffffffffffffffffffffffffffff00000000000000000000000000000000909216908716171790556116d79087613244565b6001556040517f7fca326170516a3030cd5655f7c17f2ab58d4060795b758991ee82342c39bd9390600090a1505050505050565b600660009054906101000a900473ffffffffffffffffffffffffffffffffffffffff1673ffffffffffffffffffffffffffffffffffffffff16634d868f986040518163ffffffff1660e01b815260040160006040518083038186803b15801561177357600080fd5b505afa158015611787573d6000803e3d6000fd5b50506006546040517fc4d2a31b00000000000000000000000000000000000000000000000000000000815233600482015273ffffffffffffffffffffffffffffffffffffffff909116925063c4d2a31b915060240160006040518083038186803b1580156117f457600080fd5b505afa158015611808573d6000803e3d6000fd5b5050505060008111801561181d57506101f581105b611883576040517f08c379a000000000000000000000000000000000000000000000000000000000815260206004820152600d60248201527f496e76616c696420636f756e74000000000000000000000000000000000000006044820152606401610725565b60028054600090611895908490613140565b600383015490915067ffffffffffffffff16158015906118b9575081600101548111155b61191f576040517f08c379a000000000000000000000000000000000000000000000000000000000815260206004820152600b60248201527f43616e742072656d6f76650000000000000000000000000000000000000000006044820152606401610725565b60075482546040517f713507bb0000000000000000000000000000000000000000000000000000000081526004810191909152602481018390526002604482015273ffffffffffffffffffffffffffffffffffffffff9091169063713507bb90606401600060405180830381600087803b15801561199c57600080fd5b505af11580156119b0573d6000803e3d6000fd5b505050818355506119c2600182613244565b6001556040517f7fca326170516a3030cd5655f7c17f2ab58d4060795b758991ee82342c39bd9390600090a1505050565b6006546040517f8413ec1400000000000000000000000000000000000000000000000000000000815233600482015273ffffffffffffffffffffffffffffffffffffffff90911690638413ec149060240160006040518083038186803b158015611a5c57600080fd5b505afa158015611a70573d6000803e3d6000fd5b5050505060008190508073ffffffffffffffffffffffffffffffffffffffff1663a6cd16fd6040518163ffffffff1660e01b815260040160206040518083038186803b158015611abf57600080fd5b505afa158015611ad3573d6000803e3d6000fd5b505050506040513d601f19601f82011682018060405250810190611af79190612f5b565b611b0057600080fd5b600880547fffffffffffffffffffffffff00000000000000000000000000000000000000001673ffffffffffffffffffffffffffffffffffffffff9290921691909117905550565b600660009054906101000a900473ffffffffffffffffffffffffffffffffffffffff1673ffffffffffffffffffffffffffffffffffffffff16634d868f986040518163ffffffff1660e01b815260040160006040518083038186803b158015611bb057600080fd5b505afa158015611bc4573d6000803e3d6000fd5b50506006546040517fc4d2a31b00000000000000000000000000000000000000000000000000000000815233600482015273ffffffffffffffffffffffffffffffffffffffff909116925063c4d2a31b915060240160006040518083038186803b158015611c3157600080fd5b505afa158015611c45573d6000803e3d6000fd5b50505050600081118015611c5a57506101f581105b611cc0576040517f08c379a000000000000000000000000000000000000000000000000000000000815260206004820152600d60248201527f496e76616c696420636f756e74000000000000000000000000000000000000006044820152606401610725565b60055460029067ffffffffffffffff16611d36576040517f08c379a000000000000000000000000000000000000000000000000000000000815260206004820152600a60248201527f4e6f7420657869737473000000000000000000000000000000000000000000006044820152606401610725565b600754600182015473ffffffffffffffffffffffffffffffffffffffff90911690636a58d22c90611d678582613140565b6040517fffffffff0000000000000000000000000000000000000000000000000000000060e085901b1681526004810192909252602482015260026044820152606401602060405180830381600087803b158015611dc457600080fd5b505af1158015611dd8573d6000803e3d6000fd5b505050506040513d601f19601f82011682018060405250810190611dfc9190612f5b565b611e62576040517f08c379a000000000000000000000000000000000000000000000000000000000815260206004820152601360248201527f5472656573206e6f7420617661696c61626c65000000000000000000000000006044820152606401610725565b818160010154611e729190613140565b60018201556040517f7fca326170516a3030cd5655f7c17f2ab58d4060795b758991ee82342c39bd9390600090a15050565b600054610100900460ff1680611ebd575060005460ff16155b611f49576040517f08c379a000000000000000000000000000000000000000000000000000000000815260206004820152602e60248201527f496e697469616c697a61626c653a20636f6e747261637420697320616c72656160448201527f647920696e697469616c697a65640000000000000000000000000000000000006064820152608401610725565b600054610100900460ff16158015611f8857600080547fffffffffffffffffffffffffffffffffffffffffffffffffffffffffffff0000166101011790555b60008290508073ffffffffffffffffffffffffffffffffffffffff1663ba84fd696040518163ffffffff1660e01b815260040160206040518083038186803b158015611fd357600080fd5b505afa158015611fe7573d6000803e3d6000fd5b505050506040513d601f19601f8201168201806040525081019061200b9190612f5b565b61201457600080fd5b600080547fffffffffffffffffffffffffffffffffffffffffffffffffffffffffff00ffff16620100001790556006805473ffffffffffffffffffffffffffffffffffffffff9092167fffffffffffffffffffffffff000000000000000000000000000000000000000090921691909117905580156120b657600080547fffffffffffffffffffffffffffffffffffffffffffffffffffffffffffff00ff1690555b5050565b6006546040517f8413ec1400000000000000000000000000000000000000000000000000000000815233600482015273ffffffffffffffffffffffffffffffffffffffff90911690638413ec149060240160006040518083038186803b15801561212357600080fd5b505afa158015612137573d6000803e3d6000fd5b5050505060008190508073ffffffffffffffffffffffffffffffffffffffff166313e939e26040518163ffffffff1660e01b815260040160206040518083038186803b15801561218657600080fd5b505afa15801561219a573d6000803e3d6000fd5b505050506040513d601f19601f820116820180604052508101906121be9190612f5b565b6121c757600080fd5b600a80547fffffffffffffffffffffffff00000000000000000000000000000000000000001673ffffffffffffffffffffffffffffffffffffffff9290921691909117905550565b6006546040517f8413ec1400000000000000000000000000000000000000000000000000000000815233600482015273ffffffffffffffffffffffffffffffffffffffff90911690638413ec149060240160006040518083038186803b15801561227857600080fd5b505afa15801561228c573d6000803e3d6000fd5b5050505060008190508073ffffffffffffffffffffffffffffffffffffffff16636a837c8e6040518163ffffffff1660e01b815260040160206040518083038186803b1580156122db57600080fd5b505afa1580156122ef573d6000803e3d6000fd5b505050506040513d601f19601f820116820180604052508101906123139190612f5b565b61231c57600080fd5b600c80547fffffffffffffffffffffffff00000000000000000000000000000000000000001673ffffffffffffffffffffffffffffffffffffffff9290921691909117905550565b60055460028054600092839167ffffffffffffffff909116906123879087613244565b6123919190613158565b600383015460028401549192506000916127109168010000000000000000900467ffffffffffffffff16906123c69085613193565b6123d09190613193565b6123da9190613158565b83600201546123e99190613140565b905060006123f78287613193565b8454600386015491925060009189919067ffffffffffffffff1661241c876001613140565b6124269190613193565b6124309190613140565b61243a9190613244565b61244490886131d0565b90505b60008113156124c357600385015460028601546127109168010000000000000000900467ffffffffffffffff169061247f9084613193565b6124899190613193565b6124939190613158565b61249d9083613140565b60038601549092506124bc9067ffffffffffffffff1660070b826131d0565b9050612447565b509695505050505050565b60006124db8888876126fa565b600854815160208301516040808501516060860151608087015160a088015160c089015160e08a015195517fe942c3670000000000000000000000000000000000000000000000000000000081526004810198909852602488019690965260448701939093526064860191909152608485015260a484015260c483019190915260e4820152610104810185905291925060009173ffffffffffffffffffffffffffffffffffffffff9091169063e942c3679061012401602060405180830381600087803b1580156125ab57600080fd5b505af11580156125bf573d6000803e3d6000fd5b505050506040513d601f19601f820116820180604052508101906125e3919061302d565b9050612646898983856020015186600001516125ff9190613140565b865161260b9087613193565b6126159190613158565b602087015187516126269190613140565b60208801516126359088613193565b61263f9190613158565b898d612b10565b73ffffffffffffffffffffffffffffffffffffffff8516156126ef57600c546040517f211b1cdd00000000000000000000000000000000000000000000000000000000815273ffffffffffffffffffffffffffffffffffffffff8781166004830152602482018b90529091169063211b1cdd90604401600060405180830381600087803b1580156126d657600080fd5b505af11580156126ea573d6000803e3d6000fd5b505050505b505050505050505050565b61274260405180610100016040528060008152602001600081526020016000815260200160008152602001600081526020016000815260200160008152602001600081525090565b60006002905061279060405180610100016040528060008152602001600081526020016000815260200160008152602001600081526020016000815260200160008152602001600081525090565b858460005b87811015612b03576003850154600286015486546000926127109267ffffffffffffffff680100000000000000008304811693919216906127d69089613244565b6127e09190613158565b6127ea9190613193565b6127f49190613193565b6127fe9190613158565b866002015461280d9190613140565b6009546040517f0393f3d300000000000000000000000000000000000000000000000000000000815260048101879052919250600091829182918291829182918291829173ffffffffffffffffffffffffffffffffffffffff1690630393f3d39060240161010060405180830381600087803b15801561288c57600080fd5b505af11580156128a0573d6000803e3d6000fd5b505050506040513d601f19601f820116820180604052508101906128c49190612f7d565b975097509750975097509750975097506127108861ffff168a6128e79190613193565b6128f19190613158565b8d518e90612900908390613140565b90525061271061291461ffff89168b613193565b61291e9190613158565b8d60200181815161292f9190613140565b90525061271061294361ffff88168b613193565b61294d9190613158565b8d60400181815161295e9190613140565b90525061271061297261ffff87168b613193565b61297c9190613158565b8d60600181815161298d9190613140565b9052506127106129a161ffff86168b613193565b6129ab9190613158565b8d6080018181516129bc9190613140565b9052506127106129d061ffff85168b613193565b6129da9190613158565b8d60a0018181516129eb9190613140565b9052506127106129ff61ffff84168b613193565b612a099190613158565b8d60c001818151612a1a9190613140565b905250612710612a2e61ffff83168b613193565b612a389190613158565b8d60e001818151612a499190613140565b9052506007546040517f9c8446f7000000000000000000000000000000000000000000000000000000008152600481018e905273ffffffffffffffffffffffffffffffffffffffff8d8116602483015290911690639c8446f790604401600060405180830381600087803b158015612ac057600080fd5b505af1158015612ad4573d6000803e3d6000fd5b5050505060018c612ae59190613140565b9b505050505050505050508080612afb9061325b565b915050612795565b5091979650505050505050565b600a546040517f912cbe1000000000000000000000000000000000000000000000000000000000815273ffffffffffffffffffffffffffffffffffffffff838116600483015260029260009291169063912cbe109060240160206040518083038186803b158015612b8057600080fd5b505afa158015612b94573d6000803e3d6000fd5b505050506040513d601f19601f82011682018060405250810190612bb8919061311d565b905060005b88811015612da65760006127108460030160089054906101000a900467ffffffffffffffff1667ffffffffffffffff1685600201548660030160009054906101000a900467ffffffffffffffff1667ffffffffffffffff1687600001548f612c259190613244565b612c2f9190613158565b612c399190613193565b612c439190613193565b612c4d9190613158565b8460020154612c5c9190613140565b9050600086612c6b838b613193565b612c759190613158565b9050600087612c84848b613193565b612c8e9190613158565b9050600b60009054906101000a900473ffffffffffffffffffffffffffffffffffffffff1673ffffffffffffffffffffffffffffffffffffffff166397795c668e84846040518463ffffffff1660e01b8152600401612d00939291909283526020830191909152604082015260600190565b600060405180830381600087803b158015612d1a57600080fd5b505af1158015612d2e573d6000803e3d6000fd5b505060408051602081018690529081018490524260608201526080810186905260a081018e90526000925060c0019050604051602081830303815290604052805190602001209050612d828e828a89612db2565b612d8d60018f613140565b9d50505050508080612d9e9061325b565b915050612bbd565b50505050505050505050565b600a546040517fca3dac2d000000000000000000000000000000000000000000000000000000008152600481018690526024810185905273ffffffffffffffffffffffffffffffffffffffff848116604483015260ff8416606483015260106084830152600092169063ca3dac2d9060a401602060405180830381600087803b158015612e3e57600080fd5b505af1158015612e52573d6000803e3d6000fd5b505050506040513d601f19601f82011682018060405250810190612e769190612f5b565b905080612edf576040517f08c379a000000000000000000000000000000000000000000000000000000000815260206004820152601460248201527f53796d626f6c206e6f742067656e6572617465640000000000000000000000006044820152606401610725565b5050505050565b803573ffffffffffffffffffffffffffffffffffffffff81168114612f0a57600080fd5b919050565b805161ffff81168114612f0a57600080fd5b803567ffffffffffffffff81168114612f0a57600080fd5b600060208284031215612f4b57600080fd5b612f5482612ee6565b9392505050565b600060208284031215612f6d57600080fd5b81518015158114612f5457600080fd5b600080600080600080600080610100898b031215612f9a57600080fd5b612fa389612f0f565b9750612fb160208a01612f0f565b9650612fbf60408a01612f0f565b9550612fcd60608a01612f0f565b9450612fdb60808a01612f0f565b9350612fe960a08a01612f0f565b9250612ff760c08a01612f0f565b915061300560e08a01612f0f565b90509295985092959890939650565b60006020828403121561302657600080fd5b5035919050565b60006020828403121561303f57600080fd5b5051919050565b6000806000806080858703121561305c57600080fd5b8435935061306c60208601612ee6565b925061307a60408601612ee6565b9396929550929360600135925050565b600080600080600060a086880312156130a257600080fd5b85359450602086013593506130b960408701612f21565b92506130c760608701612f21565b91506130d560808701612f21565b90509295509295909350565b6000806000606084860312156130f657600080fd5b8335925061310660208501612f21565b915061311460408501612f21565b90509250925092565b60006020828403121561312f57600080fd5b815160ff81168114612f5457600080fd5b6000821982111561315357613153613294565b500190565b60008261318e577f4e487b7100000000000000000000000000000000000000000000000000000000600052601260045260246000fd5b500490565b6000817fffffffffffffffffffffffffffffffffffffffffffffffffffffffffffffffff04831182151516156131cb576131cb613294565b500290565b6000808312837f80000000000000000000000000000000000000000000000000000000000000000183128115161561320a5761320a613294565b837f7fffffffffffffffffffffffffffffffffffffffffffffffffffffffffffffff01831381161561323e5761323e613294565b50500390565b60008282101561325657613256613294565b500390565b60007fffffffffffffffffffffffffffffffffffffffffffffffffffffffffffffffff82141561328d5761328d613294565b5060010190565b7f4e487b7100000000000000000000000000000000000000000000000000000000600052601160045260246000fdfea2646970667358221220def956a5f3ce370b1fb7abb3db8ec3c3018ee4994e502d04ff625c0c424820df64736f6c63430008060033",
  "immutableReferences": {},
  "source": "// // SPDX-License-Identifier: GPL-3.0\npragma solidity ^0.8.6;\n\nimport \"@openzeppelin/contracts-upgradeable/proxy/utils/Initializable.sol\";\nimport \"@openzeppelin/contracts-upgradeable/token/ERC20/IERC20Upgradeable.sol\";\nimport \"../access/IAccessRestriction.sol\";\nimport \"../tree/ITreeFactory.sol\";\nimport \"../treasury/IWethFund.sol\";\nimport \"../treasury/IAllocation.sol\";\nimport \"../treasury/IPlanterFund.sol\";\nimport \"../tree/IAttribute.sol\";\nimport \"../regularSale/IRegularSale.sol\";\nimport \"./IIncrementalSale.sol\";\n\ncontract IncrementalSale is Initializable, IIncrementalSale {\n    struct IncrementalSaleData {\n        uint256 startTreeId;\n        uint256 endTreeId;\n        uint256 initialPrice;\n        uint64 increments;\n        uint64 priceJump;\n    }\n\n    struct TotalBalances {\n        uint256 planter;\n        uint256 ambassador;\n        uint256 research;\n        uint256 localDevelopment;\n        uint256 insurance;\n        uint256 treasury;\n        uint256 reserve1;\n        uint256 reserve2;\n    }\n\n    /** NOTE {isIncrementalSale} set inside the initialize to {true} */\n    bool public override isIncrementalSale;\n    /** NOTE last tree id sold in incremetal sale */\n    uint256 public override lastSold;\n\n    /** NOTE {incrementalSaleData} store startTreeId, endTreeId, initialPrice,\n     *  increments, priceJump values\n     */\n    IncrementalSaleData public override incrementalSaleData;\n\n    IAccessRestriction public accessRestriction;\n    ITreeFactory public treeFactory;\n    IWethFund public wethFund;\n    IAllocation public allocation;\n    IAttribute public attribute;\n    IPlanterFund public planterFundContract;\n    IRegularSale public regularSale;\n    IERC20Upgradeable public wethToken;\n\n    /** NOTE modifier to check msg.sender has admin role */\n    modifier onlyAdmin() {\n        accessRestriction.ifAdmin(msg.sender);\n        _;\n    }\n\n    /** NOTE modifier to check msg.sender has data manager role */\n    modifier onlyDataManager() {\n        accessRestriction.ifDataManager(msg.sender);\n        _;\n    }\n\n    /** NOTE modifier for check if function is not paused */\n    modifier ifNotPaused() {\n        accessRestriction.ifNotPaused();\n        _;\n    }\n\n    /** NOTE modifier for check valid address */\n    modifier validAddress(address _address) {\n        require(_address != address(0), \"Invalid address\");\n        _;\n    }\n\n    /// @inheritdoc IIncrementalSale\n    function initialize(address _accessRestrictionAddress)\n        external\n        override\n        initializer\n    {\n        IAccessRestriction candidateContract = IAccessRestriction(\n            _accessRestrictionAddress\n        );\n        require(candidateContract.isAccessRestriction());\n        isIncrementalSale = true;\n        accessRestriction = candidateContract;\n    }\n\n    /// @inheritdoc IIncrementalSale\n    function setPlanterFundAddress(address _address)\n        external\n        override\n        onlyAdmin\n    {\n        IPlanterFund candidateContract = IPlanterFund(_address);\n        require(candidateContract.isPlanterFund());\n        planterFundContract = candidateContract;\n    }\n\n    /// @inheritdoc IIncrementalSale\n    function setRegularSaleAddress(address _address)\n        external\n        override\n        onlyAdmin\n    {\n        IRegularSale candidateContract = IRegularSale(_address);\n        require(candidateContract.isRegularSale());\n        regularSale = candidateContract;\n    }\n\n    /// @inheritdoc IIncrementalSale\n    function setTreeFactoryAddress(address _address)\n        external\n        override\n        onlyAdmin\n    {\n        ITreeFactory candidateContract = ITreeFactory(_address);\n        require(candidateContract.isTreeFactory());\n        treeFactory = candidateContract;\n    }\n\n    /// @inheritdoc IIncrementalSale\n    function setWethFundAddress(address _address) external override onlyAdmin {\n        IWethFund candidateContract = IWethFund(_address);\n\n        require(candidateContract.isWethFund());\n\n        wethFund = candidateContract;\n    }\n\n    /// @inheritdoc IIncrementalSale\n    function setWethTokenAddress(address _address)\n        external\n        override\n        onlyAdmin\n        validAddress(_address)\n    {\n        IERC20Upgradeable candidateContract = IERC20Upgradeable(_address);\n        wethToken = candidateContract;\n    }\n\n    /// @inheritdoc IIncrementalSale\n    function setAllocationAddress(address _address)\n        external\n        override\n        onlyAdmin\n    {\n        IAllocation candidateContract = IAllocation(_address);\n        require(candidateContract.isAllocation());\n        allocation = candidateContract;\n    }\n\n    /// @inheritdoc IIncrementalSale\n    function setAttributesAddress(address _address)\n        external\n        override\n        onlyAdmin\n    {\n        IAttribute candidateContract = IAttribute(_address);\n        require(candidateContract.isAttribute());\n        attribute = candidateContract;\n    }\n\n    /// @inheritdoc IIncrementalSale\n    function createIncrementalSale(\n        uint256 _startTreeId,\n        uint256 _initialPrice,\n        uint64 _treeCount,\n        uint64 _increments,\n        uint64 _priceJump\n    ) external override ifNotPaused onlyDataManager {\n        require(_treeCount > 0 && _treeCount < 501, \"Invalid treeCount\");\n\n        require(_startTreeId > 100, \"Invalid startTreeId\");\n\n        require(_increments > 0, \"Invalid increments\");\n\n        IncrementalSaleData storage incSaleData = incrementalSaleData;\n\n        require(\n            incSaleData.endTreeId == lastSold + 1 ||\n                incSaleData.increments == 0,\n            \"Cant create\"\n        );\n\n        require(\n            allocation.allocationExists(_startTreeId),\n            \"Allocation not exists\"\n        );\n\n        require(\n            treeFactory.manageSaleTypeBatch(\n                _startTreeId,\n                _startTreeId + _treeCount,\n                2\n            ),\n            \"Trees not available\"\n        );\n\n        incSaleData.startTreeId = _startTreeId;\n        incSaleData.endTreeId = _startTreeId + _treeCount;\n        incSaleData.initialPrice = _initialPrice;\n        incSaleData.increments = _increments;\n        incSaleData.priceJump = _priceJump;\n\n        lastSold = _startTreeId - 1;\n\n        emit IncrementalSaleUpdated();\n    }\n\n    /// @inheritdoc IIncrementalSale\n    function removeIncrementalSale(uint256 _count)\n        external\n        override\n        ifNotPaused\n        onlyDataManager\n    {\n        require(_count > 0 && _count < 501, \"Invalid count\");\n        IncrementalSaleData storage incSaleData = incrementalSaleData;\n\n        uint256 newStartTreeId = incSaleData.startTreeId + _count;\n\n        require(\n            incSaleData.increments > 0 &&\n                newStartTreeId <= incSaleData.endTreeId,\n            \"Cant remove\"\n        );\n\n        treeFactory.resetSaleTypeBatch(\n            incSaleData.startTreeId,\n            newStartTreeId,\n            2\n        );\n\n        incSaleData.startTreeId = newStartTreeId;\n        lastSold = newStartTreeId - 1;\n\n        emit IncrementalSaleUpdated();\n    }\n\n    /// @inheritdoc IIncrementalSale\n    function updateEndTreeId(uint256 _treeCount)\n        external\n        override\n        ifNotPaused\n        onlyDataManager\n    {\n        require(_treeCount > 0 && _treeCount < 501, \"Invalid count\");\n\n        IncrementalSaleData storage incSaleData = incrementalSaleData;\n\n        require(incSaleData.increments > 0, \"Not exists\");\n\n        require(\n            treeFactory.manageSaleTypeBatch(\n                incSaleData.endTreeId,\n                incSaleData.endTreeId + _treeCount,\n                2\n            ),\n            \"Trees not available\"\n        );\n        incSaleData.endTreeId = incSaleData.endTreeId + _treeCount;\n\n        emit IncrementalSaleUpdated();\n    }\n\n    /// @inheritdoc IIncrementalSale\n    function fundTree(\n        uint256 _count,\n        address _referrer,\n        address _recipient,\n        uint256 _minDaiOut\n    ) external override ifNotPaused {\n        require(_count < 51 && _count > 0, \"Invalid count\");\n\n        IncrementalSaleData storage incSaleData = incrementalSaleData;\n\n        require(\n            lastSold + _count < incSaleData.endTreeId,\n            \"Insufficient tree\"\n        );\n\n        address recipient = _recipient == address(0) ? msg.sender : _recipient;\n\n        require(recipient != _referrer, \"Invalid referrer\");\n\n        uint256 tempLastSold = lastSold + 1;\n\n        //calc total price\n\n        uint256 totalPrice = _calcTotalPrice(tempLastSold, _count);\n\n        //transfer totalPrice to wethFund\n        require(\n            wethToken.balanceOf(msg.sender) >= totalPrice,\n            \"Insufficient balance\"\n        );\n\n        bool success = wethToken.transferFrom(\n            msg.sender,\n            address(wethFund),\n            totalPrice\n        );\n\n        require(success, \"Unsuccessful transfer\");\n\n        _setAllocation(\n            tempLastSold,\n            _count,\n            msg.sender,\n            recipient,\n            _referrer,\n            totalPrice,\n            _minDaiOut\n        );\n\n        lastSold = tempLastSold + _count - 1;\n\n        emit TreeFunded(msg.sender, recipient, _referrer, tempLastSold, _count);\n    }\n\n    /// @inheritdoc IIncrementalSale\n    function updateIncrementalSaleData(\n        uint256 _initialPrice,\n        uint64 _increments,\n        uint64 _priceJump\n    ) external override ifNotPaused onlyDataManager {\n        require(_increments > 0, \"Invalid increments\");\n\n        IncrementalSaleData storage incSaleData = incrementalSaleData;\n\n        require(incSaleData.increments > 0, \"Not exists\");\n\n        incSaleData.initialPrice = _initialPrice;\n        incSaleData.increments = _increments;\n        incSaleData.priceJump = _priceJump;\n\n        emit IncrementalSaleDataUpdated();\n    }\n\n    /**\n     * @dev calculate amount of each part in totalBalances based on the tree allocation\n     * data and total price of trees and update them in totalBlances.\n     * NOTE trees minted to the recipient\n     * @param _tempLastSold last tree id sold in incremetal sale\n     * @param _count number of trees to fund\n     * @param _funder address of funder\n     * @param _recipient address of recipient\n     * @param _referrer address of referrer\n     * @param _totalPrice total price of trees\n     */\n    function _setAllocation(\n        uint256 _tempLastSold,\n        uint256 _count,\n        address _funder,\n        address _recipient,\n        address _referrer,\n        uint256 _totalPrice,\n        uint256 _minDaiOut\n    ) private {\n        TotalBalances memory totalBalances = _mintFundedTree(\n            _tempLastSold,\n            _count,\n            _recipient\n        );\n\n        uint256 daiAmount = wethFund.fundTreeBatch(\n            totalBalances.planter,\n            totalBalances.ambassador,\n            totalBalances.research,\n            totalBalances.localDevelopment,\n            totalBalances.insurance,\n            totalBalances.treasury,\n            totalBalances.reserve1,\n            totalBalances.reserve2,\n            _minDaiOut\n        );\n\n        _setPlanterAllocation(\n            _tempLastSold,\n            _count,\n            daiAmount,\n            (daiAmount * totalBalances.planter) /\n                (totalBalances.planter + totalBalances.ambassador), //planterDaiAmount\n            (daiAmount * totalBalances.ambassador) /\n                (totalBalances.planter + totalBalances.ambassador), //ambassadorDaiAmount\n            _totalPrice,\n            _funder\n        );\n\n        if (_referrer != address(0)) {\n            regularSale.updateReferrerClaimableTreesWeth(_referrer, _count);\n        }\n    }\n\n    /**\n     * @dev update projected earning in PlanterFund and create symbol for tree\n     * @param _tempLastSold last tree id sold in incremetal sale\n     * @param _count number of trees to fund\n     * @param _daiAmount total dai amount\n     * @param _planterDaiAmount total planter dai share\n     * @param _ambassadorDaiAmount total ambassador dai share\n     * @param _totalPrice total price\n     * @param _funder address of funder\n     */\n    function _setPlanterAllocation(\n        uint256 _tempLastSold,\n        uint256 _count,\n        uint256 _daiAmount,\n        uint256 _planterDaiAmount,\n        uint256 _ambassadorDaiAmount,\n        uint256 _totalPrice,\n        address _funder\n    ) private {\n        IncrementalSaleData storage incSaleData = incrementalSaleData;\n\n        uint8 funderRank = attribute.getFunderRank(_funder);\n\n        for (uint256 i = 0; i < _count; i++) {\n            uint256 treePrice = incSaleData.initialPrice +\n                (((_tempLastSold - incSaleData.startTreeId) /\n                    incSaleData.increments) *\n                    incSaleData.initialPrice *\n                    incSaleData.priceJump) /\n                10000;\n\n            uint256 planterDaiAmount = (_planterDaiAmount * treePrice) /\n                _totalPrice;\n\n            uint256 ambassadorDaiAmount = (_ambassadorDaiAmount * treePrice) /\n                _totalPrice;\n\n            planterFundContract.updateProjectedEarnings(\n                _tempLastSold,\n                planterDaiAmount,\n                ambassadorDaiAmount\n            );\n\n            bytes32 randTree = keccak256(\n                abi.encodePacked(\n                    planterDaiAmount,\n                    ambassadorDaiAmount,\n                    block.timestamp,\n                    treePrice,\n                    _daiAmount\n                )\n            );\n\n            _createSymbol(_tempLastSold, randTree, _funder, funderRank);\n\n            _tempLastSold += 1;\n        }\n    }\n\n    function _calcTotalPrice(uint256 _tempLastSold, uint256 _count)\n        private\n        view\n        returns (uint256)\n    {\n        IncrementalSaleData storage incSaleData = incrementalSaleData;\n\n        uint256 y = (_tempLastSold - incSaleData.startTreeId) /\n            incSaleData.increments;\n\n        uint256 tempLastSoldPrice = incSaleData.initialPrice +\n            (y * incSaleData.initialPrice * incSaleData.priceJump) /\n            10000;\n\n        uint256 totalPrice = _count * tempLastSoldPrice;\n\n        int256 extra = int256(_count) -\n            int256(\n                (y + 1) *\n                    incSaleData.increments +\n                    incSaleData.startTreeId -\n                    _tempLastSold\n            );\n\n        while (extra > 0) {\n            totalPrice +=\n                (uint256(extra) *\n                    incSaleData.initialPrice *\n                    incSaleData.priceJump) /\n                10000;\n            extra -= int64(incSaleData.increments);\n        }\n\n        return totalPrice;\n    }\n\n    function _mintFundedTree(\n        uint256 _tempLastSold,\n        uint256 _count,\n        address _recipient\n    ) private returns (TotalBalances memory) {\n        IncrementalSaleData storage incSaleData = incrementalSaleData;\n\n        TotalBalances memory totalBalances;\n\n        uint256 tempLastSold = _tempLastSold;\n        address recipient = _recipient;\n\n        for (uint256 i = 0; i < _count; i++) {\n            uint256 treePrice = incSaleData.initialPrice +\n                (((tempLastSold - incSaleData.startTreeId) /\n                    incSaleData.increments) *\n                    incSaleData.initialPrice *\n                    incSaleData.priceJump) /\n                10000;\n\n            (\n                uint16 planterShare,\n                uint16 ambassadorShare,\n                uint16 researchShare,\n                uint16 localDevelopmentShare,\n                uint16 insuranceShare,\n                uint16 treasuryShare,\n                uint16 reserve1Share,\n                uint16 reserve2Share\n            ) = allocation.findAllocationData(tempLastSold);\n\n            totalBalances.planter += (treePrice * planterShare) / 10000;\n            totalBalances.ambassador += (treePrice * ambassadorShare) / 10000;\n            totalBalances.research += (treePrice * researchShare) / 10000;\n            totalBalances.localDevelopment +=\n                (treePrice * localDevelopmentShare) /\n                10000;\n            totalBalances.insurance += (treePrice * insuranceShare) / 10000;\n            totalBalances.treasury += (treePrice * treasuryShare) / 10000;\n            totalBalances.reserve1 += (treePrice * reserve1Share) / 10000;\n            totalBalances.reserve2 += (treePrice * reserve2Share) / 10000;\n\n            treeFactory.mintAssignedTree(tempLastSold, recipient);\n            tempLastSold += 1;\n        }\n\n        return (totalBalances);\n    }\n\n    function _createSymbol(\n        uint256 _tempLastSold,\n        bytes32 _randTree,\n        address _funder,\n        uint8 _funderRank\n    ) private {\n        bool symbolCreated = attribute.createSymbol(\n            _tempLastSold,\n            _randTree,\n            _funder,\n            _funderRank,\n            16\n        );\n\n        require(symbolCreated, \"Symbol not generated\");\n    }\n}\n",
  "sourcePath": "/home/amir/Projects/treejer/contract/contracts/incrementalSale/IncrementalSale.sol",
  "compiler": {
    "name": "solc",
    "version": "0.8.6+commit.11564f7e.Emscripten.clang"
  },
  "schemaVersion": "3.4.3",
  "updatedAt": "2022-01-14T16:04:19.813Z",
  "networkType": "ethereum",
  "devdoc": {
    "kind": "dev",
    "methods": {
      "createIncrementalSale(uint256,uint256,uint64,uint64,uint64)": {
        "details": "admin set a tree range from {startTreeId} to {startTreeId + treeCount} for incremental sales NOTE emit an {IncrementalSaleUpdated} event",
        "params": {
          "_increments": "number of trees after which the price increases",
          "_initialPrice": "initialPrice of trees",
          "_priceJump": "price jump",
          "_startTreeId": "starting treeId",
          "_treeCount": "number of tree in incremental sell"
        }
      },
      "fundTree(uint256,address,address,uint256)": {
        "details": "fund {_count} tree NOTE if {_recipient} address exist tree minted to the {_recipient} and mint to the function caller otherwise NOTE function caller pay for the price of trees NOTE total price calculated based on the incrementalSaleData NOTE based on the allocation data for tree totalBalances and PlanterFund contract balance updated NOTE generate unique symbols for trees NOTE emit an {TreeFunded} event",
        "params": {
          "_count": "number of trees to fund",
          "_recipient": "address of recipient",
          "_referrer": "address of referrer"
        }
      },
      "initialize(address)": {
        "details": "initialize AccessRestriction contract and set true for isIncrementalSale",
        "params": {
          "_accessRestrictionAddress": "set to the address of AccessRestriction contract"
        }
      },
      "removeIncrementalSale(uint256)": {
        "details": "remove some trees from incremental sale and reset saleType of that trees NOTE {_count} trees removed from first of the incremetalSale tree range NOTE emit an {IncrementalSaleUpdated} event",
        "params": {
          "_count": "is number of trees to remove"
        }
      },
      "setAllocationAddress(address)": {
        "details": "set {_address} to Allocation contract address "
      },
      "setAttributesAddress(address)": {
        "details": "set {_address} to Attributes contract address "
      },
      "setPlanterFundAddress(address)": {
        "details": "set {_address} to PlanterFund contract address "
      },
      "setRegularSaleAddress(address)": {
        "details": "set {_address} to RegularSale contract address "
      },
      "setTreeFactoryAddress(address)": {
        "details": "set {_address} to TreeFactory  contract address "
      },
      "setWethFundAddress(address)": {
        "details": "set {_address} to WethFund contract address "
      },
      "setWethTokenAddress(address)": {
        "details": "set {_address} to WethToken contract address "
      },
      "updateEndTreeId(uint256)": {
        "details": "admin update endTreeId of incrementalSale tree range NOTE  emit an {IncrementalSaleUpdated} event",
        "params": {
          "_treeCount": "number of trees added at the end of the incrementalSale tree range"
        }
      },
      "updateIncrementalSaleData(uint256,uint64,uint64)": {
        "details": "admin update incrementalSaleData NOTE emit a {IncrementalSaleDataUpdated} event",
        "params": {
          "_increments": "number of trees after which the price increases",
          "_initialPrice": "initialPrice of trees",
          "_priceJump": "price jump"
        }
      }
    },
    "version": 1
  },
  "userdoc": {
    "kind": "user",
    "methods": {
      "incrementalSaleData()": {
        "notice": "NOTE {incrementalSaleData} store startTreeId, endTreeId, initialPrice,  increments, priceJump values"
      },
      "isIncrementalSale()": {
        "notice": "NOTE {isIncrementalSale} set inside the initialize to {true} "
      },
      "lastSold()": {
        "notice": "NOTE last tree id sold in incremetal sale "
      }
    },
    "version": 1
  }
}