{
  "contractName": "IncrementalSale",
  "abi": [
    {
      "anonymous": false,
      "inputs": [],
      "name": "IncrementalSaleDataUpdated",
      "type": "event"
    },
    {
      "anonymous": false,
      "inputs": [],
      "name": "IncrementalSaleUpdated",
      "type": "event"
    },
    {
      "anonymous": false,
      "inputs": [
        {
          "indexed": false,
          "internalType": "address",
          "name": "funder",
          "type": "address"
        },
        {
          "indexed": false,
          "internalType": "address",
          "name": "recipient",
          "type": "address"
        },
        {
          "indexed": false,
          "internalType": "address",
          "name": "referrer",
          "type": "address"
        },
        {
          "indexed": false,
          "internalType": "uint256",
          "name": "startTreeId",
          "type": "uint256"
        },
        {
          "indexed": false,
          "internalType": "uint256",
          "name": "count",
          "type": "uint256"
        }
      ],
      "name": "TreeFunded",
      "type": "event"
    },
    {
      "inputs": [],
      "name": "accessRestriction",
      "outputs": [
        {
          "internalType": "contract IAccessRestriction",
          "name": "",
          "type": "address"
        }
      ],
      "stateMutability": "view",
      "type": "function",
      "constant": true
    },
    {
      "inputs": [],
      "name": "allocation",
      "outputs": [
        {
          "internalType": "contract IAllocation",
          "name": "",
          "type": "address"
        }
      ],
      "stateMutability": "view",
      "type": "function",
      "constant": true
    },
    {
      "inputs": [],
      "name": "attribute",
      "outputs": [
        {
          "internalType": "contract IAttribute",
          "name": "",
          "type": "address"
        }
      ],
      "stateMutability": "view",
      "type": "function",
      "constant": true
    },
    {
      "inputs": [],
      "name": "incrementalSaleData",
      "outputs": [
        {
          "internalType": "uint256",
          "name": "startTreeId",
          "type": "uint256"
        },
        {
          "internalType": "uint256",
          "name": "endTreeId",
          "type": "uint256"
        },
        {
          "internalType": "uint256",
          "name": "initialPrice",
          "type": "uint256"
        },
        {
          "internalType": "uint64",
          "name": "increments",
          "type": "uint64"
        },
        {
          "internalType": "uint64",
          "name": "priceJump",
          "type": "uint64"
        }
      ],
      "stateMutability": "view",
      "type": "function",
      "constant": true
    },
    {
      "inputs": [],
      "name": "isIncrementalSale",
      "outputs": [
        {
          "internalType": "bool",
          "name": "",
          "type": "bool"
        }
      ],
      "stateMutability": "view",
      "type": "function",
      "constant": true
    },
    {
      "inputs": [],
      "name": "lastSold",
      "outputs": [
        {
          "internalType": "uint256",
          "name": "",
          "type": "uint256"
        }
      ],
      "stateMutability": "view",
      "type": "function",
      "constant": true
    },
    {
      "inputs": [],
      "name": "planterFundContract",
      "outputs": [
        {
          "internalType": "contract IPlanterFund",
          "name": "",
          "type": "address"
        }
      ],
      "stateMutability": "view",
      "type": "function",
      "constant": true
    },
    {
      "inputs": [],
      "name": "regularSale",
      "outputs": [
        {
          "internalType": "contract IRegularSale",
          "name": "",
          "type": "address"
        }
      ],
      "stateMutability": "view",
      "type": "function",
      "constant": true
    },
    {
      "inputs": [],
      "name": "treeFactory",
      "outputs": [
        {
          "internalType": "contract ITreeFactory",
          "name": "",
          "type": "address"
        }
      ],
      "stateMutability": "view",
      "type": "function",
      "constant": true
    },
    {
      "inputs": [],
      "name": "wethFund",
      "outputs": [
        {
          "internalType": "contract IWethFund",
          "name": "",
          "type": "address"
        }
      ],
      "stateMutability": "view",
      "type": "function",
      "constant": true
    },
    {
      "inputs": [],
      "name": "wethToken",
      "outputs": [
        {
          "internalType": "contract IERC20Upgradeable",
          "name": "",
          "type": "address"
        }
      ],
      "stateMutability": "view",
      "type": "function",
      "constant": true
    },
    {
      "inputs": [
        {
          "internalType": "address",
          "name": "_accessRestrictionAddress",
          "type": "address"
        }
      ],
      "name": "initialize",
      "outputs": [],
      "stateMutability": "nonpayable",
      "type": "function"
    },
    {
      "inputs": [
        {
          "internalType": "address",
          "name": "_address",
          "type": "address"
        }
      ],
      "name": "setPlanterFundAddress",
      "outputs": [],
      "stateMutability": "nonpayable",
      "type": "function"
    },
    {
      "inputs": [
        {
          "internalType": "address",
          "name": "_address",
          "type": "address"
        }
      ],
      "name": "setRegularSaleAddress",
      "outputs": [],
      "stateMutability": "nonpayable",
      "type": "function"
    },
    {
      "inputs": [
        {
          "internalType": "address",
          "name": "_address",
          "type": "address"
        }
      ],
      "name": "setTreeFactoryAddress",
      "outputs": [],
      "stateMutability": "nonpayable",
      "type": "function"
    },
    {
      "inputs": [
        {
          "internalType": "address",
          "name": "_address",
          "type": "address"
        }
      ],
      "name": "setWethFundAddress",
      "outputs": [],
      "stateMutability": "nonpayable",
      "type": "function"
    },
    {
      "inputs": [
        {
          "internalType": "address",
          "name": "_address",
          "type": "address"
        }
      ],
      "name": "setWethTokenAddress",
      "outputs": [],
      "stateMutability": "nonpayable",
      "type": "function"
    },
    {
      "inputs": [
        {
          "internalType": "address",
          "name": "_address",
          "type": "address"
        }
      ],
      "name": "setAllocationAddress",
      "outputs": [],
      "stateMutability": "nonpayable",
      "type": "function"
    },
    {
      "inputs": [
        {
          "internalType": "address",
          "name": "_address",
          "type": "address"
        }
      ],
      "name": "setAttributesAddress",
      "outputs": [],
      "stateMutability": "nonpayable",
      "type": "function"
    },
    {
      "inputs": [
        {
          "internalType": "uint256",
          "name": "_startTreeId",
          "type": "uint256"
        },
        {
          "internalType": "uint256",
          "name": "_initialPrice",
          "type": "uint256"
        },
        {
          "internalType": "uint64",
          "name": "_treeCount",
          "type": "uint64"
        },
        {
          "internalType": "uint64",
          "name": "_increments",
          "type": "uint64"
        },
        {
          "internalType": "uint64",
          "name": "_priceJump",
          "type": "uint64"
        }
      ],
      "name": "createIncrementalSale",
      "outputs": [],
      "stateMutability": "nonpayable",
      "type": "function"
    },
    {
      "inputs": [
        {
          "internalType": "uint256",
          "name": "_count",
          "type": "uint256"
        }
      ],
      "name": "removeIncrementalSale",
      "outputs": [],
      "stateMutability": "nonpayable",
      "type": "function"
    },
    {
      "inputs": [
        {
          "internalType": "uint256",
          "name": "_treeCount",
          "type": "uint256"
        }
      ],
      "name": "updateEndTreeId",
      "outputs": [],
      "stateMutability": "nonpayable",
      "type": "function"
    },
    {
      "inputs": [
        {
          "internalType": "uint256",
          "name": "_count",
          "type": "uint256"
        },
        {
          "internalType": "address",
          "name": "_referrer",
          "type": "address"
        },
        {
          "internalType": "address",
          "name": "_recipient",
          "type": "address"
        },
        {
          "internalType": "uint256",
          "name": "_minDaiOut",
          "type": "uint256"
        }
      ],
      "name": "fundTree",
      "outputs": [],
      "stateMutability": "nonpayable",
      "type": "function"
    },
    {
      "inputs": [
        {
          "internalType": "uint256",
          "name": "_initialPrice",
          "type": "uint256"
        },
        {
          "internalType": "uint64",
          "name": "_increments",
          "type": "uint64"
        },
        {
          "internalType": "uint64",
          "name": "_priceJump",
          "type": "uint64"
        }
      ],
      "name": "updateIncrementalSaleData",
      "outputs": [],
      "stateMutability": "nonpayable",
      "type": "function"
    }
  ],
  "bytecode": "0x608060405234801561001057600080fd5b50613391806100206000396000f3fe608060405234801561001057600080fd5b50600436106101985760003560e01c80636fa627bb116100e3578063c4d66de81161008c578063e81c4c3e11610066578063e81c4c3e14610415578063efc8577014610428578063f7dff4b01461043f57600080fd5b8063c4d66de8146103cf578063c96bd9ee146103e2578063d6762c4a146103f557600080fd5b806388a17bde116100bd57806388a17bde1461037c57806395ab5aa51461039c578063a31250f8146103bc57600080fd5b80636fa627bb1461033657806380d663ea14610349578063881e4cb41461036957600080fd5b80634ad07f9e1161014557806359bac35b1161011f57806359bac35b146102fd5780636acc9777146103105780636d1f65ef1461032357600080fd5b80634ad07f9e146102b75780634b57b0be146102ca57806351978592146102ea57600080fd5b80633e93de6c116101765780633e93de6c1461020f578063421ef6d41461023257806345c4f8cd1461025257600080fd5b80630bf351f81461019d57806314b42c77146101b25780633b3780d3146101fc575b600080fd5b6101b06101ab366004612fd1565b61045f565b005b600a546101d29073ffffffffffffffffffffffffffffffffffffffff1681565b60405173ffffffffffffffffffffffffffffffffffffffff90911681526020015b60405180910390f35b6101b061020a366004613179565b6105b4565b6000546102229062010000900460ff1681565b60405190151581526020016101f3565b6007546101d29073ffffffffffffffffffffffffffffffffffffffff1681565b6002546003546004546005546102829392919067ffffffffffffffff808216916801000000000000000090041685565b6040805195865260208601949094529284019190915267ffffffffffffffff908116606084015216608082015260a0016101f3565b6101b06102c5366004612fd1565b610848565b600d546101d29073ffffffffffffffffffffffffffffffffffffffff1681565b6101b06102f83660046130de565b61099d565b6101b061030b366004612fd1565b610ed9565b6101b061031e366004612fd1565b61102e565b6101b0610331366004613122565b611176565b6101b06103443660046130ac565b61177d565b600b546101d29073ffffffffffffffffffffffffffffffffffffffff1681565b6101b0610377366004612fd1565b611a8b565b6009546101d29073ffffffffffffffffffffffffffffffffffffffff1681565b600c546101d29073ffffffffffffffffffffffffffffffffffffffff1681565b6101b06103ca3660046130ac565b611be0565b6101b06103dd366004612fd1565b611f3c565b6101b06103f0366004612fd1565b612152565b6006546101d29073ffffffffffffffffffffffffffffffffffffffff1681565b6101b0610423366004612fd1565b6122a7565b61043160015481565b6040519081526020016101f3565b6008546101d29073ffffffffffffffffffffffffffffffffffffffff1681565b6006546040517f8413ec1400000000000000000000000000000000000000000000000000000000815233600482015273ffffffffffffffffffffffffffffffffffffffff90911690638413ec149060240160006040518083038186803b1580156104c857600080fd5b505afa1580156104dc573d6000803e3d6000fd5b5050505060008190508073ffffffffffffffffffffffffffffffffffffffff1663e0eb4eb96040518163ffffffff1660e01b815260040160206040518083038186803b15801561052b57600080fd5b505afa15801561053f573d6000803e3d6000fd5b505050506040513d601f19601f820116820180604052508101906105639190612ff3565b61056c57600080fd5b600780547fffffffffffffffffffffffff00000000000000000000000000000000000000001673ffffffffffffffffffffffffffffffffffffffff9290921691909117905550565b600660009054906101000a900473ffffffffffffffffffffffffffffffffffffffff1673ffffffffffffffffffffffffffffffffffffffff16634d868f986040518163ffffffff1660e01b815260040160006040518083038186803b15801561061c57600080fd5b505afa158015610630573d6000803e3d6000fd5b50506006546040517fc4d2a31b00000000000000000000000000000000000000000000000000000000815233600482015273ffffffffffffffffffffffffffffffffffffffff909116925063c4d2a31b915060240160006040518083038186803b15801561069d57600080fd5b505afa1580156106b1573d6000803e3d6000fd5b5050505060008267ffffffffffffffff1611610754576040517f08c379a000000000000000000000000000000000000000000000000000000000815260206004820152602560248201527f696e6372656d656e74616c20706572696f642073686f756c6420626520706f7360448201527f697469766500000000000000000000000000000000000000000000000000000060648201526084015b60405180910390fd5b60055460029067ffffffffffffffff166107ca576040517f08c379a000000000000000000000000000000000000000000000000000000000815260206004820181905260248201527f696e6372656d656e74616c2073616c652073686f756c64206265206578697374604482015260640161074b565b6002810184905560038101805467ffffffffffffffff84811668010000000000000000027fffffffffffffffffffffffffffffffff00000000000000000000000000000000909216908616171790556040517f7f6a0aab5a693fe5abfbdbea247da773975456d0f806b8d96cecd07ab4adef4f90600090a150505050565b6006546040517f8413ec1400000000000000000000000000000000000000000000000000000000815233600482015273ffffffffffffffffffffffffffffffffffffffff90911690638413ec149060240160006040518083038186803b1580156108b157600080fd5b505afa1580156108c5573d6000803e3d6000fd5b5050505060008190508073ffffffffffffffffffffffffffffffffffffffff1663349904da6040518163ffffffff1660e01b815260040160206040518083038186803b15801561091457600080fd5b505afa158015610928573d6000803e3d6000fd5b505050506040513d601f19601f8201168201806040525081019061094c9190612ff3565b61095557600080fd5b600b80547fffffffffffffffffffffffff00000000000000000000000000000000000000001673ffffffffffffffffffffffffffffffffffffffff9290921691909117905550565b600660009054906101000a900473ffffffffffffffffffffffffffffffffffffffff1673ffffffffffffffffffffffffffffffffffffffff16634d868f986040518163ffffffff1660e01b815260040160006040518083038186803b158015610a0557600080fd5b505afa158015610a19573d6000803e3d6000fd5b50505050606584108015610a2d5750600084115b610a93576040517f08c379a000000000000000000000000000000000000000000000000000000000815260206004820152601460248201527f436f756e74206d757374206265206c7420313030000000000000000000000000604482015260640161074b565b60035460015460029190610aa89087906131d8565b10610b35576040517f08c379a000000000000000000000000000000000000000000000000000000000815260206004820152602360248201527f4e6f7420656e6f756768207472656520696e20696e6372656d656e74616c207360448201527f656c6c0000000000000000000000000000000000000000000000000000000000606482015260840161074b565b600073ffffffffffffffffffffffffffffffffffffffff841615610b595783610b5b565b335b90508473ffffffffffffffffffffffffffffffffffffffff168173ffffffffffffffffffffffffffffffffffffffff161415610bf3576040517f08c379a000000000000000000000000000000000000000000000000000000000815260206004820152601760248201527f496e76616c6964207265666572616c2061646472657373000000000000000000604482015260640161074b565b60006001546001610c0491906131d8565b90506000610c1282896123fc565b600d546040517f70a08231000000000000000000000000000000000000000000000000000000008152336004820152919250829173ffffffffffffffffffffffffffffffffffffffff909116906370a082319060240160206040518083038186803b158015610c8057600080fd5b505afa158015610c94573d6000803e3d6000fd5b505050506040513d601f19601f82011682018060405250810190610cb891906130c5565b1015610d20576040517f08c379a000000000000000000000000000000000000000000000000000000000815260206004820152600e60248201527f6c6f772070726963652070616964000000000000000000000000000000000000604482015260640161074b565b600d546008546040517f23b872dd00000000000000000000000000000000000000000000000000000000815233600482015273ffffffffffffffffffffffffffffffffffffffff91821660248201526044810184905260009291909116906323b872dd90606401602060405180830381600087803b158015610da157600080fd5b505af1158015610db5573d6000803e3d6000fd5b505050506040513d601f19601f82011682018060405250810190610dd99190612ff3565b905080610e42576040517f08c379a000000000000000000000000000000000000000000000000000000000815260206004820152601560248201527f756e7375636365737366756c207472616e736665720000000000000000000000604482015260640161074b565b610e51838a33878c878c612566565b6001610e5d8a856131d8565b610e6791906132dc565b6001556040805133815273ffffffffffffffffffffffffffffffffffffffff86811660208301528a168183015260608101859052608081018b905290517f036c2aedd2a9fd7043cbdabf33e199aa70cdf09074e600cf862dea17b004188c9181900360a00190a1505050505050505050565b6006546040517f8413ec1400000000000000000000000000000000000000000000000000000000815233600482015273ffffffffffffffffffffffffffffffffffffffff90911690638413ec149060240160006040518083038186803b158015610f4257600080fd5b505afa158015610f56573d6000803e3d6000fd5b5050505060008190508073ffffffffffffffffffffffffffffffffffffffff16632f10d7956040518163ffffffff1660e01b815260040160206040518083038186803b158015610fa557600080fd5b505afa158015610fb9573d6000803e3d6000fd5b505050506040513d601f19601f82011682018060405250810190610fdd9190612ff3565b610fe657600080fd5b600980547fffffffffffffffffffffffff00000000000000000000000000000000000000001673ffffffffffffffffffffffffffffffffffffffff9290921691909117905550565b6006546040517f8413ec1400000000000000000000000000000000000000000000000000000000815233600482015273ffffffffffffffffffffffffffffffffffffffff90911690638413ec149060240160006040518083038186803b15801561109757600080fd5b505afa1580156110ab573d6000803e3d6000fd5b50839250505073ffffffffffffffffffffffffffffffffffffffff811661112e576040517f08c379a000000000000000000000000000000000000000000000000000000000815260206004820152600f60248201527f696e76616c696420616464726573730000000000000000000000000000000000604482015260640161074b565b50600d80547fffffffffffffffffffffffff00000000000000000000000000000000000000001673ffffffffffffffffffffffffffffffffffffffff92909216919091179055565b600660009054906101000a900473ffffffffffffffffffffffffffffffffffffffff1673ffffffffffffffffffffffffffffffffffffffff16634d868f986040518163ffffffff1660e01b815260040160006040518083038186803b1580156111de57600080fd5b505afa1580156111f2573d6000803e3d6000fd5b50506006546040517fc4d2a31b00000000000000000000000000000000000000000000000000000000815233600482015273ffffffffffffffffffffffffffffffffffffffff909116925063c4d2a31b915060240160006040518083038186803b15801561125f57600080fd5b505afa158015611273573d6000803e3d6000fd5b5050505060008367ffffffffffffffff1611801561129c57506101f58367ffffffffffffffff16105b611302576040517f08c379a000000000000000000000000000000000000000000000000000000000815260206004820152601160248201527f696e76616c69642074726565436f756e74000000000000000000000000000000604482015260640161074b565b6064851161136c576040517f08c379a000000000000000000000000000000000000000000000000000000000815260206004820152601760248201527f74726565732061726520756e6465722041756374696f6e000000000000000000604482015260640161074b565b60008267ffffffffffffffff1611611406576040517f08c379a000000000000000000000000000000000000000000000000000000000815260206004820152602560248201527f696e6372656d656e74616c20706572696f642073686f756c6420626520706f7360448201527f6974697665000000000000000000000000000000000000000000000000000000606482015260840161074b565b6001805460029161141791906131d8565b816001015414806114345750600381015467ffffffffffffffff16155b61149a576040517f08c379a000000000000000000000000000000000000000000000000000000000815260206004820181905260248201527f63616e277420637265617465206e657720496e6372656d656e74616c53616c65604482015260640161074b565b6009546040517f8ea4e59f0000000000000000000000000000000000000000000000000000000081526004810188905273ffffffffffffffffffffffffffffffffffffffff90911690638ea4e59f9060240160206040518083038186803b15801561150457600080fd5b505afa158015611518573d6000803e3d6000fd5b505050506040513d601f19601f8201168201806040525081019061153c9190612ff3565b6115a2576040517f08c379a000000000000000000000000000000000000000000000000000000000815260206004820181905260248201527f6571756976616c616e742066756e64204d6f64656c206e6f7420657869737473604482015260640161074b565b60075473ffffffffffffffffffffffffffffffffffffffff16636a58d22c876115d567ffffffffffffffff8816826131d8565b6040517fffffffff0000000000000000000000000000000000000000000000000000000060e085901b1681526004810192909252602482015260026044820152606401602060405180830381600087803b15801561163257600080fd5b505af1158015611646573d6000803e3d6000fd5b505050506040513d601f19601f8201168201806040525081019061166a9190612ff3565b6116d0576040517f08c379a000000000000000000000000000000000000000000000000000000000815260206004820181905260248201527f747265657320617265206e6f7420617661696c61626c6520666f722073656c6c604482015260640161074b565b8581556116e767ffffffffffffffff8516876131d8565b6001808301919091556002820186905560038201805467ffffffffffffffff85811668010000000000000000027fffffffffffffffffffffffffffffffff000000000000000000000000000000009092169087161717905561174990876132dc565b6001556040517f7fca326170516a3030cd5655f7c17f2ab58d4060795b758991ee82342c39bd9390600090a1505050505050565b600660009054906101000a900473ffffffffffffffffffffffffffffffffffffffff1673ffffffffffffffffffffffffffffffffffffffff16634d868f986040518163ffffffff1660e01b815260040160006040518083038186803b1580156117e557600080fd5b505afa1580156117f9573d6000803e3d6000fd5b50506006546040517fc4d2a31b00000000000000000000000000000000000000000000000000000000815233600482015273ffffffffffffffffffffffffffffffffffffffff909116925063c4d2a31b915060240160006040518083038186803b15801561186657600080fd5b505afa15801561187a573d6000803e3d6000fd5b5050505060008111801561188f57506101f581105b6118f5576040517f08c379a000000000000000000000000000000000000000000000000000000000815260206004820152600d60248201527f696e76616c696420636f756e7400000000000000000000000000000000000000604482015260640161074b565b600280546000906119079084906131d8565b600383015490915067ffffffffffffffff161580159061192b575081600101548111155b6119b7576040517f08c379a000000000000000000000000000000000000000000000000000000000815260206004820152603560248201527f496e6372656d656e74616c53616c65206e6f74206578697374206f7220636f7560448201527f6e74206d757374206265206c7420656e64547265650000000000000000000000606482015260840161074b565b60075482546040517f713507bb0000000000000000000000000000000000000000000000000000000081526004810191909152602481018390526002604482015273ffffffffffffffffffffffffffffffffffffffff9091169063713507bb90606401600060405180830381600087803b158015611a3457600080fd5b505af1158015611a48573d6000803e3d6000fd5b50505081835550611a5a6001826132dc565b6001556040517f7fca326170516a3030cd5655f7c17f2ab58d4060795b758991ee82342c39bd9390600090a1505050565b6006546040517f8413ec1400000000000000000000000000000000000000000000000000000000815233600482015273ffffffffffffffffffffffffffffffffffffffff90911690638413ec149060240160006040518083038186803b158015611af457600080fd5b505afa158015611b08573d6000803e3d6000fd5b5050505060008190508073ffffffffffffffffffffffffffffffffffffffff1663a6cd16fd6040518163ffffffff1660e01b815260040160206040518083038186803b158015611b5757600080fd5b505afa158015611b6b573d6000803e3d6000fd5b505050506040513d601f19601f82011682018060405250810190611b8f9190612ff3565b611b9857600080fd5b600880547fffffffffffffffffffffffff00000000000000000000000000000000000000001673ffffffffffffffffffffffffffffffffffffffff9290921691909117905550565b600660009054906101000a900473ffffffffffffffffffffffffffffffffffffffff1673ffffffffffffffffffffffffffffffffffffffff16634d868f986040518163ffffffff1660e01b815260040160006040518083038186803b158015611c4857600080fd5b505afa158015611c5c573d6000803e3d6000fd5b50506006546040517fc4d2a31b00000000000000000000000000000000000000000000000000000000815233600482015273ffffffffffffffffffffffffffffffffffffffff909116925063c4d2a31b915060240160006040518083038186803b158015611cc957600080fd5b505afa158015611cdd573d6000803e3d6000fd5b50505050600081118015611cf257506101f581105b611d58576040517f08c379a000000000000000000000000000000000000000000000000000000000815260206004820152600d60248201527f696e76616c696420636f756e7400000000000000000000000000000000000000604482015260640161074b565b60055460029067ffffffffffffffff16611dce576040517f08c379a000000000000000000000000000000000000000000000000000000000815260206004820181905260248201527f696e6372656d656e74616c2073616c652073686f756c64206265206578697374604482015260640161074b565b600754600182015473ffffffffffffffffffffffffffffffffffffffff90911690636a58d22c90611dff85826131d8565b6040517fffffffff0000000000000000000000000000000000000000000000000000000060e085901b1681526004810192909252602482015260026044820152606401602060405180830381600087803b158015611e5c57600080fd5b505af1158015611e70573d6000803e3d6000fd5b505050506040513d601f19601f82011682018060405250810190611e949190612ff3565b611efa576040517f08c379a000000000000000000000000000000000000000000000000000000000815260206004820181905260248201527f747265657320617265206e6f7420617661696c61626c6520666f722073656c6c604482015260640161074b565b818160010154611f0a91906131d8565b60018201556040517f7fca326170516a3030cd5655f7c17f2ab58d4060795b758991ee82342c39bd9390600090a15050565b600054610100900460ff1680611f55575060005460ff16155b611fe1576040517f08c379a000000000000000000000000000000000000000000000000000000000815260206004820152602e60248201527f496e697469616c697a61626c653a20636f6e747261637420697320616c72656160448201527f647920696e697469616c697a6564000000000000000000000000000000000000606482015260840161074b565b600054610100900460ff1615801561202057600080547fffffffffffffffffffffffffffffffffffffffffffffffffffffffffffff0000166101011790555b60008290508073ffffffffffffffffffffffffffffffffffffffff1663ba84fd696040518163ffffffff1660e01b815260040160206040518083038186803b15801561206b57600080fd5b505afa15801561207f573d6000803e3d6000fd5b505050506040513d601f19601f820116820180604052508101906120a39190612ff3565b6120ac57600080fd5b600080547fffffffffffffffffffffffffffffffffffffffffffffffffffffffffff00ffff16620100001790556006805473ffffffffffffffffffffffffffffffffffffffff9092167fffffffffffffffffffffffff0000000000000000000000000000000000000000909216919091179055801561214e57600080547fffffffffffffffffffffffffffffffffffffffffffffffffffffffffffff00ff1690555b5050565b6006546040517f8413ec1400000000000000000000000000000000000000000000000000000000815233600482015273ffffffffffffffffffffffffffffffffffffffff90911690638413ec149060240160006040518083038186803b1580156121bb57600080fd5b505afa1580156121cf573d6000803e3d6000fd5b5050505060008190508073ffffffffffffffffffffffffffffffffffffffff166313e939e26040518163ffffffff1660e01b815260040160206040518083038186803b15801561221e57600080fd5b505afa158015612232573d6000803e3d6000fd5b505050506040513d601f19601f820116820180604052508101906122569190612ff3565b61225f57600080fd5b600a80547fffffffffffffffffffffffff00000000000000000000000000000000000000001673ffffffffffffffffffffffffffffffffffffffff9290921691909117905550565b6006546040517f8413ec1400000000000000000000000000000000000000000000000000000000815233600482015273ffffffffffffffffffffffffffffffffffffffff90911690638413ec149060240160006040518083038186803b15801561231057600080fd5b505afa158015612324573d6000803e3d6000fd5b5050505060008190508073ffffffffffffffffffffffffffffffffffffffff16636a837c8e6040518163ffffffff1660e01b815260040160206040518083038186803b15801561237357600080fd5b505afa158015612387573d6000803e3d6000fd5b505050506040513d601f19601f820116820180604052508101906123ab9190612ff3565b6123b457600080fd5b600c80547fffffffffffffffffffffffff00000000000000000000000000000000000000001673ffffffffffffffffffffffffffffffffffffffff9290921691909117905550565b60055460028054600092839167ffffffffffffffff9091169061241f90876132dc565b61242991906131f0565b600383015460028401549192506000916127109168010000000000000000900467ffffffffffffffff169061245e908561322b565b612468919061322b565b61247291906131f0565b836002015461248191906131d8565b9050600061248f828761322b565b8454600386015491925060009189919067ffffffffffffffff166124b48760016131d8565b6124be919061322b565b6124c891906131d8565b6124d291906132dc565b6124dc9088613268565b90505b600081131561255b57600385015460028601546127109168010000000000000000900467ffffffffffffffff1690612517908461322b565b612521919061322b565b61252b91906131f0565b61253590836131d8565b60038601549092506125549067ffffffffffffffff1660070b82613268565b90506124df565b509695505050505050565b6000612573888887612792565b600854815160208301516040808501516060860151608087015160a088015160c089015160e08a015195517fe942c3670000000000000000000000000000000000000000000000000000000081526004810198909852602488019690965260448701939093526064860191909152608485015260a484015260c483019190915260e4820152610104810185905291925060009173ffffffffffffffffffffffffffffffffffffffff9091169063e942c3679061012401602060405180830381600087803b15801561264357600080fd5b505af1158015612657573d6000803e3d6000fd5b505050506040513d601f19601f8201168201806040525081019061267b91906130c5565b90506126de8989838560200151866000015161269791906131d8565b86516126a3908761322b565b6126ad91906131f0565b602087015187516126be91906131d8565b60208801516126cd908861322b565b6126d791906131f0565b898d612ba8565b73ffffffffffffffffffffffffffffffffffffffff85161561278757600c546040517f211b1cdd00000000000000000000000000000000000000000000000000000000815273ffffffffffffffffffffffffffffffffffffffff8781166004830152602482018b90529091169063211b1cdd90604401600060405180830381600087803b15801561276e57600080fd5b505af1158015612782573d6000803e3d6000fd5b505050505b505050505050505050565b6127da60405180610100016040528060008152602001600081526020016000815260200160008152602001600081526020016000815260200160008152602001600081525090565b60006002905061282860405180610100016040528060008152602001600081526020016000815260200160008152602001600081526020016000815260200160008152602001600081525090565b858460005b87811015612b9b576003850154600286015486546000926127109267ffffffffffffffff6801000000000000000083048116939192169061286e90896132dc565b61287891906131f0565b612882919061322b565b61288c919061322b565b61289691906131f0565b86600201546128a591906131d8565b6009546040517f0393f3d300000000000000000000000000000000000000000000000000000000815260048101879052919250600091829182918291829182918291829173ffffffffffffffffffffffffffffffffffffffff1690630393f3d39060240161010060405180830381600087803b15801561292457600080fd5b505af1158015612938573d6000803e3d6000fd5b505050506040513d601f19601f8201168201806040525081019061295c9190613015565b975097509750975097509750975097506127108861ffff168a61297f919061322b565b61298991906131f0565b8d518e906129989083906131d8565b9052506127106129ac61ffff89168b61322b565b6129b691906131f0565b8d6020018181516129c791906131d8565b9052506127106129db61ffff88168b61322b565b6129e591906131f0565b8d6040018181516129f691906131d8565b905250612710612a0a61ffff87168b61322b565b612a1491906131f0565b8d606001818151612a2591906131d8565b905250612710612a3961ffff86168b61322b565b612a4391906131f0565b8d608001818151612a5491906131d8565b905250612710612a6861ffff85168b61322b565b612a7291906131f0565b8d60a001818151612a8391906131d8565b905250612710612a9761ffff84168b61322b565b612aa191906131f0565b8d60c001818151612ab291906131d8565b905250612710612ac661ffff83168b61322b565b612ad091906131f0565b8d60e001818151612ae191906131d8565b9052506007546040517f9c8446f7000000000000000000000000000000000000000000000000000000008152600481018e905273ffffffffffffffffffffffffffffffffffffffff8d8116602483015290911690639c8446f790604401600060405180830381600087803b158015612b5857600080fd5b505af1158015612b6c573d6000803e3d6000fd5b5050505060018c612b7d91906131d8565b9b505050505050505050508080612b93906132f3565b91505061282d565b5091979650505050505050565b600a546040517f912cbe1000000000000000000000000000000000000000000000000000000000815273ffffffffffffffffffffffffffffffffffffffff838116600483015260029260009291169063912cbe109060240160206040518083038186803b158015612c1857600080fd5b505afa158015612c2c573d6000803e3d6000fd5b505050506040513d601f19601f82011682018060405250810190612c5091906131b5565b905060005b88811015612e3e5760006127108460030160089054906101000a900467ffffffffffffffff1667ffffffffffffffff1685600201548660030160009054906101000a900467ffffffffffffffff1667ffffffffffffffff1687600001548f612cbd91906132dc565b612cc791906131f0565b612cd1919061322b565b612cdb919061322b565b612ce591906131f0565b8460020154612cf491906131d8565b9050600086612d03838b61322b565b612d0d91906131f0565b9050600087612d1c848b61322b565b612d2691906131f0565b9050600b60009054906101000a900473ffffffffffffffffffffffffffffffffffffffff1673ffffffffffffffffffffffffffffffffffffffff166397795c668e84846040518463ffffffff1660e01b8152600401612d98939291909283526020830191909152604082015260600190565b600060405180830381600087803b158015612db257600080fd5b505af1158015612dc6573d6000803e3d6000fd5b505060408051602081018690529081018490524260608201526080810186905260a081018e90526000925060c0019050604051602081830303815290604052805190602001209050612e1a8e828a89612e4a565b612e2560018f6131d8565b9d50505050508080612e36906132f3565b915050612c55565b50505050505050505050565b600a546040517fca3dac2d000000000000000000000000000000000000000000000000000000008152600481018690526024810185905273ffffffffffffffffffffffffffffffffffffffff848116604483015260ff8416606483015260106084830152600092169063ca3dac2d9060a401602060405180830381600087803b158015612ed657600080fd5b505af1158015612eea573d6000803e3d6000fd5b505050506040513d601f19601f82011682018060405250810190612f0e9190612ff3565b905080612f77576040517f08c379a000000000000000000000000000000000000000000000000000000000815260206004820152601460248201527f73796d626f6c206e6f742067656e657261746564000000000000000000000000604482015260640161074b565b5050505050565b803573ffffffffffffffffffffffffffffffffffffffff81168114612fa257600080fd5b919050565b805161ffff81168114612fa257600080fd5b803567ffffffffffffffff81168114612fa257600080fd5b600060208284031215612fe357600080fd5b612fec82612f7e565b9392505050565b60006020828403121561300557600080fd5b81518015158114612fec57600080fd5b600080600080600080600080610100898b03121561303257600080fd5b61303b89612fa7565b975061304960208a01612fa7565b965061305760408a01612fa7565b955061306560608a01612fa7565b945061307360808a01612fa7565b935061308160a08a01612fa7565b925061308f60c08a01612fa7565b915061309d60e08a01612fa7565b90509295985092959890939650565b6000602082840312156130be57600080fd5b5035919050565b6000602082840312156130d757600080fd5b5051919050565b600080600080608085870312156130f457600080fd5b8435935061310460208601612f7e565b925061311260408601612f7e565b9396929550929360600135925050565b600080600080600060a0868803121561313a57600080fd5b853594506020860135935061315160408701612fb9565b925061315f60608701612fb9565b915061316d60808701612fb9565b90509295509295909350565b60008060006060848603121561318e57600080fd5b8335925061319e60208501612fb9565b91506131ac60408501612fb9565b90509250925092565b6000602082840312156131c757600080fd5b815160ff81168114612fec57600080fd5b600082198211156131eb576131eb61332c565b500190565b600082613226577f4e487b7100000000000000000000000000000000000000000000000000000000600052601260045260246000fd5b500490565b6000817fffffffffffffffffffffffffffffffffffffffffffffffffffffffffffffffff04831182151516156132635761326361332c565b500290565b6000808312837f8000000000000000000000000000000000000000000000000000000000000000018312811516156132a2576132a261332c565b837f7fffffffffffffffffffffffffffffffffffffffffffffffffffffffffffffff0183138116156132d6576132d661332c565b50500390565b6000828210156132ee576132ee61332c565b500390565b60007fffffffffffffffffffffffffffffffffffffffffffffffffffffffffffffffff8214156133255761332561332c565b5060010190565b7f4e487b7100000000000000000000000000000000000000000000000000000000600052601160045260246000fdfea2646970667358221220c5d0d20aea0643a056aa87b26facfd9fd3cc7bb4cd369d3a89a587d7c712d36e64736f6c63430008060033",
  "immutableReferences": {},
  "source": "// // SPDX-License-Identifier: GPL-3.0\npragma solidity ^0.8.6;\n\nimport \"@openzeppelin/contracts-upgradeable/proxy/utils/Initializable.sol\";\nimport \"@openzeppelin/contracts-upgradeable/token/ERC20/IERC20Upgradeable.sol\";\nimport \"../access/IAccessRestriction.sol\";\nimport \"../tree/ITreeFactory.sol\";\nimport \"../treasury/IWethFund.sol\";\nimport \"../treasury/IAllocation.sol\";\nimport \"../treasury/IPlanterFund.sol\";\nimport \"../tree/IAttribute.sol\";\nimport \"../regularSale/IRegularSale.sol\";\nimport \"./IIncrementalSale.sol\";\n\ncontract IncrementalSale is Initializable, IIncrementalSale {\n    struct IncrementalSaleData {\n        uint256 startTreeId;\n        uint256 endTreeId;\n        uint256 initialPrice;\n        uint64 increments;\n        uint64 priceJump;\n    }\n\n    struct TotalBalances {\n        uint256 planter;\n        uint256 ambassador;\n        uint256 research;\n        uint256 localDevelopment;\n        uint256 insurance;\n        uint256 treasury;\n        uint256 reserve1;\n        uint256 reserve2;\n    }\n\n    /** NOTE {isIncrementalSale} set inside the initialize to {true} */\n    bool public override isIncrementalSale;\n    /** NOTE last tree id sold in incremetal sale */\n    uint256 public override lastSold;\n\n    /** NOTE {incrementalSaleData} store startTreeId, endTreeId, initialPrice,\n     *  increments, priceJump values\n     */\n    IncrementalSaleData public override incrementalSaleData;\n\n    IAccessRestriction public accessRestriction;\n    ITreeFactory public treeFactory;\n    IWethFund public wethFund;\n    IAllocation public allocation;\n    IAttribute public attribute;\n    IPlanterFund public planterFundContract;\n    IRegularSale public regularSale;\n    IERC20Upgradeable public wethToken;\n\n    /** NOTE modifier to check msg.sender has admin role */\n    modifier onlyAdmin() {\n        accessRestriction.ifAdmin(msg.sender);\n        _;\n    }\n\n    /** NOTE modifier to check msg.sender has data manager role */\n    modifier onlyDataManager() {\n        accessRestriction.ifDataManager(msg.sender);\n        _;\n    }\n\n    /** NOTE modifier for check if function is not paused */\n    modifier ifNotPaused() {\n        accessRestriction.ifNotPaused();\n        _;\n    }\n\n    /** NOTE modifier for check valid address */\n    modifier validAddress(address _address) {\n        require(_address != address(0), \"invalid address\");\n        _;\n    }\n\n    /**\n     * @dev initialize AccessRestriction contract and set true for isIncrementalSale\n     * @param _accessRestrictionAddress set to the address of AccessRestriction contract\n     */\n    function initialize(address _accessRestrictionAddress)\n        external\n        override\n        initializer\n    {\n        IAccessRestriction candidateContract = IAccessRestriction(\n            _accessRestrictionAddress\n        );\n        require(candidateContract.isAccessRestriction());\n        isIncrementalSale = true;\n        accessRestriction = candidateContract;\n    }\n\n    /**\n     * @dev admin set PlanterFund contract address\n     * @param _address set to the address of PlanterFund contract\n     */\n\n    function setPlanterFundAddress(address _address)\n        external\n        override\n        onlyAdmin\n    {\n        IPlanterFund candidateContract = IPlanterFund(_address);\n        require(candidateContract.isPlanterFund());\n        planterFundContract = candidateContract;\n    }\n\n    /**\n     * @dev admin set RegularSale contract address\n     * @param _address set to the address of RegularSale contract\n     */\n    function setRegularSaleAddress(address _address)\n        external\n        override\n        onlyAdmin\n    {\n        IRegularSale candidateContract = IRegularSale(_address);\n        require(candidateContract.isRegularSale());\n        regularSale = candidateContract;\n    }\n\n    /** @dev admin set TreeFactory contract address\n     * @param _address set to the address of TreeFactory contract\n     */\n    function setTreeFactoryAddress(address _address)\n        external\n        override\n        onlyAdmin\n    {\n        ITreeFactory candidateContract = ITreeFactory(_address);\n        require(candidateContract.isTreeFactory());\n        treeFactory = candidateContract;\n    }\n\n    /** @dev admin set WethFund contract address\n     * @param _address set to the address of WethFund contract\n     */\n    function setWethFundAddress(address _address) external override onlyAdmin {\n        IWethFund candidateContract = IWethFund(_address);\n\n        require(candidateContract.isWethFund());\n\n        wethFund = candidateContract;\n    }\n\n    /** @dev admin set wethToken contract address\n     * @param _address set to the address of WethToken contract\n     */\n    function setWethTokenAddress(address _address)\n        external\n        override\n        onlyAdmin\n        validAddress(_address)\n    {\n        IERC20Upgradeable candidateContract = IERC20Upgradeable(_address);\n        wethToken = candidateContract;\n    }\n\n    /**\n     * @dev admin set Allocation contract address\n     * @param _address set to the address of Allocation contract\n     */\n    function setAllocationAddress(address _address)\n        external\n        override\n        onlyAdmin\n    {\n        IAllocation candidateContract = IAllocation(_address);\n        require(candidateContract.isAllocation());\n        allocation = candidateContract;\n    }\n\n    /**\n     * @dev admin set Attribute contract address\n     * @param _address set to the address of Attribute contract\n     */\n\n    function setAttributesAddress(address _address)\n        external\n        override\n        onlyAdmin\n    {\n        IAttribute candidateContract = IAttribute(_address);\n        require(candidateContract.isAttribute());\n        attribute = candidateContract;\n    }\n\n    /**\n     * @dev admin set a tree range from {startTreeId} to {startTreeId + treeCount}\n     * for incremental sales\n     * @param _startTreeId starting treeId\n     * @param _initialPrice initialPrice of trees\n     * @param _treeCount number of tree in incremental sell\n     * @param _increments number of trees after which the price increases\n     * @param _priceJump price jump\n     */\n    function createIncrementalSale(\n        uint256 _startTreeId,\n        uint256 _initialPrice,\n        uint64 _treeCount,\n        uint64 _increments,\n        uint64 _priceJump\n    ) external override ifNotPaused onlyDataManager {\n        require(_treeCount > 0 && _treeCount < 501, \"invalid treeCount\");\n\n        require(_startTreeId > 100, \"trees are under Auction\");\n\n        require(_increments > 0, \"incremental period should be positive\");\n\n        IncrementalSaleData storage incSaleData = incrementalSaleData;\n\n        require(\n            incSaleData.endTreeId == lastSold + 1 ||\n                incSaleData.increments == 0,\n            \"can't create new IncrementalSale\"\n        );\n\n        require(\n            allocation.allocationExists(_startTreeId),\n            \"equivalant fund Model not exists\"\n        );\n\n        require(\n            treeFactory.manageSaleTypeBatch(\n                _startTreeId,\n                _startTreeId + _treeCount,\n                2\n            ),\n            \"trees are not available for sell\"\n        );\n\n        incSaleData.startTreeId = _startTreeId;\n        incSaleData.endTreeId = _startTreeId + _treeCount;\n        incSaleData.initialPrice = _initialPrice;\n        incSaleData.increments = _increments;\n        incSaleData.priceJump = _priceJump;\n\n        lastSold = _startTreeId - 1;\n\n        emit IncrementalSaleUpdated();\n    }\n\n    /**\n     * @dev remove some trees from incremental sale and reset saleType of that trees\n     * NOTE {_count} trees removed from first of the incremetalSale tree range\n     * @param _count is number of trees to remove\n     */\n    function removeIncrementalSale(uint256 _count)\n        external\n        override\n        ifNotPaused\n        onlyDataManager\n    {\n        require(_count > 0 && _count < 501, \"invalid count\");\n        IncrementalSaleData storage incSaleData = incrementalSaleData;\n\n        uint256 newStartTreeId = incSaleData.startTreeId + _count;\n\n        require(\n            incSaleData.increments > 0 &&\n                newStartTreeId <= incSaleData.endTreeId,\n            \"IncrementalSale not exist or count must be lt endTree\"\n        );\n\n        treeFactory.resetSaleTypeBatch(\n            incSaleData.startTreeId,\n            newStartTreeId,\n            2\n        );\n\n        incSaleData.startTreeId = newStartTreeId;\n        lastSold = newStartTreeId - 1;\n\n        emit IncrementalSaleUpdated();\n    }\n\n    /**\n     * @dev admin update endTreeId of incrementalSale tree range\n     * @param _treeCount number of trees added at the end of the incrementalSale\n     * tree range\n     */\n    function updateEndTreeId(uint256 _treeCount)\n        external\n        override\n        ifNotPaused\n        onlyDataManager\n    {\n        require(_treeCount > 0 && _treeCount < 501, \"invalid count\");\n\n        IncrementalSaleData storage incSaleData = incrementalSaleData;\n\n        require(incSaleData.increments > 0, \"incremental sale should be exist\");\n\n        require(\n            treeFactory.manageSaleTypeBatch(\n                incSaleData.endTreeId,\n                incSaleData.endTreeId + _treeCount,\n                2\n            ),\n            \"trees are not available for sell\"\n        );\n        incSaleData.endTreeId = incSaleData.endTreeId + _treeCount;\n\n        emit IncrementalSaleUpdated();\n    }\n\n    /**\n     * @dev fund {_count} tree\n     * NOTE if {_recipient} address exist tree minted to the {_recipient}\n     * and mint to the function caller otherwise\n     * NOTE function caller pay for the price of trees\n     * NOTE total price calculated based on the incrementalSaleData\n     * NOTE based on the allocation data for tree totalBalances and PlanterFund\n     * contract balance updated\n     * NOTE generate unique symbols for trees\n     * @param _count number of trees to fund\n     * @param _referrer address of referrer\n     * @param _recipient address of recipient\n     */\n    function fundTree(\n        uint256 _count,\n        address _referrer,\n        address _recipient,\n        uint256 _minDaiOut\n    ) external override ifNotPaused {\n        require(_count < 101 && _count > 0, \"Count must be lt 100\");\n\n        IncrementalSaleData storage incSaleData = incrementalSaleData;\n\n        require(\n            lastSold + _count < incSaleData.endTreeId,\n            \"Not enough tree in incremental sell\"\n        );\n\n        address recipient = _recipient == address(0) ? msg.sender : _recipient;\n\n        require(recipient != _referrer, \"Invalid referal address\");\n\n        uint256 tempLastSold = lastSold + 1;\n\n        //calc total price\n\n        uint256 totalPrice = _calcTotalPrice(tempLastSold, _count);\n\n        //transfer totalPrice to wethFund\n        require(\n            wethToken.balanceOf(msg.sender) >= totalPrice,\n            \"low price paid\"\n        );\n\n        bool success = wethToken.transferFrom(\n            msg.sender,\n            address(wethFund),\n            totalPrice\n        );\n\n        require(success, \"unsuccessful transfer\");\n\n        _setAllocation(\n            tempLastSold,\n            _count,\n            msg.sender,\n            recipient,\n            _referrer,\n            totalPrice,\n            _minDaiOut\n        );\n\n        lastSold = tempLastSold + _count - 1;\n\n        emit TreeFunded(msg.sender, recipient, _referrer, tempLastSold, _count);\n    }\n\n    /** @dev admin update incrementalSaleData\n     * @param _initialPrice initialPrice of trees\n     * @param _increments number of trees after which the price increases\n     * @param _priceJump price jump\n     */\n    function updateIncrementalSaleData(\n        uint256 _initialPrice,\n        uint64 _increments,\n        uint64 _priceJump\n    ) external override ifNotPaused onlyDataManager {\n        require(_increments > 0, \"incremental period should be positive\");\n\n        IncrementalSaleData storage incSaleData = incrementalSaleData;\n\n        require(incSaleData.increments > 0, \"incremental sale should be exist\");\n\n        incSaleData.initialPrice = _initialPrice;\n        incSaleData.increments = _increments;\n        incSaleData.priceJump = _priceJump;\n\n        emit IncrementalSaleDataUpdated();\n    }\n\n    /**\n     * @dev calculate amount of each part in totalBalances based on the tree allocation\n     * data and total price of trees and update them in totalBlances.\n     * NOTE trees minted to the recipient\n     * @param _tempLastSold last tree id sold in incremetal sale\n     * @param _count number of trees to fund\n     * @param _funder address of funder\n     * @param _recipient address of recipient\n     * @param _referrer address of referrer\n     * @param _totalPrice total price of trees\n     */\n    function _setAllocation(\n        uint256 _tempLastSold,\n        uint256 _count,\n        address _funder,\n        address _recipient,\n        address _referrer,\n        uint256 _totalPrice,\n        uint256 _minDaiOut\n    ) private {\n        TotalBalances memory totalBalances = _mintFundedTree(\n            _tempLastSold,\n            _count,\n            _recipient\n        );\n\n        uint256 daiAmount = wethFund.fundTreeBatch(\n            totalBalances.planter,\n            totalBalances.ambassador,\n            totalBalances.research,\n            totalBalances.localDevelopment,\n            totalBalances.insurance,\n            totalBalances.treasury,\n            totalBalances.reserve1,\n            totalBalances.reserve2,\n            _minDaiOut\n        );\n\n        _setPlanterAllocation(\n            _tempLastSold,\n            _count,\n            daiAmount,\n            (daiAmount * totalBalances.planter) /\n                (totalBalances.planter + totalBalances.ambassador), //planterDaiAmount\n            (daiAmount * totalBalances.ambassador) /\n                (totalBalances.planter + totalBalances.ambassador), //ambassadorDaiAmount\n            _totalPrice,\n            _funder\n        );\n\n        if (_referrer != address(0)) {\n            regularSale.updateReferrerClaimableTreesWeth(_referrer, _count);\n        }\n    }\n\n    /**\n     * @dev update projected earning in PlanterFund and create symbol for tree\n     * @param _tempLastSold last tree id sold in incremetal sale\n     * @param _count number of trees to fund\n     * @param _daiAmount total dai amount\n     * @param _planterDaiAmount total planter dai share\n     * @param _ambassadorDaiAmount total ambassador dai share\n     * @param _totalPrice total price\n     * @param _funder address of funder\n     */\n    function _setPlanterAllocation(\n        uint256 _tempLastSold,\n        uint256 _count,\n        uint256 _daiAmount,\n        uint256 _planterDaiAmount,\n        uint256 _ambassadorDaiAmount,\n        uint256 _totalPrice,\n        address _funder\n    ) private {\n        IncrementalSaleData storage incSaleData = incrementalSaleData;\n\n        uint8 funderRank = attribute.getFunderRank(_funder);\n\n        for (uint256 i = 0; i < _count; i++) {\n            uint256 treePrice = incSaleData.initialPrice +\n                (((_tempLastSold - incSaleData.startTreeId) /\n                    incSaleData.increments) *\n                    incSaleData.initialPrice *\n                    incSaleData.priceJump) /\n                10000;\n\n            uint256 planterDaiAmount = (_planterDaiAmount * treePrice) /\n                _totalPrice;\n\n            uint256 ambassadorDaiAmount = (_ambassadorDaiAmount * treePrice) /\n                _totalPrice;\n\n            planterFundContract.updateProjectedEarnings(\n                _tempLastSold,\n                planterDaiAmount,\n                ambassadorDaiAmount\n            );\n\n            bytes32 randTree = keccak256(\n                abi.encodePacked(\n                    planterDaiAmount,\n                    ambassadorDaiAmount,\n                    block.timestamp,\n                    treePrice,\n                    _daiAmount\n                )\n            );\n\n            _createSymbol(_tempLastSold, randTree, _funder, funderRank);\n\n            _tempLastSold += 1;\n        }\n    }\n\n    function _calcTotalPrice(uint256 _tempLastSold, uint256 _count)\n        private\n        view\n        returns (uint256)\n    {\n        IncrementalSaleData storage incSaleData = incrementalSaleData;\n\n        uint256 y = (_tempLastSold - incSaleData.startTreeId) /\n            incSaleData.increments;\n\n        uint256 tempLastSoldPrice = incSaleData.initialPrice +\n            (y * incSaleData.initialPrice * incSaleData.priceJump) /\n            10000;\n\n        uint256 totalPrice = _count * tempLastSoldPrice;\n\n        int256 extra = int256(_count) -\n            int256(\n                (y + 1) *\n                    incSaleData.increments +\n                    incSaleData.startTreeId -\n                    _tempLastSold\n            );\n\n        while (extra > 0) {\n            totalPrice +=\n                (uint256(extra) *\n                    incSaleData.initialPrice *\n                    incSaleData.priceJump) /\n                10000;\n            extra -= int64(incSaleData.increments);\n        }\n\n        return totalPrice;\n    }\n\n    function _mintFundedTree(\n        uint256 _tempLastSold,\n        uint256 _count,\n        address _recipient\n    ) private returns (TotalBalances memory) {\n        IncrementalSaleData storage incSaleData = incrementalSaleData;\n\n        TotalBalances memory totalBalances;\n\n        uint256 tempLastSold = _tempLastSold;\n        address recipient = _recipient;\n\n        for (uint256 i = 0; i < _count; i++) {\n            uint256 treePrice = incSaleData.initialPrice +\n                (((tempLastSold - incSaleData.startTreeId) /\n                    incSaleData.increments) *\n                    incSaleData.initialPrice *\n                    incSaleData.priceJump) /\n                10000;\n\n            (\n                uint16 planterShare,\n                uint16 ambassadorShare,\n                uint16 researchShare,\n                uint16 localDevelopmentShare,\n                uint16 insuranceShare,\n                uint16 treasuryShare,\n                uint16 reserve1Share,\n                uint16 reserve2Share\n            ) = allocation.findAllocationData(tempLastSold);\n\n            totalBalances.planter += (treePrice * planterShare) / 10000;\n            totalBalances.ambassador += (treePrice * ambassadorShare) / 10000;\n            totalBalances.research += (treePrice * researchShare) / 10000;\n            totalBalances.localDevelopment +=\n                (treePrice * localDevelopmentShare) /\n                10000;\n            totalBalances.insurance += (treePrice * insuranceShare) / 10000;\n            totalBalances.treasury += (treePrice * treasuryShare) / 10000;\n            totalBalances.reserve1 += (treePrice * reserve1Share) / 10000;\n            totalBalances.reserve2 += (treePrice * reserve2Share) / 10000;\n\n            treeFactory.mintAssignedTree(tempLastSold, recipient);\n            tempLastSold += 1;\n        }\n\n        return (totalBalances);\n    }\n\n    function _createSymbol(\n        uint256 _tempLastSold,\n        bytes32 _randTree,\n        address _funder,\n        uint8 _funderRank\n    ) private {\n        bool symbolCreated = attribute.createSymbol(\n            _tempLastSold,\n            _randTree,\n            _funder,\n            _funderRank,\n            16\n        );\n\n        require(symbolCreated, \"symbol not generated\");\n    }\n}\n",
  "sourcePath": "/home/ali/Desktop/treejer/contract/contracts/incrementalSale/IncrementalSale.sol",
  "compiler": {
    "name": "solc",
    "version": "0.8.6+commit.11564f7e.Emscripten.clang"
  },
  "schemaVersion": "3.4.3",
  "updatedAt": "2022-01-11T12:01:47.727Z",
  "networkType": "ethereum",
  "devdoc": {
    "kind": "dev",
    "methods": {
      "createIncrementalSale(uint256,uint256,uint64,uint64,uint64)": {
        "details": "admin set a tree range from {startTreeId} to {startTreeId + treeCount} for incremental sales",
        "params": {
          "_increments": "number of trees after which the price increases",
          "_initialPrice": "initialPrice of trees",
          "_priceJump": "price jump",
          "_startTreeId": "starting treeId",
          "_treeCount": "number of tree in incremental sell"
        }
      },
      "fundTree(uint256,address,address,uint256)": {
        "details": "fund {_count} tree NOTE if {_recipient} address exist tree minted to the {_recipient} and mint to the function caller otherwise NOTE function caller pay for the price of trees NOTE total price calculated based on the incrementalSaleData NOTE based on the allocation data for tree totalBalances and PlanterFund contract balance updated NOTE generate unique symbols for trees",
        "params": {
          "_count": "number of trees to fund",
          "_recipient": "address of recipient",
          "_referrer": "address of referrer"
        }
      },
      "initialize(address)": {
        "details": "initialize AccessRestriction contract and set true for isIncrementalSale",
        "params": {
          "_accessRestrictionAddress": "set to the address of AccessRestriction contract"
        }
      },
      "removeIncrementalSale(uint256)": {
        "details": "remove some trees from incremental sale and reset saleType of that trees NOTE {_count} trees removed from first of the incremetalSale tree range",
        "params": {
          "_count": "is number of trees to remove"
        }
      },
      "setAllocationAddress(address)": {
        "details": "admin set Allocation contract address",
        "params": {
          "_address": "set to the address of Allocation contract"
        }
      },
      "setAttributesAddress(address)": {
        "details": "admin set Attribute contract address",
        "params": {
          "_address": "set to the address of Attribute contract"
        }
      },
      "setPlanterFundAddress(address)": {
        "details": "admin set PlanterFund contract address",
        "params": {
          "_address": "set to the address of PlanterFund contract"
        }
      },
      "setRegularSaleAddress(address)": {
        "details": "admin set RegularSale contract address",
        "params": {
          "_address": "set to the address of RegularSale contract"
        }
      },
      "setTreeFactoryAddress(address)": {
        "details": "admin set TreeFactory contract address",
        "params": {
          "_address": "set to the address of TreeFactory contract"
        }
      },
      "setWethFundAddress(address)": {
        "details": "admin set WethFund contract address",
        "params": {
          "_address": "set to the address of WethFund contract"
        }
      },
      "setWethTokenAddress(address)": {
        "details": "admin set wethToken contract address",
        "params": {
          "_address": "set to the address of WethToken contract"
        }
      },
      "updateEndTreeId(uint256)": {
        "details": "admin update endTreeId of incrementalSale tree range",
        "params": {
          "_treeCount": "number of trees added at the end of the incrementalSale tree range"
        }
      },
      "updateIncrementalSaleData(uint256,uint64,uint64)": {
        "details": "admin update incrementalSaleData",
        "params": {
          "_increments": "number of trees after which the price increases",
          "_initialPrice": "initialPrice of trees",
          "_priceJump": "price jump"
        }
      }
    },
    "version": 1
  },
  "userdoc": {
    "kind": "user",
    "methods": {
      "incrementalSaleData()": {
        "notice": "NOTE {incrementalSaleData} store startTreeId, endTreeId, initialPrice,  increments, priceJump values"
      },
      "isIncrementalSale()": {
        "notice": "NOTE {isIncrementalSale} set inside the initialize to {true} "
      },
      "lastSold()": {
        "notice": "NOTE last tree id sold in incremetal sale "
      }
    },
    "version": 1
  }
}