{
  "contractName": "MarketPlace",
  "abi": [
    {
      "anonymous": false,
      "inputs": [
        {
          "indexed": false,
          "internalType": "uint256",
          "name": "modelId",
          "type": "uint256"
        },
        {
          "indexed": false,
          "internalType": "uint256",
          "name": "lastPlant",
          "type": "uint256"
        }
      ],
      "name": "LastPlantedOfModelUpdated",
      "type": "event"
    },
    {
      "anonymous": false,
      "inputs": [
        {
          "indexed": false,
          "internalType": "address",
          "name": "recipient",
          "type": "address"
        },
        {
          "indexed": false,
          "internalType": "uint256",
          "name": "modelId",
          "type": "uint256"
        },
        {
          "indexed": false,
          "internalType": "uint256",
          "name": "start",
          "type": "uint256"
        },
        {
          "indexed": false,
          "internalType": "uint256",
          "name": "count",
          "type": "uint256"
        },
        {
          "indexed": false,
          "internalType": "uint256",
          "name": "price",
          "type": "uint256"
        }
      ],
      "name": "MarketPlaceMint",
      "type": "event"
    },
    {
      "anonymous": false,
      "inputs": [
        {
          "indexed": false,
          "internalType": "uint256",
          "name": "modelId",
          "type": "uint256"
        },
        {
          "indexed": false,
          "internalType": "uint8",
          "name": "country",
          "type": "uint8"
        },
        {
          "indexed": false,
          "internalType": "uint8",
          "name": "species",
          "type": "uint8"
        },
        {
          "indexed": false,
          "internalType": "uint256",
          "name": "price",
          "type": "uint256"
        },
        {
          "indexed": false,
          "internalType": "uint256",
          "name": "count",
          "type": "uint256"
        },
        {
          "indexed": false,
          "internalType": "address",
          "name": "creator",
          "type": "address"
        },
        {
          "indexed": false,
          "internalType": "uint256",
          "name": "start",
          "type": "uint256"
        },
        {
          "indexed": false,
          "internalType": "uint256",
          "name": "lastFund",
          "type": "uint256"
        },
        {
          "indexed": false,
          "internalType": "uint256",
          "name": "lastPlant",
          "type": "uint256"
        },
        {
          "indexed": false,
          "internalType": "uint256",
          "name": "lastReservePlant",
          "type": "uint256"
        }
      ],
      "name": "ModelAdded",
      "type": "event"
    },
    {
      "anonymous": false,
      "inputs": [
        {
          "indexed": false,
          "internalType": "uint256",
          "name": "modelId",
          "type": "uint256"
        },
        {
          "indexed": false,
          "internalType": "uint8",
          "name": "species",
          "type": "uint8"
        },
        {
          "indexed": false,
          "internalType": "uint8",
          "name": "country",
          "type": "uint8"
        }
      ],
      "name": "ModelDataUpdated",
      "type": "event"
    },
    {
      "anonymous": false,
      "inputs": [
        {
          "indexed": false,
          "internalType": "uint256",
          "name": "modelId",
          "type": "uint256"
        },
        {
          "indexed": false,
          "internalType": "uint256",
          "name": "status",
          "type": "uint256"
        }
      ],
      "name": "ModelDeactivated",
      "type": "event"
    },
    {
      "anonymous": false,
      "inputs": [
        {
          "indexed": false,
          "internalType": "uint256",
          "name": "modelId",
          "type": "uint256"
        }
      ],
      "name": "ModelDeleted",
      "type": "event"
    },
    {
      "anonymous": false,
      "inputs": [
        {
          "indexed": false,
          "internalType": "uint256",
          "name": "modelId",
          "type": "uint256"
        },
        {
          "indexed": false,
          "internalType": "uint256",
          "name": "price",
          "type": "uint256"
        }
      ],
      "name": "PriceUpdated",
      "type": "event"
    },
    {
      "anonymous": false,
      "inputs": [
        {
          "indexed": false,
          "internalType": "uint256",
          "name": "modelId",
          "type": "uint256"
        }
      ],
      "name": "SaleModelFinished",
      "type": "event"
    },
    {
      "anonymous": false,
      "inputs": [
        {
          "components": [
            {
              "internalType": "uint256",
              "name": "modelId",
              "type": "uint256"
            },
            {
              "internalType": "uint256",
              "name": "count",
              "type": "uint256"
            }
          ],
          "indexed": false,
          "internalType": "struct IMarketPlace.Input[]",
          "name": "models",
          "type": "tuple[]"
        },
        {
          "indexed": false,
          "internalType": "address",
          "name": "funder",
          "type": "address"
        },
        {
          "indexed": false,
          "internalType": "address",
          "name": "recipient",
          "type": "address"
        },
        {
          "indexed": false,
          "internalType": "address",
          "name": "referrer",
          "type": "address"
        },
        {
          "indexed": false,
          "internalType": "uint256",
          "name": "count",
          "type": "uint256"
        },
        {
          "indexed": false,
          "internalType": "uint256",
          "name": "amount",
          "type": "uint256"
        }
      ],
      "name": "TreeFunded",
      "type": "event"
    },
    {
      "inputs": [],
      "name": "accessRestriction",
      "outputs": [
        {
          "internalType": "contract IAccessRestriction",
          "name": "",
          "type": "address"
        }
      ],
      "stateMutability": "view",
      "type": "function"
    },
    {
      "inputs": [
        {
          "internalType": "address",
          "name": "",
          "type": "address"
        }
      ],
      "name": "activeModelCount",
      "outputs": [
        {
          "internalType": "uint256",
          "name": "",
          "type": "uint256"
        }
      ],
      "stateMutability": "view",
      "type": "function"
    },
    {
      "inputs": [],
      "name": "allocation",
      "outputs": [
        {
          "internalType": "contract IAllocation",
          "name": "",
          "type": "address"
        }
      ],
      "stateMutability": "view",
      "type": "function"
    },
    {
      "inputs": [],
      "name": "attribute",
      "outputs": [
        {
          "internalType": "contract IAttribute",
          "name": "",
          "type": "address"
        }
      ],
      "stateMutability": "view",
      "type": "function"
    },
    {
      "inputs": [],
      "name": "daiFund",
      "outputs": [
        {
          "internalType": "contract IDaiFund",
          "name": "",
          "type": "address"
        }
      ],
      "stateMutability": "view",
      "type": "function"
    },
    {
      "inputs": [],
      "name": "daiToken",
      "outputs": [
        {
          "internalType": "contract IERC20Upgradeable",
          "name": "",
          "type": "address"
        }
      ],
      "stateMutability": "view",
      "type": "function"
    },
    {
      "inputs": [],
      "name": "isMarketPlace",
      "outputs": [
        {
          "internalType": "bool",
          "name": "",
          "type": "bool"
        }
      ],
      "stateMutability": "view",
      "type": "function"
    },
    {
      "inputs": [
        {
          "internalType": "address",
          "name": "forwarder",
          "type": "address"
        }
      ],
      "name": "isTrustedForwarder",
      "outputs": [
        {
          "internalType": "bool",
          "name": "",
          "type": "bool"
        }
      ],
      "stateMutability": "view",
      "type": "function"
    },
    {
      "inputs": [],
      "name": "lastTreeAssigned",
      "outputs": [
        {
          "internalType": "uint256",
          "name": "",
          "type": "uint256"
        }
      ],
      "stateMutability": "view",
      "type": "function"
    },
    {
      "inputs": [],
      "name": "modelId",
      "outputs": [
        {
          "internalType": "uint256",
          "name": "_value",
          "type": "uint256"
        }
      ],
      "stateMutability": "view",
      "type": "function"
    },
    {
      "inputs": [
        {
          "internalType": "uint256",
          "name": "",
          "type": "uint256"
        }
      ],
      "name": "models",
      "outputs": [
        {
          "internalType": "uint8",
          "name": "country",
          "type": "uint8"
        },
        {
          "internalType": "uint8",
          "name": "species",
          "type": "uint8"
        },
        {
          "internalType": "uint8",
          "name": "deactive",
          "type": "uint8"
        },
        {
          "internalType": "address",
          "name": "creator",
          "type": "address"
        },
        {
          "internalType": "uint256",
          "name": "price",
          "type": "uint256"
        },
        {
          "internalType": "uint256",
          "name": "count",
          "type": "uint256"
        },
        {
          "internalType": "uint256",
          "name": "start",
          "type": "uint256"
        },
        {
          "internalType": "uint256",
          "name": "lastFund",
          "type": "uint256"
        },
        {
          "internalType": "uint256",
          "name": "lastPlant",
          "type": "uint256"
        },
        {
          "internalType": "uint256",
          "name": "lastReservePlant",
          "type": "uint256"
        }
      ],
      "stateMutability": "view",
      "type": "function"
    },
    {
      "inputs": [],
      "name": "planter",
      "outputs": [
        {
          "internalType": "contract IPlanterV2",
          "name": "",
          "type": "address"
        }
      ],
      "stateMutability": "view",
      "type": "function"
    },
    {
      "inputs": [],
      "name": "planterFundContract",
      "outputs": [
        {
          "internalType": "contract IPlanterFund",
          "name": "",
          "type": "address"
        }
      ],
      "stateMutability": "view",
      "type": "function"
    },
    {
      "inputs": [],
      "name": "regularSale",
      "outputs": [
        {
          "internalType": "contract IRegularSaleV2",
          "name": "",
          "type": "address"
        }
      ],
      "stateMutability": "view",
      "type": "function"
    },
    {
      "inputs": [],
      "name": "treeFactory",
      "outputs": [
        {
          "internalType": "contract ITreeFactoryV2",
          "name": "",
          "type": "address"
        }
      ],
      "stateMutability": "view",
      "type": "function"
    },
    {
      "inputs": [],
      "name": "trustedForwarder",
      "outputs": [
        {
          "internalType": "address",
          "name": "",
          "type": "address"
        }
      ],
      "stateMutability": "view",
      "type": "function"
    },
    {
      "inputs": [],
      "name": "versionRecipient",
      "outputs": [
        {
          "internalType": "string",
          "name": "",
          "type": "string"
        }
      ],
      "stateMutability": "pure",
      "type": "function"
    },
    {
      "inputs": [
        {
          "internalType": "address",
          "name": "_accessRestrictionAddress",
          "type": "address"
        }
      ],
      "name": "initialize",
      "outputs": [],
      "stateMutability": "nonpayable",
      "type": "function"
    },
    {
      "inputs": [
        {
          "internalType": "address",
          "name": "_address",
          "type": "address"
        }
      ],
      "name": "setDaiTokenAddress",
      "outputs": [],
      "stateMutability": "nonpayable",
      "type": "function"
    },
    {
      "inputs": [
        {
          "internalType": "address",
          "name": "_address",
          "type": "address"
        }
      ],
      "name": "setDaiFundAddress",
      "outputs": [],
      "stateMutability": "nonpayable",
      "type": "function"
    },
    {
      "inputs": [
        {
          "internalType": "address",
          "name": "_address",
          "type": "address"
        }
      ],
      "name": "setAllocationAddress",
      "outputs": [],
      "stateMutability": "nonpayable",
      "type": "function"
    },
    {
      "inputs": [
        {
          "internalType": "address",
          "name": "_address",
          "type": "address"
        }
      ],
      "name": "setTreeFactoryAddress",
      "outputs": [],
      "stateMutability": "nonpayable",
      "type": "function"
    },
    {
      "inputs": [
        {
          "internalType": "address",
          "name": "_address",
          "type": "address"
        }
      ],
      "name": "setAttributesAddress",
      "outputs": [],
      "stateMutability": "nonpayable",
      "type": "function"
    },
    {
      "inputs": [
        {
          "internalType": "address",
          "name": "_address",
          "type": "address"
        }
      ],
      "name": "setPlanterFundAddress",
      "outputs": [],
      "stateMutability": "nonpayable",
      "type": "function"
    },
    {
      "inputs": [
        {
          "internalType": "address",
          "name": "_address",
          "type": "address"
        }
      ],
      "name": "setRegularSaleAddress",
      "outputs": [],
      "stateMutability": "nonpayable",
      "type": "function"
    },
    {
      "inputs": [
        {
          "internalType": "address",
          "name": "_address",
          "type": "address"
        }
      ],
      "name": "setPlanterAddress",
      "outputs": [],
      "stateMutability": "nonpayable",
      "type": "function"
    },
    {
      "inputs": [
        {
          "internalType": "uint8",
          "name": "_country",
          "type": "uint8"
        },
        {
          "internalType": "uint8",
          "name": "_species",
          "type": "uint8"
        },
        {
          "internalType": "uint256",
          "name": "_price",
          "type": "uint256"
        },
        {
          "internalType": "uint256",
          "name": "_count",
          "type": "uint256"
        }
      ],
      "name": "addModel",
      "outputs": [],
      "stateMutability": "nonpayable",
      "type": "function"
    },
    {
      "inputs": [
        {
          "internalType": "uint256",
          "name": "_modelId",
          "type": "uint256"
        },
        {
          "internalType": "uint8",
          "name": "_species",
          "type": "uint8"
        },
        {
          "internalType": "uint8",
          "name": "_country",
          "type": "uint8"
        }
      ],
      "name": "updateModelData",
      "outputs": [],
      "stateMutability": "nonpayable",
      "type": "function"
    },
    {
      "inputs": [
        {
          "internalType": "uint256",
          "name": "_modelId",
          "type": "uint256"
        },
        {
          "internalType": "uint256",
          "name": "_price",
          "type": "uint256"
        }
      ],
      "name": "updatePrice",
      "outputs": [],
      "stateMutability": "nonpayable",
      "type": "function"
    },
    {
      "inputs": [
        {
          "internalType": "uint256",
          "name": "_modelId",
          "type": "uint256"
        },
        {
          "internalType": "uint8",
          "name": "_status",
          "type": "uint8"
        }
      ],
      "name": "deactiveModel",
      "outputs": [],
      "stateMutability": "nonpayable",
      "type": "function"
    },
    {
      "inputs": [
        {
          "internalType": "uint256",
          "name": "_modelId",
          "type": "uint256"
        }
      ],
      "name": "deleteModel",
      "outputs": [],
      "stateMutability": "nonpayable",
      "type": "function"
    },
    {
      "inputs": [
        {
          "components": [
            {
              "internalType": "uint256",
              "name": "modelId",
              "type": "uint256"
            },
            {
              "internalType": "uint256",
              "name": "count",
              "type": "uint256"
            }
          ],
          "internalType": "struct IMarketPlace.Input[]",
          "name": "_input",
          "type": "tuple[]"
        },
        {
          "internalType": "address",
          "name": "_referrer",
          "type": "address"
        },
        {
          "internalType": "address",
          "name": "_recipient",
          "type": "address"
        }
      ],
      "name": "fundTree",
      "outputs": [],
      "stateMutability": "nonpayable",
      "type": "function"
    },
    {
      "inputs": [
        {
          "internalType": "address",
          "name": "_sender",
          "type": "address"
        },
        {
          "internalType": "uint256",
          "name": "_modelId",
          "type": "uint256"
        }
      ],
      "name": "updateLastReservePlantedOfModel",
      "outputs": [],
      "stateMutability": "nonpayable",
      "type": "function"
    },
    {
      "inputs": [
        {
          "internalType": "uint256",
          "name": "_modelId",
          "type": "uint256"
        }
      ],
      "name": "reduceLastReservePlantedOfModel",
      "outputs": [],
      "stateMutability": "nonpayable",
      "type": "function"
    },
    {
      "inputs": [
        {
          "internalType": "uint256",
          "name": "_modelId",
          "type": "uint256"
        }
      ],
      "name": "updateLastPlantedOfModel",
      "outputs": [
        {
          "internalType": "uint256",
          "name": "",
          "type": "uint256"
        }
      ],
      "stateMutability": "nonpayable",
      "type": "function"
    },
    {
      "inputs": [
        {
          "internalType": "uint256",
          "name": "_modelId",
          "type": "uint256"
        }
      ],
      "name": "finishSaleModel",
      "outputs": [],
      "stateMutability": "nonpayable",
      "type": "function"
    }
  ],
  "bytecode": "0x608060405234801561001057600080fd5b506139f4806100206000396000f3fe608060405234801561001057600080fd5b506004361061025c5760003560e01c806381a65cd111610145578063c4d66de8116100bd578063db1891051161008c578063e81c4c3e11610071578063e81c4c3e14610621578063eddd3a3614610634578063f1326b151461064757600080fd5b8063db189105146105fb578063e817c1bc1461060e57600080fd5b8063c4d66de8146105af578063c96bd9ee146105c2578063ccfc31eb146105d5578063d6762c4a146105e857600080fd5b806395ab5aa511610114578063b1df6665116100f9578063b1df666514610576578063bc92ff3c14610589578063be22f5461461059c57600080fd5b806395ab5aa5146105505780639a24d56c1461056357600080fd5b806381a65cd11461050457806382367b2d1461051757806383310b2f1461052a57806388a17bde1461053d57600080fd5b806353a0464f116101d857806359bac35b116101a75780636f8a062c1161018c5780636f8a062c146104b15780637da0a877146104d857806380d663ea146104f157600080fd5b806359bac35b146103d05780636a030ca9146103e357600080fd5b806353a0464f1461035257806356d1f8c014610372578063572b6c051461038557806358d2a422146103bd57600080fd5b806343cdaad21161022f578063486ff0cd11610214578063486ff0cd146102f75780634ad07f9e1461033657806352e07f911461034957600080fd5b806343cdaad2146102cc578063441fb881146102e457600080fd5b80630bf351f81461026157806314b42c771461027657806321431338146102a6578063421ef6d4146102b9575b600080fd5b61027461026f366004613331565b61065a565b005b600654610289906001600160a01b031681565b6040516001600160a01b0390911681526020015b60405180910390f35b6102746102b4366004613529565b61079c565b600554610289906001600160a01b031681565b600a546102d69081565b60405190815260200161029d565b6102746102f23660046135ad565b610a72565b604080518082018252601d81527f322e322e302b747265656a65722e6972656c6179726563697069656e740000006020820152905161029d9190613754565b610274610344366004613331565b610c83565b6102d6600d5481565b6102d6610360366004613331565b600c6020526000908152604090205481565b61027461038036600461357d565b610dc5565b6103ad610393366004613331565b6000546201000090046001600160a01b0390811691161490565b604051901515815260200161029d565b6102746103cb366004613529565b610f8d565b6102746103de366004613331565b6110c8565b6104536103f1366004613529565b600b60205260009081526040902080546001820154600283015460038401546004850154600586015460069096015460ff8087169761010088048216976201000081049092169663010000009092046001600160a01b0316959194919391928a565b6040805160ff9b8c168152998b1660208b015297909916968801969096526001600160a01b03949094166060870152608086019290925260a085015260c084015260e08301526101008201526101208101919091526101400161029d565b6000546103ad90760100000000000000000000000000000000000000000000900460ff1681565b600054610289906201000090046001600160a01b031681565b600754610289906001600160a01b031681565b610274610512366004613353565b61120a565b61027461052536600461355b565b6114a4565b600954610289906001600160a01b031681565b600454610289906001600160a01b031681565b600854610289906001600160a01b031681565b610274610571366004613529565b6115d4565b600354610289906001600160a01b031681565b610274610597366004613331565b611847565b600254610289906001600160a01b031681565b6102746105bd366004613331565b611989565b6102746105d0366004613331565b611b8d565b6102746105e336600461337d565b611ccf565b600154610289906001600160a01b031681565b6102d6610609366004613529565b6129b6565b61027461061c366004613331565b612b32565b61027461062f366004613331565b612c74565b61027461064236600461367c565b612db6565b610274610655366004613331565b6130f5565b6001546001600160a01b0316638413ec14610673613210565b6040517fffffffff0000000000000000000000000000000000000000000000000000000060e084901b1681526001600160a01b03909116600482015260240160006040518083038186803b1580156106ca57600080fd5b505afa1580156106de573d6000803e3d6000fd5b505050506000819050806001600160a01b031663e0eb4eb96040518163ffffffff1660e01b815260040160206040518083038186803b15801561072057600080fd5b505afa158015610734573d6000803e3d6000fd5b505050506040513d601f19601f820116820180604052508101906107589190613470565b61076157600080fd5b600580547fffffffffffffffffffffffff0000000000000000000000000000000000000000166001600160a01b039290921691909117905550565b806000811180156107af5750600a548111155b6108265760405162461bcd60e51b815260206004820152602160248201527f4d61726b6574506c6163653a4d6f64656c496420697320696e636f727265637460448201527f2e0000000000000000000000000000000000000000000000000000000000000060648201526084015b60405180910390fd5b6000828152600b602052604090208054630100000090046001600160a01b031633146108945760405162461bcd60e51b815260206004820152601a60248201527f4d61726b6574506c6163653a4163636573732044656e6965642e000000000000604482015260640161081d565b805462010000900460ff16156109125760405162461bcd60e51b815260206004820152602260248201527f4d61726b6574506c6163653a4d6f64656c206265666f72652066696e6973686560448201527f642e000000000000000000000000000000000000000000000000000000000000606482015260840161081d565b600181600201548260030154610928919061383f565b61093291906138cf565b81600501541480156109665750600181600201548260030154610955919061383f565b61095f91906138cf565b8160040154145b6109d85760405162461bcd60e51b815260206004820152602760248201527f4d61726b6574506c6163653a706c616e74206f722066756e64206e6f7420666960448201527f6e69736865642e00000000000000000000000000000000000000000000000000606482015260840161081d565b8054630100000090046001600160a01b03166000908152600c60205260408120805460019290610a099084906138cf565b909155505080547fffffffffffffffffffffffffffffffffffffffffffffffffffffffffff00ffff16620200001781556040518381527f39303fbe674100e908734b586bb73a8a4945a4162de281c17836d24edf6ef037906020015b60405180910390a1505050565b82600081118015610a855750600a548111155b610af75760405162461bcd60e51b815260206004820152602160248201527f4d61726b6574506c6163653a4d6f64656c496420697320696e636f727265637460448201527f2e00000000000000000000000000000000000000000000000000000000000000606482015260840161081d565b6000848152600b602052604090208054630100000090046001600160a01b03163314610b655760405162461bcd60e51b815260206004820152601a60248201527f4d61726b6574506c6163653a4163636573732044656e6965642e000000000000604482015260640161081d565b80600501548160040154148015610b8f575060018160030154610b8891906138cf565b8160050154145b610c015760405162461bcd60e51b815260206004820152602360248201527f4d61726b6574506c6163653a5472656520506c616e746564206f722046756e6460448201527f65642e0000000000000000000000000000000000000000000000000000000000606482015260840161081d565b805460ff8481167fffffffffffffffffffffffffffffffffffffffffffffffffffffffffffff000090921682176101009187169182021783556040805188815260208101929092528101919091527f36859025009a53fe2d2ee47bfd449399691c5e263b89a6916791a134433c7d119060600160405180910390a15050505050565b6001546001600160a01b0316638413ec14610c9c613210565b6040517fffffffff0000000000000000000000000000000000000000000000000000000060e084901b1681526001600160a01b03909116600482015260240160006040518083038186803b158015610cf357600080fd5b505afa158015610d07573d6000803e3d6000fd5b505050506000819050806001600160a01b031663349904da6040518163ffffffff1660e01b815260040160206040518083038186803b158015610d4957600080fd5b505afa158015610d5d573d6000803e3d6000fd5b505050506040513d601f19601f82011682018060405250810190610d819190613470565b610d8a57600080fd5b600780547fffffffffffffffffffffffff0000000000000000000000000000000000000000166001600160a01b039290921691909117905550565b81600081118015610dd85750600a548111155b610e4a5760405162461bcd60e51b815260206004820152602160248201527f4d61726b6574506c6163653a4d6f64656c496420697320696e636f727265637460448201527f2e00000000000000000000000000000000000000000000000000000000000000606482015260840161081d565b60ff82161580610e5d57508160ff166001145b610ea95760405162461bcd60e51b815260206004820152601e60248201527f4d61726b6574506c6163653a53746174757320697320696e76616c69642e0000604482015260640161081d565b6000838152600b602052604090208054630100000090046001600160a01b03163314610f175760405162461bcd60e51b815260206004820152601a60248201527f4d61726b6574506c6163653a4163636573732044656e6965642e000000000000604482015260640161081d565b80547fffffffffffffffffffffffffffffffffffffffffffffffffffffffffff00ffff166201000060ff85169081029190911782556040805186815260208101929092527ff08724466d4dd4286642b3ccb2f00c5a976620fa6756a51536357ac701b26edc91015b60405180910390a150505050565b6001546001600160a01b031663ebe6a6f3610fa6613210565b6040517fffffffff0000000000000000000000000000000000000000000000000000000060e084901b1681526001600160a01b03909116600482015260240160006040518083038186803b158015610ffd57600080fd5b505afa158015611011573d6000803e3d6000fd5b50505050806000811180156110285750600a548111155b61109a5760405162461bcd60e51b815260206004820152602160248201527f4d61726b6574506c6163653a4d6f64656c496420697320696e636f727265637460448201527f2e00000000000000000000000000000000000000000000000000000000000000606482015260840161081d565b6000828152600b6020526040812060068101805491926001926110be9084906138cf565b9091555050505050565b6001546001600160a01b0316638413ec146110e1613210565b6040517fffffffff0000000000000000000000000000000000000000000000000000000060e084901b1681526001600160a01b03909116600482015260240160006040518083038186803b15801561113857600080fd5b505afa15801561114c573d6000803e3d6000fd5b505050506000819050806001600160a01b0316632f10d7956040518163ffffffff1660e01b815260040160206040518083038186803b15801561118e57600080fd5b505afa1580156111a2573d6000803e3d6000fd5b505050506040513d601f19601f820116820180604052508101906111c69190613470565b6111cf57600080fd5b600480547fffffffffffffffffffffffff0000000000000000000000000000000000000000166001600160a01b039290921691909117905550565b6001546001600160a01b031663ebe6a6f3611223613210565b6040517fffffffff0000000000000000000000000000000000000000000000000000000060e084901b1681526001600160a01b03909116600482015260240160006040518083038186803b15801561127a57600080fd5b505afa15801561128e573d6000803e3d6000fd5b50505050806000811180156112a55750600a548111155b6113175760405162461bcd60e51b815260206004820152602160248201527f4d61726b6574506c6163653a4d6f64656c496420697320696e636f727265637460448201527f2e00000000000000000000000000000000000000000000000000000000000000606482015260840161081d565b6000828152600b6020526040808220600954815492517fbd82f0ef0000000000000000000000000000000000000000000000000000000081526001600160a01b038881166004830152630100000090940484166024820152919392169063bd82f0ef90604401602060405180830381600087803b15801561139757600080fd5b505af11580156113ab573d6000803e3d6000fd5b505050506040513d601f19601f820116820180604052508101906113cf9190613470565b90508061141e5760405162461bcd60e51b815260206004820152601e60248201527f4d61726b6574506c6163653a5065726d697373696f6e2064656e6965642e0000604482015260640161081d565b600082600601546001611431919061383f565b905082600201548360030154611447919061383f565b81106114955760405162461bcd60e51b815260206004820152601d60248201527f4d61726b6574506c6163653a416c6c207472656520706c616e7465642e000000604482015260640161081d565b60069092019190915550505050565b816000811180156114b75750600a548111155b6115295760405162461bcd60e51b815260206004820152602160248201527f4d61726b6574506c6163653a4d6f64656c496420697320696e636f727265637460448201527f2e00000000000000000000000000000000000000000000000000000000000000606482015260840161081d565b6000838152600b602052604090208054630100000090046001600160a01b031633146115975760405162461bcd60e51b815260206004820152601a60248201527f4d61726b6574506c6163653a4163636573732044656e6965642e000000000000604482015260640161081d565b6001810183905560408051858152602081018590527f945c1c4e99aa89f648fbfe3df471b916f719e16d960fcec0737d4d56bd6968389101610f7f565b806000811180156115e75750600a548111155b6116595760405162461bcd60e51b815260206004820152602160248201527f4d61726b6574506c6163653a4d6f64656c496420697320696e636f727265637460448201527f2e00000000000000000000000000000000000000000000000000000000000000606482015260840161081d565b6000828152600b602052604090208054630100000090046001600160a01b031633146116c75760405162461bcd60e51b815260206004820152601960248201527f4d61726b6574506c6163653a4163636573732044656e69656400000000000000604482015260640161081d565b806005015481600401541480156116f15750600181600301546116ea91906138cf565b8160050154145b6117635760405162461bcd60e51b815260206004820152602260248201527f4d61726b6574506c6163653a5472656520506c616e746564206f722046756e6460448201527f6564000000000000000000000000000000000000000000000000000000000000606482015260840161081d565b600a5483141561179357611777600a613268565b8060020154600d600082825461178d91906138cf565b90915550505b336000908152600c602052604081208054600192906117b39084906138cf565b90915550506000838152600b602052604080822080547fffffffffffffffffff0000000000000000000000000000000000000000000000168155600181018390556002810183905560038101839055600481018390556005810183905560060191909155517f092b4ffb93d921248d7da2d747d314c29d0cc428d4566b4e3b400cbf21f5e3eb90610a659085815260200190565b6001546001600160a01b0316638413ec14611860613210565b6040517fffffffff0000000000000000000000000000000000000000000000000000000060e084901b1681526001600160a01b03909116600482015260240160006040518083038186803b1580156118b757600080fd5b505afa1580156118cb573d6000803e3d6000fd5b505050506000819050806001600160a01b03166303dc8deb6040518163ffffffff1660e01b815260040160206040518083038186803b15801561190d57600080fd5b505afa158015611921573d6000803e3d6000fd5b505050506040513d601f19601f820116820180604052508101906119459190613470565b61194e57600080fd5b600980547fffffffffffffffffffffffff0000000000000000000000000000000000000000166001600160a01b039290921691909117905550565b600054610100900460ff166119a45760005460ff16156119a8565b303b155b611a1a5760405162461bcd60e51b815260206004820152602e60248201527f496e697469616c697a61626c653a20636f6e747261637420697320616c72656160448201527f647920696e697469616c697a6564000000000000000000000000000000000000606482015260840161081d565b600054610100900460ff16158015611a5957600080547fffffffffffffffffffffffffffffffffffffffffffffffffffffffffffff0000166101011790555b6000829050806001600160a01b031663ba84fd696040518163ffffffff1660e01b815260040160206040518083038186803b158015611a9757600080fd5b505afa158015611aab573d6000803e3d6000fd5b505050506040513d601f19601f82011682018060405250810190611acf9190613470565b611ad857600080fd5b633b9aca01600d55600180546001600160a01b039092167fffffffffffffffffffffffff0000000000000000000000000000000000000000909216919091179055600080547fffffffffffffffffff00ffffffffffffffffffffffffffffffffffffffffffff167601000000000000000000000000000000000000000000001790558015611b8957600080547fffffffffffffffffffffffffffffffffffffffffffffffffffffffffffff00ff1690555b5050565b6001546001600160a01b0316638413ec14611ba6613210565b6040517fffffffff0000000000000000000000000000000000000000000000000000000060e084901b1681526001600160a01b03909116600482015260240160006040518083038186803b158015611bfd57600080fd5b505afa158015611c11573d6000803e3d6000fd5b505050506000819050806001600160a01b03166313e939e26040518163ffffffff1660e01b815260040160206040518083038186803b158015611c5357600080fd5b505afa158015611c67573d6000803e3d6000fd5b505050506040513d601f19601f82011682018060405250810190611c8b9190613470565b611c9457600080fd5b600680547fffffffffffffffffffffffff0000000000000000000000000000000000000000166001600160a01b039290921691909117905550565b60006001600160a01b03821615611ce65781611cee565b611cee613210565b9050826001600160a01b0316816001600160a01b03161415611d525760405162461bcd60e51b815260206004820152601d60248201527f4d61726b6574506c6163653a496e76616c69642072656665727265722e000000604482015260640161081d565b6000808080805b8851811015611eac57600b60008a8381518110611d7857611d7861394e565b6020026020010151600001518152602001908152602001600020915081600201548260030154611da8919061383f565b898281518110611dba57611dba61394e565b6020026020010151602001518360040154611dd5919061383f565b108015611dea5750815462010000900460ff16155b611e365760405162461bcd60e51b815260206004820152601a60248201527f4d61726b6574506c6163653a496e76616c696420636f756e742e000000000000604482015260640161081d565b888181518110611e4857611e4861394e565b6020026020010151602001518260010154611e639190613892565b611e6d908661383f565b9450888181518110611e8157611e8161394e565b60200260200101516020015184611e98919061383f565b935080611ea4816138e6565b915050611d59565b5060658310611f235760405162461bcd60e51b815260206004820152602560248201527f4d61726b6574506c6163653a746f74616c20636f756e7420657863656564656460448201527f203130302e000000000000000000000000000000000000000000000000000000606482015260840161081d565b60025484906001600160a01b03166370a08231611f3e613210565b6040517fffffffff0000000000000000000000000000000000000000000000000000000060e084901b1681526001600160a01b03909116600482015260240160206040518083038186803b158015611f9557600080fd5b505afa158015611fa9573d6000803e3d6000fd5b505050506040513d601f19601f82011682018060405250810190611fcd9190613542565b10156120415760405162461bcd60e51b815260206004820152602160248201527f4d61726b6574506c6163653a496e73756666696369656e742062616c616e636560448201527f2e00000000000000000000000000000000000000000000000000000000000000606482015260840161081d565b6002546001600160a01b03166323b872dd61205a613210565b60035460405160e084901b7fffffffff000000000000000000000000000000000000000000000000000000001681526001600160a01b0392831660048201529116602482015260448101879052606401602060405180830381600087803b1580156120c457600080fd5b505af11580156120d8573d6000803e3d6000fd5b505050506040513d601f19601f820116820180604052508101906120fc9190613470565b9150816121715760405162461bcd60e51b815260206004820152602260248201527f4d61726b6574506c6163653a556e7375636365737366756c207472616e73666560448201527f722e000000000000000000000000000000000000000000000000000000000000606482015260840161081d565b6121b960405180610100016040528060008152602001600081526020016000815260200160008152602001600081526020016000815260200160008152602001600081525090565b60005b895181101561280657600b60008b83815181106121db576121db61394e565b602090810291909101810151518252810191909152604001600020600481015460018083015460055493965091926001600160a01b03169063e1fb39b69061222490859061383f565b8e86815181106122365761223661394e565b60209081029190910181015101516040517fffffffff0000000000000000000000000000000000000000000000000000000060e085901b168152600481019290925260248201526001600160a01b038c166044820152606401600060405180830381600087803b1580156122a957600080fd5b505af11580156122bd573d6000803e3d6000fd5b506001925050505b8c84815181106122d7576122d761394e565b6020026020010151602001518111612711576006546001600160a01b031663ed21496d612304838661383f565b6040517fffffffff0000000000000000000000000000000000000000000000000000000060e084901b168152600481019190915260016024820152604401602060405180830381600087803b15801561235c57600080fd5b505af1158015612370573d6000803e3d6000fd5b505050506040513d601f19601f820116820180604052508101906123949190613470565b9650866124085760405162461bcd60e51b8152602060048201526024808201527f4d61726b6574506c6163653a417474726962757465206e6f742067656e65726160448201527f7465642e00000000000000000000000000000000000000000000000000000000606482015260840161081d565b60045460009081908190819081908190819081906001600160a01b0316630393f3d36124348b8e61383f565b6040518263ffffffff1660e01b815260040161245291815260200190565b61010060405180830381600087803b15801561246d57600080fd5b505af1158015612481573d6000803e3d6000fd5b505050506040513d601f19601f820116820180604052508101906124a59190613492565b975097509750975097509750975097506127108861ffff168b6124c89190613892565b6124d29190613857565b8d518e906124e190839061383f565b9052506127106124f561ffff89168c613892565b6124ff9190613857565b8d602001818151612510919061383f565b90525061271061252461ffff88168c613892565b61252e9190613857565b8d60400181815161253f919061383f565b90525061271061255361ffff87168c613892565b61255d9190613857565b8d60600181815161256e919061383f565b90525061271061258261ffff86168c613892565b61258c9190613857565b8d60800181815161259d919061383f565b9052506127106125b161ffff85168c613892565b6125bb9190613857565b8d60a0018181516125cc919061383f565b9052506127106125e061ffff84168c613892565b6125ea9190613857565b8d60c0018181516125fb919061383f565b90525061271061260f61ffff83168c613892565b6126199190613857565b8d60e00181815161262a919061383f565b9052506007546001600160a01b03166397795c666126488b8e61383f565b61271061265961ffff8d168f613892565b6126639190613857565b6127108b61ffff168f6126769190613892565b6126809190613857565b6040517fffffffff0000000000000000000000000000000000000000000000000000000060e086901b168152600481019390935260248301919091526044820152606401600060405180830381600087803b1580156126de57600080fd5b505af11580156126f2573d6000803e3d6000fd5b5050505050505050505050508080612709906138e6565b9150506122c5565b507fa29265add83fddcaa08de7e2ca3b35cb8ae7820a9627ccc95d715784894b3aa0898d85815181106127465761274661394e565b60200260200101516000015184600161275f919061383f565b8f87815181106127715761277161394e565b60209081029190910181015181015160018b0154604080516001600160a01b03909716875292860194909452908401919091526060830152608082015260a00160405180910390a18b83815181106127cb576127cb61394e565b6020026020010151602001518560040160008282546127ea919061383f565b92505081905550505080806127fe906138e6565b9150506121bc565b50600354815160208301516040808501516060860151608087015160a088015160c089015160e08a015195517fe5a41e250000000000000000000000000000000000000000000000000000000081526004810198909852602488019690965260448701939093526064860191909152608485015260a484015260c483019190915260e48201526001600160a01b039091169063e5a41e259061010401600060405180830381600087803b1580156128bc57600080fd5b505af11580156128d0573d6000803e3d6000fd5b505050506001600160a01b03881615612963576008546040517f27179c2e0000000000000000000000000000000000000000000000000000000081526001600160a01b038a8116600483015260248201879052909116906327179c2e90604401600060405180830381600087803b15801561294a57600080fd5b505af115801561295e573d6000803e3d6000fd5b505050505b7ffeb280ed69d382ec277b2398a01ead144a11616583903ad095d2f388c434c0e08961298d613210565b888b888a6040516129a3969594939291906136c2565b60405180910390a1505050505050505050565b6001546000906001600160a01b031663ebe6a6f36129d2613210565b6040517fffffffff0000000000000000000000000000000000000000000000000000000060e084901b1681526001600160a01b03909116600482015260240160006040518083038186803b158015612a2957600080fd5b505afa158015612a3d573d6000803e3d6000fd5b5050505081600081118015612a545750600a548111155b612ac65760405162461bcd60e51b815260206004820152602160248201527f4d61726b6574506c6163653a4d6f64656c496420697320696e636f727265637460448201527f2e00000000000000000000000000000000000000000000000000000000000000606482015260840161081d565b6000838152600b602052604081206005810154909190612ae790600161383f565b6005830181905560408051878152602081018390529192507f46daf50fbcdacecb8f71b29f2328b63157c93a8ff0c3d62e405b660e5abebdbc910160405180910390a1949350505050565b6001546001600160a01b0316638413ec14612b4b613210565b6040517fffffffff0000000000000000000000000000000000000000000000000000000060e084901b1681526001600160a01b03909116600482015260240160006040518083038186803b158015612ba257600080fd5b505afa158015612bb6573d6000803e3d6000fd5b505050506000819050806001600160a01b031663ab7806a26040518163ffffffff1660e01b815260040160206040518083038186803b158015612bf857600080fd5b505afa158015612c0c573d6000803e3d6000fd5b505050506040513d601f19601f82011682018060405250810190612c309190613470565b612c3957600080fd5b600380547fffffffffffffffffffffffff0000000000000000000000000000000000000000166001600160a01b039290921691909117905550565b6001546001600160a01b0316638413ec14612c8d613210565b6040517fffffffff0000000000000000000000000000000000000000000000000000000060e084901b1681526001600160a01b03909116600482015260240160006040518083038186803b158015612ce457600080fd5b505afa158015612cf8573d6000803e3d6000fd5b505050506000819050806001600160a01b0316636a837c8e6040518163ffffffff1660e01b815260040160206040518083038186803b158015612d3a57600080fd5b505afa158015612d4e573d6000803e3d6000fd5b505050506040513d601f19601f82011682018060405250810190612d729190613470565b612d7b57600080fd5b600880547fffffffffffffffffffffffff0000000000000000000000000000000000000000166001600160a01b039290921691909117905550565b6009546040517fd3a907d60000000000000000000000000000000000000000000000000000000081523360048201526000916001600160a01b03169063d3a907d6906024016101006040518083038186803b158015612e1457600080fd5b505afa158015612e28573d6000803e3d6000fd5b505050506040513d601f19601f82011682018060405250810190612e4c91906135ef565b5050505050505090508060ff1660011480612e6a57508060ff166002145b612eb65760405162461bcd60e51b815260206004820152601c60248201527f4d61726b6574506c6163653a496e76616c696420506c616e7465722e00000000604482015260640161081d565b600082118015612ec7575061271182105b612f135760405162461bcd60e51b815260206004820152601a60248201527f4d61726b6574506c6163653a496e76616c696420636f756e742e000000000000604482015260640161081d565b612f21600a80546001019055565b6000600b6000612f30600a5490565b815260208101919091526040016000208054600282018590556001808301879055630100000033027fffffffffffffffffff0000000000000000000000000000000000000000ffffff60ff8a8116610100027fffffffffffffffffffffffffffffffffffffffffffffffffffffffffffff0000909516908c16179390931792909216919091178255600d5460038301819055919250612fce916138cf565b6004820155600d54612fe2906001906138cf565b6005820155600d54612ff6906001906138cf565b6006820155336000908152600c6020526040812080546001929061301b90849061383f565b9091555050600a547f3e356ae71ddeab77f400deff7252c89b5ca7914439bb00ec79797e229b84449c908787878733600d546001600d5461305c91906138cf565b6001600d5461306b91906138cf565b6001600d5461307a91906138cf565b604080519a8b5260ff998a1660208c01529790981696890196909652606088019490945260808701929092526001600160a01b031660a086015260c085015260e08401526101008301526101208201526101400160405180910390a182600d60008282546130e8919061383f565b9091555050505050505050565b6001546001600160a01b0316638413ec1461310e613210565b6040517fffffffff0000000000000000000000000000000000000000000000000000000060e084901b1681526001600160a01b03909116600482015260240160006040518083038186803b15801561316557600080fd5b505afa158015613179573d6000803e3d6000fd5b5083925050506001600160a01b0381166131d55760405162461bcd60e51b815260206004820152600f60248201527f496e76616c696420616464726573730000000000000000000000000000000000604482015260640161081d565b50600280547fffffffffffffffffffffffff0000000000000000000000000000000000000000166001600160a01b0392909216919091179055565b60006014361080159061323357506000546201000090046001600160a01b031633145b1561326357507fffffffffffffffffffffffffffffffffffffffffffffffffffffffffffffffec36013560601c90565b503390565b8054806132b75760405162461bcd60e51b815260206004820152601b60248201527f436f756e7465723a2064656372656d656e74206f766572666c6f770000000000604482015260640161081d565b7fffffffffffffffffffffffffffffffffffffffffffffffffffffffffffffffff019055565b80356001600160a01b03811681146132f457600080fd5b919050565b8051600781900b81146132f457600080fd5b805161ffff811681146132f457600080fd5b805163ffffffff811681146132f457600080fd5b60006020828403121561334357600080fd5b61334c826132dd565b9392505050565b6000806040838503121561336657600080fd5b61336f836132dd565b946020939093013593505050565b60008060006060848603121561339257600080fd5b833567ffffffffffffffff808211156133aa57600080fd5b818601915086601f8301126133be57600080fd5b81356020828211156133d2576133d261397d565b6133e0818360051b016137f0565b8281528181019350848201600684901b860183018b101561340057600080fd5b60009550855b8481101561344457604080838e03121561341e578788fd5b6134266137c7565b83358152858401358682015287529584019590910190600101613406565b5050809750506134558189016132dd565b955050505050613467604085016132dd565b90509250925092565b60006020828403121561348257600080fd5b8151801515811461334c57600080fd5b600080600080600080600080610100898b0312156134af57600080fd5b6134b88961330b565b97506134c660208a0161330b565b96506134d460408a0161330b565b95506134e260608a0161330b565b94506134f060808a0161330b565b93506134fe60a08a0161330b565b925061350c60c08a0161330b565b915061351a60e08a0161330b565b90509295985092959890939650565b60006020828403121561353b57600080fd5b5035919050565b60006020828403121561355457600080fd5b5051919050565b6000806040838503121561356e57600080fd5b50508035926020909101359150565b6000806040838503121561359057600080fd5b8235915060208301356135a2816139ac565b809150509250929050565b6000806000606084860312156135c257600080fd5b8335925060208401356135d4816139ac565b915060408401356135e4816139ac565b809150509250925092565b600080600080600080600080610100898b03121561360c57600080fd5b8851613617816139ac565b60208a0151909850613628816139ac565b965061363660408a0161330b565b955061364460608a0161331d565b945061365260808a0161331d565b935061366060a08a0161331d565b925061366e60c08a016132f9565b915061351a60e08a016132f9565b6000806000806080858703121561369257600080fd5b843561369d816139ac565b935060208501356136ad816139ac565b93969395505050506040820135916060013590565b60c0808252875190820181905260009060209060e0840190828b01845b828110156137065781518051855285015185850152604090930192908401906001016136df565b505050809250506001600160a01b038816818401525061373160408301876001600160a01b03169052565b6001600160a01b0385166060830152608082019390935260a00152949350505050565b600060208083528351808285015260005b8181101561378157858101830151858201604001528201613765565b81811115613793576000604083870101525b50601f017fffffffffffffffffffffffffffffffffffffffffffffffffffffffffffffffe016929092016040019392505050565b6040805190810167ffffffffffffffff811182821017156137ea576137ea61397d565b60405290565b604051601f82017fffffffffffffffffffffffffffffffffffffffffffffffffffffffffffffffe016810167ffffffffffffffff811182821017156138375761383761397d565b604052919050565b600082198211156138525761385261391f565b500190565b60008261388d577f4e487b7100000000000000000000000000000000000000000000000000000000600052601260045260246000fd5b500490565b6000817fffffffffffffffffffffffffffffffffffffffffffffffffffffffffffffffff04831182151516156138ca576138ca61391f565b500290565b6000828210156138e1576138e161391f565b500390565b60007fffffffffffffffffffffffffffffffffffffffffffffffffffffffffffffffff8214156139185761391861391f565b5060010190565b7f4e487b7100000000000000000000000000000000000000000000000000000000600052601160045260246000fd5b7f4e487b7100000000000000000000000000000000000000000000000000000000600052603260045260246000fd5b7f4e487b7100000000000000000000000000000000000000000000000000000000600052604160045260246000fd5b60ff811681146139bb57600080fd5b5056fea2646970667358221220bd87db1511634b958b083e5c9c871dfba9d2631d3cffa1bd3cf5de67480b012864736f6c63430008060033",
  "immutableReferences": {},
  "source": "// SPDX-License-Identifier: GPL-3.0\r\n\r\npragma solidity ^0.8.6;\r\n\r\nimport \"../access/IAccessRestriction.sol\";\r\nimport \"./IMarketPlace.sol\";\r\nimport \"../treasury/IDaiFund.sol\";\r\nimport \"../gsn/RelayRecipient.sol\";\r\nimport \"../treasury/IAllocation.sol\";\r\nimport \"../tree/ITreeFactoryV2.sol\";\r\nimport \"../tree/IAttribute.sol\";\r\nimport \"../planter/IPlanterV2.sol\";\r\nimport \"../treasury/IPlanterFund.sol\";\r\nimport \"../regularSale/IRegularSaleV2.sol\";\r\nimport \"@openzeppelin/contracts-upgradeable/utils/CountersUpgradeable.sol\";\r\nimport \"@openzeppelin/contracts-upgradeable/proxy/utils/Initializable.sol\";\r\n\r\nimport \"@openzeppelin/contracts-upgradeable/token/ERC20/IERC20Upgradeable.sol\";\r\n\r\n/** @title MarketPlace Contract */\r\ncontract MarketPlace is Initializable, RelayRecipient, IMarketPlace {\r\n    using CountersUpgradeable for CountersUpgradeable.Counter;\r\n\r\n    bool public override isMarketPlace;\r\n\r\n    IAccessRestriction public accessRestriction;\r\n    IERC20Upgradeable public daiToken;\r\n    IDaiFund public daiFund;\r\n    IAllocation public allocation;\r\n    ITreeFactoryV2 public treeFactory;\r\n    IAttribute public attribute;\r\n    IPlanterFund public planterFundContract;\r\n    IRegularSaleV2 public regularSale;\r\n    IPlanterV2 public planter;\r\n\r\n    CountersUpgradeable.Counter public modelId;\r\n\r\n    struct TotalBalances {\r\n        uint256 planter;\r\n        uint256 ambassador;\r\n        uint256 research;\r\n        uint256 localDevelopment;\r\n        uint256 insurance;\r\n        uint256 treasury;\r\n        uint256 reserve1;\r\n        uint256 reserve2;\r\n    }\r\n\r\n    struct Model {\r\n        uint8 country;\r\n        uint8 species;\r\n        uint8 deactive; // 1-can't buy but can plan && 2-finish model(plant and found)\r\n        address creator;\r\n        uint256 price;\r\n        uint256 count;\r\n        uint256 start;\r\n        uint256 lastFund;\r\n        uint256 lastPlant;\r\n        uint256 lastReservePlant;\r\n    }\r\n\r\n    // modelId should start from number 1\r\n\r\n    mapping(uint256 => Model) public models;\r\n\r\n    mapping(address => uint256) public override activeModelCount;\r\n\r\n    // modelMetaDataId should start from number 1\r\n\r\n    uint256 public lastTreeAssigned;\r\n\r\n    /** NOTE modifier to check msg.sender has admin role */\r\n    modifier onlyAdmin() {\r\n        accessRestriction.ifAdmin(_msgSender());\r\n        _;\r\n    }\r\n\r\n    /** NOTE modifier to check msg.sender has planter role */\r\n    modifier onlyPlanter() {\r\n        accessRestriction.ifPlanter(_msgSender());\r\n        _;\r\n    }\r\n\r\n    /** NOTE modifier for check msg.sender has TreejerContract role*/\r\n    modifier onlyTreejerContract() {\r\n        accessRestriction.ifTreejerContract(_msgSender());\r\n        _;\r\n    }\r\n\r\n    /** NOTE modifier for check valid address */\r\n    modifier validAddress(address _address) {\r\n        require(_address != address(0), \"Invalid address\");\r\n        _;\r\n    }\r\n\r\n    modifier validModelId(uint256 _modelId) {\r\n        require(\r\n            _modelId > 0 && _modelId <= modelId.current(),\r\n            \"MarketPlace:ModelId is incorrect.\"\r\n        );\r\n        _;\r\n    }\r\n\r\n    /// @inheritdoc IMarketPlace\r\n    function initialize(address _accessRestrictionAddress)\r\n        external\r\n        override\r\n        initializer\r\n    {\r\n        IAccessRestriction candidateContract = IAccessRestriction(\r\n            _accessRestrictionAddress\r\n        );\r\n\r\n        require(candidateContract.isAccessRestriction());\r\n        lastTreeAssigned = 1000000001;\r\n\r\n        accessRestriction = candidateContract;\r\n\r\n        isMarketPlace = true;\r\n    }\r\n\r\n    /// @inheritdoc IMarketPlace\r\n    function setDaiTokenAddress(address _address)\r\n        external\r\n        override\r\n        onlyAdmin\r\n        validAddress(_address)\r\n    {\r\n        IERC20Upgradeable candidateContract = IERC20Upgradeable(_address);\r\n        daiToken = candidateContract;\r\n    }\r\n\r\n    /// @inheritdoc IMarketPlace\r\n    function setDaiFundAddress(address _address) external override onlyAdmin {\r\n        IDaiFund candidateContract = IDaiFund(_address);\r\n\r\n        require(candidateContract.isDaiFund());\r\n\r\n        daiFund = candidateContract;\r\n    }\r\n\r\n    /// @inheritdoc IMarketPlace\r\n    function setAllocationAddress(address _address)\r\n        external\r\n        override\r\n        onlyAdmin\r\n    {\r\n        IAllocation candidateContract = IAllocation(_address);\r\n        require(candidateContract.isAllocation());\r\n        allocation = candidateContract;\r\n    }\r\n\r\n    /// @inheritdoc IMarketPlace\r\n    function setTreeFactoryAddress(address _address)\r\n        external\r\n        override\r\n        onlyAdmin\r\n    {\r\n        ITreeFactoryV2 candidateContract = ITreeFactoryV2(_address);\r\n\r\n        require(candidateContract.isTreeFactory());\r\n\r\n        treeFactory = candidateContract;\r\n    }\r\n\r\n    /// @inheritdoc IMarketPlace\r\n    function setAttributesAddress(address _address)\r\n        external\r\n        override\r\n        onlyAdmin\r\n    {\r\n        IAttribute candidateContract = IAttribute(_address);\r\n        require(candidateContract.isAttribute());\r\n        attribute = candidateContract;\r\n    }\r\n\r\n    /// @inheritdoc IMarketPlace\r\n    function setPlanterFundAddress(address _address)\r\n        external\r\n        override\r\n        onlyAdmin\r\n    {\r\n        IPlanterFund candidateContract = IPlanterFund(_address);\r\n\r\n        require(candidateContract.isPlanterFund());\r\n\r\n        planterFundContract = candidateContract;\r\n    }\r\n\r\n    /// @inheritdoc IMarketPlace\r\n    function setRegularSaleAddress(address _address)\r\n        external\r\n        override\r\n        onlyAdmin\r\n    {\r\n        IRegularSaleV2 candidateContract = IRegularSaleV2(_address);\r\n        require(candidateContract.isRegularSale());\r\n        regularSale = candidateContract;\r\n    }\r\n\r\n    /// @inheritdoc IMarketPlace\r\n    function setPlanterAddress(address _address) external override onlyAdmin {\r\n        IPlanterV2 candidateContract = IPlanterV2(_address);\r\n        require(candidateContract.isPlanter());\r\n        planter = candidateContract;\r\n    }\r\n\r\n    function addModel(\r\n        uint8 _country,\r\n        uint8 _species,\r\n        uint256 _price,\r\n        uint256 _count\r\n    ) external {\r\n        (uint8 planterType, , , , , , , ) = planter.planters(msg.sender);\r\n\r\n        require(\r\n            planterType == 1 || planterType == 2,\r\n            \"MarketPlace:Invalid Planter.\"\r\n        );\r\n\r\n        require(_count > 0 && _count < 10001, \"MarketPlace:Invalid count.\");\r\n\r\n        modelId.increment();\r\n\r\n        Model storage modelData = models[modelId.current()];\r\n\r\n        modelData.country = _country;\r\n        modelData.species = _species;\r\n        modelData.count = _count;\r\n        modelData.price = _price;\r\n        modelData.creator = msg.sender;\r\n        modelData.start = lastTreeAssigned;\r\n        modelData.lastFund = lastTreeAssigned - 1;\r\n        modelData.lastPlant = lastTreeAssigned - 1;\r\n        modelData.lastReservePlant = lastTreeAssigned - 1;\r\n\r\n        activeModelCount[msg.sender] += 1;\r\n\r\n        emit ModelAdded(\r\n            modelId.current(),\r\n            _country,\r\n            _species,\r\n            _price,\r\n            _count,\r\n            msg.sender,\r\n            lastTreeAssigned,\r\n            lastTreeAssigned - 1,\r\n            lastTreeAssigned - 1,\r\n            lastTreeAssigned - 1\r\n        );\r\n\r\n        lastTreeAssigned += _count;\r\n    }\r\n\r\n    function updateModelData(\r\n        uint256 _modelId,\r\n        uint8 _species,\r\n        uint8 _country\r\n    ) external validModelId(_modelId) {\r\n        Model storage modelData = models[_modelId];\r\n\r\n        require(modelData.creator == msg.sender, \"MarketPlace:Access Denied.\");\r\n\r\n        require(\r\n            modelData.lastFund == modelData.lastPlant &&\r\n                modelData.lastPlant == modelData.start - 1,\r\n            \"MarketPlace:Tree Planted or Funded.\"\r\n        );\r\n\r\n        modelData.country = _country;\r\n        modelData.species = _species;\r\n\r\n        emit ModelDataUpdated(_modelId, _species, _country);\r\n    }\r\n\r\n    function updatePrice(uint256 _modelId, uint256 _price)\r\n        external\r\n        validModelId(_modelId)\r\n    {\r\n        Model storage modelData = models[_modelId];\r\n\r\n        require(modelData.creator == msg.sender, \"MarketPlace:Access Denied.\");\r\n\r\n        modelData.price = _price;\r\n\r\n        emit PriceUpdated(_modelId, _price);\r\n    }\r\n\r\n    function deactiveModel(uint256 _modelId, uint8 _status)\r\n        external\r\n        validModelId(_modelId)\r\n    {\r\n        require(_status == 0 || _status == 1, \"MarketPlace:Status is invalid.\");\r\n\r\n        Model storage modelData = models[_modelId];\r\n        require(modelData.creator == msg.sender, \"MarketPlace:Access Denied.\");\r\n\r\n        modelData.deactive = _status;\r\n\r\n        emit ModelDeactivated(_modelId, _status);\r\n    }\r\n\r\n    function deleteModel(uint256 _modelId) external validModelId(_modelId) {\r\n        Model storage model = models[_modelId];\r\n\r\n        require(model.creator == msg.sender, \"MarketPlace:Access Denied\");\r\n\r\n        require(\r\n            model.lastFund == model.lastPlant &&\r\n                model.lastPlant == model.start - 1,\r\n            \"MarketPlace:Tree Planted or Funded\"\r\n        );\r\n\r\n        if (_modelId == modelId.current()) {\r\n            modelId.decrement();\r\n            lastTreeAssigned -= model.count;\r\n        }\r\n\r\n        activeModelCount[msg.sender] -= 1;\r\n\r\n        delete models[_modelId];\r\n\r\n        emit ModelDeleted(_modelId);\r\n    }\r\n\r\n    function fundTree(\r\n        Input[] memory _input,\r\n        address _referrer,\r\n        address _recipient\r\n    ) external {\r\n        address recipient = _recipient == address(0)\r\n            ? _msgSender()\r\n            : _recipient;\r\n\r\n        require(recipient != _referrer, \"MarketPlace:Invalid referrer.\");\r\n\r\n        uint256 totalPrice = 0;\r\n        uint256 totalCount = 0;\r\n        bool success = false;\r\n\r\n        Model storage modelData;\r\n\r\n        for (uint256 i = 0; i < _input.length; i++) {\r\n            modelData = models[_input[i].modelId];\r\n\r\n            require(\r\n                modelData.lastFund + _input[i].count <\r\n                    modelData.start + modelData.count &&\r\n                    modelData.deactive == 0,\r\n                \"MarketPlace:Invalid count.\"\r\n            );\r\n\r\n            totalPrice += modelData.price * _input[i].count;\r\n            totalCount += _input[i].count;\r\n        }\r\n\r\n        require(totalCount < 101, \"MarketPlace:total count exceeded 100.\");\r\n\r\n        require(\r\n            daiToken.balanceOf(_msgSender()) >= totalPrice,\r\n            \"MarketPlace:Insufficient balance.\"\r\n        );\r\n\r\n        success = daiToken.transferFrom(\r\n            _msgSender(),\r\n            address(daiFund),\r\n            totalPrice\r\n        );\r\n\r\n        require(success, \"MarketPlace:Unsuccessful transfer.\");\r\n\r\n        TotalBalances memory totalBalances;\r\n\r\n        for (uint256 i = 0; i < _input.length; i++) {\r\n            modelData = models[_input[i].modelId];\r\n            uint256 tempTreeId = modelData.lastFund;\r\n\r\n            uint256 treePrice = modelData.price;\r\n\r\n            treeFactory.mintTreeMarketPlace(\r\n                tempTreeId + 1,\r\n                _input[i].count,\r\n                recipient\r\n            );\r\n\r\n            for (uint256 j = 1; j <= _input[i].count; j++) {\r\n                success = attribute.createAttribute(tempTreeId + j, 1);\r\n\r\n                require(success, \"MarketPlace:Attribute not generated.\");\r\n\r\n                (\r\n                    uint16 planterShare,\r\n                    uint16 ambassadorShare,\r\n                    uint16 researchShare,\r\n                    uint16 localDevelopmentShare,\r\n                    uint16 insuranceShare,\r\n                    uint16 treasuryShare,\r\n                    uint16 reserve1Share,\r\n                    uint16 reserve2Share\r\n                ) = allocation.findAllocationData(tempTreeId + j);\r\n\r\n                totalBalances.planter += (treePrice * planterShare) / 10000;\r\n                totalBalances.ambassador +=\r\n                    (treePrice * ambassadorShare) /\r\n                    10000;\r\n                totalBalances.research += (treePrice * researchShare) / 10000;\r\n                totalBalances.localDevelopment +=\r\n                    (treePrice * localDevelopmentShare) /\r\n                    10000;\r\n                totalBalances.insurance += (treePrice * insuranceShare) / 10000;\r\n                totalBalances.treasury += (treePrice * treasuryShare) / 10000;\r\n                totalBalances.reserve1 += (treePrice * reserve1Share) / 10000;\r\n                totalBalances.reserve2 += (treePrice * reserve2Share) / 10000;\r\n\r\n                planterFundContract.updateProjectedEarnings(\r\n                    tempTreeId + j,\r\n                    (treePrice * planterShare) / 10000,\r\n                    (treePrice * ambassadorShare) / 10000\r\n                );\r\n            }\r\n\r\n            emit MarketPlaceMint(\r\n                recipient,\r\n                _input[i].modelId,\r\n                tempTreeId + 1,\r\n                _input[i].count,\r\n                modelData.price\r\n            );\r\n            modelData.lastFund += _input[i].count;\r\n        }\r\n\r\n        daiFund.fundTreeBatch(\r\n            totalBalances.planter,\r\n            totalBalances.ambassador,\r\n            totalBalances.research,\r\n            totalBalances.localDevelopment,\r\n            totalBalances.insurance,\r\n            totalBalances.treasury,\r\n            totalBalances.reserve1,\r\n            totalBalances.reserve2\r\n        );\r\n\r\n        if (_referrer != address(0)) {\r\n            regularSale.updateReferrerClaimableTreesDai(_referrer, totalCount);\r\n        }\r\n\r\n        emit TreeFunded(\r\n            _input,\r\n            _msgSender(),\r\n            recipient,\r\n            _referrer,\r\n            totalCount,\r\n            totalPrice\r\n        );\r\n    }\r\n\r\n    function updateLastReservePlantedOfModel(address _sender, uint256 _modelId)\r\n        external\r\n        override\r\n        onlyTreejerContract\r\n        validModelId(_modelId)\r\n    {\r\n        Model storage modelData = models[_modelId];\r\n\r\n        bool canPlant = planter.manageMarketPlaceTreePermission(\r\n            _sender,\r\n            modelData.creator\r\n        );\r\n\r\n        require(canPlant, \"MarketPlace:Permission denied.\");\r\n\r\n        uint256 lastReservePlantTemp = modelData.lastReservePlant + 1;\r\n\r\n        require(\r\n            lastReservePlantTemp < modelData.start + modelData.count,\r\n            \"MarketPlace:All tree planted.\"\r\n        );\r\n\r\n        modelData.lastReservePlant = lastReservePlantTemp;\r\n    }\r\n\r\n    function reduceLastReservePlantedOfModel(uint256 _modelId)\r\n        external\r\n        override\r\n        onlyTreejerContract\r\n        validModelId(_modelId)\r\n    {\r\n        Model storage modelData = models[_modelId];\r\n\r\n        modelData.lastReservePlant -= 1;\r\n    }\r\n\r\n    function updateLastPlantedOfModel(uint256 _modelId)\r\n        external\r\n        override\r\n        onlyTreejerContract\r\n        validModelId(_modelId)\r\n        returns (uint256)\r\n    {\r\n        Model storage modelData = models[_modelId];\r\n\r\n        uint256 lastPlantTemp = modelData.lastPlant + 1;\r\n\r\n        modelData.lastPlant = lastPlantTemp;\r\n\r\n        emit LastPlantedOfModelUpdated(_modelId, lastPlantTemp);\r\n\r\n        return lastPlantTemp;\r\n    }\r\n\r\n    function finishSaleModel(uint256 _modelId)\r\n        external\r\n        override\r\n        validModelId(_modelId)\r\n    {\r\n        Model storage modelData = models[_modelId];\r\n\r\n        require(modelData.creator == msg.sender, \"MarketPlace:Access Denied.\");\r\n\r\n        require(modelData.deactive == 0, \"MarketPlace:Model before finished.\");\r\n\r\n        require(\r\n            modelData.lastPlant == modelData.start + modelData.count - 1 &&\r\n                modelData.lastFund == modelData.start + modelData.count - 1,\r\n            \"MarketPlace:plant or fund not finished.\"\r\n        );\r\n\r\n        activeModelCount[modelData.creator] -= 1;\r\n        modelData.deactive = 2;\r\n\r\n        emit SaleModelFinished(_modelId);\r\n    }\r\n}\r\n",
  "sourcePath": "D:\\Projects\\treejer-contract\\contract\\contracts\\marketPlace\\MarketPlace.sol",
  "compiler": {
    "name": "solc",
    "version": "0.8.6+commit.11564f7e.Emscripten.clang"
  },
  "schemaVersion": "3.4.6",
  "updatedAt": "2022-10-29T14:07:01.401Z",
  "devdoc": {
    "kind": "dev",
    "methods": {
      "versionRecipient()": {
        "details": "return version recipient "
      }
    },
    "title": "MarketPlace Contract ",
    "version": 1
  },
  "userdoc": {
    "kind": "user",
    "methods": {
      "isTrustedForwarder(address)": {
        "notice": "return if the forwarder is trusted to forward relayed transactions to us. the forwarder is required to verify the sender's signature, and verify the call is not a replay."
      }
    },
    "version": 1
  }
}