{
  "contractName": "O1Factory",
  "abi": [
    {
      "inputs": [
        {
          "internalType": "contract TreeFactory",
          "name": "_treeFactoryAddress",
          "type": "address"
        }
      ],
      "stateMutability": "nonpayable",
      "type": "constructor"
    },
    {
      "anonymous": false,
      "inputs": [
        {
          "indexed": true,
          "internalType": "address",
          "name": "owner",
          "type": "address"
        },
        {
          "indexed": true,
          "internalType": "address",
          "name": "spender",
          "type": "address"
        },
        {
          "indexed": false,
          "internalType": "uint256",
          "name": "value",
          "type": "uint256"
        }
      ],
      "name": "Approval",
      "type": "event"
    },
    {
      "anonymous": false,
      "inputs": [
        {
          "indexed": false,
          "internalType": "uint256",
          "name": "date",
          "type": "uint256"
        }
      ],
      "name": "ConsoleLog",
      "type": "event"
    },
    {
      "anonymous": false,
      "inputs": [
        {
          "indexed": false,
          "internalType": "uint256",
          "name": "o1GeneratedPerSecond",
          "type": "uint256"
        }
      ],
      "name": "O1GeneratedPerSecondChanged",
      "type": "event"
    },
    {
      "anonymous": false,
      "inputs": [
        {
          "indexed": false,
          "internalType": "address",
          "name": "owner",
          "type": "address"
        },
        {
          "indexed": false,
          "internalType": "uint256",
          "name": "totalO1",
          "type": "uint256"
        }
      ],
      "name": "O1Minted",
      "type": "event"
    },
    {
      "anonymous": false,
      "inputs": [
        {
          "indexed": false,
          "internalType": "address",
          "name": "account",
          "type": "address"
        }
      ],
      "name": "Paused",
      "type": "event"
    },
    {
      "anonymous": false,
      "inputs": [
        {
          "indexed": true,
          "internalType": "bytes32",
          "name": "role",
          "type": "bytes32"
        },
        {
          "indexed": true,
          "internalType": "bytes32",
          "name": "previousAdminRole",
          "type": "bytes32"
        },
        {
          "indexed": true,
          "internalType": "bytes32",
          "name": "newAdminRole",
          "type": "bytes32"
        }
      ],
      "name": "RoleAdminChanged",
      "type": "event"
    },
    {
      "anonymous": false,
      "inputs": [
        {
          "indexed": true,
          "internalType": "bytes32",
          "name": "role",
          "type": "bytes32"
        },
        {
          "indexed": true,
          "internalType": "address",
          "name": "account",
          "type": "address"
        },
        {
          "indexed": true,
          "internalType": "address",
          "name": "sender",
          "type": "address"
        }
      ],
      "name": "RoleGranted",
      "type": "event"
    },
    {
      "anonymous": false,
      "inputs": [
        {
          "indexed": true,
          "internalType": "bytes32",
          "name": "role",
          "type": "bytes32"
        },
        {
          "indexed": true,
          "internalType": "address",
          "name": "account",
          "type": "address"
        },
        {
          "indexed": true,
          "internalType": "address",
          "name": "sender",
          "type": "address"
        }
      ],
      "name": "RoleRevoked",
      "type": "event"
    },
    {
      "anonymous": false,
      "inputs": [
        {
          "indexed": true,
          "internalType": "address",
          "name": "from",
          "type": "address"
        },
        {
          "indexed": true,
          "internalType": "address",
          "name": "to",
          "type": "address"
        },
        {
          "indexed": false,
          "internalType": "uint256",
          "name": "value",
          "type": "uint256"
        }
      ],
      "name": "Transfer",
      "type": "event"
    },
    {
      "anonymous": false,
      "inputs": [
        {
          "indexed": false,
          "internalType": "address",
          "name": "account",
          "type": "address"
        }
      ],
      "name": "Unpaused",
      "type": "event"
    },
    {
      "inputs": [],
      "name": "AMBASSADOR_ROLE",
      "outputs": [
        {
          "internalType": "bytes32",
          "name": "",
          "type": "bytes32"
        }
      ],
      "stateMutability": "view",
      "type": "function",
      "constant": true
    },
    {
      "inputs": [],
      "name": "DEFAULT_ADMIN_ROLE",
      "outputs": [
        {
          "internalType": "bytes32",
          "name": "",
          "type": "bytes32"
        }
      ],
      "stateMutability": "view",
      "type": "function",
      "constant": true
    },
    {
      "inputs": [],
      "name": "PLANTER_ROLE",
      "outputs": [
        {
          "internalType": "bytes32",
          "name": "",
          "type": "bytes32"
        }
      ],
      "stateMutability": "view",
      "type": "function",
      "constant": true
    },
    {
      "inputs": [
        {
          "internalType": "address",
          "name": "owner",
          "type": "address"
        },
        {
          "internalType": "address",
          "name": "spender",
          "type": "address"
        }
      ],
      "name": "allowance",
      "outputs": [
        {
          "internalType": "uint256",
          "name": "",
          "type": "uint256"
        }
      ],
      "stateMutability": "view",
      "type": "function",
      "constant": true
    },
    {
      "inputs": [
        {
          "internalType": "address",
          "name": "spender",
          "type": "address"
        },
        {
          "internalType": "uint256",
          "name": "amount",
          "type": "uint256"
        }
      ],
      "name": "approve",
      "outputs": [
        {
          "internalType": "bool",
          "name": "",
          "type": "bool"
        }
      ],
      "stateMutability": "nonpayable",
      "type": "function"
    },
    {
      "inputs": [
        {
          "internalType": "address",
          "name": "account",
          "type": "address"
        }
      ],
      "name": "balanceOf",
      "outputs": [
        {
          "internalType": "uint256",
          "name": "",
          "type": "uint256"
        }
      ],
      "stateMutability": "view",
      "type": "function",
      "constant": true
    },
    {
      "inputs": [],
      "name": "decimals",
      "outputs": [
        {
          "internalType": "uint8",
          "name": "",
          "type": "uint8"
        }
      ],
      "stateMutability": "view",
      "type": "function",
      "constant": true
    },
    {
      "inputs": [
        {
          "internalType": "address",
          "name": "spender",
          "type": "address"
        },
        {
          "internalType": "uint256",
          "name": "subtractedValue",
          "type": "uint256"
        }
      ],
      "name": "decreaseAllowance",
      "outputs": [
        {
          "internalType": "bool",
          "name": "",
          "type": "bool"
        }
      ],
      "stateMutability": "nonpayable",
      "type": "function"
    },
    {
      "inputs": [
        {
          "internalType": "bytes32",
          "name": "role",
          "type": "bytes32"
        }
      ],
      "name": "getRoleAdmin",
      "outputs": [
        {
          "internalType": "bytes32",
          "name": "",
          "type": "bytes32"
        }
      ],
      "stateMutability": "view",
      "type": "function",
      "constant": true
    },
    {
      "inputs": [
        {
          "internalType": "bytes32",
          "name": "role",
          "type": "bytes32"
        },
        {
          "internalType": "uint256",
          "name": "index",
          "type": "uint256"
        }
      ],
      "name": "getRoleMember",
      "outputs": [
        {
          "internalType": "address",
          "name": "",
          "type": "address"
        }
      ],
      "stateMutability": "view",
      "type": "function",
      "constant": true
    },
    {
      "inputs": [
        {
          "internalType": "bytes32",
          "name": "role",
          "type": "bytes32"
        }
      ],
      "name": "getRoleMemberCount",
      "outputs": [
        {
          "internalType": "uint256",
          "name": "",
          "type": "uint256"
        }
      ],
      "stateMutability": "view",
      "type": "function",
      "constant": true
    },
    {
      "inputs": [
        {
          "internalType": "bytes32",
          "name": "role",
          "type": "bytes32"
        },
        {
          "internalType": "address",
          "name": "account",
          "type": "address"
        }
      ],
      "name": "grantRole",
      "outputs": [],
      "stateMutability": "nonpayable",
      "type": "function"
    },
    {
      "inputs": [
        {
          "internalType": "bytes32",
          "name": "role",
          "type": "bytes32"
        },
        {
          "internalType": "address",
          "name": "account",
          "type": "address"
        }
      ],
      "name": "hasRole",
      "outputs": [
        {
          "internalType": "bool",
          "name": "",
          "type": "bool"
        }
      ],
      "stateMutability": "view",
      "type": "function",
      "constant": true
    },
    {
      "inputs": [
        {
          "internalType": "address",
          "name": "spender",
          "type": "address"
        },
        {
          "internalType": "uint256",
          "name": "addedValue",
          "type": "uint256"
        }
      ],
      "name": "increaseAllowance",
      "outputs": [
        {
          "internalType": "bool",
          "name": "",
          "type": "bool"
        }
      ],
      "stateMutability": "nonpayable",
      "type": "function"
    },
    {
      "inputs": [],
      "name": "name",
      "outputs": [
        {
          "internalType": "string",
          "name": "",
          "type": "string"
        }
      ],
      "stateMutability": "view",
      "type": "function",
      "constant": true
    },
    {
      "inputs": [],
      "name": "o1GeneratedPerSecond",
      "outputs": [
        {
          "internalType": "uint256",
          "name": "",
          "type": "uint256"
        }
      ],
      "stateMutability": "view",
      "type": "function",
      "constant": true
    },
    {
      "inputs": [],
      "name": "owner",
      "outputs": [
        {
          "internalType": "address",
          "name": "",
          "type": "address"
        }
      ],
      "stateMutability": "view",
      "type": "function",
      "constant": true
    },
    {
      "inputs": [],
      "name": "pause",
      "outputs": [],
      "stateMutability": "nonpayable",
      "type": "function"
    },
    {
      "inputs": [],
      "name": "paused",
      "outputs": [
        {
          "internalType": "bool",
          "name": "",
          "type": "bool"
        }
      ],
      "stateMutability": "view",
      "type": "function",
      "constant": true
    },
    {
      "inputs": [
        {
          "internalType": "bytes32",
          "name": "role",
          "type": "bytes32"
        },
        {
          "internalType": "address",
          "name": "account",
          "type": "address"
        }
      ],
      "name": "renounceRole",
      "outputs": [],
      "stateMutability": "nonpayable",
      "type": "function"
    },
    {
      "inputs": [
        {
          "internalType": "bytes32",
          "name": "role",
          "type": "bytes32"
        },
        {
          "internalType": "address",
          "name": "account",
          "type": "address"
        }
      ],
      "name": "revokeRole",
      "outputs": [],
      "stateMutability": "nonpayable",
      "type": "function"
    },
    {
      "inputs": [],
      "name": "symbol",
      "outputs": [
        {
          "internalType": "string",
          "name": "",
          "type": "string"
        }
      ],
      "stateMutability": "view",
      "type": "function",
      "constant": true
    },
    {
      "inputs": [],
      "name": "totalSupply",
      "outputs": [
        {
          "internalType": "uint256",
          "name": "",
          "type": "uint256"
        }
      ],
      "stateMutability": "view",
      "type": "function",
      "constant": true
    },
    {
      "inputs": [
        {
          "internalType": "address",
          "name": "recipient",
          "type": "address"
        },
        {
          "internalType": "uint256",
          "name": "amount",
          "type": "uint256"
        }
      ],
      "name": "transfer",
      "outputs": [
        {
          "internalType": "bool",
          "name": "",
          "type": "bool"
        }
      ],
      "stateMutability": "nonpayable",
      "type": "function"
    },
    {
      "inputs": [
        {
          "internalType": "address",
          "name": "sender",
          "type": "address"
        },
        {
          "internalType": "address",
          "name": "recipient",
          "type": "address"
        },
        {
          "internalType": "uint256",
          "name": "amount",
          "type": "uint256"
        }
      ],
      "name": "transferFrom",
      "outputs": [
        {
          "internalType": "bool",
          "name": "",
          "type": "bool"
        }
      ],
      "stateMutability": "nonpayable",
      "type": "function"
    },
    {
      "inputs": [],
      "name": "treeFactory",
      "outputs": [
        {
          "internalType": "contract TreeFactory",
          "name": "",
          "type": "address"
        }
      ],
      "stateMutability": "view",
      "type": "function",
      "constant": true
    },
    {
      "inputs": [
        {
          "internalType": "uint256",
          "name": "",
          "type": "uint256"
        }
      ],
      "name": "treesLastMintedDate",
      "outputs": [
        {
          "internalType": "uint256",
          "name": "",
          "type": "uint256"
        }
      ],
      "stateMutability": "view",
      "type": "function",
      "constant": true
    },
    {
      "inputs": [],
      "name": "unpause",
      "outputs": [],
      "stateMutability": "nonpayable",
      "type": "function"
    },
    {
      "inputs": [
        {
          "internalType": "uint256",
          "name": "_o1GeneratedPerSecond",
          "type": "uint256"
        }
      ],
      "name": "setO1GeneratedPerSecond",
      "outputs": [],
      "stateMutability": "nonpayable",
      "type": "function"
    },
    {
      "inputs": [
        {
          "internalType": "address",
          "name": "_owner",
          "type": "address"
        }
      ],
      "name": "calculateMintableO1",
      "outputs": [
        {
          "internalType": "uint256",
          "name": "",
          "type": "uint256"
        }
      ],
      "stateMutability": "view",
      "type": "function",
      "constant": true
    },
    {
      "inputs": [],
      "name": "mint",
      "outputs": [],
      "stateMutability": "nonpayable",
      "type": "function"
    }
  ],
  "bytecode": "0x608060405233600760016101000a81548173ffffffffffffffffffffffffffffffffffffffff021916908373ffffffffffffffffffffffffffffffffffffffff1602179055503480156200005257600080fd5b50604051620035ad380380620035ad833981810160405281019062000078919062000457565b6040518060400160405280600a81526020017f4f787967656e42657461000000000000000000000000000000000000000000008152506040518060400160405280600281526020017f4f310000000000000000000000000000000000000000000000000000000000008152508160039080519060200190620000fc92919062000391565b5080600490805190602001906200011592919062000391565b506012600560006101000a81548160ff021916908360ff16021790555050506000600760006101000a81548160ff021916908315150217905550620001646000801b33620001fa60201b60201c565b6200018b60405162000176906200051e565b604051809103902033620001fa60201b60201c565b620001b26040516200019d9062000507565b604051809103902033620001fa60201b60201c565b80600860006101000a81548173ffffffffffffffffffffffffffffffffffffffff021916908373ffffffffffffffffffffffffffffffffffffffff16021790555050620005a2565b6200020c82826200021060201b60201c565b5050565b6200023f8160066000858152602001908152602001600020600001620002b460201b6200161f1790919060201c565b15620002b05762000255620002ec60201b60201c565b73ffffffffffffffffffffffffffffffffffffffff168173ffffffffffffffffffffffffffffffffffffffff16837f2f8788117e7eff1d82e926ec794901d17c78024a50270940304540a733656f0d60405160405180910390a45b5050565b6000620002e4836000018373ffffffffffffffffffffffffffffffffffffffff1660001b620002f460201b60201c565b905092915050565b600033905090565b60006200030883836200036e60201b60201c565b6200036357826000018290806001815401808255809150506001900390600052602060002001600090919091909150558260000180549050836001016000848152602001908152602001600020819055506001905062000368565b600090505b92915050565b600080836001016000848152602001908152602001600020541415905092915050565b828054600181600116156101000203166002900490600052602060002090601f016020900481019282601f10620003d457805160ff191683800117855562000405565b8280016001018555821562000405579182015b8281111562000404578251825591602001919060010190620003e7565b5b50905062000414919062000418565b5090565b6200043d91905b80821115620004395760008160009055506001016200041f565b5090565b90565b600081519050620004518162000588565b92915050565b6000602082840312156200046a57600080fd5b60006200047a8482850162000440565b91505092915050565b600062000492600f8362000535565b91507f414d4241535341444f525f524f4c4500000000000000000000000000000000006000830152600f82019050919050565b6000620004d4600c8362000535565b91507f504c414e5445525f524f4c4500000000000000000000000000000000000000006000830152600c82019050919050565b6000620005148262000483565b9150819050919050565b60006200052b82620004c5565b9150819050919050565b600081905092915050565b60006200054d8262000568565b9050919050565b6000620005618262000540565b9050919050565b600073ffffffffffffffffffffffffffffffffffffffff82169050919050565b620005938162000554565b81146200059f57600080fd5b50565b612ffb80620005b26000396000f3fe608060405234801561001057600080fd5b50600436106101e55760003560e01c806370a082311161010f578063a457c2d7116100a2578063d547741f11610071578063d547741f14610598578063dd62ed3e146105b4578063f29bbde8146105e4578063fe32fbc414610602576101e5565b8063a457c2d7146104ea578063a9059cbb1461051a578063af0ea04a1461054a578063ca15c87314610568576101e5565b80639010d07c116100de5780639010d07c1461044e57806391d148541461047e57806395d89b41146104ae578063a217fddf146104cc576101e5565b806370a08231146103c657806372a5fcf4146103f65780638456cb59146104265780638da5cb5b14610430576101e5565b80632f2ff15d11610187578063395093511161015657806339509351146103505780633f4ba83a14610380578063421ef6d41461038a5780635c975abb146103a8576101e5565b80632f2ff15d146102de578063313ce567146102fa57806332cf43dc1461031857806336568abe14610334576101e5565b80631249c58b116101c35780631249c58b1461025657806318160ddd1461026057806323b872dd1461027e578063248a9ca3146102ae576101e5565b806306fdde03146101ea578063095ea7b3146102085780630daa2e6614610238575b600080fd5b6101f2610632565b6040516101ff9190612b91565b60405180910390f35b610222600480360381019061021d919061230d565b6106d4565b60405161022f9190612b40565b60405180910390f35b6102406106f2565b60405161024d9190612b5b565b60405180910390f35b61025e610709565b005b610268610b6b565b6040516102759190612db3565b60405180910390f35b610298600480360381019061029391906122be565b610b75565b6040516102a59190612b40565b60405180910390f35b6102c860048036038101906102c39190612349565b610c4e565b6040516102d59190612b5b565b60405180910390f35b6102f860048036038101906102f39190612372565b610c6e565b005b610302610ce2565b60405161030f9190612dce565b60405180910390f35b610332600480360381019061032d91906123ea565b610cf9565b005b61034e60048036038101906103499190612372565b610d86565b005b61036a6004803603810190610365919061230d565b610e09565b6040516103779190612b40565b60405180910390f35b610388610ebc565b005b610392610f12565b60405161039f9190612b76565b60405180910390f35b6103b0610f38565b6040516103bd9190612b40565b60405180910390f35b6103e060048036038101906103db9190612259565b610f4f565b6040516103ed9190612db3565b60405180910390f35b610410600480360381019061040b91906123ea565b610f97565b60405161041d9190612db3565b60405180910390f35b61042e610faf565b005b610438611005565b6040516104459190612ab8565b60405180910390f35b610468600480360381019061046391906123ae565b61102b565b6040516104759190612ab8565b60405180910390f35b61049860048036038101906104939190612372565b61105d565b6040516104a59190612b40565b60405180910390f35b6104b661108f565b6040516104c39190612b91565b60405180910390f35b6104d4611131565b6040516104e19190612b5b565b60405180910390f35b61050460048036038101906104ff919061230d565b611138565b6040516105119190612b40565b60405180910390f35b610534600480360381019061052f919061230d565b611205565b6040516105419190612b40565b60405180910390f35b610552611223565b60405161055f9190612db3565b60405180910390f35b610582600480360381019061057d9190612349565b611229565b60405161058f9190612db3565b60405180910390f35b6105b260048036038101906105ad9190612372565b611250565b005b6105ce60048036038101906105c99190612282565b6112c4565b6040516105db9190612db3565b60405180910390f35b6105ec61134b565b6040516105f99190612b5b565b60405180910390f35b61061c60048036038101906106179190612259565b611362565b6040516106299190612db3565b60405180910390f35b606060038054600181600116156101000203166002900480601f0160208091040260200160405190810160405280929190818152602001828054600181600116156101000203166002900480156106ca5780601f1061069f576101008083540402835291602001916106ca565b820191906000526020600020905b8154815290600101906020018083116106ad57829003601f168201915b5050505050905090565b60006106e86106e161164f565b8484611657565b6001905092915050565b6040516106fe90612a8e565b604051809103902081565b6000600860009054906101000a900473ffffffffffffffffffffffffffffffffffffffff1673ffffffffffffffffffffffffffffffffffffffff166386897ad8336040518263ffffffff1660e01b81526004016107669190612ad3565b60206040518083038186803b15801561077e57600080fd5b505afa158015610792573d6000803e3d6000fd5b505050506040513d601f19601f820116820180604052508101906107b69190612413565b9050600081116107fb576040517f08c379a00000000000000000000000000000000000000000000000000000000081526004016107f290612cd3565b60405180910390fd5b600080905060008090505b82811015610a93576000600860009054906101000a900473ffffffffffffffffffffffffffffffffffffffff1673ffffffffffffffffffffffffffffffffffffffff16632f745c5933846040518363ffffffff1660e01b815260040161086d929190612aee565b60206040518083038186803b15801561088557600080fd5b505afa158015610899573d6000803e3d6000fd5b505050506040513d601f19601f820116820180604052508101906108bd9190612413565b90506000600860009054906101000a900473ffffffffffffffffffffffffffffffffffffffff1673ffffffffffffffffffffffffffffffffffffffff1663c5daba31836040518263ffffffff1660e01b815260040161091c9190612db3565b60206040518083038186803b15801561093457600080fd5b505afa158015610948573d6000803e3d6000fd5b505050506040513d601f19601f8201168201806040525081019061096c9190612413565b9050600081141561097e575050610a86565b6000600a60008481526020019081526020016000205411156109b957600a600083815260200190815260200160002054420384019350610a6b565b600860009054906101000a900473ffffffffffffffffffffffffffffffffffffffff1673ffffffffffffffffffffffffffffffffffffffff1663c5daba31836040518263ffffffff1660e01b8152600401610a149190612db3565b60206040518083038186803b158015610a2c57600080fd5b505afa158015610a40573d6000803e3d6000fd5b505050506040513d601f19601f82011682018060405250810190610a649190612413565b4203840193505b42600a60008481526020019081526020016000208190555050505b8080600101915050610806565b5060008111610ad7576040517f08c379a0000000000000000000000000000000000000000000000000000000008152600401610ace90612d33565b60405180910390fd5b60008160095402905060008111610b23576040517f08c379a0000000000000000000000000000000000000000000000000000000008152600401610b1a90612bb3565b60405180910390fd5b610b2d3382611822565b7fec9c2438980322928278e7d190fc47ea7168905c699547aa08b481d11f907ce63382604051610b5e929190612aee565b60405180910390a1505050565b6000600254905090565b6000610b828484846119b6565b610c4384610b8e61164f565b610c3e85604051806060016040528060288152602001612f7960289139600160008b73ffffffffffffffffffffffffffffffffffffffff1673ffffffffffffffffffffffffffffffffffffffff1681526020019081526020016000206000610bf461164f565b73ffffffffffffffffffffffffffffffffffffffff1673ffffffffffffffffffffffffffffffffffffffff16815260200190815260200160002054611c4b9092919063ffffffff16565b611657565b600190509392505050565b600060066000838152602001908152602001600020600201549050919050565b610c956006600084815260200190815260200160002060020154610c9061164f565b61105d565b610cd4576040517f08c379a0000000000000000000000000000000000000000000000000000000008152600401610ccb90612c13565b60405180910390fd5b610cde8282611ca6565b5050565b6000600560009054906101000a900460ff16905090565b610d066000801b3361105d565b610d45576040517f08c379a0000000000000000000000000000000000000000000000000000000008152600401610d3c90612cf3565b60405180910390fd5b806009819055507f20d4d69e04c6a1a500b9cd516187927ca5a7102f9dc617c4799595b2ed6db3db81604051610d7b9190612db3565b60405180910390a150565b610d8e61164f565b73ffffffffffffffffffffffffffffffffffffffff168173ffffffffffffffffffffffffffffffffffffffff1614610dfb576040517f08c379a0000000000000000000000000000000000000000000000000000000008152600401610df290612d73565b60405180910390fd5b610e058282611d3a565b5050565b6000610eb2610e1661164f565b84610ead8560016000610e2761164f565b73ffffffffffffffffffffffffffffffffffffffff1673ffffffffffffffffffffffffffffffffffffffff16815260200190815260200160002060008973ffffffffffffffffffffffffffffffffffffffff1673ffffffffffffffffffffffffffffffffffffffff16815260200190815260200160002054611dce90919063ffffffff16565b611657565b6001905092915050565b610ec96000801b3361105d565b610f08576040517f08c379a0000000000000000000000000000000000000000000000000000000008152600401610eff90612cf3565b60405180910390fd5b610f10611e23565b565b600860009054906101000a900473ffffffffffffffffffffffffffffffffffffffff1681565b6000600760009054906101000a900460ff16905090565b60008060008373ffffffffffffffffffffffffffffffffffffffff1673ffffffffffffffffffffffffffffffffffffffff168152602001908152602001600020549050919050565b600a6020528060005260406000206000915090505481565b610fbc6000801b3361105d565b610ffb576040517f08c379a0000000000000000000000000000000000000000000000000000000008152600401610ff290612cf3565b60405180910390fd5b611003611ecd565b565b600760019054906101000a900473ffffffffffffffffffffffffffffffffffffffff1681565b60006110558260066000868152602001908152602001600020600001611f7890919063ffffffff16565b905092915050565b60006110878260066000868152602001908152602001600020600001611f9290919063ffffffff16565b905092915050565b606060048054600181600116156101000203166002900480601f0160208091040260200160405190810160405280929190818152602001828054600181600116156101000203166002900480156111275780601f106110fc57610100808354040283529160200191611127565b820191906000526020600020905b81548152906001019060200180831161110a57829003601f168201915b5050505050905090565b6000801b81565b60006111fb61114561164f565b846111f685604051806060016040528060258152602001612fa1602591396001600061116f61164f565b73ffffffffffffffffffffffffffffffffffffffff1673ffffffffffffffffffffffffffffffffffffffff16815260200190815260200160002060008a73ffffffffffffffffffffffffffffffffffffffff1673ffffffffffffffffffffffffffffffffffffffff16815260200190815260200160002054611c4b9092919063ffffffff16565b611657565b6001905092915050565b600061121961121261164f565b84846119b6565b6001905092915050565b60095481565b600061124960066000848152602001908152602001600020600001611fc2565b9050919050565b611277600660008481526020019081526020016000206002015461127261164f565b61105d565b6112b6576040517f08c379a00000000000000000000000000000000000000000000000000000000081526004016112ad90612c93565b60405180910390fd5b6112c08282611d3a565b5050565b6000600160008473ffffffffffffffffffffffffffffffffffffffff1673ffffffffffffffffffffffffffffffffffffffff16815260200190815260200160002060008373ffffffffffffffffffffffffffffffffffffffff1673ffffffffffffffffffffffffffffffffffffffff16815260200190815260200160002054905092915050565b60405161135790612aa3565b604051809103902081565b600080600860009054906101000a900473ffffffffffffffffffffffffffffffffffffffff1673ffffffffffffffffffffffffffffffffffffffff166386897ad8846040518263ffffffff1660e01b81526004016113c09190612ab8565b60206040518083038186803b1580156113d857600080fd5b505afa1580156113ec573d6000803e3d6000fd5b505050506040513d601f19601f820116820180604052508101906114109190612413565b9050600081141561142557600091505061161a565b600080905060008090505b828110156115fb576000600860009054906101000a900473ffffffffffffffffffffffffffffffffffffffff1673ffffffffffffffffffffffffffffffffffffffff16632f745c5987846040518363ffffffff1660e01b8152600401611497929190612b17565b60206040518083038186803b1580156114af57600080fd5b505afa1580156114c3573d6000803e3d6000fd5b505050506040513d601f19601f820116820180604052508101906114e79190612413565b90506000600860009054906101000a900473ffffffffffffffffffffffffffffffffffffffff1673ffffffffffffffffffffffffffffffffffffffff1663c5daba31836040518263ffffffff1660e01b81526004016115469190612db3565b60206040518083038186803b15801561155e57600080fd5b505afa158015611572573d6000803e3d6000fd5b505050506040513d601f19601f820116820180604052508101906115969190612413565b905060008114156115a85750506115ee565b6000600a60008481526020019081526020016000205411156115e357600a6000838152602001908152602001600020544203840193506115eb565b804203840193505b50505b8080600101915050611430565b5060008114156116105760009250505061161a565b8060095402925050505b919050565b6000611647836000018373ffffffffffffffffffffffffffffffffffffffff1660001b611fd7565b905092915050565b600033905090565b600073ffffffffffffffffffffffffffffffffffffffff168373ffffffffffffffffffffffffffffffffffffffff1614156116c7576040517f08c379a00000000000000000000000000000000000000000000000000000000081526004016116be90612d53565b60405180910390fd5b600073ffffffffffffffffffffffffffffffffffffffff168273ffffffffffffffffffffffffffffffffffffffff161415611737576040517f08c379a000000000000000000000000000000000000000000000000000000000815260040161172e90612c53565b60405180910390fd5b80600160008573ffffffffffffffffffffffffffffffffffffffff1673ffffffffffffffffffffffffffffffffffffffff16815260200190815260200160002060008473ffffffffffffffffffffffffffffffffffffffff1673ffffffffffffffffffffffffffffffffffffffff168152602001908152602001600020819055508173ffffffffffffffffffffffffffffffffffffffff168373ffffffffffffffffffffffffffffffffffffffff167f8c5be1e5ebec7d5bd14f71427d1e84f3dd0314c0f7b2291e5b200ac8c7c3b925836040516118159190612db3565b60405180910390a3505050565b600073ffffffffffffffffffffffffffffffffffffffff168273ffffffffffffffffffffffffffffffffffffffff161415611892576040517f08c379a000000000000000000000000000000000000000000000000000000000815260040161188990612d93565b60405180910390fd5b61189e60008383612047565b6118b381600254611dce90919063ffffffff16565b60028190555061190a816000808573ffffffffffffffffffffffffffffffffffffffff1673ffffffffffffffffffffffffffffffffffffffff16815260200190815260200160002054611dce90919063ffffffff16565b6000808473ffffffffffffffffffffffffffffffffffffffff1673ffffffffffffffffffffffffffffffffffffffff168152602001908152602001600020819055508173ffffffffffffffffffffffffffffffffffffffff16600073ffffffffffffffffffffffffffffffffffffffff167fddf252ad1be2c89b69c2b068fc378daa952ba7f163c4a11628f55a4df523b3ef836040516119aa9190612db3565b60405180910390a35050565b600073ffffffffffffffffffffffffffffffffffffffff168373ffffffffffffffffffffffffffffffffffffffff161415611a26576040517f08c379a0000000000000000000000000000000000000000000000000000000008152600401611a1d90612d13565b60405180910390fd5b600073ffffffffffffffffffffffffffffffffffffffff168273ffffffffffffffffffffffffffffffffffffffff161415611a96576040517f08c379a0000000000000000000000000000000000000000000000000000000008152600401611a8d90612bf3565b60405180910390fd5b611aa1838383612047565b611b0c81604051806060016040528060268152602001612f53602691396000808773ffffffffffffffffffffffffffffffffffffffff1673ffffffffffffffffffffffffffffffffffffffff16815260200190815260200160002054611c4b9092919063ffffffff16565b6000808573ffffffffffffffffffffffffffffffffffffffff1673ffffffffffffffffffffffffffffffffffffffff16815260200190815260200160002081905550611b9f816000808573ffffffffffffffffffffffffffffffffffffffff1673ffffffffffffffffffffffffffffffffffffffff16815260200190815260200160002054611dce90919063ffffffff16565b6000808473ffffffffffffffffffffffffffffffffffffffff1673ffffffffffffffffffffffffffffffffffffffff168152602001908152602001600020819055508173ffffffffffffffffffffffffffffffffffffffff168373ffffffffffffffffffffffffffffffffffffffff167fddf252ad1be2c89b69c2b068fc378daa952ba7f163c4a11628f55a4df523b3ef83604051611c3e9190612db3565b60405180910390a3505050565b6000838311158290611c93576040517f08c379a0000000000000000000000000000000000000000000000000000000008152600401611c8a9190612b91565b60405180910390fd5b5060008385039050809150509392505050565b611cce816006600085815260200190815260200160002060000161161f90919063ffffffff16565b15611d3657611cdb61164f565b73ffffffffffffffffffffffffffffffffffffffff168173ffffffffffffffffffffffffffffffffffffffff16837f2f8788117e7eff1d82e926ec794901d17c78024a50270940304540a733656f0d60405160405180910390a45b5050565b611d62816006600085815260200190815260200160002060000161204c90919063ffffffff16565b15611dca57611d6f61164f565b73ffffffffffffffffffffffffffffffffffffffff168173ffffffffffffffffffffffffffffffffffffffff16837ff6391f5c32d9c69d2a47ea670b442974b53935d1edc7fd64eb21e047a839171b60405160405180910390a45b5050565b600080828401905083811015611e19576040517f08c379a0000000000000000000000000000000000000000000000000000000008152600401611e1090612c73565b60405180910390fd5b8091505092915050565b600760009054906101000a900460ff16611e72576040517f08c379a0000000000000000000000000000000000000000000000000000000008152600401611e6990612c33565b60405180910390fd5b6000600760006101000a81548160ff0219169083151502179055507f5db9ee0a495bf2e6ff9c91a7834c1ba4fdd244a5e8aa4e537bd38aeae4b073aa611eb661164f565b604051611ec39190612ad3565b60405180910390a1565b600760009054906101000a900460ff1615611f1d576040517f08c379a0000000000000000000000000000000000000000000000000000000008152600401611f1490612cb3565b60405180910390fd5b6001600760006101000a81548160ff0219169083151502179055507f62e78cea01bee320cd4e420270b5ea74000d11b0c9f74754ebdbfc544b05a258611f6161164f565b604051611f6e9190612ad3565b60405180910390a1565b6000611f87836000018361207c565b60001c905092915050565b6000611fba836000018373ffffffffffffffffffffffffffffffffffffffff1660001b6120e9565b905092915050565b6000611fd08260000161210c565b9050919050565b6000611fe383836120e9565b61203c578260000182908060018154018082558091505060019003906000526020600020016000909190919091505582600001805490508360010160008481526020019081526020016000208190555060019050612041565b600090505b92915050565b505050565b6000612074836000018373ffffffffffffffffffffffffffffffffffffffff1660001b61211d565b905092915050565b6000818360000180549050116120c7576040517f08c379a00000000000000000000000000000000000000000000000000000000081526004016120be90612bd3565b60405180910390fd5b8260000182815481106120d657fe5b9060005260206000200154905092915050565b600080836001016000848152602001908152602001600020541415905092915050565b600081600001805490509050919050565b600080836001016000848152602001908152602001600020549050600081146121f9576000600182039050600060018660000180549050039050600086600001828154811061216857fe5b906000526020600020015490508087600001848154811061218557fe5b90600052602060002001819055506001830187600101600083815260200190815260200160002081905550866000018054806121bd57fe5b600190038181906000526020600020016000905590558660010160008781526020019081526020016000206000905560019450505050506121ff565b60009150505b92915050565b60008135905061221481612f0d565b92915050565b60008135905061222981612f24565b92915050565b60008135905061223e81612f3b565b92915050565b60008151905061225381612f3b565b92915050565b60006020828403121561226b57600080fd5b600061227984828501612205565b91505092915050565b6000806040838503121561229557600080fd5b60006122a385828601612205565b92505060206122b485828601612205565b9150509250929050565b6000806000606084860312156122d357600080fd5b60006122e186828701612205565b93505060206122f286828701612205565b92505060406123038682870161222f565b9150509250925092565b6000806040838503121561232057600080fd5b600061232e85828601612205565b925050602061233f8582860161222f565b9150509250929050565b60006020828403121561235b57600080fd5b60006123698482850161221a565b91505092915050565b6000806040838503121561238557600080fd5b60006123938582860161221a565b92505060206123a485828601612205565b9150509250929050565b600080604083850312156123c157600080fd5b60006123cf8582860161221a565b92505060206123e08582860161222f565b9150509250929050565b6000602082840312156123fc57600080fd5b600061240a8482850161222f565b91505092915050565b60006020828403121561242557600080fd5b600061243384828501612244565b91505092915050565b61244581612e6f565b82525050565b61245481612e10565b82525050565b61246381612e22565b82525050565b61247281612e2e565b82525050565b61248181612e81565b82525050565b600061249282612de9565b61249c8185612df4565b93506124ac818560208601612ec9565b6124b581612efc565b840191505092915050565b60006124cd601283612df4565b91507f4d696e7461626c654f31206973207a65726f00000000000000000000000000006000830152602082019050919050565b600061250d602283612df4565b91507f456e756d657261626c655365743a20696e646578206f7574206f6620626f756e60008301527f64730000000000000000000000000000000000000000000000000000000000006020830152604082019050919050565b6000612573602383612df4565b91507f45524332303a207472616e7366657220746f20746865207a65726f206164647260008301527f65737300000000000000000000000000000000000000000000000000000000006020830152604082019050919050565b60006125d9602f83612df4565b91507f416363657373436f6e74726f6c3a2073656e646572206d75737420626520616e60008301527f2061646d696e20746f206772616e7400000000000000000000000000000000006020830152604082019050919050565b600061263f601483612df4565b91507f5061757361626c653a206e6f74207061757365640000000000000000000000006000830152602082019050919050565b600061267f602283612df4565b91507f45524332303a20617070726f766520746f20746865207a65726f20616464726560008301527f73730000000000000000000000000000000000000000000000000000000000006020830152604082019050919050565b60006126e5601b83612df4565b91507f536166654d6174683a206164646974696f6e206f766572666c6f7700000000006000830152602082019050919050565b6000612725600f83612e05565b91507f414d4241535341444f525f524f4c4500000000000000000000000000000000006000830152600f82019050919050565b6000612765600c83612e05565b91507f504c414e5445525f524f4c4500000000000000000000000000000000000000006000830152600c82019050919050565b60006127a5603083612df4565b91507f416363657373436f6e74726f6c3a2073656e646572206d75737420626520616e60008301527f2061646d696e20746f207265766f6b65000000000000000000000000000000006020830152604082019050919050565b600061280b601083612df4565b91507f5061757361626c653a20706175736564000000000000000000000000000000006000830152602082019050919050565b600061284b601883612df4565b91507f4f776e6572207472656520636f756e74206973207a65726f00000000000000006000830152602082019050919050565b600061288b601383612df4565b91507f43616c6c6572206973206e6f742061646d696e000000000000000000000000006000830152602082019050919050565b60006128cb602583612df4565b91507f45524332303a207472616e736665722066726f6d20746865207a65726f20616460008301527f64726573730000000000000000000000000000000000000000000000000000006020830152604082019050919050565b6000612931601683612df4565b91507f546f74616c205365636f6e647320617265207a65726f000000000000000000006000830152602082019050919050565b6000612971602483612df4565b91507f45524332303a20617070726f76652066726f6d20746865207a65726f2061646460008301527f72657373000000000000000000000000000000000000000000000000000000006020830152604082019050919050565b60006129d7602f83612df4565b91507f416363657373436f6e74726f6c3a2063616e206f6e6c792072656e6f756e636560008301527f20726f6c657320666f722073656c6600000000000000000000000000000000006020830152604082019050919050565b6000612a3d601f83612df4565b91507f45524332303a206d696e7420746f20746865207a65726f2061646472657373006000830152602082019050919050565b612a7981612e58565b82525050565b612a8881612e62565b82525050565b6000612a9982612718565b9150819050919050565b6000612aae82612758565b9150819050919050565b6000602082019050612acd600083018461244b565b92915050565b6000602082019050612ae8600083018461243c565b92915050565b6000604082019050612b03600083018561243c565b612b106020830184612a70565b9392505050565b6000604082019050612b2c600083018561244b565b612b396020830184612a70565b9392505050565b6000602082019050612b55600083018461245a565b92915050565b6000602082019050612b706000830184612469565b92915050565b6000602082019050612b8b6000830184612478565b92915050565b60006020820190508181036000830152612bab8184612487565b905092915050565b60006020820190508181036000830152612bcc816124c0565b9050919050565b60006020820190508181036000830152612bec81612500565b9050919050565b60006020820190508181036000830152612c0c81612566565b9050919050565b60006020820190508181036000830152612c2c816125cc565b9050919050565b60006020820190508181036000830152612c4c81612632565b9050919050565b60006020820190508181036000830152612c6c81612672565b9050919050565b60006020820190508181036000830152612c8c816126d8565b9050919050565b60006020820190508181036000830152612cac81612798565b9050919050565b60006020820190508181036000830152612ccc816127fe565b9050919050565b60006020820190508181036000830152612cec8161283e565b9050919050565b60006020820190508181036000830152612d0c8161287e565b9050919050565b60006020820190508181036000830152612d2c816128be565b9050919050565b60006020820190508181036000830152612d4c81612924565b9050919050565b60006020820190508181036000830152612d6c81612964565b9050919050565b60006020820190508181036000830152612d8c816129ca565b9050919050565b60006020820190508181036000830152612dac81612a30565b9050919050565b6000602082019050612dc86000830184612a70565b92915050565b6000602082019050612de36000830184612a7f565b92915050565b600081519050919050565b600082825260208201905092915050565b600081905092915050565b6000612e1b82612e38565b9050919050565b60008115159050919050565b6000819050919050565b600073ffffffffffffffffffffffffffffffffffffffff82169050919050565b6000819050919050565b600060ff82169050919050565b6000612e7a82612ea5565b9050919050565b6000612e8c82612e93565b9050919050565b6000612e9e82612e38565b9050919050565b6000612eb082612eb7565b9050919050565b6000612ec282612e38565b9050919050565b60005b83811015612ee7578082015181840152602081019050612ecc565b83811115612ef6576000848401525b50505050565b6000601f19601f8301169050919050565b612f1681612e10565b8114612f2157600080fd5b50565b612f2d81612e2e565b8114612f3857600080fd5b50565b612f4481612e58565b8114612f4f57600080fd5b5056fe45524332303a207472616e7366657220616d6f756e7420657863656564732062616c616e636545524332303a207472616e7366657220616d6f756e74206578636565647320616c6c6f77616e636545524332303a2064656372656173656420616c6c6f77616e63652062656c6f77207a65726fa26469706673582212207031e914dae8680b323a2a83798fabfe0e61f73e1e7744c247ee0a3750edaf3764736f6c63430006090033",
  "source": "// SPDX-License-Identifier: GPL-3.0\n\npragma solidity >=0.4.21 <0.7.0;\npragma experimental ABIEncoderV2;\n\nimport \"../../node_modules/@openzeppelin/contracts/token/ERC20/ERC20.sol\";\n\nimport \"../tree/TreeFactory.sol\";\nimport \"../access/AccessRestriction.sol\";\n\n\ncontract O1Factory is ERC20, AccessRestriction {\n\n    event O1Minted(address owner, uint256 totalO1);\n    event O1GeneratedPerSecondChanged(uint256 o1GeneratedPerSecond);\n    event ConsoleLog(uint date);\n\n    TreeFactory public treeFactory;\n\n\n    uint256 public o1GeneratedPerSecond;\n\n    mapping(uint256 => uint256) public treesLastMintedDate;\n\n\n    constructor(\n        TreeFactory _treeFactoryAddress\n    ) public ERC20(\"OxygenBeta\", \"O1\") {\n        treeFactory = _treeFactoryAddress;\n        // _mint(msg.sender, 0);\n    }\n\n\n\n    function setO1GeneratedPerSecond(uint256 _o1GeneratedPerSecond) external onlyAdmin {\n        o1GeneratedPerSecond = _o1GeneratedPerSecond;\n\n        emit O1GeneratedPerSecondChanged(_o1GeneratedPerSecond);\n    }\n\n    function calculateMintableO1(address _owner) external view returns(uint256)\n    {\n        uint256 ownerTreesCount = treeFactory.ownerTreesCount(_owner);\n\n        if(ownerTreesCount == 0) {\n            return 0;\n        }\n        uint256 totalSeconds = 0;\n\n        for (\n            uint256 i = 0;\n            i < ownerTreesCount;\n            i++\n        ) {\n            uint256 treeId = treeFactory.tokenOfOwnerByIndex(_owner, i);\n            uint256 treeFundedDate = treeFactory.getFundedDate(treeId);\n            if(treeFundedDate == 0) {\n                continue;\n            }\n\n            if(treesLastMintedDate[treeId] > 0) {\n                totalSeconds = totalSeconds + (now - treesLastMintedDate[treeId]);\n            } else {\n                totalSeconds = totalSeconds + (now - treeFundedDate);\n            }\n        }\n\n        if(totalSeconds == 0) {\n            return 0;\n        }\n\n        return (o1GeneratedPerSecond * totalSeconds);\n    }\n\n    \n\n    //@todo permission must check\n    function mint() external  {\n\n        uint256 ownerTreesCount = treeFactory.ownerTreesCount(msg.sender);\n\n        require(\n            ownerTreesCount > 0,\n            \"Owner tree count is zero\"\n        );\n\n        uint256 totalSeconds = 0;\n\n        for (\n            uint256 i = 0;\n            i < ownerTreesCount;\n            i++\n        ) {\n            uint256 treeId = treeFactory.tokenOfOwnerByIndex(msg.sender, i);\n            uint256 treeFundedDate = treeFactory.getFundedDate(treeId);\n            if(treeFundedDate == 0) {\n                continue;\n            }\n\n            if(treesLastMintedDate[treeId] > 0) {\n                totalSeconds = totalSeconds + (now - treesLastMintedDate[treeId]);\n            } else {\n                totalSeconds = totalSeconds + (now - treeFactory.getFundedDate(treeId));\n            }\n\n            treesLastMintedDate[treeId] = now;\n        }\n\n        require(totalSeconds > 0, \"Total Seconds are zero\");\n\n\n        // uint256 mintableO1 = o1GeneratedPerSecond * totalSeconds * (10 ** 18);\n        uint256 mintableO1 = o1GeneratedPerSecond * totalSeconds;\n\n        require(mintableO1 > 0, \"MintableO1 is zero\");\n\n        _mint(msg.sender, mintableO1);\n\n        emit O1Minted(msg.sender, mintableO1);\n    }\n}\n",
  "sourcePath": "/home/amir/Projects/treejer/contract/contracts/o1/O1Factory.sol",
  "compiler": {
    "name": "solc",
    "version": "0.6.9+commit.3e3065ac.Emscripten.clang"
  },
  "schemaVersion": "3.0.22",
  "updatedAt": "2020-08-03T08:22:21.758Z",
  "networkType": "ethereum",
  "devdoc": {
    "methods": {
      "allowance(address,address)": {
        "details": "See {IERC20-allowance}."
      },
      "approve(address,uint256)": {
        "details": "See {IERC20-approve}. Requirements: - `spender` cannot be the zero address."
      },
      "balanceOf(address)": {
        "details": "See {IERC20-balanceOf}."
      },
      "decimals()": {
        "details": "Returns the number of decimals used to get its user representation. For example, if `decimals` equals `2`, a balance of `505` tokens should be displayed to a user as `5,05` (`505 / 10 ** 2`). Tokens usually opt for a value of 18, imitating the relationship between Ether and Wei. This is the value {ERC20} uses, unless {_setupDecimals} is called. NOTE: This information is only used for _display_ purposes: it in no way affects any of the arithmetic of the contract, including {IERC20-balanceOf} and {IERC20-transfer}."
      },
      "decreaseAllowance(address,uint256)": {
        "details": "Atomically decreases the allowance granted to `spender` by the caller. This is an alternative to {approve} that can be used as a mitigation for problems described in {IERC20-approve}. Emits an {Approval} event indicating the updated allowance. Requirements: - `spender` cannot be the zero address. - `spender` must have allowance for the caller of at least `subtractedValue`."
      },
      "getRoleAdmin(bytes32)": {
        "details": "Returns the admin role that controls `role`. See {grantRole} and {revokeRole}. To change a role's admin, use {_setRoleAdmin}."
      },
      "getRoleMember(bytes32,uint256)": {
        "details": "Returns one of the accounts that have `role`. `index` must be a value between 0 and {getRoleMemberCount}, non-inclusive. Role bearers are not sorted in any particular way, and their ordering may change at any point. WARNING: When using {getRoleMember} and {getRoleMemberCount}, make sure you perform all queries on the same block. See the following https://forum.openzeppelin.com/t/iterating-over-elements-on-enumerableset-in-openzeppelin-contracts/2296[forum post] for more information."
      },
      "getRoleMemberCount(bytes32)": {
        "details": "Returns the number of accounts that have `role`. Can be used together with {getRoleMember} to enumerate all bearers of a role."
      },
      "grantRole(bytes32,address)": {
        "details": "Grants `role` to `account`. If `account` had not been already granted `role`, emits a {RoleGranted} event. Requirements: - the caller must have ``role``'s admin role."
      },
      "hasRole(bytes32,address)": {
        "details": "Returns `true` if `account` has been granted `role`."
      },
      "increaseAllowance(address,uint256)": {
        "details": "Atomically increases the allowance granted to `spender` by the caller. This is an alternative to {approve} that can be used as a mitigation for problems described in {IERC20-approve}. Emits an {Approval} event indicating the updated allowance. Requirements: - `spender` cannot be the zero address."
      },
      "name()": {
        "details": "Returns the name of the token."
      },
      "paused()": {
        "details": "Returns true if the contract is paused, and false otherwise."
      },
      "renounceRole(bytes32,address)": {
        "details": "Revokes `role` from the calling account. Roles are often managed via {grantRole} and {revokeRole}: this function's purpose is to provide a mechanism for accounts to lose their privileges if they are compromised (such as when a trusted device is misplaced). If the calling account had been granted `role`, emits a {RoleRevoked} event. Requirements: - the caller must be `account`."
      },
      "revokeRole(bytes32,address)": {
        "details": "Revokes `role` from `account`. If `account` had been granted `role`, emits a {RoleRevoked} event. Requirements: - the caller must have ``role``'s admin role."
      },
      "symbol()": {
        "details": "Returns the symbol of the token, usually a shorter version of the name."
      },
      "totalSupply()": {
        "details": "See {IERC20-totalSupply}."
      },
      "transfer(address,uint256)": {
        "details": "See {IERC20-transfer}. Requirements: - `recipient` cannot be the zero address. - the caller must have a balance of at least `amount`."
      },
      "transferFrom(address,address,uint256)": {
        "details": "See {IERC20-transferFrom}. Emits an {Approval} event indicating the updated allowance. This is not required by the EIP. See the note at the beginning of {ERC20}; Requirements: - `sender` and `recipient` cannot be the zero address. - `sender` must have a balance of at least `amount`. - the caller must have allowance for ``sender``'s tokens of at least `amount`."
      }
    }
  },
  "userdoc": {
    "methods": {}
  }
}