{
  "contractName": "O2Factory",
  "abi": [
    {
      "inputs": [
        {
          "internalType": "contract TreeType",
          "name": "_typeAddress",
          "type": "address"
        },
        {
          "internalType": "contract TreeFactory",
          "name": "_treeFactoryAddress",
          "type": "address"
        },
        {
          "internalType": "contract UpdateFactory",
          "name": "_updateFactoryAddress",
          "type": "address"
        }
      ],
      "stateMutability": "nonpayable",
      "type": "constructor"
    },
    {
      "anonymous": false,
      "inputs": [
        {
          "indexed": true,
          "internalType": "address",
          "name": "owner",
          "type": "address"
        },
        {
          "indexed": true,
          "internalType": "address",
          "name": "spender",
          "type": "address"
        },
        {
          "indexed": false,
          "internalType": "uint256",
          "name": "value",
          "type": "uint256"
        }
      ],
      "name": "Approval",
      "type": "event"
    },
    {
      "anonymous": false,
      "inputs": [
        {
          "indexed": false,
          "internalType": "uint256",
          "name": "updateDate",
          "type": "uint256"
        }
      ],
      "name": "ConsoleLog",
      "type": "event"
    },
    {
      "anonymous": false,
      "inputs": [
        {
          "indexed": false,
          "internalType": "bool",
          "name": "updateDate",
          "type": "bool"
        }
      ],
      "name": "ConsoleLogB",
      "type": "event"
    },
    {
      "anonymous": false,
      "inputs": [
        {
          "indexed": false,
          "internalType": "address",
          "name": "owner",
          "type": "address"
        },
        {
          "indexed": false,
          "internalType": "uint256",
          "name": "totalO2",
          "type": "uint256"
        }
      ],
      "name": "O2Minted",
      "type": "event"
    },
    {
      "anonymous": false,
      "inputs": [
        {
          "indexed": true,
          "internalType": "address",
          "name": "from",
          "type": "address"
        },
        {
          "indexed": true,
          "internalType": "address",
          "name": "to",
          "type": "address"
        },
        {
          "indexed": false,
          "internalType": "uint256",
          "name": "value",
          "type": "uint256"
        }
      ],
      "name": "Transfer",
      "type": "event"
    },
    {
      "inputs": [
        {
          "internalType": "address",
          "name": "owner",
          "type": "address"
        },
        {
          "internalType": "address",
          "name": "spender",
          "type": "address"
        }
      ],
      "name": "allowance",
      "outputs": [
        {
          "internalType": "uint256",
          "name": "",
          "type": "uint256"
        }
      ],
      "stateMutability": "view",
      "type": "function",
      "constant": true
    },
    {
      "inputs": [
        {
          "internalType": "address",
          "name": "spender",
          "type": "address"
        },
        {
          "internalType": "uint256",
          "name": "amount",
          "type": "uint256"
        }
      ],
      "name": "approve",
      "outputs": [
        {
          "internalType": "bool",
          "name": "",
          "type": "bool"
        }
      ],
      "stateMutability": "nonpayable",
      "type": "function"
    },
    {
      "inputs": [
        {
          "internalType": "address",
          "name": "account",
          "type": "address"
        }
      ],
      "name": "balanceOf",
      "outputs": [
        {
          "internalType": "uint256",
          "name": "",
          "type": "uint256"
        }
      ],
      "stateMutability": "view",
      "type": "function",
      "constant": true
    },
    {
      "inputs": [],
      "name": "decimals",
      "outputs": [
        {
          "internalType": "uint8",
          "name": "",
          "type": "uint8"
        }
      ],
      "stateMutability": "view",
      "type": "function",
      "constant": true
    },
    {
      "inputs": [
        {
          "internalType": "address",
          "name": "spender",
          "type": "address"
        },
        {
          "internalType": "uint256",
          "name": "subtractedValue",
          "type": "uint256"
        }
      ],
      "name": "decreaseAllowance",
      "outputs": [
        {
          "internalType": "bool",
          "name": "",
          "type": "bool"
        }
      ],
      "stateMutability": "nonpayable",
      "type": "function"
    },
    {
      "inputs": [
        {
          "internalType": "address",
          "name": "spender",
          "type": "address"
        },
        {
          "internalType": "uint256",
          "name": "addedValue",
          "type": "uint256"
        }
      ],
      "name": "increaseAllowance",
      "outputs": [
        {
          "internalType": "bool",
          "name": "",
          "type": "bool"
        }
      ],
      "stateMutability": "nonpayable",
      "type": "function"
    },
    {
      "inputs": [],
      "name": "name",
      "outputs": [
        {
          "internalType": "string",
          "name": "",
          "type": "string"
        }
      ],
      "stateMutability": "view",
      "type": "function",
      "constant": true
    },
    {
      "inputs": [],
      "name": "symbol",
      "outputs": [
        {
          "internalType": "string",
          "name": "",
          "type": "string"
        }
      ],
      "stateMutability": "view",
      "type": "function",
      "constant": true
    },
    {
      "inputs": [],
      "name": "totalSupply",
      "outputs": [
        {
          "internalType": "uint256",
          "name": "",
          "type": "uint256"
        }
      ],
      "stateMutability": "view",
      "type": "function",
      "constant": true
    },
    {
      "inputs": [
        {
          "internalType": "address",
          "name": "recipient",
          "type": "address"
        },
        {
          "internalType": "uint256",
          "name": "amount",
          "type": "uint256"
        }
      ],
      "name": "transfer",
      "outputs": [
        {
          "internalType": "bool",
          "name": "",
          "type": "bool"
        }
      ],
      "stateMutability": "nonpayable",
      "type": "function"
    },
    {
      "inputs": [
        {
          "internalType": "address",
          "name": "sender",
          "type": "address"
        },
        {
          "internalType": "address",
          "name": "recipient",
          "type": "address"
        },
        {
          "internalType": "uint256",
          "name": "amount",
          "type": "uint256"
        }
      ],
      "name": "transferFrom",
      "outputs": [
        {
          "internalType": "bool",
          "name": "",
          "type": "bool"
        }
      ],
      "stateMutability": "nonpayable",
      "type": "function"
    },
    {
      "inputs": [],
      "name": "treeFactory",
      "outputs": [
        {
          "internalType": "contract TreeFactory",
          "name": "",
          "type": "address"
        }
      ],
      "stateMutability": "view",
      "type": "function",
      "constant": true
    },
    {
      "inputs": [],
      "name": "treeType",
      "outputs": [
        {
          "internalType": "contract TreeType",
          "name": "",
          "type": "address"
        }
      ],
      "stateMutability": "view",
      "type": "function",
      "constant": true
    },
    {
      "inputs": [],
      "name": "updateFactory",
      "outputs": [
        {
          "internalType": "contract UpdateFactory",
          "name": "",
          "type": "address"
        }
      ],
      "stateMutability": "view",
      "type": "function",
      "constant": true
    },
    {
      "inputs": [],
      "name": "mint",
      "outputs": [],
      "stateMutability": "nonpayable",
      "type": "function"
    }
  ],
  "bytecode": "0x60806040523480156200001157600080fd5b5060405162002cb138038062002cb18339818101604052620000379190810190620004d2565b6040518060400160405280600681526020017f4f787967656e00000000000000000000000000000000000000000000000000008152506040518060400160405280600281526020017f4f320000000000000000000000000000000000000000000000000000000000008152508160039080519060200190620000bb929190620003de565b508060049080519060200190620000d4929190620003de565b506012600560006101000a81548160ff021916908360ff160217905550505082600560016101000a81548173ffffffffffffffffffffffffffffffffffffffff021916908373ffffffffffffffffffffffffffffffffffffffff16021790555081600660006101000a81548173ffffffffffffffffffffffffffffffffffffffff021916908373ffffffffffffffffffffffffffffffffffffffff16021790555080600760006101000a81548173ffffffffffffffffffffffffffffffffffffffff021916908373ffffffffffffffffffffffffffffffffffffffff160217905550620001c9336000620001d260201b60201c565b505050620006f7565b600073ffffffffffffffffffffffffffffffffffffffff168273ffffffffffffffffffffffffffffffffffffffff16141562000245576040517f08c379a00000000000000000000000000000000000000000000000000000000081526004016200023c90620005df565b60405180910390fd5b62000259600083836200038160201b60201c565b62000275816002546200038660201b62001a9c1790919060201c565b600281905550620002d3816000808573ffffffffffffffffffffffffffffffffffffffff1673ffffffffffffffffffffffffffffffffffffffff168152602001908152602001600020546200038660201b62001a9c1790919060201c565b6000808473ffffffffffffffffffffffffffffffffffffffff1673ffffffffffffffffffffffffffffffffffffffff168152602001908152602001600020819055508173ffffffffffffffffffffffffffffffffffffffff16600073ffffffffffffffffffffffffffffffffffffffff167fddf252ad1be2c89b69c2b068fc378daa952ba7f163c4a11628f55a4df523b3ef8360405162000375919062000601565b60405180910390a35050565b505050565b600080828401905083811015620003d4576040517f08c379a0000000000000000000000000000000000000000000000000000000008152600401620003cb90620005bd565b60405180910390fd5b8091505092915050565b828054600181600116156101000203166002900490600052602060002090601f016020900481019282601f106200042157805160ff191683800117855562000452565b8280016001018555821562000452579182015b828111156200045157825182559160200191906001019062000434565b5b50905062000461919062000465565b5090565b6200048a91905b80821115620004865760008160009055506001016200046c565b5090565b90565b6000815190506200049e81620006a9565b92915050565b600081519050620004b581620006c3565b92915050565b600081519050620004cc81620006dd565b92915050565b600080600060608486031215620004e857600080fd5b6000620004f886828701620004a4565b93505060206200050b868287016200048d565b92505060406200051e86828701620004bb565b9150509250925092565b600062000537601b836200061e565b91507f536166654d6174683a206164646974696f6e206f766572666c6f7700000000006000830152602082019050919050565b600062000579601f836200061e565b91507f45524332303a206d696e7420746f20746865207a65726f2061646472657373006000830152602082019050919050565b620005b7816200069f565b82525050565b60006020820190508181036000830152620005d88162000528565b9050919050565b60006020820190508181036000830152620005fa816200056a565b9050919050565b6000602082019050620006186000830184620005ac565b92915050565b600082825260208201905092915050565b60006200063c826200067f565b9050919050565b600062000650826200062f565b9050919050565b600062000664826200062f565b9050919050565b600062000678826200062f565b9050919050565b600073ffffffffffffffffffffffffffffffffffffffff82169050919050565b6000819050919050565b620006b48162000643565b8114620006c057600080fd5b50565b620006ce8162000657565b8114620006da57600080fd5b50565b620006e8816200066b565b8114620006f457600080fd5b50565b6125aa80620007076000396000f3fe608060405234801561001057600080fd5b50600436106100f55760003560e01c8063421ef6d41161009757806398f5fa3b1161006657806398f5fa3b14610278578063a457c2d714610296578063a9059cbb146102c6578063dd62ed3e146102f6576100f5565b8063421ef6d4146101ee57806370a082311461020c578063876924a21461023c57806395d89b411461025a576100f5565b806318160ddd116100d357806318160ddd1461015257806323b872dd14610170578063313ce567146101a057806339509351146101be576100f5565b806306fdde03146100fa578063095ea7b3146101185780631249c58b14610148575b600080fd5b610102610326565b60405161010f9190612178565b60405180910390f35b610132600480360361012d9190810190611c96565b6103c8565b60405161013f919061210c565b60405180910390f35b6101506103e6565b005b61015a610fca565b604051610167919061229a565b60405180910390f35b61018a60048036036101859190810190611c47565b610fd4565b604051610197919061210c565b60405180910390f35b6101a86110ad565b6040516101b591906122de565b60405180910390f35b6101d860048036036101d39190810190611c96565b6110c4565b6040516101e5919061210c565b60405180910390f35b6101f6611177565b6040516102039190612127565b60405180910390f35b61022660048036036102219190810190611be2565b61119d565b604051610233919061229a565b60405180910390f35b6102446111e5565b6040516102519190612142565b60405180910390f35b61026261120b565b60405161026f9190612178565b60405180910390f35b6102806112ad565b60405161028d919061215d565b60405180910390f35b6102b060048036036102ab9190810190611c96565b6112d3565b6040516102bd919061210c565b60405180910390f35b6102e060048036036102db9190810190611c96565b6113a0565b6040516102ed919061210c565b60405180910390f35b610310600480360361030b9190810190611c0b565b6113be565b60405161031d919061229a565b60405180910390f35b606060038054600181600116156101000203166002900480601f0160208091040260200160405190810160405280929190818152602001828054600181600116156101000203166002900480156103be5780601f10610393576101008083540402835291602001916103be565b820191906000526020600020905b8154815290600101906020018083116103a157829003601f168201915b5050505050905090565b60006103dc6103d5611445565b848461144d565b6001905092915050565b6000600660009054906101000a900473ffffffffffffffffffffffffffffffffffffffff1673ffffffffffffffffffffffffffffffffffffffff166335939c58336040518263ffffffff1660e01b815260040161044391906120c8565b60006040518083038186803b15801561045b57600080fd5b505afa15801561046f573d6000803e3d6000fd5b505050506040513d6000823e3d601f19601f820116820180604052506104989190810190611cd2565b51116104d9576040517f08c379a00000000000000000000000000000000000000000000000000000000081526004016104d09061221a565b60405180910390fd5b600080905060008090505b600660009054906101000a900473ffffffffffffffffffffffffffffffffffffffff1673ffffffffffffffffffffffffffffffffffffffff166335939c58336040518263ffffffff1660e01b815260040161053f91906120c8565b60006040518083038186803b15801561055757600080fd5b505afa15801561056b573d6000803e3d6000fd5b505050506040513d6000823e3d601f19601f820116820180604052506105949190810190611cd2565b51811015610f40576000600660009054906101000a900473ffffffffffffffffffffffffffffffffffffffff1673ffffffffffffffffffffffffffffffffffffffff166335939c58336040518263ffffffff1660e01b81526004016105f991906120c8565b60006040518083038186803b15801561061157600080fd5b505afa158015610625573d6000803e3d6000fd5b505050506040513d6000823e3d601f19601f8201168201806040525061064e9190810190611cd2565b828151811061065957fe5b602002602001015190506060600760009054906101000a900473ffffffffffffffffffffffffffffffffffffffff1673ffffffffffffffffffffffffffffffffffffffff16639f3e5848836040518263ffffffff1660e01b81526004016106c0919061229a565b60006040518083038186803b1580156106d857600080fd5b505afa1580156106ec573d6000803e3d6000fd5b505050506040513d6000823e3d601f19601f820116820180604052506107159190810190611cd2565b9050600080905060008251141561072e57505050610f33565b60011515600760009054906101000a900473ffffffffffffffffffffffffffffffffffffffff1673ffffffffffffffffffffffffffffffffffffffff16632bfce493856040518263ffffffff1660e01b815260040161078d919061229a565b60206040518083038186803b1580156107a557600080fd5b505afa1580156107b9573d6000803e3d6000fd5b505050506040513d601f19601f820116820180604052506107dd9190810190611d13565b151514156107ed57505050610f33565b6000825190505b6000811115610dcd57600083600183038151811061080e57fe5b602002602001015190506001600760009054906101000a900473ffffffffffffffffffffffffffffffffffffffff1673ffffffffffffffffffffffffffffffffffffffff16635c622a0e836040518263ffffffff1660e01b8152600401610875919061229a565b60206040518083038186803b15801561088d57600080fd5b505afa1580156108a1573d6000803e3d6000fd5b505050506040513d601f19601f820116820180604052506108c59190810190611d65565b60ff16146108d35750610dbf565b60011515600760009054906101000a900473ffffffffffffffffffffffffffffffffffffffff1673ffffffffffffffffffffffffffffffffffffffff166333c41a90836040518263ffffffff1660e01b8152600401610932919061229a565b60206040518083038186803b15801561094a57600080fd5b505afa15801561095e573d6000803e3d6000fd5b505050506040513d601f19601f820116820180604052506109829190810190611d13565b151514156109905750610dbf565b6001821115610bd15760008460028403815181106109aa57fe5b602002602001015190506001600760009054906101000a900473ffffffffffffffffffffffffffffffffffffffff1673ffffffffffffffffffffffffffffffffffffffff16635c622a0e836040518263ffffffff1660e01b8152600401610a11919061229a565b60206040518083038186803b158015610a2957600080fd5b505afa158015610a3d573d6000803e3d6000fd5b505050506040513d601f19601f82011682018060405250610a619190810190611d65565b60ff1614610a70575050610dbf565b600760009054906101000a900473ffffffffffffffffffffffffffffffffffffffff1673ffffffffffffffffffffffffffffffffffffffff166333f19411826040518263ffffffff1660e01b8152600401610acb919061229a565b60206040518083038186803b158015610ae357600080fd5b505afa158015610af7573d6000803e3d6000fd5b505050506040513d601f19601f82011682018060405250610b1b9190810190611d3c565b600760009054906101000a900473ffffffffffffffffffffffffffffffffffffffff1673ffffffffffffffffffffffffffffffffffffffff166333f19411846040518263ffffffff1660e01b8152600401610b76919061229a565b60206040518083038186803b158015610b8e57600080fd5b505afa158015610ba2573d6000803e3d6000fd5b505050506040513d601f19601f82011682018060405250610bc69190810190611d3c565b850103935050610d2d565b600660009054906101000a900473ffffffffffffffffffffffffffffffffffffffff1673ffffffffffffffffffffffffffffffffffffffff1663b8a5f42c866040518263ffffffff1660e01b8152600401610c2c919061229a565b60206040518083038186803b158015610c4457600080fd5b505afa158015610c58573d6000803e3d6000fd5b505050506040513d601f19601f82011682018060405250610c7c9190810190611d3c565b600760009054906101000a900473ffffffffffffffffffffffffffffffffffffffff1673ffffffffffffffffffffffffffffffffffffffff166333f19411836040518263ffffffff1660e01b8152600401610cd7919061229a565b60206040518083038186803b158015610cef57600080fd5b505afa158015610d03573d6000803e3d6000fd5b505050506040513d601f19601f82011682018060405250610d279190810190611d3c565b84010392505b600760009054906101000a900473ffffffffffffffffffffffffffffffffffffffff1673ffffffffffffffffffffffffffffffffffffffff1663540bdfbe8260016040518363ffffffff1660e01b8152600401610d8b9291906122b5565b600060405180830381600087803b158015610da557600080fd5b505af1158015610db9573d6000803e3d6000fd5b50505050505b8080600190039150506107f4565b506000600560019054906101000a900473ffffffffffffffffffffffffffffffffffffffff1673ffffffffffffffffffffffffffffffffffffffff1663252c7ffb600660009054906101000a900473ffffffffffffffffffffffffffffffffffffffff1673ffffffffffffffffffffffffffffffffffffffff16639b6b5b66876040518263ffffffff1660e01b8152600401610e69919061229a565b60206040518083038186803b158015610e8157600080fd5b505afa158015610e95573d6000803e3d6000fd5b505050506040513d601f19601f82011682018060405250610eb99190810190611d3c565b6040518263ffffffff1660e01b8152600401610ed5919061229a565b60206040518083038186803b158015610eed57600080fd5b505afa158015610f01573d6000803e3d6000fd5b505050506040513d601f19601f82011682018060405250610f259190810190611d3c565b905081810286019550505050505b80806001019150506104e4565b5060008111610f84576040517f08c379a0000000000000000000000000000000000000000000000000000000008152600401610f7b906121fa565b60405180910390fd5b610f8e3382611618565b7fee1d22c56adf8004e20c2c8046f654eadde31bf648109f0253c823879220f8073382604051610fbf9291906120e3565b60405180910390a150565b6000600254905090565b6000610fe18484846117ac565b6110a284610fed611445565b61109d8560405180606001604052806028815260200161252860289139600160008b73ffffffffffffffffffffffffffffffffffffffff1673ffffffffffffffffffffffffffffffffffffffff1681526020019081526020016000206000611053611445565b73ffffffffffffffffffffffffffffffffffffffff1673ffffffffffffffffffffffffffffffffffffffff16815260200190815260200160002054611a419092919063ffffffff16565b61144d565b600190509392505050565b6000600560009054906101000a900460ff16905090565b600061116d6110d1611445565b8461116885600160006110e2611445565b73ffffffffffffffffffffffffffffffffffffffff1673ffffffffffffffffffffffffffffffffffffffff16815260200190815260200160002060008973ffffffffffffffffffffffffffffffffffffffff1673ffffffffffffffffffffffffffffffffffffffff16815260200190815260200160002054611a9c90919063ffffffff16565b61144d565b6001905092915050565b600660009054906101000a900473ffffffffffffffffffffffffffffffffffffffff1681565b60008060008373ffffffffffffffffffffffffffffffffffffffff1673ffffffffffffffffffffffffffffffffffffffff168152602001908152602001600020549050919050565b600560019054906101000a900473ffffffffffffffffffffffffffffffffffffffff1681565b606060048054600181600116156101000203166002900480601f0160208091040260200160405190810160405280929190818152602001828054600181600116156101000203166002900480156112a35780601f10611278576101008083540402835291602001916112a3565b820191906000526020600020905b81548152906001019060200180831161128657829003601f168201915b5050505050905090565b600760009054906101000a900473ffffffffffffffffffffffffffffffffffffffff1681565b60006113966112e0611445565b8461139185604051806060016040528060258152602001612550602591396001600061130a611445565b73ffffffffffffffffffffffffffffffffffffffff1673ffffffffffffffffffffffffffffffffffffffff16815260200190815260200160002060008a73ffffffffffffffffffffffffffffffffffffffff1673ffffffffffffffffffffffffffffffffffffffff16815260200190815260200160002054611a419092919063ffffffff16565b61144d565b6001905092915050565b60006113b46113ad611445565b84846117ac565b6001905092915050565b6000600160008473ffffffffffffffffffffffffffffffffffffffff1673ffffffffffffffffffffffffffffffffffffffff16815260200190815260200160002060008373ffffffffffffffffffffffffffffffffffffffff1673ffffffffffffffffffffffffffffffffffffffff16815260200190815260200160002054905092915050565b600033905090565b600073ffffffffffffffffffffffffffffffffffffffff168373ffffffffffffffffffffffffffffffffffffffff1614156114bd576040517f08c379a00000000000000000000000000000000000000000000000000000000081526004016114b49061225a565b60405180910390fd5b600073ffffffffffffffffffffffffffffffffffffffff168273ffffffffffffffffffffffffffffffffffffffff16141561152d576040517f08c379a0000000000000000000000000000000000000000000000000000000008152600401611524906121ba565b60405180910390fd5b80600160008573ffffffffffffffffffffffffffffffffffffffff1673ffffffffffffffffffffffffffffffffffffffff16815260200190815260200160002060008473ffffffffffffffffffffffffffffffffffffffff1673ffffffffffffffffffffffffffffffffffffffff168152602001908152602001600020819055508173ffffffffffffffffffffffffffffffffffffffff168373ffffffffffffffffffffffffffffffffffffffff167f8c5be1e5ebec7d5bd14f71427d1e84f3dd0314c0f7b2291e5b200ac8c7c3b9258360405161160b919061229a565b60405180910390a3505050565b600073ffffffffffffffffffffffffffffffffffffffff168273ffffffffffffffffffffffffffffffffffffffff161415611688576040517f08c379a000000000000000000000000000000000000000000000000000000000815260040161167f9061227a565b60405180910390fd5b61169460008383611af1565b6116a981600254611a9c90919063ffffffff16565b600281905550611700816000808573ffffffffffffffffffffffffffffffffffffffff1673ffffffffffffffffffffffffffffffffffffffff16815260200190815260200160002054611a9c90919063ffffffff16565b6000808473ffffffffffffffffffffffffffffffffffffffff1673ffffffffffffffffffffffffffffffffffffffff168152602001908152602001600020819055508173ffffffffffffffffffffffffffffffffffffffff16600073ffffffffffffffffffffffffffffffffffffffff167fddf252ad1be2c89b69c2b068fc378daa952ba7f163c4a11628f55a4df523b3ef836040516117a0919061229a565b60405180910390a35050565b600073ffffffffffffffffffffffffffffffffffffffff168373ffffffffffffffffffffffffffffffffffffffff16141561181c576040517f08c379a00000000000000000000000000000000000000000000000000000000081526004016118139061223a565b60405180910390fd5b600073ffffffffffffffffffffffffffffffffffffffff168273ffffffffffffffffffffffffffffffffffffffff16141561188c576040517f08c379a00000000000000000000000000000000000000000000000000000000081526004016118839061219a565b60405180910390fd5b611897838383611af1565b61190281604051806060016040528060268152602001612502602691396000808773ffffffffffffffffffffffffffffffffffffffff1673ffffffffffffffffffffffffffffffffffffffff16815260200190815260200160002054611a419092919063ffffffff16565b6000808573ffffffffffffffffffffffffffffffffffffffff1673ffffffffffffffffffffffffffffffffffffffff16815260200190815260200160002081905550611995816000808573ffffffffffffffffffffffffffffffffffffffff1673ffffffffffffffffffffffffffffffffffffffff16815260200190815260200160002054611a9c90919063ffffffff16565b6000808473ffffffffffffffffffffffffffffffffffffffff1673ffffffffffffffffffffffffffffffffffffffff168152602001908152602001600020819055508173ffffffffffffffffffffffffffffffffffffffff168373ffffffffffffffffffffffffffffffffffffffff167fddf252ad1be2c89b69c2b068fc378daa952ba7f163c4a11628f55a4df523b3ef83604051611a34919061229a565b60405180910390a3505050565b6000838311158290611a89576040517f08c379a0000000000000000000000000000000000000000000000000000000008152600401611a809190612178565b60405180910390fd5b5060008385039050809150509392505050565b600080828401905083811015611ae7576040517f08c379a0000000000000000000000000000000000000000000000000000000008152600401611ade906121da565b60405180910390fd5b8091505092915050565b505050565b600081359050611b05816124a5565b92915050565b600082601f830112611b1c57600080fd5b8151611b2f611b2a82612326565b6122f9565b91508181835260208401935060208101905083856020840282011115611b5457600080fd5b60005b83811015611b845781611b6a8882611bb8565b845260208401935060208301925050600181019050611b57565b5050505092915050565b600081519050611b9d816124bc565b92915050565b600081359050611bb2816124d3565b92915050565b600081519050611bc7816124d3565b92915050565b600081519050611bdc816124ea565b92915050565b600060208284031215611bf457600080fd5b6000611c0284828501611af6565b91505092915050565b60008060408385031215611c1e57600080fd5b6000611c2c85828601611af6565b9250506020611c3d85828601611af6565b9150509250929050565b600080600060608486031215611c5c57600080fd5b6000611c6a86828701611af6565b9350506020611c7b86828701611af6565b9250506040611c8c86828701611ba3565b9150509250925092565b60008060408385031215611ca957600080fd5b6000611cb785828601611af6565b9250506020611cc885828601611ba3565b9150509250929050565b600060208284031215611ce457600080fd5b600082015167ffffffffffffffff811115611cfe57600080fd5b611d0a84828501611b0b565b91505092915050565b600060208284031215611d2557600080fd5b6000611d3384828501611b8e565b91505092915050565b600060208284031215611d4e57600080fd5b6000611d5c84828501611bb8565b91505092915050565b600060208284031215611d7757600080fd5b6000611d8584828501611bcd565b91505092915050565b611d97816123bf565b82525050565b611da68161237c565b82525050565b611db5816123d1565b82525050565b611dc4816123f5565b82525050565b611dd381612419565b82525050565b6000611de48261234e565b611dee8185612359565b9350611dfe818560208601612461565b611e0781612494565b840191505092915050565b6000611e1f602383612359565b91507f45524332303a207472616e7366657220746f20746865207a65726f206164647260008301527f65737300000000000000000000000000000000000000000000000000000000006020830152604082019050919050565b6000611e85602283612359565b91507f45524332303a20617070726f766520746f20746865207a65726f20616464726560008301527f73730000000000000000000000000000000000000000000000000000000000006020830152604082019050919050565b6000611eeb601b83612359565b91507f536166654d6174683a206164646974696f6e206f766572666c6f7700000000006000830152602082019050919050565b6000611f2b601283612359565b91507f4d696e7461626c654f32206973207a65726f00000000000000000000000000006000830152602082019050919050565b6000611f6b601883612359565b91507f4f776e6572207472656520636f756e74206973207a65726f00000000000000006000830152602082019050919050565b6000611fab602583612359565b91507f45524332303a207472616e736665722066726f6d20746865207a65726f20616460008301527f64726573730000000000000000000000000000000000000000000000000000006020830152604082019050919050565b6000612011602483612359565b91507f45524332303a20617070726f76652066726f6d20746865207a65726f2061646460008301527f72657373000000000000000000000000000000000000000000000000000000006020830152604082019050919050565b6000612077601f83612359565b91507f45524332303a206d696e7420746f20746865207a65726f2061646472657373006000830152602082019050919050565b6120b3816123a8565b82525050565b6120c2816123b2565b82525050565b60006020820190506120dd6000830184611d8e565b92915050565b60006040820190506120f86000830185611d8e565b61210560208301846120aa565b9392505050565b60006020820190506121216000830184611d9d565b92915050565b600060208201905061213c6000830184611dac565b92915050565b60006020820190506121576000830184611dbb565b92915050565b60006020820190506121726000830184611dca565b92915050565b600060208201905081810360008301526121928184611dd9565b905092915050565b600060208201905081810360008301526121b381611e12565b9050919050565b600060208201905081810360008301526121d381611e78565b9050919050565b600060208201905081810360008301526121f381611ede565b9050919050565b6000602082019050818103600083015261221381611f1e565b9050919050565b6000602082019050818103600083015261223381611f5e565b9050919050565b6000602082019050818103600083015261225381611f9e565b9050919050565b6000602082019050818103600083015261227381612004565b9050919050565b600060208201905081810360008301526122938161206a565b9050919050565b60006020820190506122af60008301846120aa565b92915050565b60006040820190506122ca60008301856120aa565b6122d76020830184611d9d565b9392505050565b60006020820190506122f360008301846120b9565b92915050565b6000604051905081810181811067ffffffffffffffff8211171561231c57600080fd5b8060405250919050565b600067ffffffffffffffff82111561233d57600080fd5b602082029050602081019050919050565b600081519050919050565b600082825260208201905092915050565b600061237582612388565b9050919050565b60008115159050919050565b600073ffffffffffffffffffffffffffffffffffffffff82169050919050565b6000819050919050565b600060ff82169050919050565b60006123ca8261243d565b9050919050565b60006123dc826123e3565b9050919050565b60006123ee82612388565b9050919050565b600061240082612407565b9050919050565b600061241282612388565b9050919050565b60006124248261242b565b9050919050565b600061243682612388565b9050919050565b60006124488261244f565b9050919050565b600061245a82612388565b9050919050565b60005b8381101561247f578082015181840152602081019050612464565b8381111561248e576000848401525b50505050565b6000601f19601f8301169050919050565b6124ae8161236a565b81146124b957600080fd5b50565b6124c58161237c565b81146124d057600080fd5b50565b6124dc816123a8565b81146124e757600080fd5b50565b6124f3816123b2565b81146124fe57600080fd5b5056fe45524332303a207472616e7366657220616d6f756e7420657863656564732062616c616e636545524332303a207472616e7366657220616d6f756e74206578636565647320616c6c6f77616e636545524332303a2064656372656173656420616c6c6f77616e63652062656c6f77207a65726fa26469706673582212201078f72f72502cc6f472d15e5dcc340bb5f2417f7568f94b3531709a0b9710a164736f6c63430006020033",
  "source": "// SPDX-License-Identifier: GPL-3.0\n\npragma solidity >=0.4.21 <0.7.0;\npragma experimental ABIEncoderV2;\n\nimport \"../../node_modules/@openzeppelin/contracts/token/ERC20/ERC20.sol\";\n\nimport \"../tree/TreeFactory.sol\";\nimport \"../tree/UpdateFactory.sol\";\nimport \"../tree/TreeType.sol\";\n\ncontract O2Factory is ERC20 {\n    TreeType public treeType;\n    TreeFactory public treeFactory;\n    UpdateFactory public updateFactory;\n\n    constructor(\n        TreeType _typeAddress,\n        TreeFactory _treeFactoryAddress,\n        UpdateFactory _updateFactoryAddress\n    ) public ERC20(\"Oxygen\", \"O2\") {\n        treeType = _typeAddress;\n        treeFactory = _treeFactoryAddress;\n        updateFactory = _updateFactoryAddress;\n        _mint(msg.sender, 0);\n    }\n\n    event O2Minted(address owner, uint256 totalO2);\n\n    event ConsoleLog(uint256 updateDate);\n    event ConsoleLogB(bool updateDate);\n\n    //@todo permission must check\n    function mint() external {\n        require(\n            treeFactory.getOwnerTrees(msg.sender).length > 0,\n            \"Owner tree count is zero\"\n        );\n\n        uint256 mintableO2 = 0;\n\n        for (\n            uint256 i = 0;\n            i < treeFactory.getOwnerTrees(msg.sender).length;\n            i++\n        ) {\n            uint256 treeId = treeFactory.getOwnerTrees(msg.sender)[i];\n            uint256[] memory treeUpdates = updateFactory.getTreeUpdates(treeId);\n            uint256 totalSeconds = 0;\n\n            if (treeUpdates.length == 0) {\n                continue;\n            }\n\n            if (updateFactory.isTreeLastUpdateMinted(treeId) == true) {\n                continue;\n            }\n\n            for (uint256 j = treeUpdates.length; j > 0; j--) {\n                uint256 jUpdateId = treeUpdates[j - 1];\n\n                if (updateFactory.getStatus(jUpdateId) != 1) {\n                    continue;\n                }\n\n                if (updateFactory.isMinted(jUpdateId) == true) {\n                    continue;\n                }\n\n                if (j > 1) {\n                    uint256 jMinusUpdateId = treeUpdates[j - 2];\n\n                    if (updateFactory.getStatus(jMinusUpdateId) != 1) {\n                        continue;\n                    }\n\n                    totalSeconds =\n                        totalSeconds +\n                        updateFactory.getUpdateDate(jUpdateId) -\n                        updateFactory.getUpdateDate(jMinusUpdateId);\n                } else {\n                    totalSeconds =\n                        totalSeconds +\n                        updateFactory.getUpdateDate(jUpdateId) -\n                        treeFactory.getPlantedDate(treeId);\n                }\n\n                updateFactory.setMinted(jUpdateId, true);\n            }\n\n            uint256 o2Formula = treeType.getO2Formula(\n                treeFactory.getTypeId(treeId)\n            );\n\n            mintableO2 = mintableO2 + o2Formula * totalSeconds;\n        }\n\n        require(mintableO2 > 0, \"MintableO2 is zero\");\n\n        _mint(msg.sender, mintableO2);\n\n        emit O2Minted(msg.sender, mintableO2);\n    }\n}\n",
  "sourcePath": "/home/amir/Projects/treejer/contract/contracts/o2/O2Factory.sol",
  "compiler": {
    "name": "solc",
    "version": "0.6.2+commit.bacdbe57.Emscripten.clang"
  },
  "schemaVersion": "3.0.22",
  "updatedAt": "2020-07-25T14:05:17.913Z",
  "networkType": "ethereum",
  "devdoc": {
    "methods": {
      "allowance(address,address)": {
        "details": "See {IERC20-allowance}."
      },
      "approve(address,uint256)": {
        "details": "See {IERC20-approve}.     * Requirements:     * - `spender` cannot be the zero address."
      },
      "balanceOf(address)": {
        "details": "See {IERC20-balanceOf}."
      },
      "decimals()": {
        "details": "Returns the number of decimals used to get its user representation. For example, if `decimals` equals `2`, a balance of `505` tokens should be displayed to a user as `5,05` (`505 / 10 ** 2`).     * Tokens usually opt for a value of 18, imitating the relationship between Ether and Wei. This is the value {ERC20} uses, unless {_setupDecimals} is called.     * NOTE: This information is only used for _display_ purposes: it in no way affects any of the arithmetic of the contract, including {IERC20-balanceOf} and {IERC20-transfer}."
      },
      "decreaseAllowance(address,uint256)": {
        "details": "Atomically decreases the allowance granted to `spender` by the caller.     * This is an alternative to {approve} that can be used as a mitigation for problems described in {IERC20-approve}.     * Emits an {Approval} event indicating the updated allowance.     * Requirements:     * - `spender` cannot be the zero address. - `spender` must have allowance for the caller of at least `subtractedValue`."
      },
      "increaseAllowance(address,uint256)": {
        "details": "Atomically increases the allowance granted to `spender` by the caller.     * This is an alternative to {approve} that can be used as a mitigation for problems described in {IERC20-approve}.     * Emits an {Approval} event indicating the updated allowance.     * Requirements:     * - `spender` cannot be the zero address."
      },
      "name()": {
        "details": "Returns the name of the token."
      },
      "symbol()": {
        "details": "Returns the symbol of the token, usually a shorter version of the name."
      },
      "totalSupply()": {
        "details": "See {IERC20-totalSupply}."
      },
      "transfer(address,uint256)": {
        "details": "See {IERC20-transfer}.     * Requirements:     * - `recipient` cannot be the zero address. - the caller must have a balance of at least `amount`."
      },
      "transferFrom(address,address,uint256)": {
        "details": "See {IERC20-transferFrom}.     * Emits an {Approval} event indicating the updated allowance. This is not required by the EIP. See the note at the beginning of {ERC20};     * Requirements: - `sender` and `recipient` cannot be the zero address. - `sender` must have a balance of at least `amount`. - the caller must have allowance for ``sender``'s tokens of at least `amount`."
      }
    }
  },
  "userdoc": {
    "methods": {}
  }
}