{
  "contractName": "O2Factory",
  "abi": [
    {
      "inputs": [
        {
          "internalType": "contract TreeType",
          "name": "_typeAddress",
          "type": "address"
        },
        {
          "internalType": "contract TreeFactory",
          "name": "_treeFactoryAddress",
          "type": "address"
        },
        {
          "internalType": "contract UpdateFactory",
          "name": "_updateFactoryAddress",
          "type": "address"
        }
      ],
      "stateMutability": "nonpayable",
      "type": "constructor"
    },
    {
      "anonymous": false,
      "inputs": [
        {
          "indexed": true,
          "internalType": "address",
          "name": "owner",
          "type": "address"
        },
        {
          "indexed": true,
          "internalType": "address",
          "name": "spender",
          "type": "address"
        },
        {
          "indexed": false,
          "internalType": "uint256",
          "name": "value",
          "type": "uint256"
        }
      ],
      "name": "Approval",
      "type": "event"
    },
    {
      "anonymous": false,
      "inputs": [
        {
          "indexed": false,
          "internalType": "address",
          "name": "owner",
          "type": "address"
        },
        {
          "indexed": false,
          "internalType": "uint256",
          "name": "totalO2",
          "type": "uint256"
        }
      ],
      "name": "O2Minted",
      "type": "event"
    },
    {
      "anonymous": false,
      "inputs": [
        {
          "indexed": true,
          "internalType": "address",
          "name": "from",
          "type": "address"
        },
        {
          "indexed": true,
          "internalType": "address",
          "name": "to",
          "type": "address"
        },
        {
          "indexed": false,
          "internalType": "uint256",
          "name": "value",
          "type": "uint256"
        }
      ],
      "name": "Transfer",
      "type": "event"
    },
    {
      "inputs": [
        {
          "internalType": "address",
          "name": "owner",
          "type": "address"
        },
        {
          "internalType": "address",
          "name": "spender",
          "type": "address"
        }
      ],
      "name": "allowance",
      "outputs": [
        {
          "internalType": "uint256",
          "name": "",
          "type": "uint256"
        }
      ],
      "stateMutability": "view",
      "type": "function",
      "constant": true
    },
    {
      "inputs": [
        {
          "internalType": "address",
          "name": "spender",
          "type": "address"
        },
        {
          "internalType": "uint256",
          "name": "amount",
          "type": "uint256"
        }
      ],
      "name": "approve",
      "outputs": [
        {
          "internalType": "bool",
          "name": "",
          "type": "bool"
        }
      ],
      "stateMutability": "nonpayable",
      "type": "function"
    },
    {
      "inputs": [
        {
          "internalType": "address",
          "name": "account",
          "type": "address"
        }
      ],
      "name": "balanceOf",
      "outputs": [
        {
          "internalType": "uint256",
          "name": "",
          "type": "uint256"
        }
      ],
      "stateMutability": "view",
      "type": "function",
      "constant": true
    },
    {
      "inputs": [],
      "name": "decimals",
      "outputs": [
        {
          "internalType": "uint8",
          "name": "",
          "type": "uint8"
        }
      ],
      "stateMutability": "view",
      "type": "function",
      "constant": true
    },
    {
      "inputs": [
        {
          "internalType": "address",
          "name": "spender",
          "type": "address"
        },
        {
          "internalType": "uint256",
          "name": "subtractedValue",
          "type": "uint256"
        }
      ],
      "name": "decreaseAllowance",
      "outputs": [
        {
          "internalType": "bool",
          "name": "",
          "type": "bool"
        }
      ],
      "stateMutability": "nonpayable",
      "type": "function"
    },
    {
      "inputs": [
        {
          "internalType": "address",
          "name": "spender",
          "type": "address"
        },
        {
          "internalType": "uint256",
          "name": "addedValue",
          "type": "uint256"
        }
      ],
      "name": "increaseAllowance",
      "outputs": [
        {
          "internalType": "bool",
          "name": "",
          "type": "bool"
        }
      ],
      "stateMutability": "nonpayable",
      "type": "function"
    },
    {
      "inputs": [],
      "name": "name",
      "outputs": [
        {
          "internalType": "string",
          "name": "",
          "type": "string"
        }
      ],
      "stateMutability": "view",
      "type": "function",
      "constant": true
    },
    {
      "inputs": [],
      "name": "symbol",
      "outputs": [
        {
          "internalType": "string",
          "name": "",
          "type": "string"
        }
      ],
      "stateMutability": "view",
      "type": "function",
      "constant": true
    },
    {
      "inputs": [],
      "name": "totalSupply",
      "outputs": [
        {
          "internalType": "uint256",
          "name": "",
          "type": "uint256"
        }
      ],
      "stateMutability": "view",
      "type": "function",
      "constant": true
    },
    {
      "inputs": [
        {
          "internalType": "address",
          "name": "recipient",
          "type": "address"
        },
        {
          "internalType": "uint256",
          "name": "amount",
          "type": "uint256"
        }
      ],
      "name": "transfer",
      "outputs": [
        {
          "internalType": "bool",
          "name": "",
          "type": "bool"
        }
      ],
      "stateMutability": "nonpayable",
      "type": "function"
    },
    {
      "inputs": [
        {
          "internalType": "address",
          "name": "sender",
          "type": "address"
        },
        {
          "internalType": "address",
          "name": "recipient",
          "type": "address"
        },
        {
          "internalType": "uint256",
          "name": "amount",
          "type": "uint256"
        }
      ],
      "name": "transferFrom",
      "outputs": [
        {
          "internalType": "bool",
          "name": "",
          "type": "bool"
        }
      ],
      "stateMutability": "nonpayable",
      "type": "function"
    },
    {
      "inputs": [],
      "name": "treeFactory",
      "outputs": [
        {
          "internalType": "contract TreeFactory",
          "name": "",
          "type": "address"
        }
      ],
      "stateMutability": "view",
      "type": "function",
      "constant": true
    },
    {
      "inputs": [],
      "name": "treeType",
      "outputs": [
        {
          "internalType": "contract TreeType",
          "name": "",
          "type": "address"
        }
      ],
      "stateMutability": "view",
      "type": "function",
      "constant": true
    },
    {
      "inputs": [],
      "name": "updateFactory",
      "outputs": [
        {
          "internalType": "contract UpdateFactory",
          "name": "",
          "type": "address"
        }
      ],
      "stateMutability": "view",
      "type": "function",
      "constant": true
    },
    {
      "inputs": [],
      "name": "mint",
      "outputs": [],
      "stateMutability": "nonpayable",
      "type": "function"
    }
  ],
  "bytecode": "0x60806040523480156200001157600080fd5b5060405162002beb38038062002beb8339818101604052810190620000379190620004d2565b6040518060400160405280600681526020017f4f787967656e00000000000000000000000000000000000000000000000000008152506040518060400160405280600281526020017f4f320000000000000000000000000000000000000000000000000000000000008152508160039080519060200190620000bb929190620003de565b508060049080519060200190620000d4929190620003de565b506012600560006101000a81548160ff021916908360ff160217905550505082600560016101000a81548173ffffffffffffffffffffffffffffffffffffffff021916908373ffffffffffffffffffffffffffffffffffffffff16021790555081600660006101000a81548173ffffffffffffffffffffffffffffffffffffffff021916908373ffffffffffffffffffffffffffffffffffffffff16021790555080600760006101000a81548173ffffffffffffffffffffffffffffffffffffffff021916908373ffffffffffffffffffffffffffffffffffffffff160217905550620001c9336000620001d260201b60201c565b505050620006f7565b600073ffffffffffffffffffffffffffffffffffffffff168273ffffffffffffffffffffffffffffffffffffffff16141562000245576040517f08c379a00000000000000000000000000000000000000000000000000000000081526004016200023c90620005df565b60405180910390fd5b62000259600083836200038160201b60201c565b62000275816002546200038660201b6200137f1790919060201c565b600281905550620002d3816000808573ffffffffffffffffffffffffffffffffffffffff1673ffffffffffffffffffffffffffffffffffffffff168152602001908152602001600020546200038660201b6200137f1790919060201c565b6000808473ffffffffffffffffffffffffffffffffffffffff1673ffffffffffffffffffffffffffffffffffffffff168152602001908152602001600020819055508173ffffffffffffffffffffffffffffffffffffffff16600073ffffffffffffffffffffffffffffffffffffffff167fddf252ad1be2c89b69c2b068fc378daa952ba7f163c4a11628f55a4df523b3ef8360405162000375919062000601565b60405180910390a35050565b505050565b600080828401905083811015620003d4576040517f08c379a0000000000000000000000000000000000000000000000000000000008152600401620003cb90620005bd565b60405180910390fd5b8091505092915050565b828054600181600116156101000203166002900490600052602060002090601f016020900481019282601f106200042157805160ff191683800117855562000452565b8280016001018555821562000452579182015b828111156200045157825182559160200191906001019062000434565b5b50905062000461919062000465565b5090565b6200048a91905b80821115620004865760008160009055506001016200046c565b5090565b90565b6000815190506200049e81620006a9565b92915050565b600081519050620004b581620006c3565b92915050565b600081519050620004cc81620006dd565b92915050565b600080600060608486031215620004e857600080fd5b6000620004f886828701620004a4565b93505060206200050b868287016200048d565b92505060406200051e86828701620004bb565b9150509250925092565b600062000537601b836200061e565b91507f536166654d6174683a206164646974696f6e206f766572666c6f7700000000006000830152602082019050919050565b600062000579601f836200061e565b91507f45524332303a206d696e7420746f20746865207a65726f2061646472657373006000830152602082019050919050565b620005b7816200069f565b82525050565b60006020820190508181036000830152620005d88162000528565b9050919050565b60006020820190508181036000830152620005fa816200056a565b9050919050565b6000602082019050620006186000830184620005ac565b92915050565b600082825260208201905092915050565b60006200063c826200067f565b9050919050565b600062000650826200062f565b9050919050565b600062000664826200062f565b9050919050565b600062000678826200062f565b9050919050565b600073ffffffffffffffffffffffffffffffffffffffff82169050919050565b6000819050919050565b620006b48162000643565b8114620006c057600080fd5b50565b620006ce8162000657565b8114620006da57600080fd5b50565b620006e8816200066b565b8114620006f457600080fd5b50565b6124e480620007076000396000f3fe608060405234801561001057600080fd5b50600436106100f55760003560e01c8063421ef6d41161009757806398f5fa3b1161006657806398f5fa3b14610278578063a457c2d714610296578063a9059cbb146102c6578063dd62ed3e146102f6576100f5565b8063421ef6d4146101ee57806370a082311461020c578063876924a21461023c57806395d89b411461025a576100f5565b806318160ddd116100d357806318160ddd1461015257806323b872dd14610170578063313ce567146101a057806339509351146101be576100f5565b806306fdde03146100fa578063095ea7b3146101185780631249c58b14610148575b600080fd5b610102610326565b60405161010f91906120b2565b60405180910390f35b610132600480360381019061012d9190611bd0565b6103c8565b60405161013f9190612046565b60405180910390f35b6101506103e6565b005b61015a610f04565b60405161016791906121d4565b60405180910390f35b61018a60048036038101906101859190611b81565b610f0e565b6040516101979190612046565b60405180910390f35b6101a8610fe7565b6040516101b59190612218565b60405180910390f35b6101d860048036038101906101d39190611bd0565b610ffe565b6040516101e59190612046565b60405180910390f35b6101f66110b1565b6040516102039190612061565b60405180910390f35b61022660048036038101906102219190611b1c565b6110d7565b60405161023391906121d4565b60405180910390f35b61024461111f565b604051610251919061207c565b60405180910390f35b610262611145565b60405161026f91906120b2565b60405180910390f35b6102806111e7565b60405161028d9190612097565b60405180910390f35b6102b060048036038101906102ab9190611bd0565b61120d565b6040516102bd9190612046565b60405180910390f35b6102e060048036038101906102db9190611bd0565b6112da565b6040516102ed9190612046565b60405180910390f35b610310600480360381019061030b9190611b45565b6112f8565b60405161031d91906121d4565b60405180910390f35b606060038054600181600116156101000203166002900480601f0160208091040260200160405190810160405280929190818152602001828054600181600116156101000203166002900480156103be5780601f10610393576101008083540402835291602001916103be565b820191906000526020600020905b8154815290600101906020018083116103a157829003601f168201915b5050505050905090565b60006103dc6103d56113d4565b84846113dc565b6001905092915050565b6000600660009054906101000a900473ffffffffffffffffffffffffffffffffffffffff1673ffffffffffffffffffffffffffffffffffffffff166386897ad8336040518263ffffffff1660e01b81526004016104439190612002565b60206040518083038186803b15801561045b57600080fd5b505afa15801561046f573d6000803e3d6000fd5b505050506040513d601f19601f820116820180604052508101906104939190611c76565b9050600081116104d8576040517f08c379a00000000000000000000000000000000000000000000000000000000081526004016104cf90612154565b60405180910390fd5b600080905060008090505b82811015610e79576000600660009054906101000a900473ffffffffffffffffffffffffffffffffffffffff1673ffffffffffffffffffffffffffffffffffffffff16632f745c5933846040518363ffffffff1660e01b815260040161054a92919061201d565b60206040518083038186803b15801561056257600080fd5b505afa158015610576573d6000803e3d6000fd5b505050506040513d601f19601f8201168201806040525081019061059a9190611c76565b90506060600760009054906101000a900473ffffffffffffffffffffffffffffffffffffffff1673ffffffffffffffffffffffffffffffffffffffff16639f3e5848836040518263ffffffff1660e01b81526004016105f991906121d4565b60006040518083038186803b15801561061157600080fd5b505afa158015610625573d6000803e3d6000fd5b505050506040513d6000823e3d601f19601f8201168201806040525081019061064e9190611c0c565b9050600080905060008251141561066757505050610e6c565b60011515600760009054906101000a900473ffffffffffffffffffffffffffffffffffffffff1673ffffffffffffffffffffffffffffffffffffffff16632bfce493856040518263ffffffff1660e01b81526004016106c691906121d4565b60206040518083038186803b1580156106de57600080fd5b505afa1580156106f2573d6000803e3d6000fd5b505050506040513d601f19601f820116820180604052508101906107169190611c4d565b1515141561072657505050610e6c565b6000825190505b6000811115610d0657600083600183038151811061074757fe5b602002602001015190506001600760009054906101000a900473ffffffffffffffffffffffffffffffffffffffff1673ffffffffffffffffffffffffffffffffffffffff16635c622a0e836040518263ffffffff1660e01b81526004016107ae91906121d4565b60206040518083038186803b1580156107c657600080fd5b505afa1580156107da573d6000803e3d6000fd5b505050506040513d601f19601f820116820180604052508101906107fe9190611c9f565b60ff161461080c5750610cf8565b60011515600760009054906101000a900473ffffffffffffffffffffffffffffffffffffffff1673ffffffffffffffffffffffffffffffffffffffff166333c41a90836040518263ffffffff1660e01b815260040161086b91906121d4565b60206040518083038186803b15801561088357600080fd5b505afa158015610897573d6000803e3d6000fd5b505050506040513d601f19601f820116820180604052508101906108bb9190611c4d565b151514156108c95750610cf8565b6001821115610b0a5760008460028403815181106108e357fe5b602002602001015190506001600760009054906101000a900473ffffffffffffffffffffffffffffffffffffffff1673ffffffffffffffffffffffffffffffffffffffff16635c622a0e836040518263ffffffff1660e01b815260040161094a91906121d4565b60206040518083038186803b15801561096257600080fd5b505afa158015610976573d6000803e3d6000fd5b505050506040513d601f19601f8201168201806040525081019061099a9190611c9f565b60ff16146109a9575050610cf8565b600760009054906101000a900473ffffffffffffffffffffffffffffffffffffffff1673ffffffffffffffffffffffffffffffffffffffff166333f19411826040518263ffffffff1660e01b8152600401610a0491906121d4565b60206040518083038186803b158015610a1c57600080fd5b505afa158015610a30573d6000803e3d6000fd5b505050506040513d601f19601f82011682018060405250810190610a549190611c76565b600760009054906101000a900473ffffffffffffffffffffffffffffffffffffffff1673ffffffffffffffffffffffffffffffffffffffff166333f19411846040518263ffffffff1660e01b8152600401610aaf91906121d4565b60206040518083038186803b158015610ac757600080fd5b505afa158015610adb573d6000803e3d6000fd5b505050506040513d601f19601f82011682018060405250810190610aff9190611c76565b850103935050610c66565b600660009054906101000a900473ffffffffffffffffffffffffffffffffffffffff1673ffffffffffffffffffffffffffffffffffffffff1663b8a5f42c866040518263ffffffff1660e01b8152600401610b6591906121d4565b60206040518083038186803b158015610b7d57600080fd5b505afa158015610b91573d6000803e3d6000fd5b505050506040513d601f19601f82011682018060405250810190610bb59190611c76565b600760009054906101000a900473ffffffffffffffffffffffffffffffffffffffff1673ffffffffffffffffffffffffffffffffffffffff166333f19411836040518263ffffffff1660e01b8152600401610c1091906121d4565b60206040518083038186803b158015610c2857600080fd5b505afa158015610c3c573d6000803e3d6000fd5b505050506040513d601f19601f82011682018060405250810190610c609190611c76565b84010392505b600760009054906101000a900473ffffffffffffffffffffffffffffffffffffffff1673ffffffffffffffffffffffffffffffffffffffff1663540bdfbe8260016040518363ffffffff1660e01b8152600401610cc49291906121ef565b600060405180830381600087803b158015610cde57600080fd5b505af1158015610cf2573d6000803e3d6000fd5b50505050505b80806001900391505061072d565b506000600560019054906101000a900473ffffffffffffffffffffffffffffffffffffffff1673ffffffffffffffffffffffffffffffffffffffff1663252c7ffb600660009054906101000a900473ffffffffffffffffffffffffffffffffffffffff1673ffffffffffffffffffffffffffffffffffffffff16639b6b5b66876040518263ffffffff1660e01b8152600401610da291906121d4565b60206040518083038186803b158015610dba57600080fd5b505afa158015610dce573d6000803e3d6000fd5b505050506040513d601f19601f82011682018060405250810190610df29190611c76565b6040518263ffffffff1660e01b8152600401610e0e91906121d4565b60206040518083038186803b158015610e2657600080fd5b505afa158015610e3a573d6000803e3d6000fd5b505050506040513d601f19601f82011682018060405250810190610e5e9190611c76565b905081810286019550505050505b80806001019150506104e3565b5060008111610ebd576040517f08c379a0000000000000000000000000000000000000000000000000000000008152600401610eb490612134565b60405180910390fd5b610ec733826115a7565b7fee1d22c56adf8004e20c2c8046f654eadde31bf648109f0253c823879220f8073382604051610ef892919061201d565b60405180910390a15050565b6000600254905090565b6000610f1b84848461173b565b610fdc84610f276113d4565b610fd78560405180606001604052806028815260200161246260289139600160008b73ffffffffffffffffffffffffffffffffffffffff1673ffffffffffffffffffffffffffffffffffffffff1681526020019081526020016000206000610f8d6113d4565b73ffffffffffffffffffffffffffffffffffffffff1673ffffffffffffffffffffffffffffffffffffffff168152602001908152602001600020546119d09092919063ffffffff16565b6113dc565b600190509392505050565b6000600560009054906101000a900460ff16905090565b60006110a761100b6113d4565b846110a2856001600061101c6113d4565b73ffffffffffffffffffffffffffffffffffffffff1673ffffffffffffffffffffffffffffffffffffffff16815260200190815260200160002060008973ffffffffffffffffffffffffffffffffffffffff1673ffffffffffffffffffffffffffffffffffffffff1681526020019081526020016000205461137f90919063ffffffff16565b6113dc565b6001905092915050565b600660009054906101000a900473ffffffffffffffffffffffffffffffffffffffff1681565b60008060008373ffffffffffffffffffffffffffffffffffffffff1673ffffffffffffffffffffffffffffffffffffffff168152602001908152602001600020549050919050565b600560019054906101000a900473ffffffffffffffffffffffffffffffffffffffff1681565b606060048054600181600116156101000203166002900480601f0160208091040260200160405190810160405280929190818152602001828054600181600116156101000203166002900480156111dd5780601f106111b2576101008083540402835291602001916111dd565b820191906000526020600020905b8154815290600101906020018083116111c057829003601f168201915b5050505050905090565b600760009054906101000a900473ffffffffffffffffffffffffffffffffffffffff1681565b60006112d061121a6113d4565b846112cb8560405180606001604052806025815260200161248a60259139600160006112446113d4565b73ffffffffffffffffffffffffffffffffffffffff1673ffffffffffffffffffffffffffffffffffffffff16815260200190815260200160002060008a73ffffffffffffffffffffffffffffffffffffffff1673ffffffffffffffffffffffffffffffffffffffff168152602001908152602001600020546119d09092919063ffffffff16565b6113dc565b6001905092915050565b60006112ee6112e76113d4565b848461173b565b6001905092915050565b6000600160008473ffffffffffffffffffffffffffffffffffffffff1673ffffffffffffffffffffffffffffffffffffffff16815260200190815260200160002060008373ffffffffffffffffffffffffffffffffffffffff1673ffffffffffffffffffffffffffffffffffffffff16815260200190815260200160002054905092915050565b6000808284019050838110156113ca576040517f08c379a00000000000000000000000000000000000000000000000000000000081526004016113c190612114565b60405180910390fd5b8091505092915050565b600033905090565b600073ffffffffffffffffffffffffffffffffffffffff168373ffffffffffffffffffffffffffffffffffffffff16141561144c576040517f08c379a000000000000000000000000000000000000000000000000000000000815260040161144390612194565b60405180910390fd5b600073ffffffffffffffffffffffffffffffffffffffff168273ffffffffffffffffffffffffffffffffffffffff1614156114bc576040517f08c379a00000000000000000000000000000000000000000000000000000000081526004016114b3906120f4565b60405180910390fd5b80600160008573ffffffffffffffffffffffffffffffffffffffff1673ffffffffffffffffffffffffffffffffffffffff16815260200190815260200160002060008473ffffffffffffffffffffffffffffffffffffffff1673ffffffffffffffffffffffffffffffffffffffff168152602001908152602001600020819055508173ffffffffffffffffffffffffffffffffffffffff168373ffffffffffffffffffffffffffffffffffffffff167f8c5be1e5ebec7d5bd14f71427d1e84f3dd0314c0f7b2291e5b200ac8c7c3b9258360405161159a91906121d4565b60405180910390a3505050565b600073ffffffffffffffffffffffffffffffffffffffff168273ffffffffffffffffffffffffffffffffffffffff161415611617576040517f08c379a000000000000000000000000000000000000000000000000000000000815260040161160e906121b4565b60405180910390fd5b61162360008383611a2b565b6116388160025461137f90919063ffffffff16565b60028190555061168f816000808573ffffffffffffffffffffffffffffffffffffffff1673ffffffffffffffffffffffffffffffffffffffff1681526020019081526020016000205461137f90919063ffffffff16565b6000808473ffffffffffffffffffffffffffffffffffffffff1673ffffffffffffffffffffffffffffffffffffffff168152602001908152602001600020819055508173ffffffffffffffffffffffffffffffffffffffff16600073ffffffffffffffffffffffffffffffffffffffff167fddf252ad1be2c89b69c2b068fc378daa952ba7f163c4a11628f55a4df523b3ef8360405161172f91906121d4565b60405180910390a35050565b600073ffffffffffffffffffffffffffffffffffffffff168373ffffffffffffffffffffffffffffffffffffffff1614156117ab576040517f08c379a00000000000000000000000000000000000000000000000000000000081526004016117a290612174565b60405180910390fd5b600073ffffffffffffffffffffffffffffffffffffffff168273ffffffffffffffffffffffffffffffffffffffff16141561181b576040517f08c379a0000000000000000000000000000000000000000000000000000000008152600401611812906120d4565b60405180910390fd5b611826838383611a2b565b6118918160405180606001604052806026815260200161243c602691396000808773ffffffffffffffffffffffffffffffffffffffff1673ffffffffffffffffffffffffffffffffffffffff168152602001908152602001600020546119d09092919063ffffffff16565b6000808573ffffffffffffffffffffffffffffffffffffffff1673ffffffffffffffffffffffffffffffffffffffff16815260200190815260200160002081905550611924816000808573ffffffffffffffffffffffffffffffffffffffff1673ffffffffffffffffffffffffffffffffffffffff1681526020019081526020016000205461137f90919063ffffffff16565b6000808473ffffffffffffffffffffffffffffffffffffffff1673ffffffffffffffffffffffffffffffffffffffff168152602001908152602001600020819055508173ffffffffffffffffffffffffffffffffffffffff168373ffffffffffffffffffffffffffffffffffffffff167fddf252ad1be2c89b69c2b068fc378daa952ba7f163c4a11628f55a4df523b3ef836040516119c391906121d4565b60405180910390a3505050565b6000838311158290611a18576040517f08c379a0000000000000000000000000000000000000000000000000000000008152600401611a0f91906120b2565b60405180910390fd5b5060008385039050809150509392505050565b505050565b600081359050611a3f816123df565b92915050565b600082601f830112611a5657600080fd5b8151611a69611a6482612260565b612233565b91508181835260208401935060208101905083856020840282011115611a8e57600080fd5b60005b83811015611abe5781611aa48882611af2565b845260208401935060208301925050600181019050611a91565b5050505092915050565b600081519050611ad7816123f6565b92915050565b600081359050611aec8161240d565b92915050565b600081519050611b018161240d565b92915050565b600081519050611b1681612424565b92915050565b600060208284031215611b2e57600080fd5b6000611b3c84828501611a30565b91505092915050565b60008060408385031215611b5857600080fd5b6000611b6685828601611a30565b9250506020611b7785828601611a30565b9150509250929050565b600080600060608486031215611b9657600080fd5b6000611ba486828701611a30565b9350506020611bb586828701611a30565b9250506040611bc686828701611add565b9150509250925092565b60008060408385031215611be357600080fd5b6000611bf185828601611a30565b9250506020611c0285828601611add565b9150509250929050565b600060208284031215611c1e57600080fd5b600082015167ffffffffffffffff811115611c3857600080fd5b611c4484828501611a45565b91505092915050565b600060208284031215611c5f57600080fd5b6000611c6d84828501611ac8565b91505092915050565b600060208284031215611c8857600080fd5b6000611c9684828501611af2565b91505092915050565b600060208284031215611cb157600080fd5b6000611cbf84828501611b07565b91505092915050565b611cd1816122f9565b82525050565b611ce0816122b6565b82525050565b611cef8161230b565b82525050565b611cfe8161232f565b82525050565b611d0d81612353565b82525050565b6000611d1e82612288565b611d288185612293565b9350611d3881856020860161239b565b611d41816123ce565b840191505092915050565b6000611d59602383612293565b91507f45524332303a207472616e7366657220746f20746865207a65726f206164647260008301527f65737300000000000000000000000000000000000000000000000000000000006020830152604082019050919050565b6000611dbf602283612293565b91507f45524332303a20617070726f766520746f20746865207a65726f20616464726560008301527f73730000000000000000000000000000000000000000000000000000000000006020830152604082019050919050565b6000611e25601b83612293565b91507f536166654d6174683a206164646974696f6e206f766572666c6f7700000000006000830152602082019050919050565b6000611e65601283612293565b91507f4d696e7461626c654f32206973207a65726f00000000000000000000000000006000830152602082019050919050565b6000611ea5601883612293565b91507f4f776e6572207472656520636f756e74206973207a65726f00000000000000006000830152602082019050919050565b6000611ee5602583612293565b91507f45524332303a207472616e736665722066726f6d20746865207a65726f20616460008301527f64726573730000000000000000000000000000000000000000000000000000006020830152604082019050919050565b6000611f4b602483612293565b91507f45524332303a20617070726f76652066726f6d20746865207a65726f2061646460008301527f72657373000000000000000000000000000000000000000000000000000000006020830152604082019050919050565b6000611fb1601f83612293565b91507f45524332303a206d696e7420746f20746865207a65726f2061646472657373006000830152602082019050919050565b611fed816122e2565b82525050565b611ffc816122ec565b82525050565b60006020820190506120176000830184611cc8565b92915050565b60006040820190506120326000830185611cc8565b61203f6020830184611fe4565b9392505050565b600060208201905061205b6000830184611cd7565b92915050565b60006020820190506120766000830184611ce6565b92915050565b60006020820190506120916000830184611cf5565b92915050565b60006020820190506120ac6000830184611d04565b92915050565b600060208201905081810360008301526120cc8184611d13565b905092915050565b600060208201905081810360008301526120ed81611d4c565b9050919050565b6000602082019050818103600083015261210d81611db2565b9050919050565b6000602082019050818103600083015261212d81611e18565b9050919050565b6000602082019050818103600083015261214d81611e58565b9050919050565b6000602082019050818103600083015261216d81611e98565b9050919050565b6000602082019050818103600083015261218d81611ed8565b9050919050565b600060208201905081810360008301526121ad81611f3e565b9050919050565b600060208201905081810360008301526121cd81611fa4565b9050919050565b60006020820190506121e96000830184611fe4565b92915050565b60006040820190506122046000830185611fe4565b6122116020830184611cd7565b9392505050565b600060208201905061222d6000830184611ff3565b92915050565b6000604051905081810181811067ffffffffffffffff8211171561225657600080fd5b8060405250919050565b600067ffffffffffffffff82111561227757600080fd5b602082029050602081019050919050565b600081519050919050565b600082825260208201905092915050565b60006122af826122c2565b9050919050565b60008115159050919050565b600073ffffffffffffffffffffffffffffffffffffffff82169050919050565b6000819050919050565b600060ff82169050919050565b600061230482612377565b9050919050565b60006123168261231d565b9050919050565b6000612328826122c2565b9050919050565b600061233a82612341565b9050919050565b600061234c826122c2565b9050919050565b600061235e82612365565b9050919050565b6000612370826122c2565b9050919050565b600061238282612389565b9050919050565b6000612394826122c2565b9050919050565b60005b838110156123b957808201518184015260208101905061239e565b838111156123c8576000848401525b50505050565b6000601f19601f8301169050919050565b6123e8816122a4565b81146123f357600080fd5b50565b6123ff816122b6565b811461240a57600080fd5b50565b612416816122e2565b811461242157600080fd5b50565b61242d816122ec565b811461243857600080fd5b5056fe45524332303a207472616e7366657220616d6f756e7420657863656564732062616c616e636545524332303a207472616e7366657220616d6f756e74206578636565647320616c6c6f77616e636545524332303a2064656372656173656420616c6c6f77616e63652062656c6f77207a65726fa264697066735822122093e130008ca14097984ebbfd19822bf86db8f67c774fa65e5ef5ccc44ada5a6d64736f6c63430006090033",
  "source": "// SPDX-License-Identifier: GPL-3.0\n\npragma solidity >=0.4.21 <0.7.0;\npragma experimental ABIEncoderV2;\n\nimport \"../../node_modules/@openzeppelin/contracts/token/ERC20/ERC20.sol\";\n\nimport \"../tree/TreeFactory.sol\";\nimport \"../tree/UpdateFactory.sol\";\nimport \"../tree/TreeType.sol\";\n\ncontract O2Factory is ERC20 {\n    TreeType public treeType;\n    TreeFactory public treeFactory;\n    UpdateFactory public updateFactory;\n\n    constructor(\n        TreeType _typeAddress,\n        TreeFactory _treeFactoryAddress,\n        UpdateFactory _updateFactoryAddress\n    ) public ERC20(\"Oxygen\", \"O2\") {\n        treeType = _typeAddress;\n        treeFactory = _treeFactoryAddress;\n        updateFactory = _updateFactoryAddress;\n        _mint(msg.sender, 0);\n    }\n\n    event O2Minted(address owner, uint256 totalO2);\n\n    //@todo permission must check\n    function mint() external  {\n\n        uint256 ownerTreesCount = treeFactory.ownerTreesCount(msg.sender);\n\n        require(\n            ownerTreesCount > 0,\n            \"Owner tree count is zero\"\n        );\n\n        uint256 mintableO2 = 0;\n\n        for (\n            uint256 i = 0;\n            i < ownerTreesCount;\n            i++\n        ) {\n            uint256 treeId = treeFactory.tokenOfOwnerByIndex(msg.sender, i);\n            uint256[] memory treeUpdates = updateFactory.getTreeUpdates(treeId);\n            uint256 totalSeconds = 0;\n\n            if (treeUpdates.length == 0) {\n                continue;\n            }\n\n            if (updateFactory.isTreeLastUpdateMinted(treeId) == true) {\n                continue;\n            }\n\n            for (uint256 j = treeUpdates.length; j > 0; j--) {\n                uint256 jUpdateId = treeUpdates[j - 1];\n\n                if (updateFactory.getStatus(jUpdateId) != 1) {\n                    continue;\n                }\n\n                if (updateFactory.isMinted(jUpdateId) == true) {\n                    continue;\n                }\n\n                if (j > 1) {\n                    uint256 jMinusUpdateId = treeUpdates[j - 2];\n\n                    if (updateFactory.getStatus(jMinusUpdateId) != 1) {\n                        continue;\n                    }\n\n                    totalSeconds =\n                        totalSeconds +\n                        updateFactory.getUpdateDate(jUpdateId) -\n                        updateFactory.getUpdateDate(jMinusUpdateId);\n                } else {\n                    totalSeconds =\n                        totalSeconds +\n                        updateFactory.getUpdateDate(jUpdateId) -\n                        treeFactory.getPlantedDate(treeId);\n                }\n\n                updateFactory.setMinted(jUpdateId, true);\n            }\n\n            uint256 o2Formula = treeType.getO2Formula(\n                treeFactory.getTypeId(treeId)\n            );\n\n            mintableO2 = mintableO2 + o2Formula * totalSeconds;\n        }\n\n        require(mintableO2 > 0, \"MintableO2 is zero\");\n\n        _mint(msg.sender, mintableO2);\n\n        emit O2Minted(msg.sender, mintableO2);\n    }\n}\n",
  "sourcePath": "/home/amir/Projects/treejer/contract/contracts/o2/O2Factory.sol",
  "compiler": {
    "name": "solc",
    "version": "0.6.9+commit.3e3065ac.Emscripten.clang"
  },
  "schemaVersion": "3.0.22",
  "updatedAt": "2020-08-02T13:58:19.512Z",
  "networkType": "ethereum",
  "devdoc": {
    "methods": {
      "allowance(address,address)": {
        "details": "See {IERC20-allowance}."
      },
      "approve(address,uint256)": {
        "details": "See {IERC20-approve}. Requirements: - `spender` cannot be the zero address."
      },
      "balanceOf(address)": {
        "details": "See {IERC20-balanceOf}."
      },
      "decimals()": {
        "details": "Returns the number of decimals used to get its user representation. For example, if `decimals` equals `2`, a balance of `505` tokens should be displayed to a user as `5,05` (`505 / 10 ** 2`). Tokens usually opt for a value of 18, imitating the relationship between Ether and Wei. This is the value {ERC20} uses, unless {_setupDecimals} is called. NOTE: This information is only used for _display_ purposes: it in no way affects any of the arithmetic of the contract, including {IERC20-balanceOf} and {IERC20-transfer}."
      },
      "decreaseAllowance(address,uint256)": {
        "details": "Atomically decreases the allowance granted to `spender` by the caller. This is an alternative to {approve} that can be used as a mitigation for problems described in {IERC20-approve}. Emits an {Approval} event indicating the updated allowance. Requirements: - `spender` cannot be the zero address. - `spender` must have allowance for the caller of at least `subtractedValue`."
      },
      "increaseAllowance(address,uint256)": {
        "details": "Atomically increases the allowance granted to `spender` by the caller. This is an alternative to {approve} that can be used as a mitigation for problems described in {IERC20-approve}. Emits an {Approval} event indicating the updated allowance. Requirements: - `spender` cannot be the zero address."
      },
      "name()": {
        "details": "Returns the name of the token."
      },
      "symbol()": {
        "details": "Returns the symbol of the token, usually a shorter version of the name."
      },
      "totalSupply()": {
        "details": "See {IERC20-totalSupply}."
      },
      "transfer(address,uint256)": {
        "details": "See {IERC20-transfer}. Requirements: - `recipient` cannot be the zero address. - the caller must have a balance of at least `amount`."
      },
      "transferFrom(address,address,uint256)": {
        "details": "See {IERC20-transferFrom}. Emits an {Approval} event indicating the updated allowance. This is not required by the EIP. See the note at the beginning of {ERC20}; Requirements: - `sender` and `recipient` cannot be the zero address. - `sender` must have a balance of at least `amount`. - the caller must have allowance for ``sender``'s tokens of at least `amount`."
      }
    }
  },
  "userdoc": {
    "methods": {}
  }
}