{
  "contractName": "PlanterFund",
  "abi": [
    {
      "anonymous": false,
      "inputs": [
        {
          "indexed": false,
          "internalType": "uint256",
          "name": "amount",
          "type": "uint256"
        },
        {
          "indexed": false,
          "internalType": "address",
          "name": "account",
          "type": "address"
        }
      ],
      "name": "PlanterBalanceWithdrawn",
      "type": "event"
    },
    {
      "anonymous": false,
      "inputs": [
        {
          "indexed": false,
          "internalType": "uint256",
          "name": "treeId",
          "type": "uint256"
        },
        {
          "indexed": false,
          "internalType": "uint256",
          "name": "planterAmount",
          "type": "uint256"
        },
        {
          "indexed": false,
          "internalType": "uint256",
          "name": "referralAmount",
          "type": "uint256"
        }
      ],
      "name": "PlanterFundSet",
      "type": "event"
    },
    {
      "anonymous": false,
      "inputs": [
        {
          "indexed": false,
          "internalType": "uint256",
          "name": "treeId",
          "type": "uint256"
        },
        {
          "indexed": false,
          "internalType": "address",
          "name": "planterId",
          "type": "address"
        },
        {
          "indexed": false,
          "internalType": "uint256",
          "name": "amount",
          "type": "uint256"
        }
      ],
      "name": "PlanterFunded",
      "type": "event"
    },
    {
      "inputs": [],
      "name": "accessRestriction",
      "outputs": [
        {
          "internalType": "contract IAccessRestriction",
          "name": "",
          "type": "address"
        }
      ],
      "stateMutability": "view",
      "type": "function",
      "constant": true
    },
    {
      "inputs": [
        {
          "internalType": "address",
          "name": "",
          "type": "address"
        }
      ],
      "name": "balances",
      "outputs": [
        {
          "internalType": "uint256",
          "name": "",
          "type": "uint256"
        }
      ],
      "stateMutability": "view",
      "type": "function",
      "constant": true
    },
    {
      "inputs": [],
      "name": "daiToken",
      "outputs": [
        {
          "internalType": "contract IERC20Upgradeable",
          "name": "",
          "type": "address"
        }
      ],
      "stateMutability": "view",
      "type": "function",
      "constant": true
    },
    {
      "inputs": [],
      "name": "isPlanterFund",
      "outputs": [
        {
          "internalType": "bool",
          "name": "",
          "type": "bool"
        }
      ],
      "stateMutability": "view",
      "type": "function",
      "constant": true
    },
    {
      "inputs": [
        {
          "internalType": "address",
          "name": "forwarder",
          "type": "address"
        }
      ],
      "name": "isTrustedForwarder",
      "outputs": [
        {
          "internalType": "bool",
          "name": "",
          "type": "bool"
        }
      ],
      "stateMutability": "view",
      "type": "function",
      "constant": true
    },
    {
      "inputs": [],
      "name": "planterContract",
      "outputs": [
        {
          "internalType": "contract IPlanter",
          "name": "",
          "type": "address"
        }
      ],
      "stateMutability": "view",
      "type": "function",
      "constant": true
    },
    {
      "inputs": [
        {
          "internalType": "uint256",
          "name": "",
          "type": "uint256"
        }
      ],
      "name": "planterFunds",
      "outputs": [
        {
          "internalType": "uint256",
          "name": "",
          "type": "uint256"
        }
      ],
      "stateMutability": "view",
      "type": "function",
      "constant": true
    },
    {
      "inputs": [
        {
          "internalType": "uint256",
          "name": "",
          "type": "uint256"
        }
      ],
      "name": "plantersPaid",
      "outputs": [
        {
          "internalType": "uint256",
          "name": "",
          "type": "uint256"
        }
      ],
      "stateMutability": "view",
      "type": "function",
      "constant": true
    },
    {
      "inputs": [
        {
          "internalType": "uint256",
          "name": "",
          "type": "uint256"
        }
      ],
      "name": "referralFunds",
      "outputs": [
        {
          "internalType": "uint256",
          "name": "",
          "type": "uint256"
        }
      ],
      "stateMutability": "view",
      "type": "function",
      "constant": true
    },
    {
      "inputs": [],
      "name": "totalFunds",
      "outputs": [
        {
          "internalType": "uint256",
          "name": "planterFund",
          "type": "uint256"
        },
        {
          "internalType": "uint256",
          "name": "referralFund",
          "type": "uint256"
        },
        {
          "internalType": "uint256",
          "name": "localDevelop",
          "type": "uint256"
        }
      ],
      "stateMutability": "view",
      "type": "function",
      "constant": true
    },
    {
      "inputs": [],
      "name": "trustedForwarder",
      "outputs": [
        {
          "internalType": "address",
          "name": "",
          "type": "address"
        }
      ],
      "stateMutability": "view",
      "type": "function",
      "constant": true
    },
    {
      "inputs": [],
      "name": "versionRecipient",
      "outputs": [
        {
          "internalType": "string",
          "name": "",
          "type": "string"
        }
      ],
      "stateMutability": "pure",
      "type": "function",
      "constant": true
    },
    {
      "inputs": [
        {
          "internalType": "address",
          "name": "_accessRestrictionAddress",
          "type": "address"
        }
      ],
      "name": "initialize",
      "outputs": [],
      "stateMutability": "nonpayable",
      "type": "function"
    },
    {
      "inputs": [
        {
          "internalType": "address",
          "name": "_address",
          "type": "address"
        }
      ],
      "name": "setTrustedForwarder",
      "outputs": [],
      "stateMutability": "nonpayable",
      "type": "function"
    },
    {
      "inputs": [
        {
          "internalType": "address",
          "name": "_address",
          "type": "address"
        }
      ],
      "name": "setPlanterContractAddress",
      "outputs": [],
      "stateMutability": "nonpayable",
      "type": "function"
    },
    {
      "inputs": [
        {
          "internalType": "address",
          "name": "_address",
          "type": "address"
        }
      ],
      "name": "setDaiTokenAddress",
      "outputs": [],
      "stateMutability": "nonpayable",
      "type": "function"
    },
    {
      "inputs": [
        {
          "internalType": "uint256",
          "name": "_treeId",
          "type": "uint256"
        },
        {
          "internalType": "uint256",
          "name": "_planterFund",
          "type": "uint256"
        },
        {
          "internalType": "uint256",
          "name": "_referralFund",
          "type": "uint256"
        }
      ],
      "name": "setPlanterFunds",
      "outputs": [],
      "stateMutability": "nonpayable",
      "type": "function"
    },
    {
      "inputs": [
        {
          "internalType": "uint256",
          "name": "_treeId",
          "type": "uint256"
        },
        {
          "internalType": "address",
          "name": "_planterId",
          "type": "address"
        },
        {
          "internalType": "uint64",
          "name": "_treeStatus",
          "type": "uint64"
        }
      ],
      "name": "fundPlanter",
      "outputs": [],
      "stateMutability": "nonpayable",
      "type": "function"
    },
    {
      "inputs": [
        {
          "internalType": "uint256",
          "name": "_amount",
          "type": "uint256"
        }
      ],
      "name": "withdrawPlanterBalance",
      "outputs": [],
      "stateMutability": "nonpayable",
      "type": "function"
    }
  ],
  "bytecode": "0x608060405234801561001057600080fd5b50611076806100206000396000f3fe608060405234801561001057600080fd5b50600436106101215760003560e01c8063a305cdee116100ad578063da74222811610071578063da742228146102f6578063eec2a20314610309578063f1326b151461031c578063f4ee266c1461032f578063fa9ee5031461034f57600080fd5b8063a305cdee1461028a578063be22f5461461029d578063c4d66de8146102b0578063d49fa06b146102c3578063d6762c4a146102e357600080fd5b806341ceea17116100f457806341ceea17146101bd578063486ff0cd146101dd578063572b6c051461021c5780637da0a87714610244578063968ed6001461025d57600080fd5b806327e235e314610126578063349904da14610159578063375b42701461017d5780633ad7c33b146101a8575b600080fd5b610146610134366004610e2a565b600a6020526000908152604090205481565b6040519081526020015b60405180910390f35b60005461016d90600160b01b900460ff1681565b6040519015158152602001610150565b600254610190906001600160a01b031681565b6040516001600160a01b039091168152602001610150565b6101bb6101b6366004610f21565b610362565b005b6101466101cb366004610eb9565b60076020526000908152604090205481565b604080518082018252601d81527f322e322e302b747265656a65722e6972656c6179726563697069656e74000000602082015290516101509190610f4d565b61016d61022a366004610e2a565b6000546201000090046001600160a01b0390811691161490565b600054610190906201000090046001600160a01b031681565b60045460055460065461026f92919083565b60408051938452602084019290925290820152606001610150565b6101bb610298366004610ed2565b610469565b600354610190906001600160a01b031681565b6101bb6102be366004610e2a565b610828565b6101466102d1366004610eb9565b60086020526000908152604090205481565b600154610190906001600160a01b031681565b6101bb610304366004610e2a565b61098f565b6101bb610317366004610eb9565b610a2a565b6101bb61032a366004610e2a565b610c36565b61014661033d366004610eb9565b60096020526000908152604090205481565b6101bb61035d366004610e2a565b610cc9565b6001546001600160a01b0316637690d38261037b610ddb565b6040516001600160e01b031960e084901b1681526001600160a01b03909116600482015260240160006040518083038186803b1580156103ba57600080fd5b505afa1580156103ce573d6000803e3d6000fd5b50505060008481526007602090815260408083208690556008909152812083905560048054859350909190610404908490610fa2565b90915550506005805482919060009061041e908490610fa2565b909155505060408051848152602081018490529081018290527f91cb2b90dd382c925b55f1de5ee5e1a6857556cea6fc7259a161bb7e68a865de9060600160405180910390a1505050565b6001546001600160a01b031663d26c31f0610482610ddb565b6040516001600160e01b031960e084901b1681526001600160a01b03909116600482015260240160006040518083038186803b1580156104c157600080fd5b505afa1580156104d5573d6000803e3d6000fd5b505050600084815260076020526040902054151590506105355760405162461bcd60e51b81526020600482015260166024820152751c1b185b9d195c88199d5b99081b9bdd08195e1a5cdd60521b60448201526064015b60405180910390fd5b600254604051632293869960e21b81526001600160a01b0384811660048301526000928392839283921690638a4e1a649060240160806040518083038186803b15801561058157600080fd5b505afa158015610595573d6000803e3d6000fd5b505050506040513d601f19601f820116820180604052508101906105b99190610e69565b9350935093509350831561081f5760006165408667ffffffffffffffff161115610609576000888152600960209081526040808320546007909252909120546106029190610ffb565b9050610654565b6000888152600960209081526040808320546007909252909120546165409061063d9067ffffffffffffffff8a1690610fdc565b6106479190610fba565b6106519190610ffb565b90505b801561081d57600088815260076020908152604080832054600890925282205461067f908490610fdc565b6106899190610fba565b905080600460010160008282546106a09190610ffb565b90915550506001600160a01b0384166106d35780600460020160008282546106c89190610fa2565b909155506107019050565b6001600160a01b0384166000908152600a6020526040812080548392906106fb908490610fa2565b90915550505b81600460000160008282546107169190610ffb565b9091555061271090508061072a8582610ffb565b6107349085610fdc565b61073e9190610fba565b6001600160a01b0387166000908152600a602052604081208054909190610766908490610fa2565b909155505060008a81526009602052604081208054859290610789908490610fa2565b9091555081905061079a8585610fdc565b6107a49190610fba565b6001600160a01b038a166000908152600a6020526040812080549091906107cc908490610fa2565b9091555050604080518b81526001600160a01b038b1660208201529081018490527f3f6d99598b083c21a3be6109f92576af05ed04b2f6adb69e7fdba837587d0a249060600160405180910390a150505b505b50505050505050565b600054610100900460ff1680610841575060005460ff16155b6108a45760405162461bcd60e51b815260206004820152602e60248201527f496e697469616c697a61626c653a20636f6e747261637420697320616c72656160448201526d191e481a5b9a5d1a585b1a5e995960921b606482015260840161052c565b600054610100900460ff161580156108c6576000805461ffff19166101011790555b6000829050806001600160a01b031663ba84fd696040518163ffffffff1660e01b815260040160206040518083038186803b15801561090457600080fd5b505afa158015610918573d6000803e3d6000fd5b505050506040513d601f19601f8201168201806040525081019061093c9190610e4e565b61094557600080fd5b6000805460ff60b01b1916600160b01b179055600180546001600160a01b039092166001600160a01b0319909216919091179055801561098b576000805461ff00191690555b5050565b6001546001600160a01b0316638413ec146109a8610ddb565b6040516001600160e01b031960e084901b1681526001600160a01b03909116600482015260240160006040518083038186803b1580156109e757600080fd5b505afa1580156109fb573d6000803e3d6000fd5b5050600080546001600160a01b03909416620100000262010000600160b01b0319909416939093179092555050565b600160009054906101000a90046001600160a01b03166001600160a01b0316634d868f986040518163ffffffff1660e01b815260040160006040518083038186803b158015610a7857600080fd5b505afa158015610a8c573d6000803e3d6000fd5b50505050600a6000610a9c610ddb565b6001600160a01b03166001600160a01b03168152602001908152602001600020548111158015610acc5750600081115b610b0e5760405162461bcd60e51b81526020600482015260136024820152721a5b9cdd59999a58da595b9d08185b5bdd5b9d606a1b604482015260640161052c565b80600a6000610b1b610ddb565b6001600160a01b03166001600160a01b031681526020019081526020016000206000828254610b4a9190610ffb565b90915550506003546001600160a01b031663a9059cbb610b68610ddb565b6040516001600160e01b031960e084901b1681526001600160a01b03909116600482015260248101849052604401602060405180830381600087803b158015610bb057600080fd5b505af1158015610bc4573d6000803e3d6000fd5b505050506040513d601f19601f82011682018060405250810190610be89190610e4e565b507fb5548ad4dc15f51b16bc62fa1801c6ddb9ab76c808358661dcb78ae1ac37745681610c13610ddb565b604080519283526001600160a01b0390911660208301520160405180910390a150565b6001546001600160a01b0316638413ec14610c4f610ddb565b6040516001600160e01b031960e084901b1681526001600160a01b03909116600482015260240160006040518083038186803b158015610c8e57600080fd5b505afa158015610ca2573d6000803e3d6000fd5b5050600380546001600160a01b0319166001600160a01b0394909416939093179092555050565b6001546001600160a01b0316638413ec14610ce2610ddb565b6040516001600160e01b031960e084901b1681526001600160a01b03909116600482015260240160006040518083038186803b158015610d2157600080fd5b505afa158015610d35573d6000803e3d6000fd5b505050506000819050806001600160a01b03166303dc8deb6040518163ffffffff1660e01b815260040160206040518083038186803b158015610d7757600080fd5b505afa158015610d8b573d6000803e3d6000fd5b505050506040513d601f19601f82011682018060405250810190610daf9190610e4e565b610db857600080fd5b600280546001600160a01b0319166001600160a01b039290921691909117905550565b600060143610801590610dfe57506000546201000090046001600160a01b031633145b15610e10575060131936013560601c90565b503390565b80518015158114610e2557600080fd5b919050565b600060208284031215610e3c57600080fd5b8135610e4781611028565b9392505050565b600060208284031215610e6057600080fd5b610e4782610e15565b60008060008060808587031215610e7f57600080fd5b610e8885610e15565b93506020850151610e9881611028565b6040860151909350610ea981611028565b6060959095015193969295505050565b600060208284031215610ecb57600080fd5b5035919050565b600080600060608486031215610ee757600080fd5b833592506020840135610ef981611028565b9150604084013567ffffffffffffffff81168114610f1657600080fd5b809150509250925092565b600080600060608486031215610f3657600080fd5b505081359360208301359350604090920135919050565b600060208083528351808285015260005b81811015610f7a57858101830151858201604001528201610f5e565b81811115610f8c576000604083870101525b50601f01601f1916929092016040019392505050565b60008219821115610fb557610fb5611012565b500190565b600082610fd757634e487b7160e01b600052601260045260246000fd5b500490565b6000816000190483118215151615610ff657610ff6611012565b500290565b60008282101561100d5761100d611012565b500390565b634e487b7160e01b600052601160045260246000fd5b6001600160a01b038116811461103d57600080fd5b5056fea264697066735822122022d12885a0e35cdfc937e4a697ba5471260e64f58c6eb006f85624db9b49caaa64736f6c63430008060033",
  "immutableReferences": {},
  "source": "// SPDX-License-Identifier: MIT\n\npragma solidity ^0.8.6;\n\nimport \"@openzeppelin/contracts-upgradeable/utils/CountersUpgradeable.sol\";\nimport \"@openzeppelin/contracts-upgradeable/proxy/utils/Initializable.sol\";\nimport \"@openzeppelin/contracts-upgradeable/token/ERC20/IERC20Upgradeable.sol\";\n\nimport \"../access/IAccessRestriction.sol\";\nimport \"../planter/IPlanter.sol\";\nimport \"../gsn/RelayRecipient.sol\";\n\n/** @title PlanterFund Contract */\n\ncontract PlanterFund is Initializable, RelayRecipient {\n    bool public isPlanterFund;\n\n    IAccessRestriction public accessRestriction;\n    IPlanter public planterContract;\n    IERC20Upgradeable public daiToken;\n\n    struct TotalFunds {\n        uint256 planterFund;\n        uint256 referralFund;\n        uint256 localDevelop;\n    }\n\n    TotalFunds public totalFunds;\n\n    mapping(uint256 => uint256) public planterFunds;\n    mapping(uint256 => uint256) public referralFunds;\n    mapping(uint256 => uint256) public plantersPaid;\n    mapping(address => uint256) public balances;\n\n    event PlanterFunded(uint256 treeId, address planterId, uint256 amount);\n    event PlanterBalanceWithdrawn(uint256 amount, address account);\n    event PlanterFundSet(\n        uint256 treeId,\n        uint256 planterAmount,\n        uint256 referralAmount\n    );\n\n    modifier onlyAdmin() {\n        accessRestriction.ifAdmin(_msgSender());\n        _;\n    }\n    modifier ifNotPaused() {\n        accessRestriction.ifNotPaused();\n        _;\n    }\n\n    modifier onlyTreeFactory() {\n        accessRestriction.ifTreeFactory(_msgSender());\n        _;\n    }\n\n    modifier onlyFundsOrCommunityGifts() {\n        accessRestriction.ifFundsOrCommunityGifts(_msgSender());\n        _;\n    }\n\n    function initialize(address _accessRestrictionAddress) public initializer {\n        IAccessRestriction candidateContract = IAccessRestriction(\n            _accessRestrictionAddress\n        );\n\n        require(candidateContract.isAccessRestriction());\n\n        isPlanterFund = true;\n        accessRestriction = candidateContract;\n    }\n\n    /**\n     * @dev set trusted forwarder address\n     * @param _address set to {trustedForwarder}\n     */\n    function setTrustedForwarder(address _address) external onlyAdmin {\n        trustedForwarder = _address;\n    }\n\n    /**\n     * @dev admin set planter contract address\n     * @param _address set to the address of planter contract\n     */\n    function setPlanterContractAddress(address _address) external onlyAdmin {\n        IPlanter candidateContract = IPlanter(_address);\n        require(candidateContract.isPlanter());\n        planterContract = candidateContract;\n    }\n\n    function setDaiTokenAddress(address _address) external {\n        accessRestriction.ifAdmin(_msgSender());\n        IERC20Upgradeable candidateContract = IERC20Upgradeable(_address);\n        daiToken = candidateContract;\n    }\n\n    function setPlanterFunds(\n        uint256 _treeId,\n        uint256 _planterFund,\n        uint256 _referralFund\n    ) external onlyFundsOrCommunityGifts {\n        planterFunds[_treeId] = _planterFund;\n        referralFunds[_treeId] = _referralFund;\n\n        totalFunds.planterFund += _planterFund;\n        totalFunds.referralFund += _referralFund;\n\n        emit PlanterFundSet(_treeId, _planterFund, _referralFund);\n    }\n\n    /**\n     * @dev based on the treeStatus planter charged in every tree update verifying\n     *\n     * @param _treeId id of a tree to fund\n     * @param _planterId  address of planter to fund\n     * @param _treeStatus status of tree\n     */\n\n    function fundPlanter(\n        uint256 _treeId,\n        address _planterId,\n        uint64 _treeStatus\n    ) external onlyTreeFactory {\n        require(planterFunds[_treeId] > 0, \"planter fund not exist\");\n\n        (\n            bool getBool,\n            address gottenOrganizationAddress,\n            address gottenReferralAddress,\n            uint256 gottenPortion\n        ) = planterContract.getPlanterPaymentPortion(_planterId);\n\n        if (getBool) {\n            uint256 totalPayablePlanter;\n\n            if (_treeStatus > 25920) {\n                //25920 = 30 * 24 * 36\n\n                totalPayablePlanter =\n                    planterFunds[_treeId] -\n                    plantersPaid[_treeId];\n            } else {\n                totalPayablePlanter =\n                    ((planterFunds[_treeId] * _treeStatus) / 25920) -\n                    plantersPaid[_treeId];\n            }\n\n            if (totalPayablePlanter > 0) {\n                uint256 totalPayableRefferal = (referralFunds[_treeId] *\n                    totalPayablePlanter) / planterFunds[_treeId];\n\n                //referral calculation section\n\n                totalFunds.referralFund -= totalPayableRefferal;\n\n                if (gottenReferralAddress == address(0)) {\n                    totalFunds.localDevelop += totalPayableRefferal;\n                } else {\n                    balances[gottenReferralAddress] += totalPayableRefferal;\n                }\n\n                totalFunds.planterFund -= totalPayablePlanter;\n\n                //Organization calculation section\n                uint256 fullPortion = 10000;\n\n                balances[gottenOrganizationAddress] +=\n                    (totalPayablePlanter * (fullPortion - gottenPortion)) /\n                    fullPortion;\n\n                //planter calculation section\n\n                plantersPaid[_treeId] += totalPayablePlanter;\n\n                balances[_planterId] +=\n                    (totalPayablePlanter * gottenPortion) /\n                    fullPortion;\n\n                emit PlanterFunded(_treeId, _planterId, totalPayablePlanter);\n            }\n        }\n    }\n\n    /**\n     * @dev planter withdraw {_amount} from planter's balances in case of valid {_amount}\n     * and money transfer to planters address (to msgSender())\n     * @param _amount amount to withdraw\n     */\n    function withdrawPlanterBalance(uint256 _amount) external ifNotPaused {\n        require(\n            _amount <= balances[_msgSender()] && _amount > 0,\n            \"insufficient amount\"\n        );\n\n        balances[_msgSender()] -= _amount;\n\n        daiToken.transfer(_msgSender(), _amount);\n\n        emit PlanterBalanceWithdrawn(_amount, _msgSender());\n    }\n}\n",
  "sourcePath": "/home/ali/Desktop/treejer/contract/contracts/treasury/PlanterFund.sol",
  "compiler": {
    "name": "solc",
    "version": "0.8.6+commit.11564f7e.Emscripten.clang"
  },
  "schemaVersion": "3.4.1",
  "updatedAt": "2021-08-13T05:36:08.175Z",
  "networkType": "ethereum",
  "devdoc": {
    "kind": "dev",
    "methods": {
      "fundPlanter(uint256,address,uint64)": {
        "details": "based on the treeStatus planter charged in every tree update verifying",
        "params": {
          "_planterId": "address of planter to fund",
          "_treeId": "id of a tree to fund",
          "_treeStatus": "status of tree"
        }
      },
      "setPlanterContractAddress(address)": {
        "details": "admin set planter contract address",
        "params": {
          "_address": "set to the address of planter contract"
        }
      },
      "setTrustedForwarder(address)": {
        "details": "set trusted forwarder address",
        "params": {
          "_address": "set to {trustedForwarder}"
        }
      },
      "withdrawPlanterBalance(uint256)": {
        "details": "planter withdraw {_amount} from planter's balances in case of valid {_amount} and money transfer to planters address (to msgSender())",
        "params": {
          "_amount": "amount to withdraw"
        }
      }
    },
    "title": "PlanterFund Contract ",
    "version": 1
  },
  "userdoc": {
    "kind": "user",
    "methods": {
      "isTrustedForwarder(address)": {
        "notice": "return if the forwarder is trusted to forward relayed transactions to us. the forwarder is required to verify the sender's signature, and verify the call is not a replay."
      }
    },
    "version": 1
  }
}