{
  "contractName": "Planter",
  "abi": [
    {
      "anonymous": false,
      "inputs": [
        {
          "indexed": false,
          "internalType": "address",
          "name": "planterId",
          "type": "address"
        }
      ],
      "name": "AcceptedByOrganization",
      "type": "event"
    },
    {
      "anonymous": false,
      "inputs": [
        {
          "indexed": false,
          "internalType": "address",
          "name": "organizationId",
          "type": "address"
        }
      ],
      "name": "OrganizationJoin",
      "type": "event"
    },
    {
      "anonymous": false,
      "inputs": [
        {
          "indexed": false,
          "internalType": "address",
          "name": "planterId",
          "type": "address"
        }
      ],
      "name": "PlanterJoin",
      "type": "event"
    },
    {
      "anonymous": false,
      "inputs": [
        {
          "indexed": false,
          "internalType": "address",
          "name": "planterId",
          "type": "address"
        }
      ],
      "name": "PlanterUpdated",
      "type": "event"
    },
    {
      "anonymous": false,
      "inputs": [
        {
          "indexed": false,
          "internalType": "address",
          "name": "planterId",
          "type": "address"
        }
      ],
      "name": "PortionUpdated",
      "type": "event"
    },
    {
      "anonymous": false,
      "inputs": [
        {
          "indexed": false,
          "internalType": "address",
          "name": "planterId",
          "type": "address"
        }
      ],
      "name": "RejectedByOrganization",
      "type": "event"
    },
    {
      "inputs": [],
      "name": "accessRestriction",
      "outputs": [
        {
          "internalType": "contract IAccessRestriction",
          "name": "",
          "type": "address"
        }
      ],
      "stateMutability": "view",
      "type": "function",
      "constant": true
    },
    {
      "inputs": [],
      "name": "isPlanter",
      "outputs": [
        {
          "internalType": "bool",
          "name": "",
          "type": "bool"
        }
      ],
      "stateMutability": "view",
      "type": "function",
      "constant": true
    },
    {
      "inputs": [
        {
          "internalType": "address",
          "name": "forwarder",
          "type": "address"
        }
      ],
      "name": "isTrustedForwarder",
      "outputs": [
        {
          "internalType": "bool",
          "name": "",
          "type": "bool"
        }
      ],
      "stateMutability": "view",
      "type": "function",
      "constant": true
    },
    {
      "inputs": [
        {
          "internalType": "address",
          "name": "",
          "type": "address"
        }
      ],
      "name": "memberOf",
      "outputs": [
        {
          "internalType": "address",
          "name": "",
          "type": "address"
        }
      ],
      "stateMutability": "view",
      "type": "function",
      "constant": true
    },
    {
      "inputs": [
        {
          "internalType": "address",
          "name": "",
          "type": "address"
        },
        {
          "internalType": "address",
          "name": "",
          "type": "address"
        }
      ],
      "name": "organizationRules",
      "outputs": [
        {
          "internalType": "uint256",
          "name": "",
          "type": "uint256"
        }
      ],
      "stateMutability": "view",
      "type": "function",
      "constant": true
    },
    {
      "inputs": [
        {
          "internalType": "address",
          "name": "",
          "type": "address"
        }
      ],
      "name": "planters",
      "outputs": [
        {
          "internalType": "uint8",
          "name": "planterType",
          "type": "uint8"
        },
        {
          "internalType": "uint8",
          "name": "status",
          "type": "uint8"
        },
        {
          "internalType": "uint16",
          "name": "countryCode",
          "type": "uint16"
        },
        {
          "internalType": "uint32",
          "name": "score",
          "type": "uint32"
        },
        {
          "internalType": "uint32",
          "name": "capacity",
          "type": "uint32"
        },
        {
          "internalType": "uint32",
          "name": "plantedCount",
          "type": "uint32"
        },
        {
          "internalType": "uint64",
          "name": "longitude",
          "type": "uint64"
        },
        {
          "internalType": "uint64",
          "name": "latitude",
          "type": "uint64"
        }
      ],
      "stateMutability": "view",
      "type": "function",
      "constant": true
    },
    {
      "inputs": [
        {
          "internalType": "address",
          "name": "",
          "type": "address"
        }
      ],
      "name": "refferedBy",
      "outputs": [
        {
          "internalType": "address",
          "name": "",
          "type": "address"
        }
      ],
      "stateMutability": "view",
      "type": "function",
      "constant": true
    },
    {
      "inputs": [],
      "name": "trustedForwarder",
      "outputs": [
        {
          "internalType": "address",
          "name": "",
          "type": "address"
        }
      ],
      "stateMutability": "view",
      "type": "function",
      "constant": true
    },
    {
      "inputs": [],
      "name": "versionRecipient",
      "outputs": [
        {
          "internalType": "string",
          "name": "",
          "type": "string"
        }
      ],
      "stateMutability": "pure",
      "type": "function",
      "constant": true
    },
    {
      "inputs": [
        {
          "internalType": "address",
          "name": "_accessRestrictionAddress",
          "type": "address"
        }
      ],
      "name": "initialize",
      "outputs": [],
      "stateMutability": "nonpayable",
      "type": "function"
    },
    {
      "inputs": [
        {
          "internalType": "address",
          "name": "_address",
          "type": "address"
        }
      ],
      "name": "setTrustedForwarder",
      "outputs": [],
      "stateMutability": "nonpayable",
      "type": "function"
    },
    {
      "inputs": [
        {
          "internalType": "uint8",
          "name": "_planterType",
          "type": "uint8"
        },
        {
          "internalType": "uint64",
          "name": "_longitude",
          "type": "uint64"
        },
        {
          "internalType": "uint64",
          "name": "_latitude",
          "type": "uint64"
        },
        {
          "internalType": "uint16",
          "name": "_countryCode",
          "type": "uint16"
        },
        {
          "internalType": "address",
          "name": "_refferedBy",
          "type": "address"
        },
        {
          "internalType": "address",
          "name": "_organizationAddress",
          "type": "address"
        }
      ],
      "name": "planterJoin",
      "outputs": [],
      "stateMutability": "nonpayable",
      "type": "function"
    },
    {
      "inputs": [
        {
          "internalType": "address",
          "name": "_organizationAddress",
          "type": "address"
        },
        {
          "internalType": "uint64",
          "name": "_longitude",
          "type": "uint64"
        },
        {
          "internalType": "uint64",
          "name": "_latitude",
          "type": "uint64"
        },
        {
          "internalType": "uint16",
          "name": "_countryCode",
          "type": "uint16"
        },
        {
          "internalType": "uint32",
          "name": "_capacity",
          "type": "uint32"
        },
        {
          "internalType": "address",
          "name": "_refferedBy",
          "type": "address"
        }
      ],
      "name": "organizationJoin",
      "outputs": [],
      "stateMutability": "nonpayable",
      "type": "function"
    },
    {
      "inputs": [
        {
          "internalType": "uint8",
          "name": "_planterType",
          "type": "uint8"
        },
        {
          "internalType": "address",
          "name": "_organizationAddress",
          "type": "address"
        }
      ],
      "name": "updatePlanterType",
      "outputs": [],
      "stateMutability": "nonpayable",
      "type": "function"
    },
    {
      "inputs": [
        {
          "internalType": "address",
          "name": "_planterAddress",
          "type": "address"
        },
        {
          "internalType": "bool",
          "name": "_acceptance",
          "type": "bool"
        }
      ],
      "name": "acceptPlanterFromOrganization",
      "outputs": [],
      "stateMutability": "nonpayable",
      "type": "function"
    },
    {
      "inputs": [
        {
          "internalType": "address",
          "name": "_planterAddress",
          "type": "address"
        },
        {
          "internalType": "uint32",
          "name": "_capacity",
          "type": "uint32"
        }
      ],
      "name": "updateCapacity",
      "outputs": [],
      "stateMutability": "nonpayable",
      "type": "function"
    },
    {
      "inputs": [
        {
          "internalType": "address",
          "name": "_planterAddress",
          "type": "address"
        },
        {
          "internalType": "address",
          "name": "_assignedPlanterAddress",
          "type": "address"
        }
      ],
      "name": "plantingPermission",
      "outputs": [
        {
          "internalType": "bool",
          "name": "",
          "type": "bool"
        }
      ],
      "stateMutability": "nonpayable",
      "type": "function"
    },
    {
      "inputs": [
        {
          "internalType": "address",
          "name": "_planterAddress",
          "type": "address"
        },
        {
          "internalType": "uint256",
          "name": "_planterAutomaticPaymentPortion",
          "type": "uint256"
        }
      ],
      "name": "updateOrganizationPlanterPayment",
      "outputs": [],
      "stateMutability": "nonpayable",
      "type": "function"
    },
    {
      "inputs": [
        {
          "internalType": "address",
          "name": "_planterAddress",
          "type": "address"
        }
      ],
      "name": "getPlanterPaymentPortion",
      "outputs": [
        {
          "internalType": "bool",
          "name": "",
          "type": "bool"
        },
        {
          "internalType": "address",
          "name": "",
          "type": "address"
        },
        {
          "internalType": "address",
          "name": "",
          "type": "address"
        },
        {
          "internalType": "uint256",
          "name": "",
          "type": "uint256"
        }
      ],
      "stateMutability": "view",
      "type": "function",
      "constant": true
    },
    {
      "inputs": [
        {
          "internalType": "address",
          "name": "_planterAddress",
          "type": "address"
        }
      ],
      "name": "reducePlantCount",
      "outputs": [],
      "stateMutability": "nonpayable",
      "type": "function"
    },
    {
      "inputs": [
        {
          "internalType": "address",
          "name": "_planterAddress",
          "type": "address"
        }
      ],
      "name": "planterCheck",
      "outputs": [
        {
          "internalType": "bool",
          "name": "",
          "type": "bool"
        }
      ],
      "stateMutability": "nonpayable",
      "type": "function"
    },
    {
      "inputs": [
        {
          "internalType": "address",
          "name": "_planterAddress",
          "type": "address"
        },
        {
          "internalType": "address",
          "name": "_verifier",
          "type": "address"
        }
      ],
      "name": "canVerify",
      "outputs": [
        {
          "internalType": "bool",
          "name": "",
          "type": "bool"
        }
      ],
      "stateMutability": "view",
      "type": "function",
      "constant": true
    },
    {
      "inputs": [
        {
          "internalType": "address",
          "name": "_planterAddress",
          "type": "address"
        }
      ],
      "name": "canAssignTreeToPlanter",
      "outputs": [
        {
          "internalType": "bool",
          "name": "",
          "type": "bool"
        }
      ],
      "stateMutability": "view",
      "type": "function",
      "constant": true
    }
  ],
  "bytecode": "0x608060405234801561001057600080fd5b50612241806100206000396000f3fe608060405234801561001057600080fd5b506004361061014d5760003560e01c80639b720401116100c3578063d3a907d61161007c578063d3a907d61461036a578063d6762c4a1461043e578063da74222814610451578063df385cbd14610464578063dfeac33a14610477578063fc5c2c7f146104b057600080fd5b80639b720401146102e2578063a074b9be146102f5578063a2c3649014610308578063acd2e8751461031b578063b2dbbded14610344578063c4d66de81461035757600080fd5b806355c3a79e1161011557806355c3a79e14610223578063572b6c05146102365780636d8683ac1461025e5780637c9be3d8146102715780637da0a877146102845780638a4e1a641461029d57600080fd5b806303dc8deb14610152578063055644d61461017b5780630c8f0b4e1461018e5780633b4c9891146101a3578063486ff0cd146101e4575b600080fd5b60005461016690600160b01b900460ff1681565b60405190151581526020015b60405180910390f35b610166610189366004611f4d565b6104c3565b6101a161019c36600461200b565b61065d565b005b6101cc6101b1366004611f32565b6004602052600090815260409020546001600160a01b031681565b6040516001600160a01b039091168152602001610172565b604080518082018252601d81527f322e322e302b747265656a65722e6972656c6179726563697069656e74000000602082015290516101729190612112565b610166610231366004611f4d565b6109b5565b610166610244366004611f32565b6000546201000090046001600160a01b0390811691161490565b6101a161026c366004611fe1565b610aac565b6101a161027f366004611f32565b610c45565b6000546101cc906201000090046001600160a01b031681565b6102b06102ab366004611f32565b610d69565b604051610172949392919093151584526001600160a01b03928316602085015291166040830152606082015260800190565b6101a16102f0366004611fb7565b610e67565b6101a16103033660046120b8565b6110ac565b6101a1610316366004611f80565b611575565b6101cc610329366004611f32565b6003602052600090815260409020546001600160a01b031681565b610166610352366004611f32565b6117a5565b6101a1610365366004611f32565b6118fb565b6103e2610378366004611f32565b60026020526000908152604090205460ff8082169161010081049091169061ffff620100008204169063ffffffff6401000000008204811691600160401b8104821691600160601b8204169067ffffffffffffffff600160801b8204811691600160c01b90041688565b6040805160ff998a16815298909716602089015261ffff9095169587019590955263ffffffff928316606087015290821660808601521660a084015267ffffffffffffffff91821660c08401521660e082015261010001610172565b6001546101cc906001600160a01b031681565b6101a161045f366004611f32565b611a62565b610166610472366004611f32565b611afd565b6104a2610485366004611f4d565b600560209081526000928352604080842090915290825290205481565b604051908152602001610172565b6101a16104be36600461209c565b611b39565b6001546000906001600160a01b031663d26c31f06104df611e8d565b6040516001600160e01b031960e084901b1681526001600160a01b03909116600482015260240160006040518083038186803b15801561051e57600080fd5b505afa158015610532573d6000803e3d6000fd5b505050506001600160a01b0383166000908152600260205260409020805460ff161561065157826001600160a01b0316846001600160a01b031614806105a35750805460ff1660031480156105a357506001600160a01b038481166000908152600460205260409020548116908416145b1561065157805460ff6101009091041660011480156105d85750805463ffffffff600160401b82048116600160601b90920416105b156106515780546001908290600c906105ff908490600160601b900463ffffffff16612197565b82546101009290920a63ffffffff8181021990931691831602179091558254600160401b81048216600160601b90910490911610905061064757805461ff0019166102001781555b6001915050610657565b60009150505b92915050565b6001546001600160a01b0316638413ec14610676611e8d565b6040516001600160e01b031960e084901b1681526001600160a01b03909116600482015260240160006040518083038186803b1580156106b557600080fd5b505afa1580156106c9573d6000803e3d6000fd5b505050506001600160a01b03861660009081526002602052604090205460ff1615801561076e5750600154604051632ea8de7f60e01b81526001600160a01b03888116600483015290911690632ea8de7f9060240160206040518083038186803b15801561073657600080fd5b505afa15801561074a573d6000803e3d6000fd5b505050506040513d601f19601f8201168201806040525081019061076e919061207f565b6107bb5760405162461bcd60e51b81526020600482015260196024820152782ab9b2b91032bc34b9ba1037b9103737ba10383630b73a32b960391b60448201526064015b60405180910390fd5b6001600160a01b038116156108dc576107d2611e8d565b6001600160a01b0316816001600160a01b03161415801561086b5750600154604051632ea8de7f60e01b81526001600160a01b03838116600483015290911690632ea8de7f9060240160206040518083038186803b15801561083357600080fd5b505afa158015610847573d6000803e3d6000fd5b505050506040513d601f19601f8201168201806040525081019061086b919061207f565b6108ad5760405162461bcd60e51b815260206004820152601360248201527272656666657265644279206e6f74207472756560681b60448201526064016107b2565b6001600160a01b03868116600090815260036020526040902080546001600160a01b0319169183169190911790555b6001600160a01b038616600081815260026020908152604091829020805461010263ffffffff199091166201000061ffff8a1602171777ffffffffffffffff00000000ffffffff00000000000000001916600160401b63ffffffff88160267ffffffffffffffff60801b191617600160801b67ffffffffffffffff8b811691909102919091176001600160c01b0316600160c01b918a1691909102178155915192835290917f72c68927ea7ee8d57a0e3ce76300dec0c86fde0ace00be8ac89f646d06b1914d910160405180910390a150505050505050565b6001600160a01b03808316600090815260026020526040808220549284168252812054909160ff908116916101009004166001821115610aa1578060ff1660011480610a0457508060ff166002145b15610aa1578160ff1660021415610a3d575050506001600160a01b03818116600090815260046020526040902054811690831614610657565b8160ff1660031415610aa1576001600160a01b03808616600090815260046020526040808220548784168352912054821691161480610a9857506001600160a01b038581166000908152600460205260409020548116908516145b92505050610657565b506000949350505050565b6001546001600160a01b0316638413ec14610ac5611e8d565b6040516001600160e01b031960e084901b1681526001600160a01b03909116600482015260240160006040518083038186803b158015610b0457600080fd5b505afa158015610b18573d6000803e3d6000fd5b5050506001600160a01b03831660009081526002602052604090205483915060ff16610b565760405162461bcd60e51b81526004016107b290612167565b6001600160a01b0383166000908152600260205260409020805463ffffffff600160601b909104811690841611610bc25760405162461bcd60e51b815260206004820152601060248201526f696e76616c696420636170616369747960801b60448201526064016107b2565b80546bffffffff00000000000000001916600160401b63ffffffff85160217808255610100900460ff1660021415610c0257805461ff0019166101001781555b6040516001600160a01b03851681527f4f4c4d7a603e71ff6fc5aca4b16d1aee54c290be7eb4b17a72535c562724ce76906020015b60405180910390a150505050565b6001600160a01b038116600090815260026020526040902054819060ff16610c7f5760405162461bcd60e51b81526004016107b290612167565b6001546001600160a01b031663d26c31f0610c98611e8d565b6040516001600160e01b031960e084901b1681526001600160a01b03909116600482015260240160006040518083038186803b158015610cd757600080fd5b505afa158015610ceb573d6000803e3d6000fd5b505050506001600160a01b038216600090815260026020526040902080546001908290600c90610d29908490600160601b900463ffffffff166121bf565b825461010092830a63ffffffff8181021990921692909116021790915582540460ff16600214159050610d6457805461ff0019166101001781555b505050565b6001600160a01b0381166000908152600260205260408120805482918291829190610100900460ff1660041480610da25750805460ff16155b15610dbb57600080600080945094509450945050610e60565b805460ff1660011480610dd25750805460ff166002145b80610de457508054610100900460ff16155b15610e16575050506001600160a01b038084166000908152600360205260408120546001945090925016612710610e60565b505050506001600160a01b03828116600081815260046020908152604080832054600383528184205490861680855260058452828520958552949092529091205460019450919216905b9193509193565b60026000610e73611e8d565b6001600160a01b0316815260208101919091526040016000205460ff16600214610edf5760405162461bcd60e51b815260206004820152601b60248201527f506c616e746572206973206e6f74206f7267616e697a6174696f6e000000000060448201526064016107b2565b6001600160a01b038216600090815260026020526040902054829060ff16610f195760405162461bcd60e51b81526004016107b290612167565b6001600160a01b038316600090815260026020526040902054610100900460ff16610f7f5760405162461bcd60e51b8152602060048201526016602482015275696e76616c696420706c616e7465722073746174757360501b60448201526064016107b2565b610f87611e8d565b6001600160a01b038481166000908152600460205260409020548116911614610fea5760405162461bcd60e51b815260206004820152601560248201527434b73b30b634b21034b7383aba10383630b73a32b960591b60448201526064016107b2565b612711821061103b5760405162461bcd60e51b815260206004820152601760248201527f696e76616c6964207061796d656e7420706f7274696f6e00000000000000000060448201526064016107b2565b8160056000611048611e8d565b6001600160a01b0390811682526020808301939093526040918201600090812091881680825291845282902093909355519182527f299e739a5cbd0adcc46334ebbf6fa88633005f027775c228781ca958fc19c858910160405180910390a1505050565b6001546001600160a01b0316632ea8de7f6110c5611e8d565b6040516001600160e01b031960e084901b1681526001600160a01b03909116600482015260240160206040518083038186803b15801561110457600080fd5b505afa158015611118573d6000803e3d6000fd5b505050506040513d601f19601f8201168201806040525081019061113c919061207f565b801561116e57506002600061114f611e8d565b6001600160a01b0316815260208101919091526040016000205460ff16155b6111b65760405162461bcd60e51b81526020600482015260196024820152782ab9b2b91032bc34b9ba1037b9103737ba10383630b73a32b960391b60448201526064016107b2565b8560ff16600114806111cb57508560ff166003145b6112175760405162461bcd60e51b815260206004820152601e60248201527f706c616e74657254797065206e6f7420616c6c6f7765642076616c756573000060448201526064016107b2565b8560ff166003141561128f576001600160a01b03811660009081526002602081905260409091205460ff161461128f5760405162461bcd60e51b815260206004820152601e60248201527f6f7267616e697a6174696f6e2061646472657373206e6f742076616c6964000060448201526064016107b2565b6001600160a01b038216156113c0576112a6611e8d565b6001600160a01b0316826001600160a01b03161415801561133f5750600154604051632ea8de7f60e01b81526001600160a01b03848116600483015290911690632ea8de7f9060240160206040518083038186803b15801561130757600080fd5b505afa15801561131b573d6000803e3d6000fd5b505050506040513d601f19601f8201168201806040525081019061133f919061207f565b6113815760405162461bcd60e51b815260206004820152601360248201527272656666657265644279206e6f74207472756560681b60448201526064016107b2565b816003600061138e611e8d565b6001600160a01b039081168252602082019290925260400160002080546001600160a01b031916929091169190911790555b6001600360ff881614156114245781600460006113db611e8d565b6001600160a01b03166001600160a01b0316815260200190815260200160002060006101000a8154816001600160a01b0302191690836001600160a01b03160217905550600090505b600060026000611432611e8d565b6001600160a01b03166001600160a01b031681526020019081526020016000209050878160000160006101000a81548160ff021916908360ff160217905550818160000160016101000a81548160ff021916908360ff160217905550848160000160026101000a81548161ffff021916908361ffff16021790555060648160000160086101000a81548163ffffffff021916908363ffffffff160217905550868160000160106101000a81548167ffffffffffffffff021916908367ffffffffffffffff160217905550858160000160186101000a81548167ffffffffffffffff021916908367ffffffffffffffff1602179055507faa5bec23e1711684675ce971f1c0682f7766d3c8e2770fc3135010ea8ead9f0e611550611e8d565b6040516001600160a01b03909116815260200160405180910390a15050505050505050565b60026000611581611e8d565b6001600160a01b0316815260208101919091526040016000205460ff166002146115ed5760405162461bcd60e51b815260206004820152601b60248201527f506c616e746572206973206e6f74206f7267616e697a6174696f6e000000000060448201526064016107b2565b6001600160a01b038216600090815260026020526040902054829060ff166116275760405162461bcd60e51b81526004016107b290612167565b61162f611e8d565b6001600160a01b038481166000908152600460205260409020548116911614801561167857506001600160a01b038316600090815260026020526040902054610100900460ff16155b6116cf5760405162461bcd60e51b815260206004820152602260248201527f506c616e746572206e6f742072657175657374206f72206e6f742070656e64696044820152616e6760f01b60648201526084016107b2565b6001600160a01b0383166000908152600260205260409020821561173b57805461ff0019166101001781556040516001600160a01b03851681527f051b4b22140b33d543a888666188b0b245a0bec5a5fbad9a7056a5466bad0f489060200160405180910390a161179f565b805461ffff19166101011781556001600160a01b03841660008181526004602090815260409182902080546001600160a01b031916905590519182527f79101b3eb6902749f086c56104914b9b6a60917c4a7bdccb2291d6d13d61468b9101610c37565b50505050565b6001600160a01b038116600090815260026020526040812054829060ff166117df5760405162461bcd60e51b81526004016107b290612167565b6001546001600160a01b031663d26c31f06117f8611e8d565b6040516001600160e01b031960e084901b1681526001600160a01b03909116600482015260240160006040518083038186803b15801561183757600080fd5b505afa15801561184b573d6000803e3d6000fd5b505050506001600160a01b03831660009081526002602052604090208054600161010090910460ff1614156118ef5780546001908290600c9061189c908490600160601b900463ffffffff16612197565b82546101009290920a63ffffffff8181021990931691831602179091558254600160401b81048216600160601b909104909116141590506118e557805461ff0019166102001781555b60019250506118f5565b60009250505b50919050565b600054610100900460ff1680611914575060005460ff16155b6119775760405162461bcd60e51b815260206004820152602e60248201527f496e697469616c697a61626c653a20636f6e747261637420697320616c72656160448201526d191e481a5b9a5d1a585b1a5e995960921b60648201526084016107b2565b600054610100900460ff16158015611999576000805461ffff19166101011790555b6000829050806001600160a01b031663ba84fd696040518163ffffffff1660e01b815260040160206040518083038186803b1580156119d757600080fd5b505afa1580156119eb573d6000803e3d6000fd5b505050506040513d601f19601f82011682018060405250810190611a0f919061207f565b611a1857600080fd5b6000805460ff60b01b1916600160b01b179055600180546001600160a01b039092166001600160a01b03199092169190911790558015611a5e576000805461ff00191690555b5050565b6001546001600160a01b0316638413ec14611a7b611e8d565b6040516001600160e01b031960e084901b1681526001600160a01b03909116600482015260240160006040518083038186803b158015611aba57600080fd5b505afa158015611ace573d6000803e3d6000fd5b5050600080546001600160a01b03909416620100000262010000600160b01b0319909416939093179092555050565b6001600160a01b0381166000908152600260205260408120805460ff6101009091041660011480611b325750805460ff166002145b9392505050565b611b41611e8d565b6001600160a01b03811660009081526002602052604090205460ff16611b795760405162461bcd60e51b81526004016107b290612167565b8260ff1660011480611b8e57508260ff166003145b611bda5760405162461bcd60e51b815260206004820152601e60248201527f706c616e74657254797065206e6f7420616c6c6f7765642076616c756573000060448201526064016107b2565b600060026000611be8611e8d565b6001600160a01b0316815260208101919091526040016000208054909150610100900460ff161580611c245750805460ff610100909104166001145b611c695760405162461bcd60e51b8152602060048201526016602482015275696e76616c696420706c616e7465722073746174757360501b60448201526064016107b2565b805460ff1660021415611cbe5760405162461bcd60e51b815260206004820152601d60248201527f43616c6c6572206973206f7267616e697a6174696f6e506c616e74657200000060448201526064016107b2565b8360ff1660031415611d82576001600160a01b03831660009081526002602081905260409091205460ff1614611d365760405162461bcd60e51b815260206004820152601e60248201527f6f7267616e697a6174696f6e2061646472657373206e6f742076616c6964000060448201526064016107b2565b8260046000611d43611e8d565b6001600160a01b039081168252602082019290925260400160002080546001600160a01b03191692909116919091179055805461ff0019168155611e3f565b805460ff16600314611dd65760405162461bcd60e51b815260206004820152601d60248201527f696e76616c696420706c616e7465725479706520696e206368616e676500000060448201526064016107b2565b805460ff1660031415611e2357600060046000611df1611e8d565b6001600160a01b039081168252602082019290925260400160002080546001600160a01b031916929091169190911790555b8054610100900460ff16611e3f57805461ff0019166101001781555b805460ff191660ff85161781557f4f4c4d7a603e71ff6fc5aca4b16d1aee54c290be7eb4b17a72535c562724ce76611e75611e8d565b6040516001600160a01b039091168152602001610c37565b600060143610801590611eb057506000546201000090046001600160a01b031633145b15611ec2575060131936013560601c90565b503390565b80356001600160a01b0381168114611ede57600080fd5b919050565b803561ffff81168114611ede57600080fd5b803563ffffffff81168114611ede57600080fd5b803567ffffffffffffffff81168114611ede57600080fd5b803560ff81168114611ede57600080fd5b600060208284031215611f4457600080fd5b611b3282611ec7565b60008060408385031215611f6057600080fd5b611f6983611ec7565b9150611f7760208401611ec7565b90509250929050565b60008060408385031215611f9357600080fd5b611f9c83611ec7565b91506020830135611fac816121fa565b809150509250929050565b60008060408385031215611fca57600080fd5b611fd383611ec7565b946020939093013593505050565b60008060408385031215611ff457600080fd5b611ffd83611ec7565b9150611f7760208401611ef5565b60008060008060008060c0878903121561202457600080fd5b61202d87611ec7565b955061203b60208801611f09565b945061204960408801611f09565b935061205760608801611ee3565b925061206560808801611ef5565b915061207360a08801611ec7565b90509295509295509295565b60006020828403121561209157600080fd5b8151611b32816121fa565b600080604083850312156120af57600080fd5b611f6983611f21565b60008060008060008060c087890312156120d157600080fd5b6120da87611f21565b95506120e860208801611f09565b94506120f660408801611f09565b935061210460608801611ee3565b925061206560808801611ec7565b600060208083528351808285015260005b8181101561213f57858101830151858201604001528201612123565b81811115612151576000604083870101525b50601f01601f1916929092016040019392505050565b6020808252601690820152751c1b185b9d195c88191bd95cc81b9bdd08195e1a5cdd60521b604082015260600190565b600063ffffffff8083168185168083038211156121b6576121b66121e4565b01949350505050565b600063ffffffff838116908316818110156121dc576121dc6121e4565b039392505050565b634e487b7160e01b600052601160045260246000fd5b801515811461220857600080fd5b5056fea2646970667358221220c8075eb72e2f346c465bb263a58e9417c2ce1fab603516f95c9c229d0471082464736f6c63430008060033",
  "immutableReferences": {},
  "source": "//SPDX-License-Identifier: MIT\n\npragma solidity ^0.8.6;\n\nimport \"@openzeppelin/contracts-upgradeable/proxy/utils/Initializable.sol\";\n\nimport \"@openzeppelin/contracts-upgradeable/utils/math/SafeCastUpgradeable.sol\";\nimport \"../access/IAccessRestriction.sol\";\nimport \"../gsn/RelayRecipient.sol\";\n\n/** @title Planter contract */\ncontract Planter is Initializable, RelayRecipient {\n    using SafeCastUpgradeable for uint256;\n\n    bool public isPlanter;\n\n    IAccessRestriction public accessRestriction;\n\n    struct PlanterData {\n        uint8 planterType;\n        uint8 status;\n        uint16 countryCode;\n        uint32 score;\n        uint32 capacity;\n        uint32 plantedCount;\n        uint64 longitude;\n        uint64 latitude;\n    }\n\n    /** NOTE mapping of planterAddress to PlanterData */\n\n    mapping(address => PlanterData) public planters;\n\n    /** NOTE mapping of planterAddress to address of refferedBy */\n\n    mapping(address => address) public refferedBy;\n\n    /** NOTE mapping of planterAddress to organizationAddress that planter is member of it */\n    mapping(address => address) public memberOf;\n\n    /** NOTE mapping of organizationAddress to mapping of planterAddress to portionValue */\n    mapping(address => mapping(address => uint256)) public organizationRules;\n\n    event PlanterJoin(address planterId);\n    event OrganizationJoin(address organizationId);\n    event PlanterUpdated(address planterId);\n    event AcceptedByOrganization(address planterId);\n    event RejectedByOrganization(address planterId);\n    event PortionUpdated(address planterId);\n\n    modifier onlyAdmin() {\n        accessRestriction.ifAdmin(_msgSender());\n        _;\n    }\n    modifier ifNotPaused() {\n        accessRestriction.ifNotPaused();\n        _;\n    }\n    modifier existPlanter(address _planterAddress) {\n        require(\n            planters[_planterAddress].planterType > 0,\n            \"planter does not exist\"\n        );\n        _;\n    }\n    modifier onlyTreasury() {\n        accessRestriction.ifTreasury(_msgSender());\n        _;\n    }\n\n    modifier onlyOrganization() {\n        require(\n            planters[_msgSender()].planterType == 2,\n            \"Planter is not organization\"\n        );\n        _;\n    }\n    modifier onlyTreeFactory() {\n        accessRestriction.ifTreeFactory(_msgSender());\n        _;\n    }\n\n    function initialize(address _accessRestrictionAddress) public initializer {\n        IAccessRestriction candidateContract = IAccessRestriction(\n            _accessRestrictionAddress\n        );\n        require(candidateContract.isAccessRestriction());\n        isPlanter = true;\n        accessRestriction = candidateContract;\n    }\n\n    function setTrustedForwarder(address _address) external onlyAdmin {\n        trustedForwarder = _address;\n    }\n\n    function planterJoin(\n        uint8 _planterType,\n        uint64 _longitude,\n        uint64 _latitude,\n        uint16 _countryCode,\n        address _refferedBy,\n        address _organizationAddress\n    ) external {\n        require(\n            accessRestriction.isPlanter(_msgSender()) &&\n                planters[_msgSender()].planterType == 0,\n            \"User exist or not planter\"\n        );\n\n        require(\n            _planterType == 1 || _planterType == 3,\n            \"planterType not allowed values\"\n        );\n\n        if (_planterType == 3) {\n            require(\n                planters[_organizationAddress].planterType == 2,\n                \"organization address not valid\"\n            );\n        }\n\n        if (_refferedBy != address(0)) {\n            require(\n                _refferedBy != _msgSender() &&\n                    accessRestriction.isPlanter(_refferedBy),\n                \"refferedBy not true\"\n            );\n\n            refferedBy[_msgSender()] = _refferedBy;\n        }\n\n        uint8 status = 1;\n\n        if (_planterType == 3) {\n            memberOf[_msgSender()] = _organizationAddress;\n            status = 0;\n        }\n\n        PlanterData storage planter = planters[_msgSender()];\n\n        planter.planterType = _planterType;\n        planter.status = status;\n        planter.countryCode = _countryCode;\n        planter.capacity = 100;\n        planter.longitude = _longitude;\n        planter.latitude = _latitude;\n\n        emit PlanterJoin(_msgSender());\n    }\n\n    function organizationJoin(\n        address _organizationAddress,\n        uint64 _longitude,\n        uint64 _latitude,\n        uint16 _countryCode,\n        uint32 _capacity,\n        address _refferedBy\n    ) external onlyAdmin {\n        require(\n            planters[_organizationAddress].planterType == 0 &&\n                accessRestriction.isPlanter(_organizationAddress),\n            \"User exist or not planter\"\n        );\n\n        if (_refferedBy != address(0)) {\n            require(\n                _refferedBy != _msgSender() &&\n                    accessRestriction.isPlanter(_refferedBy),\n                \"refferedBy not true\"\n            );\n\n            refferedBy[_organizationAddress] = _refferedBy;\n        }\n\n        PlanterData storage planter = planters[_organizationAddress];\n\n        planter.planterType = 2;\n        planter.status = 1;\n        planter.countryCode = _countryCode;\n        planter.capacity = _capacity;\n        planter.longitude = _longitude;\n        planter.latitude = _latitude;\n\n        emit OrganizationJoin(_organizationAddress);\n    }\n\n    //TODO:remove this function??\n    function updatePlanterType(uint8 _planterType, address _organizationAddress)\n        external\n        existPlanter(_msgSender())\n    {\n        require(\n            _planterType == 1 || _planterType == 3,\n            \"planterType not allowed values\"\n        );\n\n        PlanterData storage planter = planters[_msgSender()];\n\n        require(\n            planter.status == 0 || planter.status == 1,\n            \"invalid planter status\"\n        );\n\n        require(planter.planterType != 2, \"Caller is organizationPlanter\");\n\n        if (_planterType == 3) {\n            require(\n                planters[_organizationAddress].planterType == 2,\n                \"organization address not valid\"\n            );\n\n            memberOf[_msgSender()] = _organizationAddress;\n\n            planter.status = 0;\n        } else {\n            require(planter.planterType == 3, \"invalid planterType in change\");\n\n            if (planter.planterType == 3) {\n                memberOf[_msgSender()] = address(0);\n            }\n\n            if (planter.status == 0) {\n                planter.status = 1;\n            }\n        }\n\n        planter.planterType = _planterType;\n\n        emit PlanterUpdated(_msgSender());\n    }\n\n    /** @dev organization can accept planter to be it's member or reject\n     * @param _planterAddress address of planter\n     * @param _acceptance accept or reject\n     */\n\n    function acceptPlanterFromOrganization(\n        address _planterAddress,\n        bool _acceptance\n    ) external onlyOrganization existPlanter(_planterAddress) {\n        require(\n            memberOf[_planterAddress] == _msgSender() &&\n                planters[_planterAddress].status == 0,\n            \"Planter not request or not pending\"\n        );\n\n        PlanterData storage planter = planters[_planterAddress];\n\n        if (_acceptance) {\n            planter.status = 1;\n\n            emit AcceptedByOrganization(_planterAddress);\n        } else {\n            planter.status = 1;\n            planter.planterType = 1;\n            memberOf[_planterAddress] = address(0);\n\n            emit RejectedByOrganization(_planterAddress);\n        }\n    }\n\n    /** @dev admin update capacity of planter {_planterAddress}\n     * @param _planterAddress address of planter to update capacity\n     * @param _capacity capacity that set to planter capacity\n     */\n    function updateCapacity(address _planterAddress, uint32 _capacity)\n        external\n        onlyAdmin\n        existPlanter(_planterAddress)\n    {\n        PlanterData storage tempPlanter = planters[_planterAddress];\n        require(_capacity > tempPlanter.plantedCount, \"invalid capacity\");\n        tempPlanter.capacity = _capacity;\n        if (tempPlanter.status == 2) {\n            tempPlanter.status = 1;\n        }\n        emit PlanterUpdated(_planterAddress);\n    }\n\n    /** @dev return if a planter can plant a tree and increase planter plantedCount 1 time.\n     * @param _planterAddress address of planter who want to plant tree\n     * @param _assignedPlanterAddress address of planter that tree assigned to\n     * @return if a planter can plant a tree or not\n     */\n    function plantingPermission(\n        address _planterAddress,\n        address _assignedPlanterAddress\n    ) external returns (bool) {\n        accessRestriction.ifTreeFactory(_msgSender());\n\n        PlanterData storage tempPlanter = planters[_planterAddress];\n        if (tempPlanter.planterType > 0) {\n            if (\n                _planterAddress == _assignedPlanterAddress ||\n                (tempPlanter.planterType == 3 &&\n                    memberOf[_planterAddress] == _assignedPlanterAddress)\n            ) {\n                if (\n                    tempPlanter.status == 1 &&\n                    tempPlanter.plantedCount < tempPlanter.capacity\n                ) {\n                    tempPlanter.plantedCount += 1;\n\n                    if (tempPlanter.plantedCount >= tempPlanter.capacity) {\n                        tempPlanter.status = 2;\n                    }\n                    return true;\n                }\n            }\n        }\n\n        return false;\n    }\n\n    /** @dev oragnization can update planterPayment rules of it's members\n     * @param _planterAddress address of planter\n     * @param _planterAutomaticPaymentPortion payment portion value\n     * NOTE only organization (planterType = 2) can call this function\n     */\n\n    function updateOrganizationPlanterPayment(\n        address _planterAddress,\n        uint256 _planterAutomaticPaymentPortion\n    ) external onlyOrganization existPlanter(_planterAddress) {\n        require(planters[_planterAddress].status > 0, \"invalid planter status\");\n        require(\n            memberOf[_planterAddress] == _msgSender(),\n            \"invalid input planter\"\n        );\n        require(\n            _planterAutomaticPaymentPortion < 10001,\n            \"invalid payment portion\"\n        );\n\n        organizationRules[_msgSender()][\n            _planterAddress\n        ] = _planterAutomaticPaymentPortion;\n\n        emit PortionUpdated(_planterAddress);\n    }\n\n    /** @dev return planter paymentPortion for an accepted organizationPlanter\n     * @param _planterAddress address of planter to get payment portion\n     * @return {true} as first param in valid planter case and seccond param is\n     * address of organization that {_planterAddress} is member of it.\n     * and third param is address of referral and the last one is portion value\n     */\n    function getPlanterPaymentPortion(address _planterAddress)\n        external\n        view\n        returns (\n            bool,\n            address,\n            address,\n            uint256\n        )\n    {\n        PlanterData storage tempPlanter = planters[_planterAddress];\n        if (tempPlanter.status == 4 || tempPlanter.planterType == 0) {\n            return (false, address(0), address(0), 0);\n        } else {\n            if (\n                tempPlanter.planterType == 1 ||\n                tempPlanter.planterType == 2 ||\n                tempPlanter.status == 0\n            ) {\n                return (true, address(0), refferedBy[_planterAddress], 10000);\n            } else {\n                return (\n                    true,\n                    memberOf[_planterAddress],\n                    refferedBy[_planterAddress],\n                    organizationRules[memberOf[_planterAddress]][\n                        _planterAddress\n                    ]\n                );\n            }\n        }\n    }\n\n    /** @dev when tree plant of {_planterAddress} rejected plantedCount of {_planterAddress}\n     * must reduce 1 time and if planter status is full capacity {2} udate it to active {1}\n     * @param _planterAddress address of planter\n     * NOTE only treeFactory contract can call this function\n     */\n    function reducePlantCount(address _planterAddress)\n        external\n        existPlanter(_planterAddress)\n        onlyTreeFactory\n    {\n        PlanterData storage tempPlanter = planters[_planterAddress];\n\n        tempPlanter.plantedCount -= 1;\n\n        if (tempPlanter.status == 2) {\n            tempPlanter.status = 1;\n        }\n    }\n\n    /** @dev check that planter {_planterAddress} can plant regular tree\n     * @param _planterAddress address of planter\n     * NOTE treeFactory contract can call this function\n     * NOTE change status to full capacity if plantedCount be equal with\n     * planter capacity after increase plantedCount by 1\n     * @return true in case of planter status is active {1}\n     */\n\n    function planterCheck(address _planterAddress)\n        external\n        existPlanter(_planterAddress)\n        onlyTreeFactory\n        returns (bool)\n    {\n        PlanterData storage tempPlanter = planters[_planterAddress];\n\n        if (tempPlanter.status == 1) {\n            tempPlanter.plantedCount += 1;\n\n            if (tempPlanter.plantedCount == tempPlanter.capacity) {\n                tempPlanter.status = 2;\n            }\n            return true;\n        }\n        return false;\n    }\n\n    /** @dev check that {_verifier} can verify plant or update requests of {_planterAddress}\n     * @param _planterAddress address of planter\n     * @param _verifier address of verifier\n     * @return true in case of {_verifier} can verify {_planterAddress} and false otherwise\n     */\n    function canVerify(address _planterAddress, address _verifier)\n        external\n        view\n        returns (bool)\n    {\n        uint8 _planterType = planters[_planterAddress].planterType;\n\n        uint8 _verifierStatus = planters[_verifier].status;\n\n        if (_planterType > 1) {\n            if (_verifierStatus == 1 || _verifierStatus == 2) {\n                if (_planterType == 2) {\n                    return memberOf[_verifier] == _planterAddress;\n                } else if (_planterType == 3) {\n                    return\n                        memberOf[_verifier] == memberOf[_planterAddress] ||\n                        memberOf[_planterAddress] == _verifier;\n                }\n            }\n        }\n        return false;\n    }\n\n    /** @dev check allowance to assign tree to planter {_planterAddress}\n     * @param _planterAddress address of assignee planter\n     * @return true in case of active planter or orgnization planter and false otherwise\n     */\n    function canAssignTreeToPlanter(address _planterAddress)\n        external\n        view\n        returns (bool)\n    {\n        PlanterData storage tempPlanter = planters[_planterAddress];\n\n        return tempPlanter.status == 1 || tempPlanter.planterType == 2;\n    }\n}\n",
  "sourcePath": "/home/ali/Desktop/treejer/contract/contracts/planter/Planter.sol",
  "compiler": {
    "name": "solc",
    "version": "0.8.6+commit.11564f7e.Emscripten.clang"
  },
  "schemaVersion": "3.4.1",
  "updatedAt": "2021-08-05T11:32:49.116Z",
  "networkType": "ethereum",
  "devdoc": {
    "kind": "dev",
    "methods": {
      "acceptPlanterFromOrganization(address,bool)": {
        "details": "organization can accept planter to be it's member or reject",
        "params": {
          "_acceptance": "accept or reject",
          "_planterAddress": "address of planter"
        }
      },
      "canAssignTreeToPlanter(address)": {
        "details": "check allowance to assign tree to planter {_planterAddress}",
        "params": {
          "_planterAddress": "address of assignee planter"
        },
        "returns": {
          "_0": "true in case of active planter or orgnization planter and false otherwise"
        }
      },
      "canVerify(address,address)": {
        "details": "check that {_verifier} can verify plant or update requests of {_planterAddress}",
        "params": {
          "_planterAddress": "address of planter",
          "_verifier": "address of verifier"
        },
        "returns": {
          "_0": "true in case of {_verifier} can verify {_planterAddress} and false otherwise"
        }
      },
      "getPlanterPaymentPortion(address)": {
        "details": "return planter paymentPortion for an accepted organizationPlanter",
        "params": {
          "_planterAddress": "address of planter to get payment portion"
        },
        "returns": {
          "_0": "{true} as first param in valid planter case and seccond param is address of organization that {_planterAddress} is member of it. and third param is address of referral and the last one is portion value"
        }
      },
      "planterCheck(address)": {
        "details": "check that planter {_planterAddress} can plant regular tree",
        "params": {
          "_planterAddress": "address of planter NOTE treeFactory contract can call this function NOTE change status to full capacity if plantedCount be equal with planter capacity after increase plantedCount by 1"
        },
        "returns": {
          "_0": "true in case of planter status is active {1}"
        }
      },
      "plantingPermission(address,address)": {
        "details": "return if a planter can plant a tree and increase planter plantedCount 1 time.",
        "params": {
          "_assignedPlanterAddress": "address of planter that tree assigned to",
          "_planterAddress": "address of planter who want to plant tree"
        },
        "returns": {
          "_0": "if a planter can plant a tree or not"
        }
      },
      "reducePlantCount(address)": {
        "details": "when tree plant of {_planterAddress} rejected plantedCount of {_planterAddress} must reduce 1 time and if planter status is full capacity {2} udate it to active {1}",
        "params": {
          "_planterAddress": "address of planter NOTE only treeFactory contract can call this function"
        }
      },
      "updateCapacity(address,uint32)": {
        "details": "admin update capacity of planter {_planterAddress}",
        "params": {
          "_capacity": "capacity that set to planter capacity",
          "_planterAddress": "address of planter to update capacity"
        }
      },
      "updateOrganizationPlanterPayment(address,uint256)": {
        "details": "oragnization can update planterPayment rules of it's members",
        "params": {
          "_planterAddress": "address of planter",
          "_planterAutomaticPaymentPortion": "payment portion value NOTE only organization (planterType = 2) can call this function"
        }
      }
    },
    "title": "Planter contract ",
    "version": 1
  },
  "userdoc": {
    "kind": "user",
    "methods": {
      "isTrustedForwarder(address)": {
        "notice": "return if the forwarder is trusted to forward relayed transactions to us. the forwarder is required to verify the sender's signature, and verify the call is not a replay."
      },
      "memberOf(address)": {
        "notice": "NOTE mapping of planterAddress to organizationAddress that planter is member of it "
      },
      "organizationRules(address,address)": {
        "notice": "NOTE mapping of organizationAddress to mapping of planterAddress to portionValue "
      },
      "planters(address)": {
        "notice": "NOTE mapping of planterAddress to PlanterData "
      },
      "refferedBy(address)": {
        "notice": "NOTE mapping of planterAddress to address of refferedBy "
      }
    },
    "version": 1
  }
}