{
  "contractName": "RegularSell",
  "abi": [
    {
      "anonymous": false,
      "inputs": [
        {
          "indexed": false,
          "internalType": "address",
          "name": "buyer",
          "type": "address"
        },
        {
          "indexed": false,
          "internalType": "uint256",
          "name": "treeId",
          "type": "uint256"
        }
      ],
      "name": "RegularMint",
      "type": "event"
    },
    {
      "anonymous": false,
      "inputs": [
        {
          "indexed": false,
          "internalType": "uint256",
          "name": "count",
          "type": "uint256"
        },
        {
          "indexed": false,
          "internalType": "address",
          "name": "buyer",
          "type": "address"
        },
        {
          "indexed": false,
          "internalType": "uint256",
          "name": "amount",
          "type": "uint256"
        }
      ],
      "name": "RegularTreeRequsted",
      "type": "event"
    },
    {
      "anonymous": false,
      "inputs": [
        {
          "indexed": false,
          "internalType": "uint256",
          "name": "treeId",
          "type": "uint256"
        },
        {
          "indexed": false,
          "internalType": "address",
          "name": "buyer",
          "type": "address"
        },
        {
          "indexed": false,
          "internalType": "uint256",
          "name": "amount",
          "type": "uint256"
        }
      ],
      "name": "RegularTreeRequstedById",
      "type": "event"
    },
    {
      "anonymous": false,
      "inputs": [
        {
          "indexed": false,
          "internalType": "uint256",
          "name": "price",
          "type": "uint256"
        }
      ],
      "name": "TreePriceUpdated",
      "type": "event"
    },
    {
      "inputs": [],
      "name": "accessRestriction",
      "outputs": [
        {
          "internalType": "contract IAccessRestriction",
          "name": "",
          "type": "address"
        }
      ],
      "stateMutability": "view",
      "type": "function",
      "constant": true
    },
    {
      "inputs": [],
      "name": "daiFunds",
      "outputs": [
        {
          "internalType": "contract IDaiFunds",
          "name": "",
          "type": "address"
        }
      ],
      "stateMutability": "view",
      "type": "function",
      "constant": true
    },
    {
      "inputs": [],
      "name": "daiToken",
      "outputs": [
        {
          "internalType": "contract IERC20Upgradeable",
          "name": "",
          "type": "address"
        }
      ],
      "stateMutability": "view",
      "type": "function",
      "constant": true
    },
    {
      "inputs": [],
      "name": "financialModel",
      "outputs": [
        {
          "internalType": "contract IFinancialModel",
          "name": "",
          "type": "address"
        }
      ],
      "stateMutability": "view",
      "type": "function",
      "constant": true
    },
    {
      "inputs": [],
      "name": "isRegularSell",
      "outputs": [
        {
          "internalType": "bool",
          "name": "",
          "type": "bool"
        }
      ],
      "stateMutability": "view",
      "type": "function",
      "constant": true
    },
    {
      "inputs": [
        {
          "internalType": "address",
          "name": "forwarder",
          "type": "address"
        }
      ],
      "name": "isTrustedForwarder",
      "outputs": [
        {
          "internalType": "bool",
          "name": "",
          "type": "bool"
        }
      ],
      "stateMutability": "view",
      "type": "function",
      "constant": true
    },
    {
      "inputs": [],
      "name": "lastSoldRegularTree",
      "outputs": [
        {
          "internalType": "uint256",
          "name": "",
          "type": "uint256"
        }
      ],
      "stateMutability": "view",
      "type": "function",
      "constant": true
    },
    {
      "inputs": [],
      "name": "treeFactory",
      "outputs": [
        {
          "internalType": "contract ITreeFactory",
          "name": "",
          "type": "address"
        }
      ],
      "stateMutability": "view",
      "type": "function",
      "constant": true
    },
    {
      "inputs": [],
      "name": "treePrice",
      "outputs": [
        {
          "internalType": "uint256",
          "name": "",
          "type": "uint256"
        }
      ],
      "stateMutability": "view",
      "type": "function",
      "constant": true
    },
    {
      "inputs": [],
      "name": "trustedForwarder",
      "outputs": [
        {
          "internalType": "address",
          "name": "",
          "type": "address"
        }
      ],
      "stateMutability": "view",
      "type": "function",
      "constant": true
    },
    {
      "inputs": [],
      "name": "versionRecipient",
      "outputs": [
        {
          "internalType": "string",
          "name": "",
          "type": "string"
        }
      ],
      "stateMutability": "pure",
      "type": "function",
      "constant": true
    },
    {
      "inputs": [
        {
          "internalType": "address",
          "name": "_accessRestrictionAddress",
          "type": "address"
        },
        {
          "internalType": "uint256",
          "name": "_price",
          "type": "uint256"
        }
      ],
      "name": "initialize",
      "outputs": [],
      "stateMutability": "nonpayable",
      "type": "function"
    },
    {
      "inputs": [
        {
          "internalType": "address",
          "name": "_address",
          "type": "address"
        }
      ],
      "name": "setTrustedForwarder",
      "outputs": [],
      "stateMutability": "nonpayable",
      "type": "function"
    },
    {
      "inputs": [
        {
          "internalType": "address",
          "name": "_address",
          "type": "address"
        }
      ],
      "name": "setTreeFactoryAddress",
      "outputs": [],
      "stateMutability": "nonpayable",
      "type": "function"
    },
    {
      "inputs": [
        {
          "internalType": "address",
          "name": "_address",
          "type": "address"
        }
      ],
      "name": "setDaiFundsAddress",
      "outputs": [],
      "stateMutability": "nonpayable",
      "type": "function"
    },
    {
      "inputs": [
        {
          "internalType": "address",
          "name": "_address",
          "type": "address"
        }
      ],
      "name": "setDaiTokenAddress",
      "outputs": [],
      "stateMutability": "nonpayable",
      "type": "function"
    },
    {
      "inputs": [
        {
          "internalType": "address",
          "name": "_address",
          "type": "address"
        }
      ],
      "name": "setFinancialModelAddress",
      "outputs": [],
      "stateMutability": "nonpayable",
      "type": "function"
    },
    {
      "inputs": [
        {
          "internalType": "uint256",
          "name": "_price",
          "type": "uint256"
        }
      ],
      "name": "setPrice",
      "outputs": [],
      "stateMutability": "nonpayable",
      "type": "function"
    },
    {
      "inputs": [
        {
          "internalType": "uint256",
          "name": "_count",
          "type": "uint256"
        }
      ],
      "name": "requestTrees",
      "outputs": [],
      "stateMutability": "nonpayable",
      "type": "function"
    },
    {
      "inputs": [
        {
          "internalType": "uint256",
          "name": "_treeId",
          "type": "uint256"
        }
      ],
      "name": "requestByTreeId",
      "outputs": [],
      "stateMutability": "nonpayable",
      "type": "function"
    }
  ],
  "bytecode": "0x608060405234801561001057600080fd5b506114c2806100206000396000f3fe608060405234801561001057600080fd5b506004361061012c5760003560e01c80637da0a877116100ad578063d0ae266a11610071578063d0ae266a146102be578063d6762c4a146102cb578063da742228146102e3578063f1326b15146102f6578063f7b914ac1461030957600080fd5b80637da0a8771461025957806391b7f5ed1461027257806395b6460314610285578063be22f54614610298578063cd6dc687146102ab57600080fd5b80634fe044c4116100f45780634fe044c4146101d557806351c90f17146101e857806354698595146101fb578063572b6c051461020e57806373d87ce21461024657600080fd5b80630605f54c146101315780630bf351f81461014d5780631afb880414610162578063421ef6d41461016b578063486ff0cd14610196575b600080fd5b61013a60025481565b6040519081526020015b60405180910390f35b61016061015b36600461125e565b61031c565b005b61013a60015481565b60045461017e906001600160a01b031681565b6040516001600160a01b039091168152602001610144565b604080518082018252601d81527f322e322e302b747265656a65722e6972656c6179726563697069656e74000000602082015290516101449190611395565b6101606101e336600461125e565b610433565b60055461017e906001600160a01b031681565b610160610209366004611363565b61054a565b61023661021c36600461125e565b6000546201000090046001600160a01b0390811691161490565b6040519015158152602001610144565b610160610254366004611363565b610906565b60005461017e906201000090046001600160a01b031681565b610160610280366004611363565b610d5b565b60065461017e906001600160a01b031681565b60075461017e906001600160a01b031681565b6101606102b9366004611280565b610e0b565b6003546102369060ff1681565b60035461017e9061010090046001600160a01b031681565b6101606102f136600461125e565b610fa7565b61016061030436600461125e565b611047565b61016061031736600461125e565b6110df565b60035461010090046001600160a01b0316638413ec1461033a6111f6565b6040516001600160e01b031960e084901b1681526001600160a01b03909116600482015260240160006040518083038186803b15801561037957600080fd5b505afa15801561038d573d6000803e3d6000fd5b505050506000819050806001600160a01b031663e0eb4eb96040518163ffffffff1660e01b815260040160206040518083038186803b1580156103cf57600080fd5b505afa1580156103e3573d6000803e3d6000fd5b505050506040513d601f19601f8201168201806040525081019061040791906112aa565b61041057600080fd5b600480546001600160a01b0319166001600160a01b039290921691909117905550565b60035461010090046001600160a01b0316638413ec146104516111f6565b6040516001600160e01b031960e084901b1681526001600160a01b03909116600482015260240160006040518083038186803b15801561049057600080fd5b505afa1580156104a4573d6000803e3d6000fd5b505050506000819050806001600160a01b031663966da5fb6040518163ffffffff1660e01b815260040160206040518083038186803b1580156104e657600080fd5b505afa1580156104fa573d6000803e3d6000fd5b505050506040513d601f19601f8201168201806040525081019061051e91906112aa565b61052757600080fd5b600680546001600160a01b0319166001600160a01b039290921691909117905550565b600154811161058f5760405162461bcd60e51b815260206004820152600c60248201526b696e76616c6964207472656560a01b60448201526064015b60405180910390fd5b6002546007546001600160a01b03166370a082316105ab6111f6565b6040516001600160e01b031960e084901b1681526001600160a01b03909116600482015260240160206040518083038186803b1580156105ea57600080fd5b505afa1580156105fe573d6000803e3d6000fd5b505050506040513d601f19601f82011682018060405250810190610622919061137c565b10156106615760405162461bcd60e51b815260206004820152600e60248201526d1a5b9d985b1a5908185b5bdd5b9d60921b6044820152606401610586565b6007546001600160a01b03166323b872dd61067a6111f6565b60055460025460405160e085901b6001600160e01b03191681526001600160a01b0393841660048201529290911660248301526044820152606401602060405180830381600087803b1580156106cf57600080fd5b505af11580156106e3573d6000803e3d6000fd5b505050506040513d601f19601f8201168201806040525081019061070791906112aa565b506004546001600160a01b031663e9455157826107226111f6565b6040516001600160e01b031960e085901b16815260048101929092526001600160a01b03166024820152604401600060405180830381600087803b15801561076957600080fd5b505af115801561077d573d6000803e3d6000fd5b5050600654604051631123660b60e31b815260048101859052600093508392508291829182918291829182916001600160a01b039091169063891b30589060240161010060405180830381600087803b1580156107d957600080fd5b505af11580156107ed573d6000803e3d6000fd5b505050506040513d601f19601f8201168201806040525081019061081191906112cc565b97509750975097509750975097509750600560009054906101000a90046001600160a01b03166001600160a01b031663b36758328a6002548b8b8b8b8b8b8b8b6040518b63ffffffff1660e01b81526004016108769a999897969594939291906113ea565b600060405180830381600087803b15801561089057600080fd5b505af11580156108a4573d6000803e3d6000fd5b505050507f145e37f8e49e9006efd09220d928a1e5b1476109eb7017a877d897cd0ef8815b896108d26111f6565b600254604080519384526001600160a01b0390921660208401529082015260600160405180910390a1505050505050505050565b600081116109465760405162461bcd60e51b815260206004820152600d60248201526c1a5b9d985b1a590818dbdd5b9d609a1b6044820152606401610586565b600081600254610956919061143c565b60075490915081906001600160a01b03166370a082316109746111f6565b6040516001600160e01b031960e084901b1681526001600160a01b03909116600482015260240160206040518083038186803b1580156109b357600080fd5b505afa1580156109c7573d6000803e3d6000fd5b505050506040513d601f19601f820116820180604052508101906109eb919061137c565b1015610a2a5760405162461bcd60e51b815260206004820152600e60248201526d1a5b9d985b1a5908185b5bdd5b9d60921b6044820152606401610586565b6001546007546001600160a01b03166323b872dd610a466111f6565b60055460405160e084901b6001600160e01b03191681526001600160a01b0392831660048201529116602482015260448101859052606401602060405180830381600087803b158015610a9857600080fd5b505af1158015610aac573d6000803e3d6000fd5b505050506040513d601f19601f82011682018060405250810190610ad091906112aa565b507f92e4ed958c339e611b924f2b9809f6991e9b02ff51956cc7ad71a7cc4bb6d9db83610afb6111f6565b604080519283526001600160a01b039091166020830152810184905260600160405180910390a160005b83811015610d53576004546001600160a01b031663b20cae5483610b476111f6565b6040516001600160e01b031960e085901b16815260048101929092526001600160a01b03166024820152604401602060405180830381600087803b158015610b8e57600080fd5b505af1158015610ba2573d6000803e3d6000fd5b505050506040513d601f19601f82011682018060405250810190610bc6919061137c565b600654604051631123660b60e31b81526004810183905291935060009182918291829182918291829182916001600160a01b03169063891b30589060240161010060405180830381600087803b158015610c1f57600080fd5b505af1158015610c33573d6000803e3d6000fd5b505050506040513d601f19601f82011682018060405250810190610c5791906112cc565b97509750975097509750975097509750600560009054906101000a90046001600160a01b03166001600160a01b031663b36758328b6002548b8b8b8b8b8b8b8b6040518b63ffffffff1660e01b8152600401610cbc9a999897969594939291906113ea565b600060405180830381600087803b158015610cd657600080fd5b505af1158015610cea573d6000803e3d6000fd5b505050507fa530557ca41a1bef2ff90cce7e3a0c90890da5a65c01af3a4b150f7112442f8b610d176111f6565b604080516001600160a01b039092168252602082018d90520160405180910390a150505050505050508080610d4b9061145b565b915050610b25565b506001555050565b60035461010090046001600160a01b0316638413ec14610d796111f6565b6040516001600160e01b031960e084901b1681526001600160a01b03909116600482015260240160006040518083038186803b158015610db857600080fd5b505afa158015610dcc573d6000803e3d6000fd5b5050506002829055506040518181527f616d92add029a1b8ad2a3109f3fafb9edf08ab3125fde93422e7485d7d421eec9060200160405180910390a150565b600054610100900460ff1680610e24575060005460ff16155b610e875760405162461bcd60e51b815260206004820152602e60248201527f496e697469616c697a61626c653a20636f6e747261637420697320616c72656160448201526d191e481a5b9a5d1a585b1a5e995960921b6064820152608401610586565b600054610100900460ff16158015610ea9576000805461ffff19166101011790555b6000839050806001600160a01b031663ba84fd696040518163ffffffff1660e01b815260040160206040518083038186803b158015610ee757600080fd5b505afa158015610efb573d6000803e3d6000fd5b505050506040513d601f19601f82011682018060405250810190610f1f91906112aa565b610f2857600080fd5b6003805460016001600160a81b03199091166101006001600160a01b0385160260ff1916178117909155612710905560028390556040518381527f616d92add029a1b8ad2a3109f3fafb9edf08ab3125fde93422e7485d7d421eec9060200160405180910390a1508015610fa2576000805461ff00191690555b505050565b60035461010090046001600160a01b0316638413ec14610fc56111f6565b6040516001600160e01b031960e084901b1681526001600160a01b03909116600482015260240160006040518083038186803b15801561100457600080fd5b505afa158015611018573d6000803e3d6000fd5b5050600080546001600160a01b03909416620100000262010000600160b01b0319909416939093179092555050565b60035461010090046001600160a01b0316638413ec146110656111f6565b6040516001600160e01b031960e084901b1681526001600160a01b03909116600482015260240160006040518083038186803b1580156110a457600080fd5b505afa1580156110b8573d6000803e3d6000fd5b5050600780546001600160a01b0319166001600160a01b0394909416939093179092555050565b60035461010090046001600160a01b0316638413ec146110fd6111f6565b6040516001600160e01b031960e084901b1681526001600160a01b03909116600482015260240160006040518083038186803b15801561113c57600080fd5b505afa158015611150573d6000803e3d6000fd5b505050506000819050806001600160a01b031663ed3b0a006040518163ffffffff1660e01b815260040160206040518083038186803b15801561119257600080fd5b505afa1580156111a6573d6000803e3d6000fd5b505050506040513d601f19601f820116820180604052508101906111ca91906112aa565b6111d357600080fd5b600580546001600160a01b0319166001600160a01b039290921691909117905550565b60006014361080159061121957506000546201000090046001600160a01b031633145b1561122b575060131936013560601c90565b503390565b80356001600160a01b038116811461124757600080fd5b919050565b805161ffff8116811461124757600080fd5b60006020828403121561127057600080fd5b61127982611230565b9392505050565b6000806040838503121561129357600080fd5b61129c83611230565b946020939093013593505050565b6000602082840312156112bc57600080fd5b8151801515811461127957600080fd5b600080600080600080600080610100898b0312156112e957600080fd5b6112f28961124c565b975061130060208a0161124c565b965061130e60408a0161124c565b955061131c60608a0161124c565b945061132a60808a0161124c565b935061133860a08a0161124c565b925061134660c08a0161124c565b915061135460e08a0161124c565b90509295985092959890939650565b60006020828403121561137557600080fd5b5035919050565b60006020828403121561138e57600080fd5b5051919050565b600060208083528351808285015260005b818110156113c2578581018301518582016040015282016113a6565b818111156113d4576000604083870101525b50601f01601f1916929092016040019392505050565b998a5260208a019890985261ffff96871660408a01529486166060890152928516608088015290841660a0870152831660c0860152821660e08501528116610100840152166101208201526101400190565b600081600019048311821515161561145657611456611476565b500290565b600060001982141561146f5761146f611476565b5060010190565b634e487b7160e01b600052601160045260246000fdfea2646970667358221220ea43594d8d01071dc6ff8f383e8c489d4ddda26462bbbbb516c5efa434d1b5cd64736f6c63430008060033",
  "immutableReferences": {},
  "source": "//SPDX-License-Identifier: MIT\npragma solidity ^0.8.6;\n\nimport \"@openzeppelin/contracts-upgradeable/proxy/utils/Initializable.sol\";\nimport \"@openzeppelin/contracts-upgradeable/token/ERC20/IERC20Upgradeable.sol\";\nimport \"../access/IAccessRestriction.sol\";\nimport \"../tree/ITreeFactory.sol\";\nimport \"../treasury/IDaiFunds.sol\";\nimport \"../treasury/IFinancialModel.sol\";\nimport \"../gsn/RelayRecipient.sol\";\n\n/** @title RegularSell contract */\ncontract RegularSell is Initializable, RelayRecipient {\n    uint256 public lastSoldRegularTree;\n    uint256 public treePrice;\n    bool public isRegularSell;\n\n    IAccessRestriction public accessRestriction;\n    ITreeFactory public treeFactory;\n    IDaiFunds public daiFunds;\n    IFinancialModel public financialModel;\n    IERC20Upgradeable public daiToken;\n\n    event TreePriceUpdated(uint256 price);\n    event RegularTreeRequsted(uint256 count, address buyer, uint256 amount);\n    event RegularMint(address buyer, uint256 treeId);\n    event RegularTreeRequstedById(\n        uint256 treeId,\n        address buyer,\n        uint256 amount\n    );\n\n    modifier onlyAdmin() {\n        accessRestriction.ifAdmin(_msgSender());\n        _;\n    }\n\n    function initialize(address _accessRestrictionAddress, uint256 _price)\n        public\n        initializer\n    {\n        IAccessRestriction candidateContract = IAccessRestriction(\n            _accessRestrictionAddress\n        );\n        require(candidateContract.isAccessRestriction());\n        accessRestriction = candidateContract;\n\n        isRegularSell = true;\n        lastSoldRegularTree = 10000;\n        treePrice = _price;\n        emit TreePriceUpdated(_price);\n    }\n\n    function setTrustedForwarder(address _address) external onlyAdmin {\n        trustedForwarder = _address;\n    }\n\n    /** @dev set treeFactory contract address\n     * @param _address treeFactory contract address\n     */\n    function setTreeFactoryAddress(address _address) external onlyAdmin {\n        ITreeFactory candidateContract = ITreeFactory(_address);\n\n        require(candidateContract.isTreeFactory());\n\n        treeFactory = candidateContract;\n    }\n\n    /** @dev set daiFunds contract address\n     * @param _address daiFunds contract address\n     */\n    function setDaiFundsAddress(address _address) external onlyAdmin {\n        IDaiFunds candidateContract = IDaiFunds(_address);\n\n        require(candidateContract.isDaiFunds());\n\n        daiFunds = candidateContract;\n    }\n\n    /** @dev set daiToken contract address\n     * @param _address daiToken contract address\n     */\n    function setDaiTokenAddress(address _address) external onlyAdmin {\n        IERC20Upgradeable candidateContract = IERC20Upgradeable(_address);\n        daiToken = candidateContract;\n    }\n\n    /**\n     * @dev admin set FinancialModelAddress\n     * @param _address set to the address of financialModel\n     */\n\n    function setFinancialModelAddress(address _address) external onlyAdmin {\n        IFinancialModel candidateContract = IFinancialModel(_address);\n        require(candidateContract.isFinancialModel());\n        financialModel = candidateContract;\n    }\n\n    /** @dev admin set the price of trees that are sold regular\n     * @param _price price of tree\n     */\n    function setPrice(uint256 _price) external onlyAdmin {\n        treePrice = _price;\n        emit TreePriceUpdated(_price);\n    }\n\n    /** @dev request {_count} trees and the paid amount must be more than\n     * {_count * treePrice }\n     * @param _count is the number of trees requested by user\n     */\n    function requestTrees(uint256 _count) external {\n        require(_count > 0, \"invalid count\");\n\n        uint256 amount = treePrice * _count;\n\n        require(daiToken.balanceOf(_msgSender()) >= amount, \"invalid amount\");\n\n        uint256 tempLastRegularSold = lastSoldRegularTree;\n\n        daiToken.transferFrom(_msgSender(), address(daiFunds), amount);\n\n        emit RegularTreeRequsted(_count, _msgSender(), amount);\n\n        for (uint256 i = 0; i < _count; i++) {\n            tempLastRegularSold = treeFactory.mintRegularTrees(\n                tempLastRegularSold,\n                _msgSender()\n            );\n\n            (\n                uint16 planterFund,\n                uint16 referralFund,\n                uint16 treeResearch,\n                uint16 localDevelop,\n                uint16 rescueFund,\n                uint16 treejerDevelop,\n                uint16 reserveFund1,\n                uint16 reserveFund2\n            ) = financialModel.findTreeDistribution(tempLastRegularSold);\n\n            daiFunds.fundTree(\n                tempLastRegularSold,\n                treePrice,\n                planterFund,\n                referralFund,\n                treeResearch,\n                localDevelop,\n                rescueFund,\n                treejerDevelop,\n                reserveFund1,\n                reserveFund2\n            );\n\n            emit RegularMint(_msgSender(), tempLastRegularSold);\n        }\n\n        lastSoldRegularTree = tempLastRegularSold;\n    }\n\n    /** @dev request  tree with id {_treeId} and the paid amount must be more than\n     * {treePrice} and the {_treeId} must be more than {lastSoldRegularTree} to make sure that\n     * has not been sold before\n     * @param _treeId is the id of tree requested by user\n     */\n    function requestByTreeId(uint256 _treeId) external {\n        require(_treeId > lastSoldRegularTree, \"invalid tree\");\n\n        require(\n            daiToken.balanceOf(_msgSender()) >= treePrice,\n            \"invalid amount\"\n        );\n\n        daiToken.transferFrom(_msgSender(), address(daiFunds), treePrice);\n\n        treeFactory.requestRegularTree(_treeId, _msgSender());\n\n        (\n            uint16 planterFund,\n            uint16 referralFund,\n            uint16 treeResearch,\n            uint16 localDevelop,\n            uint16 rescueFund,\n            uint16 treejerDevelop,\n            uint16 reserveFund1,\n            uint16 reserveFund2\n        ) = financialModel.findTreeDistribution(_treeId);\n\n        daiFunds.fundTree(\n            _treeId,\n            treePrice,\n            planterFund,\n            referralFund,\n            treeResearch,\n            localDevelop,\n            rescueFund,\n            treejerDevelop,\n            reserveFund1,\n            reserveFund2\n        );\n\n        emit RegularTreeRequstedById(_treeId, _msgSender(), treePrice);\n    }\n}\n",
  "sourcePath": "/home/ali/Desktop/treejer/contract/contracts/regularSell/RegularSell.sol",
  "compiler": {
    "name": "solc",
    "version": "0.8.6+commit.11564f7e.Emscripten.clang"
  },
  "schemaVersion": "3.4.1",
  "updatedAt": "2021-08-13T05:21:23.241Z",
  "networkType": "ethereum",
  "devdoc": {
    "kind": "dev",
    "methods": {
      "requestByTreeId(uint256)": {
        "details": "request  tree with id {_treeId} and the paid amount must be more than {treePrice} and the {_treeId} must be more than {lastSoldRegularTree} to make sure that has not been sold before",
        "params": {
          "_treeId": "is the id of tree requested by user"
        }
      },
      "requestTrees(uint256)": {
        "details": "request {_count} trees and the paid amount must be more than {_count * treePrice }",
        "params": {
          "_count": "is the number of trees requested by user"
        }
      },
      "setDaiFundsAddress(address)": {
        "details": "set daiFunds contract address",
        "params": {
          "_address": "daiFunds contract address"
        }
      },
      "setDaiTokenAddress(address)": {
        "details": "set daiToken contract address",
        "params": {
          "_address": "daiToken contract address"
        }
      },
      "setFinancialModelAddress(address)": {
        "details": "admin set FinancialModelAddress",
        "params": {
          "_address": "set to the address of financialModel"
        }
      },
      "setPrice(uint256)": {
        "details": "admin set the price of trees that are sold regular",
        "params": {
          "_price": "price of tree"
        }
      },
      "setTreeFactoryAddress(address)": {
        "details": "set treeFactory contract address",
        "params": {
          "_address": "treeFactory contract address"
        }
      }
    },
    "title": "RegularSell contract ",
    "version": 1
  },
  "userdoc": {
    "kind": "user",
    "methods": {
      "isTrustedForwarder(address)": {
        "notice": "return if the forwarder is trusted to forward relayed transactions to us. the forwarder is required to verify the sender's signature, and verify the call is not a replay."
      }
    },
    "version": 1
  }
}