{
  "contractName": "RegularSell",
  "abi": [
    {
      "anonymous": false,
      "inputs": [
        {
          "indexed": false,
          "internalType": "address",
          "name": "buyer",
          "type": "address"
        },
        {
          "indexed": false,
          "internalType": "uint256",
          "name": "treeId",
          "type": "uint256"
        }
      ],
      "name": "RegularMint",
      "type": "event"
    },
    {
      "anonymous": false,
      "inputs": [
        {
          "indexed": false,
          "internalType": "uint256",
          "name": "count",
          "type": "uint256"
        },
        {
          "indexed": false,
          "internalType": "address",
          "name": "buyer",
          "type": "address"
        },
        {
          "indexed": false,
          "internalType": "uint256",
          "name": "amount",
          "type": "uint256"
        }
      ],
      "name": "RegularTreeRequsted",
      "type": "event"
    },
    {
      "anonymous": false,
      "inputs": [
        {
          "indexed": false,
          "internalType": "uint256",
          "name": "treeId",
          "type": "uint256"
        },
        {
          "indexed": false,
          "internalType": "address",
          "name": "buyer",
          "type": "address"
        },
        {
          "indexed": false,
          "internalType": "uint256",
          "name": "amount",
          "type": "uint256"
        }
      ],
      "name": "RegularTreeRequstedById",
      "type": "event"
    },
    {
      "anonymous": false,
      "inputs": [
        {
          "indexed": false,
          "internalType": "uint256",
          "name": "price",
          "type": "uint256"
        }
      ],
      "name": "TreePriceUpdated",
      "type": "event"
    },
    {
      "inputs": [],
      "name": "accessRestriction",
      "outputs": [
        {
          "internalType": "contract IAccessRestriction",
          "name": "",
          "type": "address"
        }
      ],
      "stateMutability": "view",
      "type": "function",
      "constant": true
    },
    {
      "inputs": [],
      "name": "isRegularSell",
      "outputs": [
        {
          "internalType": "bool",
          "name": "",
          "type": "bool"
        }
      ],
      "stateMutability": "view",
      "type": "function",
      "constant": true
    },
    {
      "inputs": [],
      "name": "lastSoldRegularTree",
      "outputs": [
        {
          "internalType": "uint256",
          "name": "",
          "type": "uint256"
        }
      ],
      "stateMutability": "view",
      "type": "function",
      "constant": true
    },
    {
      "inputs": [],
      "name": "treasury",
      "outputs": [
        {
          "internalType": "contract ITreasury",
          "name": "",
          "type": "address"
        }
      ],
      "stateMutability": "view",
      "type": "function",
      "constant": true
    },
    {
      "inputs": [],
      "name": "treeFactory",
      "outputs": [
        {
          "internalType": "contract ITreeFactory",
          "name": "",
          "type": "address"
        }
      ],
      "stateMutability": "view",
      "type": "function",
      "constant": true
    },
    {
      "inputs": [],
      "name": "treePrice",
      "outputs": [
        {
          "internalType": "uint256",
          "name": "",
          "type": "uint256"
        }
      ],
      "stateMutability": "view",
      "type": "function",
      "constant": true
    },
    {
      "inputs": [
        {
          "internalType": "address",
          "name": "_accessRestrictionAddress",
          "type": "address"
        },
        {
          "internalType": "uint256",
          "name": "_price",
          "type": "uint256"
        }
      ],
      "name": "initialize",
      "outputs": [],
      "stateMutability": "nonpayable",
      "type": "function"
    },
    {
      "inputs": [
        {
          "internalType": "address",
          "name": "_address",
          "type": "address"
        }
      ],
      "name": "setTreeFactoryAddress",
      "outputs": [],
      "stateMutability": "nonpayable",
      "type": "function"
    },
    {
      "inputs": [
        {
          "internalType": "address",
          "name": "_address",
          "type": "address"
        }
      ],
      "name": "setTreasuryAddress",
      "outputs": [],
      "stateMutability": "nonpayable",
      "type": "function"
    },
    {
      "inputs": [
        {
          "internalType": "uint256",
          "name": "_price",
          "type": "uint256"
        }
      ],
      "name": "setPrice",
      "outputs": [],
      "stateMutability": "nonpayable",
      "type": "function"
    },
    {
      "inputs": [
        {
          "internalType": "uint256",
          "name": "_count",
          "type": "uint256"
        }
      ],
      "name": "requestTrees",
      "outputs": [],
      "stateMutability": "payable",
      "type": "function",
      "payable": true
    },
    {
      "inputs": [
        {
          "internalType": "uint256",
          "name": "_treeId",
          "type": "uint256"
        }
      ],
      "name": "requestByTreeId",
      "outputs": [],
      "stateMutability": "payable",
      "type": "function",
      "payable": true
    }
  ],
  "bytecode": "0x608060405234801561001057600080fd5b50610b89806100206000396000f3fe6080604052600436106100a75760003560e01c80636605bfda116100645780636605bfda1461017857806373d87ce21461019857806391b7f5ed146101ab578063cd6dc687146101cb578063d0ae266a146101eb578063d6762c4a1461021557600080fd5b80630605f54c146100ac5780630bf351f8146100d55780631afb8804146100f7578063421ef6d41461010d578063546985951461014557806361d027b314610158575b600080fd5b3480156100b857600080fd5b506100c260025481565b6040519081526020015b60405180910390f35b3480156100e157600080fd5b506100f56100f0366004610a41565b61023a565b005b34801561010357600080fd5b506100c260015481565b34801561011957600080fd5b5060045461012d906001600160a01b031681565b6040516001600160a01b0390911681526020016100cc565b6100f5610153366004610aaf565b61033b565b34801561016457600080fd5b5060055461012d906001600160a01b031681565b34801561018457600080fd5b506100f5610193366004610a41565b6104d1565b6100f56101a6366004610aaf565b6105d2565b3480156101b757600080fd5b506100f56101c6366004610aaf565b6107f5565b3480156101d757600080fd5b506100f56101e6366004610a63565b610889565b3480156101f757600080fd5b506003546102059060ff1681565b60405190151581526020016100cc565b34801561022157600080fd5b5060035461012d9061010090046001600160a01b031681565b600354604051632104fb0560e21b81523360048201526101009091046001600160a01b031690638413ec149060240160006040518083038186803b15801561028157600080fd5b505afa158015610295573d6000803e3d6000fd5b505050506000819050806001600160a01b031663e0eb4eb96040518163ffffffff1660e01b815260040160206040518083038186803b1580156102d757600080fd5b505afa1580156102eb573d6000803e3d6000fd5b505050506040513d601f19601f8201168201806040525081019061030f9190610a8d565b61031857600080fd5b600480546001600160a01b0319166001600160a01b039290921691909117905550565b60015481116103805760405162461bcd60e51b815260206004820152600c60248201526b696e76616c6964207472656560a01b60448201526064015b60405180910390fd5b6002543410156103c35760405162461bcd60e51b815260206004820152600e60248201526d1a5b9d985b1a5908185b5bdd5b9d60921b6044820152606401610377565b6004805460405163e945515760e01b81529182018390523360248301526001600160a01b03169063e945515790604401600060405180830381600087803b15801561040d57600080fd5b505af1158015610421573d6000803e3d6000fd5b5050600554604051639faa98bf60e01b8152600481018590526001600160a01b039091169250639faa98bf915034906024016000604051808303818588803b15801561046c57600080fd5b505af1158015610480573d6000803e3d6000fd5b50506040805185815233602082015234918101919091527f145e37f8e49e9006efd09220d928a1e5b1476109eb7017a877d897cd0ef8815b935060600191506104c69050565b60405180910390a150565b600354604051632104fb0560e21b81523360048201526101009091046001600160a01b031690638413ec149060240160006040518083038186803b15801561051857600080fd5b505afa15801561052c573d6000803e3d6000fd5b505050506000819050806001600160a01b031663842a3bdd6040518163ffffffff1660e01b815260040160206040518083038186803b15801561056e57600080fd5b505afa158015610582573d6000803e3d6000fd5b505050506040513d601f19601f820116820180604052508101906105a69190610a8d565b6105af57600080fd5b600580546001600160a01b0319166001600160a01b039290921691909117905550565b600081116106125760405162461bcd60e51b815260206004820152600d60248201526c1a5b9d985b1a590818dbdd5b9d609a1b6044820152606401610377565b806002546106209190610b03565b3410156106605760405162461bcd60e51b815260206004820152600e60248201526d1a5b9d985b1a5908185b5bdd5b9d60921b6044820152606401610377565b600154600061066f8334610ae1565b60408051858152336020820152348183015290519192507f92e4ed958c339e611b924f2b9809f6991e9b02ff51956cc7ad71a7cc4bb6d9db919081900360600190a160005b838110156107ed5760048054604051632c832b9560e21b81529182018590523360248301526001600160a01b03169063b20cae5490604401602060405180830381600087803b15801561070657600080fd5b505af115801561071a573d6000803e3d6000fd5b505050506040513d601f19601f8201168201806040525081019061073e9190610ac8565b60408051338152602081018390529194507fa530557ca41a1bef2ff90cce7e3a0c90890da5a65c01af3a4b150f7112442f8b910160405180910390a1600554604051639faa98bf60e01b8152600481018590526001600160a01b0390911690639faa98bf9084906024016000604051808303818588803b1580156107c157600080fd5b505af11580156107d5573d6000803e3d6000fd5b505050505080806107e590610b22565b9150506106b4565b505060015550565b600354604051632104fb0560e21b81523360048201526101009091046001600160a01b031690638413ec149060240160006040518083038186803b15801561083c57600080fd5b505afa158015610850573d6000803e3d6000fd5b5050506002829055506040518181527f616d92add029a1b8ad2a3109f3fafb9edf08ab3125fde93422e7485d7d421eec906020016104c6565b600054610100900460ff16806108a2575060005460ff16155b6109055760405162461bcd60e51b815260206004820152602e60248201527f496e697469616c697a61626c653a20636f6e747261637420697320616c72656160448201526d191e481a5b9a5d1a585b1a5e995960921b6064820152608401610377565b600054610100900460ff16158015610927576000805461ffff19166101011790555b6000839050806001600160a01b031663ba84fd696040518163ffffffff1660e01b815260040160206040518083038186803b15801561096557600080fd5b505afa158015610979573d6000803e3d6000fd5b505050506040513d601f19601f8201168201806040525081019061099d9190610a8d565b6109a657600080fd5b6003805460016001600160a81b03199091166101006001600160a01b0385160260ff1916178117909155612710905560028390556040518381527f616d92add029a1b8ad2a3109f3fafb9edf08ab3125fde93422e7485d7d421eec9060200160405180910390a1508015610a20576000805461ff00191690555b505050565b80356001600160a01b0381168114610a3c57600080fd5b919050565b600060208284031215610a5357600080fd5b610a5c82610a25565b9392505050565b60008060408385031215610a7657600080fd5b610a7f83610a25565b946020939093013593505050565b600060208284031215610a9f57600080fd5b81518015158114610a5c57600080fd5b600060208284031215610ac157600080fd5b5035919050565b600060208284031215610ada57600080fd5b5051919050565b600082610afe57634e487b7160e01b600052601260045260246000fd5b500490565b6000816000190483118215151615610b1d57610b1d610b3d565b500290565b6000600019821415610b3657610b36610b3d565b5060010190565b634e487b7160e01b600052601160045260246000fdfea2646970667358221220477eb583da4caf89e2473465f55ecedd623f236767243e763703678749c30d3d64736f6c63430008060033",
  "immutableReferences": {},
  "source": "//SPDX-License-Identifier: MIT\npragma solidity ^0.8.6;\n\nimport \"@openzeppelin/contracts-upgradeable/proxy/utils/Initializable.sol\";\n\nimport \"../access/IAccessRestriction.sol\";\nimport \"../tree/ITreeFactory.sol\";\nimport \"../treasury/ITreasury.sol\";\n\n/** @title RegularSell contract */\ncontract RegularSell is Initializable {\n    uint256 public lastSoldRegularTree;\n    uint256 public treePrice;\n    bool public isRegularSell;\n\n    IAccessRestriction public accessRestriction;\n    ITreeFactory public treeFactory;\n    ITreasury public treasury;\n\n    event TreePriceUpdated(uint256 price);\n    event RegularTreeRequsted(uint256 count, address buyer, uint256 amount);\n    event RegularMint(address buyer, uint256 treeId);\n    event RegularTreeRequstedById(\n        uint256 treeId,\n        address buyer,\n        uint256 amount\n    );\n\n    modifier onlyAdmin() {\n        accessRestriction.ifAdmin(msg.sender);\n        _;\n    }\n\n    function initialize(address _accessRestrictionAddress, uint256 _price)\n        public\n        initializer\n    {\n        IAccessRestriction candidateContract = IAccessRestriction(\n            _accessRestrictionAddress\n        );\n        require(candidateContract.isAccessRestriction());\n        accessRestriction = candidateContract;\n\n        isRegularSell = true;\n        lastSoldRegularTree = 10000;\n        treePrice = _price;\n        emit TreePriceUpdated(_price);\n    }\n\n    /** @dev set treeFactory contract address\n     * @param _address treeFactory contract address\n     */\n    function setTreeFactoryAddress(address _address) external onlyAdmin {\n        ITreeFactory candidateContract = ITreeFactory(_address);\n\n        require(candidateContract.isTreeFactory());\n\n        treeFactory = candidateContract;\n    }\n\n    /** @dev set treasury contract address\n     * @param _address treasury contract address\n     */\n    function setTreasuryAddress(address _address) external onlyAdmin {\n        ITreasury candidateContract = ITreasury(_address);\n\n        require(candidateContract.isTreasury());\n\n        treasury = candidateContract;\n    }\n\n    /** @dev admin set the price of trees that are sold regular\n     * @param _price price of tree\n     */\n    function setPrice(uint256 _price) external onlyAdmin {\n        treePrice = _price;\n        emit TreePriceUpdated(_price);\n    }\n\n    /** @dev request {_count} trees and the paid amount must be more than\n     * {_count * treePrice }\n     * @param _count is the number of trees requested by user\n     */\n    function requestTrees(uint256 _count) external payable {\n        require(_count > 0, \"invalid count\");\n\n        require(msg.value >= treePrice * _count, \"invalid amount\");\n\n        uint256 tempLastRegularSold = lastSoldRegularTree;\n\n        uint256 transferAmount = msg.value / _count;\n\n        emit RegularTreeRequsted(_count, msg.sender, msg.value);\n\n        for (uint256 i = 0; i < _count; i++) {\n            tempLastRegularSold = treeFactory.mintRegularTrees(\n                tempLastRegularSold,\n                msg.sender\n            );\n\n            emit RegularMint(msg.sender, tempLastRegularSold);\n\n            treasury.fundTree{value: transferAmount}(tempLastRegularSold);\n        }\n\n        lastSoldRegularTree = tempLastRegularSold;\n    }\n\n    /** @dev request  tree with id {_treeId} and the paid amount must be more than\n     * {treePrice} and the {_treeId} must be more than {lastSoldRegularTree} to make sure that\n     * has not been sold before\n     * @param _treeId is the id of tree requested by user\n     */\n    function requestByTreeId(uint256 _treeId) external payable {\n        require(_treeId > lastSoldRegularTree, \"invalid tree\");\n        require(msg.value >= treePrice, \"invalid amount\");\n\n        treeFactory.requestRegularTree(_treeId, msg.sender);\n\n        treasury.fundTree{value: msg.value}(_treeId);\n\n        emit RegularTreeRequstedById(_treeId, msg.sender, msg.value);\n    }\n}\n",
  "sourcePath": "/home/ali/Desktop/treejer/contract/contracts/regularSell/RegularSell.sol",
  "compiler": {
    "name": "solc",
    "version": "0.8.6+commit.11564f7e.Emscripten.clang"
  },
  "schemaVersion": "3.4.1",
  "updatedAt": "2021-08-05T11:27:16.585Z",
  "networkType": "ethereum",
  "devdoc": {
    "kind": "dev",
    "methods": {
      "requestByTreeId(uint256)": {
        "details": "request  tree with id {_treeId} and the paid amount must be more than {treePrice} and the {_treeId} must be more than {lastSoldRegularTree} to make sure that has not been sold before",
        "params": {
          "_treeId": "is the id of tree requested by user"
        }
      },
      "requestTrees(uint256)": {
        "details": "request {_count} trees and the paid amount must be more than {_count * treePrice }",
        "params": {
          "_count": "is the number of trees requested by user"
        }
      },
      "setPrice(uint256)": {
        "details": "admin set the price of trees that are sold regular",
        "params": {
          "_price": "price of tree"
        }
      },
      "setTreasuryAddress(address)": {
        "details": "set treasury contract address",
        "params": {
          "_address": "treasury contract address"
        }
      },
      "setTreeFactoryAddress(address)": {
        "details": "set treeFactory contract address",
        "params": {
          "_address": "treeFactory contract address"
        }
      }
    },
    "title": "RegularSell contract ",
    "version": 1
  },
  "userdoc": {
    "kind": "user",
    "methods": {},
    "version": 1
  }
}