{
  "contractName": "RegularSale",
  "abi": [
    {
      "anonymous": false,
      "inputs": [
        {
          "indexed": false,
          "internalType": "uint256",
          "name": "lastFundedTreeId",
          "type": "uint256"
        }
      ],
      "name": "LastFundedTreeIdUpdated",
      "type": "event"
    },
    {
      "anonymous": false,
      "inputs": [
        {
          "indexed": false,
          "internalType": "uint256",
          "name": "maxTreeSupply",
          "type": "uint256"
        }
      ],
      "name": "MaxTreeSupplyUpdated",
      "type": "event"
    },
    {
      "anonymous": false,
      "inputs": [
        {
          "indexed": false,
          "internalType": "uint256",
          "name": "price",
          "type": "uint256"
        }
      ],
      "name": "PriceUpdated",
      "type": "event"
    },
    {
      "anonymous": false,
      "inputs": [
        {
          "indexed": false,
          "internalType": "address",
          "name": "referrer",
          "type": "address"
        },
        {
          "indexed": false,
          "internalType": "uint256",
          "name": "count",
          "type": "uint256"
        },
        {
          "indexed": false,
          "internalType": "uint256",
          "name": "amount",
          "type": "uint256"
        }
      ],
      "name": "ReferralRewardClaimed",
      "type": "event"
    },
    {
      "anonymous": false,
      "inputs": [
        {
          "indexed": false,
          "internalType": "uint256",
          "name": "referralTreePaymentToPlanter",
          "type": "uint256"
        },
        {
          "indexed": false,
          "internalType": "uint256",
          "name": "referralTreePaymentToAmbassador",
          "type": "uint256"
        }
      ],
      "name": "ReferralTreePaymentsUpdated",
      "type": "event"
    },
    {
      "anonymous": false,
      "inputs": [
        {
          "indexed": false,
          "internalType": "uint256",
          "name": "count",
          "type": "uint256"
        }
      ],
      "name": "ReferralTriggerCountUpdated",
      "type": "event"
    },
    {
      "anonymous": false,
      "inputs": [
        {
          "indexed": false,
          "internalType": "address",
          "name": "recipient",
          "type": "address"
        },
        {
          "indexed": false,
          "internalType": "uint256",
          "name": "treeId",
          "type": "uint256"
        },
        {
          "indexed": false,
          "internalType": "uint256",
          "name": "price",
          "type": "uint256"
        }
      ],
      "name": "RegularMint",
      "type": "event"
    },
    {
      "anonymous": false,
      "inputs": [
        {
          "indexed": false,
          "internalType": "address",
          "name": "funder",
          "type": "address"
        },
        {
          "indexed": false,
          "internalType": "address",
          "name": "recipient",
          "type": "address"
        },
        {
          "indexed": false,
          "internalType": "address",
          "name": "referrer",
          "type": "address"
        },
        {
          "indexed": false,
          "internalType": "uint256",
          "name": "count",
          "type": "uint256"
        },
        {
          "indexed": false,
          "internalType": "uint256",
          "name": "amount",
          "type": "uint256"
        }
      ],
      "name": "TreeFunded",
      "type": "event"
    },
    {
      "anonymous": false,
      "inputs": [
        {
          "indexed": false,
          "internalType": "address",
          "name": "funder",
          "type": "address"
        },
        {
          "indexed": false,
          "internalType": "address",
          "name": "recipient",
          "type": "address"
        },
        {
          "indexed": false,
          "internalType": "address",
          "name": "referrer",
          "type": "address"
        },
        {
          "indexed": false,
          "internalType": "uint256",
          "name": "treeId",
          "type": "uint256"
        },
        {
          "indexed": false,
          "internalType": "uint256",
          "name": "amount",
          "type": "uint256"
        }
      ],
      "name": "TreeFundedById",
      "type": "event"
    },
    {
      "inputs": [],
      "name": "accessRestriction",
      "outputs": [
        {
          "internalType": "contract IAccessRestriction",
          "name": "",
          "type": "address"
        }
      ],
      "stateMutability": "view",
      "type": "function",
      "constant": true
    },
    {
      "inputs": [],
      "name": "allocation",
      "outputs": [
        {
          "internalType": "contract IAllocation",
          "name": "",
          "type": "address"
        }
      ],
      "stateMutability": "view",
      "type": "function",
      "constant": true
    },
    {
      "inputs": [],
      "name": "attribute",
      "outputs": [
        {
          "internalType": "contract IAttribute",
          "name": "",
          "type": "address"
        }
      ],
      "stateMutability": "view",
      "type": "function",
      "constant": true
    },
    {
      "inputs": [],
      "name": "daiFund",
      "outputs": [
        {
          "internalType": "contract IDaiFund",
          "name": "",
          "type": "address"
        }
      ],
      "stateMutability": "view",
      "type": "function",
      "constant": true
    },
    {
      "inputs": [],
      "name": "daiToken",
      "outputs": [
        {
          "internalType": "contract IERC20Upgradeable",
          "name": "",
          "type": "address"
        }
      ],
      "stateMutability": "view",
      "type": "function",
      "constant": true
    },
    {
      "inputs": [],
      "name": "isRegularSale",
      "outputs": [
        {
          "internalType": "bool",
          "name": "",
          "type": "bool"
        }
      ],
      "stateMutability": "view",
      "type": "function",
      "constant": true
    },
    {
      "inputs": [
        {
          "internalType": "address",
          "name": "forwarder",
          "type": "address"
        }
      ],
      "name": "isTrustedForwarder",
      "outputs": [
        {
          "internalType": "bool",
          "name": "",
          "type": "bool"
        }
      ],
      "stateMutability": "view",
      "type": "function",
      "constant": true
    },
    {
      "inputs": [],
      "name": "lastFundedTreeId",
      "outputs": [
        {
          "internalType": "uint256",
          "name": "",
          "type": "uint256"
        }
      ],
      "stateMutability": "view",
      "type": "function",
      "constant": true
    },
    {
      "inputs": [],
      "name": "maxTreeSupply",
      "outputs": [
        {
          "internalType": "uint256",
          "name": "",
          "type": "uint256"
        }
      ],
      "stateMutability": "view",
      "type": "function",
      "constant": true
    },
    {
      "inputs": [],
      "name": "planterFundContract",
      "outputs": [
        {
          "internalType": "contract IPlanterFund",
          "name": "",
          "type": "address"
        }
      ],
      "stateMutability": "view",
      "type": "function",
      "constant": true
    },
    {
      "inputs": [],
      "name": "price",
      "outputs": [
        {
          "internalType": "uint256",
          "name": "",
          "type": "uint256"
        }
      ],
      "stateMutability": "view",
      "type": "function",
      "constant": true
    },
    {
      "inputs": [],
      "name": "referralTreePaymentToAmbassador",
      "outputs": [
        {
          "internalType": "uint256",
          "name": "",
          "type": "uint256"
        }
      ],
      "stateMutability": "view",
      "type": "function",
      "constant": true
    },
    {
      "inputs": [],
      "name": "referralTreePaymentToPlanter",
      "outputs": [
        {
          "internalType": "uint256",
          "name": "",
          "type": "uint256"
        }
      ],
      "stateMutability": "view",
      "type": "function",
      "constant": true
    },
    {
      "inputs": [],
      "name": "referralTriggerCount",
      "outputs": [
        {
          "internalType": "uint256",
          "name": "",
          "type": "uint256"
        }
      ],
      "stateMutability": "view",
      "type": "function",
      "constant": true
    },
    {
      "inputs": [
        {
          "internalType": "address",
          "name": "",
          "type": "address"
        }
      ],
      "name": "referrerClaimableTreesDai",
      "outputs": [
        {
          "internalType": "uint256",
          "name": "",
          "type": "uint256"
        }
      ],
      "stateMutability": "view",
      "type": "function",
      "constant": true
    },
    {
      "inputs": [
        {
          "internalType": "address",
          "name": "",
          "type": "address"
        }
      ],
      "name": "referrerClaimableTreesWeth",
      "outputs": [
        {
          "internalType": "uint256",
          "name": "",
          "type": "uint256"
        }
      ],
      "stateMutability": "view",
      "type": "function",
      "constant": true
    },
    {
      "inputs": [
        {
          "internalType": "address",
          "name": "",
          "type": "address"
        }
      ],
      "name": "referrerCount",
      "outputs": [
        {
          "internalType": "uint256",
          "name": "",
          "type": "uint256"
        }
      ],
      "stateMutability": "view",
      "type": "function",
      "constant": true
    },
    {
      "inputs": [],
      "name": "treeFactory",
      "outputs": [
        {
          "internalType": "contract ITreeFactory",
          "name": "",
          "type": "address"
        }
      ],
      "stateMutability": "view",
      "type": "function",
      "constant": true
    },
    {
      "inputs": [],
      "name": "trustedForwarder",
      "outputs": [
        {
          "internalType": "address",
          "name": "",
          "type": "address"
        }
      ],
      "stateMutability": "view",
      "type": "function",
      "constant": true
    },
    {
      "inputs": [],
      "name": "versionRecipient",
      "outputs": [
        {
          "internalType": "string",
          "name": "",
          "type": "string"
        }
      ],
      "stateMutability": "pure",
      "type": "function",
      "constant": true
    },
    {
      "inputs": [],
      "name": "wethFund",
      "outputs": [
        {
          "internalType": "contract IWethFund",
          "name": "",
          "type": "address"
        }
      ],
      "stateMutability": "view",
      "type": "function",
      "constant": true
    },
    {
      "inputs": [
        {
          "internalType": "address",
          "name": "_accessRestrictionAddress",
          "type": "address"
        },
        {
          "internalType": "uint256",
          "name": "_price",
          "type": "uint256"
        }
      ],
      "name": "initialize",
      "outputs": [],
      "stateMutability": "nonpayable",
      "type": "function"
    },
    {
      "inputs": [
        {
          "internalType": "address",
          "name": "_address",
          "type": "address"
        }
      ],
      "name": "setTrustedForwarder",
      "outputs": [],
      "stateMutability": "nonpayable",
      "type": "function"
    },
    {
      "inputs": [
        {
          "internalType": "address",
          "name": "_address",
          "type": "address"
        }
      ],
      "name": "setTreeFactoryAddress",
      "outputs": [],
      "stateMutability": "nonpayable",
      "type": "function"
    },
    {
      "inputs": [
        {
          "internalType": "address",
          "name": "_address",
          "type": "address"
        }
      ],
      "name": "setDaiFundAddress",
      "outputs": [],
      "stateMutability": "nonpayable",
      "type": "function"
    },
    {
      "inputs": [
        {
          "internalType": "address",
          "name": "_address",
          "type": "address"
        }
      ],
      "name": "setDaiTokenAddress",
      "outputs": [],
      "stateMutability": "nonpayable",
      "type": "function"
    },
    {
      "inputs": [
        {
          "internalType": "address",
          "name": "_address",
          "type": "address"
        }
      ],
      "name": "setAllocationAddress",
      "outputs": [],
      "stateMutability": "nonpayable",
      "type": "function"
    },
    {
      "inputs": [
        {
          "internalType": "address",
          "name": "_address",
          "type": "address"
        }
      ],
      "name": "setPlanterFundAddress",
      "outputs": [],
      "stateMutability": "nonpayable",
      "type": "function"
    },
    {
      "inputs": [
        {
          "internalType": "address",
          "name": "_address",
          "type": "address"
        }
      ],
      "name": "setWethFundAddress",
      "outputs": [],
      "stateMutability": "nonpayable",
      "type": "function"
    },
    {
      "inputs": [
        {
          "internalType": "address",
          "name": "_address",
          "type": "address"
        }
      ],
      "name": "setAttributesAddress",
      "outputs": [],
      "stateMutability": "nonpayable",
      "type": "function"
    },
    {
      "inputs": [
        {
          "internalType": "uint256",
          "name": "_price",
          "type": "uint256"
        }
      ],
      "name": "updatePrice",
      "outputs": [],
      "stateMutability": "nonpayable",
      "type": "function"
    },
    {
      "inputs": [
        {
          "internalType": "uint256",
          "name": "_lastFundedTreeId",
          "type": "uint256"
        }
      ],
      "name": "updateLastFundedTreeId",
      "outputs": [],
      "stateMutability": "nonpayable",
      "type": "function"
    },
    {
      "inputs": [
        {
          "internalType": "uint256",
          "name": "_maxTreeSupply",
          "type": "uint256"
        }
      ],
      "name": "updateMaxTreeSupply",
      "outputs": [],
      "stateMutability": "nonpayable",
      "type": "function"
    },
    {
      "inputs": [
        {
          "internalType": "uint256",
          "name": "_count",
          "type": "uint256"
        },
        {
          "internalType": "address",
          "name": "_referrer",
          "type": "address"
        },
        {
          "internalType": "address",
          "name": "_recipient",
          "type": "address"
        }
      ],
      "name": "fundTree",
      "outputs": [],
      "stateMutability": "nonpayable",
      "type": "function"
    },
    {
      "inputs": [
        {
          "internalType": "uint256",
          "name": "_treeId",
          "type": "uint256"
        },
        {
          "internalType": "address",
          "name": "_referrer",
          "type": "address"
        },
        {
          "internalType": "address",
          "name": "_recipient",
          "type": "address"
        }
      ],
      "name": "fundTreeById",
      "outputs": [],
      "stateMutability": "nonpayable",
      "type": "function"
    },
    {
      "inputs": [
        {
          "internalType": "uint256",
          "name": "_referralTreePaymentToPlanter",
          "type": "uint256"
        },
        {
          "internalType": "uint256",
          "name": "_referralTreePaymentToAmbassador",
          "type": "uint256"
        }
      ],
      "name": "updateReferralTreePayments",
      "outputs": [],
      "stateMutability": "nonpayable",
      "type": "function"
    },
    {
      "inputs": [
        {
          "internalType": "uint256",
          "name": "_count",
          "type": "uint256"
        }
      ],
      "name": "updateReferralTriggerCount",
      "outputs": [],
      "stateMutability": "nonpayable",
      "type": "function"
    },
    {
      "inputs": [
        {
          "internalType": "address",
          "name": "_referrer",
          "type": "address"
        },
        {
          "internalType": "uint256",
          "name": "_count",
          "type": "uint256"
        }
      ],
      "name": "updateReferrerClaimableTreesWeth",
      "outputs": [],
      "stateMutability": "nonpayable",
      "type": "function"
    },
    {
      "inputs": [],
      "name": "claimReferralReward",
      "outputs": [],
      "stateMutability": "nonpayable",
      "type": "function"
    }
  ],
  "bytecode": "0x608060405234801561001057600080fd5b50614073806100206000396000f3fe608060405234801561001057600080fd5b50600436106102ad5760003560e01c80638d6cc56d1161017b578063d3296586116100d8578063e817c1bc1161008c578063f7dff4b011610071578063f7dff4b01461063b578063f976279d1461065b578063fd9da76f1461067b57600080fd5b8063e817c1bc14610615578063f1326b151461062857600080fd5b8063d910412d116100bd578063d910412d146105e6578063da742228146105ef578063e597a4241461060257600080fd5b8063d3296586146105b3578063d6762c4a146105c657600080fd5b8063b1df66651161012f578063c413bac411610114578063c413bac41461056d578063c96bd9ee1461058d578063cd6dc687146105a057600080fd5b8063b1df66651461052d578063be22f5461461054d57600080fd5b80639b4b2c9c116101605780639b4b2c9c14610513578063a035b1fe1461051b578063a44ad5861461052457600080fd5b80638d6cc56d146104ed578063984465f11461050057600080fd5b8063572b6c05116102295780637da0a877116101dd57806380d663ea116101c257806380d663ea1461049a578063881e4cb4146104ba57806388a17bde146104cd57600080fd5b80637da0a877146104615780637fba15ac1461048757600080fd5b80635c4d365f1161020e5780635c4d365f1461042b5780636a837c8e14610434578063716026921461044157600080fd5b8063572b6c05146103d357806359bac35b1461041857600080fd5b806321d9e3d111610280578063486ff0cd11610265578063486ff0cd1461036e5780634ad07f9e146103ad5780634cb5d371146103c057600080fd5b806321d9e3d11461033b578063421ef6d41461034e57600080fd5b80630467db2e146102b25780630bf351f8146102ce57806314b42c77146102e3578063211b1cdd14610328575b600080fd5b6102bb60065481565b6040519081526020015b60405180910390f35b6102e16102dc366004613c79565b610684565b005b600d546103039073ffffffffffffffffffffffffffffffffffffffff1681565b60405173ffffffffffffffffffffffffffffffffffffffff90911681526020016102c5565b6102e1610336366004613c9b565b6107fa565b6102e1610349366004613db0565b6108da565b600c546103039073ffffffffffffffffffffffffffffffffffffffff1681565b604080518082018252601d81527f322e322e302b747265656a65722e6972656c6179726563697069656e74000000602082015290516102c59190613e0e565b6102e16103bb366004613c79565b6114ee565b6102e16103ce366004613db0565b611664565b6104086103e1366004613c79565b60005462010000900473ffffffffffffffffffffffffffffffffffffffff90811691161490565b60405190151581526020016102c5565b6102e1610426366004613c79565b611ea8565b6102bb60035481565b6004546104089060ff1681565b6102bb61044f366004613c79565b600a6020526000908152604090205481565b6000546103039062010000900473ffffffffffffffffffffffffffffffffffffffff1681565b6102e1610495366004613d7e565b61201e565b6011546103039073ffffffffffffffffffffffffffffffffffffffff1681565b6102e16104c8366004613c79565b6121e9565b600f546103039073ffffffffffffffffffffffffffffffffffffffff1681565b6102e16104fb366004613d7e565b61235f565b6102e161050e366004613d7e565b6124b8565b6102e16126a2565b6102bb60025481565b6102bb60055481565b600e546103039073ffffffffffffffffffffffffffffffffffffffff1681565b6010546103039073ffffffffffffffffffffffffffffffffffffffff1681565b6102bb61057b366004613c79565b60096020526000908152604090205481565b6102e161059b366004613c79565b612ca3565b6102e16105ae366004613c9b565b612e19565b6102e16105c1366004613dec565b6130a9565b600b546103039073ffffffffffffffffffffffffffffffffffffffff1681565b6102bb60015481565b6102e16105fd366004613c79565b613214565b6102e1610610366004613d7e565b613383565b6102e1610623366004613c79565b613546565b6102e1610636366004613c79565b6136bc565b6012546103039073ffffffffffffffffffffffffffffffffffffffff1681565b6102bb610669366004613c79565b60086020526000908152604090205481565b6102bb60075481565b600b5473ffffffffffffffffffffffffffffffffffffffff16638413ec146106aa613825565b6040517fffffffff0000000000000000000000000000000000000000000000000000000060e084901b16815273ffffffffffffffffffffffffffffffffffffffff909116600482015260240160006040518083038186803b15801561070e57600080fd5b505afa158015610722573d6000803e3d6000fd5b5050505060008190508073ffffffffffffffffffffffffffffffffffffffff1663e0eb4eb96040518163ffffffff1660e01b815260040160206040518083038186803b15801561077157600080fd5b505afa158015610785573d6000803e3d6000fd5b505050506040513d601f19601f820116820180604052508101906107a99190613cc5565b6107b257600080fd5b600c80547fffffffffffffffffffffffff00000000000000000000000000000000000000001673ffffffffffffffffffffffffffffffffffffffff9290921691909117905550565b600b5473ffffffffffffffffffffffffffffffffffffffff1663ebe6a6f3610820613825565b6040517fffffffff0000000000000000000000000000000000000000000000000000000060e084901b16815273ffffffffffffffffffffffffffffffffffffffff909116600482015260240160006040518083038186803b15801561088457600080fd5b505afa158015610898573d6000803e3d6000fd5b5050505073ffffffffffffffffffffffffffffffffffffffff8216600090815260086020526040812080548392906108d1908490613e81565b90915550505050565b600b60009054906101000a900473ffffffffffffffffffffffffffffffffffffffff1673ffffffffffffffffffffffffffffffffffffffff16634d868f986040518163ffffffff1660e01b815260040160006040518083038186803b15801561094257600080fd5b505afa158015610956573d6000803e3d6000fd5b505050506003548360015461096b9190613e81565b106109d7576040517f08c379a000000000000000000000000000000000000000000000000000000000815260206004820152600a60248201527f6d617820737570706c790000000000000000000000000000000000000000000060448201526064015b60405180910390fd5b6000831180156109e75750606583105b610a4d576040517f08c379a000000000000000000000000000000000000000000000000000000000815260206004820152600d60248201527f696e76616c696420636f756e740000000000000000000000000000000000000060448201526064016109ce565b600073ffffffffffffffffffffffffffffffffffffffff821615610a715781610a79565b610a79613825565b90508273ffffffffffffffffffffffffffffffffffffffff168173ffffffffffffffffffffffffffffffffffffffff161415610b11576040517f08c379a000000000000000000000000000000000000000000000000000000000815260206004820152601760248201527f496e76616c6964207265666572616c206164647265737300000000000000000060448201526064016109ce565b600084600254610b219190613ed4565b601054909150819073ffffffffffffffffffffffffffffffffffffffff166370a08231610b4c613825565b6040517fffffffff0000000000000000000000000000000000000000000000000000000060e084901b16815273ffffffffffffffffffffffffffffffffffffffff909116600482015260240160206040518083038186803b158015610bb057600080fd5b505afa158015610bc4573d6000803e3d6000fd5b505050506040513d601f19601f82011682018060405250810190610be89190613d97565b1015610c50576040517f08c379a000000000000000000000000000000000000000000000000000000000815260206004820152600e60248201527f696e76616c696420616d6f756e7400000000000000000000000000000000000060448201526064016109ce565b60105460009073ffffffffffffffffffffffffffffffffffffffff166323b872dd610c79613825565b600e5460405160e084901b7fffffffff0000000000000000000000000000000000000000000000000000000016815273ffffffffffffffffffffffffffffffffffffffff92831660048201529116602482015260448101859052606401602060405180830381600087803b158015610cf057600080fd5b505af1158015610d04573d6000803e3d6000fd5b505050506040513d601f19601f82011682018060405250810190610d289190613cc5565b905080610d91576040517f08c379a000000000000000000000000000000000000000000000000000000000815260206004820152601560248201527f756e7375636365737366756c207472616e73666572000000000000000000000060448201526064016109ce565b7f036c2aedd2a9fd7043cbdabf33e199aa70cdf09074e600cf862dea17b004188c610dba613825565b6040805173ffffffffffffffffffffffffffffffffffffffff9283168152828716602082015291881690820152606081018890526080810184905260a00160405180910390a160006001549050610e4f60405180610100016040528060008152602001600081526020016000815260200160008152602001600081526020016000815260200160008152602001600081525090565b60005b888110156113de57600c546040517f223475320000000000000000000000000000000000000000000000000000000081526004810185905273ffffffffffffffffffffffffffffffffffffffff888116602483015290911690632234753290604401602060405180830381600087803b158015610ece57600080fd5b505af1158015610ee2573d6000803e3d6000fd5b505050506040513d601f19601f82011682018060405250810190610f069190613d97565b600d546040517fed21496d000000000000000000000000000000000000000000000000000000008152600481018390526001602482015291945060009173ffffffffffffffffffffffffffffffffffffffff9091169063ed21496d90604401602060405180830381600087803b158015610f7f57600080fd5b505af1158015610f93573d6000803e3d6000fd5b505050506040513d601f19601f82011682018060405250810190610fb79190613cc5565b905080611020576040517f08c379a000000000000000000000000000000000000000000000000000000000815260206004820152601760248201527f617474726962757465206e6f742067656e65726174656400000000000000000060448201526064016109ce565b600f546040517f0393f3d300000000000000000000000000000000000000000000000000000000815260048101869052600091829182918291829182918291829173ffffffffffffffffffffffffffffffffffffffff90911690630393f3d39060240161010060405180830381600087803b15801561109e57600080fd5b505af11580156110b2573d6000803e3d6000fd5b505050506040513d601f19601f820116820180604052508101906110d69190613ce7565b975097509750975097509750975097506127108861ffff166002546110fb9190613ed4565b6111059190613e99565b8b518c90611114908390613e81565b9052506002546127109061112d9061ffff8a1690613ed4565b6111379190613e99565b8b6020018181516111489190613e81565b905250600254612710906111619061ffff891690613ed4565b61116b9190613e99565b8b60400181815161117c9190613e81565b905250600254612710906111959061ffff881690613ed4565b61119f9190613e99565b8b6060018181516111b09190613e81565b905250600254612710906111c99061ffff871690613ed4565b6111d39190613e99565b8b6080018181516111e49190613e81565b905250600254612710906111fd9061ffff861690613ed4565b6112079190613e99565b8b60a0018181516112189190613e81565b905250600254612710906112319061ffff851690613ed4565b61123b9190613e99565b8b60c00181815161124c9190613e81565b905250600254612710906112659061ffff841690613ed4565b61126f9190613e99565b8b60e0018181516112809190613e81565b90525060115460025473ffffffffffffffffffffffffffffffffffffffff909116906397795c66908e90612710906112bd9061ffff8e1690613ed4565b6112c79190613e99565b6127108b61ffff166002546112dc9190613ed4565b6112e69190613e99565b6040517fffffffff0000000000000000000000000000000000000000000000000000000060e086901b168152600481019390935260248301919091526044820152606401600060405180830381600087803b15801561134457600080fd5b505af1158015611358573d6000803e3d6000fd5b505050507f60b886b51751221ddd934ac803d3ba36fb23ef92053ffd07f770f2599c0475a58f8d6002546040516113ba9392919073ffffffffffffffffffffffffffffffffffffffff9390931683526020830191909152604082015260600190565b60405180910390a150505050505050505080806113d690613f9c565b915050610e52565b50600e54815160208301516040808501516060860151608087015160a088015160c089015160e08a015195517fe5a41e250000000000000000000000000000000000000000000000000000000081526004810198909852602488019690965260448701939093526064860191909152608485015260a484015260c483019190915260e482015273ffffffffffffffffffffffffffffffffffffffff9091169063e5a41e259061010401600060405180830381600087803b1580156114a157600080fd5b505af11580156114b5573d6000803e3d6000fd5b50505060018390555073ffffffffffffffffffffffffffffffffffffffff8716156114e4576114e4878961388a565b5050505050505050565b600b5473ffffffffffffffffffffffffffffffffffffffff16638413ec14611514613825565b6040517fffffffff0000000000000000000000000000000000000000000000000000000060e084901b16815273ffffffffffffffffffffffffffffffffffffffff909116600482015260240160006040518083038186803b15801561157857600080fd5b505afa15801561158c573d6000803e3d6000fd5b5050505060008190508073ffffffffffffffffffffffffffffffffffffffff1663349904da6040518163ffffffff1660e01b815260040160206040518083038186803b1580156115db57600080fd5b505afa1580156115ef573d6000803e3d6000fd5b505050506040513d601f19601f820116820180604052508101906116139190613cc5565b61161c57600080fd5b601180547fffffffffffffffffffffffff00000000000000000000000000000000000000001673ffffffffffffffffffffffffffffffffffffffff9290921691909117905550565b600b60009054906101000a900473ffffffffffffffffffffffffffffffffffffffff1673ffffffffffffffffffffffffffffffffffffffff16634d868f986040518163ffffffff1660e01b815260040160006040518083038186803b1580156116cc57600080fd5b505afa1580156116e0573d6000803e3d6000fd5b50505050600154831180156116f6575060035483105b61175c576040517f08c379a000000000000000000000000000000000000000000000000000000000815260206004820152600c60248201527f696e76616c69642074726565000000000000000000000000000000000000000060448201526064016109ce565b60025460105473ffffffffffffffffffffffffffffffffffffffff166370a08231611785613825565b6040517fffffffff0000000000000000000000000000000000000000000000000000000060e084901b16815273ffffffffffffffffffffffffffffffffffffffff909116600482015260240160206040518083038186803b1580156117e957600080fd5b505afa1580156117fd573d6000803e3d6000fd5b505050506040513d601f19601f820116820180604052508101906118219190613d97565b1015611889576040517f08c379a000000000000000000000000000000000000000000000000000000000815260206004820152600e60248201527f696e76616c696420616d6f756e7400000000000000000000000000000000000060448201526064016109ce565b600073ffffffffffffffffffffffffffffffffffffffff8216156118ad57816118b5565b6118b5613825565b90508273ffffffffffffffffffffffffffffffffffffffff168173ffffffffffffffffffffffffffffffffffffffff16141561194d576040517f08c379a000000000000000000000000000000000000000000000000000000000815260206004820152601760248201527f496e76616c6964207265666572616c206164647265737300000000000000000060448201526064016109ce565b60105460009073ffffffffffffffffffffffffffffffffffffffff166323b872dd611976613825565b600e5460025460405160e085901b7fffffffff0000000000000000000000000000000000000000000000000000000016815273ffffffffffffffffffffffffffffffffffffffff93841660048201529290911660248301526044820152606401602060405180830381600087803b1580156119f057600080fd5b505af1158015611a04573d6000803e3d6000fd5b505050506040513d601f19601f82011682018060405250810190611a289190613cc5565b905080611a91576040517f08c379a000000000000000000000000000000000000000000000000000000000815260206004820152601560248201527f756e7375636365737366756c207472616e73666572000000000000000000000060448201526064016109ce565b600c546040517f738b11ab0000000000000000000000000000000000000000000000000000000081526004810187905273ffffffffffffffffffffffffffffffffffffffff84811660248301528792879291169063738b11ab90604401600060405180830381600087803b158015611b0857600080fd5b505af1158015611b1c573d6000803e3d6000fd5b5050600d546040517fed21496d00000000000000000000000000000000000000000000000000000000815260048101869052600160248201526000935073ffffffffffffffffffffffffffffffffffffffff909116915063ed21496d90604401602060405180830381600087803b158015611b9657600080fd5b505af1158015611baa573d6000803e3d6000fd5b505050506040513d601f19601f82011682018060405250810190611bce9190613cc5565b905080611c37576040517f08c379a000000000000000000000000000000000000000000000000000000000815260206004820152601760248201527f617474726962757465206e6f742067656e65726174656400000000000000000060448201526064016109ce565b600f546040517f0393f3d300000000000000000000000000000000000000000000000000000000815260048101859052600091829182918291829182918291829173ffffffffffffffffffffffffffffffffffffffff90911690630393f3d39060240161010060405180830381600087803b158015611cb557600080fd5b505af1158015611cc9573d6000803e3d6000fd5b505050506040513d601f19601f82011682018060405250810190611ced9190613ce7565b97509750975097509750975097509750600e60009054906101000a900473ffffffffffffffffffffffffffffffffffffffff1673ffffffffffffffffffffffffffffffffffffffff1663b36758328c6002548b8b8b8b8b8b8b8b6040518b63ffffffff1660e01b8152600401611db99a99989796959493929190998a5260208a019890985261ffff96871660408a01529486166060890152928516608088015290841660a0870152831660c0860152821660e08501528116610100840152166101208201526101400190565b600060405180830381600087803b158015611dd357600080fd5b505af1158015611de7573d6000803e3d6000fd5b5050505073ffffffffffffffffffffffffffffffffffffffff8a1615611e1257611e128a600161388a565b7f01f3b848d675f67a39d4833daeb45e3b87800e009c93b8a15a3eeec44cd355a6611e3b613825565b8e8c8e600254604051611e8e95949392919073ffffffffffffffffffffffffffffffffffffffff958616815293851660208501529190931660408301526060820192909252608081019190915260a00190565b60405180910390a150505050505050505050505050505050565b600b5473ffffffffffffffffffffffffffffffffffffffff16638413ec14611ece613825565b6040517fffffffff0000000000000000000000000000000000000000000000000000000060e084901b16815273ffffffffffffffffffffffffffffffffffffffff909116600482015260240160006040518083038186803b158015611f3257600080fd5b505afa158015611f46573d6000803e3d6000fd5b5050505060008190508073ffffffffffffffffffffffffffffffffffffffff16632f10d7956040518163ffffffff1660e01b815260040160206040518083038186803b158015611f9557600080fd5b505afa158015611fa9573d6000803e3d6000fd5b505050506040513d601f19601f82011682018060405250810190611fcd9190613cc5565b611fd657600080fd5b600f80547fffffffffffffffffffffffff00000000000000000000000000000000000000001673ffffffffffffffffffffffffffffffffffffffff9290921691909117905550565b600b60009054906101000a900473ffffffffffffffffffffffffffffffffffffffff1673ffffffffffffffffffffffffffffffffffffffff16634d868f986040518163ffffffff1660e01b815260040160006040518083038186803b15801561208657600080fd5b505afa15801561209a573d6000803e3d6000fd5b5050600b5473ffffffffffffffffffffffffffffffffffffffff16915063c4d2a31b90506120c6613825565b6040517fffffffff0000000000000000000000000000000000000000000000000000000060e084901b16815273ffffffffffffffffffffffffffffffffffffffff909116600482015260240160006040518083038186803b15801561212a57600080fd5b505afa15801561213e573d6000803e3d6000fd5b5050505060015481116121ad576040517f08c379a000000000000000000000000000000000000000000000000000000000815260206004820152601f60248201527f496e707574206d757374206265206774206c617374207472656520736f6c640060448201526064016109ce565b60018190556040518181527f2066143e84429fe8e16df8598c1ea9f8a9f24f384439008eca306d2161538b21906020015b60405180910390a150565b600b5473ffffffffffffffffffffffffffffffffffffffff16638413ec1461220f613825565b6040517fffffffff0000000000000000000000000000000000000000000000000000000060e084901b16815273ffffffffffffffffffffffffffffffffffffffff909116600482015260240160006040518083038186803b15801561227357600080fd5b505afa158015612287573d6000803e3d6000fd5b5050505060008190508073ffffffffffffffffffffffffffffffffffffffff1663a6cd16fd6040518163ffffffff1660e01b815260040160206040518083038186803b1580156122d657600080fd5b505afa1580156122ea573d6000803e3d6000fd5b505050506040513d601f19601f8201168201806040525081019061230e9190613cc5565b61231757600080fd5b601280547fffffffffffffffffffffffff00000000000000000000000000000000000000001673ffffffffffffffffffffffffffffffffffffffff9290921691909117905550565b600b60009054906101000a900473ffffffffffffffffffffffffffffffffffffffff1673ffffffffffffffffffffffffffffffffffffffff16634d868f986040518163ffffffff1660e01b815260040160006040518083038186803b1580156123c757600080fd5b505afa1580156123db573d6000803e3d6000fd5b5050600b5473ffffffffffffffffffffffffffffffffffffffff16915063c4d2a31b9050612407613825565b6040517fffffffff0000000000000000000000000000000000000000000000000000000060e084901b16815273ffffffffffffffffffffffffffffffffffffffff909116600482015260240160006040518083038186803b15801561246b57600080fd5b505afa15801561247f573d6000803e3d6000fd5b5050506002829055506040518181527f66cbca4f3c64fecf1dcb9ce094abcf7f68c3450a1d4e3a8e917dd621edb4ebe0906020016121de565b600b60009054906101000a900473ffffffffffffffffffffffffffffffffffffffff1673ffffffffffffffffffffffffffffffffffffffff16634d868f986040518163ffffffff1660e01b815260040160006040518083038186803b15801561252057600080fd5b505afa158015612534573d6000803e3d6000fd5b5050600b5473ffffffffffffffffffffffffffffffffffffffff16915063c4d2a31b9050612560613825565b6040517fffffffff0000000000000000000000000000000000000000000000000000000060e084901b16815273ffffffffffffffffffffffffffffffffffffffff909116600482015260240160006040518083038186803b1580156125c457600080fd5b505afa1580156125d8573d6000803e3d6000fd5b50505050806001541061266d576040517f08c379a000000000000000000000000000000000000000000000000000000000815260206004820152602160248201527f6d617820737570706c79206d757374206774206c61737446756e64656454726560448201527f650000000000000000000000000000000000000000000000000000000000000060648201526084016109ce565b60038190556040518181527fb237f1b834dea51ce8ca003e2be7a8efc22e79c852c5afc8bd23163ac76c4de3906020016121de565b600b60009054906101000a900473ffffffffffffffffffffffffffffffffffffffff1673ffffffffffffffffffffffffffffffffffffffff16634d868f986040518163ffffffff1660e01b815260040160006040518083038186803b15801561270a57600080fd5b505afa15801561271e573d6000803e3d6000fd5b50505050600060086000612730613825565b73ffffffffffffffffffffffffffffffffffffffff1673ffffffffffffffffffffffffffffffffffffffff1681526020019081526020016000205460096000612777613825565b73ffffffffffffffffffffffffffffffffffffffff1673ffffffffffffffffffffffffffffffffffffffff168152602001908152602001600020546127bc9190613e81565b905060008111612828576040517f08c379a000000000000000000000000000000000000000000000000000000000815260206004820152601260248201527f696e76616c69642067696674206f776e6572000000000000000000000000000060448201526064016109ce565b6032811115612835575060325b60008160096000612844613825565b73ffffffffffffffffffffffffffffffffffffffff1673ffffffffffffffffffffffffffffffffffffffff168152602001908152602001600020546128899190613f11565b905060007fffffffffffffffffffffffffffffffffffffffffffffffffffffffffffffffff8213156129b5576006546005546128c59190613e81565b6128cf9084613ed4565b905082600960006128de613825565b73ffffffffffffffffffffffffffffffffffffffff1673ffffffffffffffffffffffffffffffffffffffff16815260200190815260200160002060008282546129279190613f85565b9091555050600e546040517f935dd4ac0000000000000000000000000000000000000000000000000000000081526004810183905273ffffffffffffffffffffffffffffffffffffffff9091169063935dd4ac90602401600060405180830381600087803b15801561299857600080fd5b505af11580156129ac573d6000803e3d6000fd5b50505050612c2f565b6000600960006129c3613825565b73ffffffffffffffffffffffffffffffffffffffff1673ffffffffffffffffffffffffffffffffffffffff168152602001908152602001600020541115612b1157600654600554612a149190613e81565b60096000612a20613825565b73ffffffffffffffffffffffffffffffffffffffff1673ffffffffffffffffffffffffffffffffffffffff16815260200190815260200160002054612a659190613ed4565b9050600060096000612a75613825565b73ffffffffffffffffffffffffffffffffffffffff90811682526020820192909252604090810160002092909255600e5491517f935dd4ac0000000000000000000000000000000000000000000000000000000081526004810184905291169063935dd4ac90602401600060405180830381600087803b158015612af857600080fd5b505af1158015612b0c573d6000803e3d6000fd5b505050505b6000600654600554612b239190613e81565b612b2c84613fd5565b612b369190613ed4565b9050612b4183613fd5565b60086000612b4d613825565b73ffffffffffffffffffffffffffffffffffffffff1673ffffffffffffffffffffffffffffffffffffffff1681526020019081526020016000206000828254612b969190613f85565b90915550506012546040517f5242d4440000000000000000000000000000000000000000000000000000000081526004810183905273ffffffffffffffffffffffffffffffffffffffff90911690635242d44490602401600060405180830381600087803b158015612c0757600080fd5b505af1158015612c1b573d6000803e3d6000fd5b505050508082612c2b9190613e81565b9150505b7fce3b3ce90fa7f727cf812c7b66d63765d0e97b4dadd2db11c70ebf96328376f3612c58613825565b6040805173ffffffffffffffffffffffffffffffffffffffff909216825260208201869052810183905260600160405180910390a1612c9e83612c99613825565b61395e565b505050565b600b5473ffffffffffffffffffffffffffffffffffffffff16638413ec14612cc9613825565b6040517fffffffff0000000000000000000000000000000000000000000000000000000060e084901b16815273ffffffffffffffffffffffffffffffffffffffff909116600482015260240160006040518083038186803b158015612d2d57600080fd5b505afa158015612d41573d6000803e3d6000fd5b5050505060008190508073ffffffffffffffffffffffffffffffffffffffff166313e939e26040518163ffffffff1660e01b815260040160206040518083038186803b158015612d9057600080fd5b505afa158015612da4573d6000803e3d6000fd5b505050506040513d601f19601f82011682018060405250810190612dc89190613cc5565b612dd157600080fd5b600d80547fffffffffffffffffffffffff00000000000000000000000000000000000000001673ffffffffffffffffffffffffffffffffffffffff9290921691909117905550565b600054610100900460ff1680612e32575060005460ff16155b612ebe576040517f08c379a000000000000000000000000000000000000000000000000000000000815260206004820152602e60248201527f496e697469616c697a61626c653a20636f6e747261637420697320616c72656160448201527f647920696e697469616c697a656400000000000000000000000000000000000060648201526084016109ce565b600054610100900460ff16158015612efd57600080547fffffffffffffffffffffffffffffffffffffffffffffffffffffffffffff0000166101011790555b60008390508073ffffffffffffffffffffffffffffffffffffffff1663ba84fd696040518163ffffffff1660e01b815260040160206040518083038186803b158015612f4857600080fd5b505afa158015612f5c573d6000803e3d6000fd5b505050506040513d601f19601f82011682018060405250810190612f809190613cc5565b612f8957600080fd5b600b80547fffffffffffffffffffffffff00000000000000000000000000000000000000001673ffffffffffffffffffffffffffffffffffffffff8316179055600480547fffffffffffffffffffffffffffffffffffffffffffffffffffffffffffffff001660019081179091556127109055620f42406003556014600781905560028490556040519081527ffb42eb7bced9c07773455159ea64c6233bfd5d08a1d46475f276302d8c0b71589060200160405180910390a16040518381527f66cbca4f3c64fecf1dcb9ce094abcf7f68c3450a1d4e3a8e917dd621edb4ebe09060200160405180910390a1508015612c9e57600080547fffffffffffffffffffffffffffffffffffffffffffffffffffffffffffff00ff169055505050565b600b60009054906101000a900473ffffffffffffffffffffffffffffffffffffffff1673ffffffffffffffffffffffffffffffffffffffff16634d868f986040518163ffffffff1660e01b815260040160006040518083038186803b15801561311157600080fd5b505afa158015613125573d6000803e3d6000fd5b5050600b5473ffffffffffffffffffffffffffffffffffffffff16915063c4d2a31b9050613151613825565b6040517fffffffff0000000000000000000000000000000000000000000000000000000060e084901b16815273ffffffffffffffffffffffffffffffffffffffff909116600482015260240160006040518083038186803b1580156131b557600080fd5b505afa1580156131c9573d6000803e3d6000fd5b505050600583905550600681905560408051838152602081018390527f5b6d2659e778550dfa407ecbaeb9c5f6287669ec10120c7a828fbdd8303e8211910160405180910390a15050565b600b5473ffffffffffffffffffffffffffffffffffffffff16638413ec1461323a613825565b6040517fffffffff0000000000000000000000000000000000000000000000000000000060e084901b16815273ffffffffffffffffffffffffffffffffffffffff909116600482015260240160006040518083038186803b15801561329e57600080fd5b505afa1580156132b2573d6000803e3d6000fd5b50839250505073ffffffffffffffffffffffffffffffffffffffff8116613335576040517f08c379a000000000000000000000000000000000000000000000000000000000815260206004820152600f60248201527f696e76616c69642061646472657373000000000000000000000000000000000060448201526064016109ce565b506000805473ffffffffffffffffffffffffffffffffffffffff90921662010000027fffffffffffffffffffff0000000000000000000000000000000000000000ffff909216919091179055565b600b60009054906101000a900473ffffffffffffffffffffffffffffffffffffffff1673ffffffffffffffffffffffffffffffffffffffff16634d868f986040518163ffffffff1660e01b815260040160006040518083038186803b1580156133eb57600080fd5b505afa1580156133ff573d6000803e3d6000fd5b5050600b5473ffffffffffffffffffffffffffffffffffffffff16915063c4d2a31b905061342b613825565b6040517fffffffff0000000000000000000000000000000000000000000000000000000060e084901b16815273ffffffffffffffffffffffffffffffffffffffff909116600482015260240160006040518083038186803b15801561348f57600080fd5b505afa1580156134a3573d6000803e3d6000fd5b5050505060008111613511576040517f08c379a000000000000000000000000000000000000000000000000000000000815260206004820152601560248201527f636f756e74206d757374206265206774207a65726f000000000000000000000060448201526064016109ce565b60078190556040518181527ffb42eb7bced9c07773455159ea64c6233bfd5d08a1d46475f276302d8c0b7158906020016121de565b600b5473ffffffffffffffffffffffffffffffffffffffff16638413ec1461356c613825565b6040517fffffffff0000000000000000000000000000000000000000000000000000000060e084901b16815273ffffffffffffffffffffffffffffffffffffffff909116600482015260240160006040518083038186803b1580156135d057600080fd5b505afa1580156135e4573d6000803e3d6000fd5b5050505060008190508073ffffffffffffffffffffffffffffffffffffffff1663ab7806a26040518163ffffffff1660e01b815260040160206040518083038186803b15801561363357600080fd5b505afa158015613647573d6000803e3d6000fd5b505050506040513d601f19601f8201168201806040525081019061366b9190613cc5565b61367457600080fd5b600e80547fffffffffffffffffffffffff00000000000000000000000000000000000000001673ffffffffffffffffffffffffffffffffffffffff9290921691909117905550565b600b5473ffffffffffffffffffffffffffffffffffffffff16638413ec146136e2613825565b6040517fffffffff0000000000000000000000000000000000000000000000000000000060e084901b16815273ffffffffffffffffffffffffffffffffffffffff909116600482015260240160006040518083038186803b15801561374657600080fd5b505afa15801561375a573d6000803e3d6000fd5b50839250505073ffffffffffffffffffffffffffffffffffffffff81166137dd576040517f08c379a000000000000000000000000000000000000000000000000000000000815260206004820152600f60248201527f696e76616c69642061646472657373000000000000000000000000000000000060448201526064016109ce565b50601080547fffffffffffffffffffffffff00000000000000000000000000000000000000001673ffffffffffffffffffffffffffffffffffffffff92909216919091179055565b600060143610801590613855575060005462010000900473ffffffffffffffffffffffffffffffffffffffff1633145b1561388557507fffffffffffffffffffffffffffffffffffffffffffffffffffffffffffffffec36013560601c90565b503390565b73ffffffffffffffffffffffffffffffffffffffff82166000908152600a60205260408120546138bb908390613e81565b90506007548110613931576000600754826138d69190613e99565b9050600754816138e69190613ed4565b6138f09083613f85565b73ffffffffffffffffffffffffffffffffffffffff851660009081526009602052604081208054929450839290919061392a908490613e81565b9091555050505b73ffffffffffffffffffffffffffffffffffffffff9092166000908152600a602052604090209190915550565b60015460005b83811015613c3657600c546040517f223475320000000000000000000000000000000000000000000000000000000081526004810184905273ffffffffffffffffffffffffffffffffffffffff858116602483015290911690632234753290604401602060405180830381600087803b1580156139e057600080fd5b505af11580156139f4573d6000803e3d6000fd5b505050506040513d601f19601f82011682018060405250810190613a189190613d97565b600d546040517fed21496d000000000000000000000000000000000000000000000000000000008152600481018390526001602482015291935060009173ffffffffffffffffffffffffffffffffffffffff9091169063ed21496d90604401602060405180830381600087803b158015613a9157600080fd5b505af1158015613aa5573d6000803e3d6000fd5b505050506040513d601f19601f82011682018060405250810190613ac99190613cc5565b905080613b32576040517f08c379a000000000000000000000000000000000000000000000000000000000815260206004820152601760248201527f617474726962757465206e6f742067656e65726174656400000000000000000060448201526064016109ce565b6011546005546006546040517f97795c66000000000000000000000000000000000000000000000000000000008152600481018790526024810192909252604482015273ffffffffffffffffffffffffffffffffffffffff909116906397795c6690606401600060405180830381600087803b158015613bb157600080fd5b505af1158015613bc5573d6000803e3d6000fd5b50506002546040805173ffffffffffffffffffffffffffffffffffffffff891681526020810188905280820192909252517f60b886b51751221ddd934ac803d3ba36fb23ef92053ffd07f770f2599c0475a59350908190036060019150a15080613c2e81613f9c565b915050613964565b506001555050565b803573ffffffffffffffffffffffffffffffffffffffff81168114613c6257600080fd5b919050565b805161ffff81168114613c6257600080fd5b600060208284031215613c8b57600080fd5b613c9482613c3e565b9392505050565b60008060408385031215613cae57600080fd5b613cb783613c3e565b946020939093013593505050565b600060208284031215613cd757600080fd5b81518015158114613c9457600080fd5b600080600080600080600080610100898b031215613d0457600080fd5b613d0d89613c67565b9750613d1b60208a01613c67565b9650613d2960408a01613c67565b9550613d3760608a01613c67565b9450613d4560808a01613c67565b9350613d5360a08a01613c67565b9250613d6160c08a01613c67565b9150613d6f60e08a01613c67565b90509295985092959890939650565b600060208284031215613d9057600080fd5b5035919050565b600060208284031215613da957600080fd5b5051919050565b600080600060608486031215613dc557600080fd5b83359250613dd560208501613c3e565b9150613de360408501613c3e565b90509250925092565b60008060408385031215613dff57600080fd5b50508035926020909101359150565b600060208083528351808285015260005b81811015613e3b57858101830151858201604001528201613e1f565b81811115613e4d576000604083870101525b50601f017fffffffffffffffffffffffffffffffffffffffffffffffffffffffffffffffe016929092016040019392505050565b60008219821115613e9457613e9461400e565b500190565b600082613ecf577f4e487b7100000000000000000000000000000000000000000000000000000000600052601260045260246000fd5b500490565b6000817fffffffffffffffffffffffffffffffffffffffffffffffffffffffffffffffff0483118215151615613f0c57613f0c61400e565b500290565b6000808312837f800000000000000000000000000000000000000000000000000000000000000001831281151615613f4b57613f4b61400e565b837f7fffffffffffffffffffffffffffffffffffffffffffffffffffffffffffffff018313811615613f7f57613f7f61400e565b50500390565b600082821015613f9757613f9761400e565b500390565b60007fffffffffffffffffffffffffffffffffffffffffffffffffffffffffffffffff821415613fce57613fce61400e565b5060010190565b60007f80000000000000000000000000000000000000000000000000000000000000008214156140075761400761400e565b5060000390565b7f4e487b7100000000000000000000000000000000000000000000000000000000600052601160045260246000fdfea2646970667358221220e27d7a3bb169c7ecde916c237508eb72379a19e025bbd3d5f4b4c30605beee3364736f6c63430008060033",
  "immutableReferences": {},
  "source": "// SPDX-License-Identifier: GPL-3.0\n\npragma solidity ^0.8.6;\n\nimport \"@openzeppelin/contracts-upgradeable/proxy/utils/Initializable.sol\";\nimport \"@openzeppelin/contracts-upgradeable/token/ERC20/IERC20Upgradeable.sol\";\nimport \"../access/IAccessRestriction.sol\";\nimport \"../tree/ITreeFactory.sol\";\nimport \"../treasury/IDaiFund.sol\";\nimport \"../tree/IAttribute.sol\";\nimport \"../treasury/IAllocation.sol\";\nimport \"../gsn/RelayRecipient.sol\";\nimport \"../treasury/IPlanterFund.sol\";\nimport \"../treasury/IWethFund.sol\";\nimport \"./IRegularSale.sol\";\n\n/** @title RegularSale contract */\ncontract RegularSale is Initializable, RelayRecipient, IRegularSale {\n    struct TotalBalances {\n        uint256 planter;\n        uint256 ambassador;\n        uint256 research;\n        uint256 localDevelopment;\n        uint256 insurance;\n        uint256 treasury;\n        uint256 reserve1;\n        uint256 reserve2;\n    }\n\n    uint256 public override lastFundedTreeId;\n    uint256 public override price;\n    uint256 public override maxTreeSupply;\n\n    /** NOTE {isRegularSale} set inside the initialize to {true} */\n    bool public override isRegularSale;\n\n    /** NOTE referralTreePaymentToPlanter amount */\n    uint256 public override referralTreePaymentToPlanter;\n\n    /** NOTE referralTreePaymentToAmbassador amount */\n    uint256 public override referralTreePaymentToAmbassador;\n    /** NOTE referralTriggerCount   */\n    uint256 public override referralTriggerCount;\n    /** NOTE mapping of referrer address to claimableTreesWeth */\n    mapping(address => uint256) public override referrerClaimableTreesWeth;\n    /** NOTE mapping of referrer address to claimableTreesDai */\n    mapping(address => uint256) public override referrerClaimableTreesDai;\n    /** NOTE mapping of referrer address to referrerCount */\n    mapping(address => uint256) public override referrerCount;\n\n    IAccessRestriction public accessRestriction;\n    ITreeFactory public treeFactory;\n    IAttribute public attribute;\n    IDaiFund public daiFund;\n    IAllocation public allocation;\n    IERC20Upgradeable public daiToken;\n    IPlanterFund public planterFundContract;\n    IWethFund public wethFund;\n\n    /** NOTE modifier to check msg.sender has admin role */\n    modifier onlyAdmin() {\n        accessRestriction.ifAdmin(_msgSender());\n        _;\n    }\n\n    /** NOTE modifier to check msg.sender has data manager role */\n    modifier onlyDataManager() {\n        accessRestriction.ifDataManager(_msgSender());\n        _;\n    }\n\n    /** NOTE modifier for check if function is not paused */\n    modifier ifNotPaused() {\n        accessRestriction.ifNotPaused();\n        _;\n    }\n\n    /** NOTE modifier for check msg.sender has TreejerContract role*/\n    modifier onlyTreejerContract() {\n        accessRestriction.ifTreejerContract(_msgSender());\n        _;\n    }\n\n    /** NOTE modifier for check valid address */\n    modifier validAddress(address _address) {\n        require(_address != address(0), \"invalid address\");\n        _;\n    }\n\n    /**\n     * @dev initialize AccessRestriction contract and set true for isRegularSale\n     * set {_price} to tree price and 10000 to lastFundedTreeId and 20 to referralTriggerCount\n     * @param _accessRestrictionAddress set to the address of AccessRestriction contract\n     * @param _price initial tree price\n     */\n    function initialize(address _accessRestrictionAddress, uint256 _price)\n        external\n        override\n        initializer\n    {\n        IAccessRestriction candidateContract = IAccessRestriction(\n            _accessRestrictionAddress\n        );\n        require(candidateContract.isAccessRestriction());\n        accessRestriction = candidateContract;\n\n        isRegularSale = true;\n        lastFundedTreeId = 10000;\n        maxTreeSupply = 1e6;\n\n        referralTriggerCount = 20;\n        price = _price;\n\n        emit ReferralTriggerCountUpdated(20);\n        emit PriceUpdated(_price);\n    }\n\n    // **** SET ADDRESS SECTION ****\n\n    /**\n     * @dev admin set trusted forwarder address\n     * @param _address set to {trustedForwarder}\n     */\n    function setTrustedForwarder(address _address)\n        external\n        override\n        onlyAdmin\n        validAddress(_address)\n    {\n        trustedForwarder = _address;\n    }\n\n    /** @dev admin set TreeFactory contract address\n     * @param _address set to the address of TreeFactory contract\n     */\n    function setTreeFactoryAddress(address _address)\n        external\n        override\n        onlyAdmin\n    {\n        ITreeFactory candidateContract = ITreeFactory(_address);\n\n        require(candidateContract.isTreeFactory());\n\n        treeFactory = candidateContract;\n    }\n\n    /** @dev admin set DaiFund contract address\n     * @param _address set to the address of DaiFund contract\n     */\n    function setDaiFundAddress(address _address) external override onlyAdmin {\n        IDaiFund candidateContract = IDaiFund(_address);\n\n        require(candidateContract.isDaiFund());\n\n        daiFund = candidateContract;\n    }\n\n    function setDaiTokenAddress(address _address)\n        external\n        override\n        onlyAdmin\n        validAddress(_address)\n    {\n        IERC20Upgradeable candidateContract = IERC20Upgradeable(_address);\n        daiToken = candidateContract;\n    }\n\n    /**\n     * @dev admin set Allocation contract address\n     * @param _address set to the address of Allocation contract\n     */\n    function setAllocationAddress(address _address)\n        external\n        override\n        onlyAdmin\n    {\n        IAllocation candidateContract = IAllocation(_address);\n        require(candidateContract.isAllocation());\n        allocation = candidateContract;\n    }\n\n    /** @dev admin set PlanterFund contract address\n     * @param _address set to the address of PlanterFund contract\n     */\n    function setPlanterFundAddress(address _address)\n        external\n        override\n        onlyAdmin\n    {\n        IPlanterFund candidateContract = IPlanterFund(_address);\n\n        require(candidateContract.isPlanterFund());\n\n        planterFundContract = candidateContract;\n    }\n\n    /** @dev admin set WethFund contract address\n     * @param _address set to the address of WethFund contract\n     */\n    function setWethFundAddress(address _address) external override onlyAdmin {\n        IWethFund candidateContract = IWethFund(_address);\n\n        require(candidateContract.isWethFund());\n\n        wethFund = candidateContract;\n    }\n\n    /**\n     * @dev admin set Attributes contract address\n     * @param _address set to the address of Attribute contract\n     */\n\n    function setAttributesAddress(address _address)\n        external\n        override\n        onlyAdmin\n    {\n        IAttribute candidateContract = IAttribute(_address);\n        require(candidateContract.isAttribute());\n        attribute = candidateContract;\n    }\n\n    // **** FUNDTREE SECTION ****\n\n    /** @dev admin set the price of trees\n     * @param _price price of tree\n     */\n    function updatePrice(uint256 _price)\n        external\n        override\n        ifNotPaused\n        onlyDataManager\n    {\n        price = _price;\n        emit PriceUpdated(_price);\n    }\n\n    /**\n     * @dev admin update lastFundedTreeId\n     * @param _lastFundedTreeId id of last funded tree\n     */\n    function updateLastFundedTreeId(uint256 _lastFundedTreeId)\n        external\n        override\n        ifNotPaused\n        onlyDataManager\n    {\n        require(\n            _lastFundedTreeId > lastFundedTreeId,\n            \"Input must be gt last tree sold\"\n        );\n\n        lastFundedTreeId = _lastFundedTreeId;\n\n        emit LastFundedTreeIdUpdated(_lastFundedTreeId);\n    }\n\n    /**\n     * @dev admin update maxTreeSupply\n     */\n    function updateMaxTreeSupply(uint256 _maxTreeSupply)\n        external\n        override\n        ifNotPaused\n        onlyDataManager\n    {\n        require(\n            lastFundedTreeId < _maxTreeSupply,\n            \"max supply must gt lastFundedTree\"\n        );\n\n        maxTreeSupply = _maxTreeSupply;\n\n        emit MaxTreeSupplyUpdated(_maxTreeSupply);\n    }\n\n    /**\n     * @dev fund {_count} tree\n     * NOTE if {_recipient} address exist trees minted to the {_recipient}\n     * and mint to the function caller otherwise\n     * NOTE function caller pay for the price of trees\n     * NOTE based on the allocation data for tree totalBalances and PlanterFund\n     * contract balance and projected earnings updated\n     * NOTE generate unique symbols for trees\n     * NOTE if referrer address exists {_count} added to the referrerCount\n     * @param _count number of trees to fund\n     * @param _referrer address of referrer\n     * @param _recipient address of recipient\n     */\n    function fundTree(\n        uint256 _count,\n        address _referrer,\n        address _recipient\n    ) external override ifNotPaused {\n        require(lastFundedTreeId + _count < maxTreeSupply, \"max supply\");\n\n        require(_count > 0 && _count < 101, \"invalid count\");\n\n        address recipient = _recipient == address(0)\n            ? _msgSender()\n            : _recipient;\n\n        require(recipient != _referrer, \"Invalid referal address\");\n\n        uint256 totalPrice = price * _count;\n\n        require(\n            daiToken.balanceOf(_msgSender()) >= totalPrice,\n            \"invalid amount\"\n        );\n\n        bool success = daiToken.transferFrom(\n            _msgSender(),\n            address(daiFund),\n            totalPrice\n        );\n\n        require(success, \"unsuccessful transfer\");\n\n        emit TreeFunded(_msgSender(), recipient, _referrer, _count, totalPrice);\n\n        uint256 tempLastFundedTreeId = lastFundedTreeId;\n\n        TotalBalances memory totalBalances;\n\n        for (uint256 i = 0; i < _count; i++) {\n            tempLastFundedTreeId = treeFactory.mintTree(\n                tempLastFundedTreeId,\n                recipient\n            );\n\n            bool successAttr = attribute.createAttribute(\n                tempLastFundedTreeId,\n                1\n            );\n\n            require(successAttr, \"attribute not generated\");\n\n            (\n                uint16 planterShare,\n                uint16 ambassadorShare,\n                uint16 researchShare,\n                uint16 localDevelopmentShare,\n                uint16 insuranceShare,\n                uint16 treasuryShare,\n                uint16 reserve1Share,\n                uint16 reserve2Share\n            ) = allocation.findAllocationData(tempLastFundedTreeId);\n\n            totalBalances.planter += (price * planterShare) / 10000;\n            totalBalances.ambassador += (price * ambassadorShare) / 10000;\n            totalBalances.research += (price * researchShare) / 10000;\n            totalBalances.localDevelopment +=\n                (price * localDevelopmentShare) /\n                10000;\n            totalBalances.insurance += (price * insuranceShare) / 10000;\n            totalBalances.treasury += (price * treasuryShare) / 10000;\n            totalBalances.reserve1 += (price * reserve1Share) / 10000;\n            totalBalances.reserve2 += (price * reserve2Share) / 10000;\n\n            planterFundContract.updateProjectedEarnings(\n                tempLastFundedTreeId,\n                (price * planterShare) / 10000,\n                (price * ambassadorShare) / 10000\n            );\n\n            emit RegularMint(recipient, tempLastFundedTreeId, price);\n        }\n\n        daiFund.fundTreeBatch(\n            totalBalances.planter,\n            totalBalances.ambassador,\n            totalBalances.research,\n            totalBalances.localDevelopment,\n            totalBalances.insurance,\n            totalBalances.treasury,\n            totalBalances.reserve1,\n            totalBalances.reserve2\n        );\n\n        lastFundedTreeId = tempLastFundedTreeId;\n\n        if (_referrer != address(0)) {\n            _calculateReferrerCount(_referrer, _count);\n        }\n    }\n\n    /**\n     * @dev fund {_count} tree\n     * NOTE if {_recipient} address exist tree minted to the {_recipient}\n     * and mint to the function caller otherwise\n     * NOTE function caller pay for the price of trees\n     * NOTE based on the allocation data for tree totalBalances and PlanterFund\n     * contract balance and projected earnings updated\n     * NOTE generate unique symbols for trees\n     * NOTE if referrer address exists {_count} added to the referrerCount\n     * @param _treeId id of tree to fund\n     * @param _referrer address of referrer\n     * @param _recipient address of recipient\n     */\n    function fundTreeById(\n        uint256 _treeId,\n        address _referrer,\n        address _recipient\n    ) external override ifNotPaused {\n        require(\n            _treeId > lastFundedTreeId && _treeId < maxTreeSupply,\n            \"invalid tree\"\n        );\n\n        require(daiToken.balanceOf(_msgSender()) >= price, \"invalid amount\");\n\n        address recipient = _recipient == address(0)\n            ? _msgSender()\n            : _recipient;\n\n        require(recipient != _referrer, \"Invalid referal address\");\n\n        bool success = daiToken.transferFrom(\n            _msgSender(),\n            address(daiFund),\n            price\n        );\n\n        require(success, \"unsuccessful transfer\");\n\n        uint256 treeId = _treeId;\n        address referrer = _referrer;\n\n        treeFactory.mintTreeById(treeId, recipient);\n\n        bool successAttr = attribute.createAttribute(treeId, 1);\n\n        require(successAttr, \"attribute not generated\");\n\n        (\n            uint16 planterShare,\n            uint16 ambassadorShare,\n            uint16 researchShare,\n            uint16 localDevelopmentmentShare,\n            uint16 insuranceShare,\n            uint16 treasuryShare,\n            uint16 reserve1Share,\n            uint16 reserve2Share\n        ) = allocation.findAllocationData(treeId);\n\n        daiFund.fundTree(\n            treeId,\n            price,\n            planterShare,\n            ambassadorShare,\n            researchShare,\n            localDevelopmentmentShare,\n            insuranceShare,\n            treasuryShare,\n            reserve1Share,\n            reserve2Share\n        );\n\n        if (referrer != address(0)) {\n            _calculateReferrerCount(referrer, 1);\n        }\n\n        emit TreeFundedById(_msgSender(), recipient, referrer, treeId, price);\n    }\n\n    // **** REFERRAL SECTION ****\n\n    /**\n     * @dev admin update referral tree payments\n     * @param _referralTreePaymentToPlanter is referral tree payment to planter amount\n     * @param _referralTreePaymentToAmbassador is referral tree payment to ambassador amount\n     */\n    function updateReferralTreePayments(\n        uint256 _referralTreePaymentToPlanter,\n        uint256 _referralTreePaymentToAmbassador\n    ) external override ifNotPaused onlyDataManager {\n        referralTreePaymentToPlanter = _referralTreePaymentToPlanter;\n        referralTreePaymentToAmbassador = _referralTreePaymentToAmbassador;\n\n        emit ReferralTreePaymentsUpdated(\n            _referralTreePaymentToPlanter,\n            _referralTreePaymentToAmbassador\n        );\n    }\n\n    /**\n     * @dev admin update referral trigger count\n     * @param _count number set to referralTriggerCount\n     */\n    function updateReferralTriggerCount(uint256 _count)\n        external\n        override\n        ifNotPaused\n        onlyDataManager\n    {\n        require(_count > 0, \"count must be gt zero\");\n        referralTriggerCount = _count;\n        emit ReferralTriggerCountUpdated(_count);\n    }\n\n    /**\n     * @dev update referrer claimable trees\n     * @param _referrer address of referrer\n     * @param _count amount added to referrerClaimableTreesWeth\n     */\n    function updateReferrerClaimableTreesWeth(address _referrer, uint256 _count)\n        external\n        override\n        onlyTreejerContract\n    {\n        referrerClaimableTreesWeth[_referrer] += _count;\n    }\n\n    /**\n     * @dev referrer claim rewards and trees mint to the referral\n     * NOTE referrer can claim up to 45 trees in each request\n     */\n    function claimReferralReward() external override ifNotPaused {\n        uint256 claimableTreesCount = referrerClaimableTreesDai[_msgSender()] +\n            referrerClaimableTreesWeth[_msgSender()];\n        require(claimableTreesCount > 0, \"invalid gift owner\");\n\n        if (claimableTreesCount > 50) {\n            claimableTreesCount = 50;\n        }\n\n        int256 difference = int256(referrerClaimableTreesDai[_msgSender()]) -\n            int256(claimableTreesCount);\n        uint256 totalPrice = 0;\n        if (difference > -1) {\n            totalPrice =\n                claimableTreesCount *\n                (referralTreePaymentToPlanter +\n                    referralTreePaymentToAmbassador);\n            referrerClaimableTreesDai[_msgSender()] -= claimableTreesCount;\n            daiFund.transferReferrerDai(totalPrice);\n        } else {\n            if (referrerClaimableTreesDai[_msgSender()] > 0) {\n                totalPrice =\n                    referrerClaimableTreesDai[_msgSender()] *\n                    (referralTreePaymentToPlanter +\n                        referralTreePaymentToAmbassador);\n                referrerClaimableTreesDai[_msgSender()] = 0;\n                daiFund.transferReferrerDai(totalPrice);\n            }\n            uint256 claimableTreesWethTotalPrice = uint256(-difference) *\n                (referralTreePaymentToPlanter +\n                    referralTreePaymentToAmbassador);\n            referrerClaimableTreesWeth[_msgSender()] -= uint256(-difference);\n            wethFund.updateDaiDebtToPlanterContract(\n                claimableTreesWethTotalPrice\n            );\n            totalPrice += claimableTreesWethTotalPrice;\n        }\n        emit ReferralRewardClaimed(\n            _msgSender(),\n            claimableTreesCount,\n            totalPrice\n        );\n        _mintReferralReward(claimableTreesCount, _msgSender());\n    }\n\n    /**\n     * @dev update referrerCount and calculate referrerClaimableTreesDai based on\n     * referrerCount and referralTriggerCount\n     * @param _referrer address of referrer\n     * @param _count added number to referrerCount of referrer\n     */\n    function _calculateReferrerCount(address _referrer, uint256 _count)\n        private\n    {\n        uint256 tempReferrerCount = referrerCount[_referrer] + _count;\n\n        if (tempReferrerCount >= referralTriggerCount) {\n            uint256 toClaimCount = tempReferrerCount / referralTriggerCount;\n            tempReferrerCount -= toClaimCount * referralTriggerCount;\n            referrerClaimableTreesDai[_referrer] += toClaimCount;\n        }\n\n        referrerCount[_referrer] = tempReferrerCount;\n    }\n\n    /**\n     * @dev mint trees to the referral and update projected earnings\n     * @param _count number of trees to mint\n     * @param _referrer address of referrer\n     */\n    function _mintReferralReward(uint256 _count, address _referrer) private {\n        uint256 tempLastFundedTreeId = lastFundedTreeId;\n\n        for (uint256 i = 0; i < _count; i++) {\n            tempLastFundedTreeId = treeFactory.mintTree(\n                tempLastFundedTreeId,\n                _referrer\n            );\n\n            bool successAttr = attribute.createAttribute(\n                tempLastFundedTreeId,\n                1\n            );\n\n            require(successAttr, \"attribute not generated\");\n\n            planterFundContract.updateProjectedEarnings(\n                tempLastFundedTreeId,\n                referralTreePaymentToPlanter,\n                referralTreePaymentToAmbassador\n            );\n\n            emit RegularMint(_referrer, tempLastFundedTreeId, price);\n        }\n\n        lastFundedTreeId = tempLastFundedTreeId;\n    }\n}\n",
  "sourcePath": "/home/ali/Desktop/treejer/contract/contracts/regularSale/RegularSale.sol",
  "compiler": {
    "name": "solc",
    "version": "0.8.6+commit.11564f7e.Emscripten.clang"
  },
  "schemaVersion": "3.4.3",
  "updatedAt": "2022-01-11T12:01:47.792Z",
  "networkType": "ethereum",
  "devdoc": {
    "kind": "dev",
    "methods": {
      "claimReferralReward()": {
        "details": "referrer claim rewards and trees mint to the referral NOTE referrer can claim up to 45 trees in each request"
      },
      "fundTree(uint256,address,address)": {
        "details": "fund {_count} tree NOTE if {_recipient} address exist trees minted to the {_recipient} and mint to the function caller otherwise NOTE function caller pay for the price of trees NOTE based on the allocation data for tree totalBalances and PlanterFund contract balance and projected earnings updated NOTE generate unique symbols for trees NOTE if referrer address exists {_count} added to the referrerCount",
        "params": {
          "_count": "number of trees to fund",
          "_recipient": "address of recipient",
          "_referrer": "address of referrer"
        }
      },
      "fundTreeById(uint256,address,address)": {
        "details": "fund {_count} tree NOTE if {_recipient} address exist tree minted to the {_recipient} and mint to the function caller otherwise NOTE function caller pay for the price of trees NOTE based on the allocation data for tree totalBalances and PlanterFund contract balance and projected earnings updated NOTE generate unique symbols for trees NOTE if referrer address exists {_count} added to the referrerCount",
        "params": {
          "_recipient": "address of recipient",
          "_referrer": "address of referrer",
          "_treeId": "id of tree to fund"
        }
      },
      "initialize(address,uint256)": {
        "details": "initialize AccessRestriction contract and set true for isRegularSale set {_price} to tree price and 10000 to lastFundedTreeId and 20 to referralTriggerCount",
        "params": {
          "_accessRestrictionAddress": "set to the address of AccessRestriction contract",
          "_price": "initial tree price"
        }
      },
      "setAllocationAddress(address)": {
        "details": "admin set Allocation contract address",
        "params": {
          "_address": "set to the address of Allocation contract"
        }
      },
      "setAttributesAddress(address)": {
        "details": "admin set Attributes contract address",
        "params": {
          "_address": "set to the address of Attribute contract"
        }
      },
      "setDaiFundAddress(address)": {
        "details": "admin set DaiFund contract address",
        "params": {
          "_address": "set to the address of DaiFund contract"
        }
      },
      "setDaiTokenAddress(address)": {
        "details": "set {_address} to DaiToken contract address "
      },
      "setPlanterFundAddress(address)": {
        "details": "admin set PlanterFund contract address",
        "params": {
          "_address": "set to the address of PlanterFund contract"
        }
      },
      "setTreeFactoryAddress(address)": {
        "details": "admin set TreeFactory contract address",
        "params": {
          "_address": "set to the address of TreeFactory contract"
        }
      },
      "setTrustedForwarder(address)": {
        "details": "admin set trusted forwarder address",
        "params": {
          "_address": "set to {trustedForwarder}"
        }
      },
      "setWethFundAddress(address)": {
        "details": "admin set WethFund contract address",
        "params": {
          "_address": "set to the address of WethFund contract"
        }
      },
      "updateLastFundedTreeId(uint256)": {
        "details": "admin update lastFundedTreeId",
        "params": {
          "_lastFundedTreeId": "id of last funded tree"
        }
      },
      "updateMaxTreeSupply(uint256)": {
        "details": "admin update maxTreeSupply"
      },
      "updatePrice(uint256)": {
        "details": "admin set the price of trees",
        "params": {
          "_price": "price of tree"
        }
      },
      "updateReferralTreePayments(uint256,uint256)": {
        "details": "admin update referral tree payments",
        "params": {
          "_referralTreePaymentToAmbassador": "is referral tree payment to ambassador amount",
          "_referralTreePaymentToPlanter": "is referral tree payment to planter amount"
        }
      },
      "updateReferralTriggerCount(uint256)": {
        "details": "admin update referral trigger count",
        "params": {
          "_count": "number set to referralTriggerCount"
        }
      },
      "updateReferrerClaimableTreesWeth(address,uint256)": {
        "details": "update referrer claimable trees",
        "params": {
          "_count": "amount added to referrerClaimableTreesWeth",
          "_referrer": "address of referrer"
        }
      },
      "versionRecipient()": {
        "details": "return version recipient "
      }
    },
    "stateVariables": {
      "lastFundedTreeId": {
        "return": "last funded regular tree ",
        "returns": {
          "_0": "last funded regular tree "
        }
      },
      "maxTreeSupply": {
        "return": "last funded regular tree ",
        "returns": {
          "_0": "last funded regular tree "
        }
      },
      "price": {
        "return": "price of tree ",
        "returns": {
          "_0": "price of tree "
        }
      }
    },
    "title": "RegularSale contract ",
    "version": 1
  },
  "userdoc": {
    "kind": "user",
    "methods": {
      "isRegularSale()": {
        "notice": "NOTE {isRegularSale} set inside the initialize to {true} "
      },
      "isTrustedForwarder(address)": {
        "notice": "return if the forwarder is trusted to forward relayed transactions to us. the forwarder is required to verify the sender's signature, and verify the call is not a replay."
      },
      "referralTreePaymentToAmbassador()": {
        "notice": "NOTE referralTreePaymentToAmbassador amount "
      },
      "referralTreePaymentToPlanter()": {
        "notice": "NOTE referralTreePaymentToPlanter amount "
      },
      "referralTriggerCount()": {
        "notice": "NOTE referralTriggerCount   "
      },
      "referrerClaimableTreesDai(address)": {
        "notice": "NOTE mapping of referrer address to claimableTreesDai "
      },
      "referrerClaimableTreesWeth(address)": {
        "notice": "NOTE mapping of referrer address to claimableTreesWeth "
      },
      "referrerCount(address)": {
        "notice": "NOTE mapping of referrer address to referrerCount "
      }
    },
    "version": 1
  }
}