{
  "contractName": "TreeFactory",
  "abi": [
    {
      "inputs": [],
      "stateMutability": "nonpayable",
      "type": "constructor"
    },
    {
      "anonymous": false,
      "inputs": [
        {
          "indexed": true,
          "internalType": "address",
          "name": "owner",
          "type": "address"
        },
        {
          "indexed": true,
          "internalType": "address",
          "name": "approved",
          "type": "address"
        },
        {
          "indexed": true,
          "internalType": "uint256",
          "name": "tokenId",
          "type": "uint256"
        }
      ],
      "name": "Approval",
      "type": "event"
    },
    {
      "anonymous": false,
      "inputs": [
        {
          "indexed": true,
          "internalType": "address",
          "name": "owner",
          "type": "address"
        },
        {
          "indexed": true,
          "internalType": "address",
          "name": "operator",
          "type": "address"
        },
        {
          "indexed": false,
          "internalType": "bool",
          "name": "approved",
          "type": "bool"
        }
      ],
      "name": "ApprovalForAll",
      "type": "event"
    },
    {
      "anonymous": false,
      "inputs": [
        {
          "indexed": false,
          "internalType": "address",
          "name": "account",
          "type": "address"
        }
      ],
      "name": "Paused",
      "type": "event"
    },
    {
      "anonymous": false,
      "inputs": [
        {
          "indexed": false,
          "internalType": "uint256",
          "name": "price",
          "type": "uint256"
        }
      ],
      "name": "PriceChanged",
      "type": "event"
    },
    {
      "anonymous": false,
      "inputs": [
        {
          "indexed": true,
          "internalType": "bytes32",
          "name": "role",
          "type": "bytes32"
        },
        {
          "indexed": true,
          "internalType": "bytes32",
          "name": "previousAdminRole",
          "type": "bytes32"
        },
        {
          "indexed": true,
          "internalType": "bytes32",
          "name": "newAdminRole",
          "type": "bytes32"
        }
      ],
      "name": "RoleAdminChanged",
      "type": "event"
    },
    {
      "anonymous": false,
      "inputs": [
        {
          "indexed": true,
          "internalType": "bytes32",
          "name": "role",
          "type": "bytes32"
        },
        {
          "indexed": true,
          "internalType": "address",
          "name": "account",
          "type": "address"
        },
        {
          "indexed": true,
          "internalType": "address",
          "name": "sender",
          "type": "address"
        }
      ],
      "name": "RoleGranted",
      "type": "event"
    },
    {
      "anonymous": false,
      "inputs": [
        {
          "indexed": true,
          "internalType": "bytes32",
          "name": "role",
          "type": "bytes32"
        },
        {
          "indexed": true,
          "internalType": "address",
          "name": "account",
          "type": "address"
        },
        {
          "indexed": true,
          "internalType": "address",
          "name": "sender",
          "type": "address"
        }
      ],
      "name": "RoleRevoked",
      "type": "event"
    },
    {
      "anonymous": false,
      "inputs": [
        {
          "indexed": true,
          "internalType": "address",
          "name": "from",
          "type": "address"
        },
        {
          "indexed": true,
          "internalType": "address",
          "name": "to",
          "type": "address"
        },
        {
          "indexed": true,
          "internalType": "uint256",
          "name": "tokenId",
          "type": "uint256"
        }
      ],
      "name": "Transfer",
      "type": "event"
    },
    {
      "anonymous": false,
      "inputs": [
        {
          "indexed": false,
          "internalType": "uint256",
          "name": "id",
          "type": "uint256"
        },
        {
          "indexed": false,
          "internalType": "string",
          "name": "name",
          "type": "string"
        },
        {
          "indexed": false,
          "internalType": "string",
          "name": "latitude",
          "type": "string"
        },
        {
          "indexed": false,
          "internalType": "string",
          "name": "longitude",
          "type": "string"
        }
      ],
      "name": "TreePlanted",
      "type": "event"
    },
    {
      "anonymous": false,
      "inputs": [
        {
          "indexed": false,
          "internalType": "address",
          "name": "account",
          "type": "address"
        }
      ],
      "name": "Unpaused",
      "type": "event"
    },
    {
      "inputs": [],
      "name": "AMBASSADOR_ROLE",
      "outputs": [
        {
          "internalType": "bytes32",
          "name": "",
          "type": "bytes32"
        }
      ],
      "stateMutability": "view",
      "type": "function",
      "constant": true
    },
    {
      "inputs": [],
      "name": "DEFAULT_ADMIN_ROLE",
      "outputs": [
        {
          "internalType": "bytes32",
          "name": "",
          "type": "bytes32"
        }
      ],
      "stateMutability": "view",
      "type": "function",
      "constant": true
    },
    {
      "inputs": [],
      "name": "PLANTER_ROLE",
      "outputs": [
        {
          "internalType": "bytes32",
          "name": "",
          "type": "bytes32"
        }
      ],
      "stateMutability": "view",
      "type": "function",
      "constant": true
    },
    {
      "inputs": [
        {
          "internalType": "address",
          "name": "to",
          "type": "address"
        },
        {
          "internalType": "uint256",
          "name": "tokenId",
          "type": "uint256"
        }
      ],
      "name": "approve",
      "outputs": [],
      "stateMutability": "nonpayable",
      "type": "function"
    },
    {
      "inputs": [
        {
          "internalType": "address",
          "name": "owner",
          "type": "address"
        }
      ],
      "name": "balanceOf",
      "outputs": [
        {
          "internalType": "uint256",
          "name": "",
          "type": "uint256"
        }
      ],
      "stateMutability": "view",
      "type": "function",
      "constant": true
    },
    {
      "inputs": [],
      "name": "baseURI",
      "outputs": [
        {
          "internalType": "string",
          "name": "",
          "type": "string"
        }
      ],
      "stateMutability": "view",
      "type": "function",
      "constant": true
    },
    {
      "inputs": [
        {
          "internalType": "uint256",
          "name": "tokenId",
          "type": "uint256"
        }
      ],
      "name": "getApproved",
      "outputs": [
        {
          "internalType": "address",
          "name": "",
          "type": "address"
        }
      ],
      "stateMutability": "view",
      "type": "function",
      "constant": true
    },
    {
      "inputs": [
        {
          "internalType": "bytes32",
          "name": "role",
          "type": "bytes32"
        }
      ],
      "name": "getRoleAdmin",
      "outputs": [
        {
          "internalType": "bytes32",
          "name": "",
          "type": "bytes32"
        }
      ],
      "stateMutability": "view",
      "type": "function",
      "constant": true
    },
    {
      "inputs": [
        {
          "internalType": "bytes32",
          "name": "role",
          "type": "bytes32"
        },
        {
          "internalType": "uint256",
          "name": "index",
          "type": "uint256"
        }
      ],
      "name": "getRoleMember",
      "outputs": [
        {
          "internalType": "address",
          "name": "",
          "type": "address"
        }
      ],
      "stateMutability": "view",
      "type": "function",
      "constant": true
    },
    {
      "inputs": [
        {
          "internalType": "bytes32",
          "name": "role",
          "type": "bytes32"
        }
      ],
      "name": "getRoleMemberCount",
      "outputs": [
        {
          "internalType": "uint256",
          "name": "",
          "type": "uint256"
        }
      ],
      "stateMutability": "view",
      "type": "function",
      "constant": true
    },
    {
      "inputs": [
        {
          "internalType": "bytes32",
          "name": "role",
          "type": "bytes32"
        },
        {
          "internalType": "address",
          "name": "account",
          "type": "address"
        }
      ],
      "name": "grantRole",
      "outputs": [],
      "stateMutability": "nonpayable",
      "type": "function"
    },
    {
      "inputs": [
        {
          "internalType": "bytes32",
          "name": "role",
          "type": "bytes32"
        },
        {
          "internalType": "address",
          "name": "account",
          "type": "address"
        }
      ],
      "name": "hasRole",
      "outputs": [
        {
          "internalType": "bool",
          "name": "",
          "type": "bool"
        }
      ],
      "stateMutability": "view",
      "type": "function",
      "constant": true
    },
    {
      "inputs": [
        {
          "internalType": "address",
          "name": "owner",
          "type": "address"
        },
        {
          "internalType": "address",
          "name": "operator",
          "type": "address"
        }
      ],
      "name": "isApprovedForAll",
      "outputs": [
        {
          "internalType": "bool",
          "name": "",
          "type": "bool"
        }
      ],
      "stateMutability": "view",
      "type": "function",
      "constant": true
    },
    {
      "inputs": [],
      "name": "name",
      "outputs": [
        {
          "internalType": "string",
          "name": "",
          "type": "string"
        }
      ],
      "stateMutability": "view",
      "type": "function",
      "constant": true
    },
    {
      "inputs": [
        {
          "internalType": "uint256",
          "name": "",
          "type": "uint256"
        }
      ],
      "name": "notFundedTrees",
      "outputs": [
        {
          "internalType": "uint256",
          "name": "",
          "type": "uint256"
        }
      ],
      "stateMutability": "view",
      "type": "function",
      "constant": true
    },
    {
      "inputs": [
        {
          "internalType": "uint256",
          "name": "",
          "type": "uint256"
        }
      ],
      "name": "notPlantedTrees",
      "outputs": [
        {
          "internalType": "uint256",
          "name": "",
          "type": "uint256"
        }
      ],
      "stateMutability": "view",
      "type": "function",
      "constant": true
    },
    {
      "inputs": [],
      "name": "owner",
      "outputs": [
        {
          "internalType": "address",
          "name": "",
          "type": "address"
        }
      ],
      "stateMutability": "view",
      "type": "function",
      "constant": true
    },
    {
      "inputs": [
        {
          "internalType": "uint256",
          "name": "tokenId",
          "type": "uint256"
        }
      ],
      "name": "ownerOf",
      "outputs": [
        {
          "internalType": "address",
          "name": "",
          "type": "address"
        }
      ],
      "stateMutability": "view",
      "type": "function",
      "constant": true
    },
    {
      "inputs": [],
      "name": "pause",
      "outputs": [],
      "stateMutability": "nonpayable",
      "type": "function"
    },
    {
      "inputs": [],
      "name": "paused",
      "outputs": [
        {
          "internalType": "bool",
          "name": "",
          "type": "bool"
        }
      ],
      "stateMutability": "view",
      "type": "function",
      "constant": true
    },
    {
      "inputs": [],
      "name": "price",
      "outputs": [
        {
          "internalType": "uint256",
          "name": "",
          "type": "uint256"
        }
      ],
      "stateMutability": "view",
      "type": "function",
      "constant": true
    },
    {
      "inputs": [
        {
          "internalType": "bytes32",
          "name": "role",
          "type": "bytes32"
        },
        {
          "internalType": "address",
          "name": "account",
          "type": "address"
        }
      ],
      "name": "renounceRole",
      "outputs": [],
      "stateMutability": "nonpayable",
      "type": "function"
    },
    {
      "inputs": [
        {
          "internalType": "bytes32",
          "name": "role",
          "type": "bytes32"
        },
        {
          "internalType": "address",
          "name": "account",
          "type": "address"
        }
      ],
      "name": "revokeRole",
      "outputs": [],
      "stateMutability": "nonpayable",
      "type": "function"
    },
    {
      "inputs": [
        {
          "internalType": "address",
          "name": "from",
          "type": "address"
        },
        {
          "internalType": "address",
          "name": "to",
          "type": "address"
        },
        {
          "internalType": "uint256",
          "name": "tokenId",
          "type": "uint256"
        }
      ],
      "name": "safeTransferFrom",
      "outputs": [],
      "stateMutability": "nonpayable",
      "type": "function"
    },
    {
      "inputs": [
        {
          "internalType": "address",
          "name": "from",
          "type": "address"
        },
        {
          "internalType": "address",
          "name": "to",
          "type": "address"
        },
        {
          "internalType": "uint256",
          "name": "tokenId",
          "type": "uint256"
        },
        {
          "internalType": "bytes",
          "name": "_data",
          "type": "bytes"
        }
      ],
      "name": "safeTransferFrom",
      "outputs": [],
      "stateMutability": "nonpayable",
      "type": "function"
    },
    {
      "inputs": [
        {
          "internalType": "address",
          "name": "operator",
          "type": "address"
        },
        {
          "internalType": "bool",
          "name": "approved",
          "type": "bool"
        }
      ],
      "name": "setApprovalForAll",
      "outputs": [],
      "stateMutability": "nonpayable",
      "type": "function"
    },
    {
      "inputs": [
        {
          "internalType": "bytes4",
          "name": "interfaceId",
          "type": "bytes4"
        }
      ],
      "name": "supportsInterface",
      "outputs": [
        {
          "internalType": "bool",
          "name": "",
          "type": "bool"
        }
      ],
      "stateMutability": "view",
      "type": "function",
      "constant": true
    },
    {
      "inputs": [],
      "name": "symbol",
      "outputs": [
        {
          "internalType": "string",
          "name": "",
          "type": "string"
        }
      ],
      "stateMutability": "view",
      "type": "function",
      "constant": true
    },
    {
      "inputs": [
        {
          "internalType": "uint256",
          "name": "index",
          "type": "uint256"
        }
      ],
      "name": "tokenByIndex",
      "outputs": [
        {
          "internalType": "uint256",
          "name": "",
          "type": "uint256"
        }
      ],
      "stateMutability": "view",
      "type": "function",
      "constant": true
    },
    {
      "inputs": [
        {
          "internalType": "address",
          "name": "owner",
          "type": "address"
        },
        {
          "internalType": "uint256",
          "name": "index",
          "type": "uint256"
        }
      ],
      "name": "tokenOfOwnerByIndex",
      "outputs": [
        {
          "internalType": "uint256",
          "name": "",
          "type": "uint256"
        }
      ],
      "stateMutability": "view",
      "type": "function",
      "constant": true
    },
    {
      "inputs": [
        {
          "internalType": "uint256",
          "name": "tokenId",
          "type": "uint256"
        }
      ],
      "name": "tokenURI",
      "outputs": [
        {
          "internalType": "string",
          "name": "",
          "type": "string"
        }
      ],
      "stateMutability": "view",
      "type": "function",
      "constant": true
    },
    {
      "inputs": [],
      "name": "totalSupply",
      "outputs": [
        {
          "internalType": "uint256",
          "name": "",
          "type": "uint256"
        }
      ],
      "stateMutability": "view",
      "type": "function",
      "constant": true
    },
    {
      "inputs": [
        {
          "internalType": "address",
          "name": "from",
          "type": "address"
        },
        {
          "internalType": "address",
          "name": "to",
          "type": "address"
        },
        {
          "internalType": "uint256",
          "name": "tokenId",
          "type": "uint256"
        }
      ],
      "name": "transferFrom",
      "outputs": [],
      "stateMutability": "nonpayable",
      "type": "function"
    },
    {
      "inputs": [
        {
          "internalType": "uint256",
          "name": "",
          "type": "uint256"
        }
      ],
      "name": "treeToConserver",
      "outputs": [
        {
          "internalType": "address",
          "name": "",
          "type": "address"
        }
      ],
      "stateMutability": "view",
      "type": "function",
      "constant": true
    },
    {
      "inputs": [
        {
          "internalType": "uint256",
          "name": "",
          "type": "uint256"
        }
      ],
      "name": "treeToGB",
      "outputs": [
        {
          "internalType": "uint256",
          "name": "",
          "type": "uint256"
        }
      ],
      "stateMutability": "view",
      "type": "function",
      "constant": true
    },
    {
      "inputs": [
        {
          "internalType": "uint256",
          "name": "",
          "type": "uint256"
        }
      ],
      "name": "treeToPlanter",
      "outputs": [
        {
          "internalType": "address",
          "name": "",
          "type": "address"
        }
      ],
      "stateMutability": "view",
      "type": "function",
      "constant": true
    },
    {
      "inputs": [
        {
          "internalType": "uint256",
          "name": "",
          "type": "uint256"
        }
      ],
      "name": "treeToType",
      "outputs": [
        {
          "internalType": "uint8",
          "name": "",
          "type": "uint8"
        }
      ],
      "stateMutability": "view",
      "type": "function",
      "constant": true
    },
    {
      "inputs": [
        {
          "internalType": "uint256",
          "name": "",
          "type": "uint256"
        }
      ],
      "name": "treeToVerifier",
      "outputs": [
        {
          "internalType": "address",
          "name": "",
          "type": "address"
        }
      ],
      "stateMutability": "view",
      "type": "function",
      "constant": true
    },
    {
      "inputs": [
        {
          "internalType": "uint256",
          "name": "",
          "type": "uint256"
        }
      ],
      "name": "trees",
      "outputs": [
        {
          "internalType": "string",
          "name": "name",
          "type": "string"
        },
        {
          "internalType": "string",
          "name": "latitude",
          "type": "string"
        },
        {
          "internalType": "string",
          "name": "longitude",
          "type": "string"
        },
        {
          "internalType": "uint256",
          "name": "plantedDate",
          "type": "uint256"
        },
        {
          "internalType": "uint256",
          "name": "birthDate",
          "type": "uint256"
        },
        {
          "internalType": "uint256",
          "name": "fundedDate",
          "type": "uint256"
        },
        {
          "internalType": "uint8",
          "name": "height",
          "type": "uint8"
        },
        {
          "internalType": "uint8",
          "name": "diameter",
          "type": "uint8"
        },
        {
          "internalType": "uint256",
          "name": "balance",
          "type": "uint256"
        }
      ],
      "stateMutability": "view",
      "type": "function",
      "constant": true
    },
    {
      "inputs": [],
      "name": "unpause",
      "outputs": [],
      "stateMutability": "nonpayable",
      "type": "function"
    },
    {
      "inputs": [
        {
          "internalType": "uint8",
          "name": "_typeId",
          "type": "uint8"
        },
        {
          "internalType": "uint256",
          "name": "_gbId",
          "type": "uint256"
        },
        {
          "internalType": "string[]",
          "name": "_stringParams",
          "type": "string[]"
        },
        {
          "internalType": "uint8[]",
          "name": "_uintParams",
          "type": "uint8[]"
        }
      ],
      "name": "add",
      "outputs": [],
      "stateMutability": "nonpayable",
      "type": "function"
    },
    {
      "inputs": [
        {
          "internalType": "address",
          "name": "_account",
          "type": "address"
        },
        {
          "internalType": "uint256",
          "name": "_balance",
          "type": "uint256"
        }
      ],
      "name": "simpleFund",
      "outputs": [
        {
          "internalType": "uint256",
          "name": "",
          "type": "uint256"
        }
      ],
      "stateMutability": "nonpayable",
      "type": "function"
    },
    {
      "inputs": [
        {
          "internalType": "address",
          "name": "_account",
          "type": "address"
        },
        {
          "internalType": "uint256",
          "name": "_balance",
          "type": "uint256"
        }
      ],
      "name": "fundPlantedTress",
      "outputs": [
        {
          "internalType": "uint256",
          "name": "",
          "type": "uint256"
        }
      ],
      "stateMutability": "nonpayable",
      "type": "function"
    },
    {
      "inputs": [],
      "name": "notFundedTreesExists",
      "outputs": [
        {
          "internalType": "bool",
          "name": "",
          "type": "bool"
        }
      ],
      "stateMutability": "view",
      "type": "function",
      "constant": true
    },
    {
      "inputs": [],
      "name": "notPlantedTreesExists",
      "outputs": [
        {
          "internalType": "bool",
          "name": "",
          "type": "bool"
        }
      ],
      "stateMutability": "view",
      "type": "function",
      "constant": true
    },
    {
      "inputs": [
        {
          "internalType": "address",
          "name": "_account",
          "type": "address"
        }
      ],
      "name": "ownerTreesCount",
      "outputs": [
        {
          "internalType": "uint256",
          "name": "",
          "type": "uint256"
        }
      ],
      "stateMutability": "view",
      "type": "function",
      "constant": true
    },
    {
      "inputs": [
        {
          "internalType": "uint256",
          "name": "_treeId",
          "type": "uint256"
        }
      ],
      "name": "treeOwner",
      "outputs": [
        {
          "internalType": "address",
          "name": "",
          "type": "address"
        }
      ],
      "stateMutability": "view",
      "type": "function",
      "constant": true
    },
    {
      "inputs": [
        {
          "internalType": "address",
          "name": "_account",
          "type": "address"
        }
      ],
      "name": "getOwnerTrees",
      "outputs": [
        {
          "internalType": "uint256[]",
          "name": "",
          "type": "uint256[]"
        }
      ],
      "stateMutability": "view",
      "type": "function",
      "constant": true
    },
    {
      "inputs": [
        {
          "internalType": "uint256",
          "name": "_treeId",
          "type": "uint256"
        }
      ],
      "name": "getTypeId",
      "outputs": [
        {
          "internalType": "uint256",
          "name": "",
          "type": "uint256"
        }
      ],
      "stateMutability": "view",
      "type": "function",
      "constant": true
    },
    {
      "inputs": [
        {
          "internalType": "uint256",
          "name": "_id",
          "type": "uint256"
        }
      ],
      "name": "getPlantedDate",
      "outputs": [
        {
          "internalType": "uint256",
          "name": "",
          "type": "uint256"
        }
      ],
      "stateMutability": "view",
      "type": "function",
      "constant": true
    },
    {
      "inputs": [
        {
          "internalType": "uint256",
          "name": "_price",
          "type": "uint256"
        }
      ],
      "name": "setPrice",
      "outputs": [],
      "stateMutability": "nonpayable",
      "type": "function"
    },
    {
      "inputs": [],
      "name": "getPrice",
      "outputs": [
        {
          "internalType": "uint256",
          "name": "",
          "type": "uint256"
        }
      ],
      "stateMutability": "view",
      "type": "function",
      "constant": true
    }
  ],
  "bytecode": "0x608060405233600b60016101000a81548173ffffffffffffffffffffffffffffffffffffffff021916908373ffffffffffffffffffffffffffffffffffffffff1602179055503480156200005257600080fd5b506040518060400160405280600481526020017f54726565000000000000000000000000000000000000000000000000000000008152506040518060400160405280600481526020017f5452454500000000000000000000000000000000000000000000000000000000815250620000d76301ffc9a760e01b620001d760201b60201c565b8160069080519060200190620000ef92919062000446565b5080600790805190602001906200010892919062000446565b50620001216380ac58cd60e01b620001d760201b60201c565b62000139635b5e139f60e01b620001d760201b60201c565b6200015163780e9d6360e01b620001d760201b60201c565b50506000600b60006101000a81548160ff021916908315150217905550620001836000801b33620002af60201b60201c565b620001aa6040516200019590620005d2565b604051809103902033620002af60201b60201c565b620001d1604051620001bc90620005bb565b604051809103902033620002af60201b60201c565b62000627565b63ffffffff60e01b817bffffffffffffffffffffffffffffffffffffffffffffffffffffffff1916141562000243576040517f08c379a00000000000000000000000000000000000000000000000000000000081526004016200023a90620005e9565b60405180910390fd5b6001600080837bffffffffffffffffffffffffffffffffffffffffffffffffffffffff19167bffffffffffffffffffffffffffffffffffffffffffffffffffffffff1916815260200190815260200160002060006101000a81548160ff02191690831515021790555050565b620002c18282620002c560201b60201c565b5050565b620002f481600a60008581526020019081526020016000206000016200036960201b6200350e1790919060201c565b1562000365576200030a620003a160201b60201c565b73ffffffffffffffffffffffffffffffffffffffff168173ffffffffffffffffffffffffffffffffffffffff16837f2f8788117e7eff1d82e926ec794901d17c78024a50270940304540a733656f0d60405160405180910390a45b5050565b600062000399836000018373ffffffffffffffffffffffffffffffffffffffff1660001b620003a960201b60201c565b905092915050565b600033905090565b6000620003bd83836200042360201b60201c565b620004185782600001829080600181540180825580915050600190039060005260206000200160009091909190915055826000018054905083600101600084815260200190815260200160002081905550600190506200041d565b600090505b92915050565b600080836001016000848152602001908152602001600020541415905092915050565b828054600181600116156101000203166002900490600052602060002090601f016020900481019282601f106200048957805160ff1916838001178555620004ba565b82800160010185558215620004ba579182015b82811115620004b95782518255916020019190600101906200049c565b5b509050620004c99190620004cd565b5090565b620004f291905b80821115620004ee576000816000905550600101620004d4565b5090565b90565b600062000504601c836200060b565b91507f4552433136353a20696e76616c696420696e74657266616365206964000000006000830152602082019050919050565b600062000546600f836200061c565b91507f414d4241535341444f525f524f4c4500000000000000000000000000000000006000830152600f82019050919050565b600062000588600c836200061c565b91507f504c414e5445525f524f4c4500000000000000000000000000000000000000006000830152600c82019050919050565b6000620005c88262000537565b9150819050919050565b6000620005df8262000579565b9150819050919050565b600060208201905081810360008301526200060481620004f5565b9050919050565b600082825260208201905092915050565b600081905092915050565b61571380620006376000396000f3fe608060405234801561001057600080fd5b506004361061030c5760003560e01c80637a5080221161019d578063a22cb465116100e9578063ca15c873116100a2578063e985e9c51161007c578063e985e9c514610a51578063f29bbde814610a81578063f99a5d1114610a9f578063fb5b3dfd14610abd5761030c565b8063ca15c873146109d5578063cfb2b3fe14610a05578063d547741f14610a355761030c565b8063a22cb465146108dd578063b52a61be146108f9578063b856eee614610929578063b88d4fde14610959578063b8a5f42c14610975578063c87b56dd146109a55761030c565b806391d14854116101565780639b6b5b66116101305780639b6b5b66146108415780639df2e5f714610871578063a035b1fe146108a1578063a217fddf146108bf5761030c565b806391d14854146107d557806395d89b411461080557806398d5fdca146108235761030c565b80637a508022146106f95780638456cb591461073157806386897ad81461073b5780638da5cb5b1461076b5780639010d07c1461078957806391b7f5ed146107b95761030c565b80632f745c591161025c57806342842e0e116102155780635e827122116101ef5780635e8271221461064b5780636352211e1461067b5780636c0360eb146106ab57806370a08231146106c95761030c565b806342842e0e146105e15780634f6ccce7146105fd5780635c975abb1461062d5761030c565b80632f745c59146104fb578063346f009d1461052b57806335939c581461055b57806336568abe1461058b5780633963bafe146105a75780633f4ba83a146105d75761030c565b80630d4c055a116102c957806318dfed71116102a357806318dfed711461046357806323b872dd14610493578063248a9ca3146104af5780632f2ff15d146104df5761030c565b80630d4c055a146103f75780630daa2e661461042757806318160ddd146104455761030c565b806301ffc9a71461031157806306fdde031461034157806307ff37231461035f578063081812fc1461038f578063095ea7b3146103bf5780630ab77469146103db575b600080fd5b61032b6004803603610326919081019061418a565b610adb565b6040516103389190614f42565b60405180910390f35b610349610b42565b6040516103569190614f78565b60405180910390f35b610379600480360361037491908101906141dc565b610be4565b6040516103869190614e9e565b60405180910390f35b6103a960048036036103a491908101906141dc565b610c17565b6040516103b69190614e9e565b60405180910390f35b6103d960048036036103d49190810190614084565b610c9c565b005b6103f560048036036103f0919081019061422e565b610db4565b005b610411600480360361040c91908101906141dc565b611745565b60405161041e9190614e9e565b60405180910390f35b61042f611757565b60405161043c9190614f5d565b60405180910390f35b61044d61176e565b60405161045a919061533c565b60405180910390f35b61047d600480360361047891908101906141dc565b61177f565b60405161048a919061533c565b60405180910390f35b6104ad60048036036104a89190810190613f7e565b611797565b005b6104c960048036036104c491908101906140e9565b6117f7565b6040516104d69190614f5d565b60405180910390f35b6104f960048036036104f49190810190614112565b611817565b005b61051560048036036105109190810190614084565b61188b565b604051610522919061533c565b60405180910390f35b610545600480360361054091908101906141dc565b6118e6565b6040516105529190614e9e565b60405180910390f35b61057560048036036105709190810190613f19565b611919565b6040516105829190614f20565b60405180910390f35b6105a560048036036105a09190810190614112565b6119e7565b005b6105c160048036036105bc91908101906141dc565b611a6a565b6040516105ce9190614e9e565b60405180910390f35b6105df611a9d565b005b6105fb60048036036105f69190810190613f7e565b611af3565b005b610617600480360361061291908101906141dc565b611b13565b604051610624919061533c565b60405180910390f35b610635611b36565b6040516106429190614f42565b60405180910390f35b610665600480360361066091908101906141dc565b611b4d565b604051610672919061533c565b60405180910390f35b610695600480360361069091908101906141dc565b611b65565b6040516106a29190614e9e565b60405180910390f35b6106b3611b9c565b6040516106c09190614f78565b60405180910390f35b6106e360048036036106de9190810190613f19565b611c3e565b6040516106f0919061533c565b60405180910390f35b610713600480360361070e91908101906141dc565b611cfd565b60405161072899989796959493929190614f9a565b60405180910390f35b610739611f3a565b005b61075560048036036107509190810190613f19565b611f90565b604051610762919061533c565b60405180910390f35b610773611fa2565b6040516107809190614e9e565b60405180910390f35b6107a3600480360361079e919081019061414e565b611fc8565b6040516107b09190614e9e565b60405180910390f35b6107d360048036036107ce91908101906141dc565b611ffa565b005b6107ef60048036036107ea9190810190614112565b612087565b6040516107fc9190614f42565b60405180910390f35b61080d6120b9565b60405161081a9190614f78565b60405180910390f35b61082b61215b565b604051610838919061533c565b60405180910390f35b61085b600480360361085691908101906141dc565b612165565b604051610868919061533c565b60405180910390f35b61088b60048036036108869190810190614084565b612192565b604051610898919061533c565b60405180910390f35b6108a96122fc565b6040516108b6919061533c565b60405180910390f35b6108c7612302565b6040516108d49190614f5d565b60405180910390f35b6108f760048036036108f29190810190614048565b612309565b005b610913600480360361090e91908101906141dc565b61248a565b604051610920919061533c565b60405180910390f35b610943600480360361093e9190810190614084565b6124a2565b604051610950919061533c565b60405180910390f35b610973600480360361096e9190810190613fcd565b612683565b005b61098f600480360361098a91908101906141dc565b6126e5565b60405161099c919061533c565b60405180910390f35b6109bf60048036036109ba91908101906141dc565b61270d565b6040516109cc9190614f78565b60405180910390f35b6109ef60048036036109ea91908101906140e9565b612898565b6040516109fc919061533c565b60405180910390f35b610a1f6004803603610a1a91908101906141dc565b6128bf565b604051610a2c91906153b7565b60405180910390f35b610a4f6004803603610a4a9190810190614112565b6128df565b005b610a6b6004803603610a669190810190613f42565b612953565b604051610a789190614f42565b60405180910390f35b610a896129e7565b604051610a969190614f5d565b60405180910390f35b610aa76129fe565b604051610ab49190614f42565b60405180910390f35b610ac5612a0c565b604051610ad29190614f42565b60405180910390f35b6000806000837bffffffffffffffffffffffffffffffffffffffffffffffffffffffff19167bffffffffffffffffffffffffffffffffffffffffffffffffffffffff1916815260200190815260200160002060009054906101000a900460ff169050919050565b606060068054600181600116156101000203166002900480601f016020809104026020016040519081016040528092919081815260200182805460018160011615610100020316600290048015610bda5780601f10610baf57610100808354040283529160200191610bda565b820191906000526020600020905b815481529060010190602001808311610bbd57829003601f168201915b5050505050905090565b60166020528060005260406000206000915054906101000a900473ffffffffffffffffffffffffffffffffffffffff1681565b6000610c2282612a1a565b610c61576040517f08c379a0000000000000000000000000000000000000000000000000000000008152600401610c58906151fc565b60405180910390fd5b6004600083815260200190815260200160002060009054906101000a900473ffffffffffffffffffffffffffffffffffffffff169050919050565b6000610ca782611b65565b90508073ffffffffffffffffffffffffffffffffffffffff168373ffffffffffffffffffffffffffffffffffffffff161415610d18576040517f08c379a0000000000000000000000000000000000000000000000000000000008152600401610d0f9061527c565b60405180910390fd5b8073ffffffffffffffffffffffffffffffffffffffff16610d37612a37565b73ffffffffffffffffffffffffffffffffffffffff161480610d665750610d6581610d60612a37565b612953565b5b610da5576040517f08c379a0000000000000000000000000000000000000000000000000000000008152600401610d9c9061517c565b60405180910390fd5b610daf8383612a3f565b505050565b610dd1604051610dc390614e89565b604051809103902033612087565b610e10576040517f08c379a0000000000000000000000000000000000000000000000000000000008152600401610e07906152fc565b60405180910390fd5b600b60009054906101000a900460ff1615610e60576040517f08c379a0000000000000000000000000000000000000000000000000000000008152600401610e579061515c565b60405180910390fd5b6000809050600115153073ffffffffffffffffffffffffffffffffffffffff1663fb5b3dfd6040518163ffffffff1660e01b815260040160206040518083038186803b158015610eaf57600080fd5b505afa158015610ec3573d6000803e3d6000fd5b505050506040513d601f19601f82011682018060405250610ee791908101906140c0565b151514156111d75760116000601354815260200190815260200160002054905060136000815480929190600101919050555084846000818110610f2657fe5b9050602002810180356001602003833603038112610f4357600080fd5b8083019250508135905060208201915067ffffffffffffffff811115610f6857600080fd5b600181023603821315610f7a57600080fd5b600c8381548110610f8757fe5b90600052602060002090600802016000019190610fa5929190613c64565b5084846001818110610fb357fe5b9050602002810180356001602003833603038112610fd057600080fd5b8083019250508135905060208201915067ffffffffffffffff811115610ff557600080fd5b60018102360382131561100757600080fd5b600c838154811061101457fe5b90600052602060002090600802016001019190611032929190613c64565b508484600281811061104057fe5b905060200281018035600160200383360303811261105d57600080fd5b8083019250508135905060208201915067ffffffffffffffff81111561108257600080fd5b60018102360382131561109457600080fd5b600c83815481106110a157fe5b906000526020600020906008020160020191906110bf929190613c64565b5042600c82815481106110ce57fe5b90600052602060002090600802016003018190555042600c82815481106110f157fe5b9060005260206000209060080201600401819055508282600081811061111357fe5b90506020020160206111289190810190614205565b600c828154811061113557fe5b906000526020600020906008020160060160006101000a81548160ff021916908360ff1602179055508282600181811061116b57fe5b90506020020160206111809190810190614205565b600c828154811061118d57fe5b906000526020600020906008020160060160016101000a81548160ff021916908360ff1602179055506011600060016013540381526020019081526020016000206000905561157b565b600c604051806101200160405280878760008181106111f257fe5b905060200281018035600160200383360303811261120f57600080fd5b8083019250508135905060208201915067ffffffffffffffff81111561123457600080fd5b60018102360382131561124657600080fd5b8080601f016020809104026020016040519081016040528093929190818152602001838380828437600081840152601f19601f8201169050808301925050505050505081526020018787600181811061129b57fe5b90506020028101803560016020038336030381126112b857600080fd5b8083019250508135905060208201915067ffffffffffffffff8111156112dd57600080fd5b6001810236038213156112ef57600080fd5b8080601f016020809104026020016040519081016040528093929190818152602001838380828437600081840152601f19601f8201169050808301925050505050505081526020018787600281811061134457fe5b905060200281018035600160200383360303811261136157600080fd5b8083019250508135905060208201915067ffffffffffffffff81111561138657600080fd5b60018102360382131561139857600080fd5b8080601f016020809104026020016040519081016040528093929190818152602001838380828437600081840152601f19601f820116905080830192505050505050508152602001428152602001428152602001600081526020018585600081811061140057fe5b90506020020160206114159190810190614205565b60ff1681526020018585600181811061142a57fe5b905060200201602061143f9190810190614205565b60ff168152602001600081525090806001815401808255809150506001900390600052602060002090600802016000909190919091506000820151816000019080519060200190611491929190613ce4565b5060208201518160010190805190602001906114ae929190613ce4565b5060408201518160020190805190602001906114cb929190613ce4565b50606082015181600301556080820151816004015560a0820151816005015560c08201518160060160006101000a81548160ff021916908360ff16021790555060e08201518160060160016101000a81548160ff021916908360ff160217905550610100820151816007015550506001600c8054905003905080600e6000600f54815260200190815260200160002081905550600f6000815480929190600101919050555061157a3382612af8565b5b601c60008860ff16815260200190815260200160002060008154809291906001019190505550856015600083815260200190815260200160002081905550601d6000878152602001908152602001600020600081548092919060010191905055507f657b7bbf1c4d4c6c5d41c6a778cfa25dc8c1fa0e44b17cc1eb0b5ddba0093887818686600081811061160b57fe5b905060200281018035600160200383360303811261162857600080fd5b8083019250508135905060208201915067ffffffffffffffff81111561164d57600080fd5b60018102360382131561165f57600080fd5b8888600181811061166c57fe5b905060200281018035600160200383360303811261168957600080fd5b8083019250508135905060208201915067ffffffffffffffff8111156116ae57600080fd5b6001810236038213156116c057600080fd5b8a8a60028181106116cd57fe5b90506020028101803560016020038336030381126116ea57600080fd5b8083019250508135905060208201915067ffffffffffffffff81111561170f57600080fd5b60018102360382131561172157600080fd5b6040516117349796959493929190615357565b60405180910390a150505050505050565b600061175082611b65565b9050919050565b60405161176390614e74565b604051809103902081565b600061177a6002612c86565b905090565b600e6020528060005260406000206000915090505481565b6117a86117a2612a37565b82612c9b565b6117e7576040517f08c379a00000000000000000000000000000000000000000000000000000000081526004016117de906152bc565b60405180910390fd5b6117f2838383612d79565b505050565b6000600a6000838152602001908152602001600020600201549050919050565b61183e600a600084815260200190815260200160002060020154611839612a37565b612087565b61187d576040517f08c379a00000000000000000000000000000000000000000000000000000000081526004016118749061505c565b60405180910390fd5b6118878282612f90565b5050565b60006118de82600160008673ffffffffffffffffffffffffffffffffffffffff1673ffffffffffffffffffffffffffffffffffffffff16815260200190815260200160002061302490919063ffffffff16565b905092915050565b60186020528060005260406000206000915054906101000a900473ffffffffffffffffffffffffffffffffffffffff1681565b6060600061192683611c3e565b9050600081141561196a5760006040519080825280602002602001820160405280156119615781602001602082028038833980820191505090505b509150506119e2565b60608160405190808252806020026020018201604052801561199b5781602001602082028038833980820191505090505b50905060008090505b828110156119db576119b6858261188b565b8282815181106119c257fe5b60200260200101818152505080806001019150506119a4565b5080925050505b919050565b6119ef612a37565b73ffffffffffffffffffffffffffffffffffffffff168173ffffffffffffffffffffffffffffffffffffffff1614611a5c576040517f08c379a0000000000000000000000000000000000000000000000000000000008152600401611a539061531c565b60405180910390fd5b611a66828261303e565b5050565b60176020528060005260406000206000915054906101000a900473ffffffffffffffffffffffffffffffffffffffff1681565b611aaa6000801b33612087565b611ae9576040517f08c379a0000000000000000000000000000000000000000000000000000000008152600401611ae09061529c565b60405180910390fd5b611af16130d2565b565b611b0e83838360405180602001604052806000815250612683565b505050565b600080611b2a83600261317c90919063ffffffff16565b50905080915050919050565b6000600b60009054906101000a900460ff16905090565b60156020528060005260406000206000915090505481565b6000611b95826040518060600160405280602981526020016156b56029913960026131ab9092919063ffffffff16565b9050919050565b606060098054600181600116156101000203166002900480601f016020809104026020016040519081016040528092919081815260200182805460018160011615610100020316600290048015611c345780601f10611c0957610100808354040283529160200191611c34565b820191906000526020600020905b815481529060010190602001808311611c1757829003601f168201915b5050505050905090565b60008073ffffffffffffffffffffffffffffffffffffffff168273ffffffffffffffffffffffffffffffffffffffff161415611caf576040517f08c379a0000000000000000000000000000000000000000000000000000000008152600401611ca69061519c565b60405180910390fd5b611cf6600160008473ffffffffffffffffffffffffffffffffffffffff1673ffffffffffffffffffffffffffffffffffffffff1681526020019081526020016000206131ca565b9050919050565b600c8181548110611d0a57fe5b9060005260206000209060080201600091509050806000018054600181600116156101000203166002900480601f016020809104026020016040519081016040528092919081815260200182805460018160011615610100020316600290048015611db65780601f10611d8b57610100808354040283529160200191611db6565b820191906000526020600020905b815481529060010190602001808311611d9957829003601f168201915b505050505090806001018054600181600116156101000203166002900480601f016020809104026020016040519081016040528092919081815260200182805460018160011615610100020316600290048015611e545780601f10611e2957610100808354040283529160200191611e54565b820191906000526020600020905b815481529060010190602001808311611e3757829003601f168201915b505050505090806002018054600181600116156101000203166002900480601f016020809104026020016040519081016040528092919081815260200182805460018160011615610100020316600290048015611ef25780601f10611ec757610100808354040283529160200191611ef2565b820191906000526020600020905b815481529060010190602001808311611ed557829003601f168201915b5050505050908060030154908060040154908060050154908060060160009054906101000a900460ff16908060060160019054906101000a900460ff16908060070154905089565b611f476000801b33612087565b611f86576040517f08c379a0000000000000000000000000000000000000000000000000000000008152600401611f7d9061529c565b60405180910390fd5b611f8e6131df565b565b6000611f9b82611c3e565b9050919050565b600b60019054906101000a900473ffffffffffffffffffffffffffffffffffffffff1681565b6000611ff282600a600086815260200190815260200160002060000161328a90919063ffffffff16565b905092915050565b6120076000801b33612087565b612046576040517f08c379a000000000000000000000000000000000000000000000000000000000815260040161203d9061529c565b60405180910390fd5b80600d819055507fa6dc15bdb68da224c66db4b3838d9a2b205138e8cff6774e57d0af91e196d6228160405161207c919061533c565b60405180910390a150565b60006120b182600a60008681526020019081526020016000206000016132a490919063ffffffff16565b905092915050565b606060078054600181600116156101000203166002900480601f0160208091040260200160405190810160405280929190818152602001828054600181600116156101000203166002900480156121515780601f1061212657610100808354040283529160200191612151565b820191906000526020600020905b81548152906001019060200180831161213457829003601f168201915b5050505050905090565b6000600d54905090565b60006014600083815260200190815260200160002060009054906101000a900460ff1660ff169050919050565b60003073ffffffffffffffffffffffffffffffffffffffff1663f99a5d116040518163ffffffff1660e01b815260040160206040518083038186803b1580156121da57600080fd5b505afa1580156121ee573d6000803e3d6000fd5b505050506040513d601f19601f8201168201806040525061221291908101906140c0565b612251576040517f08c379a00000000000000000000000000000000000000000000000000000000081526004016122489061521c565b60405180910390fd5b6000600e6000601054815260200190815260200160002054905060106000815480929190600101919050555082600c828154811061228b57fe5b90600052602060002090600802016007018190555042600c82815481106122ae57fe5b9060005260206000209060080201600501819055506122d66122cf82611b65565b8583612d79565b600e60006001601054038152602001908152602001600020600090558091505092915050565b600d5481565b6000801b81565b612311612a37565b73ffffffffffffffffffffffffffffffffffffffff168273ffffffffffffffffffffffffffffffffffffffff16141561237f576040517f08c379a0000000000000000000000000000000000000000000000000000000008152600401612376906150fc565b60405180910390fd5b806005600061238c612a37565b73ffffffffffffffffffffffffffffffffffffffff1673ffffffffffffffffffffffffffffffffffffffff16815260200190815260200160002060008473ffffffffffffffffffffffffffffffffffffffff1673ffffffffffffffffffffffffffffffffffffffff16815260200190815260200160002060006101000a81548160ff0219169083151502179055508173ffffffffffffffffffffffffffffffffffffffff16612439612a37565b73ffffffffffffffffffffffffffffffffffffffff167f17307eab39ab6107e8899845ad3d59bd9653f200f220920489ca2b5937696c318360405161247e9190614f42565b60405180910390a35050565b60116020528060005260406000206000915090505481565b600060606040518060400160405280601781526020017f7479706573206e616d652074726565732e6c656e6774680000000000000000008152509050600c6040518061012001604052808381526020016040518060200160405280600081525081526020016040518060200160405280600081525081526020016000815260200160008152602001428152602001600060ff168152602001600060ff168152602001858152509080600181540180825580915050600190039060005260206000209060080201600090919091909150600082015181600001908051906020019061258d929190613ce4565b5060208201518160010190805190602001906125aa929190613ce4565b5060408201518160020190805190602001906125c7929190613ce4565b50606082015181600301556080820151816004015560a0820151816005015560c08201518160060160006101000a81548160ff021916908360ff16021790555060e08201518160060160016101000a81548160ff021916908360ff1602179055506101008201518160070155505060006001600c8054905003905080601160006012548152602001908152602001600020819055506012600081548092919060010191905055506126788582612af8565b809250505092915050565b61269461268e612a37565b83612c9b565b6126d3576040517f08c379a00000000000000000000000000000000000000000000000000000000081526004016126ca906152bc565b60405180910390fd5b6126df848484846132d4565b50505050565b6000600c82815481106126f457fe5b9060005260206000209060080201600301549050919050565b606061271882612a1a565b612757576040517f08c379a000000000000000000000000000000000000000000000000000000000815260040161274e9061525c565b60405180910390fd5b6060600860008481526020019081526020016000208054600181600116156101000203166002900480601f0160208091040260200160405190810160405280929190818152602001828054600181600116156101000203166002900480156128005780601f106127d557610100808354040283529160200191612800565b820191906000526020600020905b8154815290600101906020018083116127e357829003601f168201915b5050505050905060006009805460018160011615610100020316600290049050141561282f5780915050612893565b6000815111156128645760098160405160200161284d929190614e50565b604051602081830303815290604052915050612893565b600961286f84613330565b604051602001612880929190614e50565b6040516020818303038152906040529150505b919050565b60006128b8600a6000848152602001908152602001600020600001613460565b9050919050565b60146020528060005260406000206000915054906101000a900460ff1681565b612906600a600084815260200190815260200160002060020154612901612a37565b612087565b612945576040517f08c379a000000000000000000000000000000000000000000000000000000000815260040161293c9061513c565b60405180910390fd5b61294f828261303e565b5050565b6000600560008473ffffffffffffffffffffffffffffffffffffffff1673ffffffffffffffffffffffffffffffffffffffff16815260200190815260200160002060008373ffffffffffffffffffffffffffffffffffffffff1673ffffffffffffffffffffffffffffffffffffffff16815260200190815260200160002060009054906101000a900460ff16905092915050565b6040516129f390614e89565b604051809103902081565b6000601054600f5411905090565b600060135460125411905090565b6000612a3082600261347590919063ffffffff16565b9050919050565b600033905090565b816004600083815260200190815260200160002060006101000a81548173ffffffffffffffffffffffffffffffffffffffff021916908373ffffffffffffffffffffffffffffffffffffffff160217905550808273ffffffffffffffffffffffffffffffffffffffff16612ab283611b65565b73ffffffffffffffffffffffffffffffffffffffff167f8c5be1e5ebec7d5bd14f71427d1e84f3dd0314c0f7b2291e5b200ac8c7c3b92560405160405180910390a45050565b600073ffffffffffffffffffffffffffffffffffffffff168273ffffffffffffffffffffffffffffffffffffffff161415612b68576040517f08c379a0000000000000000000000000000000000000000000000000000000008152600401612b5f906151dc565b60405180910390fd5b612b7181612a1a565b15612bb1576040517f08c379a0000000000000000000000000000000000000000000000000000000008152600401612ba8906150bc565b60405180910390fd5b612bbd6000838361348f565b612c0e81600160008573ffffffffffffffffffffffffffffffffffffffff1673ffffffffffffffffffffffffffffffffffffffff16815260200190815260200160002061349490919063ffffffff16565b50612c25818360026134ae9092919063ffffffff16565b50808273ffffffffffffffffffffffffffffffffffffffff16600073ffffffffffffffffffffffffffffffffffffffff167fddf252ad1be2c89b69c2b068fc378daa952ba7f163c4a11628f55a4df523b3ef60405160405180910390a45050565b6000612c94826000016134e3565b9050919050565b6000612ca682612a1a565b612ce5576040517f08c379a0000000000000000000000000000000000000000000000000000000008152600401612cdc9061511c565b60405180910390fd5b6000612cf083611b65565b90508073ffffffffffffffffffffffffffffffffffffffff168473ffffffffffffffffffffffffffffffffffffffff161480612d5f57508373ffffffffffffffffffffffffffffffffffffffff16612d4784610c17565b73ffffffffffffffffffffffffffffffffffffffff16145b80612d705750612d6f8185612953565b5b91505092915050565b8273ffffffffffffffffffffffffffffffffffffffff16612d9982611b65565b73ffffffffffffffffffffffffffffffffffffffff1614612def576040517f08c379a0000000000000000000000000000000000000000000000000000000008152600401612de69061523c565b60405180910390fd5b600073ffffffffffffffffffffffffffffffffffffffff168273ffffffffffffffffffffffffffffffffffffffff161415612e5f576040517f08c379a0000000000000000000000000000000000000000000000000000000008152600401612e56906150dc565b60405180910390fd5b612e6a83838361348f565b612e75600082612a3f565b612ec681600160008673ffffffffffffffffffffffffffffffffffffffff1673ffffffffffffffffffffffffffffffffffffffff1681526020019081526020016000206134f490919063ffffffff16565b50612f1881600160008573ffffffffffffffffffffffffffffffffffffffff1673ffffffffffffffffffffffffffffffffffffffff16815260200190815260200160002061349490919063ffffffff16565b50612f2f818360026134ae9092919063ffffffff16565b50808273ffffffffffffffffffffffffffffffffffffffff168473ffffffffffffffffffffffffffffffffffffffff167fddf252ad1be2c89b69c2b068fc378daa952ba7f163c4a11628f55a4df523b3ef60405160405180910390a4505050565b612fb881600a600085815260200190815260200160002060000161350e90919063ffffffff16565b1561302057612fc5612a37565b73ffffffffffffffffffffffffffffffffffffffff168173ffffffffffffffffffffffffffffffffffffffff16837f2f8788117e7eff1d82e926ec794901d17c78024a50270940304540a733656f0d60405160405180910390a45b5050565b6000613033836000018361353e565b60001c905092915050565b61306681600a60008581526020019081526020016000206000016135ab90919063ffffffff16565b156130ce57613073612a37565b73ffffffffffffffffffffffffffffffffffffffff168173ffffffffffffffffffffffffffffffffffffffff16837ff6391f5c32d9c69d2a47ea670b442974b53935d1edc7fd64eb21e047a839171b60405160405180910390a45b5050565b600b60009054906101000a900460ff16613121576040517f08c379a00000000000000000000000000000000000000000000000000000000081526004016131189061507c565b60405180910390fd5b6000600b60006101000a81548160ff0219169083151502179055507f5db9ee0a495bf2e6ff9c91a7834c1ba4fdd244a5e8aa4e537bd38aeae4b073aa613165612a37565b6040516131729190614eb9565b60405180910390a1565b60008060008061318f86600001866135db565b915091508160001c8160001c8090509350935050509250929050565b60006131be846000018460001b8461365e565b60001c90509392505050565b60006131d8826000016136ef565b9050919050565b600b60009054906101000a900460ff161561322f576040517f08c379a00000000000000000000000000000000000000000000000000000000081526004016132269061515c565b60405180910390fd5b6001600b60006101000a81548160ff0219169083151502179055507f62e78cea01bee320cd4e420270b5ea74000d11b0c9f74754ebdbfc544b05a258613273612a37565b6040516132809190614eb9565b60405180910390a1565b6000613299836000018361353e565b60001c905092915050565b60006132cc836000018373ffffffffffffffffffffffffffffffffffffffff1660001b613700565b905092915050565b6132df848484612d79565b6132eb84848484613723565b61332a576040517f08c379a00000000000000000000000000000000000000000000000000000000081526004016133219061509c565b60405180910390fd5b50505050565b60606000821415613378576040518060400160405280600181526020017f3000000000000000000000000000000000000000000000000000000000000000815250905061345b565b600082905060005b600082146133a2578080600101915050600a828161339a57fe5b049150613380565b6060816040519080825280601f01601f1916602001820160405280156133d75781602001600182028038833980820191505090505b50905060006001830390508593505b6000841461345357600a84816133f857fe5b0660300160f81b8282806001900393508151811061341257fe5b60200101907effffffffffffffffffffffffffffffffffffffffffffffffffffffffffffff1916908160001a905350600a848161344b57fe5b0493506133e6565b819450505050505b919050565b600061346e826000016136ef565b9050919050565b6000613487836000018360001b613887565b905092915050565b505050565b60006134a6836000018360001b6138aa565b905092915050565b60006134da846000018460001b8473ffffffffffffffffffffffffffffffffffffffff1660001b61391a565b90509392505050565b600081600001805490509050919050565b6000613506836000018360001b6139f6565b905092915050565b6000613536836000018373ffffffffffffffffffffffffffffffffffffffff1660001b6138aa565b905092915050565b600081836000018054905011613589576040517f08c379a00000000000000000000000000000000000000000000000000000000081526004016135809061503c565b60405180910390fd5b82600001828154811061359857fe5b9060005260206000200154905092915050565b60006135d3836000018373ffffffffffffffffffffffffffffffffffffffff1660001b6139f6565b905092915050565b60008082846000018054905011613627576040517f08c379a000000000000000000000000000000000000000000000000000000000815260040161361e906151bc565b60405180910390fd5b600084600001848154811061363857fe5b906000526020600020906002020190508060000154816001015492509250509250929050565b600080846001016000858152602001908152602001600020549050600081141583906136c0576040517f08c379a00000000000000000000000000000000000000000000000000000000081526004016136b79190614f78565b60405180910390fd5b508460000160018203815481106136d357fe5b9060005260206000209060020201600101549150509392505050565b600081600001805490509050919050565b600080836001016000848152602001908152602001600020541415905092915050565b60006137448473ffffffffffffffffffffffffffffffffffffffff16613ade565b613751576001905061387f565b606061381863150b7a0260e01b613766612a37565b88878760405160240161377c9493929190614ed4565b604051602081830303815290604052907bffffffffffffffffffffffffffffffffffffffffffffffffffffffff19166020820180517bffffffffffffffffffffffffffffffffffffffffffffffffffffffff8381831617835250505050604051806060016040528060328152602001615683603291398773ffffffffffffffffffffffffffffffffffffffff16613b299092919063ffffffff16565b905060008180602001905161383091908101906141b3565b905063150b7a0260e01b7bffffffffffffffffffffffffffffffffffffffffffffffffffffffff1916817bffffffffffffffffffffffffffffffffffffffffffffffffffffffff191614925050505b949350505050565b600080836001016000848152602001908152602001600020541415905092915050565b60006138b68383613700565b61390f578260000182908060018154018082558091505060019003906000526020600020016000909190919091505582600001805490508360010160008481526020019081526020016000208190555060019050613914565b600090505b92915050565b60008084600101600085815260200190815260200160002054905060008114156139c1578460000160405180604001604052808681526020018581525090806001815401808255809150506001900390600052602060002090600202016000909190919091506000820151816000015560208201518160010155505084600001805490508560010160008681526020019081526020016000208190555060019150506139ef565b828560000160018303815481106139d457fe5b90600052602060002090600202016001018190555060009150505b9392505050565b60008083600101600084815260200190815260200160002054905060008114613ad25760006001820390506000600186600001805490500390506000866000018281548110613a4157fe5b9060005260206000200154905080876000018481548110613a5e57fe5b9060005260206000200181905550600183018760010160008381526020019081526020016000208190555086600001805480613a9657fe5b60019003818190600052602060002001600090559055866001016000878152602001908152602001600020600090556001945050505050613ad8565b60009150505b92915050565b60008060007fc5d2460186f7233c927e7db2dcc703c0e500b653ca82273b7bfad8045d85a47060001b9050833f9150808214158015613b2057506000801b8214155b92505050919050565b6060613b388484600085613b41565b90509392505050565b6060613b4c85613ade565b613b8b576040517f08c379a0000000000000000000000000000000000000000000000000000000008152600401613b82906152dc565b60405180910390fd5b600060608673ffffffffffffffffffffffffffffffffffffffff168587604051613bb59190614e39565b60006040518083038185875af1925050503d8060008114613bf2576040519150601f19603f3d011682016040523d82523d6000602084013e613bf7565b606091505b50915091508115613c0c578092505050613c5c565b600081511115613c1f5780518082602001fd5b836040517f08c379a0000000000000000000000000000000000000000000000000000000008152600401613c539190614f78565b60405180910390fd5b949350505050565b828054600181600116156101000203166002900490600052602060002090601f016020900481019282601f10613ca557803560ff1916838001178555613cd3565b82800160010185558215613cd3579182015b82811115613cd2578235825591602001919060010190613cb7565b5b509050613ce09190613d64565b5090565b828054600181600116156101000203166002900490600052602060002090601f016020900481019282601f10613d2557805160ff1916838001178555613d53565b82800160010185558215613d53579182015b82811115613d52578251825591602001919060010190613d37565b5b509050613d609190613d64565b5090565b613d8691905b80821115613d82576000816000905550600101613d6a565b5090565b90565b600081359050613d98816155f8565b92915050565b60008083601f840112613db057600080fd5b8235905067ffffffffffffffff811115613dc957600080fd5b602083019150836020820283011115613de157600080fd5b9250929050565b60008083601f840112613dfa57600080fd5b8235905067ffffffffffffffff811115613e1357600080fd5b602083019150836020820283011115613e2b57600080fd5b9250929050565b600081359050613e418161560f565b92915050565b600081519050613e568161560f565b92915050565b600081359050613e6b81615626565b92915050565b600081359050613e808161563d565b92915050565b600081519050613e958161563d565b92915050565b600082601f830112613eac57600080fd5b8135613ebf613eba826153ff565b6153d2565b91508082526020830160208301858383011115613edb57600080fd5b613ee68382846155a5565b50505092915050565b600081359050613efe81615654565b92915050565b600081359050613f138161566b565b92915050565b600060208284031215613f2b57600080fd5b6000613f3984828501613d89565b91505092915050565b60008060408385031215613f5557600080fd5b6000613f6385828601613d89565b9250506020613f7485828601613d89565b9150509250929050565b600080600060608486031215613f9357600080fd5b6000613fa186828701613d89565b9350506020613fb286828701613d89565b9250506040613fc386828701613eef565b9150509250925092565b60008060008060808587031215613fe357600080fd5b6000613ff187828801613d89565b945050602061400287828801613d89565b935050604061401387828801613eef565b925050606085013567ffffffffffffffff81111561403057600080fd5b61403c87828801613e9b565b91505092959194509250565b6000806040838503121561405b57600080fd5b600061406985828601613d89565b925050602061407a85828601613e32565b9150509250929050565b6000806040838503121561409757600080fd5b60006140a585828601613d89565b92505060206140b685828601613eef565b9150509250929050565b6000602082840312156140d257600080fd5b60006140e084828501613e47565b91505092915050565b6000602082840312156140fb57600080fd5b600061410984828501613e5c565b91505092915050565b6000806040838503121561412557600080fd5b600061413385828601613e5c565b925050602061414485828601613d89565b9150509250929050565b6000806040838503121561416157600080fd5b600061416f85828601613e5c565b925050602061418085828601613eef565b9150509250929050565b60006020828403121561419c57600080fd5b60006141aa84828501613e71565b91505092915050565b6000602082840312156141c557600080fd5b60006141d384828501613e86565b91505092915050565b6000602082840312156141ee57600080fd5b60006141fc84828501613eef565b91505092915050565b60006020828403121561421757600080fd5b600061422584828501613f04565b91505092915050565b6000806000806000806080878903121561424757600080fd5b600061425589828a01613f04565b965050602061426689828a01613eef565b955050604087013567ffffffffffffffff81111561428357600080fd5b61428f89828a01613d9e565b9450945050606087013567ffffffffffffffff8111156142ae57600080fd5b6142ba89828a01613de8565b92509250509295509295509295565b60006142d58383614e0c565b60208301905092915050565b6142ea8161556f565b82525050565b6142f9816154e4565b82525050565b614308816154d2565b82525050565b600061431982615450565b6143238185615489565b935061432e8361542b565b8060005b8381101561435f57815161434688826142c9565b97506143518361547c565b925050600181019050614332565b5085935050505092915050565b614375816154f6565b82525050565b61438481615502565b82525050565b60006143958261545b565b61439f818561549a565b93506143af8185602086016155b4565b6143b8816155e7565b840191505092915050565b60006143ce8261545b565b6143d881856154ab565b93506143e88185602086016155b4565b80840191505092915050565b600061440083856154b6565b935061440d8385846155a5565b614416836155e7565b840190509392505050565b600061442c82615471565b61443681856154b6565b93506144468185602086016155b4565b61444f816155e7565b840191505092915050565b600061446582615471565b61446f81856154c7565b935061447f8185602086016155b4565b80840191505092915050565b600061449682615466565b6144a081856154b6565b93506144b08185602086016155b4565b6144b9816155e7565b840191505092915050565b6000815460018116600081146144e157600181146145065761454a565b607f60028304166144f281876154c7565b955060ff198316865280860193505061454a565b6002820461451481876154c7565b955061451f8561543b565b60005b8281101561454157815481890152600182019150602081019050614522565b82880195505050505b505092915050565b600061455f6022836154b6565b91507f456e756d657261626c655365743a20696e646578206f7574206f6620626f756e60008301527f64730000000000000000000000000000000000000000000000000000000000006020830152604082019050919050565b60006145c5602f836154b6565b91507f416363657373436f6e74726f6c3a2073656e646572206d75737420626520616e60008301527f2061646d696e20746f206772616e7400000000000000000000000000000000006020830152604082019050919050565b600061462b6014836154b6565b91507f5061757361626c653a206e6f74207061757365640000000000000000000000006000830152602082019050919050565b600061466b6032836154b6565b91507f4552433732313a207472616e7366657220746f206e6f6e20455243373231526560008301527f63656976657220696d706c656d656e74657200000000000000000000000000006020830152604082019050919050565b60006146d1601c836154b6565b91507f4552433732313a20746f6b656e20616c7265616479206d696e746564000000006000830152602082019050919050565b6000614711600f836154c7565b91507f414d4241535341444f525f524f4c4500000000000000000000000000000000006000830152600f82019050919050565b60006147516024836154b6565b91507f4552433732313a207472616e7366657220746f20746865207a65726f2061646460008301527f72657373000000000000000000000000000000000000000000000000000000006020830152604082019050919050565b60006147b76019836154b6565b91507f4552433732313a20617070726f766520746f2063616c6c6572000000000000006000830152602082019050919050565b60006147f7602c836154b6565b91507f4552433732313a206f70657261746f7220717565727920666f72206e6f6e657860008301527f697374656e7420746f6b656e00000000000000000000000000000000000000006020830152604082019050919050565b600061485d600c836154c7565b91507f504c414e5445525f524f4c4500000000000000000000000000000000000000006000830152600c82019050919050565b600061489d6030836154b6565b91507f416363657373436f6e74726f6c3a2073656e646572206d75737420626520616e60008301527f2061646d696e20746f207265766f6b65000000000000000000000000000000006020830152604082019050919050565b60006149036010836154b6565b91507f5061757361626c653a20706175736564000000000000000000000000000000006000830152602082019050919050565b60006149436038836154b6565b91507f4552433732313a20617070726f76652063616c6c6572206973206e6f74206f7760008301527f6e6572206e6f7220617070726f76656420666f7220616c6c00000000000000006020830152604082019050919050565b60006149a9602a836154b6565b91507f4552433732313a2062616c616e636520717565727920666f7220746865207a6560008301527f726f2061646472657373000000000000000000000000000000000000000000006020830152604082019050919050565b6000614a0f6022836154b6565b91507f456e756d657261626c654d61703a20696e646578206f7574206f6620626f756e60008301527f64730000000000000000000000000000000000000000000000000000000000006020830152604082019050919050565b6000614a756020836154b6565b91507f4552433732313a206d696e7420746f20746865207a65726f20616464726573736000830152602082019050919050565b6000614ab5602c836154b6565b91507f4552433732313a20617070726f76656420717565727920666f72206e6f6e657860008301527f697374656e7420746f6b656e00000000000000000000000000000000000000006020830152604082019050919050565b6000614b1b6019836154b6565b91507f5468657265206973206e6f742066756e646564207472656573000000000000006000830152602082019050919050565b6000614b5b6029836154b6565b91507f4552433732313a207472616e73666572206f6620746f6b656e2074686174206960008301527f73206e6f74206f776e00000000000000000000000000000000000000000000006020830152604082019050919050565b6000614bc1602f836154b6565b91507f4552433732314d657461646174613a2055524920717565727920666f72206e6f60008301527f6e6578697374656e7420746f6b656e00000000000000000000000000000000006020830152604082019050919050565b6000614c276021836154b6565b91507f4552433732313a20617070726f76616c20746f2063757272656e74206f776e6560008301527f72000000000000000000000000000000000000000000000000000000000000006020830152604082019050919050565b6000614c8d6013836154b6565b91507f43616c6c6572206973206e6f742061646d696e000000000000000000000000006000830152602082019050919050565b6000614ccd6031836154b6565b91507f4552433732313a207472616e736665722063616c6c6572206973206e6f74206f60008301527f776e6572206e6f7220617070726f7665640000000000000000000000000000006020830152604082019050919050565b6000614d33601d836154b6565b91507f416464726573733a2063616c6c20746f206e6f6e2d636f6e74726163740000006000830152602082019050919050565b6000614d736017836154b6565b91507f43616c6c6572206973206e6f74206120706c616e7465720000000000000000006000830152602082019050919050565b6000614db3602f836154b6565b91507f416363657373436f6e74726f6c3a2063616e206f6e6c792072656e6f756e636560008301527f20726f6c657320666f722073656c6600000000000000000000000000000000006020830152604082019050919050565b614e1581615558565b82525050565b614e2481615558565b82525050565b614e3381615562565b82525050565b6000614e4582846143c3565b915081905092915050565b6000614e5c82856144c4565b9150614e68828461445a565b91508190509392505050565b6000614e7f82614704565b9150819050919050565b6000614e9482614850565b9150819050919050565b6000602082019050614eb360008301846142ff565b92915050565b6000602082019050614ece60008301846142e1565b92915050565b6000608082019050614ee960008301876142f0565b614ef660208301866142ff565b614f036040830185614e1b565b8181036060830152614f15818461438a565b905095945050505050565b60006020820190508181036000830152614f3a818461430e565b905092915050565b6000602082019050614f57600083018461436c565b92915050565b6000602082019050614f72600083018461437b565b92915050565b60006020820190508181036000830152614f928184614421565b905092915050565b6000610120820190508181036000830152614fb5818c61448b565b90508181036020830152614fc9818b61448b565b90508181036040830152614fdd818a61448b565b9050614fec6060830189614e1b565b614ff96080830188614e1b565b61500660a0830187614e1b565b61501360c0830186614e2a565b61502060e0830185614e2a565b61502e610100830184614e1b565b9a9950505050505050505050565b6000602082019050818103600083015261505581614552565b9050919050565b60006020820190508181036000830152615075816145b8565b9050919050565b600060208201905081810360008301526150958161461e565b9050919050565b600060208201905081810360008301526150b58161465e565b9050919050565b600060208201905081810360008301526150d5816146c4565b9050919050565b600060208201905081810360008301526150f581614744565b9050919050565b60006020820190508181036000830152615115816147aa565b9050919050565b60006020820190508181036000830152615135816147ea565b9050919050565b6000602082019050818103600083015261515581614890565b9050919050565b60006020820190508181036000830152615175816148f6565b9050919050565b6000602082019050818103600083015261519581614936565b9050919050565b600060208201905081810360008301526151b58161499c565b9050919050565b600060208201905081810360008301526151d581614a02565b9050919050565b600060208201905081810360008301526151f581614a68565b9050919050565b6000602082019050818103600083015261521581614aa8565b9050919050565b6000602082019050818103600083015261523581614b0e565b9050919050565b6000602082019050818103600083015261525581614b4e565b9050919050565b6000602082019050818103600083015261527581614bb4565b9050919050565b6000602082019050818103600083015261529581614c1a565b9050919050565b600060208201905081810360008301526152b581614c80565b9050919050565b600060208201905081810360008301526152d581614cc0565b9050919050565b600060208201905081810360008301526152f581614d26565b9050919050565b6000602082019050818103600083015261531581614d66565b9050919050565b6000602082019050818103600083015261533581614da6565b9050919050565b60006020820190506153516000830184614e1b565b92915050565b600060808201905061536c600083018a614e1b565b818103602083015261537f81888a6143f4565b905081810360408301526153948186886143f4565b905081810360608301526153a98184866143f4565b905098975050505050505050565b60006020820190506153cc6000830184614e2a565b92915050565b6000604051905081810181811067ffffffffffffffff821117156153f557600080fd5b8060405250919050565b600067ffffffffffffffff82111561541657600080fd5b601f19601f8301169050602081019050919050565b6000819050602082019050919050565b60008190508160005260206000209050919050565b600081519050919050565b600081519050919050565b600081519050919050565b600081519050919050565b6000602082019050919050565b600082825260208201905092915050565b600082825260208201905092915050565b600081905092915050565b600082825260208201905092915050565b600081905092915050565b60006154dd82615538565b9050919050565b60006154ef82615538565b9050919050565b60008115159050919050565b6000819050919050565b60007fffffffff0000000000000000000000000000000000000000000000000000000082169050919050565b600073ffffffffffffffffffffffffffffffffffffffff82169050919050565b6000819050919050565b600060ff82169050919050565b600061557a82615581565b9050919050565b600061558c82615593565b9050919050565b600061559e82615538565b9050919050565b82818337600083830152505050565b60005b838110156155d25780820151818401526020810190506155b7565b838111156155e1576000848401525b50505050565b6000601f19601f8301169050919050565b615601816154d2565b811461560c57600080fd5b50565b615618816154f6565b811461562357600080fd5b50565b61562f81615502565b811461563a57600080fd5b50565b6156468161550c565b811461565157600080fd5b50565b61565d81615558565b811461566857600080fd5b50565b61567481615562565b811461567f57600080fd5b5056fe4552433732313a207472616e7366657220746f206e6f6e20455243373231526563656976657220696d706c656d656e7465724552433732313a206f776e657220717565727920666f72206e6f6e6578697374656e7420746f6b656ea264697066735822122072a5a6963b9af086567dc6c0423492c3108f65cf2ffbfc8f6c36f3b5ea01ec9464736f6c63430006020033",
  "source": "// SPDX-License-Identifier: GPL-3.0\n\npragma solidity >=0.4.21 <0.7.0;\npragma experimental ABIEncoderV2;\n\nimport \"../../node_modules/@openzeppelin/contracts/token/ERC721/ERC721.sol\";\n\nimport \"../access/AccessRestriction.sol\";\nimport \"./TreeType.sol\";\n\n\ncontract TreeFactory is ERC721, AccessRestriction {\n\n    constructor() ERC721(\"Tree\", \"TREE\") public {\n    }\n\n    event PriceChanged(uint256 price);\n\n    event TreePlanted(\n        uint256 id,\n        string name,\n        string latitude,\n        string longitude\n    );\n\n    struct Tree {\n        string name;\n        string latitude;\n        string longitude;\n        uint256 plantedDate;\n        uint256 birthDate;\n        uint256 fundedDate;\n        uint8 height;\n        uint8 diameter;\n        uint256 balance;\n    }\n\n    Tree[] public trees;\n\n    uint256 public price;\n\n    mapping(uint => uint) public notFundedTrees;\n    uint256 notFundedTreesLastIndex;\n    uint256 notFundedTreesUsedIndex;\n\n    mapping(uint => uint) public notPlantedTrees;\n    uint256 notPlantedTreesLastIndex;\n    uint256 notPlantedTreesUsedIndex;\n\n\n    mapping(uint256 => uint8) public treeToType;\n    mapping(uint256 => uint256) public treeToGB;\n    mapping(uint256 => address) public treeToPlanter;\n    mapping(uint256 => address) public treeToConserver;\n    mapping(uint256 => address) public treeToVerifier;\n    mapping(address => uint256) planterTreeCount;\n    mapping(address => uint256) conserverTreeCount;\n    mapping(address => uint256) verifierTreeCount;\n    mapping(uint256 => uint256) typeTreeCount;\n    mapping(uint256 => uint256) gbTreeCount;\n\n    //@todo permission must check\n    function add(\n        uint8 _typeId,\n        uint256 _gbId,\n        string[] calldata _stringParams,\n        uint8[] calldata _uintParams\n    ) external onlyPlanter whenNotPaused {\n\n        uint256 id = 0;\n\n        if(this.notPlantedTreesExists() == true) {\n            id = notPlantedTrees[notPlantedTreesUsedIndex];\n            notPlantedTreesUsedIndex++;\n\n            trees[id].name = _stringParams[0];\n            trees[id].latitude = _stringParams[1];\n            trees[id].longitude = _stringParams[2];\n            trees[id].plantedDate = now;\n            trees[id].birthDate = now;\n            trees[id].height = _uintParams[0];\n            trees[id].diameter = _uintParams[1];\n\n            delete notPlantedTrees[notPlantedTreesUsedIndex - 1];\n\n        } else {\n\n\n            trees.push(\n                Tree(\n                    _stringParams[0],\n                    _stringParams[1],\n                    _stringParams[2],\n                    now,\n                    now,\n                    0,\n                    _uintParams[0],\n                    _uintParams[1],\n                    0\n                )\n            );\n            id = trees.length - 1;\n\n            notFundedTrees[notFundedTreesLastIndex] = id;\n            notFundedTreesLastIndex++;\n            _mint(msg.sender, id);\n        }\n\n        typeTreeCount[_typeId]++;\n\n        treeToGB[id] = _gbId;\n        gbTreeCount[_gbId]++;\n\n        emit TreePlanted(\n            id,\n            _stringParams[0],\n            _stringParams[1],\n            _stringParams[2]\n        );\n    }\n\n    function simpleFund(\n        address _account,\n        uint256 _balance\n    ) public returns(uint256) {\n        string memory name = string('types name trees.length');\n\n\n        trees.push(\n            Tree(\n                name,\n                '',\n                '',\n                0,\n                0,\n                now,\n                0,\n                0,\n                _balance\n            )\n        );\n        uint256 id = trees.length - 1;\n\n\n        notPlantedTrees[notPlantedTreesLastIndex] = id;\n        notPlantedTreesLastIndex++;\n\n        _mint(_account, id);\n\n        return id;\n\n    }\n\n    function fundPlantedTress(address _account, uint256 _balance) public returns(uint256) {\n\n        require(this.notFundedTreesExists(), \"There is not funded trees\");\n\n        uint treeId = notFundedTrees[notFundedTreesUsedIndex];\n        notFundedTreesUsedIndex++;\n\n        trees[treeId].balance = _balance;\n        trees[treeId].fundedDate = now;\n\n        _transfer(ownerOf(treeId), _account, treeId);\n\n        delete notFundedTrees[notFundedTreesUsedIndex - 1];\n\n        return treeId;\n    }\n\n    function notFundedTreesExists() public view returns(bool) {\n        return notFundedTreesLastIndex > notFundedTreesUsedIndex;\n    }\n\n    function notPlantedTreesExists() public view returns(bool) {\n        return notPlantedTreesLastIndex > notPlantedTreesUsedIndex;\n    }\n\n    function ownerTreesCount(address _account) public view returns (uint256) {\n        return balanceOf(_account);\n    }\n\n    function treeOwner(uint256 _treeId) public view returns (address) {\n        return ownerOf(_treeId);\n    }\n\n    function getOwnerTrees(address _account) public view returns (uint256[] memory) {\n\n        uint256 tokenCount = balanceOf(_account);\n\n        if (tokenCount == 0) {\n            // Return an empty array\n            return new uint256[](0);\n        }\n\n        uint256[] memory result = new uint256[](tokenCount);\n\n        for (uint256 index = 0; index < tokenCount; index++) {\n            result[index] = tokenOfOwnerByIndex(_account, index);\n        }\n\n        return result;\n    }\n\n    function getTypeId(uint256 _treeId) public view returns (uint256) {\n        return treeToType[_treeId];\n    }\n\n    function getPlantedDate(uint256 _id) public view returns (uint256) {\n        return trees[_id].plantedDate;\n    }\n\n    function setPrice(uint256 _price) external onlyAdmin {\n        price = _price;\n        emit PriceChanged(_price);\n    }\n\n    function getPrice() external view returns(uint256) {\n        return price;\n    }\n}\n",
  "sourcePath": "/home/amir/Projects/treejer/contract/contracts/tree/TreeFactory.sol",
  "compiler": {
    "name": "solc",
    "version": "0.6.2+commit.bacdbe57.Emscripten.clang"
  },
  "schemaVersion": "3.0.22",
  "updatedAt": "2020-07-29T06:29:27.807Z",
  "networkType": "ethereum",
  "devdoc": {
    "methods": {
      "approve(address,uint256)": {
        "details": "See {IERC721-approve}."
      },
      "balanceOf(address)": {
        "details": "See {IERC721-balanceOf}."
      },
      "baseURI()": {
        "details": "Returns the base URI set via {_setBaseURI}. This will be automatically added as a prefix in {tokenURI} to each token's URI, or to the token ID if no specific URI is set for that token ID."
      },
      "getApproved(uint256)": {
        "details": "See {IERC721-getApproved}."
      },
      "getRoleAdmin(bytes32)": {
        "details": "Returns the admin role that controls `role`. See {grantRole} and {revokeRole}.     * To change a role's admin, use {_setRoleAdmin}."
      },
      "getRoleMember(bytes32,uint256)": {
        "details": "Returns one of the accounts that have `role`. `index` must be a value between 0 and {getRoleMemberCount}, non-inclusive.     * Role bearers are not sorted in any particular way, and their ordering may change at any point.     * WARNING: When using {getRoleMember} and {getRoleMemberCount}, make sure you perform all queries on the same block. See the following https://forum.openzeppelin.com/t/iterating-over-elements-on-enumerableset-in-openzeppelin-contracts/2296[forum post] for more information."
      },
      "getRoleMemberCount(bytes32)": {
        "details": "Returns the number of accounts that have `role`. Can be used together with {getRoleMember} to enumerate all bearers of a role."
      },
      "grantRole(bytes32,address)": {
        "details": "Grants `role` to `account`.     * If `account` had not been already granted `role`, emits a {RoleGranted} event.     * Requirements:     * - the caller must have ``role``'s admin role."
      },
      "hasRole(bytes32,address)": {
        "details": "Returns `true` if `account` has been granted `role`."
      },
      "isApprovedForAll(address,address)": {
        "details": "See {IERC721-isApprovedForAll}."
      },
      "name()": {
        "details": "See {IERC721Metadata-name}."
      },
      "ownerOf(uint256)": {
        "details": "See {IERC721-ownerOf}."
      },
      "paused()": {
        "details": "Returns true if the contract is paused, and false otherwise."
      },
      "renounceRole(bytes32,address)": {
        "details": "Revokes `role` from the calling account.     * Roles are often managed via {grantRole} and {revokeRole}: this function's purpose is to provide a mechanism for accounts to lose their privileges if they are compromised (such as when a trusted device is misplaced).     * If the calling account had been granted `role`, emits a {RoleRevoked} event.     * Requirements:     * - the caller must be `account`."
      },
      "revokeRole(bytes32,address)": {
        "details": "Revokes `role` from `account`.     * If `account` had been granted `role`, emits a {RoleRevoked} event.     * Requirements:     * - the caller must have ``role``'s admin role."
      },
      "safeTransferFrom(address,address,uint256)": {
        "details": "See {IERC721-safeTransferFrom}."
      },
      "safeTransferFrom(address,address,uint256,bytes)": {
        "details": "See {IERC721-safeTransferFrom}."
      },
      "setApprovalForAll(address,bool)": {
        "details": "See {IERC721-setApprovalForAll}."
      },
      "supportsInterface(bytes4)": {
        "details": "See {IERC165-supportsInterface}.     * Time complexity O(1), guaranteed to always use less than 30 000 gas."
      },
      "symbol()": {
        "details": "See {IERC721Metadata-symbol}."
      },
      "tokenByIndex(uint256)": {
        "details": "See {IERC721Enumerable-tokenByIndex}."
      },
      "tokenOfOwnerByIndex(address,uint256)": {
        "details": "See {IERC721Enumerable-tokenOfOwnerByIndex}."
      },
      "tokenURI(uint256)": {
        "details": "See {IERC721Metadata-tokenURI}."
      },
      "totalSupply()": {
        "details": "See {IERC721Enumerable-totalSupply}."
      },
      "transferFrom(address,address,uint256)": {
        "details": "See {IERC721-transferFrom}."
      }
    }
  },
  "userdoc": {
    "methods": {}
  }
}