{
  "contractName": "TreeSale",
  "abi": [
    {
      "inputs": [
        {
          "internalType": "contract TreeFactory",
          "name": "_treeFactoryAddress",
          "type": "address"
        }
      ],
      "stateMutability": "nonpayable",
      "type": "constructor"
    },
    {
      "anonymous": false,
      "inputs": [
        {
          "indexed": false,
          "internalType": "address",
          "name": "account",
          "type": "address"
        }
      ],
      "name": "Paused",
      "type": "event"
    },
    {
      "anonymous": false,
      "inputs": [
        {
          "indexed": true,
          "internalType": "bytes32",
          "name": "role",
          "type": "bytes32"
        },
        {
          "indexed": true,
          "internalType": "bytes32",
          "name": "previousAdminRole",
          "type": "bytes32"
        },
        {
          "indexed": true,
          "internalType": "bytes32",
          "name": "newAdminRole",
          "type": "bytes32"
        }
      ],
      "name": "RoleAdminChanged",
      "type": "event"
    },
    {
      "anonymous": false,
      "inputs": [
        {
          "indexed": true,
          "internalType": "bytes32",
          "name": "role",
          "type": "bytes32"
        },
        {
          "indexed": true,
          "internalType": "address",
          "name": "account",
          "type": "address"
        },
        {
          "indexed": true,
          "internalType": "address",
          "name": "sender",
          "type": "address"
        }
      ],
      "name": "RoleGranted",
      "type": "event"
    },
    {
      "anonymous": false,
      "inputs": [
        {
          "indexed": true,
          "internalType": "bytes32",
          "name": "role",
          "type": "bytes32"
        },
        {
          "indexed": true,
          "internalType": "address",
          "name": "account",
          "type": "address"
        },
        {
          "indexed": true,
          "internalType": "address",
          "name": "sender",
          "type": "address"
        }
      ],
      "name": "RoleRevoked",
      "type": "event"
    },
    {
      "anonymous": false,
      "inputs": [
        {
          "indexed": false,
          "internalType": "uint256",
          "name": "id",
          "type": "uint256"
        },
        {
          "indexed": false,
          "internalType": "uint256",
          "name": "treeId",
          "type": "uint256"
        },
        {
          "indexed": false,
          "internalType": "uint256",
          "name": "price",
          "type": "uint256"
        }
      ],
      "name": "TreeAddedToSalesList",
      "type": "event"
    },
    {
      "anonymous": false,
      "inputs": [
        {
          "indexed": false,
          "internalType": "uint256",
          "name": "treeId",
          "type": "uint256"
        }
      ],
      "name": "TreeRemovedFromSalesList",
      "type": "event"
    },
    {
      "anonymous": false,
      "inputs": [
        {
          "indexed": false,
          "internalType": "address",
          "name": "account",
          "type": "address"
        }
      ],
      "name": "Unpaused",
      "type": "event"
    },
    {
      "inputs": [],
      "name": "AMBASSADOR_ROLE",
      "outputs": [
        {
          "internalType": "bytes32",
          "name": "",
          "type": "bytes32"
        }
      ],
      "stateMutability": "view",
      "type": "function",
      "constant": true
    },
    {
      "inputs": [],
      "name": "DEFAULT_ADMIN_ROLE",
      "outputs": [
        {
          "internalType": "bytes32",
          "name": "",
          "type": "bytes32"
        }
      ],
      "stateMutability": "view",
      "type": "function",
      "constant": true
    },
    {
      "inputs": [],
      "name": "PLANTER_ROLE",
      "outputs": [
        {
          "internalType": "bytes32",
          "name": "",
          "type": "bytes32"
        }
      ],
      "stateMutability": "view",
      "type": "function",
      "constant": true
    },
    {
      "inputs": [
        {
          "internalType": "bytes32",
          "name": "role",
          "type": "bytes32"
        }
      ],
      "name": "getRoleAdmin",
      "outputs": [
        {
          "internalType": "bytes32",
          "name": "",
          "type": "bytes32"
        }
      ],
      "stateMutability": "view",
      "type": "function",
      "constant": true
    },
    {
      "inputs": [
        {
          "internalType": "bytes32",
          "name": "role",
          "type": "bytes32"
        },
        {
          "internalType": "uint256",
          "name": "index",
          "type": "uint256"
        }
      ],
      "name": "getRoleMember",
      "outputs": [
        {
          "internalType": "address",
          "name": "",
          "type": "address"
        }
      ],
      "stateMutability": "view",
      "type": "function",
      "constant": true
    },
    {
      "inputs": [
        {
          "internalType": "bytes32",
          "name": "role",
          "type": "bytes32"
        }
      ],
      "name": "getRoleMemberCount",
      "outputs": [
        {
          "internalType": "uint256",
          "name": "",
          "type": "uint256"
        }
      ],
      "stateMutability": "view",
      "type": "function",
      "constant": true
    },
    {
      "inputs": [
        {
          "internalType": "bytes32",
          "name": "role",
          "type": "bytes32"
        },
        {
          "internalType": "address",
          "name": "account",
          "type": "address"
        }
      ],
      "name": "grantRole",
      "outputs": [],
      "stateMutability": "nonpayable",
      "type": "function"
    },
    {
      "inputs": [
        {
          "internalType": "bytes32",
          "name": "role",
          "type": "bytes32"
        },
        {
          "internalType": "address",
          "name": "account",
          "type": "address"
        }
      ],
      "name": "hasRole",
      "outputs": [
        {
          "internalType": "bool",
          "name": "",
          "type": "bool"
        }
      ],
      "stateMutability": "view",
      "type": "function",
      "constant": true
    },
    {
      "inputs": [],
      "name": "owner",
      "outputs": [
        {
          "internalType": "address",
          "name": "",
          "type": "address"
        }
      ],
      "stateMutability": "view",
      "type": "function",
      "constant": true
    },
    {
      "inputs": [],
      "name": "pause",
      "outputs": [],
      "stateMutability": "nonpayable",
      "type": "function"
    },
    {
      "inputs": [],
      "name": "paused",
      "outputs": [
        {
          "internalType": "bool",
          "name": "",
          "type": "bool"
        }
      ],
      "stateMutability": "view",
      "type": "function",
      "constant": true
    },
    {
      "inputs": [
        {
          "internalType": "bytes32",
          "name": "role",
          "type": "bytes32"
        },
        {
          "internalType": "address",
          "name": "account",
          "type": "address"
        }
      ],
      "name": "renounceRole",
      "outputs": [],
      "stateMutability": "nonpayable",
      "type": "function"
    },
    {
      "inputs": [
        {
          "internalType": "bytes32",
          "name": "role",
          "type": "bytes32"
        },
        {
          "internalType": "address",
          "name": "account",
          "type": "address"
        }
      ],
      "name": "revokeRole",
      "outputs": [],
      "stateMutability": "nonpayable",
      "type": "function"
    },
    {
      "inputs": [
        {
          "internalType": "uint256",
          "name": "",
          "type": "uint256"
        }
      ],
      "name": "salesArray",
      "outputs": [
        {
          "internalType": "uint256",
          "name": "",
          "type": "uint256"
        }
      ],
      "stateMutability": "view",
      "type": "function",
      "constant": true
    },
    {
      "inputs": [
        {
          "internalType": "uint256",
          "name": "",
          "type": "uint256"
        }
      ],
      "name": "salesLists",
      "outputs": [
        {
          "internalType": "uint256",
          "name": "treeId",
          "type": "uint256"
        },
        {
          "internalType": "uint256",
          "name": "price",
          "type": "uint256"
        }
      ],
      "stateMutability": "view",
      "type": "function",
      "constant": true
    },
    {
      "inputs": [],
      "name": "treeFactory",
      "outputs": [
        {
          "internalType": "contract TreeFactory",
          "name": "",
          "type": "address"
        }
      ],
      "stateMutability": "view",
      "type": "function",
      "constant": true
    },
    {
      "inputs": [],
      "name": "unpause",
      "outputs": [],
      "stateMutability": "nonpayable",
      "type": "function"
    },
    {
      "inputs": [
        {
          "internalType": "uint256",
          "name": "_treeId",
          "type": "uint256"
        },
        {
          "internalType": "uint256",
          "name": "_price",
          "type": "uint256"
        }
      ],
      "name": "addToSalesList",
      "outputs": [],
      "stateMutability": "nonpayable",
      "type": "function"
    },
    {
      "inputs": [],
      "name": "salesListCount",
      "outputs": [
        {
          "internalType": "uint256",
          "name": "",
          "type": "uint256"
        }
      ],
      "stateMutability": "view",
      "type": "function",
      "constant": true
    },
    {
      "inputs": [],
      "name": "allSalesList",
      "outputs": [
        {
          "internalType": "uint256[]",
          "name": "",
          "type": "uint256[]"
        }
      ],
      "stateMutability": "view",
      "type": "function",
      "constant": true
    },
    {
      "inputs": [
        {
          "internalType": "uint256",
          "name": "_saleId",
          "type": "uint256"
        }
      ],
      "name": "removeFromSalesList",
      "outputs": [],
      "stateMutability": "nonpayable",
      "type": "function"
    },
    {
      "inputs": [
        {
          "internalType": "uint256",
          "name": "_saleId",
          "type": "uint256"
        }
      ],
      "name": "getSaleData",
      "outputs": [
        {
          "internalType": "uint256",
          "name": "id",
          "type": "uint256"
        },
        {
          "internalType": "uint256",
          "name": "price",
          "type": "uint256"
        }
      ],
      "stateMutability": "view",
      "type": "function",
      "constant": true
    },
    {
      "inputs": [
        {
          "internalType": "uint256",
          "name": "_saleId",
          "type": "uint256"
        }
      ],
      "name": "getPrice",
      "outputs": [
        {
          "internalType": "uint256",
          "name": "",
          "type": "uint256"
        }
      ],
      "stateMutability": "view",
      "type": "function",
      "constant": true
    },
    {
      "inputs": [
        {
          "internalType": "uint256",
          "name": "_saleId",
          "type": "uint256"
        }
      ],
      "name": "getTreeId",
      "outputs": [
        {
          "internalType": "uint256",
          "name": "",
          "type": "uint256"
        }
      ],
      "stateMutability": "view",
      "type": "function",
      "constant": true
    }
  ],
  "bytecode": "0x6080604052336001806101000a81548173ffffffffffffffffffffffffffffffffffffffff021916908373ffffffffffffffffffffffffffffffffffffffff1602179055503480156200005157600080fd5b5060405162002076380380620020768339818101604052810190620000779190620002ea565b6000600160006101000a81548160ff021916908315150217905550620000a76000801b336200013d60201b60201c565b620000ce604051620000b990620003b1565b6040518091039020336200013d60201b60201c565b620000f5604051620000e0906200039a565b6040518091039020336200013d60201b60201c565b80600460006101000a81548173ffffffffffffffffffffffffffffffffffffffff021916908373ffffffffffffffffffffffffffffffffffffffff1602179055505062000435565b6200014f82826200015360201b60201c565b5050565b6200018181600080858152602001908152602001600020600001620001f660201b62000d2d1790919060201c565b15620001f257620001976200022e60201b60201c565b73ffffffffffffffffffffffffffffffffffffffff168173ffffffffffffffffffffffffffffffffffffffff16837f2f8788117e7eff1d82e926ec794901d17c78024a50270940304540a733656f0d60405160405180910390a45b5050565b600062000226836000018373ffffffffffffffffffffffffffffffffffffffff1660001b6200023660201b60201c565b905092915050565b600033905090565b60006200024a8383620002b060201b60201c565b620002a5578260000182908060018154018082558091505060019003906000526020600020016000909190919091505582600001805490508360010160008481526020019081526020016000208190555060019050620002aa565b600090505b92915050565b600080836001016000848152602001908152602001600020541415905092915050565b600081519050620002e4816200041b565b92915050565b600060208284031215620002fd57600080fd5b60006200030d84828501620002d3565b91505092915050565b600062000325600f83620003c8565b91507f414d4241535341444f525f524f4c4500000000000000000000000000000000006000830152600f82019050919050565b600062000367600c83620003c8565b91507f504c414e5445525f524f4c4500000000000000000000000000000000000000006000830152600c82019050919050565b6000620003a78262000316565b9150819050919050565b6000620003be8262000358565b9150819050919050565b600081905092915050565b6000620003e082620003fb565b9050919050565b6000620003f482620003d3565b9050919050565b600073ffffffffffffffffffffffffffffffffffffffff82169050919050565b6200042681620003e7565b81146200043257600080fd5b50565b611c3180620004456000396000f3fe608060405234801561001057600080fd5b50600436106101585760003560e01c80638456cb59116100c3578063c53992661161007c578063c5399266146103b9578063ca15c873146103e9578063d547741f14610419578063e757223014610435578063ef78553114610465578063f29bbde81461048157610158565b80638456cb59146102e257806386630b7b146102ec5780638da5cb5b1461031d5780639010d07c1461033b57806391d148541461036b578063a217fddf1461039b57610158565b80633f4ba83a116101155780633f4ba83a14610244578063421ef6d41461024e5780635ab8aebf1461026c5780635c975abb1461028a57806374a467f9146102a85780637e828e16146102c457610158565b80630adbdd9b1461015d5780630daa2e661461018d5780631013a527146101ab578063248a9ca3146101dc5780632f2ff15d1461020c57806336568abe14610228575b600080fd5b61017760048036038101906101729190611385565b61049f565b6040516101849190611a3a565b60405180910390f35b6101956104c0565b6040516101a291906118e4565b60405180910390f35b6101c560048036038101906101c09190611385565b6104d7565b6040516101d3929190611a55565b60405180910390f35b6101f660048036038101906101f191906112e4565b610508565b60405161020391906118e4565b60405180910390f35b6102266004803603810190610221919061130d565b610527565b005b610242600480360381019061023d919061130d565b61059a565b005b61024c61061d565b005b610256610673565b60405161026391906118ff565b60405180910390f35b610274610699565b6040516102819190611a3a565b60405180910390f35b6102926106a6565b60405161029f91906118c9565b60405180910390f35b6102c260048036038101906102bd91906113ae565b6106bd565b005b6102cc6108a3565b6040516102d991906118a7565b60405180910390f35b6102ea6108fb565b005b61030660048036038101906103019190611385565b610951565b604051610314929190611a55565b60405180910390f35b6103256109e3565b6040516103329190611871565b60405180910390f35b61035560048036038101906103509190611349565b610a08565b6040516103629190611871565b60405180910390f35b6103856004803603810190610380919061130d565b610a39565b60405161039291906118c9565b60405180910390f35b6103a3610a6a565b6040516103b091906118e4565b60405180910390f35b6103d360048036038101906103ce9190611385565b610a71565b6040516103e09190611a3a565b60405180910390f35b61040360048036038101906103fe91906112e4565b610ae1565b6040516104109190611a3a565b60405180910390f35b610433600480360381019061042e919061130d565b610b07565b005b61044f600480360381019061044a9190611385565b610b7a565b60405161045c9190611a3a565b60405180910390f35b61047f600480360381019061047a9190611385565b610bea565b005b610489610d16565b60405161049691906118e4565b60405180910390f35b600381815481106104ac57fe5b906000526020600020016000915090505481565b6040516104cc90611847565b604051809103902081565b600281815481106104e457fe5b90600052602060002090600202016000915090508060000154908060010154905082565b6000806000838152602001908152602001600020600201549050919050565b61054d60008084815260200190815260200160002060020154610548610d5d565b610a39565b61058c576040517f08c379a00000000000000000000000000000000000000000000000000000000081526004016105839061193a565b60405180910390fd5b6105968282610d65565b5050565b6105a2610d5d565b73ffffffffffffffffffffffffffffffffffffffff168173ffffffffffffffffffffffffffffffffffffffff161461060f576040517f08c379a000000000000000000000000000000000000000000000000000000000815260040161060690611a1a565b60405180910390fd5b6106198282610df8565b5050565b61062a6000801b33610a39565b610669576040517f08c379a0000000000000000000000000000000000000000000000000000000008152600401610660906119fa565b60405180910390fd5b610671610e8b565b565b600460009054906101000a900473ffffffffffffffffffffffffffffffffffffffff1681565b6000600280549050905090565b6000600160009054906101000a900460ff16905090565b600460009054906101000a900473ffffffffffffffffffffffffffffffffffffffff1673ffffffffffffffffffffffffffffffffffffffff16630d4c055a836040518263ffffffff1660e01b81526004016107189190611a3a565b60206040518083038186803b15801561073057600080fd5b505afa158015610744573d6000803e3d6000fd5b505050506040513d601f19601f8201168201806040525081019061076891906112bb565b8073ffffffffffffffffffffffffffffffffffffffff163373ffffffffffffffffffffffffffffffffffffffff16146107d6576040517f08c379a00000000000000000000000000000000000000000000000000000000081526004016107cd9061197a565b60405180910390fd5b60026040518060400160405280858152602001848152509080600181540180825580915050600190039060005260206000209060020201600090919091909150600082015181600001556020820151816001015550506000600160028054905003905060038190806001815401808255809150506001900390600052602060002001600090919091909150557ffc2007a3b94f1f274839de3a2690a011b5dc2e22b3cce25ccdf6e46ace0f9a8581858560405161089593929190611a7e565b60405180910390a150505050565b606060038054806020026020016040519081016040528092919081815260200182805480156108f157602002820191906000526020600020905b8154815260200190600101908083116108dd575b5050505050905090565b6109086000801b33610a39565b610947576040517f08c379a000000000000000000000000000000000000000000000000000000000815260040161093e906119fa565b60405180910390fd5b61094f610f35565b565b60008060028054905083111561099c576040517f08c379a00000000000000000000000000000000000000000000000000000000081526004016109939061199a565b60405180910390fd5b600283815481106109a957fe5b906000526020600020906002020160000154600284815481106109c857fe5b90600052602060002090600202016001015491509150915091565b6001809054906101000a900473ffffffffffffffffffffffffffffffffffffffff1681565b6000610a3182600080868152602001908152602001600020600001610fdf90919063ffffffff16565b905092915050565b6000610a6282600080868152602001908152602001600020600001610ff990919063ffffffff16565b905092915050565b6000801b81565b6000600280549050821115610abb576040517f08c379a0000000000000000000000000000000000000000000000000000000008152600401610ab29061199a565b60405180910390fd5b60028281548110610ac857fe5b9060005260206000209060020201600001549050919050565b6000610b00600080848152602001908152602001600020600001611029565b9050919050565b610b2d60008084815260200190815260200160002060020154610b28610d5d565b610a39565b610b6c576040517f08c379a0000000000000000000000000000000000000000000000000000000008152600401610b63906119ba565b60405180910390fd5b610b768282610df8565b5050565b6000600280549050821115610bc4576040517f08c379a0000000000000000000000000000000000000000000000000000000008152600401610bbb9061199a565b60405180910390fd5b60028281548110610bd157fe5b9060005260206000209060020201600101549050919050565b600280549050811115610c32576040517f08c379a0000000000000000000000000000000000000000000000000000000008152600401610c299061199a565b60405180910390fd5b60008190505b600160028054905003811015610ca55760026001820181548110610c5857fe5b906000526020600020906002020160028281548110610c7357fe5b906000526020600020906002020160008201548160000155600182015481600101559050508080600101915050610c38565b50600260016002805490500381548110610cbb57fe5b9060005260206000209060020201600080820160009055600182016000905550507f72cbceb9938d0023d31994195846fa72b4d073bd1a2cc74af0f717c1bcf4866981604051610d0b9190611a3a565b60405180910390a150565b604051610d229061185c565b604051809103902081565b6000610d55836000018373ffffffffffffffffffffffffffffffffffffffff1660001b61103e565b905092915050565b600033905090565b610d8c81600080858152602001908152602001600020600001610d2d90919063ffffffff16565b15610df457610d99610d5d565b73ffffffffffffffffffffffffffffffffffffffff168173ffffffffffffffffffffffffffffffffffffffff16837f2f8788117e7eff1d82e926ec794901d17c78024a50270940304540a733656f0d60405160405180910390a45b5050565b610e1f816000808581526020019081526020016000206000016110ae90919063ffffffff16565b15610e8757610e2c610d5d565b73ffffffffffffffffffffffffffffffffffffffff168173ffffffffffffffffffffffffffffffffffffffff16837ff6391f5c32d9c69d2a47ea670b442974b53935d1edc7fd64eb21e047a839171b60405160405180910390a45b5050565b600160009054906101000a900460ff16610eda576040517f08c379a0000000000000000000000000000000000000000000000000000000008152600401610ed19061195a565b60405180910390fd5b6000600160006101000a81548160ff0219169083151502179055507f5db9ee0a495bf2e6ff9c91a7834c1ba4fdd244a5e8aa4e537bd38aeae4b073aa610f1e610d5d565b604051610f2b919061188c565b60405180910390a1565b600160009054906101000a900460ff1615610f85576040517f08c379a0000000000000000000000000000000000000000000000000000000008152600401610f7c906119da565b60405180910390fd5b60018060006101000a81548160ff0219169083151502179055507f62e78cea01bee320cd4e420270b5ea74000d11b0c9f74754ebdbfc544b05a258610fc8610d5d565b604051610fd5919061188c565b60405180910390a1565b6000610fee83600001836110de565b60001c905092915050565b6000611021836000018373ffffffffffffffffffffffffffffffffffffffff1660001b61114b565b905092915050565b60006110378260000161116e565b9050919050565b600061104a838361114b565b6110a35782600001829080600181540180825580915050600190039060005260206000200160009091909190915055826000018054905083600101600084815260200190815260200160002081905550600190506110a8565b600090505b92915050565b60006110d6836000018373ffffffffffffffffffffffffffffffffffffffff1660001b61117f565b905092915050565b600081836000018054905011611129576040517f08c379a00000000000000000000000000000000000000000000000000000000081526004016111209061191a565b60405180910390fd5b82600001828154811061113857fe5b9060005260206000200154905092915050565b600080836001016000848152602001908152602001600020541415905092915050565b600081600001805490509050919050565b6000808360010160008481526020019081526020016000205490506000811461125b57600060018203905060006001866000018054905003905060008660000182815481106111ca57fe5b90600052602060002001549050808760000184815481106111e757fe5b906000526020600020018190555060018301876001016000838152602001908152602001600020819055508660000180548061121f57fe5b60019003818190600052602060002001600090559055866001016000878152602001908152602001600020600090556001945050505050611261565b60009150505b92915050565b60008135905061127681611bb6565b92915050565b60008151905061128b81611bb6565b92915050565b6000813590506112a081611bcd565b92915050565b6000813590506112b581611be4565b92915050565b6000602082840312156112cd57600080fd5b60006112db8482850161127c565b91505092915050565b6000602082840312156112f657600080fd5b600061130484828501611291565b91505092915050565b6000806040838503121561132057600080fd5b600061132e85828601611291565b925050602061133f85828601611267565b9150509250929050565b6000806040838503121561135c57600080fd5b600061136a85828601611291565b925050602061137b858286016112a6565b9150509250929050565b60006020828403121561139757600080fd5b60006113a5848285016112a6565b91505092915050565b600080604083850312156113c157600080fd5b60006113cf858286016112a6565b92505060206113e0858286016112a6565b9150509250929050565b60006113f68383611829565b60208301905092915050565b61140b81611b5c565b82525050565b61141a81611b0a565b82525050565b600061142b82611ac5565b6114358185611add565b935061144083611ab5565b8060005b8381101561147157815161145888826113ea565b975061146383611ad0565b925050600181019050611444565b5085935050505092915050565b61148781611b1c565b82525050565b61149681611b28565b82525050565b6114a581611b6e565b82525050565b60006114b8602283611aee565b91507f456e756d657261626c655365743a20696e646578206f7574206f6620626f756e60008301527f64730000000000000000000000000000000000000000000000000000000000006020830152604082019050919050565b600061151e602f83611aee565b91507f416363657373436f6e74726f6c3a2073656e646572206d75737420626520616e60008301527f2061646d696e20746f206772616e7400000000000000000000000000000000006020830152604082019050919050565b6000611584601483611aee565b91507f5061757361626c653a206e6f74207061757365640000000000000000000000006000830152602082019050919050565b60006115c4600f83611aff565b91507f414d4241535341444f525f524f4c4500000000000000000000000000000000006000830152600f82019050919050565b6000611604603583611aee565b91507f53656e646572206e6f7420617574686f72697a65642c204f6e6c79206f776e6560008301527f72206f66207472656520617574686f72697a65642100000000000000000000006020830152604082019050919050565b600061166a601383611aee565b91507f53616c65206964206e6f742065786973747321000000000000000000000000006000830152602082019050919050565b60006116aa600c83611aff565b91507f504c414e5445525f524f4c4500000000000000000000000000000000000000006000830152600c82019050919050565b60006116ea603083611aee565b91507f416363657373436f6e74726f6c3a2073656e646572206d75737420626520616e60008301527f2061646d696e20746f207265766f6b65000000000000000000000000000000006020830152604082019050919050565b6000611750601083611aee565b91507f5061757361626c653a20706175736564000000000000000000000000000000006000830152602082019050919050565b6000611790601383611aee565b91507f43616c6c6572206973206e6f742061646d696e000000000000000000000000006000830152602082019050919050565b60006117d0602f83611aee565b91507f416363657373436f6e74726f6c3a2063616e206f6e6c792072656e6f756e636560008301527f20726f6c657320666f722073656c6600000000000000000000000000000000006020830152604082019050919050565b61183281611b52565b82525050565b61184181611b52565b82525050565b6000611852826115b7565b9150819050919050565b60006118678261169d565b9150819050919050565b60006020820190506118866000830184611411565b92915050565b60006020820190506118a16000830184611402565b92915050565b600060208201905081810360008301526118c18184611420565b905092915050565b60006020820190506118de600083018461147e565b92915050565b60006020820190506118f9600083018461148d565b92915050565b6000602082019050611914600083018461149c565b92915050565b60006020820190508181036000830152611933816114ab565b9050919050565b6000602082019050818103600083015261195381611511565b9050919050565b6000602082019050818103600083015261197381611577565b9050919050565b60006020820190508181036000830152611993816115f7565b9050919050565b600060208201905081810360008301526119b38161165d565b9050919050565b600060208201905081810360008301526119d3816116dd565b9050919050565b600060208201905081810360008301526119f381611743565b9050919050565b60006020820190508181036000830152611a1381611783565b9050919050565b60006020820190508181036000830152611a33816117c3565b9050919050565b6000602082019050611a4f6000830184611838565b92915050565b6000604082019050611a6a6000830185611838565b611a776020830184611838565b9392505050565b6000606082019050611a936000830186611838565b611aa06020830185611838565b611aad6040830184611838565b949350505050565b6000819050602082019050919050565b600081519050919050565b6000602082019050919050565b600082825260208201905092915050565b600082825260208201905092915050565b600081905092915050565b6000611b1582611b32565b9050919050565b60008115159050919050565b6000819050919050565b600073ffffffffffffffffffffffffffffffffffffffff82169050919050565b6000819050919050565b6000611b6782611b92565b9050919050565b6000611b7982611b80565b9050919050565b6000611b8b82611b32565b9050919050565b6000611b9d82611ba4565b9050919050565b6000611baf82611b32565b9050919050565b611bbf81611b0a565b8114611bca57600080fd5b50565b611bd681611b28565b8114611be157600080fd5b50565b611bed81611b52565b8114611bf857600080fd5b5056fea26469706673582212205492a32dda08ac946a20292a4b452861796abe7bbc5b226e52d832e7a46c5b4e64736f6c63430006090033",
  "source": "// SPDX-License-Identifier: GPL-3.0\n\npragma solidity >=0.4.21 <0.7.0;\npragma experimental ABIEncoderV2;\n\nimport \"./TreeFactory.sol\";\nimport \"../access/AccessRestriction.sol\";\n\ncontract TreeSale is AccessRestriction {\n    event TreeAddedToSalesList(uint256 id, uint256 treeId, uint256 price);\n\n    event TreeRemovedFromSalesList(uint256 treeId);\n\n    struct SalesList {\n        uint256 treeId;\n        uint256 price;\n    }\n\n    SalesList[] public salesLists;\n    uint256[] public salesArray;\n\n    TreeFactory public treeFactory;\n\n\n    constructor(TreeFactory _treeFactoryAddress) public {\n        treeFactory = _treeFactoryAddress;\n    }\n\n    function addToSalesList(uint256 _treeId, uint256 _price)\n        external\n        onlyOwnerOfTree(treeFactory.treeOwner(_treeId))\n    {\n        salesLists.push(SalesList(_treeId, _price));\n        uint256 id = salesLists.length - 1;\n        salesArray.push(id);\n\n        emit TreeAddedToSalesList(id, _treeId, _price);\n    }\n\n    function salesListCount() external view returns (uint256) {\n        return salesLists.length;\n    }\n\n    function allSalesList() external view returns (uint256[] memory) {\n        return salesArray;\n    }\n\n    function removeFromSalesList(uint256 _saleId) public {\n        require(_saleId <= salesLists.length, \"Sale id not exists!\");\n\n        for (uint256 i = _saleId; i < salesLists.length - 1; i++) {\n            salesLists[i] = salesLists[i + 1];\n        }\n\n        delete salesLists[salesLists.length - 1];\n\n        emit TreeRemovedFromSalesList(_saleId);\n    }\n\n    function getSaleData(uint256 _saleId)\n        external\n        view\n        returns (uint256 id, uint256 price)\n    {\n        require(_saleId <= salesLists.length, \"Sale id not exists!\");\n\n        return (salesLists[_saleId].treeId, salesLists[_saleId].price);\n    }\n\n    function getPrice(uint256 _saleId)\n        external\n        view\n        returns (uint256)\n    {\n        require(_saleId <= salesLists.length, \"Sale id not exists!\");\n\n        return salesLists[_saleId].price;\n    }\n\n    function getTreeId(uint256 _saleId)\n        external\n        view\n        returns (uint256)\n    {\n        require(_saleId <= salesLists.length, \"Sale id not exists!\");\n\n        return salesLists[_saleId].treeId;\n    }\n}\n",
  "sourcePath": "/home/amir/Projects/treejer/contract/contracts/tree/TreeSale.sol",
  "compiler": {
    "name": "solc",
    "version": "0.6.9+commit.3e3065ac.Emscripten.clang"
  },
  "schemaVersion": "3.0.22",
  "updatedAt": "2020-08-03T06:03:35.676Z",
  "networkType": "ethereum",
  "devdoc": {
    "methods": {
      "getRoleAdmin(bytes32)": {
        "details": "Returns the admin role that controls `role`. See {grantRole} and {revokeRole}. To change a role's admin, use {_setRoleAdmin}."
      },
      "getRoleMember(bytes32,uint256)": {
        "details": "Returns one of the accounts that have `role`. `index` must be a value between 0 and {getRoleMemberCount}, non-inclusive. Role bearers are not sorted in any particular way, and their ordering may change at any point. WARNING: When using {getRoleMember} and {getRoleMemberCount}, make sure you perform all queries on the same block. See the following https://forum.openzeppelin.com/t/iterating-over-elements-on-enumerableset-in-openzeppelin-contracts/2296[forum post] for more information."
      },
      "getRoleMemberCount(bytes32)": {
        "details": "Returns the number of accounts that have `role`. Can be used together with {getRoleMember} to enumerate all bearers of a role."
      },
      "grantRole(bytes32,address)": {
        "details": "Grants `role` to `account`. If `account` had not been already granted `role`, emits a {RoleGranted} event. Requirements: - the caller must have ``role``'s admin role."
      },
      "hasRole(bytes32,address)": {
        "details": "Returns `true` if `account` has been granted `role`."
      },
      "paused()": {
        "details": "Returns true if the contract is paused, and false otherwise."
      },
      "renounceRole(bytes32,address)": {
        "details": "Revokes `role` from the calling account. Roles are often managed via {grantRole} and {revokeRole}: this function's purpose is to provide a mechanism for accounts to lose their privileges if they are compromised (such as when a trusted device is misplaced). If the calling account had been granted `role`, emits a {RoleRevoked} event. Requirements: - the caller must be `account`."
      },
      "revokeRole(bytes32,address)": {
        "details": "Revokes `role` from `account`. If `account` had been granted `role`, emits a {RoleRevoked} event. Requirements: - the caller must have ``role``'s admin role."
      }
    }
  },
  "userdoc": {
    "methods": {}
  }
}