{
  "contractName": "TreeFactory",
  "abi": [
    {
      "inputs": [],
      "stateMutability": "nonpayable",
      "type": "constructor"
    },
    {
      "anonymous": false,
      "inputs": [
        {
          "indexed": true,
          "internalType": "address",
          "name": "owner",
          "type": "address"
        },
        {
          "indexed": true,
          "internalType": "address",
          "name": "approved",
          "type": "address"
        },
        {
          "indexed": true,
          "internalType": "uint256",
          "name": "tokenId",
          "type": "uint256"
        }
      ],
      "name": "Approval",
      "type": "event"
    },
    {
      "anonymous": false,
      "inputs": [
        {
          "indexed": true,
          "internalType": "address",
          "name": "owner",
          "type": "address"
        },
        {
          "indexed": true,
          "internalType": "address",
          "name": "operator",
          "type": "address"
        },
        {
          "indexed": false,
          "internalType": "bool",
          "name": "approved",
          "type": "bool"
        }
      ],
      "name": "ApprovalForAll",
      "type": "event"
    },
    {
      "anonymous": false,
      "inputs": [
        {
          "indexed": false,
          "internalType": "address",
          "name": "account",
          "type": "address"
        }
      ],
      "name": "Paused",
      "type": "event"
    },
    {
      "anonymous": false,
      "inputs": [
        {
          "indexed": false,
          "internalType": "uint256",
          "name": "price",
          "type": "uint256"
        }
      ],
      "name": "PriceChanged",
      "type": "event"
    },
    {
      "anonymous": false,
      "inputs": [
        {
          "indexed": true,
          "internalType": "bytes32",
          "name": "role",
          "type": "bytes32"
        },
        {
          "indexed": true,
          "internalType": "bytes32",
          "name": "previousAdminRole",
          "type": "bytes32"
        },
        {
          "indexed": true,
          "internalType": "bytes32",
          "name": "newAdminRole",
          "type": "bytes32"
        }
      ],
      "name": "RoleAdminChanged",
      "type": "event"
    },
    {
      "anonymous": false,
      "inputs": [
        {
          "indexed": true,
          "internalType": "bytes32",
          "name": "role",
          "type": "bytes32"
        },
        {
          "indexed": true,
          "internalType": "address",
          "name": "account",
          "type": "address"
        },
        {
          "indexed": true,
          "internalType": "address",
          "name": "sender",
          "type": "address"
        }
      ],
      "name": "RoleGranted",
      "type": "event"
    },
    {
      "anonymous": false,
      "inputs": [
        {
          "indexed": true,
          "internalType": "bytes32",
          "name": "role",
          "type": "bytes32"
        },
        {
          "indexed": true,
          "internalType": "address",
          "name": "account",
          "type": "address"
        },
        {
          "indexed": true,
          "internalType": "address",
          "name": "sender",
          "type": "address"
        }
      ],
      "name": "RoleRevoked",
      "type": "event"
    },
    {
      "anonymous": false,
      "inputs": [
        {
          "indexed": true,
          "internalType": "address",
          "name": "from",
          "type": "address"
        },
        {
          "indexed": true,
          "internalType": "address",
          "name": "to",
          "type": "address"
        },
        {
          "indexed": true,
          "internalType": "uint256",
          "name": "tokenId",
          "type": "uint256"
        }
      ],
      "name": "Transfer",
      "type": "event"
    },
    {
      "anonymous": false,
      "inputs": [
        {
          "indexed": false,
          "internalType": "uint256",
          "name": "id",
          "type": "uint256"
        },
        {
          "indexed": false,
          "internalType": "string",
          "name": "name",
          "type": "string"
        },
        {
          "indexed": false,
          "internalType": "string",
          "name": "latitude",
          "type": "string"
        },
        {
          "indexed": false,
          "internalType": "string",
          "name": "longitude",
          "type": "string"
        }
      ],
      "name": "TreePlanted",
      "type": "event"
    },
    {
      "anonymous": false,
      "inputs": [
        {
          "indexed": false,
          "internalType": "address",
          "name": "account",
          "type": "address"
        }
      ],
      "name": "Unpaused",
      "type": "event"
    },
    {
      "inputs": [],
      "name": "AMBASSADOR_ROLE",
      "outputs": [
        {
          "internalType": "bytes32",
          "name": "",
          "type": "bytes32"
        }
      ],
      "stateMutability": "view",
      "type": "function",
      "constant": true
    },
    {
      "inputs": [],
      "name": "DEFAULT_ADMIN_ROLE",
      "outputs": [
        {
          "internalType": "bytes32",
          "name": "",
          "type": "bytes32"
        }
      ],
      "stateMutability": "view",
      "type": "function",
      "constant": true
    },
    {
      "inputs": [],
      "name": "PLANTER_ROLE",
      "outputs": [
        {
          "internalType": "bytes32",
          "name": "",
          "type": "bytes32"
        }
      ],
      "stateMutability": "view",
      "type": "function",
      "constant": true
    },
    {
      "inputs": [
        {
          "internalType": "address",
          "name": "to",
          "type": "address"
        },
        {
          "internalType": "uint256",
          "name": "tokenId",
          "type": "uint256"
        }
      ],
      "name": "approve",
      "outputs": [],
      "stateMutability": "nonpayable",
      "type": "function"
    },
    {
      "inputs": [
        {
          "internalType": "address",
          "name": "owner",
          "type": "address"
        }
      ],
      "name": "balanceOf",
      "outputs": [
        {
          "internalType": "uint256",
          "name": "",
          "type": "uint256"
        }
      ],
      "stateMutability": "view",
      "type": "function",
      "constant": true
    },
    {
      "inputs": [],
      "name": "baseURI",
      "outputs": [
        {
          "internalType": "string",
          "name": "",
          "type": "string"
        }
      ],
      "stateMutability": "view",
      "type": "function",
      "constant": true
    },
    {
      "inputs": [
        {
          "internalType": "uint256",
          "name": "tokenId",
          "type": "uint256"
        }
      ],
      "name": "getApproved",
      "outputs": [
        {
          "internalType": "address",
          "name": "",
          "type": "address"
        }
      ],
      "stateMutability": "view",
      "type": "function",
      "constant": true
    },
    {
      "inputs": [
        {
          "internalType": "bytes32",
          "name": "role",
          "type": "bytes32"
        }
      ],
      "name": "getRoleAdmin",
      "outputs": [
        {
          "internalType": "bytes32",
          "name": "",
          "type": "bytes32"
        }
      ],
      "stateMutability": "view",
      "type": "function",
      "constant": true
    },
    {
      "inputs": [
        {
          "internalType": "bytes32",
          "name": "role",
          "type": "bytes32"
        },
        {
          "internalType": "uint256",
          "name": "index",
          "type": "uint256"
        }
      ],
      "name": "getRoleMember",
      "outputs": [
        {
          "internalType": "address",
          "name": "",
          "type": "address"
        }
      ],
      "stateMutability": "view",
      "type": "function",
      "constant": true
    },
    {
      "inputs": [
        {
          "internalType": "bytes32",
          "name": "role",
          "type": "bytes32"
        }
      ],
      "name": "getRoleMemberCount",
      "outputs": [
        {
          "internalType": "uint256",
          "name": "",
          "type": "uint256"
        }
      ],
      "stateMutability": "view",
      "type": "function",
      "constant": true
    },
    {
      "inputs": [
        {
          "internalType": "bytes32",
          "name": "role",
          "type": "bytes32"
        },
        {
          "internalType": "address",
          "name": "account",
          "type": "address"
        }
      ],
      "name": "grantRole",
      "outputs": [],
      "stateMutability": "nonpayable",
      "type": "function"
    },
    {
      "inputs": [
        {
          "internalType": "bytes32",
          "name": "role",
          "type": "bytes32"
        },
        {
          "internalType": "address",
          "name": "account",
          "type": "address"
        }
      ],
      "name": "hasRole",
      "outputs": [
        {
          "internalType": "bool",
          "name": "",
          "type": "bool"
        }
      ],
      "stateMutability": "view",
      "type": "function",
      "constant": true
    },
    {
      "inputs": [
        {
          "internalType": "address",
          "name": "owner",
          "type": "address"
        },
        {
          "internalType": "address",
          "name": "operator",
          "type": "address"
        }
      ],
      "name": "isApprovedForAll",
      "outputs": [
        {
          "internalType": "bool",
          "name": "",
          "type": "bool"
        }
      ],
      "stateMutability": "view",
      "type": "function",
      "constant": true
    },
    {
      "inputs": [],
      "name": "name",
      "outputs": [
        {
          "internalType": "string",
          "name": "",
          "type": "string"
        }
      ],
      "stateMutability": "view",
      "type": "function",
      "constant": true
    },
    {
      "inputs": [
        {
          "internalType": "uint256",
          "name": "",
          "type": "uint256"
        }
      ],
      "name": "notFundedTrees",
      "outputs": [
        {
          "internalType": "uint256",
          "name": "",
          "type": "uint256"
        }
      ],
      "stateMutability": "view",
      "type": "function",
      "constant": true
    },
    {
      "inputs": [
        {
          "internalType": "uint256",
          "name": "",
          "type": "uint256"
        }
      ],
      "name": "notPlantedTrees",
      "outputs": [
        {
          "internalType": "uint256",
          "name": "",
          "type": "uint256"
        }
      ],
      "stateMutability": "view",
      "type": "function",
      "constant": true
    },
    {
      "inputs": [],
      "name": "owner",
      "outputs": [
        {
          "internalType": "address",
          "name": "",
          "type": "address"
        }
      ],
      "stateMutability": "view",
      "type": "function",
      "constant": true
    },
    {
      "inputs": [
        {
          "internalType": "uint256",
          "name": "tokenId",
          "type": "uint256"
        }
      ],
      "name": "ownerOf",
      "outputs": [
        {
          "internalType": "address",
          "name": "",
          "type": "address"
        }
      ],
      "stateMutability": "view",
      "type": "function",
      "constant": true
    },
    {
      "inputs": [],
      "name": "pause",
      "outputs": [],
      "stateMutability": "nonpayable",
      "type": "function"
    },
    {
      "inputs": [],
      "name": "paused",
      "outputs": [
        {
          "internalType": "bool",
          "name": "",
          "type": "bool"
        }
      ],
      "stateMutability": "view",
      "type": "function",
      "constant": true
    },
    {
      "inputs": [],
      "name": "price",
      "outputs": [
        {
          "internalType": "uint256",
          "name": "",
          "type": "uint256"
        }
      ],
      "stateMutability": "view",
      "type": "function",
      "constant": true
    },
    {
      "inputs": [
        {
          "internalType": "bytes32",
          "name": "role",
          "type": "bytes32"
        },
        {
          "internalType": "address",
          "name": "account",
          "type": "address"
        }
      ],
      "name": "renounceRole",
      "outputs": [],
      "stateMutability": "nonpayable",
      "type": "function"
    },
    {
      "inputs": [
        {
          "internalType": "bytes32",
          "name": "role",
          "type": "bytes32"
        },
        {
          "internalType": "address",
          "name": "account",
          "type": "address"
        }
      ],
      "name": "revokeRole",
      "outputs": [],
      "stateMutability": "nonpayable",
      "type": "function"
    },
    {
      "inputs": [
        {
          "internalType": "address",
          "name": "from",
          "type": "address"
        },
        {
          "internalType": "address",
          "name": "to",
          "type": "address"
        },
        {
          "internalType": "uint256",
          "name": "tokenId",
          "type": "uint256"
        }
      ],
      "name": "safeTransferFrom",
      "outputs": [],
      "stateMutability": "nonpayable",
      "type": "function"
    },
    {
      "inputs": [
        {
          "internalType": "address",
          "name": "from",
          "type": "address"
        },
        {
          "internalType": "address",
          "name": "to",
          "type": "address"
        },
        {
          "internalType": "uint256",
          "name": "tokenId",
          "type": "uint256"
        },
        {
          "internalType": "bytes",
          "name": "_data",
          "type": "bytes"
        }
      ],
      "name": "safeTransferFrom",
      "outputs": [],
      "stateMutability": "nonpayable",
      "type": "function"
    },
    {
      "inputs": [
        {
          "internalType": "address",
          "name": "operator",
          "type": "address"
        },
        {
          "internalType": "bool",
          "name": "approved",
          "type": "bool"
        }
      ],
      "name": "setApprovalForAll",
      "outputs": [],
      "stateMutability": "nonpayable",
      "type": "function"
    },
    {
      "inputs": [
        {
          "internalType": "bytes4",
          "name": "interfaceId",
          "type": "bytes4"
        }
      ],
      "name": "supportsInterface",
      "outputs": [
        {
          "internalType": "bool",
          "name": "",
          "type": "bool"
        }
      ],
      "stateMutability": "view",
      "type": "function",
      "constant": true
    },
    {
      "inputs": [],
      "name": "symbol",
      "outputs": [
        {
          "internalType": "string",
          "name": "",
          "type": "string"
        }
      ],
      "stateMutability": "view",
      "type": "function",
      "constant": true
    },
    {
      "inputs": [
        {
          "internalType": "uint256",
          "name": "index",
          "type": "uint256"
        }
      ],
      "name": "tokenByIndex",
      "outputs": [
        {
          "internalType": "uint256",
          "name": "",
          "type": "uint256"
        }
      ],
      "stateMutability": "view",
      "type": "function",
      "constant": true
    },
    {
      "inputs": [
        {
          "internalType": "address",
          "name": "owner",
          "type": "address"
        },
        {
          "internalType": "uint256",
          "name": "index",
          "type": "uint256"
        }
      ],
      "name": "tokenOfOwnerByIndex",
      "outputs": [
        {
          "internalType": "uint256",
          "name": "",
          "type": "uint256"
        }
      ],
      "stateMutability": "view",
      "type": "function",
      "constant": true
    },
    {
      "inputs": [
        {
          "internalType": "uint256",
          "name": "tokenId",
          "type": "uint256"
        }
      ],
      "name": "tokenURI",
      "outputs": [
        {
          "internalType": "string",
          "name": "",
          "type": "string"
        }
      ],
      "stateMutability": "view",
      "type": "function",
      "constant": true
    },
    {
      "inputs": [],
      "name": "totalSupply",
      "outputs": [
        {
          "internalType": "uint256",
          "name": "",
          "type": "uint256"
        }
      ],
      "stateMutability": "view",
      "type": "function",
      "constant": true
    },
    {
      "inputs": [
        {
          "internalType": "address",
          "name": "from",
          "type": "address"
        },
        {
          "internalType": "address",
          "name": "to",
          "type": "address"
        },
        {
          "internalType": "uint256",
          "name": "tokenId",
          "type": "uint256"
        }
      ],
      "name": "transferFrom",
      "outputs": [],
      "stateMutability": "nonpayable",
      "type": "function"
    },
    {
      "inputs": [
        {
          "internalType": "uint256",
          "name": "",
          "type": "uint256"
        }
      ],
      "name": "treeToConserver",
      "outputs": [
        {
          "internalType": "address",
          "name": "",
          "type": "address"
        }
      ],
      "stateMutability": "view",
      "type": "function",
      "constant": true
    },
    {
      "inputs": [
        {
          "internalType": "uint256",
          "name": "",
          "type": "uint256"
        }
      ],
      "name": "treeToGB",
      "outputs": [
        {
          "internalType": "uint256",
          "name": "",
          "type": "uint256"
        }
      ],
      "stateMutability": "view",
      "type": "function",
      "constant": true
    },
    {
      "inputs": [
        {
          "internalType": "uint256",
          "name": "",
          "type": "uint256"
        }
      ],
      "name": "treeToPlanter",
      "outputs": [
        {
          "internalType": "address",
          "name": "",
          "type": "address"
        }
      ],
      "stateMutability": "view",
      "type": "function",
      "constant": true
    },
    {
      "inputs": [
        {
          "internalType": "uint256",
          "name": "",
          "type": "uint256"
        }
      ],
      "name": "treeToType",
      "outputs": [
        {
          "internalType": "uint8",
          "name": "",
          "type": "uint8"
        }
      ],
      "stateMutability": "view",
      "type": "function",
      "constant": true
    },
    {
      "inputs": [
        {
          "internalType": "uint256",
          "name": "",
          "type": "uint256"
        }
      ],
      "name": "treeToVerifier",
      "outputs": [
        {
          "internalType": "address",
          "name": "",
          "type": "address"
        }
      ],
      "stateMutability": "view",
      "type": "function",
      "constant": true
    },
    {
      "inputs": [
        {
          "internalType": "uint256",
          "name": "",
          "type": "uint256"
        }
      ],
      "name": "trees",
      "outputs": [
        {
          "internalType": "string",
          "name": "name",
          "type": "string"
        },
        {
          "internalType": "string",
          "name": "latitude",
          "type": "string"
        },
        {
          "internalType": "string",
          "name": "longitude",
          "type": "string"
        },
        {
          "internalType": "uint256",
          "name": "plantedDate",
          "type": "uint256"
        },
        {
          "internalType": "uint256",
          "name": "birthDate",
          "type": "uint256"
        },
        {
          "internalType": "uint256",
          "name": "fundedDate",
          "type": "uint256"
        },
        {
          "internalType": "uint8",
          "name": "height",
          "type": "uint8"
        },
        {
          "internalType": "uint8",
          "name": "diameter",
          "type": "uint8"
        },
        {
          "internalType": "uint256",
          "name": "balance",
          "type": "uint256"
        }
      ],
      "stateMutability": "view",
      "type": "function",
      "constant": true
    },
    {
      "inputs": [],
      "name": "unpause",
      "outputs": [],
      "stateMutability": "nonpayable",
      "type": "function"
    },
    {
      "inputs": [
        {
          "internalType": "uint8",
          "name": "_typeId",
          "type": "uint8"
        },
        {
          "internalType": "uint256",
          "name": "_gbId",
          "type": "uint256"
        },
        {
          "internalType": "string[]",
          "name": "_stringParams",
          "type": "string[]"
        },
        {
          "internalType": "uint8[]",
          "name": "_uintParams",
          "type": "uint8[]"
        }
      ],
      "name": "add",
      "outputs": [],
      "stateMutability": "nonpayable",
      "type": "function"
    },
    {
      "inputs": [
        {
          "internalType": "address",
          "name": "_account",
          "type": "address"
        },
        {
          "internalType": "uint256",
          "name": "_balance",
          "type": "uint256"
        }
      ],
      "name": "simpleFund",
      "outputs": [
        {
          "internalType": "uint256",
          "name": "",
          "type": "uint256"
        }
      ],
      "stateMutability": "nonpayable",
      "type": "function"
    },
    {
      "inputs": [
        {
          "internalType": "address",
          "name": "_account",
          "type": "address"
        },
        {
          "internalType": "uint256",
          "name": "_balance",
          "type": "uint256"
        }
      ],
      "name": "fundPlantedTress",
      "outputs": [
        {
          "internalType": "uint256",
          "name": "",
          "type": "uint256"
        }
      ],
      "stateMutability": "nonpayable",
      "type": "function"
    },
    {
      "inputs": [],
      "name": "notFundedTreesExists",
      "outputs": [
        {
          "internalType": "bool",
          "name": "",
          "type": "bool"
        }
      ],
      "stateMutability": "view",
      "type": "function",
      "constant": true
    },
    {
      "inputs": [],
      "name": "notPlantedTreesExists",
      "outputs": [
        {
          "internalType": "bool",
          "name": "",
          "type": "bool"
        }
      ],
      "stateMutability": "view",
      "type": "function",
      "constant": true
    },
    {
      "inputs": [
        {
          "internalType": "address",
          "name": "_account",
          "type": "address"
        }
      ],
      "name": "ownerTreesCount",
      "outputs": [
        {
          "internalType": "uint256",
          "name": "",
          "type": "uint256"
        }
      ],
      "stateMutability": "view",
      "type": "function",
      "constant": true
    },
    {
      "inputs": [
        {
          "internalType": "uint256",
          "name": "_treeId",
          "type": "uint256"
        }
      ],
      "name": "treeOwner",
      "outputs": [
        {
          "internalType": "address",
          "name": "",
          "type": "address"
        }
      ],
      "stateMutability": "view",
      "type": "function",
      "constant": true
    },
    {
      "inputs": [
        {
          "internalType": "address",
          "name": "_account",
          "type": "address"
        }
      ],
      "name": "getOwnerTrees",
      "outputs": [
        {
          "internalType": "uint256[]",
          "name": "",
          "type": "uint256[]"
        }
      ],
      "stateMutability": "view",
      "type": "function",
      "constant": true
    },
    {
      "inputs": [
        {
          "internalType": "uint256",
          "name": "_treeId",
          "type": "uint256"
        }
      ],
      "name": "getTypeId",
      "outputs": [
        {
          "internalType": "uint256",
          "name": "",
          "type": "uint256"
        }
      ],
      "stateMutability": "view",
      "type": "function",
      "constant": true
    },
    {
      "inputs": [
        {
          "internalType": "uint256",
          "name": "_id",
          "type": "uint256"
        }
      ],
      "name": "getPlantedDate",
      "outputs": [
        {
          "internalType": "uint256",
          "name": "",
          "type": "uint256"
        }
      ],
      "stateMutability": "view",
      "type": "function",
      "constant": true
    },
    {
      "inputs": [
        {
          "internalType": "uint256",
          "name": "_id",
          "type": "uint256"
        }
      ],
      "name": "getFundedDate",
      "outputs": [
        {
          "internalType": "uint256",
          "name": "",
          "type": "uint256"
        }
      ],
      "stateMutability": "view",
      "type": "function",
      "constant": true
    },
    {
      "inputs": [
        {
          "internalType": "uint256",
          "name": "_price",
          "type": "uint256"
        }
      ],
      "name": "setPrice",
      "outputs": [],
      "stateMutability": "nonpayable",
      "type": "function"
    },
    {
      "inputs": [],
      "name": "getPrice",
      "outputs": [
        {
          "internalType": "uint256",
          "name": "",
          "type": "uint256"
        }
      ],
      "stateMutability": "view",
      "type": "function",
      "constant": true
    },
    {
      "inputs": [
        {
          "internalType": "uint256",
          "name": "_treeId",
          "type": "uint256"
        }
      ],
      "name": "getTree",
      "outputs": [
        {
          "internalType": "string",
          "name": "name",
          "type": "string"
        },
        {
          "internalType": "string",
          "name": "latitude",
          "type": "string"
        },
        {
          "internalType": "string",
          "name": "longitude",
          "type": "string"
        },
        {
          "internalType": "uint256",
          "name": "plantedDate",
          "type": "uint256"
        },
        {
          "internalType": "uint256",
          "name": "birthDate",
          "type": "uint256"
        },
        {
          "internalType": "uint256",
          "name": "fundedDate",
          "type": "uint256"
        },
        {
          "internalType": "uint8",
          "name": "height",
          "type": "uint8"
        },
        {
          "internalType": "uint8",
          "name": "diameter",
          "type": "uint8"
        },
        {
          "internalType": "uint256",
          "name": "balance",
          "type": "uint256"
        },
        {
          "internalType": "address",
          "name": "owner",
          "type": "address"
        }
      ],
      "stateMutability": "view",
      "type": "function",
      "constant": true
    }
  ],
  "bytecode": "0x608060405233600b60016101000a81548173ffffffffffffffffffffffffffffffffffffffff021916908373ffffffffffffffffffffffffffffffffffffffff1602179055503480156200005257600080fd5b506040518060400160405280600481526020017f54726565000000000000000000000000000000000000000000000000000000008152506040518060400160405280600481526020017f5452454500000000000000000000000000000000000000000000000000000000815250620000d76301ffc9a760e01b620001d760201b60201c565b8160069080519060200190620000ef92919062000446565b5080600790805190602001906200010892919062000446565b50620001216380ac58cd60e01b620001d760201b60201c565b62000139635b5e139f60e01b620001d760201b60201c565b6200015163780e9d6360e01b620001d760201b60201c565b50506000600b60006101000a81548160ff021916908315150217905550620001836000801b33620002af60201b60201c565b620001aa6040516200019590620005d2565b604051809103902033620002af60201b60201c565b620001d1604051620001bc90620005bb565b604051809103902033620002af60201b60201c565b62000627565b63ffffffff60e01b817bffffffffffffffffffffffffffffffffffffffffffffffffffffffff1916141562000243576040517f08c379a00000000000000000000000000000000000000000000000000000000081526004016200023a90620005e9565b60405180910390fd5b6001600080837bffffffffffffffffffffffffffffffffffffffffffffffffffffffff19167bffffffffffffffffffffffffffffffffffffffffffffffffffffffff1916815260200190815260200160002060006101000a81548160ff02191690831515021790555050565b620002c18282620002c560201b60201c565b5050565b620002f481600a60008581526020019081526020016000206000016200036960201b62002c381790919060201c565b1562000365576200030a620003a160201b60201c565b73ffffffffffffffffffffffffffffffffffffffff168173ffffffffffffffffffffffffffffffffffffffff16837f2f8788117e7eff1d82e926ec794901d17c78024a50270940304540a733656f0d60405160405180910390a45b5050565b600062000399836000018373ffffffffffffffffffffffffffffffffffffffff1660001b620003a960201b60201c565b905092915050565b600033905090565b6000620003bd83836200042360201b60201c565b620004185782600001829080600181540180825580915050600190039060005260206000200160009091909190915055826000018054905083600101600084815260200190815260200160002081905550600190506200041d565b600090505b92915050565b600080836001016000848152602001908152602001600020541415905092915050565b828054600181600116156101000203166002900490600052602060002090601f016020900481019282601f106200048957805160ff1916838001178555620004ba565b82800160010185558215620004ba579182015b82811115620004b95782518255916020019190600101906200049c565b5b509050620004c99190620004cd565b5090565b620004f291905b80821115620004ee576000816000905550600101620004d4565b5090565b90565b600062000504601c836200060b565b91507f4552433136353a20696e76616c696420696e74657266616365206964000000006000830152602082019050919050565b600062000546600f836200061c565b91507f414d4241535341444f525f524f4c4500000000000000000000000000000000006000830152600f82019050919050565b600062000588600c836200061c565b91507f504c414e5445525f524f4c4500000000000000000000000000000000000000006000830152600c82019050919050565b6000620005c88262000537565b9150819050919050565b6000620005df8262000579565b9150819050919050565b600060208201905081810360008301526200060481620004f5565b9050919050565b600082825260208201905092915050565b600081905092915050565b615a6c80620006376000396000f3fe608060405234801561001057600080fd5b50600436106103425760003560e01c80638456cb59116101b8578063b52a61be11610104578063cfb2b3fe116100a2578063e985e9c51161007c578063e985e9c514610af0578063f29bbde814610b20578063f99a5d1114610b3e578063fb5b3dfd14610b5c57610342565b8063cfb2b3fe14610a6b578063d547741f14610a9b578063d56e210114610ab757610342565b8063b8a5f42c116100de578063b8a5f42c146109ab578063c5daba31146109db578063c87b56dd14610a0b578063ca15c87314610a3b57610342565b8063b52a61be1461092f578063b856eee61461095f578063b88d4fde1461098f57610342565b806395d89b41116101715780639df2e5f71161014b5780639df2e5f7146108a7578063a035b1fe146108d7578063a217fddf146108f5578063a22cb4651461091357610342565b806395d89b411461083b57806398d5fdca146108595780639b6b5b661461087757610342565b80638456cb591461076757806386897ad8146107715780638da5cb5b146107a15780639010d07c146107bf57806391b7f5ed146107ef57806391d148541461080b57610342565b80632f745c59116102925780634f6ccce7116102305780636352211e1161020a5780636352211e146106b15780636c0360eb146106e157806370a08231146106ff5780637a5080221461072f57610342565b80634f6ccce7146106335780635c975abb146106635780635e8271221461068157610342565b806336568abe1161026c57806336568abe146105c15780633963bafe146105dd5780633f4ba83a1461060d57806342842e0e1461061757610342565b80632f745c5914610531578063346f009d1461056157806335939c581461059157610342565b80630d4c055a116102ff57806318dfed71116102d957806318dfed711461049957806323b872dd146104c9578063248a9ca3146104e55780632f2ff15d1461051557610342565b80630d4c055a1461042d5780630daa2e661461045d57806318160ddd1461047b57610342565b806301ffc9a71461034757806306fdde031461037757806307ff372314610395578063081812fc146103c5578063095ea7b3146103f55780630ab7746914610411575b600080fd5b610361600480360381019061035c91906143bf565b610b7a565b60405161036e919061517e565b60405180910390f35b61037f610be1565b60405161038c91906151b4565b60405180910390f35b6103af60048036038101906103aa9190614411565b610c83565b6040516103bc91906150da565b60405180910390f35b6103df60048036038101906103da9190614411565b610cb6565b6040516103ec91906150da565b60405180910390f35b61040f600480360381019061040a91906142b9565b610d3b565b005b61042b60048036038101906104269190614463565b610e53565b005b61044760048036038101906104429190614411565b611592565b60405161045491906150da565b60405180910390f35b6104656115a4565b6040516104729190615199565b60405180910390f35b6104836115bb565b6040516104909190615649565b60405180910390f35b6104b360048036038101906104ae9190614411565b6115cc565b6040516104c09190615649565b60405180910390f35b6104e360048036038101906104de91906141b3565b6115e4565b005b6104ff60048036038101906104fa919061431e565b611644565b60405161050c9190615199565b60405180910390f35b61052f600480360381019061052a9190614347565b611664565b005b61054b600480360381019061054691906142b9565b6116d8565b6040516105589190615649565b60405180910390f35b61057b60048036038101906105769190614411565b611733565b60405161058891906150da565b60405180910390f35b6105ab60048036038101906105a6919061414e565b611766565b6040516105b8919061515c565b60405180910390f35b6105db60048036038101906105d69190614347565b611862565b005b6105f760048036038101906105f29190614411565b6118e5565b60405161060491906150da565b60405180910390f35b610615611918565b005b610631600480360381019061062c91906141b3565b61196e565b005b61064d60048036038101906106489190614411565b61198e565b60405161065a9190615649565b60405180910390f35b61066b6119b1565b604051610678919061517e565b60405180910390f35b61069b60048036038101906106969190614411565b6119c8565b6040516106a89190615649565b60405180910390f35b6106cb60048036038101906106c69190614411565b6119e0565b6040516106d891906150da565b60405180910390f35b6106e9611a17565b6040516106f691906151b4565b60405180910390f35b6107196004803603810190610714919061414e565b611ab9565b6040516107269190615649565b60405180910390f35b61074960048036038101906107449190614411565b611b78565b60405161075e999897969594939291906151d6565b60405180910390f35b61076f611db5565b005b61078b6004803603810190610786919061414e565b611e0b565b6040516107989190615649565b60405180910390f35b6107a9611e1d565b6040516107b691906150da565b60405180910390f35b6107d960048036038101906107d49190614383565b611e43565b6040516107e691906150da565b60405180910390f35b61080960048036038101906108049190614411565b611e75565b005b61082560048036038101906108209190614347565b611f02565b604051610832919061517e565b60405180910390f35b610843611f34565b60405161085091906151b4565b60405180910390f35b610861611fd6565b60405161086e9190615649565b60405180910390f35b610891600480360381019061088c9190614411565b611fe0565b60405161089e9190615649565b60405180910390f35b6108c160048036038101906108bc91906142b9565b61200d565b6040516108ce9190615649565b60405180910390f35b6108df612177565b6040516108ec9190615649565b60405180910390f35b6108fd61217d565b60405161090a9190615199565b60405180910390f35b61092d6004803603810190610928919061427d565b612184565b005b61094960048036038101906109449190614411565b612305565b6040516109569190615649565b60405180910390f35b610979600480360381019061097491906142b9565b61231d565b6040516109869190615649565b60405180910390f35b6109a960048036038101906109a49190614202565b6124fe565b005b6109c560048036038101906109c09190614411565b612560565b6040516109d29190615649565b60405180910390f35b6109f560048036038101906109f09190614411565b612588565b604051610a029190615649565b60405180910390f35b610a256004803603810190610a209190614411565b6125b0565b604051610a3291906151b4565b60405180910390f35b610a556004803603810190610a50919061431e565b61273b565b604051610a629190615649565b60405180910390f35b610a856004803603810190610a809190614411565b612762565b604051610a9291906156c4565b60405180910390f35b610ab56004803603810190610ab09190614347565b612782565b005b610ad16004803603810190610acc9190614411565b6127f6565b604051610ae79a99989796959493929190615278565b60405180910390f35b610b0a6004803603810190610b059190614177565b612b71565b604051610b17919061517e565b60405180910390f35b610b28612c05565b604051610b359190615199565b60405180910390f35b610b46612c1c565b604051610b53919061517e565b60405180910390f35b610b64612c2a565b604051610b71919061517e565b60405180910390f35b6000806000837bffffffffffffffffffffffffffffffffffffffffffffffffffffffff19167bffffffffffffffffffffffffffffffffffffffffffffffffffffffff1916815260200190815260200160002060009054906101000a900460ff169050919050565b606060068054600181600116156101000203166002900480601f016020809104026020016040519081016040528092919081815260200182805460018160011615610100020316600290048015610c795780601f10610c4e57610100808354040283529160200191610c79565b820191906000526020600020905b815481529060010190602001808311610c5c57829003601f168201915b5050505050905090565b60166020528060005260406000206000915054906101000a900473ffffffffffffffffffffffffffffffffffffffff1681565b6000610cc182612c68565b610d00576040517f08c379a0000000000000000000000000000000000000000000000000000000008152600401610cf7906154e9565b60405180910390fd5b6004600083815260200190815260200160002060009054906101000a900473ffffffffffffffffffffffffffffffffffffffff169050919050565b6000610d46826119e0565b90508073ffffffffffffffffffffffffffffffffffffffff168373ffffffffffffffffffffffffffffffffffffffff161415610db7576040517f08c379a0000000000000000000000000000000000000000000000000000000008152600401610dae90615589565b60405180910390fd5b8073ffffffffffffffffffffffffffffffffffffffff16610dd6612c85565b73ffffffffffffffffffffffffffffffffffffffff161480610e055750610e0481610dff612c85565b612b71565b5b610e44576040517f08c379a0000000000000000000000000000000000000000000000000000000008152600401610e3b90615469565b60405180910390fd5b610e4e8383612c8d565b505050565b610e70604051610e62906150c5565b604051809103902033611f02565b610eaf576040517f08c379a0000000000000000000000000000000000000000000000000000000008152600401610ea690615609565b60405180910390fd5b600b60009054906101000a900460ff1615610eff576040517f08c379a0000000000000000000000000000000000000000000000000000000008152600401610ef690615449565b60405180910390fd5b6000809050600115153073ffffffffffffffffffffffffffffffffffffffff1663fb5b3dfd6040518163ffffffff1660e01b815260040160206040518083038186803b158015610f4e57600080fd5b505afa158015610f62573d6000803e3d6000fd5b505050506040513d601f19601f82011682018060405250810190610f8691906142f5565b151514156111b05760116000601354815260200190815260200160002054905060136000815480929190600101919050555084846000818110610fc557fe5b9050602002810190610fd791906156df565b600c8381548110610fe457fe5b90600052602060002090600802016000019190611002929190613e99565b508484600181811061101057fe5b905060200281019061102291906156df565b600c838154811061102f57fe5b9060005260206000209060080201600101919061104d929190613e99565b508484600281811061105b57fe5b905060200281019061106d91906156df565b600c838154811061107a57fe5b90600052602060002090600802016002019190611098929190613e99565b5042600c82815481106110a757fe5b90600052602060002090600802016003018190555042600c82815481106110ca57fe5b906000526020600020906008020160040181905550828260008181106110ec57fe5b9050602002016020810190611101919061443a565b600c828154811061110e57fe5b906000526020600020906008020160060160006101000a81548160ff021916908360ff1602179055508282600181811061114457fe5b9050602002016020810190611159919061443a565b600c828154811061116657fe5b906000526020600020906008020160060160016101000a81548160ff021916908360ff1602179055506011600060016013540381526020019081526020016000206000905561148e565b600c604051806101200160405280878760008181106111cb57fe5b90506020028101906111dd91906156df565b8080601f016020809104026020016040519081016040528093929190818152602001838380828437600081840152601f19601f8201169050808301925050505050505081526020018787600181811061123257fe5b905060200281019061124491906156df565b8080601f016020809104026020016040519081016040528093929190818152602001838380828437600081840152601f19601f8201169050808301925050505050505081526020018787600281811061129957fe5b90506020028101906112ab91906156df565b8080601f016020809104026020016040519081016040528093929190818152602001838380828437600081840152601f19601f820116905080830192505050505050508152602001428152602001428152602001600081526020018585600081811061131357fe5b9050602002016020810190611328919061443a565b60ff1681526020018585600181811061133d57fe5b9050602002016020810190611352919061443a565b60ff1681526020016000815250908060018154018082558091505060019003906000526020600020906008020160009091909190915060008201518160000190805190602001906113a4929190613f19565b5060208201518160010190805190602001906113c1929190613f19565b5060408201518160020190805190602001906113de929190613f19565b50606082015181600301556080820151816004015560a0820151816005015560c08201518160060160006101000a81548160ff021916908360ff16021790555060e08201518160060160016101000a81548160ff021916908360ff160217905550610100820151816007015550506001600c8054905003905080600e6000600f54815260200190815260200160002081905550600f6000815480929190600101919050555061148d3382612d46565b5b601c60008860ff16815260200190815260200160002060008154809291906001019190505550856015600083815260200190815260200160002081905550601d6000878152602001908152602001600020600081548092919060010191905055507f657b7bbf1c4d4c6c5d41c6a778cfa25dc8c1fa0e44b17cc1eb0b5ddba0093887818686600081811061151e57fe5b905060200281019061153091906156df565b8888600181811061153d57fe5b905060200281019061154f91906156df565b8a8a600281811061155c57fe5b905060200281019061156e91906156df565b6040516115819796959493929190615664565b60405180910390a150505050505050565b600061159d826119e0565b9050919050565b6040516115b0906150b0565b604051809103902081565b60006115c76002612ed4565b905090565b600e6020528060005260406000206000915090505481565b6115f56115ef612c85565b82612ee9565b611634576040517f08c379a000000000000000000000000000000000000000000000000000000000815260040161162b906155c9565b60405180910390fd5b61163f838383612fc7565b505050565b6000600a6000838152602001908152602001600020600201549050919050565b61168b600a600084815260200190815260200160002060020154611686612c85565b611f02565b6116ca576040517f08c379a00000000000000000000000000000000000000000000000000000000081526004016116c190615349565b60405180910390fd5b6116d482826131de565b5050565b600061172b82600160008673ffffffffffffffffffffffffffffffffffffffff1673ffffffffffffffffffffffffffffffffffffffff16815260200190815260200160002061327290919063ffffffff16565b905092915050565b60186020528060005260406000206000915054906101000a900473ffffffffffffffffffffffffffffffffffffffff1681565b6060600061177383611ab9565b905060008114156117ce57600067ffffffffffffffff8111801561179657600080fd5b506040519080825280602002602001820160405280156117c55781602001602082028036833780820191505090505b5091505061185d565b60608167ffffffffffffffff811180156117e757600080fd5b506040519080825280602002602001820160405280156118165781602001602082028036833780820191505090505b50905060008090505b828110156118565761183185826116d8565b82828151811061183d57fe5b602002602001018181525050808060010191505061181f565b5080925050505b919050565b61186a612c85565b73ffffffffffffffffffffffffffffffffffffffff168173ffffffffffffffffffffffffffffffffffffffff16146118d7576040517f08c379a00000000000000000000000000000000000000000000000000000000081526004016118ce90615629565b60405180910390fd5b6118e1828261328c565b5050565b60176020528060005260406000206000915054906101000a900473ffffffffffffffffffffffffffffffffffffffff1681565b6119256000801b33611f02565b611964576040517f08c379a000000000000000000000000000000000000000000000000000000000815260040161195b906155a9565b60405180910390fd5b61196c613320565b565b611989838383604051806020016040528060008152506124fe565b505050565b6000806119a58360026133ca90919063ffffffff16565b50905080915050919050565b6000600b60009054906101000a900460ff16905090565b60156020528060005260406000206000915090505481565b6000611a1082604051806060016040528060298152602001615a0e6029913960026133f99092919063ffffffff16565b9050919050565b606060098054600181600116156101000203166002900480601f016020809104026020016040519081016040528092919081815260200182805460018160011615610100020316600290048015611aaf5780601f10611a8457610100808354040283529160200191611aaf565b820191906000526020600020905b815481529060010190602001808311611a9257829003601f168201915b5050505050905090565b60008073ffffffffffffffffffffffffffffffffffffffff168273ffffffffffffffffffffffffffffffffffffffff161415611b2a576040517f08c379a0000000000000000000000000000000000000000000000000000000008152600401611b2190615489565b60405180910390fd5b611b71600160008473ffffffffffffffffffffffffffffffffffffffff1673ffffffffffffffffffffffffffffffffffffffff168152602001908152602001600020613418565b9050919050565b600c8181548110611b8557fe5b9060005260206000209060080201600091509050806000018054600181600116156101000203166002900480601f016020809104026020016040519081016040528092919081815260200182805460018160011615610100020316600290048015611c315780601f10611c0657610100808354040283529160200191611c31565b820191906000526020600020905b815481529060010190602001808311611c1457829003601f168201915b505050505090806001018054600181600116156101000203166002900480601f016020809104026020016040519081016040528092919081815260200182805460018160011615610100020316600290048015611ccf5780601f10611ca457610100808354040283529160200191611ccf565b820191906000526020600020905b815481529060010190602001808311611cb257829003601f168201915b505050505090806002018054600181600116156101000203166002900480601f016020809104026020016040519081016040528092919081815260200182805460018160011615610100020316600290048015611d6d5780601f10611d4257610100808354040283529160200191611d6d565b820191906000526020600020905b815481529060010190602001808311611d5057829003601f168201915b5050505050908060030154908060040154908060050154908060060160009054906101000a900460ff16908060060160019054906101000a900460ff16908060070154905089565b611dc26000801b33611f02565b611e01576040517f08c379a0000000000000000000000000000000000000000000000000000000008152600401611df8906155a9565b60405180910390fd5b611e0961342d565b565b6000611e1682611ab9565b9050919050565b600b60019054906101000a900473ffffffffffffffffffffffffffffffffffffffff1681565b6000611e6d82600a60008681526020019081526020016000206000016134d890919063ffffffff16565b905092915050565b611e826000801b33611f02565b611ec1576040517f08c379a0000000000000000000000000000000000000000000000000000000008152600401611eb8906155a9565b60405180910390fd5b80600d819055507fa6dc15bdb68da224c66db4b3838d9a2b205138e8cff6774e57d0af91e196d62281604051611ef79190615649565b60405180910390a150565b6000611f2c82600a60008681526020019081526020016000206000016134f290919063ffffffff16565b905092915050565b606060078054600181600116156101000203166002900480601f016020809104026020016040519081016040528092919081815260200182805460018160011615610100020316600290048015611fcc5780601f10611fa157610100808354040283529160200191611fcc565b820191906000526020600020905b815481529060010190602001808311611faf57829003601f168201915b5050505050905090565b6000600d54905090565b60006014600083815260200190815260200160002060009054906101000a900460ff1660ff169050919050565b60003073ffffffffffffffffffffffffffffffffffffffff1663f99a5d116040518163ffffffff1660e01b815260040160206040518083038186803b15801561205557600080fd5b505afa158015612069573d6000803e3d6000fd5b505050506040513d601f19601f8201168201806040525081019061208d91906142f5565b6120cc576040517f08c379a00000000000000000000000000000000000000000000000000000000081526004016120c390615509565b60405180910390fd5b6000600e6000601054815260200190815260200160002054905060106000815480929190600101919050555082600c828154811061210657fe5b90600052602060002090600802016007018190555042600c828154811061212957fe5b90600052602060002090600802016005018190555061215161214a826119e0565b8583612fc7565b600e60006001601054038152602001908152602001600020600090558091505092915050565b600d5481565b6000801b81565b61218c612c85565b73ffffffffffffffffffffffffffffffffffffffff168273ffffffffffffffffffffffffffffffffffffffff1614156121fa576040517f08c379a00000000000000000000000000000000000000000000000000000000081526004016121f1906153e9565b60405180910390fd5b8060056000612207612c85565b73ffffffffffffffffffffffffffffffffffffffff1673ffffffffffffffffffffffffffffffffffffffff16815260200190815260200160002060008473ffffffffffffffffffffffffffffffffffffffff1673ffffffffffffffffffffffffffffffffffffffff16815260200190815260200160002060006101000a81548160ff0219169083151502179055508173ffffffffffffffffffffffffffffffffffffffff166122b4612c85565b73ffffffffffffffffffffffffffffffffffffffff167f17307eab39ab6107e8899845ad3d59bd9653f200f220920489ca2b5937696c31836040516122f9919061517e565b60405180910390a35050565b60116020528060005260406000206000915090505481565b600060606040518060400160405280601781526020017f7479706573206e616d652074726565732e6c656e6774680000000000000000008152509050600c6040518061012001604052808381526020016040518060200160405280600081525081526020016040518060200160405280600081525081526020016000815260200160008152602001428152602001600060ff168152602001600060ff1681526020018581525090806001815401808255809150506001900390600052602060002090600802016000909190919091506000820151816000019080519060200190612408929190613f19565b506020820151816001019080519060200190612425929190613f19565b506040820151816002019080519060200190612442929190613f19565b50606082015181600301556080820151816004015560a0820151816005015560c08201518160060160006101000a81548160ff021916908360ff16021790555060e08201518160060160016101000a81548160ff021916908360ff1602179055506101008201518160070155505060006001600c8054905003905080601160006012548152602001908152602001600020819055506012600081548092919060010191905055506124f38582612d46565b809250505092915050565b61250f612509612c85565b83612ee9565b61254e576040517f08c379a0000000000000000000000000000000000000000000000000000000008152600401612545906155c9565b60405180910390fd5b61255a84848484613522565b50505050565b6000600c828154811061256f57fe5b9060005260206000209060080201600301549050919050565b6000600c828154811061259757fe5b9060005260206000209060080201600501549050919050565b60606125bb82612c68565b6125fa576040517f08c379a00000000000000000000000000000000000000000000000000000000081526004016125f190615549565b60405180910390fd5b6060600860008481526020019081526020016000208054600181600116156101000203166002900480601f0160208091040260200160405190810160405280929190818152602001828054600181600116156101000203166002900480156126a35780601f10612678576101008083540402835291602001916126a3565b820191906000526020600020905b81548152906001019060200180831161268657829003601f168201915b505050505090506000600980546001816001161561010002031660029004905014156126d25780915050612736565b600081511115612707576009816040516020016126f092919061508c565b604051602081830303815290604052915050612736565b60096127128461357e565b60405160200161272392919061508c565b6040516020818303038152906040529150505b919050565b600061275b600a60008481526020019081526020016000206000016136c5565b9050919050565b60146020528060005260406000206000915054906101000a900460ff1681565b6127a9600a6000848152602001908152602001600020600201546127a4612c85565b611f02565b6127e8576040517f08c379a00000000000000000000000000000000000000000000000000000000081526004016127df90615429565b60405180910390fd5b6127f2828261328c565b5050565b6060806060600080600080600080600061280f8b612c68565b61284e576040517f08c379a000000000000000000000000000000000000000000000000000000000815260040161284590615569565b60405180910390fd5b600c8b8154811061285b57fe5b90600052602060002090600802016000018054600181600116156101000203166002900480601f0160208091040260200160405190810160405280929190818152602001828054600181600116156101000203166002900480156129005780601f106128d557610100808354040283529160200191612900565b820191906000526020600020905b8154815290600101906020018083116128e357829003601f168201915b50505050509950600c8b8154811061291457fe5b90600052602060002090600802016001018054600181600116156101000203166002900480601f0160208091040260200160405190810160405280929190818152602001828054600181600116156101000203166002900480156129b95780601f1061298e576101008083540402835291602001916129b9565b820191906000526020600020905b81548152906001019060200180831161299c57829003601f168201915b50505050509850600c8b815481106129cd57fe5b90600052602060002090600802016002018054600181600116156101000203166002900480601f016020809104026020016040519081016040528092919081815260200182805460018160011615610100020316600290048015612a725780601f10612a4757610100808354040283529160200191612a72565b820191906000526020600020905b815481529060010190602001808311612a5557829003601f168201915b50505050509750600c8b81548110612a8657fe5b9060005260206000209060080201600301549650600c8b81548110612aa757fe5b9060005260206000209060080201600401549550600c8b81548110612ac857fe5b9060005260206000209060080201600501549450600c8b81548110612ae957fe5b906000526020600020906008020160060160009054906101000a900460ff169350600c8b81548110612b1757fe5b906000526020600020906008020160060160019054906101000a900460ff169250600c8b81548110612b4557fe5b9060005260206000209060080201600701549150612b628b6119e0565b90509193959799509193959799565b6000600560008473ffffffffffffffffffffffffffffffffffffffff1673ffffffffffffffffffffffffffffffffffffffff16815260200190815260200160002060008373ffffffffffffffffffffffffffffffffffffffff1673ffffffffffffffffffffffffffffffffffffffff16815260200190815260200160002060009054906101000a900460ff16905092915050565b604051612c11906150c5565b604051809103902081565b6000601054600f5411905090565b600060135460125411905090565b6000612c60836000018373ffffffffffffffffffffffffffffffffffffffff1660001b6136da565b905092915050565b6000612c7e82600261374a90919063ffffffff16565b9050919050565b600033905090565b816004600083815260200190815260200160002060006101000a81548173ffffffffffffffffffffffffffffffffffffffff021916908373ffffffffffffffffffffffffffffffffffffffff160217905550808273ffffffffffffffffffffffffffffffffffffffff16612d00836119e0565b73ffffffffffffffffffffffffffffffffffffffff167f8c5be1e5ebec7d5bd14f71427d1e84f3dd0314c0f7b2291e5b200ac8c7c3b92560405160405180910390a45050565b600073ffffffffffffffffffffffffffffffffffffffff168273ffffffffffffffffffffffffffffffffffffffff161415612db6576040517f08c379a0000000000000000000000000000000000000000000000000000000008152600401612dad906154c9565b60405180910390fd5b612dbf81612c68565b15612dff576040517f08c379a0000000000000000000000000000000000000000000000000000000008152600401612df6906153a9565b60405180910390fd5b612e0b60008383613764565b612e5c81600160008573ffffffffffffffffffffffffffffffffffffffff1673ffffffffffffffffffffffffffffffffffffffff16815260200190815260200160002061376990919063ffffffff16565b50612e73818360026137839092919063ffffffff16565b50808273ffffffffffffffffffffffffffffffffffffffff16600073ffffffffffffffffffffffffffffffffffffffff167fddf252ad1be2c89b69c2b068fc378daa952ba7f163c4a11628f55a4df523b3ef60405160405180910390a45050565b6000612ee2826000016137b8565b9050919050565b6000612ef482612c68565b612f33576040517f08c379a0000000000000000000000000000000000000000000000000000000008152600401612f2a90615409565b60405180910390fd5b6000612f3e836119e0565b90508073ffffffffffffffffffffffffffffffffffffffff168473ffffffffffffffffffffffffffffffffffffffff161480612fad57508373ffffffffffffffffffffffffffffffffffffffff16612f9584610cb6565b73ffffffffffffffffffffffffffffffffffffffff16145b80612fbe5750612fbd8185612b71565b5b91505092915050565b8273ffffffffffffffffffffffffffffffffffffffff16612fe7826119e0565b73ffffffffffffffffffffffffffffffffffffffff161461303d576040517f08c379a000000000000000000000000000000000000000000000000000000000815260040161303490615529565b60405180910390fd5b600073ffffffffffffffffffffffffffffffffffffffff168273ffffffffffffffffffffffffffffffffffffffff1614156130ad576040517f08c379a00000000000000000000000000000000000000000000000000000000081526004016130a4906153c9565b60405180910390fd5b6130b8838383613764565b6130c3600082612c8d565b61311481600160008673ffffffffffffffffffffffffffffffffffffffff1673ffffffffffffffffffffffffffffffffffffffff1681526020019081526020016000206137c990919063ffffffff16565b5061316681600160008573ffffffffffffffffffffffffffffffffffffffff1673ffffffffffffffffffffffffffffffffffffffff16815260200190815260200160002061376990919063ffffffff16565b5061317d818360026137839092919063ffffffff16565b50808273ffffffffffffffffffffffffffffffffffffffff168473ffffffffffffffffffffffffffffffffffffffff167fddf252ad1be2c89b69c2b068fc378daa952ba7f163c4a11628f55a4df523b3ef60405160405180910390a4505050565b61320681600a6000858152602001908152602001600020600001612c3890919063ffffffff16565b1561326e57613213612c85565b73ffffffffffffffffffffffffffffffffffffffff168173ffffffffffffffffffffffffffffffffffffffff16837f2f8788117e7eff1d82e926ec794901d17c78024a50270940304540a733656f0d60405160405180910390a45b5050565b600061328183600001836137e3565b60001c905092915050565b6132b481600a600085815260200190815260200160002060000161385090919063ffffffff16565b1561331c576132c1612c85565b73ffffffffffffffffffffffffffffffffffffffff168173ffffffffffffffffffffffffffffffffffffffff16837ff6391f5c32d9c69d2a47ea670b442974b53935d1edc7fd64eb21e047a839171b60405160405180910390a45b5050565b600b60009054906101000a900460ff1661336f576040517f08c379a000000000000000000000000000000000000000000000000000000000815260040161336690615369565b60405180910390fd5b6000600b60006101000a81548160ff0219169083151502179055507f5db9ee0a495bf2e6ff9c91a7834c1ba4fdd244a5e8aa4e537bd38aeae4b073aa6133b3612c85565b6040516133c091906150f5565b60405180910390a1565b6000806000806133dd8660000186613880565b915091508160001c8160001c8090509350935050509250929050565b600061340c846000018460001b84613903565b60001c90509392505050565b600061342682600001613994565b9050919050565b600b60009054906101000a900460ff161561347d576040517f08c379a000000000000000000000000000000000000000000000000000000000815260040161347490615449565b60405180910390fd5b6001600b60006101000a81548160ff0219169083151502179055507f62e78cea01bee320cd4e420270b5ea74000d11b0c9f74754ebdbfc544b05a2586134c1612c85565b6040516134ce91906150f5565b60405180910390a1565b60006134e783600001836137e3565b60001c905092915050565b600061351a836000018373ffffffffffffffffffffffffffffffffffffffff1660001b6139a5565b905092915050565b61352d848484612fc7565b613539848484846139c8565b613578576040517f08c379a000000000000000000000000000000000000000000000000000000000815260040161356f90615389565b60405180910390fd5b50505050565b606060008214156135c6576040518060400160405280600181526020017f300000000000000000000000000000000000000000000000000000000000000081525090506136c0565b600082905060005b600082146135f0578080600101915050600a82816135e857fe5b0491506135ce565b60608167ffffffffffffffff8111801561360957600080fd5b506040519080825280601f01601f19166020018201604052801561363c5781602001600182028036833780820191505090505b50905060006001830390508593505b600084146136b857600a848161365d57fe5b0660300160f81b8282806001900393508151811061367757fe5b60200101907effffffffffffffffffffffffffffffffffffffffffffffffffffffffffffff1916908160001a905350600a84816136b057fe5b04935061364b565b819450505050505b919050565b60006136d382600001613994565b9050919050565b60006136e683836139a5565b61373f578260000182908060018154018082558091505060019003906000526020600020016000909190919091505582600001805490508360010160008481526020019081526020016000208190555060019050613744565b600090505b92915050565b600061375c836000018360001b613b2c565b905092915050565b505050565b600061377b836000018360001b6136da565b905092915050565b60006137af846000018460001b8473ffffffffffffffffffffffffffffffffffffffff1660001b613b4f565b90509392505050565b600081600001805490509050919050565b60006137db836000018360001b613c2b565b905092915050565b60008183600001805490501161382e576040517f08c379a000000000000000000000000000000000000000000000000000000000815260040161382590615329565b60405180910390fd5b82600001828154811061383d57fe5b9060005260206000200154905092915050565b6000613878836000018373ffffffffffffffffffffffffffffffffffffffff1660001b613c2b565b905092915050565b600080828460000180549050116138cc576040517f08c379a00000000000000000000000000000000000000000000000000000000081526004016138c3906154a9565b60405180910390fd5b60008460000184815481106138dd57fe5b906000526020600020906002020190508060000154816001015492509250509250929050565b60008084600101600085815260200190815260200160002054905060008114158390613965576040517f08c379a000000000000000000000000000000000000000000000000000000000815260040161395c91906151b4565b60405180910390fd5b5084600001600182038154811061397857fe5b9060005260206000209060020201600101549150509392505050565b600081600001805490509050919050565b600080836001016000848152602001908152602001600020541415905092915050565b60006139e98473ffffffffffffffffffffffffffffffffffffffff16613d13565b6139f65760019050613b24565b6060613abd63150b7a0260e01b613a0b612c85565b888787604051602401613a219493929190615110565b604051602081830303815290604052907bffffffffffffffffffffffffffffffffffffffffffffffffffffffff19166020820180517bffffffffffffffffffffffffffffffffffffffffffffffffffffffff83818316178352505050506040518060600160405280603281526020016159dc603291398773ffffffffffffffffffffffffffffffffffffffff16613d5e9092919063ffffffff16565b9050600081806020019051810190613ad591906143e8565b905063150b7a0260e01b7bffffffffffffffffffffffffffffffffffffffffffffffffffffffff1916817bffffffffffffffffffffffffffffffffffffffffffffffffffffffff191614925050505b949350505050565b600080836001016000848152602001908152602001600020541415905092915050565b6000808460010160008581526020019081526020016000205490506000811415613bf657846000016040518060400160405280868152602001858152509080600181540180825580915050600190039060005260206000209060020201600090919091909150600082015181600001556020820151816001015550508460000180549050856001016000868152602001908152602001600020819055506001915050613c24565b82856000016001830381548110613c0957fe5b90600052602060002090600202016001018190555060009150505b9392505050565b60008083600101600084815260200190815260200160002054905060008114613d075760006001820390506000600186600001805490500390506000866000018281548110613c7657fe5b9060005260206000200154905080876000018481548110613c9357fe5b9060005260206000200181905550600183018760010160008381526020019081526020016000208190555086600001805480613ccb57fe5b60019003818190600052602060002001600090559055866001016000878152602001908152602001600020600090556001945050505050613d0d565b60009150505b92915050565b60008060007fc5d2460186f7233c927e7db2dcc703c0e500b653ca82273b7bfad8045d85a47060001b9050833f9150808214158015613d5557506000801b8214155b92505050919050565b6060613d6d8484600085613d76565b90509392505050565b6060613d8185613d13565b613dc0576040517f08c379a0000000000000000000000000000000000000000000000000000000008152600401613db7906155e9565b60405180910390fd5b600060608673ffffffffffffffffffffffffffffffffffffffff168587604051613dea9190615075565b60006040518083038185875af1925050503d8060008114613e27576040519150601f19603f3d011682016040523d82523d6000602084013e613e2c565b606091505b50915091508115613e41578092505050613e91565b600081511115613e545780518082602001fd5b836040517f08c379a0000000000000000000000000000000000000000000000000000000008152600401613e8891906151b4565b60405180910390fd5b949350505050565b828054600181600116156101000203166002900490600052602060002090601f016020900481019282601f10613eda57803560ff1916838001178555613f08565b82800160010185558215613f08579182015b82811115613f07578235825591602001919060010190613eec565b5b509050613f159190613f99565b5090565b828054600181600116156101000203166002900490600052602060002090601f016020900481019282601f10613f5a57805160ff1916838001178555613f88565b82800160010185558215613f88579182015b82811115613f87578251825591602001919060010190613f6c565b5b509050613f959190613f99565b5090565b613fbb91905b80821115613fb7576000816000905550600101613f9f565b5090565b90565b600081359050613fcd81615951565b92915050565b60008083601f840112613fe557600080fd5b8235905067ffffffffffffffff811115613ffe57600080fd5b60208301915083602082028301111561401657600080fd5b9250929050565b60008083601f84011261402f57600080fd5b8235905067ffffffffffffffff81111561404857600080fd5b60208301915083602082028301111561406057600080fd5b9250929050565b60008135905061407681615968565b92915050565b60008151905061408b81615968565b92915050565b6000813590506140a08161597f565b92915050565b6000813590506140b581615996565b92915050565b6000815190506140ca81615996565b92915050565b600082601f8301126140e157600080fd5b81356140f46140ef82615763565b615736565b9150808252602083016020830185838301111561411057600080fd5b61411b8382846158fe565b50505092915050565b600081359050614133816159ad565b92915050565b600081359050614148816159c4565b92915050565b60006020828403121561416057600080fd5b600061416e84828501613fbe565b91505092915050565b6000806040838503121561418a57600080fd5b600061419885828601613fbe565b92505060206141a985828601613fbe565b9150509250929050565b6000806000606084860312156141c857600080fd5b60006141d686828701613fbe565b93505060206141e786828701613fbe565b92505060406141f886828701614124565b9150509250925092565b6000806000806080858703121561421857600080fd5b600061422687828801613fbe565b945050602061423787828801613fbe565b935050604061424887828801614124565b925050606085013567ffffffffffffffff81111561426557600080fd5b614271878288016140d0565b91505092959194509250565b6000806040838503121561429057600080fd5b600061429e85828601613fbe565b92505060206142af85828601614067565b9150509250929050565b600080604083850312156142cc57600080fd5b60006142da85828601613fbe565b92505060206142eb85828601614124565b9150509250929050565b60006020828403121561430757600080fd5b60006143158482850161407c565b91505092915050565b60006020828403121561433057600080fd5b600061433e84828501614091565b91505092915050565b6000806040838503121561435a57600080fd5b600061436885828601614091565b925050602061437985828601613fbe565b9150509250929050565b6000806040838503121561439657600080fd5b60006143a485828601614091565b92505060206143b585828601614124565b9150509250929050565b6000602082840312156143d157600080fd5b60006143df848285016140a6565b91505092915050565b6000602082840312156143fa57600080fd5b6000614408848285016140bb565b91505092915050565b60006020828403121561442357600080fd5b600061443184828501614124565b91505092915050565b60006020828403121561444c57600080fd5b600061445a84828501614139565b91505092915050565b6000806000806000806080878903121561447c57600080fd5b600061448a89828a01614139565b965050602061449b89828a01614124565b955050604087013567ffffffffffffffff8111156144b857600080fd5b6144c489828a01613fd3565b9450945050606087013567ffffffffffffffff8111156144e357600080fd5b6144ef89828a0161401d565b92509250509295509295509295565b600061450a8383615048565b60208301905092915050565b61451f816158c8565b82525050565b61452e8161583d565b82525050565b61453d8161582b565b82525050565b600061454e826157b4565b61455881856157e2565b93506145638361578f565b8060005b8381101561459457815161457b88826144fe565b9750614586836157d5565b925050600181019050614567565b5085935050505092915050565b6145aa8161584f565b82525050565b6145b98161585b565b82525050565b60006145ca826157bf565b6145d481856157f3565b93506145e481856020860161590d565b6145ed81615940565b840191505092915050565b6000614603826157bf565b61460d8185615804565b935061461d81856020860161590d565b80840191505092915050565b6000614635838561580f565b93506146428385846158fe565b61464b83615940565b840190509392505050565b6000614661826157ca565b61466b818561580f565b935061467b81856020860161590d565b61468481615940565b840191505092915050565b600061469a826157ca565b6146a48185615820565b93506146b481856020860161590d565b80840191505092915050565b6000815460018116600081146146dd576001811461470257614746565b607f60028304166146ee8187615820565b955060ff1983168652808601935050614746565b600282046147108187615820565b955061471b8561579f565b60005b8281101561473d5781548189015260018201915060208101905061471e565b82880195505050505b505092915050565b600061475b60228361580f565b91507f456e756d657261626c655365743a20696e646578206f7574206f6620626f756e60008301527f64730000000000000000000000000000000000000000000000000000000000006020830152604082019050919050565b60006147c1602f8361580f565b91507f416363657373436f6e74726f6c3a2073656e646572206d75737420626520616e60008301527f2061646d696e20746f206772616e7400000000000000000000000000000000006020830152604082019050919050565b600061482760148361580f565b91507f5061757361626c653a206e6f74207061757365640000000000000000000000006000830152602082019050919050565b600061486760328361580f565b91507f4552433732313a207472616e7366657220746f206e6f6e20455243373231526560008301527f63656976657220696d706c656d656e74657200000000000000000000000000006020830152604082019050919050565b60006148cd601c8361580f565b91507f4552433732313a20746f6b656e20616c7265616479206d696e746564000000006000830152602082019050919050565b600061490d600f83615820565b91507f414d4241535341444f525f524f4c4500000000000000000000000000000000006000830152600f82019050919050565b600061494d60248361580f565b91507f4552433732313a207472616e7366657220746f20746865207a65726f2061646460008301527f72657373000000000000000000000000000000000000000000000000000000006020830152604082019050919050565b60006149b360198361580f565b91507f4552433732313a20617070726f766520746f2063616c6c6572000000000000006000830152602082019050919050565b60006149f3602c8361580f565b91507f4552433732313a206f70657261746f7220717565727920666f72206e6f6e657860008301527f697374656e7420746f6b656e00000000000000000000000000000000000000006020830152604082019050919050565b6000614a59600c83615820565b91507f504c414e5445525f524f4c4500000000000000000000000000000000000000006000830152600c82019050919050565b6000614a9960308361580f565b91507f416363657373436f6e74726f6c3a2073656e646572206d75737420626520616e60008301527f2061646d696e20746f207265766f6b65000000000000000000000000000000006020830152604082019050919050565b6000614aff60108361580f565b91507f5061757361626c653a20706175736564000000000000000000000000000000006000830152602082019050919050565b6000614b3f60388361580f565b91507f4552433732313a20617070726f76652063616c6c6572206973206e6f74206f7760008301527f6e6572206e6f7220617070726f76656420666f7220616c6c00000000000000006020830152604082019050919050565b6000614ba5602a8361580f565b91507f4552433732313a2062616c616e636520717565727920666f7220746865207a6560008301527f726f2061646472657373000000000000000000000000000000000000000000006020830152604082019050919050565b6000614c0b60228361580f565b91507f456e756d657261626c654d61703a20696e646578206f7574206f6620626f756e60008301527f64730000000000000000000000000000000000000000000000000000000000006020830152604082019050919050565b6000614c7160208361580f565b91507f4552433732313a206d696e7420746f20746865207a65726f20616464726573736000830152602082019050919050565b6000614cb1602c8361580f565b91507f4552433732313a20617070726f76656420717565727920666f72206e6f6e657860008301527f697374656e7420746f6b656e00000000000000000000000000000000000000006020830152604082019050919050565b6000614d1760198361580f565b91507f5468657265206973206e6f742066756e646564207472656573000000000000006000830152602082019050919050565b6000614d5760298361580f565b91507f4552433732313a207472616e73666572206f6620746f6b656e2074686174206960008301527f73206e6f74206f776e00000000000000000000000000000000000000000000006020830152604082019050919050565b6000614dbd602f8361580f565b91507f4552433732314d657461646174613a2055524920717565727920666f72206e6f60008301527f6e6578697374656e7420746f6b656e00000000000000000000000000000000006020830152604082019050919050565b6000614e2360198361580f565b91507f4552433732313a206e6f6e6578697374656e7420746f6b656e000000000000006000830152602082019050919050565b6000614e6360218361580f565b91507f4552433732313a20617070726f76616c20746f2063757272656e74206f776e6560008301527f72000000000000000000000000000000000000000000000000000000000000006020830152604082019050919050565b6000614ec960138361580f565b91507f43616c6c6572206973206e6f742061646d696e000000000000000000000000006000830152602082019050919050565b6000614f0960318361580f565b91507f4552433732313a207472616e736665722063616c6c6572206973206e6f74206f60008301527f776e6572206e6f7220617070726f7665640000000000000000000000000000006020830152604082019050919050565b6000614f6f601d8361580f565b91507f416464726573733a2063616c6c20746f206e6f6e2d636f6e74726163740000006000830152602082019050919050565b6000614faf60178361580f565b91507f43616c6c6572206973206e6f74206120706c616e7465720000000000000000006000830152602082019050919050565b6000614fef602f8361580f565b91507f416363657373436f6e74726f6c3a2063616e206f6e6c792072656e6f756e636560008301527f20726f6c657320666f722073656c6600000000000000000000000000000000006020830152604082019050919050565b615051816158b1565b82525050565b615060816158b1565b82525050565b61506f816158bb565b82525050565b600061508182846145f8565b915081905092915050565b600061509882856146c0565b91506150a4828461468f565b91508190509392505050565b60006150bb82614900565b9150819050919050565b60006150d082614a4c565b9150819050919050565b60006020820190506150ef6000830184614534565b92915050565b600060208201905061510a6000830184614516565b92915050565b60006080820190506151256000830187614525565b6151326020830186614534565b61513f6040830185615057565b818103606083015261515181846145bf565b905095945050505050565b600060208201905081810360008301526151768184614543565b905092915050565b600060208201905061519360008301846145a1565b92915050565b60006020820190506151ae60008301846145b0565b92915050565b600060208201905081810360008301526151ce8184614656565b905092915050565b60006101208201905081810360008301526151f1818c614656565b90508181036020830152615205818b614656565b90508181036040830152615219818a614656565b90506152286060830189615057565b6152356080830188615057565b61524260a0830187615057565b61524f60c0830186615066565b61525c60e0830185615066565b61526a610100830184615057565b9a9950505050505050505050565b6000610140820190508181036000830152615293818d614656565b905081810360208301526152a7818c614656565b905081810360408301526152bb818b614656565b90506152ca606083018a615057565b6152d76080830189615057565b6152e460a0830188615057565b6152f160c0830187615066565b6152fe60e0830186615066565b61530c610100830185615057565b61531a610120830184614534565b9b9a5050505050505050505050565b600060208201905081810360008301526153428161474e565b9050919050565b60006020820190508181036000830152615362816147b4565b9050919050565b600060208201905081810360008301526153828161481a565b9050919050565b600060208201905081810360008301526153a28161485a565b9050919050565b600060208201905081810360008301526153c2816148c0565b9050919050565b600060208201905081810360008301526153e281614940565b9050919050565b60006020820190508181036000830152615402816149a6565b9050919050565b60006020820190508181036000830152615422816149e6565b9050919050565b6000602082019050818103600083015261544281614a8c565b9050919050565b6000602082019050818103600083015261546281614af2565b9050919050565b6000602082019050818103600083015261548281614b32565b9050919050565b600060208201905081810360008301526154a281614b98565b9050919050565b600060208201905081810360008301526154c281614bfe565b9050919050565b600060208201905081810360008301526154e281614c64565b9050919050565b6000602082019050818103600083015261550281614ca4565b9050919050565b6000602082019050818103600083015261552281614d0a565b9050919050565b6000602082019050818103600083015261554281614d4a565b9050919050565b6000602082019050818103600083015261556281614db0565b9050919050565b6000602082019050818103600083015261558281614e16565b9050919050565b600060208201905081810360008301526155a281614e56565b9050919050565b600060208201905081810360008301526155c281614ebc565b9050919050565b600060208201905081810360008301526155e281614efc565b9050919050565b6000602082019050818103600083015261560281614f62565b9050919050565b6000602082019050818103600083015261562281614fa2565b9050919050565b6000602082019050818103600083015261564281614fe2565b9050919050565b600060208201905061565e6000830184615057565b92915050565b6000608082019050615679600083018a615057565b818103602083015261568c81888a614629565b905081810360408301526156a1818688614629565b905081810360608301526156b6818486614629565b905098975050505050505050565b60006020820190506156d96000830184615066565b92915050565b600080833560016020038436030381126156f857600080fd5b80840192508235915067ffffffffffffffff82111561571657600080fd5b60208301925060018202360383131561572e57600080fd5b509250929050565b6000604051905081810181811067ffffffffffffffff8211171561575957600080fd5b8060405250919050565b600067ffffffffffffffff82111561577a57600080fd5b601f19601f8301169050602081019050919050565b6000819050602082019050919050565b60008190508160005260206000209050919050565b600081519050919050565b600081519050919050565b600081519050919050565b6000602082019050919050565b600082825260208201905092915050565b600082825260208201905092915050565b600081905092915050565b600082825260208201905092915050565b600081905092915050565b600061583682615891565b9050919050565b600061584882615891565b9050919050565b60008115159050919050565b6000819050919050565b60007fffffffff0000000000000000000000000000000000000000000000000000000082169050919050565b600073ffffffffffffffffffffffffffffffffffffffff82169050919050565b6000819050919050565b600060ff82169050919050565b60006158d3826158da565b9050919050565b60006158e5826158ec565b9050919050565b60006158f782615891565b9050919050565b82818337600083830152505050565b60005b8381101561592b578082015181840152602081019050615910565b8381111561593a576000848401525b50505050565b6000601f19601f8301169050919050565b61595a8161582b565b811461596557600080fd5b50565b6159718161584f565b811461597c57600080fd5b50565b6159888161585b565b811461599357600080fd5b50565b61599f81615865565b81146159aa57600080fd5b50565b6159b6816158b1565b81146159c157600080fd5b50565b6159cd816158bb565b81146159d857600080fd5b5056fe4552433732313a207472616e7366657220746f206e6f6e20455243373231526563656976657220696d706c656d656e7465724552433732313a206f776e657220717565727920666f72206e6f6e6578697374656e7420746f6b656ea26469706673582212206ae6123d2cf421e3aea8eb6f9ed97e206f2f948d67ed264649011bb1f388bce664736f6c63430006090033",
  "source": "// SPDX-License-Identifier: GPL-3.0\n\npragma solidity >=0.4.21 <0.7.0;\npragma experimental ABIEncoderV2;\n\nimport \"../../node_modules/@openzeppelin/contracts/token/ERC721/ERC721.sol\";\n\nimport \"../access/AccessRestriction.sol\";\nimport \"./TreeType.sol\";\n\n\ncontract TreeFactory is ERC721, AccessRestriction {\n\n    constructor() ERC721(\"Tree\", \"TREE\") public {\n    }\n\n    event PriceChanged(uint256 price);\n\n    event TreePlanted(\n        uint256 id,\n        string name,\n        string latitude,\n        string longitude\n    );\n\n    struct Tree {\n        string name;\n        string latitude;\n        string longitude;\n        uint256 plantedDate;\n        uint256 birthDate;\n        uint256 fundedDate;\n        uint8 height;\n        uint8 diameter;\n        uint256 balance;\n    }\n\n    Tree[] public trees;\n\n    uint256 public price;\n\n    mapping(uint => uint) public notFundedTrees;\n    uint256 notFundedTreesLastIndex;\n    uint256 notFundedTreesUsedIndex;\n\n    mapping(uint => uint) public notPlantedTrees;\n    uint256 notPlantedTreesLastIndex;\n    uint256 notPlantedTreesUsedIndex;\n\n\n    mapping(uint256 => uint8) public treeToType;\n    mapping(uint256 => uint256) public treeToGB;\n    mapping(uint256 => address) public treeToPlanter;\n    mapping(uint256 => address) public treeToConserver;\n    mapping(uint256 => address) public treeToVerifier;\n    mapping(address => uint256) planterTreeCount;\n    mapping(address => uint256) conserverTreeCount;\n    mapping(address => uint256) verifierTreeCount;\n    mapping(uint256 => uint256) typeTreeCount;\n    mapping(uint256 => uint256) gbTreeCount;\n\n    //@todo permission must check\n    function add(\n        uint8 _typeId,\n        uint256 _gbId,\n        string[] calldata _stringParams,\n        uint8[] calldata _uintParams\n    ) external onlyPlanter whenNotPaused {\n\n        uint256 id = 0;\n\n        if(this.notPlantedTreesExists() == true) {\n            id = notPlantedTrees[notPlantedTreesUsedIndex];\n            notPlantedTreesUsedIndex++;\n\n            trees[id].name = _stringParams[0];\n            trees[id].latitude = _stringParams[1];\n            trees[id].longitude = _stringParams[2];\n            trees[id].plantedDate = now;\n            trees[id].birthDate = now;\n            trees[id].height = _uintParams[0];\n            trees[id].diameter = _uintParams[1];\n\n            delete notPlantedTrees[notPlantedTreesUsedIndex - 1];\n\n        } else {\n\n\n            trees.push(\n                Tree(\n                    _stringParams[0],\n                    _stringParams[1],\n                    _stringParams[2],\n                    now,\n                    now,\n                    0,\n                    _uintParams[0],\n                    _uintParams[1],\n                    0\n                )\n            );\n            id = trees.length - 1;\n\n            notFundedTrees[notFundedTreesLastIndex] = id;\n            notFundedTreesLastIndex++;\n            _mint(msg.sender, id);\n        }\n\n        typeTreeCount[_typeId]++;\n\n        treeToGB[id] = _gbId;\n        gbTreeCount[_gbId]++;\n\n        emit TreePlanted(\n            id,\n            _stringParams[0],\n            _stringParams[1],\n            _stringParams[2]\n        );\n    }\n\n    function simpleFund(\n        address _account,\n        uint256 _balance\n    ) public returns(uint256) {\n        string memory name = string('types name trees.length');\n\n\n        trees.push(\n            Tree(\n                name,\n                '',\n                '',\n                0,\n                0,\n                now,\n                0,\n                0,\n                _balance\n            )\n        );\n        uint256 id = trees.length - 1;\n\n\n        notPlantedTrees[notPlantedTreesLastIndex] = id;\n        notPlantedTreesLastIndex++;\n\n        _mint(_account, id);\n\n        return id;\n\n    }\n\n    function fundPlantedTress(address _account, uint256 _balance) public returns(uint256) {\n\n        require(this.notFundedTreesExists(), \"There is not funded trees\");\n\n        uint treeId = notFundedTrees[notFundedTreesUsedIndex];\n        notFundedTreesUsedIndex++;\n\n        trees[treeId].balance = _balance;\n        trees[treeId].fundedDate = now;\n\n        _transfer(ownerOf(treeId), _account, treeId);\n\n        delete notFundedTrees[notFundedTreesUsedIndex - 1];\n\n        return treeId;\n    }\n\n    function notFundedTreesExists() public view returns(bool) {\n        return notFundedTreesLastIndex > notFundedTreesUsedIndex;\n    }\n\n    function notPlantedTreesExists() public view returns(bool) {\n        return notPlantedTreesLastIndex > notPlantedTreesUsedIndex;\n    }\n\n    function ownerTreesCount(address _account) public view returns (uint256) {\n        return balanceOf(_account);\n    }\n\n    function treeOwner(uint256 _treeId) public view returns (address) {\n        return ownerOf(_treeId);\n    }\n\n    function getOwnerTrees(address _account) public view returns (uint256[] memory) {\n\n        uint256 tokenCount = balanceOf(_account);\n\n        if (tokenCount == 0) {\n            // Return an empty array\n            return new uint256[](0);\n        }\n\n        uint256[] memory result = new uint256[](tokenCount);\n\n        for (uint256 index = 0; index < tokenCount; index++) {\n            result[index] = tokenOfOwnerByIndex(_account, index);\n        }\n\n        return result;\n    }\n\n    function getTypeId(uint256 _treeId) public view returns (uint256) {\n        return treeToType[_treeId];\n    }\n\n    function getPlantedDate(uint256 _id) public view returns (uint256) {\n        return trees[_id].plantedDate;\n    }\n\n    function getFundedDate(uint256 _id) public view returns (uint256) {\n        return trees[_id].fundedDate;\n    }\n\n    function setPrice(uint256 _price) external onlyAdmin {\n        price = _price;\n        emit PriceChanged(_price);\n    }\n\n    function getPrice() external view returns(uint256) {\n        return price;\n    }\n\n    function getTree(uint256 _treeId) external view returns(\n        string memory name,\n        string memory latitude,\n        string memory longitude,\n        uint256 plantedDate,\n        uint256 birthDate,\n        uint256 fundedDate,\n        uint8 height,\n        uint8 diameter,\n        uint256 balance,\n        address owner\n    ) {\n        require(_exists(_treeId), \"ERC721: nonexistent token\");\n\n        name = trees[_treeId].name;\n        latitude = trees[_treeId].latitude;\n        longitude = trees[_treeId].longitude;\n        plantedDate = trees[_treeId].plantedDate;\n        birthDate = trees[_treeId].birthDate;\n        fundedDate = trees[_treeId].fundedDate;\n        height = trees[_treeId].height;\n        diameter = trees[_treeId].diameter;\n        balance = trees[_treeId].balance;\n        owner = ownerOf(_treeId);\n    }\n}\n",
  "sourcePath": "/home/amir/Projects/treejer/contract/contracts/tree/TreeFactory.sol",
  "compiler": {
    "name": "solc",
    "version": "0.6.9+commit.3e3065ac.Emscripten.clang"
  },
  "schemaVersion": "3.0.22",
  "updatedAt": "2020-08-02T13:58:19.497Z",
  "networkType": "ethereum",
  "devdoc": {
    "methods": {
      "approve(address,uint256)": {
        "details": "See {IERC721-approve}."
      },
      "balanceOf(address)": {
        "details": "See {IERC721-balanceOf}."
      },
      "baseURI()": {
        "details": "Returns the base URI set via {_setBaseURI}. This will be automatically added as a prefix in {tokenURI} to each token's URI, or to the token ID if no specific URI is set for that token ID."
      },
      "getApproved(uint256)": {
        "details": "See {IERC721-getApproved}."
      },
      "getRoleAdmin(bytes32)": {
        "details": "Returns the admin role that controls `role`. See {grantRole} and {revokeRole}. To change a role's admin, use {_setRoleAdmin}."
      },
      "getRoleMember(bytes32,uint256)": {
        "details": "Returns one of the accounts that have `role`. `index` must be a value between 0 and {getRoleMemberCount}, non-inclusive. Role bearers are not sorted in any particular way, and their ordering may change at any point. WARNING: When using {getRoleMember} and {getRoleMemberCount}, make sure you perform all queries on the same block. See the following https://forum.openzeppelin.com/t/iterating-over-elements-on-enumerableset-in-openzeppelin-contracts/2296[forum post] for more information."
      },
      "getRoleMemberCount(bytes32)": {
        "details": "Returns the number of accounts that have `role`. Can be used together with {getRoleMember} to enumerate all bearers of a role."
      },
      "grantRole(bytes32,address)": {
        "details": "Grants `role` to `account`. If `account` had not been already granted `role`, emits a {RoleGranted} event. Requirements: - the caller must have ``role``'s admin role."
      },
      "hasRole(bytes32,address)": {
        "details": "Returns `true` if `account` has been granted `role`."
      },
      "isApprovedForAll(address,address)": {
        "details": "See {IERC721-isApprovedForAll}."
      },
      "name()": {
        "details": "See {IERC721Metadata-name}."
      },
      "ownerOf(uint256)": {
        "details": "See {IERC721-ownerOf}."
      },
      "paused()": {
        "details": "Returns true if the contract is paused, and false otherwise."
      },
      "renounceRole(bytes32,address)": {
        "details": "Revokes `role` from the calling account. Roles are often managed via {grantRole} and {revokeRole}: this function's purpose is to provide a mechanism for accounts to lose their privileges if they are compromised (such as when a trusted device is misplaced). If the calling account had been granted `role`, emits a {RoleRevoked} event. Requirements: - the caller must be `account`."
      },
      "revokeRole(bytes32,address)": {
        "details": "Revokes `role` from `account`. If `account` had been granted `role`, emits a {RoleRevoked} event. Requirements: - the caller must have ``role``'s admin role."
      },
      "safeTransferFrom(address,address,uint256)": {
        "details": "See {IERC721-safeTransferFrom}."
      },
      "safeTransferFrom(address,address,uint256,bytes)": {
        "details": "See {IERC721-safeTransferFrom}."
      },
      "setApprovalForAll(address,bool)": {
        "details": "See {IERC721-setApprovalForAll}."
      },
      "supportsInterface(bytes4)": {
        "details": "See {IERC165-supportsInterface}. Time complexity O(1), guaranteed to always use less than 30 000 gas."
      },
      "symbol()": {
        "details": "See {IERC721Metadata-symbol}."
      },
      "tokenByIndex(uint256)": {
        "details": "See {IERC721Enumerable-tokenByIndex}."
      },
      "tokenOfOwnerByIndex(address,uint256)": {
        "details": "See {IERC721Enumerable-tokenOfOwnerByIndex}."
      },
      "tokenURI(uint256)": {
        "details": "See {IERC721Metadata-tokenURI}."
      },
      "totalSupply()": {
        "details": "See {IERC721Enumerable-totalSupply}."
      },
      "transferFrom(address,address,uint256)": {
        "details": "See {IERC721-transferFrom}."
      }
    }
  },
  "userdoc": {
    "methods": {}
  }
}