{
  "contractName": "TreeFactory",
  "abi": [
    {
      "inputs": [],
      "stateMutability": "nonpayable",
      "type": "constructor"
    },
    {
      "anonymous": false,
      "inputs": [
        {
          "indexed": true,
          "internalType": "address",
          "name": "owner",
          "type": "address"
        },
        {
          "indexed": true,
          "internalType": "address",
          "name": "approved",
          "type": "address"
        },
        {
          "indexed": true,
          "internalType": "uint256",
          "name": "tokenId",
          "type": "uint256"
        }
      ],
      "name": "Approval",
      "type": "event"
    },
    {
      "anonymous": false,
      "inputs": [
        {
          "indexed": true,
          "internalType": "address",
          "name": "owner",
          "type": "address"
        },
        {
          "indexed": true,
          "internalType": "address",
          "name": "operator",
          "type": "address"
        },
        {
          "indexed": false,
          "internalType": "bool",
          "name": "approved",
          "type": "bool"
        }
      ],
      "name": "ApprovalForAll",
      "type": "event"
    },
    {
      "anonymous": false,
      "inputs": [
        {
          "indexed": false,
          "internalType": "uint256",
          "name": "id",
          "type": "uint256"
        },
        {
          "indexed": false,
          "internalType": "string",
          "name": "name",
          "type": "string"
        },
        {
          "indexed": false,
          "internalType": "string",
          "name": "latitude",
          "type": "string"
        },
        {
          "indexed": false,
          "internalType": "string",
          "name": "longitude",
          "type": "string"
        }
      ],
      "name": "NewTreeAdded",
      "type": "event"
    },
    {
      "anonymous": false,
      "inputs": [
        {
          "indexed": false,
          "internalType": "address",
          "name": "account",
          "type": "address"
        }
      ],
      "name": "Paused",
      "type": "event"
    },
    {
      "anonymous": false,
      "inputs": [
        {
          "indexed": false,
          "internalType": "uint256",
          "name": "price",
          "type": "uint256"
        }
      ],
      "name": "PriceChanged",
      "type": "event"
    },
    {
      "anonymous": false,
      "inputs": [
        {
          "indexed": true,
          "internalType": "bytes32",
          "name": "role",
          "type": "bytes32"
        },
        {
          "indexed": true,
          "internalType": "bytes32",
          "name": "previousAdminRole",
          "type": "bytes32"
        },
        {
          "indexed": true,
          "internalType": "bytes32",
          "name": "newAdminRole",
          "type": "bytes32"
        }
      ],
      "name": "RoleAdminChanged",
      "type": "event"
    },
    {
      "anonymous": false,
      "inputs": [
        {
          "indexed": true,
          "internalType": "bytes32",
          "name": "role",
          "type": "bytes32"
        },
        {
          "indexed": true,
          "internalType": "address",
          "name": "account",
          "type": "address"
        },
        {
          "indexed": true,
          "internalType": "address",
          "name": "sender",
          "type": "address"
        }
      ],
      "name": "RoleGranted",
      "type": "event"
    },
    {
      "anonymous": false,
      "inputs": [
        {
          "indexed": true,
          "internalType": "bytes32",
          "name": "role",
          "type": "bytes32"
        },
        {
          "indexed": true,
          "internalType": "address",
          "name": "account",
          "type": "address"
        },
        {
          "indexed": true,
          "internalType": "address",
          "name": "sender",
          "type": "address"
        }
      ],
      "name": "RoleRevoked",
      "type": "event"
    },
    {
      "anonymous": false,
      "inputs": [
        {
          "indexed": true,
          "internalType": "address",
          "name": "from",
          "type": "address"
        },
        {
          "indexed": true,
          "internalType": "address",
          "name": "to",
          "type": "address"
        },
        {
          "indexed": true,
          "internalType": "uint256",
          "name": "tokenId",
          "type": "uint256"
        }
      ],
      "name": "Transfer",
      "type": "event"
    },
    {
      "anonymous": false,
      "inputs": [
        {
          "indexed": false,
          "internalType": "address",
          "name": "account",
          "type": "address"
        }
      ],
      "name": "Unpaused",
      "type": "event"
    },
    {
      "inputs": [],
      "name": "AMBASSADOR_ROLE",
      "outputs": [
        {
          "internalType": "bytes32",
          "name": "",
          "type": "bytes32"
        }
      ],
      "stateMutability": "view",
      "type": "function",
      "constant": true
    },
    {
      "inputs": [],
      "name": "DEFAULT_ADMIN_ROLE",
      "outputs": [
        {
          "internalType": "bytes32",
          "name": "",
          "type": "bytes32"
        }
      ],
      "stateMutability": "view",
      "type": "function",
      "constant": true
    },
    {
      "inputs": [],
      "name": "PLANTER_ROLE",
      "outputs": [
        {
          "internalType": "bytes32",
          "name": "",
          "type": "bytes32"
        }
      ],
      "stateMutability": "view",
      "type": "function",
      "constant": true
    },
    {
      "inputs": [
        {
          "internalType": "address",
          "name": "to",
          "type": "address"
        },
        {
          "internalType": "uint256",
          "name": "tokenId",
          "type": "uint256"
        }
      ],
      "name": "approve",
      "outputs": [],
      "stateMutability": "nonpayable",
      "type": "function"
    },
    {
      "inputs": [
        {
          "internalType": "address",
          "name": "owner",
          "type": "address"
        }
      ],
      "name": "balanceOf",
      "outputs": [
        {
          "internalType": "uint256",
          "name": "",
          "type": "uint256"
        }
      ],
      "stateMutability": "view",
      "type": "function",
      "constant": true
    },
    {
      "inputs": [],
      "name": "baseURI",
      "outputs": [
        {
          "internalType": "string",
          "name": "",
          "type": "string"
        }
      ],
      "stateMutability": "view",
      "type": "function",
      "constant": true
    },
    {
      "inputs": [
        {
          "internalType": "uint256",
          "name": "tokenId",
          "type": "uint256"
        }
      ],
      "name": "getApproved",
      "outputs": [
        {
          "internalType": "address",
          "name": "",
          "type": "address"
        }
      ],
      "stateMutability": "view",
      "type": "function",
      "constant": true
    },
    {
      "inputs": [
        {
          "internalType": "bytes32",
          "name": "role",
          "type": "bytes32"
        }
      ],
      "name": "getRoleAdmin",
      "outputs": [
        {
          "internalType": "bytes32",
          "name": "",
          "type": "bytes32"
        }
      ],
      "stateMutability": "view",
      "type": "function",
      "constant": true
    },
    {
      "inputs": [
        {
          "internalType": "bytes32",
          "name": "role",
          "type": "bytes32"
        },
        {
          "internalType": "uint256",
          "name": "index",
          "type": "uint256"
        }
      ],
      "name": "getRoleMember",
      "outputs": [
        {
          "internalType": "address",
          "name": "",
          "type": "address"
        }
      ],
      "stateMutability": "view",
      "type": "function",
      "constant": true
    },
    {
      "inputs": [
        {
          "internalType": "bytes32",
          "name": "role",
          "type": "bytes32"
        }
      ],
      "name": "getRoleMemberCount",
      "outputs": [
        {
          "internalType": "uint256",
          "name": "",
          "type": "uint256"
        }
      ],
      "stateMutability": "view",
      "type": "function",
      "constant": true
    },
    {
      "inputs": [
        {
          "internalType": "bytes32",
          "name": "role",
          "type": "bytes32"
        },
        {
          "internalType": "address",
          "name": "account",
          "type": "address"
        }
      ],
      "name": "grantRole",
      "outputs": [],
      "stateMutability": "nonpayable",
      "type": "function"
    },
    {
      "inputs": [
        {
          "internalType": "bytes32",
          "name": "role",
          "type": "bytes32"
        },
        {
          "internalType": "address",
          "name": "account",
          "type": "address"
        }
      ],
      "name": "hasRole",
      "outputs": [
        {
          "internalType": "bool",
          "name": "",
          "type": "bool"
        }
      ],
      "stateMutability": "view",
      "type": "function",
      "constant": true
    },
    {
      "inputs": [
        {
          "internalType": "address",
          "name": "owner",
          "type": "address"
        },
        {
          "internalType": "address",
          "name": "operator",
          "type": "address"
        }
      ],
      "name": "isApprovedForAll",
      "outputs": [
        {
          "internalType": "bool",
          "name": "",
          "type": "bool"
        }
      ],
      "stateMutability": "view",
      "type": "function",
      "constant": true
    },
    {
      "inputs": [],
      "name": "name",
      "outputs": [
        {
          "internalType": "string",
          "name": "",
          "type": "string"
        }
      ],
      "stateMutability": "view",
      "type": "function",
      "constant": true
    },
    {
      "inputs": [],
      "name": "owner",
      "outputs": [
        {
          "internalType": "address",
          "name": "",
          "type": "address"
        }
      ],
      "stateMutability": "view",
      "type": "function",
      "constant": true
    },
    {
      "inputs": [
        {
          "internalType": "uint256",
          "name": "tokenId",
          "type": "uint256"
        }
      ],
      "name": "ownerOf",
      "outputs": [
        {
          "internalType": "address",
          "name": "",
          "type": "address"
        }
      ],
      "stateMutability": "view",
      "type": "function",
      "constant": true
    },
    {
      "inputs": [
        {
          "internalType": "address",
          "name": "",
          "type": "address"
        },
        {
          "internalType": "uint256",
          "name": "",
          "type": "uint256"
        }
      ],
      "name": "ownerTrees",
      "outputs": [
        {
          "internalType": "uint256",
          "name": "",
          "type": "uint256"
        }
      ],
      "stateMutability": "view",
      "type": "function",
      "constant": true
    },
    {
      "inputs": [],
      "name": "pause",
      "outputs": [],
      "stateMutability": "nonpayable",
      "type": "function"
    },
    {
      "inputs": [],
      "name": "paused",
      "outputs": [
        {
          "internalType": "bool",
          "name": "",
          "type": "bool"
        }
      ],
      "stateMutability": "view",
      "type": "function",
      "constant": true
    },
    {
      "inputs": [],
      "name": "price",
      "outputs": [
        {
          "internalType": "uint256",
          "name": "",
          "type": "uint256"
        }
      ],
      "stateMutability": "view",
      "type": "function",
      "constant": true
    },
    {
      "inputs": [
        {
          "internalType": "bytes32",
          "name": "role",
          "type": "bytes32"
        },
        {
          "internalType": "address",
          "name": "account",
          "type": "address"
        }
      ],
      "name": "renounceRole",
      "outputs": [],
      "stateMutability": "nonpayable",
      "type": "function"
    },
    {
      "inputs": [
        {
          "internalType": "bytes32",
          "name": "role",
          "type": "bytes32"
        },
        {
          "internalType": "address",
          "name": "account",
          "type": "address"
        }
      ],
      "name": "revokeRole",
      "outputs": [],
      "stateMutability": "nonpayable",
      "type": "function"
    },
    {
      "inputs": [
        {
          "internalType": "address",
          "name": "from",
          "type": "address"
        },
        {
          "internalType": "address",
          "name": "to",
          "type": "address"
        },
        {
          "internalType": "uint256",
          "name": "tokenId",
          "type": "uint256"
        }
      ],
      "name": "safeTransferFrom",
      "outputs": [],
      "stateMutability": "nonpayable",
      "type": "function"
    },
    {
      "inputs": [
        {
          "internalType": "address",
          "name": "from",
          "type": "address"
        },
        {
          "internalType": "address",
          "name": "to",
          "type": "address"
        },
        {
          "internalType": "uint256",
          "name": "tokenId",
          "type": "uint256"
        },
        {
          "internalType": "bytes",
          "name": "_data",
          "type": "bytes"
        }
      ],
      "name": "safeTransferFrom",
      "outputs": [],
      "stateMutability": "nonpayable",
      "type": "function"
    },
    {
      "inputs": [
        {
          "internalType": "address",
          "name": "operator",
          "type": "address"
        },
        {
          "internalType": "bool",
          "name": "approved",
          "type": "bool"
        }
      ],
      "name": "setApprovalForAll",
      "outputs": [],
      "stateMutability": "nonpayable",
      "type": "function"
    },
    {
      "inputs": [
        {
          "internalType": "bytes4",
          "name": "interfaceId",
          "type": "bytes4"
        }
      ],
      "name": "supportsInterface",
      "outputs": [
        {
          "internalType": "bool",
          "name": "",
          "type": "bool"
        }
      ],
      "stateMutability": "view",
      "type": "function",
      "constant": true
    },
    {
      "inputs": [],
      "name": "symbol",
      "outputs": [
        {
          "internalType": "string",
          "name": "",
          "type": "string"
        }
      ],
      "stateMutability": "view",
      "type": "function",
      "constant": true
    },
    {
      "inputs": [
        {
          "internalType": "uint256",
          "name": "index",
          "type": "uint256"
        }
      ],
      "name": "tokenByIndex",
      "outputs": [
        {
          "internalType": "uint256",
          "name": "",
          "type": "uint256"
        }
      ],
      "stateMutability": "view",
      "type": "function",
      "constant": true
    },
    {
      "inputs": [
        {
          "internalType": "address",
          "name": "owner",
          "type": "address"
        },
        {
          "internalType": "uint256",
          "name": "index",
          "type": "uint256"
        }
      ],
      "name": "tokenOfOwnerByIndex",
      "outputs": [
        {
          "internalType": "uint256",
          "name": "",
          "type": "uint256"
        }
      ],
      "stateMutability": "view",
      "type": "function",
      "constant": true
    },
    {
      "inputs": [
        {
          "internalType": "uint256",
          "name": "tokenId",
          "type": "uint256"
        }
      ],
      "name": "tokenURI",
      "outputs": [
        {
          "internalType": "string",
          "name": "",
          "type": "string"
        }
      ],
      "stateMutability": "view",
      "type": "function",
      "constant": true
    },
    {
      "inputs": [],
      "name": "totalSupply",
      "outputs": [
        {
          "internalType": "uint256",
          "name": "",
          "type": "uint256"
        }
      ],
      "stateMutability": "view",
      "type": "function",
      "constant": true
    },
    {
      "inputs": [
        {
          "internalType": "address",
          "name": "from",
          "type": "address"
        },
        {
          "internalType": "address",
          "name": "to",
          "type": "address"
        },
        {
          "internalType": "uint256",
          "name": "tokenId",
          "type": "uint256"
        }
      ],
      "name": "transferFrom",
      "outputs": [],
      "stateMutability": "nonpayable",
      "type": "function"
    },
    {
      "inputs": [
        {
          "internalType": "uint256",
          "name": "",
          "type": "uint256"
        }
      ],
      "name": "treeToConserver",
      "outputs": [
        {
          "internalType": "address",
          "name": "",
          "type": "address"
        }
      ],
      "stateMutability": "view",
      "type": "function",
      "constant": true
    },
    {
      "inputs": [
        {
          "internalType": "uint256",
          "name": "",
          "type": "uint256"
        }
      ],
      "name": "treeToGB",
      "outputs": [
        {
          "internalType": "uint256",
          "name": "",
          "type": "uint256"
        }
      ],
      "stateMutability": "view",
      "type": "function",
      "constant": true
    },
    {
      "inputs": [
        {
          "internalType": "uint256",
          "name": "",
          "type": "uint256"
        }
      ],
      "name": "treeToPlanter",
      "outputs": [
        {
          "internalType": "address",
          "name": "",
          "type": "address"
        }
      ],
      "stateMutability": "view",
      "type": "function",
      "constant": true
    },
    {
      "inputs": [
        {
          "internalType": "uint256",
          "name": "",
          "type": "uint256"
        }
      ],
      "name": "treeToType",
      "outputs": [
        {
          "internalType": "uint8",
          "name": "",
          "type": "uint8"
        }
      ],
      "stateMutability": "view",
      "type": "function",
      "constant": true
    },
    {
      "inputs": [
        {
          "internalType": "uint256",
          "name": "",
          "type": "uint256"
        }
      ],
      "name": "treeToVerifier",
      "outputs": [
        {
          "internalType": "address",
          "name": "",
          "type": "address"
        }
      ],
      "stateMutability": "view",
      "type": "function",
      "constant": true
    },
    {
      "inputs": [
        {
          "internalType": "uint256",
          "name": "",
          "type": "uint256"
        }
      ],
      "name": "trees",
      "outputs": [
        {
          "internalType": "string",
          "name": "name",
          "type": "string"
        },
        {
          "internalType": "string",
          "name": "latitude",
          "type": "string"
        },
        {
          "internalType": "string",
          "name": "longitude",
          "type": "string"
        },
        {
          "internalType": "uint256",
          "name": "plantedDate",
          "type": "uint256"
        },
        {
          "internalType": "uint256",
          "name": "birthDate",
          "type": "uint256"
        },
        {
          "internalType": "uint256",
          "name": "fundedDate",
          "type": "uint256"
        },
        {
          "internalType": "uint8",
          "name": "height",
          "type": "uint8"
        },
        {
          "internalType": "uint8",
          "name": "diameter",
          "type": "uint8"
        },
        {
          "internalType": "uint256",
          "name": "balance",
          "type": "uint256"
        }
      ],
      "stateMutability": "view",
      "type": "function",
      "constant": true
    },
    {
      "inputs": [],
      "name": "unpause",
      "outputs": [],
      "stateMutability": "nonpayable",
      "type": "function"
    },
    {
      "inputs": [
        {
          "internalType": "uint8",
          "name": "_typeId",
          "type": "uint8"
        },
        {
          "internalType": "uint256",
          "name": "_gbId",
          "type": "uint256"
        },
        {
          "internalType": "string[]",
          "name": "_stringParams",
          "type": "string[]"
        },
        {
          "internalType": "uint8[]",
          "name": "_uintParams",
          "type": "uint8[]"
        }
      ],
      "name": "add",
      "outputs": [],
      "stateMutability": "nonpayable",
      "type": "function"
    },
    {
      "inputs": [
        {
          "internalType": "address",
          "name": "_account",
          "type": "address"
        },
        {
          "internalType": "uint256",
          "name": "_balance",
          "type": "uint256"
        }
      ],
      "name": "simpleFund",
      "outputs": [
        {
          "internalType": "uint256",
          "name": "id",
          "type": "uint256"
        }
      ],
      "stateMutability": "nonpayable",
      "type": "function"
    },
    {
      "inputs": [
        {
          "internalType": "address",
          "name": "_account",
          "type": "address"
        }
      ],
      "name": "ownerTreesCount",
      "outputs": [
        {
          "internalType": "uint256",
          "name": "",
          "type": "uint256"
        }
      ],
      "stateMutability": "view",
      "type": "function",
      "constant": true
    },
    {
      "inputs": [
        {
          "internalType": "uint256",
          "name": "_treeId",
          "type": "uint256"
        }
      ],
      "name": "treeOwner",
      "outputs": [
        {
          "internalType": "address",
          "name": "",
          "type": "address"
        }
      ],
      "stateMutability": "view",
      "type": "function",
      "constant": true
    },
    {
      "inputs": [
        {
          "internalType": "address",
          "name": "_account",
          "type": "address"
        }
      ],
      "name": "getOwnerTrees",
      "outputs": [
        {
          "internalType": "uint256[]",
          "name": "",
          "type": "uint256[]"
        }
      ],
      "stateMutability": "view",
      "type": "function",
      "constant": true
    },
    {
      "inputs": [
        {
          "internalType": "uint256",
          "name": "_treeId",
          "type": "uint256"
        }
      ],
      "name": "getTypeId",
      "outputs": [
        {
          "internalType": "uint256",
          "name": "",
          "type": "uint256"
        }
      ],
      "stateMutability": "view",
      "type": "function",
      "constant": true
    },
    {
      "inputs": [
        {
          "internalType": "uint256",
          "name": "_id",
          "type": "uint256"
        }
      ],
      "name": "getPlantedDate",
      "outputs": [
        {
          "internalType": "uint256",
          "name": "",
          "type": "uint256"
        }
      ],
      "stateMutability": "view",
      "type": "function",
      "constant": true
    },
    {
      "inputs": [
        {
          "internalType": "uint256",
          "name": "_price",
          "type": "uint256"
        }
      ],
      "name": "setPrice",
      "outputs": [],
      "stateMutability": "nonpayable",
      "type": "function"
    },
    {
      "inputs": [],
      "name": "getPrice",
      "outputs": [
        {
          "internalType": "uint256",
          "name": "",
          "type": "uint256"
        }
      ],
      "stateMutability": "view",
      "type": "function",
      "constant": true
    }
  ],
  "bytecode": "0x608060405233600b60016101000a81548173ffffffffffffffffffffffffffffffffffffffff021916908373ffffffffffffffffffffffffffffffffffffffff1602179055503480156200005257600080fd5b506040518060400160405280600481526020017f54726565000000000000000000000000000000000000000000000000000000008152506040518060400160405280600481526020017f5452454500000000000000000000000000000000000000000000000000000000815250620000d76301ffc9a760e01b620001d760201b60201c565b8160069080519060200190620000ef92919062000446565b5080600790805190602001906200010892919062000446565b50620001216380ac58cd60e01b620001d760201b60201c565b62000139635b5e139f60e01b620001d760201b60201c565b6200015163780e9d6360e01b620001d760201b60201c565b50506000600b60006101000a81548160ff021916908315150217905550620001836000801b33620002af60201b60201c565b620001aa6040516200019590620005d2565b604051809103902033620002af60201b60201c565b620001d1604051620001bc90620005bb565b604051809103902033620002af60201b60201c565b62000627565b63ffffffff60e01b817bffffffffffffffffffffffffffffffffffffffffffffffffffffffff1916141562000243576040517f08c379a00000000000000000000000000000000000000000000000000000000081526004016200023a90620005e9565b60405180910390fd5b6001600080837bffffffffffffffffffffffffffffffffffffffffffffffffffffffff19167bffffffffffffffffffffffffffffffffffffffffffffffffffffffff1916815260200190815260200160002060006101000a81548160ff02191690831515021790555050565b620002c18282620002c560201b60201c565b5050565b620002f481600a60008581526020019081526020016000206000016200036960201b62002e931790919060201c565b1562000365576200030a620003a160201b60201c565b73ffffffffffffffffffffffffffffffffffffffff168173ffffffffffffffffffffffffffffffffffffffff16837f2f8788117e7eff1d82e926ec794901d17c78024a50270940304540a733656f0d60405160405180910390a45b5050565b600062000399836000018373ffffffffffffffffffffffffffffffffffffffff1660001b620003a960201b60201c565b905092915050565b600033905090565b6000620003bd83836200042360201b60201c565b620004185782600001829080600181540180825580915050600190039060005260206000200160009091909190915055826000018054905083600101600084815260200190815260200160002081905550600190506200041d565b600090505b92915050565b600080836001016000848152602001908152602001600020541415905092915050565b828054600181600116156101000203166002900490600052602060002090601f016020900481019282601f106200048957805160ff1916838001178555620004ba565b82800160010185558215620004ba579182015b82811115620004b95782518255916020019190600101906200049c565b5b509050620004c99190620004cd565b5090565b620004f291905b80821115620004ee576000816000905550600101620004d4565b5090565b90565b600062000504601c836200060b565b91507f4552433136353a20696e76616c696420696e74657266616365206964000000006000830152602082019050919050565b600062000546600f836200061c565b91507f414d4241535341444f525f524f4c4500000000000000000000000000000000006000830152600f82019050919050565b600062000588600c836200061c565b91507f504c414e5445525f524f4c4500000000000000000000000000000000000000006000830152600c82019050919050565b6000620005c88262000537565b9150819050919050565b6000620005df8262000579565b9150819050919050565b600060208201905081810360008301526200060481620004f5565b9050919050565b600082825260208201905092915050565b600081905092915050565b614f1a80620006376000396000f3fe608060405234801561001057600080fd5b50600436106102a05760003560e01c806370a0823111610167578063a035b1fe116100ce578063c87b56dd11610087578063c87b56dd146108d9578063ca15c87314610909578063cfb2b3fe14610939578063d547741f14610969578063e985e9c514610985578063f29bbde8146109b5576102a0565b8063a035b1fe14610805578063a217fddf14610823578063a22cb46514610841578063b856eee61461085d578063b88d4fde1461088d578063b8a5f42c146108a9576102a0565b80639010d07c116101205780639010d07c1461071d57806391b7f5ed1461074d57806391d148541461076957806395d89b411461079957806398d5fdca146107b75780639b6b5b66146107d5576102a0565b806370a082311461062d5780637a5080221461065d5780638456cb591461069557806386897ad81461069f5780638a83598a146106cf5780638da5cb5b146106ff576102a0565b80632f745c591161020b57806342842e0e116101c457806342842e0e146105455780634f6ccce7146105615780635c975abb146105915780635e827122146105af5780636352211e146105df5780636c0360eb1461060f576102a0565b80632f745c591461045f578063346f009d1461048f57806335939c58146104bf57806336568abe146104ef5780633963bafe1461050b5780633f4ba83a1461053b576102a0565b80630d4c055a1161025d5780630d4c055a1461038b5780630daa2e66146103bb57806318160ddd146103d957806323b872dd146103f7578063248a9ca3146104135780632f2ff15d14610443576102a0565b806301ffc9a7146102a557806306fdde03146102d557806307ff3723146102f3578063081812fc14610323578063095ea7b3146103535780630ab774691461036f575b600080fd5b6102bf60048036036102ba9190810190613a51565b6109d3565b6040516102cc9190614789565b60405180910390f35b6102dd610a3a565b6040516102ea91906147bf565b60405180910390f35b61030d60048036036103089190810190613aa3565b610adc565b60405161031a91906146e5565b60405180910390f35b61033d60048036036103389190810190613aa3565b610b0f565b60405161034a91906146e5565b60405180910390f35b61036d60048036036103689190810190613974565b610b94565b005b61038960048036036103849190810190613af5565b610cac565b005b6103a560048036036103a09190810190613aa3565b611255565b6040516103b291906146e5565b60405180910390f35b6103c3611267565b6040516103d091906147a4565b60405180910390f35b6103e161127e565b6040516103ee9190614b43565b60405180910390f35b610411600480360361040c919081019061386e565b61128f565b005b61042d600480360361042891908101906139b0565b6112ef565b60405161043a91906147a4565b60405180910390f35b61045d600480360361045891908101906139d9565b61130f565b005b61047960048036036104749190810190613974565b611383565b6040516104869190614b43565b60405180910390f35b6104a960048036036104a49190810190613aa3565b6113de565b6040516104b691906146e5565b60405180910390f35b6104d960048036036104d49190810190613809565b611411565b6040516104e69190614767565b60405180910390f35b610509600480360361050491908101906139d9565b6114a8565b005b61052560048036036105209190810190613aa3565b61152b565b60405161053291906146e5565b60405180910390f35b61054361155e565b005b61055f600480360361055a919081019061386e565b6115b4565b005b61057b60048036036105769190810190613aa3565b6115d4565b6040516105889190614b43565b60405180910390f35b6105996115f7565b6040516105a69190614789565b60405180910390f35b6105c960048036036105c49190810190613aa3565b61160e565b6040516105d69190614b43565b60405180910390f35b6105f960048036036105f49190810190613aa3565b611626565b60405161060691906146e5565b60405180910390f35b61061761165d565b60405161062491906147bf565b60405180910390f35b61064760048036036106429190810190613809565b6116ff565b6040516106549190614b43565b60405180910390f35b61067760048036036106729190810190613aa3565b6117be565b60405161068c999897969594939291906147e1565b60405180910390f35b61069d6119fb565b005b6106b960048036036106b49190810190613809565b611a51565b6040516106c69190614b43565b60405180910390f35b6106e960048036036106e49190810190613974565b611a63565b6040516106f69190614b43565b60405180910390f35b610707611a91565b60405161071491906146e5565b60405180910390f35b61073760048036036107329190810190613a15565b611ab7565b60405161074491906146e5565b60405180910390f35b61076760048036036107629190810190613aa3565b611ae9565b005b610783600480360361077e91908101906139d9565b611b76565b6040516107909190614789565b60405180910390f35b6107a1611ba8565b6040516107ae91906147bf565b60405180910390f35b6107bf611c4a565b6040516107cc9190614b43565b60405180910390f35b6107ef60048036036107ea9190810190613aa3565b611c54565b6040516107fc9190614b43565b60405180910390f35b61080d611c81565b60405161081a9190614b43565b60405180910390f35b61082b611c87565b60405161083891906147a4565b60405180910390f35b61085b60048036036108569190810190613938565b611c8e565b005b61087760048036036108729190810190613974565b611e0f565b6040516108849190614b43565b60405180910390f35b6108a760048036036108a291908101906138bd565b612024565b005b6108c360048036036108be9190810190613aa3565b612086565b6040516108d09190614b43565b60405180910390f35b6108f360048036036108ee9190810190613aa3565b6120ae565b60405161090091906147bf565b60405180910390f35b610923600480360361091e91908101906139b0565b612239565b6040516109309190614b43565b60405180910390f35b610953600480360361094e9190810190613aa3565b612260565b6040516109609190614bbe565b60405180910390f35b610983600480360361097e91908101906139d9565b612280565b005b61099f600480360361099a9190810190613832565b6122f4565b6040516109ac9190614789565b60405180910390f35b6109bd612388565b6040516109ca91906147a4565b60405180910390f35b6000806000837bffffffffffffffffffffffffffffffffffffffffffffffffffffffff19167bffffffffffffffffffffffffffffffffffffffffffffffffffffffff1916815260200190815260200160002060009054906101000a900460ff169050919050565b606060068054600181600116156101000203166002900480601f016020809104026020016040519081016040528092919081815260200182805460018160011615610100020316600290048015610ad25780601f10610aa757610100808354040283529160200191610ad2565b820191906000526020600020905b815481529060010190602001808311610ab557829003601f168201915b5050505050905090565b60106020528060005260406000206000915054906101000a900473ffffffffffffffffffffffffffffffffffffffff1681565b6000610b1a8261239f565b610b59576040517f08c379a0000000000000000000000000000000000000000000000000000000008152600401610b5090614a43565b60405180910390fd5b6004600083815260200190815260200160002060009054906101000a900473ffffffffffffffffffffffffffffffffffffffff169050919050565b6000610b9f82611626565b90508073ffffffffffffffffffffffffffffffffffffffff168373ffffffffffffffffffffffffffffffffffffffff161415610c10576040517f08c379a0000000000000000000000000000000000000000000000000000000008152600401610c0790614aa3565b60405180910390fd5b8073ffffffffffffffffffffffffffffffffffffffff16610c2f6123bc565b73ffffffffffffffffffffffffffffffffffffffff161480610c5e5750610c5d81610c586123bc565b6122f4565b5b610c9d576040517f08c379a0000000000000000000000000000000000000000000000000000000008152600401610c94906149c3565b60405180910390fd5b610ca783836123c4565b505050565b600c60405180610120016040528086866000818110610cc757fe5b9050602002810180356001602003833603038112610ce457600080fd5b8083019250508135905060208201915067ffffffffffffffff811115610d0957600080fd5b600181023603821315610d1b57600080fd5b8080601f016020809104026020016040519081016040528093929190818152602001838380828437600081840152601f19601f82011690508083019250505050505050815260200186866001818110610d7057fe5b9050602002810180356001602003833603038112610d8d57600080fd5b8083019250508135905060208201915067ffffffffffffffff811115610db257600080fd5b600181023603821315610dc457600080fd5b8080601f016020809104026020016040519081016040528093929190818152602001838380828437600081840152601f19601f82011690508083019250505050505050815260200186866002818110610e1957fe5b9050602002810180356001602003833603038112610e3657600080fd5b8083019250508135905060208201915067ffffffffffffffff811115610e5b57600080fd5b600181023603821315610e6d57600080fd5b8080601f016020809104026020016040519081016040528093929190818152602001838380828437600081840152601f19601f8201169050808301925050505050505081526020014281526020014281526020016000815260200184846000818110610ed557fe5b9050602002016020610eea9190810190613acc565b60ff16815260200184846001818110610eff57fe5b9050602002016020610f149190810190613acc565b60ff168152602001600081525090806001815401808255809150506001900390600052602060002090600802016000909190919091506000820151816000019080519060200190610f669291906135e9565b506020820151816001019080519060200190610f839291906135e9565b506040820151816002019080519060200190610fa09291906135e9565b50606082015181600301556080820151816004015560a0820151816005015560c08201518160060160006101000a81548160ff021916908360ff16021790555060e08201518160060160016101000a81548160ff021916908360ff1602179055506101008201518160070155505060006001600c80549050039050601760008860ff1681526020019081526020016000206000815480929190600101919050555085600f6000838152602001908152602001600020819055506018600087815260200190815260200160002060008154809291906001019190505550601360003373ffffffffffffffffffffffffffffffffffffffff1673ffffffffffffffffffffffffffffffffffffffff1681526020019081526020016000208190806001815401808255809150506001900390600052602060002001600090919091909150556110ec338261247d565b7f271a0d3ce6f1983c07e9bcd4e9b0e99047aaf4c3aac6aec7976901c15ec8ffa1818686600081811061111b57fe5b905060200281018035600160200383360303811261113857600080fd5b8083019250508135905060208201915067ffffffffffffffff81111561115d57600080fd5b60018102360382131561116f57600080fd5b8888600181811061117c57fe5b905060200281018035600160200383360303811261119957600080fd5b8083019250508135905060208201915067ffffffffffffffff8111156111be57600080fd5b6001810236038213156111d057600080fd5b8a8a60028181106111dd57fe5b90506020028101803560016020038336030381126111fa57600080fd5b8083019250508135905060208201915067ffffffffffffffff81111561121f57600080fd5b60018102360382131561123157600080fd5b6040516112449796959493929190614b5e565b60405180910390a150505050505050565b600061126082611626565b9050919050565b604051611273906146bb565b604051809103902081565b600061128a600261260b565b905090565b6112a061129a6123bc565b82612620565b6112df576040517f08c379a00000000000000000000000000000000000000000000000000000000081526004016112d690614ae3565b60405180910390fd5b6112ea8383836126fe565b505050565b6000600a6000838152602001908152602001600020600201549050919050565b611336600a6000848152602001908152602001600020600201546113316123bc565b611b76565b611375576040517f08c379a000000000000000000000000000000000000000000000000000000000815260040161136c906148a3565b60405180910390fd5b61137f8282612915565b5050565b60006113d682600160008673ffffffffffffffffffffffffffffffffffffffff1673ffffffffffffffffffffffffffffffffffffffff1681526020019081526020016000206129a990919063ffffffff16565b905092915050565b60126020528060005260406000206000915054906101000a900473ffffffffffffffffffffffffffffffffffffffff1681565b6060601360008373ffffffffffffffffffffffffffffffffffffffff1673ffffffffffffffffffffffffffffffffffffffff16815260200190815260200160002080548060200260200160405190810160405280929190818152602001828054801561149c57602002820191906000526020600020905b815481526020019060010190808311611488575b50505050509050919050565b6114b06123bc565b73ffffffffffffffffffffffffffffffffffffffff168173ffffffffffffffffffffffffffffffffffffffff161461151d576040517f08c379a000000000000000000000000000000000000000000000000000000000815260040161151490614b23565b60405180910390fd5b61152782826129c3565b5050565b60116020528060005260406000206000915054906101000a900473ffffffffffffffffffffffffffffffffffffffff1681565b61156b6000801b33611b76565b6115aa576040517f08c379a00000000000000000000000000000000000000000000000000000000081526004016115a190614ac3565b60405180910390fd5b6115b2612a57565b565b6115cf83838360405180602001604052806000815250612024565b505050565b6000806115eb836002612b0190919063ffffffff16565b50905080915050919050565b6000600b60009054906101000a900460ff16905090565b600f6020528060005260406000206000915090505481565b600061165682604051806060016040528060298152602001614ebc602991396002612b309092919063ffffffff16565b9050919050565b606060098054600181600116156101000203166002900480601f0160208091040260200160405190810160405280929190818152602001828054600181600116156101000203166002900480156116f55780601f106116ca576101008083540402835291602001916116f5565b820191906000526020600020905b8154815290600101906020018083116116d857829003601f168201915b5050505050905090565b60008073ffffffffffffffffffffffffffffffffffffffff168273ffffffffffffffffffffffffffffffffffffffff161415611770576040517f08c379a0000000000000000000000000000000000000000000000000000000008152600401611767906149e3565b60405180910390fd5b6117b7600160008473ffffffffffffffffffffffffffffffffffffffff1673ffffffffffffffffffffffffffffffffffffffff168152602001908152602001600020612b4f565b9050919050565b600c81815481106117cb57fe5b9060005260206000209060080201600091509050806000018054600181600116156101000203166002900480601f0160208091040260200160405190810160405280929190818152602001828054600181600116156101000203166002900480156118775780601f1061184c57610100808354040283529160200191611877565b820191906000526020600020905b81548152906001019060200180831161185a57829003601f168201915b505050505090806001018054600181600116156101000203166002900480601f0160208091040260200160405190810160405280929190818152602001828054600181600116156101000203166002900480156119155780601f106118ea57610100808354040283529160200191611915565b820191906000526020600020905b8154815290600101906020018083116118f857829003601f168201915b505050505090806002018054600181600116156101000203166002900480601f0160208091040260200160405190810160405280929190818152602001828054600181600116156101000203166002900480156119b35780601f10611988576101008083540402835291602001916119b3565b820191906000526020600020905b81548152906001019060200180831161199657829003601f168201915b5050505050908060030154908060040154908060050154908060060160009054906101000a900460ff16908060060160019054906101000a900460ff16908060070154905089565b611a086000801b33611b76565b611a47576040517f08c379a0000000000000000000000000000000000000000000000000000000008152600401611a3e90614ac3565b60405180910390fd5b611a4f612b64565b565b6000611a5c826116ff565b9050919050565b60136020528160005260406000208181548110611a7c57fe5b90600052602060002001600091509150505481565b600b60019054906101000a900473ffffffffffffffffffffffffffffffffffffffff1681565b6000611ae182600a6000868152602001908152602001600020600001612c0f90919063ffffffff16565b905092915050565b611af66000801b33611b76565b611b35576040517f08c379a0000000000000000000000000000000000000000000000000000000008152600401611b2c90614ac3565b60405180910390fd5b80600d819055507fa6dc15bdb68da224c66db4b3838d9a2b205138e8cff6774e57d0af91e196d62281604051611b6b9190614b43565b60405180910390a150565b6000611ba082600a6000868152602001908152602001600020600001612c2990919063ffffffff16565b905092915050565b606060078054600181600116156101000203166002900480601f016020809104026020016040519081016040528092919081815260200182805460018160011615610100020316600290048015611c405780601f10611c1557610100808354040283529160200191611c40565b820191906000526020600020905b815481529060010190602001808311611c2357829003601f168201915b5050505050905090565b6000600d54905090565b6000600e600083815260200190815260200160002060009054906101000a900460ff1660ff169050919050565b600d5481565b6000801b81565b611c966123bc565b73ffffffffffffffffffffffffffffffffffffffff168273ffffffffffffffffffffffffffffffffffffffff161415611d04576040517f08c379a0000000000000000000000000000000000000000000000000000000008152600401611cfb90614943565b60405180910390fd5b8060056000611d116123bc565b73ffffffffffffffffffffffffffffffffffffffff1673ffffffffffffffffffffffffffffffffffffffff16815260200190815260200160002060008473ffffffffffffffffffffffffffffffffffffffff1673ffffffffffffffffffffffffffffffffffffffff16815260200190815260200160002060006101000a81548160ff0219169083151502179055508173ffffffffffffffffffffffffffffffffffffffff16611dbe6123bc565b73ffffffffffffffffffffffffffffffffffffffff167f17307eab39ab6107e8899845ad3d59bd9653f200f220920489ca2b5937696c3183604051611e039190614789565b60405180910390a35050565b600060606040518060400160405280601781526020017f7479706573206e616d652074726565732e6c656e6774680000000000000000008152509050600c6040518061012001604052808381526020016040518060200160405280600081525081526020016040518060200160405280600081525081526020016000815260200160008152602001428152602001600060ff168152602001600060ff1681526020018581525090806001815401808255809150506001900390600052602060002090600802016000909190919091506000820151816000019080519060200190611efa9291906135e9565b506020820151816001019080519060200190611f179291906135e9565b506040820151816002019080519060200190611f349291906135e9565b50606082015181600301556080820151816004015560a0820151816005015560c08201518160060160006101000a81548160ff021916908360ff16021790555060e08201518160060160016101000a81548160ff021916908360ff160217905550610100820151816007015550506001600c80549050039150601360008573ffffffffffffffffffffffffffffffffffffffff1673ffffffffffffffffffffffffffffffffffffffff16815260200190815260200160002082908060018154018082558091505060019003906000526020600020016000909190919091505561201d338361247d565b5092915050565b61203561202f6123bc565b83612620565b612074576040517f08c379a000000000000000000000000000000000000000000000000000000000815260040161206b90614ae3565b60405180910390fd5b61208084848484612c59565b50505050565b6000600c828154811061209557fe5b9060005260206000209060080201600301549050919050565b60606120b98261239f565b6120f8576040517f08c379a00000000000000000000000000000000000000000000000000000000081526004016120ef90614a83565b60405180910390fd5b6060600860008481526020019081526020016000208054600181600116156101000203166002900480601f0160208091040260200160405190810160405280929190818152602001828054600181600116156101000203166002900480156121a15780601f10612176576101008083540402835291602001916121a1565b820191906000526020600020905b81548152906001019060200180831161218457829003601f168201915b505050505090506000600980546001816001161561010002031660029004905014156121d05780915050612234565b600081511115612205576009816040516020016121ee929190614697565b604051602081830303815290604052915050612234565b600961221084612cb5565b604051602001612221929190614697565b6040516020818303038152906040529150505b919050565b6000612259600a6000848152602001908152602001600020600001612de5565b9050919050565b600e6020528060005260406000206000915054906101000a900460ff1681565b6122a7600a6000848152602001908152602001600020600201546122a26123bc565b611b76565b6122e6576040517f08c379a00000000000000000000000000000000000000000000000000000000081526004016122dd90614983565b60405180910390fd5b6122f082826129c3565b5050565b6000600560008473ffffffffffffffffffffffffffffffffffffffff1673ffffffffffffffffffffffffffffffffffffffff16815260200190815260200160002060008373ffffffffffffffffffffffffffffffffffffffff1673ffffffffffffffffffffffffffffffffffffffff16815260200190815260200160002060009054906101000a900460ff16905092915050565b604051612394906146d0565b604051809103902081565b60006123b5826002612dfa90919063ffffffff16565b9050919050565b600033905090565b816004600083815260200190815260200160002060006101000a81548173ffffffffffffffffffffffffffffffffffffffff021916908373ffffffffffffffffffffffffffffffffffffffff160217905550808273ffffffffffffffffffffffffffffffffffffffff1661243783611626565b73ffffffffffffffffffffffffffffffffffffffff167f8c5be1e5ebec7d5bd14f71427d1e84f3dd0314c0f7b2291e5b200ac8c7c3b92560405160405180910390a45050565b600073ffffffffffffffffffffffffffffffffffffffff168273ffffffffffffffffffffffffffffffffffffffff1614156124ed576040517f08c379a00000000000000000000000000000000000000000000000000000000081526004016124e490614a23565b60405180910390fd5b6124f68161239f565b15612536576040517f08c379a000000000000000000000000000000000000000000000000000000000815260040161252d90614903565b60405180910390fd5b61254260008383612e14565b61259381600160008573ffffffffffffffffffffffffffffffffffffffff1673ffffffffffffffffffffffffffffffffffffffff168152602001908152602001600020612e1990919063ffffffff16565b506125aa81836002612e339092919063ffffffff16565b50808273ffffffffffffffffffffffffffffffffffffffff16600073ffffffffffffffffffffffffffffffffffffffff167fddf252ad1be2c89b69c2b068fc378daa952ba7f163c4a11628f55a4df523b3ef60405160405180910390a45050565b600061261982600001612e68565b9050919050565b600061262b8261239f565b61266a576040517f08c379a000000000000000000000000000000000000000000000000000000000815260040161266190614963565b60405180910390fd5b600061267583611626565b90508073ffffffffffffffffffffffffffffffffffffffff168473ffffffffffffffffffffffffffffffffffffffff1614806126e457508373ffffffffffffffffffffffffffffffffffffffff166126cc84610b0f565b73ffffffffffffffffffffffffffffffffffffffff16145b806126f557506126f481856122f4565b5b91505092915050565b8273ffffffffffffffffffffffffffffffffffffffff1661271e82611626565b73ffffffffffffffffffffffffffffffffffffffff1614612774576040517f08c379a000000000000000000000000000000000000000000000000000000000815260040161276b90614a63565b60405180910390fd5b600073ffffffffffffffffffffffffffffffffffffffff168273ffffffffffffffffffffffffffffffffffffffff1614156127e4576040517f08c379a00000000000000000000000000000000000000000000000000000000081526004016127db90614923565b60405180910390fd5b6127ef838383612e14565b6127fa6000826123c4565b61284b81600160008673ffffffffffffffffffffffffffffffffffffffff1673ffffffffffffffffffffffffffffffffffffffff168152602001908152602001600020612e7990919063ffffffff16565b5061289d81600160008573ffffffffffffffffffffffffffffffffffffffff1673ffffffffffffffffffffffffffffffffffffffff168152602001908152602001600020612e1990919063ffffffff16565b506128b481836002612e339092919063ffffffff16565b50808273ffffffffffffffffffffffffffffffffffffffff168473ffffffffffffffffffffffffffffffffffffffff167fddf252ad1be2c89b69c2b068fc378daa952ba7f163c4a11628f55a4df523b3ef60405160405180910390a4505050565b61293d81600a6000858152602001908152602001600020600001612e9390919063ffffffff16565b156129a55761294a6123bc565b73ffffffffffffffffffffffffffffffffffffffff168173ffffffffffffffffffffffffffffffffffffffff16837f2f8788117e7eff1d82e926ec794901d17c78024a50270940304540a733656f0d60405160405180910390a45b5050565b60006129b88360000183612ec3565b60001c905092915050565b6129eb81600a6000858152602001908152602001600020600001612f3090919063ffffffff16565b15612a53576129f86123bc565b73ffffffffffffffffffffffffffffffffffffffff168173ffffffffffffffffffffffffffffffffffffffff16837ff6391f5c32d9c69d2a47ea670b442974b53935d1edc7fd64eb21e047a839171b60405160405180910390a45b5050565b600b60009054906101000a900460ff16612aa6576040517f08c379a0000000000000000000000000000000000000000000000000000000008152600401612a9d906148c3565b60405180910390fd5b6000600b60006101000a81548160ff0219169083151502179055507f5db9ee0a495bf2e6ff9c91a7834c1ba4fdd244a5e8aa4e537bd38aeae4b073aa612aea6123bc565b604051612af79190614700565b60405180910390a1565b600080600080612b148660000186612f60565b915091508160001c8160001c8090509350935050509250929050565b6000612b43846000018460001b84612fe3565b60001c90509392505050565b6000612b5d82600001613074565b9050919050565b600b60009054906101000a900460ff1615612bb4576040517f08c379a0000000000000000000000000000000000000000000000000000000008152600401612bab906149a3565b60405180910390fd5b6001600b60006101000a81548160ff0219169083151502179055507f62e78cea01bee320cd4e420270b5ea74000d11b0c9f74754ebdbfc544b05a258612bf86123bc565b604051612c059190614700565b60405180910390a1565b6000612c1e8360000183612ec3565b60001c905092915050565b6000612c51836000018373ffffffffffffffffffffffffffffffffffffffff1660001b613085565b905092915050565b612c648484846126fe565b612c70848484846130a8565b612caf576040517f08c379a0000000000000000000000000000000000000000000000000000000008152600401612ca6906148e3565b60405180910390fd5b50505050565b60606000821415612cfd576040518060400160405280600181526020017f30000000000000000000000000000000000000000000000000000000000000008152509050612de0565b600082905060005b60008214612d27578080600101915050600a8281612d1f57fe5b049150612d05565b6060816040519080825280601f01601f191660200182016040528015612d5c5781602001600182028038833980820191505090505b50905060006001830390508593505b60008414612dd857600a8481612d7d57fe5b0660300160f81b82828060019003935081518110612d9757fe5b60200101907effffffffffffffffffffffffffffffffffffffffffffffffffffffffffffff1916908160001a905350600a8481612dd057fe5b049350612d6b565b819450505050505b919050565b6000612df382600001613074565b9050919050565b6000612e0c836000018360001b61320c565b905092915050565b505050565b6000612e2b836000018360001b61322f565b905092915050565b6000612e5f846000018460001b8473ffffffffffffffffffffffffffffffffffffffff1660001b61329f565b90509392505050565b600081600001805490509050919050565b6000612e8b836000018360001b61337b565b905092915050565b6000612ebb836000018373ffffffffffffffffffffffffffffffffffffffff1660001b61322f565b905092915050565b600081836000018054905011612f0e576040517f08c379a0000000000000000000000000000000000000000000000000000000008152600401612f0590614883565b60405180910390fd5b826000018281548110612f1d57fe5b9060005260206000200154905092915050565b6000612f58836000018373ffffffffffffffffffffffffffffffffffffffff1660001b61337b565b905092915050565b60008082846000018054905011612fac576040517f08c379a0000000000000000000000000000000000000000000000000000000008152600401612fa390614a03565b60405180910390fd5b6000846000018481548110612fbd57fe5b906000526020600020906002020190508060000154816001015492509250509250929050565b60008084600101600085815260200190815260200160002054905060008114158390613045576040517f08c379a000000000000000000000000000000000000000000000000000000000815260040161303c91906147bf565b60405180910390fd5b5084600001600182038154811061305857fe5b9060005260206000209060020201600101549150509392505050565b600081600001805490509050919050565b600080836001016000848152602001908152602001600020541415905092915050565b60006130c98473ffffffffffffffffffffffffffffffffffffffff16613463565b6130d65760019050613204565b606061319d63150b7a0260e01b6130eb6123bc565b888787604051602401613101949392919061471b565b604051602081830303815290604052907bffffffffffffffffffffffffffffffffffffffffffffffffffffffff19166020820180517bffffffffffffffffffffffffffffffffffffffffffffffffffffffff8381831617835250505050604051806060016040528060328152602001614e8a603291398773ffffffffffffffffffffffffffffffffffffffff166134ae9092919063ffffffff16565b90506000818060200190516131b59190810190613a7a565b905063150b7a0260e01b7bffffffffffffffffffffffffffffffffffffffffffffffffffffffff1916817bffffffffffffffffffffffffffffffffffffffffffffffffffffffff191614925050505b949350505050565b600080836001016000848152602001908152602001600020541415905092915050565b600061323b8383613085565b613294578260000182908060018154018082558091505060019003906000526020600020016000909190919091505582600001805490508360010160008481526020019081526020016000208190555060019050613299565b600090505b92915050565b600080846001016000858152602001908152602001600020549050600081141561334657846000016040518060400160405280868152602001858152509080600181540180825580915050600190039060005260206000209060020201600090919091909150600082015181600001556020820151816001015550508460000180549050856001016000868152602001908152602001600020819055506001915050613374565b8285600001600183038154811061335957fe5b90600052602060002090600202016001018190555060009150505b9392505050565b6000808360010160008481526020019081526020016000205490506000811461345757600060018203905060006001866000018054905003905060008660000182815481106133c657fe5b90600052602060002001549050808760000184815481106133e357fe5b906000526020600020018190555060018301876001016000838152602001908152602001600020819055508660000180548061341b57fe5b6001900381819060005260206000200160009055905586600101600087815260200190815260200160002060009055600194505050505061345d565b60009150505b92915050565b60008060007fc5d2460186f7233c927e7db2dcc703c0e500b653ca82273b7bfad8045d85a47060001b9050833f91508082141580156134a557506000801b8214155b92505050919050565b60606134bd84846000856134c6565b90509392505050565b60606134d185613463565b613510576040517f08c379a000000000000000000000000000000000000000000000000000000000815260040161350790614b03565b60405180910390fd5b600060608673ffffffffffffffffffffffffffffffffffffffff16858760405161353a9190614680565b60006040518083038185875af1925050503d8060008114613577576040519150601f19603f3d011682016040523d82523d6000602084013e61357c565b606091505b509150915081156135915780925050506135e1565b6000815111156135a45780518082602001fd5b836040517f08c379a00000000000000000000000000000000000000000000000000000000081526004016135d891906147bf565b60405180910390fd5b949350505050565b828054600181600116156101000203166002900490600052602060002090601f016020900481019282601f1061362a57805160ff1916838001178555613658565b82800160010185558215613658579182015b8281111561365757825182559160200191906001019061363c565b5b5090506136659190613669565b5090565b61368b91905b8082111561368757600081600090555060010161366f565b5090565b90565b60008135905061369d81614dff565b92915050565b60008083601f8401126136b557600080fd5b8235905067ffffffffffffffff8111156136ce57600080fd5b6020830191508360208202830111156136e657600080fd5b9250929050565b60008083601f8401126136ff57600080fd5b8235905067ffffffffffffffff81111561371857600080fd5b60208301915083602082028301111561373057600080fd5b9250929050565b60008135905061374681614e16565b92915050565b60008135905061375b81614e2d565b92915050565b60008135905061377081614e44565b92915050565b60008151905061378581614e44565b92915050565b600082601f83011261379c57600080fd5b81356137af6137aa82614c06565b614bd9565b915080825260208301602083018583830111156137cb57600080fd5b6137d6838284614dac565b50505092915050565b6000813590506137ee81614e5b565b92915050565b60008135905061380381614e72565b92915050565b60006020828403121561381b57600080fd5b60006138298482850161368e565b91505092915050565b6000806040838503121561384557600080fd5b60006138538582860161368e565b92505060206138648582860161368e565b9150509250929050565b60008060006060848603121561388357600080fd5b60006138918682870161368e565b93505060206138a28682870161368e565b92505060406138b3868287016137df565b9150509250925092565b600080600080608085870312156138d357600080fd5b60006138e18782880161368e565b94505060206138f28782880161368e565b9350506040613903878288016137df565b925050606085013567ffffffffffffffff81111561392057600080fd5b61392c8782880161378b565b91505092959194509250565b6000806040838503121561394b57600080fd5b60006139598582860161368e565b925050602061396a85828601613737565b9150509250929050565b6000806040838503121561398757600080fd5b60006139958582860161368e565b92505060206139a6858286016137df565b9150509250929050565b6000602082840312156139c257600080fd5b60006139d08482850161374c565b91505092915050565b600080604083850312156139ec57600080fd5b60006139fa8582860161374c565b9250506020613a0b8582860161368e565b9150509250929050565b60008060408385031215613a2857600080fd5b6000613a368582860161374c565b9250506020613a47858286016137df565b9150509250929050565b600060208284031215613a6357600080fd5b6000613a7184828501613761565b91505092915050565b600060208284031215613a8c57600080fd5b6000613a9a84828501613776565b91505092915050565b600060208284031215613ab557600080fd5b6000613ac3848285016137df565b91505092915050565b600060208284031215613ade57600080fd5b6000613aec848285016137f4565b91505092915050565b60008060008060008060808789031215613b0e57600080fd5b6000613b1c89828a016137f4565b9650506020613b2d89828a016137df565b955050604087013567ffffffffffffffff811115613b4a57600080fd5b613b5689828a016136a3565b9450945050606087013567ffffffffffffffff811115613b7557600080fd5b613b8189828a016136ed565b92509250509295509295509295565b6000613b9c8383614653565b60208301905092915050565b613bb181614d76565b82525050565b613bc081614ceb565b82525050565b613bcf81614cd9565b82525050565b6000613be082614c57565b613bea8185614c90565b9350613bf583614c32565b8060005b83811015613c26578151613c0d8882613b90565b9750613c1883614c83565b925050600181019050613bf9565b5085935050505092915050565b613c3c81614cfd565b82525050565b613c4b81614d09565b82525050565b6000613c5c82614c62565b613c668185614ca1565b9350613c76818560208601614dbb565b613c7f81614dee565b840191505092915050565b6000613c9582614c62565b613c9f8185614cb2565b9350613caf818560208601614dbb565b80840191505092915050565b6000613cc78385614cbd565b9350613cd4838584614dac565b613cdd83614dee565b840190509392505050565b6000613cf382614c78565b613cfd8185614cbd565b9350613d0d818560208601614dbb565b613d1681614dee565b840191505092915050565b6000613d2c82614c78565b613d368185614cce565b9350613d46818560208601614dbb565b80840191505092915050565b6000613d5d82614c6d565b613d678185614cbd565b9350613d77818560208601614dbb565b613d8081614dee565b840191505092915050565b600081546001811660008114613da85760018114613dcd57613e11565b607f6002830416613db98187614cce565b955060ff1983168652808601935050613e11565b60028204613ddb8187614cce565b9550613de685614c42565b60005b82811015613e0857815481890152600182019150602081019050613de9565b82880195505050505b505092915050565b6000613e26602283614cbd565b91507f456e756d657261626c655365743a20696e646578206f7574206f6620626f756e60008301527f64730000000000000000000000000000000000000000000000000000000000006020830152604082019050919050565b6000613e8c602f83614cbd565b91507f416363657373436f6e74726f6c3a2073656e646572206d75737420626520616e60008301527f2061646d696e20746f206772616e7400000000000000000000000000000000006020830152604082019050919050565b6000613ef2601483614cbd565b91507f5061757361626c653a206e6f74207061757365640000000000000000000000006000830152602082019050919050565b6000613f32603283614cbd565b91507f4552433732313a207472616e7366657220746f206e6f6e20455243373231526560008301527f63656976657220696d706c656d656e74657200000000000000000000000000006020830152604082019050919050565b6000613f98601c83614cbd565b91507f4552433732313a20746f6b656e20616c7265616479206d696e746564000000006000830152602082019050919050565b6000613fd8600f83614cce565b91507f414d4241535341444f525f524f4c4500000000000000000000000000000000006000830152600f82019050919050565b6000614018602483614cbd565b91507f4552433732313a207472616e7366657220746f20746865207a65726f2061646460008301527f72657373000000000000000000000000000000000000000000000000000000006020830152604082019050919050565b600061407e601983614cbd565b91507f4552433732313a20617070726f766520746f2063616c6c6572000000000000006000830152602082019050919050565b60006140be602c83614cbd565b91507f4552433732313a206f70657261746f7220717565727920666f72206e6f6e657860008301527f697374656e7420746f6b656e00000000000000000000000000000000000000006020830152604082019050919050565b6000614124600c83614cce565b91507f504c414e5445525f524f4c4500000000000000000000000000000000000000006000830152600c82019050919050565b6000614164603083614cbd565b91507f416363657373436f6e74726f6c3a2073656e646572206d75737420626520616e60008301527f2061646d696e20746f207265766f6b65000000000000000000000000000000006020830152604082019050919050565b60006141ca601083614cbd565b91507f5061757361626c653a20706175736564000000000000000000000000000000006000830152602082019050919050565b600061420a603883614cbd565b91507f4552433732313a20617070726f76652063616c6c6572206973206e6f74206f7760008301527f6e6572206e6f7220617070726f76656420666f7220616c6c00000000000000006020830152604082019050919050565b6000614270602a83614cbd565b91507f4552433732313a2062616c616e636520717565727920666f7220746865207a6560008301527f726f2061646472657373000000000000000000000000000000000000000000006020830152604082019050919050565b60006142d6602283614cbd565b91507f456e756d657261626c654d61703a20696e646578206f7574206f6620626f756e60008301527f64730000000000000000000000000000000000000000000000000000000000006020830152604082019050919050565b600061433c602083614cbd565b91507f4552433732313a206d696e7420746f20746865207a65726f20616464726573736000830152602082019050919050565b600061437c602c83614cbd565b91507f4552433732313a20617070726f76656420717565727920666f72206e6f6e657860008301527f697374656e7420746f6b656e00000000000000000000000000000000000000006020830152604082019050919050565b60006143e2602983614cbd565b91507f4552433732313a207472616e73666572206f6620746f6b656e2074686174206960008301527f73206e6f74206f776e00000000000000000000000000000000000000000000006020830152604082019050919050565b6000614448602f83614cbd565b91507f4552433732314d657461646174613a2055524920717565727920666f72206e6f60008301527f6e6578697374656e7420746f6b656e00000000000000000000000000000000006020830152604082019050919050565b60006144ae602183614cbd565b91507f4552433732313a20617070726f76616c20746f2063757272656e74206f776e6560008301527f72000000000000000000000000000000000000000000000000000000000000006020830152604082019050919050565b6000614514601383614cbd565b91507f43616c6c6572206973206e6f742061646d696e000000000000000000000000006000830152602082019050919050565b6000614554603183614cbd565b91507f4552433732313a207472616e736665722063616c6c6572206973206e6f74206f60008301527f776e6572206e6f7220617070726f7665640000000000000000000000000000006020830152604082019050919050565b60006145ba601d83614cbd565b91507f416464726573733a2063616c6c20746f206e6f6e2d636f6e74726163740000006000830152602082019050919050565b60006145fa602f83614cbd565b91507f416363657373436f6e74726f6c3a2063616e206f6e6c792072656e6f756e636560008301527f20726f6c657320666f722073656c6600000000000000000000000000000000006020830152604082019050919050565b61465c81614d5f565b82525050565b61466b81614d5f565b82525050565b61467a81614d69565b82525050565b600061468c8284613c8a565b915081905092915050565b60006146a38285613d8b565b91506146af8284613d21565b91508190509392505050565b60006146c682613fcb565b9150819050919050565b60006146db82614117565b9150819050919050565b60006020820190506146fa6000830184613bc6565b92915050565b60006020820190506147156000830184613ba8565b92915050565b60006080820190506147306000830187613bb7565b61473d6020830186613bc6565b61474a6040830185614662565b818103606083015261475c8184613c51565b905095945050505050565b600060208201905081810360008301526147818184613bd5565b905092915050565b600060208201905061479e6000830184613c33565b92915050565b60006020820190506147b96000830184613c42565b92915050565b600060208201905081810360008301526147d98184613ce8565b905092915050565b60006101208201905081810360008301526147fc818c613d52565b90508181036020830152614810818b613d52565b90508181036040830152614824818a613d52565b90506148336060830189614662565b6148406080830188614662565b61484d60a0830187614662565b61485a60c0830186614671565b61486760e0830185614671565b614875610100830184614662565b9a9950505050505050505050565b6000602082019050818103600083015261489c81613e19565b9050919050565b600060208201905081810360008301526148bc81613e7f565b9050919050565b600060208201905081810360008301526148dc81613ee5565b9050919050565b600060208201905081810360008301526148fc81613f25565b9050919050565b6000602082019050818103600083015261491c81613f8b565b9050919050565b6000602082019050818103600083015261493c8161400b565b9050919050565b6000602082019050818103600083015261495c81614071565b9050919050565b6000602082019050818103600083015261497c816140b1565b9050919050565b6000602082019050818103600083015261499c81614157565b9050919050565b600060208201905081810360008301526149bc816141bd565b9050919050565b600060208201905081810360008301526149dc816141fd565b9050919050565b600060208201905081810360008301526149fc81614263565b9050919050565b60006020820190508181036000830152614a1c816142c9565b9050919050565b60006020820190508181036000830152614a3c8161432f565b9050919050565b60006020820190508181036000830152614a5c8161436f565b9050919050565b60006020820190508181036000830152614a7c816143d5565b9050919050565b60006020820190508181036000830152614a9c8161443b565b9050919050565b60006020820190508181036000830152614abc816144a1565b9050919050565b60006020820190508181036000830152614adc81614507565b9050919050565b60006020820190508181036000830152614afc81614547565b9050919050565b60006020820190508181036000830152614b1c816145ad565b9050919050565b60006020820190508181036000830152614b3c816145ed565b9050919050565b6000602082019050614b586000830184614662565b92915050565b6000608082019050614b73600083018a614662565b8181036020830152614b8681888a613cbb565b90508181036040830152614b9b818688613cbb565b90508181036060830152614bb0818486613cbb565b905098975050505050505050565b6000602082019050614bd36000830184614671565b92915050565b6000604051905081810181811067ffffffffffffffff82111715614bfc57600080fd5b8060405250919050565b600067ffffffffffffffff821115614c1d57600080fd5b601f19601f8301169050602081019050919050565b6000819050602082019050919050565b60008190508160005260206000209050919050565b600081519050919050565b600081519050919050565b600081519050919050565b600081519050919050565b6000602082019050919050565b600082825260208201905092915050565b600082825260208201905092915050565b600081905092915050565b600082825260208201905092915050565b600081905092915050565b6000614ce482614d3f565b9050919050565b6000614cf682614d3f565b9050919050565b60008115159050919050565b6000819050919050565b60007fffffffff0000000000000000000000000000000000000000000000000000000082169050919050565b600073ffffffffffffffffffffffffffffffffffffffff82169050919050565b6000819050919050565b600060ff82169050919050565b6000614d8182614d88565b9050919050565b6000614d9382614d9a565b9050919050565b6000614da582614d3f565b9050919050565b82818337600083830152505050565b60005b83811015614dd9578082015181840152602081019050614dbe565b83811115614de8576000848401525b50505050565b6000601f19601f8301169050919050565b614e0881614cd9565b8114614e1357600080fd5b50565b614e1f81614cfd565b8114614e2a57600080fd5b50565b614e3681614d09565b8114614e4157600080fd5b50565b614e4d81614d13565b8114614e5857600080fd5b50565b614e6481614d5f565b8114614e6f57600080fd5b50565b614e7b81614d69565b8114614e8657600080fd5b5056fe4552433732313a207472616e7366657220746f206e6f6e20455243373231526563656976657220696d706c656d656e7465724552433732313a206f776e657220717565727920666f72206e6f6e6578697374656e7420746f6b656ea26469706673582212207d0c97013f392574b2452b439b235d9be49efd35ad2e199cc56e63eaf40ef2d564736f6c63430006020033",
  "source": "// SPDX-License-Identifier: GPL-3.0\n\npragma solidity >=0.4.21 <0.7.0;\npragma experimental ABIEncoderV2;\n\nimport \"../../node_modules/@openzeppelin/contracts/token/ERC721/ERC721.sol\";\n\nimport \"../access/AccessRestriction.sol\";\nimport \"./TreeType.sol\";\n\ncontract TreeFactory is ERC721, AccessRestriction {\n    constructor() ERC721(\"Tree\", \"TREE\") public {\n    }\n\n    event PriceChanged(uint256 price);\n\n    event NewTreeAdded(\n        uint256 id,\n        string name,\n        string latitude,\n        string longitude\n    );\n\n    struct Tree {\n        string name;\n        string latitude;\n        string longitude;\n        uint256 plantedDate;\n        uint256 birthDate;\n        uint256 fundedDate;\n        uint8 height;\n        uint8 diameter;\n        uint256 balance;\n    }\n\n    Tree[] public trees;\n\n    uint256 public price;\n\n    mapping(uint256 => uint8) public treeToType;\n    mapping(uint256 => uint256) public treeToGB;\n    mapping(uint256 => address) public treeToPlanter;\n    mapping(uint256 => address) public treeToConserver;\n    mapping(uint256 => address) public treeToVerifier;\n    mapping(address => uint256[]) public ownerTrees;\n    mapping(address => uint256) planterTreeCount;\n    mapping(address => uint256) conserverTreeCount;\n    mapping(address => uint256) verifierTreeCount;\n    mapping(uint256 => uint256) typeTreeCount;\n    mapping(uint256 => uint256) gbTreeCount;\n\n    //@todo permission must check\n    function add(\n        uint8 _typeId,\n        uint256 _gbId,\n        string[] calldata _stringParams,\n        uint8[] calldata _uintParams\n    ) external {\n        trees.push(\n            Tree(\n                _stringParams[0],\n                _stringParams[1],\n                _stringParams[2],\n                now,\n                now,\n                0,\n                _uintParams[0],\n                _uintParams[1],\n                0\n            )\n        );\n        uint256 id = trees.length - 1;\n\n        typeTreeCount[_typeId]++;\n\n        treeToGB[id] = _gbId;\n        gbTreeCount[_gbId]++;\n\n        ownerTrees[msg.sender].push(id);\n\n        _mint(msg.sender, id);\n\n        emit NewTreeAdded(\n            id,\n            _stringParams[0],\n            _stringParams[1],\n            _stringParams[2]\n        );\n    }\n\n    function simpleFund(\n        address _account,\n        uint256 _balance\n    ) public returns(uint256 id) {\n        string memory name = string('types name trees.length');\n\n\n        trees.push(\n            Tree(\n                name,\n                '',\n                '',\n                0,\n                0,\n                now,\n                0,\n                0,\n                _balance\n            )\n        );\n        id = trees.length - 1;\n\n        ownerTrees[_account].push(id);\n\n        _mint(msg.sender, id);\n\n    }\n\n    function ownerTreesCount(address _account) public view returns (uint256) {\n        return balanceOf(_account);\n    }\n\n    function treeOwner(uint256 _treeId) public view returns (address) {\n        return ownerOf(_treeId);\n    }\n\n    function getOwnerTrees(address _account) public view returns (uint256[] memory) {\n        return ownerTrees[_account];\n    }\n\n    function getTypeId(uint256 _treeId) public view returns (uint256) {\n        return treeToType[_treeId];\n    }\n\n    function getPlantedDate(uint256 _id) public view returns (uint256) {\n        return trees[_id].plantedDate;\n    }\n\n    function setPrice(uint256 _price) external onlyAdmin {\n        price = _price;\n        emit PriceChanged(_price);\n    }\n\n    function getPrice() external view returns(uint256) {\n        return price;\n    }\n}\n",
  "sourcePath": "/home/amir/Projects/treejer/contract/contracts/tree/TreeFactory.sol",
  "compiler": {
    "name": "solc",
    "version": "0.6.2+commit.bacdbe57.Emscripten.clang"
  },
  "schemaVersion": "3.0.22",
  "updatedAt": "2020-07-25T14:05:17.903Z",
  "networkType": "ethereum",
  "devdoc": {
    "methods": {
      "approve(address,uint256)": {
        "details": "See {IERC721-approve}."
      },
      "balanceOf(address)": {
        "details": "See {IERC721-balanceOf}."
      },
      "baseURI()": {
        "details": "Returns the base URI set via {_setBaseURI}. This will be automatically added as a prefix in {tokenURI} to each token's URI, or to the token ID if no specific URI is set for that token ID."
      },
      "getApproved(uint256)": {
        "details": "See {IERC721-getApproved}."
      },
      "getRoleAdmin(bytes32)": {
        "details": "Returns the admin role that controls `role`. See {grantRole} and {revokeRole}.     * To change a role's admin, use {_setRoleAdmin}."
      },
      "getRoleMember(bytes32,uint256)": {
        "details": "Returns one of the accounts that have `role`. `index` must be a value between 0 and {getRoleMemberCount}, non-inclusive.     * Role bearers are not sorted in any particular way, and their ordering may change at any point.     * WARNING: When using {getRoleMember} and {getRoleMemberCount}, make sure you perform all queries on the same block. See the following https://forum.openzeppelin.com/t/iterating-over-elements-on-enumerableset-in-openzeppelin-contracts/2296[forum post] for more information."
      },
      "getRoleMemberCount(bytes32)": {
        "details": "Returns the number of accounts that have `role`. Can be used together with {getRoleMember} to enumerate all bearers of a role."
      },
      "grantRole(bytes32,address)": {
        "details": "Grants `role` to `account`.     * If `account` had not been already granted `role`, emits a {RoleGranted} event.     * Requirements:     * - the caller must have ``role``'s admin role."
      },
      "hasRole(bytes32,address)": {
        "details": "Returns `true` if `account` has been granted `role`."
      },
      "isApprovedForAll(address,address)": {
        "details": "See {IERC721-isApprovedForAll}."
      },
      "name()": {
        "details": "See {IERC721Metadata-name}."
      },
      "ownerOf(uint256)": {
        "details": "See {IERC721-ownerOf}."
      },
      "paused()": {
        "details": "Returns true if the contract is paused, and false otherwise."
      },
      "renounceRole(bytes32,address)": {
        "details": "Revokes `role` from the calling account.     * Roles are often managed via {grantRole} and {revokeRole}: this function's purpose is to provide a mechanism for accounts to lose their privileges if they are compromised (such as when a trusted device is misplaced).     * If the calling account had been granted `role`, emits a {RoleRevoked} event.     * Requirements:     * - the caller must be `account`."
      },
      "revokeRole(bytes32,address)": {
        "details": "Revokes `role` from `account`.     * If `account` had been granted `role`, emits a {RoleRevoked} event.     * Requirements:     * - the caller must have ``role``'s admin role."
      },
      "safeTransferFrom(address,address,uint256)": {
        "details": "See {IERC721-safeTransferFrom}."
      },
      "safeTransferFrom(address,address,uint256,bytes)": {
        "details": "See {IERC721-safeTransferFrom}."
      },
      "setApprovalForAll(address,bool)": {
        "details": "See {IERC721-setApprovalForAll}."
      },
      "supportsInterface(bytes4)": {
        "details": "See {IERC165-supportsInterface}.     * Time complexity O(1), guaranteed to always use less than 30 000 gas."
      },
      "symbol()": {
        "details": "See {IERC721Metadata-symbol}."
      },
      "tokenByIndex(uint256)": {
        "details": "See {IERC721Enumerable-tokenByIndex}."
      },
      "tokenOfOwnerByIndex(address,uint256)": {
        "details": "See {IERC721Enumerable-tokenOfOwnerByIndex}."
      },
      "tokenURI(uint256)": {
        "details": "See {IERC721Metadata-tokenURI}."
      },
      "totalSupply()": {
        "details": "See {IERC721Enumerable-totalSupply}."
      },
      "transferFrom(address,address,uint256)": {
        "details": "See {IERC721-transferFrom}."
      }
    }
  },
  "userdoc": {
    "methods": {}
  }
}