{
  "contractName": "TreeAttribute",
  "abi": [
    {
      "anonymous": false,
      "inputs": [
        {
          "indexed": false,
          "internalType": "address",
          "name": "buyer",
          "type": "address"
        },
        {
          "indexed": false,
          "internalType": "uint8",
          "name": "rank",
          "type": "uint8"
        }
      ],
      "name": "BuyerRankSet",
      "type": "event"
    },
    {
      "anonymous": false,
      "inputs": [
        {
          "indexed": false,
          "internalType": "uint256",
          "name": "treeId",
          "type": "uint256"
        }
      ],
      "name": "TreeAttributesGenerated",
      "type": "event"
    },
    {
      "anonymous": false,
      "inputs": [
        {
          "indexed": false,
          "internalType": "uint256",
          "name": "treeId",
          "type": "uint256"
        }
      ],
      "name": "TreeAttributesNotGenerated",
      "type": "event"
    },
    {
      "inputs": [],
      "name": "accessRestriction",
      "outputs": [
        {
          "internalType": "contract IAccessRestriction",
          "name": "",
          "type": "address"
        }
      ],
      "stateMutability": "view",
      "type": "function",
      "constant": true
    },
    {
      "inputs": [
        {
          "internalType": "uint32",
          "name": "",
          "type": "uint32"
        }
      ],
      "name": "generatedAttributes",
      "outputs": [
        {
          "internalType": "uint32",
          "name": "",
          "type": "uint32"
        }
      ],
      "stateMutability": "view",
      "type": "function",
      "constant": true
    },
    {
      "inputs": [],
      "name": "isTreeAttribute",
      "outputs": [
        {
          "internalType": "bool",
          "name": "",
          "type": "bool"
        }
      ],
      "stateMutability": "view",
      "type": "function",
      "constant": true
    },
    {
      "inputs": [
        {
          "internalType": "address",
          "name": "",
          "type": "address"
        }
      ],
      "name": "rankOf",
      "outputs": [
        {
          "internalType": "uint8",
          "name": "",
          "type": "uint8"
        }
      ],
      "stateMutability": "view",
      "type": "function",
      "constant": true
    },
    {
      "inputs": [
        {
          "internalType": "uint32",
          "name": "",
          "type": "uint32"
        }
      ],
      "name": "reservedAttributes",
      "outputs": [
        {
          "internalType": "uint8",
          "name": "",
          "type": "uint8"
        }
      ],
      "stateMutability": "view",
      "type": "function",
      "constant": true
    },
    {
      "inputs": [
        {
          "internalType": "uint256",
          "name": "",
          "type": "uint256"
        }
      ],
      "name": "treeAttributes",
      "outputs": [
        {
          "internalType": "uint32",
          "name": "treeType",
          "type": "uint32"
        },
        {
          "internalType": "uint32",
          "name": "groundType",
          "type": "uint32"
        },
        {
          "internalType": "uint32",
          "name": "trunkColor",
          "type": "uint32"
        },
        {
          "internalType": "uint32",
          "name": "crownColor",
          "type": "uint32"
        },
        {
          "internalType": "uint32",
          "name": "groundColor",
          "type": "uint32"
        },
        {
          "internalType": "uint32",
          "name": "specialEffects",
          "type": "uint32"
        },
        {
          "internalType": "uint32",
          "name": "universalCode",
          "type": "uint32"
        },
        {
          "internalType": "uint32",
          "name": "exists",
          "type": "uint32"
        }
      ],
      "stateMutability": "view",
      "type": "function",
      "constant": true
    },
    {
      "inputs": [],
      "name": "treeFactory",
      "outputs": [
        {
          "internalType": "contract ITreeFactory",
          "name": "",
          "type": "address"
        }
      ],
      "stateMutability": "view",
      "type": "function",
      "constant": true
    },
    {
      "inputs": [
        {
          "internalType": "address",
          "name": "_accessRestrictionAddress",
          "type": "address"
        }
      ],
      "name": "initialize",
      "outputs": [],
      "stateMutability": "nonpayable",
      "type": "function"
    },
    {
      "inputs": [
        {
          "internalType": "address",
          "name": "_address",
          "type": "address"
        }
      ],
      "name": "setTreeFactoryAddress",
      "outputs": [],
      "stateMutability": "nonpayable",
      "type": "function"
    },
    {
      "inputs": [
        {
          "internalType": "uint32",
          "name": "generatedCode",
          "type": "uint32"
        }
      ],
      "name": "reserveTreeAttributes",
      "outputs": [],
      "stateMutability": "nonpayable",
      "type": "function"
    },
    {
      "inputs": [
        {
          "internalType": "uint256",
          "name": "treeId",
          "type": "uint256"
        },
        {
          "internalType": "uint32",
          "name": "generatedCode",
          "type": "uint32"
        }
      ],
      "name": "setTreeAttributesByAdmin",
      "outputs": [],
      "stateMutability": "nonpayable",
      "type": "function"
    },
    {
      "inputs": [
        {
          "internalType": "uint256",
          "name": "treeId",
          "type": "uint256"
        },
        {
          "internalType": "uint256",
          "name": "paidAmount",
          "type": "uint256"
        }
      ],
      "name": "createTreeAttributes",
      "outputs": [
        {
          "internalType": "bool",
          "name": "",
          "type": "bool"
        }
      ],
      "stateMutability": "nonpayable",
      "type": "function"
    },
    {
      "inputs": [
        {
          "internalType": "address",
          "name": "buyer",
          "type": "address"
        },
        {
          "internalType": "uint256",
          "name": "treejerSpent",
          "type": "uint256"
        },
        {
          "internalType": "uint256",
          "name": "walletSpent",
          "type": "uint256"
        },
        {
          "internalType": "uint64",
          "name": "treesOwned",
          "type": "uint64"
        },
        {
          "internalType": "uint64",
          "name": "walletSpentCount",
          "type": "uint64"
        }
      ],
      "name": "setBuyerRank",
      "outputs": [],
      "stateMutability": "nonpayable",
      "type": "function"
    }
  ],
  "bytecode": "0x608060405234801561001057600080fd5b506120c3806100206000396000f3fe608060405234801561001057600080fd5b50600436106100cf5760003560e01c8063786354a61161008c578063ac689ec311610066578063ac689ec31461028f578063b55c0a83146102a2578063c4d66de8146102dd578063d6762c4a146102f057600080fd5b8063786354a614610197578063874c1daf1461025957806389e2af181461027c57600080fd5b80630bf351f8146100d45780632a4ddf6d146100e9578063421ef6d4146100fc578063448e5d2b1461012c57806346efcdc1146101615780635cd2988614610184575b600080fd5b6100e76100e2366004611b9d565b61030a565b005b6100e76100f7366004611c6c565b61040d565b60015461010f906001600160a01b031681565b6040516001600160a01b0390911681526020015b60405180910390f35b61014f61013a366004611c98565b60056020526000908152604090205460ff1681565b60405160ff9091168152602001610123565b6000546101749062010000900460ff1681565b6040519015158152602001610123565b610174610192366004611c4a565b6108ea565b61020a6101a5366004611c31565b60036020526000908152604090205463ffffffff808216916401000000008104821691680100000000000000008204811691600160601b8104821691600160801b8204811691600160a01b8104821691600160c01b8204811691600160e01b90041688565b6040805163ffffffff998a16815297891660208901529588169587019590955292861660608601529085166080850152841660a0840152831660c083015290911660e082015261010001610123565b61014f610267366004611b9d565b60026020526000908152604090205460ff1681565b6100e761028a366004611c98565b610ba4565b6100e761029d366004611bb8565b610ca7565b6102c86102b0366004611c98565b60046020526000908152604090205463ffffffff1681565b60405163ffffffff9091168152602001610123565b6100e76102eb366004611b9d565b610e5d565b60005461010f90630100000090046001600160a01b031681565b600054604051632104fb0560e21b815233600482015263010000009091046001600160a01b031690638413ec149060240160006040518083038186803b15801561035357600080fd5b505afa158015610367573d6000803e3d6000fd5b505050506000819050806001600160a01b031663e0eb4eb96040518163ffffffff1660e01b815260040160206040518083038186803b1580156103a957600080fd5b505afa1580156103bd573d6000803e3d6000fd5b505050506040513d601f19601f820116820180604052508101906103e19190611c0f565b6103ea57600080fd5b600180546001600160a01b0319166001600160a01b039290921691909117905550565b600054604051632104fb0560e21b815233600482015263010000009091046001600160a01b031690638413ec149060240160006040518083038186803b15801561045657600080fd5b505afa15801561046a573d6000803e3d6000fd5b5050505063ffffffff8181166000908152600460205260409020541615806104aa575063ffffffff811660009081526005602052604090205460ff166001145b6104fb5760405162461bcd60e51b815260206004820152601d60248201527f74686520747265652061747472696275746573206172652074616b656e00000060448201526064015b60405180910390fd5b600082815260036020526040902054600160c01b900463ffffffff16156105645760405162461bcd60e51b815260206004820152601e60248201527f7472656520617474726962757465732061726520736574206265666f7265000060448201526064016104f2565b63ffffffff81166000908152600460208181526040808420805463ffffffff1916600117905560058252808420805460ff19169055805160c080820183526006808352600383860181905283850187905260608401879052608084015260a0830195909552825185815260e081019093529094939192830190803683370190505090508260005b60068163ffffffff16101561068d5761062082858363ffffffff166006811061061657610616612077565b6020020151610fbe565b838263ffffffff168151811061063857610638612077565b63ffffffff9283166020918202929092010152849082166006811061065f5761065f612077565b602002015161066f906002611dee565b6106799083611d2c565b91508061068581612027565b9150506105eb565b50604051806101000160405280836000815181106106ad576106ad612077565b602002602001015163ffffffff168152602001836001815181106106d3576106d3612077565b602002602001015163ffffffff168152602001836002815181106106f9576106f9612077565b602002602001015163ffffffff1681526020018360038151811061071f5761071f612077565b602002602001015163ffffffff1681526020018360048151811061074557610745612077565b602002602001015163ffffffff1681526020018360058151811061076b5761076b612077565b602002602001015163ffffffff1681526020018563ffffffff168152602001600163ffffffff168152506003600087815260200190815260200160002060008201518160000160006101000a81548163ffffffff021916908363ffffffff16021790555060208201518160000160046101000a81548163ffffffff021916908363ffffffff16021790555060408201518160000160086101000a81548163ffffffff021916908363ffffffff160217905550606082015181600001600c6101000a81548163ffffffff021916908363ffffffff16021790555060808201518160000160106101000a81548163ffffffff021916908363ffffffff16021790555060a08201518160000160146101000a81548163ffffffff021916908363ffffffff16021790555060c08201518160000160186101000a81548163ffffffff021916908363ffffffff16021790555060e082015181600001601c6101000a81548163ffffffff021916908363ffffffff1602179055509050505050505050565b600082815260036020526040812054600160e01b900463ffffffff16156109535760405162461bcd60e51b815260206004820152601e60248201527f7472656520617474726962757465732061726520736574206265666f7265000060448201526064016104f2565b600154604051634d13e67d60e11b8152600481018590523360248201526001600160a01b0390911690639a27ccfa9060440160206040518083038186803b15801561099d57600080fd5b505afa1580156109b1573d6000803e3d6000fd5b505050506040513d601f19601f820116820180604052508101906109d59190611c0f565b610a215760405162461bcd60e51b815260206004820152601a60248201527f6e6f206e65656420746f2074726565206174747269627574657300000000000060448201526064016104f2565b600160005b612710811015610b28576040805143602080830191909152600080356001600160e01b031916838501526044808401899052845180850390910181526064840185528051908301203360601b6bffffffffffffffffffffffff19166084850152609884015260b8830189905260d88084018690528451808503909101815260f89093019093528151910120905b6009811015610b0857610ad13388610acc85601c610fe2565b611011565b93508315610ade57610b08565b610aea601c6002611ddf565b610af49083611d18565b915080610b008161200c565b915050610ab3565b508215610b155750610b28565b5080610b208161200c565b915050610a26565b508015610b67576040518481527f7b0beeff91b466d396a030d3bc9aa08b615f761785566f170b4043050dd1c2139060200160405180910390a1610b9b565b6040518481527f1e6cc6ff2f54231b997f8c278077738189580fa7f6a31138364482a185b78b179060200160405180910390a15b90505b92915050565b600054604051632104fb0560e21b815233600482015263010000009091046001600160a01b031690638413ec149060240160006040518083038186803b158015610bed57600080fd5b505afa158015610c01573d6000803e3d6000fd5b5050505063ffffffff8181166000908152600460205260409020541615610c6a5760405162461bcd60e51b815260206004820152601d60248201527f74686520747265652061747472696275746573206172652074616b656e00000060448201526064016104f2565b63ffffffff166000908152600460209081526040808320805463ffffffff191660019081179091556005909252909120805460ff19169091179055565b600054604051632104fb0560e21b815233600482015263010000009091046001600160a01b031690638413ec149060240160006040518083038186803b158015610cf057600080fd5b505afa158015610d04573d6000803e3d6000fd5b505050506000600485610d179190611d18565b610d2290600a611f5e565b610d2c9082611cb3565b9050610d40670de0b6b3a764000085611d18565b610d4b906002611f5e565b610d559082611cb3565b9050610d6b67ffffffffffffffff831682611cb3565b9050610d7883600a611fa9565b610d8c9067ffffffffffffffff1682611cb3565b9050601e81118015610d9e5750603d81105b15610dcb576001600160a01b0386166000908152600260205260409020805460ff19166001179055610e55565b60c9811015610dff576001600160a01b0386166000908152600260208190526040909120805460ff19169091179055610e55565b6103e9811015610e31576001600160a01b0386166000908152600260205260409020805460ff19166003179055610e55565b6001600160a01b0386166000908152600260205260409020805460ff191660041790555b505050505050565b600054610100900460ff1680610e76575060005460ff16155b610ed95760405162461bcd60e51b815260206004820152602e60248201527f496e697469616c697a61626c653a20636f6e747261637420697320616c72656160448201526d191e481a5b9a5d1a585b1a5e995960921b60648201526084016104f2565b600054610100900460ff16158015610efb576000805461ffff19166101011790555b6000829050806001600160a01b031663ba84fd696040518163ffffffff1660e01b815260040160206040518083038186803b158015610f3957600080fd5b505afa158015610f4d573d6000803e3d6000fd5b505050506040513d601f19601f82011682018060405250810190610f719190611c0f565b610f7a57600080fd5b600080546001600160a01b0390921663010000000262010000600160b81b031990921691909117620100001790558015610fba576000805461ff00191690555b5050565b6000806001610fce846002611dee565b610fd89190611fe7565b9093169392505050565b6000806001610ff2846002611dcf565b610ffc9190611fd0565b841690506110098161161d565b949350505050565b6040805160c0810182526006808252600360208301819052600483850181905260608401526080830152600860a0830152825181815260e08101909352600092839181602001602082028036833701905050905060005b60068163ffffffff1610156111005761109385848363ffffffff166006811061061657610616612077565b828263ffffffff16815181106110ab576110ab612077565b63ffffffff928316602091820292909201015283908216600681106110d2576110d2612077565b60200201516110e2906002611dee565b6110ec9086611d2c565b9450806110f881612027565b915050611068565b506064851115611162576111308660008360058151811061112357611123612077565b6020026020010151611686565b8160058151811061114357611143612077565b602002602001019063ffffffff16908163ffffffff16815250506111cb565b6032851115611184576111308660028360058151811061112357611123612077565b61119d8660038360058151811061112357611123612077565b816005815181106111b0576111b0612077565b602002602001019063ffffffff16908163ffffffff16815250505b6000816005815181106111e0576111e0612077565b6020026020010151621000006111f69190611f7d565b8260048151811061120957611209612077565b60200260200101516202000061121f9190611f7d565b8360038151811061123257611232612077565b60200260200101516120006112479190611f7d565b8460028151811061125a5761125a612077565b602002602001015161020061126f9190611f7d565b8560018151811061128257611282612077565b602002602001015160406112969190611f7d565b866000815181106112a9576112a9612077565b60200260200101516112bb9190611ccb565b6112c59190611ccb565b6112cf9190611ccb565b6112d99190611ccb565b6112e39190611ccb565b63ffffffff808216600090815260046020526040902054919250166115c65763ffffffff8116600090815260046020526040808220805463ffffffff191660011790558051610100810190915283519091829185919061134557611345612077565b602002602001015163ffffffff1681526020018360018151811061136b5761136b612077565b602002602001015163ffffffff1681526020018360028151811061139157611391612077565b602002602001015163ffffffff168152602001836003815181106113b7576113b7612077565b602002602001015163ffffffff168152602001836004815181106113dd576113dd612077565b602002602001015163ffffffff1681526020018360058151811061140357611403612077565b602002602001015163ffffffff1681526020018263ffffffff168152602001600163ffffffff168152506003600088815260200190815260200160002060008201518160000160006101000a81548163ffffffff021916908363ffffffff16021790555060208201518160000160046101000a81548163ffffffff021916908363ffffffff16021790555060408201518160000160086101000a81548163ffffffff021916908363ffffffff160217905550606082015181600001600c6101000a81548163ffffffff021916908363ffffffff16021790555060808201518160000160106101000a81548163ffffffff021916908363ffffffff16021790555060a08201518160000160146101000a81548163ffffffff021916908363ffffffff16021790555060c08201518160000160186101000a81548163ffffffff021916908363ffffffff16021790555060e082015181600001601c6101000a81548163ffffffff021916908363ffffffff160217905550905050600060026000896001600160a01b03166001600160a01b0316815260200190815260200160002060006101000a81548160ff021916908360ff16021790555060019350505050611616565b63ffffffff808216600090815260046020526040812080546001939192916115f091859116611ccb565b92506101000a81548163ffffffff021916908363ffffffff160217905550600093505050505b9392505050565b600063ffffffff8211156116825760405162461bcd60e51b815260206004820152602660248201527f53616665436173743a2076616c756520646f65736e27742066697420696e203360448201526532206269747360d01b60648201526084016104f2565b5090565b600080604051806102000160405280603261ffff168152602001606461ffff168152602001609661ffff16815260200160c861ffff16815260200160d261ffff16815260200160dc61ffff16815260200160e661ffff16815260200160eb61ffff16815260200160f061ffff16815260200160f561ffff16815260200160f861ffff16815260200160fb61ffff16815260200160fd61ffff16815260200160fe61ffff16815260200160ff61ffff16815260200161010061ffff1681525090506000604051806102000160405280602a61ffff168152602001605461ffff168152602001607e61ffff16815260200160a861ffff16815260200160b561ffff16815260200160c261ffff16815260200160cf61ffff16815260200160d861ffff16815260200160e161ffff16815260200160ea61ffff16815260200160f061ffff16815260200160f661ffff16815260200160fa61ffff16815260200160fc61ffff16815260200160fe61ffff16815260200161010061ffff1681525090506000604051806102000160405280602861ffff168152602001605061ffff168152602001607861ffff16815260200160a061ffff16815260200160ad61ffff16815260200160ba61ffff16815260200160c761ffff16815260200160d061ffff16815260200160d961ffff16815260200160e261ffff16815260200160e961ffff16815260200160f061ffff16815260200160f461ffff16815260200160f861ffff16815260200160fc61ffff16815260200161010061ffff1681525090506000604051806102000160405280602061ffff168152602001604061ffff168152602001605f61ffff168152602001607e61ffff168152602001608d61ffff168152602001609c61ffff16815260200160ab61ffff16815260200160b761ffff16815260200160c361ffff16815260200160cf61ffff16815260200160d961ffff16815260200160e361ffff16815260200160eb61ffff16815260200160f261ffff16815260200160f961ffff16815260200161010061ffff1681525090506000604051806102000160405280601961ffff168152602001603261ffff168152602001604b61ffff168152602001606461ffff168152602001607361ffff168152602001608261ffff168152602001609161ffff168152602001609c61ffff16815260200160a761ffff16815260200160b261ffff16815260200160bc61ffff16815260200160c661ffff16815260200160d661ffff16815260200160e461ffff16815260200160f261ffff16815260200161010061ffff168152509050611a4a611b36565b6001600160a01b038a16600090815260026020526040812054611a71908b9060ff16611cf3565b905060ff8116611a8357869150611ac3565b8060ff1660011415611a9757859150611ac3565b8060ff1660021415611aab57849150611ac3565b8060ff1660031415611abf57839150611ac3565b8291505b60005b60108163ffffffff161015611b2457828163ffffffff1660108110611aed57611aed612077565b602002015161ffff168a63ffffffff161015611b125797506116169650505050505050565b80611b1c81612027565b915050611ac6565b5060009b9a5050505050505050505050565b6040518061020001604052806010906020820280368337509192915050565b80356001600160a01b0381168114611b6c57600080fd5b919050565b803563ffffffff81168114611b6c57600080fd5b803567ffffffffffffffff81168114611b6c57600080fd5b600060208284031215611baf57600080fd5b61161682611b55565b600080600080600060a08688031215611bd057600080fd5b611bd986611b55565b94506020860135935060408601359250611bf560608701611b85565b9150611c0360808701611b85565b90509295509295909350565b600060208284031215611c2157600080fd5b81518015158114610b9b57600080fd5b600060208284031215611c4357600080fd5b5035919050565b60008060408385031215611c5d57600080fd5b50508035926020909101359150565b60008060408385031215611c7f57600080fd5b82359150611c8f60208401611b71565b90509250929050565b600060208284031215611caa57600080fd5b61161682611b71565b60008219821115611cc657611cc661204b565b500190565b600063ffffffff808316818516808303821115611cea57611cea61204b565b01949350505050565b600060ff821660ff84168060ff03821115611d1057611d1061204b565b019392505050565b600082611d2757611d27612061565b500490565b600063ffffffff80841680611d4357611d43612061565b92169190910492915050565b600181815b80851115611d8a578160001904821115611d7057611d7061204b565b80851615611d7d57918102915b93841c9390800290611d54565b509250929050565b600181815b80851115611d8a578163ffffffff04821115611db557611db561204b565b80851615611dc257918102915b93841c9390800290611d97565b600061161661ffff841683611e03565b600061161660ff841683611e03565b600061161660ff841663ffffffff8416611ea4565b600082611e1257506001610b9e565b81611e1f57506000610b9e565b8160018114611e355760028114611e3f57611e5b565b6001915050610b9e565b60ff841115611e5057611e5061204b565b50506001821b610b9e565b5060208310610133831016604e8410600b8410161715611e7e575081810a610b9e565b611e888383611d4f565b8060001904821115611e9c57611e9c61204b565b029392505050565b600082611eb357506001610b9e565b81611ec057506000610b9e565b8160018114611e355760028114611ed657611f07565b60ff841115611ee757611ee761204b565b6001841b915063ffffffff821115611f0157611f0161204b565b50610b9e565b5060208310610133831016604e8410600b8410161715611f3e575081810a63ffffffff811115611f3957611f3961204b565b610b9e565b611f488383611d92565b8063ffffffff04821115611e9c57611e9c61204b565b6000816000190483118215151615611f7857611f7861204b565b500290565b600063ffffffff80831681851681830481118215151615611fa057611fa061204b565b02949350505050565b600067ffffffffffffffff80831681851681830481118215151615611fa057611fa061204b565b600082821015611fe257611fe261204b565b500390565b600063ffffffff838116908316818110156120045761200461204b565b039392505050565b60006000198214156120205761202061204b565b5060010190565b600063ffffffff808316818114156120415761204161204b565b6001019392505050565b634e487b7160e01b600052601160045260246000fd5b634e487b7160e01b600052601260045260246000fd5b634e487b7160e01b600052603260045260246000fdfea2646970667358221220a8acdd3f3465b6ea503d9bd5d5b208dbe604996d48edc2de2da394ebff0cd30164736f6c63430008060033",
  "immutableReferences": {},
  "source": "// // SPDX-License-Identifier: MIT\n\npragma solidity ^0.8.6;\n\nimport \"@openzeppelin/contracts-upgradeable/proxy/utils/Initializable.sol\";\nimport \"@openzeppelin/contracts-upgradeable/utils/math/SafeCastUpgradeable.sol\";\nimport \"../access/IAccessRestriction.sol\";\nimport \"../tree/ITreeFactory.sol\";\n\ncontract TreeAttribute is Initializable {\n    using SafeCastUpgradeable for uint256;\n    bool public isTreeAttribute;\n    IAccessRestriction public accessRestriction;\n    ITreeFactory public treeFactory;\n    //parameters of randomTreeGeneration\n    struct Attributes {\n        uint32 treeType;\n        uint32 groundType;\n        uint32 trunkColor;\n        uint32 crownColor;\n        uint32 groundColor;\n        uint32 specialEffects;\n        uint32 universalCode;\n        uint32 exists;\n    }\n\n    //maping from buyer address to his/her rank\n    mapping(address => uint8) public rankOf;\n    // mapping from treeId to tree attributes\n    mapping(uint256 => Attributes) public treeAttributes;\n    // mapping from unique attributes id to number of generations\n    mapping(uint32 => uint32) public generatedAttributes;\n    mapping(uint32 => uint8) public reservedAttributes;\n\n    event BuyerRankSet(address buyer, uint8 rank);\n    event TreeAttributesGenerated(uint256 treeId);\n    event TreeAttributesNotGenerated(uint256 treeId);\n    modifier onlyAdmin() {\n        accessRestriction.ifAdmin(msg.sender);\n        _;\n    }\n    modifier ifNotPaused() {\n        accessRestriction.ifNotPaused();\n        _;\n    }\n\n    function initialize(address _accessRestrictionAddress) public initializer {\n        IAccessRestriction candidateContract = IAccessRestriction(\n            _accessRestrictionAddress\n        );\n        require(candidateContract.isAccessRestriction());\n        isTreeAttribute = true;\n        accessRestriction = candidateContract;\n    }\n\n    function setTreeFactoryAddress(address _address) external onlyAdmin {\n        ITreeFactory candidateContract = ITreeFactory(_address);\n        require(candidateContract.isTreeFactory());\n        treeFactory = candidateContract;\n    }\n\n    function reserveTreeAttributes(uint32 generatedCode) external onlyAdmin {\n        require(\n            generatedAttributes[generatedCode] == 0,\n            \"the tree attributes are taken\"\n        );\n        generatedAttributes[generatedCode] = 1;\n        reservedAttributes[generatedCode] = 1;\n    }\n\n    function setTreeAttributesByAdmin(uint256 treeId, uint32 generatedCode)\n        external\n        onlyAdmin\n    {\n        require(\n            generatedAttributes[generatedCode] == 0 ||\n                reservedAttributes[generatedCode] == 1,\n            \"the tree attributes are taken\"\n        );\n        require(\n            treeAttributes[treeId].universalCode == 0,\n            \"tree attributes are set before\"\n        );\n        generatedAttributes[generatedCode] = 1;\n        reservedAttributes[generatedCode] = 0;\n        uint8[6] memory bitCounts = [6, 3, 4, 4, 3, 4];\n        uint32[] memory results = new uint32[](6);\n\n        uint32 tempGeneratedCode = generatedCode;\n\n        for (uint32 i = 0; i < bitCounts.length; i++) {\n            results[i] = getFirstN32(tempGeneratedCode, bitCounts[i]);\n\n            tempGeneratedCode = tempGeneratedCode / uint32(2)**bitCounts[i];\n        }\n        treeAttributes[treeId] = Attributes(\n            results[0],\n            results[1],\n            results[2],\n            results[3],\n            results[4],\n            results[5],\n            generatedCode,\n            1\n        );\n    }\n\n    function calcRandAttributes(\n        address buyer,\n        uint256 treeId,\n        uint32 rand\n    ) private returns (bool) {\n        uint8[6] memory bitCounts = [6, 3, 4, 4, 3, 8];\n        uint32[] memory results = new uint32[](6);\n        for (uint32 i = 0; i < bitCounts.length; i++) {\n            results[i] = getFirstN32(rand, bitCounts[i]);\n            rand = rand / (uint32(2)**bitCounts[i]);\n        }\n        if (treeId > 100) {\n            results[5] = getSpecialEffect(buyer, 0, results[5]);\n        } else if (treeId > 50) {\n            results[5] = getSpecialEffect(buyer, 2, results[5]);\n        } else {\n            results[5] = getSpecialEffect(buyer, 3, results[5]);\n        }\n\n        //check Uniqueness\n        uint32 generatedCode = results[0] +\n            results[1] *\n            64 +\n            results[2] *\n            512 +\n            results[3] *\n            8192 +\n            results[4] *\n            131072 +\n            results[5] *\n            1048576;\n        if (generatedAttributes[generatedCode] == 0) {\n            generatedAttributes[generatedCode] = 1;\n            treeAttributes[treeId] = Attributes(\n                results[0],\n                results[1],\n                results[2],\n                results[3],\n                results[4],\n                results[5],\n                generatedCode,\n                1\n            );\n            rankOf[buyer] = 0;\n            return true;\n        }\n        generatedAttributes[generatedCode] += 1;\n        return false;\n    }\n\n    //the function creates\n    function createTreeAttributes(uint256 treeId, uint256 paidAmount)\n        external\n        returns (bool)\n    {\n        require(\n            treeAttributes[treeId].exists == 0,\n            \"tree attributes are set before\"\n        );\n\n        require(\n            treeFactory.checkMintStatus(treeId, msg.sender),\n            \"no need to tree attributes\"\n        );\n\n        bool flag = true;\n        for (uint256 j = 0; j < 10000; j++) {\n            uint256 rand = uint256(\n                keccak256(\n                    abi.encodePacked(\n                        msg.sender,\n                        keccak256(\n                            abi.encodePacked(block.number, msg.sig, paidAmount)\n                        ),\n                        treeId,\n                        j\n                    )\n                )\n            );\n            for (uint256 i = 0; i < 9; i++) {\n                flag = calcRandAttributes(\n                    msg.sender,\n                    treeId,\n                    getFirstN(rand, 28)\n                );\n                if (flag) {\n                    break;\n                }\n                rand = rand / (uint256(2)**28);\n            }\n            if (flag) {\n                break;\n            }\n        }\n        if (flag) {\n            emit TreeAttributesGenerated(treeId);\n        } else {\n            emit TreeAttributesNotGenerated(treeId);\n        }\n\n        return flag;\n    }\n\n    //to get n lowest bits of a uint256\n    function getFirstN(uint256 rnd, uint16 n) private pure returns (uint32) {\n        uint256 x = rnd & ((uint256(2)**n) - 1);\n\n        return x.toUint32();\n    }\n\n    //to get n lowest bits of a uint32\n    function getFirstN32(uint32 rnd, uint8 n) private pure returns (uint32) {\n        uint32 firN = (uint32(2)**n) - 1;\n        return rnd & firN;\n    }\n\n    // the function Tries to Calculate the rank of buyer based on transaction statistics of his/her wallet\n    function setBuyerRank(\n        address buyer,\n        uint256 treejerSpent,\n        uint256 walletSpent,\n        uint64 treesOwned,\n        uint64 walletSpentCount\n    ) external onlyAdmin {\n        uint256 points;\n        //each 0.004 ether spent in treejer has 10 points\n        points += (treejerSpent / (4 * 1 wei)) * 10;\n        //each 1 ether spent of wallet(sent or withdraw) has 2 points\n        points += (walletSpent / (1 * 1 ether)) * 2;\n        // each 1 send or withdraw of wallet has 1 point\n        points += walletSpentCount;\n        //each tree owned by buyer has 10 points\n        points += treesOwned * 10;\n        //points under 31 is rank of zero\n\n        if (points > 30 && points < 61) {\n            rankOf[buyer] = 1; //points under 61  is rank 1\n        } else if (points < 201) {\n            rankOf[buyer] = 2; //points under 201 is rank 2\n        } else if (points < 1001) {\n            rankOf[buyer] = 3; //points under 1001 is rank 3\n        } else {\n            rankOf[buyer] = 4; //points above 1000 is rank 4 or VIP\n        }\n    }\n\n    // The function manipulates probability of rare special effects based on rank of buyer\n    function getSpecialEffect(\n        address buyer,\n        uint8 bonusRank,\n        uint32 n\n    ) private view returns (uint32) {\n        uint16[16] memory specialEffectsRank0 = [\n            50,\n            100,\n            150,\n            200,\n            210,\n            220,\n            230,\n            235,\n            240,\n            245,\n            248,\n            251,\n            253,\n            254,\n            255,\n            256\n        ];\n        uint16[16] memory specialEffectsRank1 = [\n            42,\n            84,\n            126,\n            168,\n            181,\n            194,\n            207,\n            216,\n            225,\n            234,\n            240,\n            246,\n            250,\n            252,\n            254,\n            256\n        ];\n        uint16[16] memory specialEffectsRank2 = [\n            40,\n            80,\n            120,\n            160,\n            173,\n            186,\n            199,\n            208,\n            217,\n            226,\n            233,\n            240,\n            244,\n            248,\n            252,\n            256\n        ];\n        uint16[16] memory specialEffectsRank3 = [\n            32,\n            64,\n            95,\n            126,\n            141,\n            156,\n            171,\n            183,\n            195,\n            207,\n            217,\n            227,\n            235,\n            242,\n            249,\n            256\n        ];\n        uint16[16] memory specialEffectsVIP = [\n            25,\n            50,\n            75,\n            100,\n            115,\n            130,\n            145,\n            156,\n            167,\n            178,\n            188,\n            198,\n            214,\n            228,\n            242,\n            256\n        ];\n        uint16[16] memory suitedEffectStatistics;\n        uint8 rank = rankOf[buyer] + bonusRank; //bonus rank for special trees at auction\n        if (rank == 0) {\n            suitedEffectStatistics = specialEffectsRank0;\n        } else if (rank == 1) {\n            suitedEffectStatistics = specialEffectsRank1;\n        } else if (rank == 2) {\n            suitedEffectStatistics = specialEffectsRank2;\n        } else if (rank == 3) {\n            suitedEffectStatistics = specialEffectsRank3;\n        } else {\n            suitedEffectStatistics = specialEffectsVIP;\n        }\n        for (uint32 i = 0; i < suitedEffectStatistics.length; i++) {\n            if (n < suitedEffectStatistics[i]) {\n                return i;\n            }\n        }\n        return 0;\n    }\n}\n",
  "sourcePath": "/home/ali/Desktop/treejer/contract/contracts/tree/TreeAttribute.sol",
  "compiler": {
    "name": "solc",
    "version": "0.8.6+commit.11564f7e.Emscripten.clang"
  },
  "schemaVersion": "3.4.1",
  "updatedAt": "2021-08-05T11:32:49.141Z",
  "networkType": "ethereum",
  "devdoc": {
    "kind": "dev",
    "methods": {},
    "version": 1
  },
  "userdoc": {
    "kind": "user",
    "methods": {},
    "version": 1
  }
}