{
  "contractName": "TreeFactory",
  "abi": [
    {
      "inputs": [],
      "stateMutability": "nonpayable",
      "type": "constructor"
    },
    {
      "anonymous": false,
      "inputs": [
        {
          "indexed": true,
          "internalType": "address",
          "name": "owner",
          "type": "address"
        },
        {
          "indexed": true,
          "internalType": "address",
          "name": "approved",
          "type": "address"
        },
        {
          "indexed": true,
          "internalType": "uint256",
          "name": "tokenId",
          "type": "uint256"
        }
      ],
      "name": "Approval",
      "type": "event"
    },
    {
      "anonymous": false,
      "inputs": [
        {
          "indexed": true,
          "internalType": "address",
          "name": "owner",
          "type": "address"
        },
        {
          "indexed": true,
          "internalType": "address",
          "name": "operator",
          "type": "address"
        },
        {
          "indexed": false,
          "internalType": "bool",
          "name": "approved",
          "type": "bool"
        }
      ],
      "name": "ApprovalForAll",
      "type": "event"
    },
    {
      "anonymous": false,
      "inputs": [
        {
          "indexed": false,
          "internalType": "address",
          "name": "account",
          "type": "address"
        }
      ],
      "name": "Paused",
      "type": "event"
    },
    {
      "anonymous": false,
      "inputs": [
        {
          "indexed": false,
          "internalType": "uint256",
          "name": "price",
          "type": "uint256"
        }
      ],
      "name": "PriceChanged",
      "type": "event"
    },
    {
      "anonymous": false,
      "inputs": [
        {
          "indexed": true,
          "internalType": "bytes32",
          "name": "role",
          "type": "bytes32"
        },
        {
          "indexed": true,
          "internalType": "bytes32",
          "name": "previousAdminRole",
          "type": "bytes32"
        },
        {
          "indexed": true,
          "internalType": "bytes32",
          "name": "newAdminRole",
          "type": "bytes32"
        }
      ],
      "name": "RoleAdminChanged",
      "type": "event"
    },
    {
      "anonymous": false,
      "inputs": [
        {
          "indexed": true,
          "internalType": "bytes32",
          "name": "role",
          "type": "bytes32"
        },
        {
          "indexed": true,
          "internalType": "address",
          "name": "account",
          "type": "address"
        },
        {
          "indexed": true,
          "internalType": "address",
          "name": "sender",
          "type": "address"
        }
      ],
      "name": "RoleGranted",
      "type": "event"
    },
    {
      "anonymous": false,
      "inputs": [
        {
          "indexed": true,
          "internalType": "bytes32",
          "name": "role",
          "type": "bytes32"
        },
        {
          "indexed": true,
          "internalType": "address",
          "name": "account",
          "type": "address"
        },
        {
          "indexed": true,
          "internalType": "address",
          "name": "sender",
          "type": "address"
        }
      ],
      "name": "RoleRevoked",
      "type": "event"
    },
    {
      "anonymous": false,
      "inputs": [
        {
          "indexed": true,
          "internalType": "address",
          "name": "from",
          "type": "address"
        },
        {
          "indexed": true,
          "internalType": "address",
          "name": "to",
          "type": "address"
        },
        {
          "indexed": true,
          "internalType": "uint256",
          "name": "tokenId",
          "type": "uint256"
        }
      ],
      "name": "Transfer",
      "type": "event"
    },
    {
      "anonymous": false,
      "inputs": [
        {
          "indexed": false,
          "internalType": "uint256",
          "name": "id",
          "type": "uint256"
        },
        {
          "indexed": false,
          "internalType": "string",
          "name": "name",
          "type": "string"
        },
        {
          "indexed": false,
          "internalType": "string",
          "name": "latitude",
          "type": "string"
        },
        {
          "indexed": false,
          "internalType": "string",
          "name": "longitude",
          "type": "string"
        }
      ],
      "name": "TreePlanted",
      "type": "event"
    },
    {
      "anonymous": false,
      "inputs": [
        {
          "indexed": false,
          "internalType": "address",
          "name": "account",
          "type": "address"
        }
      ],
      "name": "Unpaused",
      "type": "event"
    },
    {
      "inputs": [],
      "name": "AMBASSADOR_ROLE",
      "outputs": [
        {
          "internalType": "bytes32",
          "name": "",
          "type": "bytes32"
        }
      ],
      "stateMutability": "view",
      "type": "function",
      "constant": true
    },
    {
      "inputs": [],
      "name": "DEFAULT_ADMIN_ROLE",
      "outputs": [
        {
          "internalType": "bytes32",
          "name": "",
          "type": "bytes32"
        }
      ],
      "stateMutability": "view",
      "type": "function",
      "constant": true
    },
    {
      "inputs": [],
      "name": "PLANTER_ROLE",
      "outputs": [
        {
          "internalType": "bytes32",
          "name": "",
          "type": "bytes32"
        }
      ],
      "stateMutability": "view",
      "type": "function",
      "constant": true
    },
    {
      "inputs": [
        {
          "internalType": "address",
          "name": "to",
          "type": "address"
        },
        {
          "internalType": "uint256",
          "name": "tokenId",
          "type": "uint256"
        }
      ],
      "name": "approve",
      "outputs": [],
      "stateMutability": "nonpayable",
      "type": "function"
    },
    {
      "inputs": [
        {
          "internalType": "address",
          "name": "owner",
          "type": "address"
        }
      ],
      "name": "balanceOf",
      "outputs": [
        {
          "internalType": "uint256",
          "name": "",
          "type": "uint256"
        }
      ],
      "stateMutability": "view",
      "type": "function",
      "constant": true
    },
    {
      "inputs": [],
      "name": "baseURI",
      "outputs": [
        {
          "internalType": "string",
          "name": "",
          "type": "string"
        }
      ],
      "stateMutability": "view",
      "type": "function",
      "constant": true
    },
    {
      "inputs": [
        {
          "internalType": "uint256",
          "name": "tokenId",
          "type": "uint256"
        }
      ],
      "name": "getApproved",
      "outputs": [
        {
          "internalType": "address",
          "name": "",
          "type": "address"
        }
      ],
      "stateMutability": "view",
      "type": "function",
      "constant": true
    },
    {
      "inputs": [
        {
          "internalType": "bytes32",
          "name": "role",
          "type": "bytes32"
        }
      ],
      "name": "getRoleAdmin",
      "outputs": [
        {
          "internalType": "bytes32",
          "name": "",
          "type": "bytes32"
        }
      ],
      "stateMutability": "view",
      "type": "function",
      "constant": true
    },
    {
      "inputs": [
        {
          "internalType": "bytes32",
          "name": "role",
          "type": "bytes32"
        },
        {
          "internalType": "uint256",
          "name": "index",
          "type": "uint256"
        }
      ],
      "name": "getRoleMember",
      "outputs": [
        {
          "internalType": "address",
          "name": "",
          "type": "address"
        }
      ],
      "stateMutability": "view",
      "type": "function",
      "constant": true
    },
    {
      "inputs": [
        {
          "internalType": "bytes32",
          "name": "role",
          "type": "bytes32"
        }
      ],
      "name": "getRoleMemberCount",
      "outputs": [
        {
          "internalType": "uint256",
          "name": "",
          "type": "uint256"
        }
      ],
      "stateMutability": "view",
      "type": "function",
      "constant": true
    },
    {
      "inputs": [
        {
          "internalType": "bytes32",
          "name": "role",
          "type": "bytes32"
        },
        {
          "internalType": "address",
          "name": "account",
          "type": "address"
        }
      ],
      "name": "grantRole",
      "outputs": [],
      "stateMutability": "nonpayable",
      "type": "function"
    },
    {
      "inputs": [
        {
          "internalType": "bytes32",
          "name": "role",
          "type": "bytes32"
        },
        {
          "internalType": "address",
          "name": "account",
          "type": "address"
        }
      ],
      "name": "hasRole",
      "outputs": [
        {
          "internalType": "bool",
          "name": "",
          "type": "bool"
        }
      ],
      "stateMutability": "view",
      "type": "function",
      "constant": true
    },
    {
      "inputs": [
        {
          "internalType": "address",
          "name": "owner",
          "type": "address"
        },
        {
          "internalType": "address",
          "name": "operator",
          "type": "address"
        }
      ],
      "name": "isApprovedForAll",
      "outputs": [
        {
          "internalType": "bool",
          "name": "",
          "type": "bool"
        }
      ],
      "stateMutability": "view",
      "type": "function",
      "constant": true
    },
    {
      "inputs": [],
      "name": "name",
      "outputs": [
        {
          "internalType": "string",
          "name": "",
          "type": "string"
        }
      ],
      "stateMutability": "view",
      "type": "function",
      "constant": true
    },
    {
      "inputs": [
        {
          "internalType": "uint256",
          "name": "",
          "type": "uint256"
        }
      ],
      "name": "notFundedTrees",
      "outputs": [
        {
          "internalType": "uint256",
          "name": "",
          "type": "uint256"
        }
      ],
      "stateMutability": "view",
      "type": "function",
      "constant": true
    },
    {
      "inputs": [
        {
          "internalType": "uint256",
          "name": "",
          "type": "uint256"
        }
      ],
      "name": "notPlantedTrees",
      "outputs": [
        {
          "internalType": "uint256",
          "name": "",
          "type": "uint256"
        }
      ],
      "stateMutability": "view",
      "type": "function",
      "constant": true
    },
    {
      "inputs": [],
      "name": "owner",
      "outputs": [
        {
          "internalType": "address",
          "name": "",
          "type": "address"
        }
      ],
      "stateMutability": "view",
      "type": "function",
      "constant": true
    },
    {
      "inputs": [
        {
          "internalType": "uint256",
          "name": "tokenId",
          "type": "uint256"
        }
      ],
      "name": "ownerOf",
      "outputs": [
        {
          "internalType": "address",
          "name": "",
          "type": "address"
        }
      ],
      "stateMutability": "view",
      "type": "function",
      "constant": true
    },
    {
      "inputs": [],
      "name": "pause",
      "outputs": [],
      "stateMutability": "nonpayable",
      "type": "function"
    },
    {
      "inputs": [],
      "name": "paused",
      "outputs": [
        {
          "internalType": "bool",
          "name": "",
          "type": "bool"
        }
      ],
      "stateMutability": "view",
      "type": "function",
      "constant": true
    },
    {
      "inputs": [],
      "name": "price",
      "outputs": [
        {
          "internalType": "uint256",
          "name": "",
          "type": "uint256"
        }
      ],
      "stateMutability": "view",
      "type": "function",
      "constant": true
    },
    {
      "inputs": [
        {
          "internalType": "bytes32",
          "name": "role",
          "type": "bytes32"
        },
        {
          "internalType": "address",
          "name": "account",
          "type": "address"
        }
      ],
      "name": "renounceRole",
      "outputs": [],
      "stateMutability": "nonpayable",
      "type": "function"
    },
    {
      "inputs": [
        {
          "internalType": "bytes32",
          "name": "role",
          "type": "bytes32"
        },
        {
          "internalType": "address",
          "name": "account",
          "type": "address"
        }
      ],
      "name": "revokeRole",
      "outputs": [],
      "stateMutability": "nonpayable",
      "type": "function"
    },
    {
      "inputs": [
        {
          "internalType": "address",
          "name": "from",
          "type": "address"
        },
        {
          "internalType": "address",
          "name": "to",
          "type": "address"
        },
        {
          "internalType": "uint256",
          "name": "tokenId",
          "type": "uint256"
        }
      ],
      "name": "safeTransferFrom",
      "outputs": [],
      "stateMutability": "nonpayable",
      "type": "function"
    },
    {
      "inputs": [
        {
          "internalType": "address",
          "name": "from",
          "type": "address"
        },
        {
          "internalType": "address",
          "name": "to",
          "type": "address"
        },
        {
          "internalType": "uint256",
          "name": "tokenId",
          "type": "uint256"
        },
        {
          "internalType": "bytes",
          "name": "_data",
          "type": "bytes"
        }
      ],
      "name": "safeTransferFrom",
      "outputs": [],
      "stateMutability": "nonpayable",
      "type": "function"
    },
    {
      "inputs": [
        {
          "internalType": "address",
          "name": "operator",
          "type": "address"
        },
        {
          "internalType": "bool",
          "name": "approved",
          "type": "bool"
        }
      ],
      "name": "setApprovalForAll",
      "outputs": [],
      "stateMutability": "nonpayable",
      "type": "function"
    },
    {
      "inputs": [
        {
          "internalType": "bytes4",
          "name": "interfaceId",
          "type": "bytes4"
        }
      ],
      "name": "supportsInterface",
      "outputs": [
        {
          "internalType": "bool",
          "name": "",
          "type": "bool"
        }
      ],
      "stateMutability": "view",
      "type": "function",
      "constant": true
    },
    {
      "inputs": [],
      "name": "symbol",
      "outputs": [
        {
          "internalType": "string",
          "name": "",
          "type": "string"
        }
      ],
      "stateMutability": "view",
      "type": "function",
      "constant": true
    },
    {
      "inputs": [
        {
          "internalType": "uint256",
          "name": "index",
          "type": "uint256"
        }
      ],
      "name": "tokenByIndex",
      "outputs": [
        {
          "internalType": "uint256",
          "name": "",
          "type": "uint256"
        }
      ],
      "stateMutability": "view",
      "type": "function",
      "constant": true
    },
    {
      "inputs": [
        {
          "internalType": "address",
          "name": "owner",
          "type": "address"
        },
        {
          "internalType": "uint256",
          "name": "index",
          "type": "uint256"
        }
      ],
      "name": "tokenOfOwnerByIndex",
      "outputs": [
        {
          "internalType": "uint256",
          "name": "",
          "type": "uint256"
        }
      ],
      "stateMutability": "view",
      "type": "function",
      "constant": true
    },
    {
      "inputs": [
        {
          "internalType": "uint256",
          "name": "tokenId",
          "type": "uint256"
        }
      ],
      "name": "tokenURI",
      "outputs": [
        {
          "internalType": "string",
          "name": "",
          "type": "string"
        }
      ],
      "stateMutability": "view",
      "type": "function",
      "constant": true
    },
    {
      "inputs": [],
      "name": "totalSupply",
      "outputs": [
        {
          "internalType": "uint256",
          "name": "",
          "type": "uint256"
        }
      ],
      "stateMutability": "view",
      "type": "function",
      "constant": true
    },
    {
      "inputs": [
        {
          "internalType": "address",
          "name": "from",
          "type": "address"
        },
        {
          "internalType": "address",
          "name": "to",
          "type": "address"
        },
        {
          "internalType": "uint256",
          "name": "tokenId",
          "type": "uint256"
        }
      ],
      "name": "transferFrom",
      "outputs": [],
      "stateMutability": "nonpayable",
      "type": "function"
    },
    {
      "inputs": [
        {
          "internalType": "uint256",
          "name": "",
          "type": "uint256"
        }
      ],
      "name": "treeToConserver",
      "outputs": [
        {
          "internalType": "address",
          "name": "",
          "type": "address"
        }
      ],
      "stateMutability": "view",
      "type": "function",
      "constant": true
    },
    {
      "inputs": [
        {
          "internalType": "uint256",
          "name": "",
          "type": "uint256"
        }
      ],
      "name": "treeToGB",
      "outputs": [
        {
          "internalType": "uint256",
          "name": "",
          "type": "uint256"
        }
      ],
      "stateMutability": "view",
      "type": "function",
      "constant": true
    },
    {
      "inputs": [
        {
          "internalType": "uint256",
          "name": "",
          "type": "uint256"
        }
      ],
      "name": "treeToPlanter",
      "outputs": [
        {
          "internalType": "address",
          "name": "",
          "type": "address"
        }
      ],
      "stateMutability": "view",
      "type": "function",
      "constant": true
    },
    {
      "inputs": [
        {
          "internalType": "uint256",
          "name": "",
          "type": "uint256"
        }
      ],
      "name": "treeToType",
      "outputs": [
        {
          "internalType": "uint8",
          "name": "",
          "type": "uint8"
        }
      ],
      "stateMutability": "view",
      "type": "function",
      "constant": true
    },
    {
      "inputs": [
        {
          "internalType": "uint256",
          "name": "",
          "type": "uint256"
        }
      ],
      "name": "treeToVerifier",
      "outputs": [
        {
          "internalType": "address",
          "name": "",
          "type": "address"
        }
      ],
      "stateMutability": "view",
      "type": "function",
      "constant": true
    },
    {
      "inputs": [
        {
          "internalType": "uint256",
          "name": "",
          "type": "uint256"
        }
      ],
      "name": "trees",
      "outputs": [
        {
          "internalType": "string",
          "name": "name",
          "type": "string"
        },
        {
          "internalType": "string",
          "name": "latitude",
          "type": "string"
        },
        {
          "internalType": "string",
          "name": "longitude",
          "type": "string"
        },
        {
          "internalType": "uint256",
          "name": "plantedDate",
          "type": "uint256"
        },
        {
          "internalType": "uint256",
          "name": "birthDate",
          "type": "uint256"
        },
        {
          "internalType": "uint256",
          "name": "fundedDate",
          "type": "uint256"
        },
        {
          "internalType": "uint8",
          "name": "height",
          "type": "uint8"
        },
        {
          "internalType": "uint8",
          "name": "diameter",
          "type": "uint8"
        },
        {
          "internalType": "uint256",
          "name": "balance",
          "type": "uint256"
        }
      ],
      "stateMutability": "view",
      "type": "function",
      "constant": true
    },
    {
      "inputs": [],
      "name": "unpause",
      "outputs": [],
      "stateMutability": "nonpayable",
      "type": "function"
    },
    {
      "inputs": [
        {
          "internalType": "uint8",
          "name": "_typeId",
          "type": "uint8"
        },
        {
          "internalType": "uint256",
          "name": "_gbId",
          "type": "uint256"
        },
        {
          "internalType": "string[]",
          "name": "_stringParams",
          "type": "string[]"
        },
        {
          "internalType": "uint8[]",
          "name": "_uintParams",
          "type": "uint8[]"
        }
      ],
      "name": "add",
      "outputs": [],
      "stateMutability": "nonpayable",
      "type": "function"
    },
    {
      "inputs": [
        {
          "internalType": "address",
          "name": "_account",
          "type": "address"
        },
        {
          "internalType": "uint256",
          "name": "_balance",
          "type": "uint256"
        }
      ],
      "name": "simpleFund",
      "outputs": [
        {
          "internalType": "uint256",
          "name": "",
          "type": "uint256"
        }
      ],
      "stateMutability": "nonpayable",
      "type": "function"
    },
    {
      "inputs": [
        {
          "internalType": "address",
          "name": "_account",
          "type": "address"
        },
        {
          "internalType": "uint256",
          "name": "_balance",
          "type": "uint256"
        }
      ],
      "name": "fundPlantedTress",
      "outputs": [
        {
          "internalType": "uint256",
          "name": "",
          "type": "uint256"
        }
      ],
      "stateMutability": "nonpayable",
      "type": "function"
    },
    {
      "inputs": [],
      "name": "notFundedTreesExists",
      "outputs": [
        {
          "internalType": "bool",
          "name": "",
          "type": "bool"
        }
      ],
      "stateMutability": "view",
      "type": "function",
      "constant": true
    },
    {
      "inputs": [],
      "name": "notPlantedTreesExists",
      "outputs": [
        {
          "internalType": "bool",
          "name": "",
          "type": "bool"
        }
      ],
      "stateMutability": "view",
      "type": "function",
      "constant": true
    },
    {
      "inputs": [
        {
          "internalType": "address",
          "name": "_account",
          "type": "address"
        }
      ],
      "name": "ownerTreesCount",
      "outputs": [
        {
          "internalType": "uint256",
          "name": "",
          "type": "uint256"
        }
      ],
      "stateMutability": "view",
      "type": "function",
      "constant": true
    },
    {
      "inputs": [
        {
          "internalType": "uint256",
          "name": "_treeId",
          "type": "uint256"
        }
      ],
      "name": "treeOwner",
      "outputs": [
        {
          "internalType": "address",
          "name": "",
          "type": "address"
        }
      ],
      "stateMutability": "view",
      "type": "function",
      "constant": true
    },
    {
      "inputs": [
        {
          "internalType": "address",
          "name": "_account",
          "type": "address"
        }
      ],
      "name": "getOwnerTrees",
      "outputs": [
        {
          "internalType": "uint256[]",
          "name": "",
          "type": "uint256[]"
        }
      ],
      "stateMutability": "view",
      "type": "function",
      "constant": true
    },
    {
      "inputs": [
        {
          "internalType": "uint256",
          "name": "_treeId",
          "type": "uint256"
        }
      ],
      "name": "getTypeId",
      "outputs": [
        {
          "internalType": "uint256",
          "name": "",
          "type": "uint256"
        }
      ],
      "stateMutability": "view",
      "type": "function",
      "constant": true
    },
    {
      "inputs": [
        {
          "internalType": "uint256",
          "name": "_id",
          "type": "uint256"
        }
      ],
      "name": "getPlantedDate",
      "outputs": [
        {
          "internalType": "uint256",
          "name": "",
          "type": "uint256"
        }
      ],
      "stateMutability": "view",
      "type": "function",
      "constant": true
    },
    {
      "inputs": [
        {
          "internalType": "uint256",
          "name": "_price",
          "type": "uint256"
        }
      ],
      "name": "setPrice",
      "outputs": [],
      "stateMutability": "nonpayable",
      "type": "function"
    },
    {
      "inputs": [],
      "name": "getPrice",
      "outputs": [
        {
          "internalType": "uint256",
          "name": "",
          "type": "uint256"
        }
      ],
      "stateMutability": "view",
      "type": "function",
      "constant": true
    },
    {
      "inputs": [
        {
          "internalType": "uint256",
          "name": "_treeId",
          "type": "uint256"
        }
      ],
      "name": "getTree",
      "outputs": [
        {
          "internalType": "string",
          "name": "name",
          "type": "string"
        },
        {
          "internalType": "string",
          "name": "latitude",
          "type": "string"
        },
        {
          "internalType": "string",
          "name": "longitude",
          "type": "string"
        },
        {
          "internalType": "uint256",
          "name": "plantedDate",
          "type": "uint256"
        },
        {
          "internalType": "uint256",
          "name": "birthDate",
          "type": "uint256"
        },
        {
          "internalType": "uint256",
          "name": "fundedDate",
          "type": "uint256"
        },
        {
          "internalType": "uint8",
          "name": "height",
          "type": "uint8"
        },
        {
          "internalType": "uint8",
          "name": "diameter",
          "type": "uint8"
        },
        {
          "internalType": "uint256",
          "name": "balance",
          "type": "uint256"
        },
        {
          "internalType": "address",
          "name": "owner",
          "type": "address"
        }
      ],
      "stateMutability": "view",
      "type": "function",
      "constant": true
    }
  ],
  "bytecode": "0x608060405233600b60016101000a81548173ffffffffffffffffffffffffffffffffffffffff021916908373ffffffffffffffffffffffffffffffffffffffff1602179055503480156200005257600080fd5b506040518060400160405280600481526020017f54726565000000000000000000000000000000000000000000000000000000008152506040518060400160405280600481526020017f5452454500000000000000000000000000000000000000000000000000000000815250620000d76301ffc9a760e01b620001d760201b60201c565b8160069080519060200190620000ef92919062000446565b5080600790805190602001906200010892919062000446565b50620001216380ac58cd60e01b620001d760201b60201c565b62000139635b5e139f60e01b620001d760201b60201c565b6200015163780e9d6360e01b620001d760201b60201c565b50506000600b60006101000a81548160ff021916908315150217905550620001836000801b33620002af60201b60201c565b620001aa6040516200019590620005d2565b604051809103902033620002af60201b60201c565b620001d1604051620001bc90620005bb565b604051809103902033620002af60201b60201c565b62000627565b63ffffffff60e01b817bffffffffffffffffffffffffffffffffffffffffffffffffffffffff1916141562000243576040517f08c379a00000000000000000000000000000000000000000000000000000000081526004016200023a90620005e9565b60405180910390fd5b6001600080837bffffffffffffffffffffffffffffffffffffffffffffffffffffffff19167bffffffffffffffffffffffffffffffffffffffffffffffffffffffff1916815260200190815260200160002060006101000a81548160ff02191690831515021790555050565b620002c18282620002c560201b60201c565b5050565b620002f481600a60008581526020019081526020016000206000016200036960201b620038dd1790919060201c565b1562000365576200030a620003a160201b60201c565b73ffffffffffffffffffffffffffffffffffffffff168173ffffffffffffffffffffffffffffffffffffffff16837f2f8788117e7eff1d82e926ec794901d17c78024a50270940304540a733656f0d60405160405180910390a45b5050565b600062000399836000018373ffffffffffffffffffffffffffffffffffffffff1660001b620003a960201b60201c565b905092915050565b600033905090565b6000620003bd83836200042360201b60201c565b620004185782600001829080600181540180825580915050600190039060005260206000200160009091909190915055826000018054905083600101600084815260200190815260200160002081905550600190506200041d565b600090505b92915050565b600080836001016000848152602001908152602001600020541415905092915050565b828054600181600116156101000203166002900490600052602060002090601f016020900481019282601f106200048957805160ff1916838001178555620004ba565b82800160010185558215620004ba579182015b82811115620004b95782518255916020019190600101906200049c565b5b509050620004c99190620004cd565b5090565b620004f291905b80821115620004ee576000816000905550600101620004d4565b5090565b90565b600062000504601c836200060b565b91507f4552433136353a20696e76616c696420696e74657266616365206964000000006000830152602082019050919050565b600062000546600f836200061c565b91507f414d4241535341444f525f524f4c4500000000000000000000000000000000006000830152600f82019050919050565b600062000588600c836200061c565b91507f504c414e5445525f524f4c4500000000000000000000000000000000000000006000830152600c82019050919050565b6000620005c88262000537565b9150819050919050565b6000620005df8262000579565b9150819050919050565b600060208201905081810360008301526200060481620004f5565b9050919050565b600082825260208201905092915050565b600081905092915050565b615bf380620006376000396000f3fe608060405234801561001057600080fd5b50600436106103275760003560e01c80637a508022116101b8578063a22cb46511610104578063cfb2b3fe116100a2578063e985e9c51161007c578063e985e9c514610aa5578063f29bbde814610ad5578063f99a5d1114610af3578063fb5b3dfd14610b1157610327565b8063cfb2b3fe14610a20578063d547741f14610a50578063d56e210114610a6c57610327565b8063b88d4fde116100de578063b88d4fde14610974578063b8a5f42c14610990578063c87b56dd146109c0578063ca15c873146109f057610327565b8063a22cb465146108f8578063b52a61be14610914578063b856eee61461094457610327565b806391d14854116101715780639b6b5b661161014b5780639b6b5b661461085c5780639df2e5f71461088c578063a035b1fe146108bc578063a217fddf146108da57610327565b806391d14854146107f057806395d89b411461082057806398d5fdca1461083e57610327565b80637a508022146107145780638456cb591461074c57806386897ad8146107565780638da5cb5b146107865780639010d07c146107a457806391b7f5ed146107d457610327565b80632f745c591161027757806342842e0e116102305780635e8271221161020a5780635e827122146106665780636352211e146106965780636c0360eb146106c657806370a08231146106e457610327565b806342842e0e146105fc5780634f6ccce7146106185780635c975abb1461064857610327565b80632f745c5914610516578063346f009d1461054657806335939c581461057657806336568abe146105a65780633963bafe146105c25780633f4ba83a146105f257610327565b80630d4c055a116102e457806318dfed71116102be57806318dfed711461047e57806323b872dd146104ae578063248a9ca3146104ca5780632f2ff15d146104fa57610327565b80630d4c055a146104125780630daa2e661461044257806318160ddd1461046057610327565b806301ffc9a71461032c57806306fdde031461035c57806307ff37231461037a578063081812fc146103aa578063095ea7b3146103da5780630ab77469146103f6575b600080fd5b61034660048036036103419190810190614559565b610b2f565b6040516103539190615351565b60405180910390f35b610364610b96565b6040516103719190615387565b60405180910390f35b610394600480360361038f91908101906145ab565b610c38565b6040516103a191906152ad565b60405180910390f35b6103c460048036036103bf91908101906145ab565b610c6b565b6040516103d191906152ad565b60405180910390f35b6103f460048036036103ef9190810190614453565b610cf0565b005b610410600480360361040b91908101906145fd565b610e08565b005b61042c600480360361042791908101906145ab565b611799565b60405161043991906152ad565b60405180910390f35b61044a6117ab565b604051610457919061536c565b60405180910390f35b6104686117c2565b604051610475919061581c565b60405180910390f35b610498600480360361049391908101906145ab565b6117d3565b6040516104a5919061581c565b60405180910390f35b6104c860048036036104c3919081019061434d565b6117eb565b005b6104e460048036036104df91908101906144b8565b61184b565b6040516104f1919061536c565b60405180910390f35b610514600480360361050f91908101906144e1565b61186b565b005b610530600480360361052b9190810190614453565b6118df565b60405161053d919061581c565b60405180910390f35b610560600480360361055b91908101906145ab565b61193a565b60405161056d91906152ad565b60405180910390f35b610590600480360361058b91908101906142e8565b61196d565b60405161059d919061532f565b60405180910390f35b6105c060048036036105bb91908101906144e1565b611a3b565b005b6105dc60048036036105d791908101906145ab565b611abe565b6040516105e991906152ad565b60405180910390f35b6105fa611af1565b005b6106166004803603610611919081019061434d565b611b47565b005b610632600480360361062d91908101906145ab565b611b67565b60405161063f919061581c565b60405180910390f35b610650611b8a565b60405161065d9190615351565b60405180910390f35b610680600480360361067b91908101906145ab565b611ba1565b60405161068d919061581c565b60405180910390f35b6106b060048036036106ab91908101906145ab565b611bb9565b6040516106bd91906152ad565b60405180910390f35b6106ce611bf0565b6040516106db9190615387565b60405180910390f35b6106fe60048036036106f991908101906142e8565b611c92565b60405161070b919061581c565b60405180910390f35b61072e600480360361072991908101906145ab565b611d51565b6040516107439998979695949392919061545a565b60405180910390f35b610754611f8e565b005b610770600480360361076b91908101906142e8565b611fe4565b60405161077d919061581c565b60405180910390f35b61078e611ff6565b60405161079b91906152ad565b60405180910390f35b6107be60048036036107b9919081019061451d565b61201c565b6040516107cb91906152ad565b60405180910390f35b6107ee60048036036107e991908101906145ab565b61204e565b005b61080a600480360361080591908101906144e1565b6120db565b6040516108179190615351565b60405180910390f35b61082861210d565b6040516108359190615387565b60405180910390f35b6108466121af565b604051610853919061581c565b60405180910390f35b610876600480360361087191908101906145ab565b6121b9565b604051610883919061581c565b60405180910390f35b6108a660048036036108a19190810190614453565b6121e6565b6040516108b3919061581c565b60405180910390f35b6108c4612350565b6040516108d1919061581c565b60405180910390f35b6108e2612356565b6040516108ef919061536c565b60405180910390f35b610912600480360361090d9190810190614417565b61235d565b005b61092e600480360361092991908101906145ab565b6124de565b60405161093b919061581c565b60405180910390f35b61095e60048036036109599190810190614453565b6124f6565b60405161096b919061581c565b60405180910390f35b61098e6004803603610989919081019061439c565b6126d7565b005b6109aa60048036036109a591908101906145ab565b612739565b6040516109b7919061581c565b60405180910390f35b6109da60048036036109d591908101906145ab565b612761565b6040516109e79190615387565b60405180910390f35b610a0a6004803603610a0591908101906144b8565b6128ec565b604051610a17919061581c565b60405180910390f35b610a3a6004803603610a3591908101906145ab565b612913565b604051610a479190615897565b60405180910390f35b610a6a6004803603610a6591908101906144e1565b612933565b005b610a866004803603610a8191908101906145ab565b6129a7565b604051610a9c9a999897969594939291906153a9565b60405180910390f35b610abf6004803603610aba9190810190614311565b612d22565b604051610acc9190615351565b60405180910390f35b610add612db6565b604051610aea919061536c565b60405180910390f35b610afb612dcd565b604051610b089190615351565b60405180910390f35b610b19612ddb565b604051610b269190615351565b60405180910390f35b6000806000837bffffffffffffffffffffffffffffffffffffffffffffffffffffffff19167bffffffffffffffffffffffffffffffffffffffffffffffffffffffff1916815260200190815260200160002060009054906101000a900460ff169050919050565b606060068054600181600116156101000203166002900480601f016020809104026020016040519081016040528092919081815260200182805460018160011615610100020316600290048015610c2e5780601f10610c0357610100808354040283529160200191610c2e565b820191906000526020600020905b815481529060010190602001808311610c1157829003601f168201915b5050505050905090565b60166020528060005260406000206000915054906101000a900473ffffffffffffffffffffffffffffffffffffffff1681565b6000610c7682612de9565b610cb5576040517f08c379a0000000000000000000000000000000000000000000000000000000008152600401610cac906156bc565b60405180910390fd5b6004600083815260200190815260200160002060009054906101000a900473ffffffffffffffffffffffffffffffffffffffff169050919050565b6000610cfb82611bb9565b90508073ffffffffffffffffffffffffffffffffffffffff168373ffffffffffffffffffffffffffffffffffffffff161415610d6c576040517f08c379a0000000000000000000000000000000000000000000000000000000008152600401610d639061575c565b60405180910390fd5b8073ffffffffffffffffffffffffffffffffffffffff16610d8b612e06565b73ffffffffffffffffffffffffffffffffffffffff161480610dba5750610db981610db4612e06565b612d22565b5b610df9576040517f08c379a0000000000000000000000000000000000000000000000000000000008152600401610df09061563c565b60405180910390fd5b610e038383612e0e565b505050565b610e25604051610e1790615298565b6040518091039020336120db565b610e64576040517f08c379a0000000000000000000000000000000000000000000000000000000008152600401610e5b906157dc565b60405180910390fd5b600b60009054906101000a900460ff1615610eb4576040517f08c379a0000000000000000000000000000000000000000000000000000000008152600401610eab9061561c565b60405180910390fd5b6000809050600115153073ffffffffffffffffffffffffffffffffffffffff1663fb5b3dfd6040518163ffffffff1660e01b815260040160206040518083038186803b158015610f0357600080fd5b505afa158015610f17573d6000803e3d6000fd5b505050506040513d601f19601f82011682018060405250610f3b919081019061448f565b1515141561122b5760116000601354815260200190815260200160002054905060136000815480929190600101919050555084846000818110610f7a57fe5b9050602002810180356001602003833603038112610f9757600080fd5b8083019250508135905060208201915067ffffffffffffffff811115610fbc57600080fd5b600181023603821315610fce57600080fd5b600c8381548110610fdb57fe5b90600052602060002090600802016000019190610ff9929190614033565b508484600181811061100757fe5b905060200281018035600160200383360303811261102457600080fd5b8083019250508135905060208201915067ffffffffffffffff81111561104957600080fd5b60018102360382131561105b57600080fd5b600c838154811061106857fe5b90600052602060002090600802016001019190611086929190614033565b508484600281811061109457fe5b90506020028101803560016020038336030381126110b157600080fd5b8083019250508135905060208201915067ffffffffffffffff8111156110d657600080fd5b6001810236038213156110e857600080fd5b600c83815481106110f557fe5b90600052602060002090600802016002019190611113929190614033565b5042600c828154811061112257fe5b90600052602060002090600802016003018190555042600c828154811061114557fe5b9060005260206000209060080201600401819055508282600081811061116757fe5b905060200201602061117c91908101906145d4565b600c828154811061118957fe5b906000526020600020906008020160060160006101000a81548160ff021916908360ff160217905550828260018181106111bf57fe5b90506020020160206111d491908101906145d4565b600c82815481106111e157fe5b906000526020600020906008020160060160016101000a81548160ff021916908360ff160217905550601160006001601354038152602001908152602001600020600090556115cf565b600c6040518061012001604052808787600081811061124657fe5b905060200281018035600160200383360303811261126357600080fd5b8083019250508135905060208201915067ffffffffffffffff81111561128857600080fd5b60018102360382131561129a57600080fd5b8080601f016020809104026020016040519081016040528093929190818152602001838380828437600081840152601f19601f820116905080830192505050505050508152602001878760018181106112ef57fe5b905060200281018035600160200383360303811261130c57600080fd5b8083019250508135905060208201915067ffffffffffffffff81111561133157600080fd5b60018102360382131561134357600080fd5b8080601f016020809104026020016040519081016040528093929190818152602001838380828437600081840152601f19601f8201169050808301925050505050505081526020018787600281811061139857fe5b90506020028101803560016020038336030381126113b557600080fd5b8083019250508135905060208201915067ffffffffffffffff8111156113da57600080fd5b6001810236038213156113ec57600080fd5b8080601f016020809104026020016040519081016040528093929190818152602001838380828437600081840152601f19601f820116905080830192505050505050508152602001428152602001428152602001600081526020018585600081811061145457fe5b905060200201602061146991908101906145d4565b60ff1681526020018585600181811061147e57fe5b905060200201602061149391908101906145d4565b60ff1681526020016000815250908060018154018082558091505060019003906000526020600020906008020160009091909190915060008201518160000190805190602001906114e59291906140b3565b5060208201518160010190805190602001906115029291906140b3565b50604082015181600201908051906020019061151f9291906140b3565b50606082015181600301556080820151816004015560a0820151816005015560c08201518160060160006101000a81548160ff021916908360ff16021790555060e08201518160060160016101000a81548160ff021916908360ff160217905550610100820151816007015550506001600c8054905003905080600e6000600f54815260200190815260200160002081905550600f600081548092919060010191905055506115ce3382612ec7565b5b601c60008860ff16815260200190815260200160002060008154809291906001019190505550856015600083815260200190815260200160002081905550601d6000878152602001908152602001600020600081548092919060010191905055507f657b7bbf1c4d4c6c5d41c6a778cfa25dc8c1fa0e44b17cc1eb0b5ddba0093887818686600081811061165f57fe5b905060200281018035600160200383360303811261167c57600080fd5b8083019250508135905060208201915067ffffffffffffffff8111156116a157600080fd5b6001810236038213156116b357600080fd5b888860018181106116c057fe5b90506020028101803560016020038336030381126116dd57600080fd5b8083019250508135905060208201915067ffffffffffffffff81111561170257600080fd5b60018102360382131561171457600080fd5b8a8a600281811061172157fe5b905060200281018035600160200383360303811261173e57600080fd5b8083019250508135905060208201915067ffffffffffffffff81111561176357600080fd5b60018102360382131561177557600080fd5b6040516117889796959493929190615837565b60405180910390a150505050505050565b60006117a482611bb9565b9050919050565b6040516117b790615283565b604051809103902081565b60006117ce6002613055565b905090565b600e6020528060005260406000206000915090505481565b6117fc6117f6612e06565b8261306a565b61183b576040517f08c379a00000000000000000000000000000000000000000000000000000000081526004016118329061579c565b60405180910390fd5b611846838383613148565b505050565b6000600a6000838152602001908152602001600020600201549050919050565b611892600a60008481526020019081526020016000206002015461188d612e06565b6120db565b6118d1576040517f08c379a00000000000000000000000000000000000000000000000000000000081526004016118c89061551c565b60405180910390fd5b6118db828261335f565b5050565b600061193282600160008673ffffffffffffffffffffffffffffffffffffffff1673ffffffffffffffffffffffffffffffffffffffff1681526020019081526020016000206133f390919063ffffffff16565b905092915050565b60186020528060005260406000206000915054906101000a900473ffffffffffffffffffffffffffffffffffffffff1681565b6060600061197a83611c92565b905060008114156119be5760006040519080825280602002602001820160405280156119b55781602001602082028038833980820191505090505b50915050611a36565b6060816040519080825280602002602001820160405280156119ef5781602001602082028038833980820191505090505b50905060008090505b82811015611a2f57611a0a85826118df565b828281518110611a1657fe5b60200260200101818152505080806001019150506119f8565b5080925050505b919050565b611a43612e06565b73ffffffffffffffffffffffffffffffffffffffff168173ffffffffffffffffffffffffffffffffffffffff1614611ab0576040517f08c379a0000000000000000000000000000000000000000000000000000000008152600401611aa7906157fc565b60405180910390fd5b611aba828261340d565b5050565b60176020528060005260406000206000915054906101000a900473ffffffffffffffffffffffffffffffffffffffff1681565b611afe6000801b336120db565b611b3d576040517f08c379a0000000000000000000000000000000000000000000000000000000008152600401611b349061577c565b60405180910390fd5b611b456134a1565b565b611b62838383604051806020016040528060008152506126d7565b505050565b600080611b7e83600261354b90919063ffffffff16565b50905080915050919050565b6000600b60009054906101000a900460ff16905090565b60156020528060005260406000206000915090505481565b6000611be982604051806060016040528060298152602001615b9560299139600261357a9092919063ffffffff16565b9050919050565b606060098054600181600116156101000203166002900480601f016020809104026020016040519081016040528092919081815260200182805460018160011615610100020316600290048015611c885780601f10611c5d57610100808354040283529160200191611c88565b820191906000526020600020905b815481529060010190602001808311611c6b57829003601f168201915b5050505050905090565b60008073ffffffffffffffffffffffffffffffffffffffff168273ffffffffffffffffffffffffffffffffffffffff161415611d03576040517f08c379a0000000000000000000000000000000000000000000000000000000008152600401611cfa9061565c565b60405180910390fd5b611d4a600160008473ffffffffffffffffffffffffffffffffffffffff1673ffffffffffffffffffffffffffffffffffffffff168152602001908152602001600020613599565b9050919050565b600c8181548110611d5e57fe5b9060005260206000209060080201600091509050806000018054600181600116156101000203166002900480601f016020809104026020016040519081016040528092919081815260200182805460018160011615610100020316600290048015611e0a5780601f10611ddf57610100808354040283529160200191611e0a565b820191906000526020600020905b815481529060010190602001808311611ded57829003601f168201915b505050505090806001018054600181600116156101000203166002900480601f016020809104026020016040519081016040528092919081815260200182805460018160011615610100020316600290048015611ea85780601f10611e7d57610100808354040283529160200191611ea8565b820191906000526020600020905b815481529060010190602001808311611e8b57829003601f168201915b505050505090806002018054600181600116156101000203166002900480601f016020809104026020016040519081016040528092919081815260200182805460018160011615610100020316600290048015611f465780601f10611f1b57610100808354040283529160200191611f46565b820191906000526020600020905b815481529060010190602001808311611f2957829003601f168201915b5050505050908060030154908060040154908060050154908060060160009054906101000a900460ff16908060060160019054906101000a900460ff16908060070154905089565b611f9b6000801b336120db565b611fda576040517f08c379a0000000000000000000000000000000000000000000000000000000008152600401611fd19061577c565b60405180910390fd5b611fe26135ae565b565b6000611fef82611c92565b9050919050565b600b60019054906101000a900473ffffffffffffffffffffffffffffffffffffffff1681565b600061204682600a600086815260200190815260200160002060000161365990919063ffffffff16565b905092915050565b61205b6000801b336120db565b61209a576040517f08c379a00000000000000000000000000000000000000000000000000000000081526004016120919061577c565b60405180910390fd5b80600d819055507fa6dc15bdb68da224c66db4b3838d9a2b205138e8cff6774e57d0af91e196d622816040516120d0919061581c565b60405180910390a150565b600061210582600a600086815260200190815260200160002060000161367390919063ffffffff16565b905092915050565b606060078054600181600116156101000203166002900480601f0160208091040260200160405190810160405280929190818152602001828054600181600116156101000203166002900480156121a55780601f1061217a576101008083540402835291602001916121a5565b820191906000526020600020905b81548152906001019060200180831161218857829003601f168201915b5050505050905090565b6000600d54905090565b60006014600083815260200190815260200160002060009054906101000a900460ff1660ff169050919050565b60003073ffffffffffffffffffffffffffffffffffffffff1663f99a5d116040518163ffffffff1660e01b815260040160206040518083038186803b15801561222e57600080fd5b505afa158015612242573d6000803e3d6000fd5b505050506040513d601f19601f82011682018060405250612266919081019061448f565b6122a5576040517f08c379a000000000000000000000000000000000000000000000000000000000815260040161229c906156dc565b60405180910390fd5b6000600e6000601054815260200190815260200160002054905060106000815480929190600101919050555082600c82815481106122df57fe5b90600052602060002090600802016007018190555042600c828154811061230257fe5b90600052602060002090600802016005018190555061232a61232382611bb9565b8583613148565b600e60006001601054038152602001908152602001600020600090558091505092915050565b600d5481565b6000801b81565b612365612e06565b73ffffffffffffffffffffffffffffffffffffffff168273ffffffffffffffffffffffffffffffffffffffff1614156123d3576040517f08c379a00000000000000000000000000000000000000000000000000000000081526004016123ca906155bc565b60405180910390fd5b80600560006123e0612e06565b73ffffffffffffffffffffffffffffffffffffffff1673ffffffffffffffffffffffffffffffffffffffff16815260200190815260200160002060008473ffffffffffffffffffffffffffffffffffffffff1673ffffffffffffffffffffffffffffffffffffffff16815260200190815260200160002060006101000a81548160ff0219169083151502179055508173ffffffffffffffffffffffffffffffffffffffff1661248d612e06565b73ffffffffffffffffffffffffffffffffffffffff167f17307eab39ab6107e8899845ad3d59bd9653f200f220920489ca2b5937696c31836040516124d29190615351565b60405180910390a35050565b60116020528060005260406000206000915090505481565b600060606040518060400160405280601781526020017f7479706573206e616d652074726565732e6c656e6774680000000000000000008152509050600c6040518061012001604052808381526020016040518060200160405280600081525081526020016040518060200160405280600081525081526020016000815260200160008152602001428152602001600060ff168152602001600060ff16815260200185815250908060018154018082558091505060019003906000526020600020906008020160009091909190915060008201518160000190805190602001906125e19291906140b3565b5060208201518160010190805190602001906125fe9291906140b3565b50604082015181600201908051906020019061261b9291906140b3565b50606082015181600301556080820151816004015560a0820151816005015560c08201518160060160006101000a81548160ff021916908360ff16021790555060e08201518160060160016101000a81548160ff021916908360ff1602179055506101008201518160070155505060006001600c8054905003905080601160006012548152602001908152602001600020819055506012600081548092919060010191905055506126cc8582612ec7565b809250505092915050565b6126e86126e2612e06565b8361306a565b612727576040517f08c379a000000000000000000000000000000000000000000000000000000000815260040161271e9061579c565b60405180910390fd5b612733848484846136a3565b50505050565b6000600c828154811061274857fe5b9060005260206000209060080201600301549050919050565b606061276c82612de9565b6127ab576040517f08c379a00000000000000000000000000000000000000000000000000000000081526004016127a29061571c565b60405180910390fd5b6060600860008481526020019081526020016000208054600181600116156101000203166002900480601f0160208091040260200160405190810160405280929190818152602001828054600181600116156101000203166002900480156128545780601f1061282957610100808354040283529160200191612854565b820191906000526020600020905b81548152906001019060200180831161283757829003601f168201915b5050505050905060006009805460018160011615610100020316600290049050141561288357809150506128e7565b6000815111156128b8576009816040516020016128a192919061525f565b6040516020818303038152906040529150506128e7565b60096128c3846136ff565b6040516020016128d492919061525f565b6040516020818303038152906040529150505b919050565b600061290c600a600084815260200190815260200160002060000161382f565b9050919050565b60146020528060005260406000206000915054906101000a900460ff1681565b61295a600a600084815260200190815260200160002060020154612955612e06565b6120db565b612999576040517f08c379a0000000000000000000000000000000000000000000000000000000008152600401612990906155fc565b60405180910390fd5b6129a3828261340d565b5050565b606080606060008060008060008060006129c08b612de9565b6129ff576040517f08c379a00000000000000000000000000000000000000000000000000000000081526004016129f69061573c565b60405180910390fd5b600c8b81548110612a0c57fe5b90600052602060002090600802016000018054600181600116156101000203166002900480601f016020809104026020016040519081016040528092919081815260200182805460018160011615610100020316600290048015612ab15780601f10612a8657610100808354040283529160200191612ab1565b820191906000526020600020905b815481529060010190602001808311612a9457829003601f168201915b50505050509950600c8b81548110612ac557fe5b90600052602060002090600802016001018054600181600116156101000203166002900480601f016020809104026020016040519081016040528092919081815260200182805460018160011615610100020316600290048015612b6a5780601f10612b3f57610100808354040283529160200191612b6a565b820191906000526020600020905b815481529060010190602001808311612b4d57829003601f168201915b50505050509850600c8b81548110612b7e57fe5b90600052602060002090600802016002018054600181600116156101000203166002900480601f016020809104026020016040519081016040528092919081815260200182805460018160011615610100020316600290048015612c235780601f10612bf857610100808354040283529160200191612c23565b820191906000526020600020905b815481529060010190602001808311612c0657829003601f168201915b50505050509750600c8b81548110612c3757fe5b9060005260206000209060080201600301549650600c8b81548110612c5857fe5b9060005260206000209060080201600401549550600c8b81548110612c7957fe5b9060005260206000209060080201600501549450600c8b81548110612c9a57fe5b906000526020600020906008020160060160009054906101000a900460ff169350600c8b81548110612cc857fe5b906000526020600020906008020160060160019054906101000a900460ff169250600c8b81548110612cf657fe5b9060005260206000209060080201600701549150612d138b611bb9565b90509193959799509193959799565b6000600560008473ffffffffffffffffffffffffffffffffffffffff1673ffffffffffffffffffffffffffffffffffffffff16815260200190815260200160002060008373ffffffffffffffffffffffffffffffffffffffff1673ffffffffffffffffffffffffffffffffffffffff16815260200190815260200160002060009054906101000a900460ff16905092915050565b604051612dc290615298565b604051809103902081565b6000601054600f5411905090565b600060135460125411905090565b6000612dff82600261384490919063ffffffff16565b9050919050565b600033905090565b816004600083815260200190815260200160002060006101000a81548173ffffffffffffffffffffffffffffffffffffffff021916908373ffffffffffffffffffffffffffffffffffffffff160217905550808273ffffffffffffffffffffffffffffffffffffffff16612e8183611bb9565b73ffffffffffffffffffffffffffffffffffffffff167f8c5be1e5ebec7d5bd14f71427d1e84f3dd0314c0f7b2291e5b200ac8c7c3b92560405160405180910390a45050565b600073ffffffffffffffffffffffffffffffffffffffff168273ffffffffffffffffffffffffffffffffffffffff161415612f37576040517f08c379a0000000000000000000000000000000000000000000000000000000008152600401612f2e9061569c565b60405180910390fd5b612f4081612de9565b15612f80576040517f08c379a0000000000000000000000000000000000000000000000000000000008152600401612f779061557c565b60405180910390fd5b612f8c6000838361385e565b612fdd81600160008573ffffffffffffffffffffffffffffffffffffffff1673ffffffffffffffffffffffffffffffffffffffff16815260200190815260200160002061386390919063ffffffff16565b50612ff48183600261387d9092919063ffffffff16565b50808273ffffffffffffffffffffffffffffffffffffffff16600073ffffffffffffffffffffffffffffffffffffffff167fddf252ad1be2c89b69c2b068fc378daa952ba7f163c4a11628f55a4df523b3ef60405160405180910390a45050565b6000613063826000016138b2565b9050919050565b600061307582612de9565b6130b4576040517f08c379a00000000000000000000000000000000000000000000000000000000081526004016130ab906155dc565b60405180910390fd5b60006130bf83611bb9565b90508073ffffffffffffffffffffffffffffffffffffffff168473ffffffffffffffffffffffffffffffffffffffff16148061312e57508373ffffffffffffffffffffffffffffffffffffffff1661311684610c6b565b73ffffffffffffffffffffffffffffffffffffffff16145b8061313f575061313e8185612d22565b5b91505092915050565b8273ffffffffffffffffffffffffffffffffffffffff1661316882611bb9565b73ffffffffffffffffffffffffffffffffffffffff16146131be576040517f08c379a00000000000000000000000000000000000000000000000000000000081526004016131b5906156fc565b60405180910390fd5b600073ffffffffffffffffffffffffffffffffffffffff168273ffffffffffffffffffffffffffffffffffffffff16141561322e576040517f08c379a00000000000000000000000000000000000000000000000000000000081526004016132259061559c565b60405180910390fd5b61323983838361385e565b613244600082612e0e565b61329581600160008673ffffffffffffffffffffffffffffffffffffffff1673ffffffffffffffffffffffffffffffffffffffff1681526020019081526020016000206138c390919063ffffffff16565b506132e781600160008573ffffffffffffffffffffffffffffffffffffffff1673ffffffffffffffffffffffffffffffffffffffff16815260200190815260200160002061386390919063ffffffff16565b506132fe8183600261387d9092919063ffffffff16565b50808273ffffffffffffffffffffffffffffffffffffffff168473ffffffffffffffffffffffffffffffffffffffff167fddf252ad1be2c89b69c2b068fc378daa952ba7f163c4a11628f55a4df523b3ef60405160405180910390a4505050565b61338781600a60008581526020019081526020016000206000016138dd90919063ffffffff16565b156133ef57613394612e06565b73ffffffffffffffffffffffffffffffffffffffff168173ffffffffffffffffffffffffffffffffffffffff16837f2f8788117e7eff1d82e926ec794901d17c78024a50270940304540a733656f0d60405160405180910390a45b5050565b6000613402836000018361390d565b60001c905092915050565b61343581600a600085815260200190815260200160002060000161397a90919063ffffffff16565b1561349d57613442612e06565b73ffffffffffffffffffffffffffffffffffffffff168173ffffffffffffffffffffffffffffffffffffffff16837ff6391f5c32d9c69d2a47ea670b442974b53935d1edc7fd64eb21e047a839171b60405160405180910390a45b5050565b600b60009054906101000a900460ff166134f0576040517f08c379a00000000000000000000000000000000000000000000000000000000081526004016134e79061553c565b60405180910390fd5b6000600b60006101000a81548160ff0219169083151502179055507f5db9ee0a495bf2e6ff9c91a7834c1ba4fdd244a5e8aa4e537bd38aeae4b073aa613534612e06565b60405161354191906152c8565b60405180910390a1565b60008060008061355e86600001866139aa565b915091508160001c8160001c8090509350935050509250929050565b600061358d846000018460001b84613a2d565b60001c90509392505050565b60006135a782600001613abe565b9050919050565b600b60009054906101000a900460ff16156135fe576040517f08c379a00000000000000000000000000000000000000000000000000000000081526004016135f59061561c565b60405180910390fd5b6001600b60006101000a81548160ff0219169083151502179055507f62e78cea01bee320cd4e420270b5ea74000d11b0c9f74754ebdbfc544b05a258613642612e06565b60405161364f91906152c8565b60405180910390a1565b6000613668836000018361390d565b60001c905092915050565b600061369b836000018373ffffffffffffffffffffffffffffffffffffffff1660001b613acf565b905092915050565b6136ae848484613148565b6136ba84848484613af2565b6136f9576040517f08c379a00000000000000000000000000000000000000000000000000000000081526004016136f09061555c565b60405180910390fd5b50505050565b60606000821415613747576040518060400160405280600181526020017f3000000000000000000000000000000000000000000000000000000000000000815250905061382a565b600082905060005b60008214613771578080600101915050600a828161376957fe5b04915061374f565b6060816040519080825280601f01601f1916602001820160405280156137a65781602001600182028038833980820191505090505b50905060006001830390508593505b6000841461382257600a84816137c757fe5b0660300160f81b828280600190039350815181106137e157fe5b60200101907effffffffffffffffffffffffffffffffffffffffffffffffffffffffffffff1916908160001a905350600a848161381a57fe5b0493506137b5565b819450505050505b919050565b600061383d82600001613abe565b9050919050565b6000613856836000018360001b613c56565b905092915050565b505050565b6000613875836000018360001b613c79565b905092915050565b60006138a9846000018460001b8473ffffffffffffffffffffffffffffffffffffffff1660001b613ce9565b90509392505050565b600081600001805490509050919050565b60006138d5836000018360001b613dc5565b905092915050565b6000613905836000018373ffffffffffffffffffffffffffffffffffffffff1660001b613c79565b905092915050565b600081836000018054905011613958576040517f08c379a000000000000000000000000000000000000000000000000000000000815260040161394f906154fc565b60405180910390fd5b82600001828154811061396757fe5b9060005260206000200154905092915050565b60006139a2836000018373ffffffffffffffffffffffffffffffffffffffff1660001b613dc5565b905092915050565b600080828460000180549050116139f6576040517f08c379a00000000000000000000000000000000000000000000000000000000081526004016139ed9061567c565b60405180910390fd5b6000846000018481548110613a0757fe5b906000526020600020906002020190508060000154816001015492509250509250929050565b60008084600101600085815260200190815260200160002054905060008114158390613a8f576040517f08c379a0000000000000000000000000000000000000000000000000000000008152600401613a869190615387565b60405180910390fd5b50846000016001820381548110613aa257fe5b9060005260206000209060020201600101549150509392505050565b600081600001805490509050919050565b600080836001016000848152602001908152602001600020541415905092915050565b6000613b138473ffffffffffffffffffffffffffffffffffffffff16613ead565b613b205760019050613c4e565b6060613be763150b7a0260e01b613b35612e06565b888787604051602401613b4b94939291906152e3565b604051602081830303815290604052907bffffffffffffffffffffffffffffffffffffffffffffffffffffffff19166020820180517bffffffffffffffffffffffffffffffffffffffffffffffffffffffff8381831617835250505050604051806060016040528060328152602001615b63603291398773ffffffffffffffffffffffffffffffffffffffff16613ef89092919063ffffffff16565b9050600081806020019051613bff9190810190614582565b905063150b7a0260e01b7bffffffffffffffffffffffffffffffffffffffffffffffffffffffff1916817bffffffffffffffffffffffffffffffffffffffffffffffffffffffff191614925050505b949350505050565b600080836001016000848152602001908152602001600020541415905092915050565b6000613c858383613acf565b613cde578260000182908060018154018082558091505060019003906000526020600020016000909190919091505582600001805490508360010160008481526020019081526020016000208190555060019050613ce3565b600090505b92915050565b6000808460010160008581526020019081526020016000205490506000811415613d9057846000016040518060400160405280868152602001858152509080600181540180825580915050600190039060005260206000209060020201600090919091909150600082015181600001556020820151816001015550508460000180549050856001016000868152602001908152602001600020819055506001915050613dbe565b82856000016001830381548110613da357fe5b90600052602060002090600202016001018190555060009150505b9392505050565b60008083600101600084815260200190815260200160002054905060008114613ea15760006001820390506000600186600001805490500390506000866000018281548110613e1057fe5b9060005260206000200154905080876000018481548110613e2d57fe5b9060005260206000200181905550600183018760010160008381526020019081526020016000208190555086600001805480613e6557fe5b60019003818190600052602060002001600090559055866001016000878152602001908152602001600020600090556001945050505050613ea7565b60009150505b92915050565b60008060007fc5d2460186f7233c927e7db2dcc703c0e500b653ca82273b7bfad8045d85a47060001b9050833f9150808214158015613eef57506000801b8214155b92505050919050565b6060613f078484600085613f10565b90509392505050565b6060613f1b85613ead565b613f5a576040517f08c379a0000000000000000000000000000000000000000000000000000000008152600401613f51906157bc565b60405180910390fd5b600060608673ffffffffffffffffffffffffffffffffffffffff168587604051613f849190615248565b60006040518083038185875af1925050503d8060008114613fc1576040519150601f19603f3d011682016040523d82523d6000602084013e613fc6565b606091505b50915091508115613fdb57809250505061402b565b600081511115613fee5780518082602001fd5b836040517f08c379a00000000000000000000000000000000000000000000000000000000081526004016140229190615387565b60405180910390fd5b949350505050565b828054600181600116156101000203166002900490600052602060002090601f016020900481019282601f1061407457803560ff19168380011785556140a2565b828001600101855582156140a2579182015b828111156140a1578235825591602001919060010190614086565b5b5090506140af9190614133565b5090565b828054600181600116156101000203166002900490600052602060002090601f016020900481019282601f106140f457805160ff1916838001178555614122565b82800160010185558215614122579182015b82811115614121578251825591602001919060010190614106565b5b50905061412f9190614133565b5090565b61415591905b80821115614151576000816000905550600101614139565b5090565b90565b60008135905061416781615ad8565b92915050565b60008083601f84011261417f57600080fd5b8235905067ffffffffffffffff81111561419857600080fd5b6020830191508360208202830111156141b057600080fd5b9250929050565b60008083601f8401126141c957600080fd5b8235905067ffffffffffffffff8111156141e257600080fd5b6020830191508360208202830111156141fa57600080fd5b9250929050565b60008135905061421081615aef565b92915050565b60008151905061422581615aef565b92915050565b60008135905061423a81615b06565b92915050565b60008135905061424f81615b1d565b92915050565b60008151905061426481615b1d565b92915050565b600082601f83011261427b57600080fd5b813561428e614289826158df565b6158b2565b915080825260208301602083018583830111156142aa57600080fd5b6142b5838284615a85565b50505092915050565b6000813590506142cd81615b34565b92915050565b6000813590506142e281615b4b565b92915050565b6000602082840312156142fa57600080fd5b600061430884828501614158565b91505092915050565b6000806040838503121561432457600080fd5b600061433285828601614158565b925050602061434385828601614158565b9150509250929050565b60008060006060848603121561436257600080fd5b600061437086828701614158565b935050602061438186828701614158565b9250506040614392868287016142be565b9150509250925092565b600080600080608085870312156143b257600080fd5b60006143c087828801614158565b94505060206143d187828801614158565b93505060406143e2878288016142be565b925050606085013567ffffffffffffffff8111156143ff57600080fd5b61440b8782880161426a565b91505092959194509250565b6000806040838503121561442a57600080fd5b600061443885828601614158565b925050602061444985828601614201565b9150509250929050565b6000806040838503121561446657600080fd5b600061447485828601614158565b9250506020614485858286016142be565b9150509250929050565b6000602082840312156144a157600080fd5b60006144af84828501614216565b91505092915050565b6000602082840312156144ca57600080fd5b60006144d88482850161422b565b91505092915050565b600080604083850312156144f457600080fd5b60006145028582860161422b565b925050602061451385828601614158565b9150509250929050565b6000806040838503121561453057600080fd5b600061453e8582860161422b565b925050602061454f858286016142be565b9150509250929050565b60006020828403121561456b57600080fd5b600061457984828501614240565b91505092915050565b60006020828403121561459457600080fd5b60006145a284828501614255565b91505092915050565b6000602082840312156145bd57600080fd5b60006145cb848285016142be565b91505092915050565b6000602082840312156145e657600080fd5b60006145f4848285016142d3565b91505092915050565b6000806000806000806080878903121561461657600080fd5b600061462489828a016142d3565b965050602061463589828a016142be565b955050604087013567ffffffffffffffff81111561465257600080fd5b61465e89828a0161416d565b9450945050606087013567ffffffffffffffff81111561467d57600080fd5b61468989828a016141b7565b92509250509295509295509295565b60006146a4838361521b565b60208301905092915050565b6146b981615a4f565b82525050565b6146c8816159c4565b82525050565b6146d7816159b2565b82525050565b60006146e882615930565b6146f28185615969565b93506146fd8361590b565b8060005b8381101561472e5781516147158882614698565b97506147208361595c565b925050600181019050614701565b5085935050505092915050565b614744816159d6565b82525050565b614753816159e2565b82525050565b60006147648261593b565b61476e818561597a565b935061477e818560208601615a94565b61478781615ac7565b840191505092915050565b600061479d8261593b565b6147a7818561598b565b93506147b7818560208601615a94565b80840191505092915050565b60006147cf8385615996565b93506147dc838584615a85565b6147e583615ac7565b840190509392505050565b60006147fb82615951565b6148058185615996565b9350614815818560208601615a94565b61481e81615ac7565b840191505092915050565b600061483482615951565b61483e81856159a7565b935061484e818560208601615a94565b80840191505092915050565b600061486582615946565b61486f8185615996565b935061487f818560208601615a94565b61488881615ac7565b840191505092915050565b6000815460018116600081146148b057600181146148d557614919565b607f60028304166148c181876159a7565b955060ff1983168652808601935050614919565b600282046148e381876159a7565b95506148ee8561591b565b60005b82811015614910578154818901526001820191506020810190506148f1565b82880195505050505b505092915050565b600061492e602283615996565b91507f456e756d657261626c655365743a20696e646578206f7574206f6620626f756e60008301527f64730000000000000000000000000000000000000000000000000000000000006020830152604082019050919050565b6000614994602f83615996565b91507f416363657373436f6e74726f6c3a2073656e646572206d75737420626520616e60008301527f2061646d696e20746f206772616e7400000000000000000000000000000000006020830152604082019050919050565b60006149fa601483615996565b91507f5061757361626c653a206e6f74207061757365640000000000000000000000006000830152602082019050919050565b6000614a3a603283615996565b91507f4552433732313a207472616e7366657220746f206e6f6e20455243373231526560008301527f63656976657220696d706c656d656e74657200000000000000000000000000006020830152604082019050919050565b6000614aa0601c83615996565b91507f4552433732313a20746f6b656e20616c7265616479206d696e746564000000006000830152602082019050919050565b6000614ae0600f836159a7565b91507f414d4241535341444f525f524f4c4500000000000000000000000000000000006000830152600f82019050919050565b6000614b20602483615996565b91507f4552433732313a207472616e7366657220746f20746865207a65726f2061646460008301527f72657373000000000000000000000000000000000000000000000000000000006020830152604082019050919050565b6000614b86601983615996565b91507f4552433732313a20617070726f766520746f2063616c6c6572000000000000006000830152602082019050919050565b6000614bc6602c83615996565b91507f4552433732313a206f70657261746f7220717565727920666f72206e6f6e657860008301527f697374656e7420746f6b656e00000000000000000000000000000000000000006020830152604082019050919050565b6000614c2c600c836159a7565b91507f504c414e5445525f524f4c4500000000000000000000000000000000000000006000830152600c82019050919050565b6000614c6c603083615996565b91507f416363657373436f6e74726f6c3a2073656e646572206d75737420626520616e60008301527f2061646d696e20746f207265766f6b65000000000000000000000000000000006020830152604082019050919050565b6000614cd2601083615996565b91507f5061757361626c653a20706175736564000000000000000000000000000000006000830152602082019050919050565b6000614d12603883615996565b91507f4552433732313a20617070726f76652063616c6c6572206973206e6f74206f7760008301527f6e6572206e6f7220617070726f76656420666f7220616c6c00000000000000006020830152604082019050919050565b6000614d78602a83615996565b91507f4552433732313a2062616c616e636520717565727920666f7220746865207a6560008301527f726f2061646472657373000000000000000000000000000000000000000000006020830152604082019050919050565b6000614dde602283615996565b91507f456e756d657261626c654d61703a20696e646578206f7574206f6620626f756e60008301527f64730000000000000000000000000000000000000000000000000000000000006020830152604082019050919050565b6000614e44602083615996565b91507f4552433732313a206d696e7420746f20746865207a65726f20616464726573736000830152602082019050919050565b6000614e84602c83615996565b91507f4552433732313a20617070726f76656420717565727920666f72206e6f6e657860008301527f697374656e7420746f6b656e00000000000000000000000000000000000000006020830152604082019050919050565b6000614eea601983615996565b91507f5468657265206973206e6f742066756e646564207472656573000000000000006000830152602082019050919050565b6000614f2a602983615996565b91507f4552433732313a207472616e73666572206f6620746f6b656e2074686174206960008301527f73206e6f74206f776e00000000000000000000000000000000000000000000006020830152604082019050919050565b6000614f90602f83615996565b91507f4552433732314d657461646174613a2055524920717565727920666f72206e6f60008301527f6e6578697374656e7420746f6b656e00000000000000000000000000000000006020830152604082019050919050565b6000614ff6601983615996565b91507f4552433732313a206e6f6e6578697374656e7420746f6b656e000000000000006000830152602082019050919050565b6000615036602183615996565b91507f4552433732313a20617070726f76616c20746f2063757272656e74206f776e6560008301527f72000000000000000000000000000000000000000000000000000000000000006020830152604082019050919050565b600061509c601383615996565b91507f43616c6c6572206973206e6f742061646d696e000000000000000000000000006000830152602082019050919050565b60006150dc603183615996565b91507f4552433732313a207472616e736665722063616c6c6572206973206e6f74206f60008301527f776e6572206e6f7220617070726f7665640000000000000000000000000000006020830152604082019050919050565b6000615142601d83615996565b91507f416464726573733a2063616c6c20746f206e6f6e2d636f6e74726163740000006000830152602082019050919050565b6000615182601783615996565b91507f43616c6c6572206973206e6f74206120706c616e7465720000000000000000006000830152602082019050919050565b60006151c2602f83615996565b91507f416363657373436f6e74726f6c3a2063616e206f6e6c792072656e6f756e636560008301527f20726f6c657320666f722073656c6600000000000000000000000000000000006020830152604082019050919050565b61522481615a38565b82525050565b61523381615a38565b82525050565b61524281615a42565b82525050565b60006152548284614792565b915081905092915050565b600061526b8285614893565b91506152778284614829565b91508190509392505050565b600061528e82614ad3565b9150819050919050565b60006152a382614c1f565b9150819050919050565b60006020820190506152c260008301846146ce565b92915050565b60006020820190506152dd60008301846146b0565b92915050565b60006080820190506152f860008301876146bf565b61530560208301866146ce565b615312604083018561522a565b81810360608301526153248184614759565b905095945050505050565b6000602082019050818103600083015261534981846146dd565b905092915050565b6000602082019050615366600083018461473b565b92915050565b6000602082019050615381600083018461474a565b92915050565b600060208201905081810360008301526153a181846147f0565b905092915050565b60006101408201905081810360008301526153c4818d6147f0565b905081810360208301526153d8818c6147f0565b905081810360408301526153ec818b6147f0565b90506153fb606083018a61522a565b615408608083018961522a565b61541560a083018861522a565b61542260c0830187615239565b61542f60e0830186615239565b61543d61010083018561522a565b61544b6101208301846146ce565b9b9a5050505050505050505050565b6000610120820190508181036000830152615475818c61485a565b90508181036020830152615489818b61485a565b9050818103604083015261549d818a61485a565b90506154ac606083018961522a565b6154b9608083018861522a565b6154c660a083018761522a565b6154d360c0830186615239565b6154e060e0830185615239565b6154ee61010083018461522a565b9a9950505050505050505050565b6000602082019050818103600083015261551581614921565b9050919050565b6000602082019050818103600083015261553581614987565b9050919050565b60006020820190508181036000830152615555816149ed565b9050919050565b6000602082019050818103600083015261557581614a2d565b9050919050565b6000602082019050818103600083015261559581614a93565b9050919050565b600060208201905081810360008301526155b581614b13565b9050919050565b600060208201905081810360008301526155d581614b79565b9050919050565b600060208201905081810360008301526155f581614bb9565b9050919050565b6000602082019050818103600083015261561581614c5f565b9050919050565b6000602082019050818103600083015261563581614cc5565b9050919050565b6000602082019050818103600083015261565581614d05565b9050919050565b6000602082019050818103600083015261567581614d6b565b9050919050565b6000602082019050818103600083015261569581614dd1565b9050919050565b600060208201905081810360008301526156b581614e37565b9050919050565b600060208201905081810360008301526156d581614e77565b9050919050565b600060208201905081810360008301526156f581614edd565b9050919050565b6000602082019050818103600083015261571581614f1d565b9050919050565b6000602082019050818103600083015261573581614f83565b9050919050565b6000602082019050818103600083015261575581614fe9565b9050919050565b6000602082019050818103600083015261577581615029565b9050919050565b600060208201905081810360008301526157958161508f565b9050919050565b600060208201905081810360008301526157b5816150cf565b9050919050565b600060208201905081810360008301526157d581615135565b9050919050565b600060208201905081810360008301526157f581615175565b9050919050565b60006020820190508181036000830152615815816151b5565b9050919050565b6000602082019050615831600083018461522a565b92915050565b600060808201905061584c600083018a61522a565b818103602083015261585f81888a6147c3565b905081810360408301526158748186886147c3565b905081810360608301526158898184866147c3565b905098975050505050505050565b60006020820190506158ac6000830184615239565b92915050565b6000604051905081810181811067ffffffffffffffff821117156158d557600080fd5b8060405250919050565b600067ffffffffffffffff8211156158f657600080fd5b601f19601f8301169050602081019050919050565b6000819050602082019050919050565b60008190508160005260206000209050919050565b600081519050919050565b600081519050919050565b600081519050919050565b600081519050919050565b6000602082019050919050565b600082825260208201905092915050565b600082825260208201905092915050565b600081905092915050565b600082825260208201905092915050565b600081905092915050565b60006159bd82615a18565b9050919050565b60006159cf82615a18565b9050919050565b60008115159050919050565b6000819050919050565b60007fffffffff0000000000000000000000000000000000000000000000000000000082169050919050565b600073ffffffffffffffffffffffffffffffffffffffff82169050919050565b6000819050919050565b600060ff82169050919050565b6000615a5a82615a61565b9050919050565b6000615a6c82615a73565b9050919050565b6000615a7e82615a18565b9050919050565b82818337600083830152505050565b60005b83811015615ab2578082015181840152602081019050615a97565b83811115615ac1576000848401525b50505050565b6000601f19601f8301169050919050565b615ae1816159b2565b8114615aec57600080fd5b50565b615af8816159d6565b8114615b0357600080fd5b50565b615b0f816159e2565b8114615b1a57600080fd5b50565b615b26816159ec565b8114615b3157600080fd5b50565b615b3d81615a38565b8114615b4857600080fd5b50565b615b5481615a42565b8114615b5f57600080fd5b5056fe4552433732313a207472616e7366657220746f206e6f6e20455243373231526563656976657220696d706c656d656e7465724552433732313a206f776e657220717565727920666f72206e6f6e6578697374656e7420746f6b656ea2646970667358221220a098d26d1f0bc5c904ee363e02b414abade80ad45637819a4f4638c6ad2a4eca64736f6c63430006020033",
  "source": "// SPDX-License-Identifier: GPL-3.0\n\npragma solidity >=0.4.21 <0.7.0;\npragma experimental ABIEncoderV2;\n\nimport \"../../node_modules/@openzeppelin/contracts/token/ERC721/ERC721.sol\";\n\nimport \"../access/AccessRestriction.sol\";\nimport \"./TreeType.sol\";\n\n\ncontract TreeFactory is ERC721, AccessRestriction {\n\n    constructor() ERC721(\"Tree\", \"TREE\") public {\n    }\n\n    event PriceChanged(uint256 price);\n\n    event TreePlanted(\n        uint256 id,\n        string name,\n        string latitude,\n        string longitude\n    );\n\n    struct Tree {\n        string name;\n        string latitude;\n        string longitude;\n        uint256 plantedDate;\n        uint256 birthDate;\n        uint256 fundedDate;\n        uint8 height;\n        uint8 diameter;\n        uint256 balance;\n    }\n\n    Tree[] public trees;\n\n    uint256 public price;\n\n    mapping(uint => uint) public notFundedTrees;\n    uint256 notFundedTreesLastIndex;\n    uint256 notFundedTreesUsedIndex;\n\n    mapping(uint => uint) public notPlantedTrees;\n    uint256 notPlantedTreesLastIndex;\n    uint256 notPlantedTreesUsedIndex;\n\n\n    mapping(uint256 => uint8) public treeToType;\n    mapping(uint256 => uint256) public treeToGB;\n    mapping(uint256 => address) public treeToPlanter;\n    mapping(uint256 => address) public treeToConserver;\n    mapping(uint256 => address) public treeToVerifier;\n    mapping(address => uint256) planterTreeCount;\n    mapping(address => uint256) conserverTreeCount;\n    mapping(address => uint256) verifierTreeCount;\n    mapping(uint256 => uint256) typeTreeCount;\n    mapping(uint256 => uint256) gbTreeCount;\n\n    //@todo permission must check\n    function add(\n        uint8 _typeId,\n        uint256 _gbId,\n        string[] calldata _stringParams,\n        uint8[] calldata _uintParams\n    ) external onlyPlanter whenNotPaused {\n\n        uint256 id = 0;\n\n        if(this.notPlantedTreesExists() == true) {\n            id = notPlantedTrees[notPlantedTreesUsedIndex];\n            notPlantedTreesUsedIndex++;\n\n            trees[id].name = _stringParams[0];\n            trees[id].latitude = _stringParams[1];\n            trees[id].longitude = _stringParams[2];\n            trees[id].plantedDate = now;\n            trees[id].birthDate = now;\n            trees[id].height = _uintParams[0];\n            trees[id].diameter = _uintParams[1];\n\n            delete notPlantedTrees[notPlantedTreesUsedIndex - 1];\n\n        } else {\n\n\n            trees.push(\n                Tree(\n                    _stringParams[0],\n                    _stringParams[1],\n                    _stringParams[2],\n                    now,\n                    now,\n                    0,\n                    _uintParams[0],\n                    _uintParams[1],\n                    0\n                )\n            );\n            id = trees.length - 1;\n\n            notFundedTrees[notFundedTreesLastIndex] = id;\n            notFundedTreesLastIndex++;\n            _mint(msg.sender, id);\n        }\n\n        typeTreeCount[_typeId]++;\n\n        treeToGB[id] = _gbId;\n        gbTreeCount[_gbId]++;\n\n        emit TreePlanted(\n            id,\n            _stringParams[0],\n            _stringParams[1],\n            _stringParams[2]\n        );\n    }\n\n    function simpleFund(\n        address _account,\n        uint256 _balance\n    ) public returns(uint256) {\n        string memory name = string('types name trees.length');\n\n\n        trees.push(\n            Tree(\n                name,\n                '',\n                '',\n                0,\n                0,\n                now,\n                0,\n                0,\n                _balance\n            )\n        );\n        uint256 id = trees.length - 1;\n\n\n        notPlantedTrees[notPlantedTreesLastIndex] = id;\n        notPlantedTreesLastIndex++;\n\n        _mint(_account, id);\n\n        return id;\n\n    }\n\n    function fundPlantedTress(address _account, uint256 _balance) public returns(uint256) {\n\n        require(this.notFundedTreesExists(), \"There is not funded trees\");\n\n        uint treeId = notFundedTrees[notFundedTreesUsedIndex];\n        notFundedTreesUsedIndex++;\n\n        trees[treeId].balance = _balance;\n        trees[treeId].fundedDate = now;\n\n        _transfer(ownerOf(treeId), _account, treeId);\n\n        delete notFundedTrees[notFundedTreesUsedIndex - 1];\n\n        return treeId;\n    }\n\n    function notFundedTreesExists() public view returns(bool) {\n        return notFundedTreesLastIndex > notFundedTreesUsedIndex;\n    }\n\n    function notPlantedTreesExists() public view returns(bool) {\n        return notPlantedTreesLastIndex > notPlantedTreesUsedIndex;\n    }\n\n    function ownerTreesCount(address _account) public view returns (uint256) {\n        return balanceOf(_account);\n    }\n\n    function treeOwner(uint256 _treeId) public view returns (address) {\n        return ownerOf(_treeId);\n    }\n\n    function getOwnerTrees(address _account) public view returns (uint256[] memory) {\n\n        uint256 tokenCount = balanceOf(_account);\n\n        if (tokenCount == 0) {\n            // Return an empty array\n            return new uint256[](0);\n        }\n\n        uint256[] memory result = new uint256[](tokenCount);\n\n        for (uint256 index = 0; index < tokenCount; index++) {\n            result[index] = tokenOfOwnerByIndex(_account, index);\n        }\n\n        return result;\n    }\n\n    function getTypeId(uint256 _treeId) public view returns (uint256) {\n        return treeToType[_treeId];\n    }\n\n    function getPlantedDate(uint256 _id) public view returns (uint256) {\n        return trees[_id].plantedDate;\n    }\n\n    function setPrice(uint256 _price) external onlyAdmin {\n        price = _price;\n        emit PriceChanged(_price);\n    }\n\n    function getPrice() external view returns(uint256) {\n        return price;\n    }\n\n    function getTree(uint256 _treeId) external view returns(\n        string memory name,\n        string memory latitude,\n        string memory longitude,\n        uint256 plantedDate,\n        uint256 birthDate,\n        uint256 fundedDate,\n        uint8 height,\n        uint8 diameter,\n        uint256 balance,\n        address owner\n    ) {\n        require(_exists(_treeId), \"ERC721: nonexistent token\");\n\n        name = trees[_treeId].name;\n        latitude = trees[_treeId].latitude;\n        longitude = trees[_treeId].longitude;\n        plantedDate = trees[_treeId].plantedDate;\n        birthDate = trees[_treeId].birthDate;\n        fundedDate = trees[_treeId].fundedDate;\n        height = trees[_treeId].height;\n        diameter = trees[_treeId].diameter;\n        balance = trees[_treeId].balance;\n        owner = ownerOf(_treeId);\n    }\n}\n",
  "sourcePath": "/home/amir/Projects/treejer/contract/contracts/tree/TreeFactory.sol",
  "compiler": {
    "name": "solc",
    "version": "0.6.2+commit.bacdbe57.Emscripten.clang"
  },
  "schemaVersion": "3.0.22",
  "updatedAt": "2020-07-30T08:29:08.220Z",
  "networkType": "ethereum",
  "devdoc": {
    "methods": {
      "approve(address,uint256)": {
        "details": "See {IERC721-approve}."
      },
      "balanceOf(address)": {
        "details": "See {IERC721-balanceOf}."
      },
      "baseURI()": {
        "details": "Returns the base URI set via {_setBaseURI}. This will be automatically added as a prefix in {tokenURI} to each token's URI, or to the token ID if no specific URI is set for that token ID."
      },
      "getApproved(uint256)": {
        "details": "See {IERC721-getApproved}."
      },
      "getRoleAdmin(bytes32)": {
        "details": "Returns the admin role that controls `role`. See {grantRole} and {revokeRole}.     * To change a role's admin, use {_setRoleAdmin}."
      },
      "getRoleMember(bytes32,uint256)": {
        "details": "Returns one of the accounts that have `role`. `index` must be a value between 0 and {getRoleMemberCount}, non-inclusive.     * Role bearers are not sorted in any particular way, and their ordering may change at any point.     * WARNING: When using {getRoleMember} and {getRoleMemberCount}, make sure you perform all queries on the same block. See the following https://forum.openzeppelin.com/t/iterating-over-elements-on-enumerableset-in-openzeppelin-contracts/2296[forum post] for more information."
      },
      "getRoleMemberCount(bytes32)": {
        "details": "Returns the number of accounts that have `role`. Can be used together with {getRoleMember} to enumerate all bearers of a role."
      },
      "grantRole(bytes32,address)": {
        "details": "Grants `role` to `account`.     * If `account` had not been already granted `role`, emits a {RoleGranted} event.     * Requirements:     * - the caller must have ``role``'s admin role."
      },
      "hasRole(bytes32,address)": {
        "details": "Returns `true` if `account` has been granted `role`."
      },
      "isApprovedForAll(address,address)": {
        "details": "See {IERC721-isApprovedForAll}."
      },
      "name()": {
        "details": "See {IERC721Metadata-name}."
      },
      "ownerOf(uint256)": {
        "details": "See {IERC721-ownerOf}."
      },
      "paused()": {
        "details": "Returns true if the contract is paused, and false otherwise."
      },
      "renounceRole(bytes32,address)": {
        "details": "Revokes `role` from the calling account.     * Roles are often managed via {grantRole} and {revokeRole}: this function's purpose is to provide a mechanism for accounts to lose their privileges if they are compromised (such as when a trusted device is misplaced).     * If the calling account had been granted `role`, emits a {RoleRevoked} event.     * Requirements:     * - the caller must be `account`."
      },
      "revokeRole(bytes32,address)": {
        "details": "Revokes `role` from `account`.     * If `account` had been granted `role`, emits a {RoleRevoked} event.     * Requirements:     * - the caller must have ``role``'s admin role."
      },
      "safeTransferFrom(address,address,uint256)": {
        "details": "See {IERC721-safeTransferFrom}."
      },
      "safeTransferFrom(address,address,uint256,bytes)": {
        "details": "See {IERC721-safeTransferFrom}."
      },
      "setApprovalForAll(address,bool)": {
        "details": "See {IERC721-setApprovalForAll}."
      },
      "supportsInterface(bytes4)": {
        "details": "See {IERC165-supportsInterface}.     * Time complexity O(1), guaranteed to always use less than 30 000 gas."
      },
      "symbol()": {
        "details": "See {IERC721Metadata-symbol}."
      },
      "tokenByIndex(uint256)": {
        "details": "See {IERC721Enumerable-tokenByIndex}."
      },
      "tokenOfOwnerByIndex(address,uint256)": {
        "details": "See {IERC721Enumerable-tokenOfOwnerByIndex}."
      },
      "tokenURI(uint256)": {
        "details": "See {IERC721Metadata-tokenURI}."
      },
      "totalSupply()": {
        "details": "See {IERC721Enumerable-totalSupply}."
      },
      "transferFrom(address,address,uint256)": {
        "details": "See {IERC721-transferFrom}."
      }
    }
  },
  "userdoc": {
    "methods": {}
  }
}