{
  "contractName": "Tree",
  "abi": [
    {
      "anonymous": false,
      "inputs": [
        {
          "indexed": true,
          "internalType": "address",
          "name": "owner",
          "type": "address"
        },
        {
          "indexed": true,
          "internalType": "address",
          "name": "approved",
          "type": "address"
        },
        {
          "indexed": true,
          "internalType": "uint256",
          "name": "tokenId",
          "type": "uint256"
        }
      ],
      "name": "Approval",
      "type": "event"
    },
    {
      "anonymous": false,
      "inputs": [
        {
          "indexed": true,
          "internalType": "address",
          "name": "owner",
          "type": "address"
        },
        {
          "indexed": true,
          "internalType": "address",
          "name": "operator",
          "type": "address"
        },
        {
          "indexed": false,
          "internalType": "bool",
          "name": "approved",
          "type": "bool"
        }
      ],
      "name": "ApprovalForAll",
      "type": "event"
    },
    {
      "anonymous": false,
      "inputs": [
        {
          "indexed": true,
          "internalType": "address",
          "name": "from",
          "type": "address"
        },
        {
          "indexed": true,
          "internalType": "address",
          "name": "to",
          "type": "address"
        },
        {
          "indexed": true,
          "internalType": "uint256",
          "name": "tokenId",
          "type": "uint256"
        }
      ],
      "name": "Transfer",
      "type": "event"
    },
    {
      "inputs": [],
      "name": "accessRestriction",
      "outputs": [
        {
          "internalType": "contract IAccessRestriction",
          "name": "",
          "type": "address"
        }
      ],
      "stateMutability": "view",
      "type": "function",
      "constant": true
    },
    {
      "inputs": [
        {
          "internalType": "address",
          "name": "to",
          "type": "address"
        },
        {
          "internalType": "uint256",
          "name": "tokenId",
          "type": "uint256"
        }
      ],
      "name": "approve",
      "outputs": [],
      "stateMutability": "nonpayable",
      "type": "function"
    },
    {
      "inputs": [
        {
          "internalType": "address",
          "name": "owner",
          "type": "address"
        }
      ],
      "name": "balanceOf",
      "outputs": [
        {
          "internalType": "uint256",
          "name": "",
          "type": "uint256"
        }
      ],
      "stateMutability": "view",
      "type": "function",
      "constant": true
    },
    {
      "inputs": [
        {
          "internalType": "uint256",
          "name": "tokenId",
          "type": "uint256"
        }
      ],
      "name": "getApproved",
      "outputs": [
        {
          "internalType": "address",
          "name": "",
          "type": "address"
        }
      ],
      "stateMutability": "view",
      "type": "function",
      "constant": true
    },
    {
      "inputs": [
        {
          "internalType": "address",
          "name": "owner",
          "type": "address"
        },
        {
          "internalType": "address",
          "name": "operator",
          "type": "address"
        }
      ],
      "name": "isApprovedForAll",
      "outputs": [
        {
          "internalType": "bool",
          "name": "",
          "type": "bool"
        }
      ],
      "stateMutability": "view",
      "type": "function",
      "constant": true
    },
    {
      "inputs": [],
      "name": "isTree",
      "outputs": [
        {
          "internalType": "bool",
          "name": "",
          "type": "bool"
        }
      ],
      "stateMutability": "view",
      "type": "function",
      "constant": true
    },
    {
      "inputs": [],
      "name": "name",
      "outputs": [
        {
          "internalType": "string",
          "name": "",
          "type": "string"
        }
      ],
      "stateMutability": "view",
      "type": "function",
      "constant": true
    },
    {
      "inputs": [
        {
          "internalType": "uint256",
          "name": "tokenId",
          "type": "uint256"
        }
      ],
      "name": "ownerOf",
      "outputs": [
        {
          "internalType": "address",
          "name": "",
          "type": "address"
        }
      ],
      "stateMutability": "view",
      "type": "function",
      "constant": true
    },
    {
      "inputs": [
        {
          "internalType": "address",
          "name": "from",
          "type": "address"
        },
        {
          "internalType": "address",
          "name": "to",
          "type": "address"
        },
        {
          "internalType": "uint256",
          "name": "tokenId",
          "type": "uint256"
        }
      ],
      "name": "safeTransferFrom",
      "outputs": [],
      "stateMutability": "nonpayable",
      "type": "function"
    },
    {
      "inputs": [
        {
          "internalType": "address",
          "name": "from",
          "type": "address"
        },
        {
          "internalType": "address",
          "name": "to",
          "type": "address"
        },
        {
          "internalType": "uint256",
          "name": "tokenId",
          "type": "uint256"
        },
        {
          "internalType": "bytes",
          "name": "_data",
          "type": "bytes"
        }
      ],
      "name": "safeTransferFrom",
      "outputs": [],
      "stateMutability": "nonpayable",
      "type": "function"
    },
    {
      "inputs": [
        {
          "internalType": "address",
          "name": "operator",
          "type": "address"
        },
        {
          "internalType": "bool",
          "name": "approved",
          "type": "bool"
        }
      ],
      "name": "setApprovalForAll",
      "outputs": [],
      "stateMutability": "nonpayable",
      "type": "function"
    },
    {
      "inputs": [
        {
          "internalType": "bytes4",
          "name": "interfaceId",
          "type": "bytes4"
        }
      ],
      "name": "supportsInterface",
      "outputs": [
        {
          "internalType": "bool",
          "name": "",
          "type": "bool"
        }
      ],
      "stateMutability": "view",
      "type": "function",
      "constant": true
    },
    {
      "inputs": [],
      "name": "symbol",
      "outputs": [
        {
          "internalType": "string",
          "name": "",
          "type": "string"
        }
      ],
      "stateMutability": "view",
      "type": "function",
      "constant": true
    },
    {
      "inputs": [
        {
          "internalType": "uint256",
          "name": "tokenId",
          "type": "uint256"
        }
      ],
      "name": "tokenURI",
      "outputs": [
        {
          "internalType": "string",
          "name": "",
          "type": "string"
        }
      ],
      "stateMutability": "view",
      "type": "function",
      "constant": true
    },
    {
      "inputs": [
        {
          "internalType": "address",
          "name": "from",
          "type": "address"
        },
        {
          "internalType": "address",
          "name": "to",
          "type": "address"
        },
        {
          "internalType": "uint256",
          "name": "tokenId",
          "type": "uint256"
        }
      ],
      "name": "transferFrom",
      "outputs": [],
      "stateMutability": "nonpayable",
      "type": "function"
    },
    {
      "inputs": [
        {
          "internalType": "address",
          "name": "_accessRestrictionAddress",
          "type": "address"
        },
        {
          "internalType": "string",
          "name": "baseURI_",
          "type": "string"
        }
      ],
      "name": "initialize",
      "outputs": [],
      "stateMutability": "nonpayable",
      "type": "function"
    },
    {
      "inputs": [
        {
          "internalType": "string",
          "name": "baseURI_",
          "type": "string"
        }
      ],
      "name": "setBaseURI",
      "outputs": [],
      "stateMutability": "nonpayable",
      "type": "function"
    },
    {
      "inputs": [
        {
          "internalType": "address",
          "name": "_to",
          "type": "address"
        },
        {
          "internalType": "uint256",
          "name": "_tokenId",
          "type": "uint256"
        }
      ],
      "name": "safeMint",
      "outputs": [],
      "stateMutability": "nonpayable",
      "type": "function"
    },
    {
      "inputs": [
        {
          "internalType": "uint256",
          "name": "_tokenId",
          "type": "uint256"
        }
      ],
      "name": "exists",
      "outputs": [
        {
          "internalType": "bool",
          "name": "",
          "type": "bool"
        }
      ],
      "stateMutability": "view",
      "type": "function",
      "constant": true
    }
  ],
  "bytecode": "0x608060405234801561001057600080fd5b50611b50806100206000396000f3fe608060405234801561001057600080fd5b50600436106101215760003560e01c80636352211e116100ad578063b88d4fde11610071578063b88d4fde1461025e578063c87b56dd14610271578063d6762c4a14610284578063e985e9c51461029c578063f399e22e146102d857600080fd5b80636352211e146101fc57806370a082311461020f57806395d89b4114610230578063a144819414610238578063a22cb4651461024b57600080fd5b806323b872dd116100f457806323b872dd146101a357806337b9fd77146101b657806342842e0e146101c35780634f558e79146101d657806355f804b3146101e957600080fd5b806301ffc9a71461012657806306fdde031461014e578063081812fc14610163578063095ea7b31461018e575b600080fd5b610139610134366004611794565b6102eb565b60405190151581526020015b60405180910390f35b61015661033d565b60405161014591906118c1565b610176610171366004611810565b6103cf565b6040516001600160a01b039091168152602001610145565b6101a161019c36600461174d565b610469565b005b6101a16101b13660046115ab565b61057f565b6097546101399060ff1681565b6101a16101d13660046115ab565b6105b0565b6101396101e4366004611810565b6105cb565b6101a16101f73660046117ce565b6105ea565b61017661020a366004611810565b610658565b61022261021d36600461155d565b6106cf565b604051908152602001610145565b610156610756565b6101a161024636600461174d565b610765565b6101a16102593660046116c3565b61083e565b6101a161026c3660046115e7565b610903565b61015661027f366004611810565b61093b565b6097546101769061010090046001600160a01b031681565b6101396102aa366004611578565b6001600160a01b039182166000908152606a6020908152604080832093909416825291909152205460ff1690565b6101a16102e63660046116fa565b610a16565b60006001600160e01b031982166380ac58cd60e01b148061031c57506001600160e01b03198216635b5e139f60e01b145b8061033757506301ffc9a760e01b6001600160e01b03198316145b92915050565b60606065805461034c90611a34565b80601f016020809104026020016040519081016040528092919081815260200182805461037890611a34565b80156103c55780601f1061039a576101008083540402835291602001916103c5565b820191906000526020600020905b8154815290600101906020018083116103a857829003601f168201915b5050505050905090565b6000818152606760205260408120546001600160a01b031661044d5760405162461bcd60e51b815260206004820152602c60248201527f4552433732313a20617070726f76656420717565727920666f72206e6f6e657860448201526b34b9ba32b73a103a37b5b2b760a11b60648201526084015b60405180910390fd5b506000908152606960205260409020546001600160a01b031690565b600061047482610658565b9050806001600160a01b0316836001600160a01b031614156104e25760405162461bcd60e51b815260206004820152602160248201527f4552433732313a20617070726f76616c20746f2063757272656e74206f776e656044820152603960f91b6064820152608401610444565b336001600160a01b03821614806104fe57506104fe81336102aa565b6105705760405162461bcd60e51b815260206004820152603860248201527f4552433732313a20617070726f76652063616c6c6572206973206e6f74206f7760448201527f6e6572206e6f7220617070726f76656420666f7220616c6c00000000000000006064820152608401610444565b61057a8383610b82565b505050565b6105893382610bf0565b6105a55760405162461bcd60e51b815260040161044490611974565b61057a838383610ce7565b61057a83838360405180602001604052806000815250610903565b6000818152606760205260408120546001600160a01b03161515610337565b609754604051632104fb0560e21b81523360048201526101009091046001600160a01b031690638413ec149060240160006040518083038186803b15801561063157600080fd5b505afa158015610645573d6000803e3d6000fd5b5061057a925060989150849050836113eb565b6000818152606760205260408120546001600160a01b0316806103375760405162461bcd60e51b815260206004820152602960248201527f4552433732313a206f776e657220717565727920666f72206e6f6e657869737460448201526832b73a103a37b5b2b760b91b6064820152608401610444565b60006001600160a01b03821661073a5760405162461bcd60e51b815260206004820152602a60248201527f4552433732313a2062616c616e636520717565727920666f7220746865207a65604482015269726f206164647265737360b01b6064820152608401610444565b506001600160a01b031660009081526068602052604090205490565b60606066805461034c90611a34565b609754604051636a3a3d2960e11b81523360048201526101009091046001600160a01b03169063d4747a529060240160206040518083038186803b1580156107ac57600080fd5b505afa1580156107c0573d6000803e3d6000fd5b505050506040513d601f19601f820116820180604052508101906107e49190611777565b6108305760405162461bcd60e51b815260206004820152601a60248201527f43616c6c6572206d7573742062652054726565466163746f72790000000000006044820152606401610444565b61083a8282610e87565b5050565b6001600160a01b0382163314156108975760405162461bcd60e51b815260206004820152601960248201527f4552433732313a20617070726f766520746f2063616c6c6572000000000000006044820152606401610444565b336000818152606a602090815260408083206001600160a01b03871680855290835292819020805460ff191686151590811790915590519081529192917f17307eab39ab6107e8899845ad3d59bd9653f200f220920489ca2b5937696c31910160405180910390a35050565b61090d3383610bf0565b6109295760405162461bcd60e51b815260040161044490611974565b61093584848484610ea1565b50505050565b6000818152606760205260409020546060906001600160a01b03166109ba5760405162461bcd60e51b815260206004820152602f60248201527f4552433732314d657461646174613a2055524920717565727920666f72206e6f60448201526e3732bc34b9ba32b73a103a37b5b2b760891b6064820152608401610444565b60006109c4610ed4565b905060008151116109e45760405180602001604052806000815250610a0f565b806109ee84610ee3565b6040516020016109ff929190611855565b6040516020818303038152906040525b9392505050565b600054610100900460ff1680610a2f575060005460ff16155b610a4b5760405162461bcd60e51b815260040161044490611926565b600054610100900460ff16158015610a6d576000805461ffff19166101011790555b6097805460ff191660011790556040805180820182526004808252635472656560e01b6020808401919091528351808501909452908352635452454560e01b90830152610ab991610fe1565b610ac5609884846113eb565b506000849050806001600160a01b031663ba84fd696040518163ffffffff1660e01b815260040160206040518083038186803b158015610b0457600080fd5b505afa158015610b18573d6000803e3d6000fd5b505050506040513d601f19601f82011682018060405250810190610b3c9190611777565b610b4557600080fd5b609780546001600160a01b0390921661010002610100600160a81b03199092169190911790558015610935576000805461ff001916905550505050565b600081815260696020526040902080546001600160a01b0319166001600160a01b0384169081179091558190610bb782610658565b6001600160a01b03167f8c5be1e5ebec7d5bd14f71427d1e84f3dd0314c0f7b2291e5b200ac8c7c3b92560405160405180910390a45050565b6000818152606760205260408120546001600160a01b0316610c695760405162461bcd60e51b815260206004820152602c60248201527f4552433732313a206f70657261746f7220717565727920666f72206e6f6e657860448201526b34b9ba32b73a103a37b5b2b760a11b6064820152608401610444565b6000610c7483610658565b9050806001600160a01b0316846001600160a01b03161480610caf5750836001600160a01b0316610ca4846103cf565b6001600160a01b0316145b80610cdf57506001600160a01b038082166000908152606a602090815260408083209388168352929052205460ff165b949350505050565b826001600160a01b0316610cfa82610658565b6001600160a01b031614610d625760405162461bcd60e51b815260206004820152602960248201527f4552433732313a207472616e73666572206f6620746f6b656e2074686174206960448201526839903737ba1037bbb760b91b6064820152608401610444565b6001600160a01b038216610dc45760405162461bcd60e51b8152602060048201526024808201527f4552433732313a207472616e7366657220746f20746865207a65726f206164646044820152637265737360e01b6064820152608401610444565b610dcf600082610b82565b6001600160a01b0383166000908152606860205260408120805460019290610df89084906119f1565b90915550506001600160a01b0382166000908152606860205260408120805460019290610e269084906119c5565b909155505060008181526067602052604080822080546001600160a01b0319166001600160a01b0386811691821790925591518493918716917fddf252ad1be2c89b69c2b068fc378daa952ba7f163c4a11628f55a4df523b3ef91a4505050565b61083a828260405180602001604052806000815250611068565b610eac848484610ce7565b610eb88484848461109b565b6109355760405162461bcd60e51b8152600401610444906118d4565b60606098805461034c90611a34565b606081610f075750506040805180820190915260018152600360fc1b602082015290565b8160005b8115610f315780610f1b81611a6f565b9150610f2a9050600a836119dd565b9150610f0b565b60008167ffffffffffffffff811115610f4c57610f4c611ae0565b6040519080825280601f01601f191660200182016040528015610f76576020820181803683370190505b5090505b8415610cdf57610f8b6001836119f1565b9150610f98600a86611a8a565b610fa39060306119c5565b60f81b818381518110610fb857610fb8611aca565b60200101906001600160f81b031916908160001a905350610fda600a866119dd565b9450610f7a565b600054610100900460ff1680610ffa575060005460ff16155b6110165760405162461bcd60e51b815260040161044490611926565b600054610100900460ff16158015611038576000805461ffff19166101011790555b6110406111a8565b6110486111a8565b6110528383611214565b801561057a576000805461ff0019169055505050565b61107283836112a9565b61107f600084848461109b565b61057a5760405162461bcd60e51b8152600401610444906118d4565b60006001600160a01b0384163b1561119d57604051630a85bd0160e11b81526001600160a01b0385169063150b7a02906110df903390899088908890600401611884565b602060405180830381600087803b1580156110f957600080fd5b505af1925050508015611129575060408051601f3d908101601f19168201909252611126918101906117b1565b60015b611183573d808015611157576040519150601f19603f3d011682016040523d82523d6000602084013e61115c565b606091505b50805161117b5760405162461bcd60e51b8152600401610444906118d4565b805181602001fd5b6001600160e01b031916630a85bd0160e11b149050610cdf565b506001949350505050565b600054610100900460ff16806111c1575060005460ff16155b6111dd5760405162461bcd60e51b815260040161044490611926565b600054610100900460ff161580156111ff576000805461ffff19166101011790555b8015611211576000805461ff00191690555b50565b600054610100900460ff168061122d575060005460ff16155b6112495760405162461bcd60e51b815260040161044490611926565b600054610100900460ff1615801561126b576000805461ffff19166101011790555b825161127e90606590602086019061146f565b50815161129290606690602085019061146f565b50801561057a576000805461ff0019169055505050565b6001600160a01b0382166112ff5760405162461bcd60e51b815260206004820181905260248201527f4552433732313a206d696e7420746f20746865207a65726f20616464726573736044820152606401610444565b6000818152606760205260409020546001600160a01b0316156113645760405162461bcd60e51b815260206004820152601c60248201527f4552433732313a20746f6b656e20616c7265616479206d696e746564000000006044820152606401610444565b6001600160a01b038216600090815260686020526040812080546001929061138d9084906119c5565b909155505060008181526067602052604080822080546001600160a01b0319166001600160a01b03861690811790915590518392907fddf252ad1be2c89b69c2b068fc378daa952ba7f163c4a11628f55a4df523b3ef908290a45050565b8280546113f790611a34565b90600052602060002090601f016020900481019282611419576000855561145f565b82601f106114325782800160ff1982351617855561145f565b8280016001018555821561145f579182015b8281111561145f578235825591602001919060010190611444565b5061146b9291506114e3565b5090565b82805461147b90611a34565b90600052602060002090601f01602090048101928261149d576000855561145f565b82601f106114b657805160ff191683800117855561145f565b8280016001018555821561145f579182015b8281111561145f5782518255916020019190600101906114c8565b5b8082111561146b57600081556001016114e4565b80356001600160a01b038116811461150f57600080fd5b919050565b60008083601f84011261152657600080fd5b50813567ffffffffffffffff81111561153e57600080fd5b60208301915083602082850101111561155657600080fd5b9250929050565b60006020828403121561156f57600080fd5b610a0f826114f8565b6000806040838503121561158b57600080fd5b611594836114f8565b91506115a2602084016114f8565b90509250929050565b6000806000606084860312156115c057600080fd5b6115c9846114f8565b92506115d7602085016114f8565b9150604084013590509250925092565b600080600080608085870312156115fd57600080fd5b611606856114f8565b9350611614602086016114f8565b925060408501359150606085013567ffffffffffffffff8082111561163857600080fd5b818701915087601f83011261164c57600080fd5b81358181111561165e5761165e611ae0565b604051601f8201601f19908116603f0116810190838211818310171561168657611686611ae0565b816040528281528a602084870101111561169f57600080fd5b82602086016020830137600060208483010152809550505050505092959194509250565b600080604083850312156116d657600080fd5b6116df836114f8565b915060208301356116ef81611af6565b809150509250929050565b60008060006040848603121561170f57600080fd5b611718846114f8565b9250602084013567ffffffffffffffff81111561173457600080fd5b61174086828701611514565b9497909650939450505050565b6000806040838503121561176057600080fd5b611769836114f8565b946020939093013593505050565b60006020828403121561178957600080fd5b8151610a0f81611af6565b6000602082840312156117a657600080fd5b8135610a0f81611b04565b6000602082840312156117c357600080fd5b8151610a0f81611b04565b600080602083850312156117e157600080fd5b823567ffffffffffffffff8111156117f857600080fd5b61180485828601611514565b90969095509350505050565b60006020828403121561182257600080fd5b5035919050565b60008151808452611841816020860160208601611a08565b601f01601f19169290920160200192915050565b60008351611867818460208801611a08565b83519083019061187b818360208801611a08565b01949350505050565b6001600160a01b03858116825284166020820152604081018390526080606082018190526000906118b790830184611829565b9695505050505050565b602081526000610a0f6020830184611829565b60208082526032908201527f4552433732313a207472616e7366657220746f206e6f6e20455243373231526560408201527131b2b4bb32b91034b6b83632b6b2b73a32b960711b606082015260800190565b6020808252602e908201527f496e697469616c697a61626c653a20636f6e747261637420697320616c72656160408201526d191e481a5b9a5d1a585b1a5e995960921b606082015260800190565b60208082526031908201527f4552433732313a207472616e736665722063616c6c6572206973206e6f74206f6040820152701ddb995c881b9bdc88185c1c1c9bdd9959607a1b606082015260800190565b600082198211156119d8576119d8611a9e565b500190565b6000826119ec576119ec611ab4565b500490565b600082821015611a0357611a03611a9e565b500390565b60005b83811015611a23578181015183820152602001611a0b565b838111156109355750506000910152565b600181811c90821680611a4857607f821691505b60208210811415611a6957634e487b7160e01b600052602260045260246000fd5b50919050565b6000600019821415611a8357611a83611a9e565b5060010190565b600082611a9957611a99611ab4565b500690565b634e487b7160e01b600052601160045260246000fd5b634e487b7160e01b600052601260045260246000fd5b634e487b7160e01b600052603260045260246000fd5b634e487b7160e01b600052604160045260246000fd5b801515811461121157600080fd5b6001600160e01b03198116811461121157600080fdfea26469706673582212206da2f7598a6a89eb28d10e83fd04e6a1e9198d05f59a3f74d8e373de656fe33e64736f6c63430008060033",
  "immutableReferences": {},
  "source": "// SPDX-License-Identifier: GPL-3.0\n\npragma solidity ^0.8.6;\n\nimport \"@openzeppelin/contracts-upgradeable/token/ERC721/ERC721Upgradeable.sol\";\nimport \"../access/IAccessRestriction.sol\";\n\ncontract Tree is ERC721Upgradeable {\n    bool public isTree;\n    IAccessRestriction public accessRestriction;\n    string private baseURI;\n\n    modifier onlyAdmin() {\n        accessRestriction.ifAdmin(msg.sender);\n        _;\n    }\n\n    function initialize(\n        address _accessRestrictionAddress,\n        string calldata baseURI_\n    ) public initializer {\n        isTree = true;\n\n        __ERC721_init(\"Tree\", \"TREE\");\n\n        baseURI = baseURI_;\n\n        IAccessRestriction candidateContract = IAccessRestriction(\n            _accessRestrictionAddress\n        );\n        require(candidateContract.isAccessRestriction());\n        accessRestriction = candidateContract;\n    }\n\n    function setBaseURI(string calldata baseURI_) external onlyAdmin {\n        baseURI = baseURI_;\n    }\n\n    function safeMint(address _to, uint256 _tokenId) external {\n        require(\n            accessRestriction.isTreeFactory(msg.sender),\n            \"Caller must be TreeFactory\"\n        );\n        _safeMint(_to, _tokenId);\n    }\n\n    function exists(uint256 _tokenId) external view returns (bool) {\n        return _exists(_tokenId);\n    }\n\n    function _baseURI() internal view virtual override returns (string memory) {\n        return baseURI;\n    }\n}\n",
  "sourcePath": "/home/ali/Desktop/treejer/contract/contracts/tree/Tree.sol",
  "compiler": {
    "name": "solc",
    "version": "0.8.6+commit.11564f7e.Emscripten.clang"
  },
  "schemaVersion": "3.4.1",
  "updatedAt": "2021-08-05T11:28:34.336Z",
  "networkType": "ethereum",
  "devdoc": {
    "kind": "dev",
    "methods": {
      "approve(address,uint256)": {
        "details": "See {IERC721-approve}."
      },
      "balanceOf(address)": {
        "details": "See {IERC721-balanceOf}."
      },
      "getApproved(uint256)": {
        "details": "See {IERC721-getApproved}."
      },
      "isApprovedForAll(address,address)": {
        "details": "See {IERC721-isApprovedForAll}."
      },
      "name()": {
        "details": "See {IERC721Metadata-name}."
      },
      "ownerOf(uint256)": {
        "details": "See {IERC721-ownerOf}."
      },
      "safeTransferFrom(address,address,uint256)": {
        "details": "See {IERC721-safeTransferFrom}."
      },
      "safeTransferFrom(address,address,uint256,bytes)": {
        "details": "See {IERC721-safeTransferFrom}."
      },
      "setApprovalForAll(address,bool)": {
        "details": "See {IERC721-setApprovalForAll}."
      },
      "supportsInterface(bytes4)": {
        "details": "See {IERC165-supportsInterface}."
      },
      "symbol()": {
        "details": "See {IERC721Metadata-symbol}."
      },
      "tokenURI(uint256)": {
        "details": "See {IERC721Metadata-tokenURI}."
      },
      "transferFrom(address,address,uint256)": {
        "details": "See {IERC721-transferFrom}."
      }
    },
    "version": 1
  },
  "userdoc": {
    "kind": "user",
    "methods": {},
    "version": 1
  }
}