{
  "contractName": "TreeFactory",
  "abi": [
    {
      "anonymous": false,
      "inputs": [
        {
          "indexed": false,
          "internalType": "uint256",
          "name": "treeId",
          "type": "uint256"
        }
      ],
      "name": "PlantRejected",
      "type": "event"
    },
    {
      "anonymous": false,
      "inputs": [
        {
          "indexed": false,
          "internalType": "uint256",
          "name": "treeId",
          "type": "uint256"
        }
      ],
      "name": "PlantVerified",
      "type": "event"
    },
    {
      "anonymous": false,
      "inputs": [
        {
          "indexed": false,
          "internalType": "uint256",
          "name": "treeId",
          "type": "uint256"
        }
      ],
      "name": "RegularPlantRejected",
      "type": "event"
    },
    {
      "anonymous": false,
      "inputs": [
        {
          "indexed": false,
          "internalType": "uint256",
          "name": "treeId",
          "type": "uint256"
        }
      ],
      "name": "RegularPlantVerified",
      "type": "event"
    },
    {
      "anonymous": false,
      "inputs": [
        {
          "indexed": false,
          "internalType": "uint256",
          "name": "treeId",
          "type": "uint256"
        }
      ],
      "name": "RegularTreePlanted",
      "type": "event"
    },
    {
      "anonymous": false,
      "inputs": [
        {
          "indexed": false,
          "internalType": "uint256",
          "name": "treeId",
          "type": "uint256"
        }
      ],
      "name": "TreeAdded",
      "type": "event"
    },
    {
      "anonymous": false,
      "inputs": [
        {
          "indexed": false,
          "internalType": "uint256",
          "name": "treeId",
          "type": "uint256"
        }
      ],
      "name": "TreeAssigned",
      "type": "event"
    },
    {
      "anonymous": false,
      "inputs": [
        {
          "indexed": false,
          "internalType": "uint256",
          "name": "treeId",
          "type": "uint256"
        }
      ],
      "name": "TreePlanted",
      "type": "event"
    },
    {
      "anonymous": false,
      "inputs": [
        {
          "indexed": false,
          "internalType": "uint256",
          "name": "treeId",
          "type": "uint256"
        }
      ],
      "name": "TreeUpdated",
      "type": "event"
    },
    {
      "anonymous": false,
      "inputs": [
        {
          "indexed": false,
          "internalType": "uint256",
          "name": "treeId",
          "type": "uint256"
        }
      ],
      "name": "UpdateRejected",
      "type": "event"
    },
    {
      "anonymous": false,
      "inputs": [
        {
          "indexed": false,
          "internalType": "uint256",
          "name": "treeId",
          "type": "uint256"
        }
      ],
      "name": "UpdateVerified",
      "type": "event"
    },
    {
      "inputs": [],
      "name": "accessRestriction",
      "outputs": [
        {
          "internalType": "contract IAccessRestriction",
          "name": "",
          "type": "address"
        }
      ],
      "stateMutability": "view",
      "type": "function",
      "constant": true
    },
    {
      "inputs": [],
      "name": "isTreeFactory",
      "outputs": [
        {
          "internalType": "bool",
          "name": "",
          "type": "bool"
        }
      ],
      "stateMutability": "view",
      "type": "function",
      "constant": true
    },
    {
      "inputs": [
        {
          "internalType": "address",
          "name": "forwarder",
          "type": "address"
        }
      ],
      "name": "isTrustedForwarder",
      "outputs": [
        {
          "internalType": "bool",
          "name": "",
          "type": "bool"
        }
      ],
      "stateMutability": "view",
      "type": "function",
      "constant": true
    },
    {
      "inputs": [],
      "name": "lastRegularPlantedTree",
      "outputs": [
        {
          "internalType": "uint256",
          "name": "",
          "type": "uint256"
        }
      ],
      "stateMutability": "view",
      "type": "function",
      "constant": true
    },
    {
      "inputs": [],
      "name": "planter",
      "outputs": [
        {
          "internalType": "contract IPlanter",
          "name": "",
          "type": "address"
        }
      ],
      "stateMutability": "view",
      "type": "function",
      "constant": true
    },
    {
      "inputs": [],
      "name": "planterFund",
      "outputs": [
        {
          "internalType": "contract IPlanterFund",
          "name": "",
          "type": "address"
        }
      ],
      "stateMutability": "view",
      "type": "function",
      "constant": true
    },
    {
      "inputs": [
        {
          "internalType": "uint256",
          "name": "",
          "type": "uint256"
        }
      ],
      "name": "regularTrees",
      "outputs": [
        {
          "internalType": "uint64",
          "name": "birthDate",
          "type": "uint64"
        },
        {
          "internalType": "uint64",
          "name": "plantDate",
          "type": "uint64"
        },
        {
          "internalType": "uint64",
          "name": "countryCode",
          "type": "uint64"
        },
        {
          "internalType": "uint64",
          "name": "otherData",
          "type": "uint64"
        },
        {
          "internalType": "address",
          "name": "planterAddress",
          "type": "address"
        },
        {
          "internalType": "string",
          "name": "treeSpecs",
          "type": "string"
        }
      ],
      "stateMutability": "view",
      "type": "function",
      "constant": true
    },
    {
      "inputs": [
        {
          "internalType": "uint256",
          "name": "",
          "type": "uint256"
        }
      ],
      "name": "treeData",
      "outputs": [
        {
          "internalType": "address",
          "name": "planterId",
          "type": "address"
        },
        {
          "internalType": "uint256",
          "name": "treeType",
          "type": "uint256"
        },
        {
          "internalType": "uint16",
          "name": "mintStatus",
          "type": "uint16"
        },
        {
          "internalType": "uint16",
          "name": "countryCode",
          "type": "uint16"
        },
        {
          "internalType": "uint32",
          "name": "provideStatus",
          "type": "uint32"
        },
        {
          "internalType": "uint64",
          "name": "treeStatus",
          "type": "uint64"
        },
        {
          "internalType": "uint64",
          "name": "plantDate",
          "type": "uint64"
        },
        {
          "internalType": "uint64",
          "name": "birthDate",
          "type": "uint64"
        },
        {
          "internalType": "string",
          "name": "treeSpecs",
          "type": "string"
        }
      ],
      "stateMutability": "view",
      "type": "function",
      "constant": true
    },
    {
      "inputs": [],
      "name": "treeToken",
      "outputs": [
        {
          "internalType": "contract ITree",
          "name": "",
          "type": "address"
        }
      ],
      "stateMutability": "view",
      "type": "function",
      "constant": true
    },
    {
      "inputs": [],
      "name": "trustedForwarder",
      "outputs": [
        {
          "internalType": "address",
          "name": "",
          "type": "address"
        }
      ],
      "stateMutability": "view",
      "type": "function",
      "constant": true
    },
    {
      "inputs": [
        {
          "internalType": "uint256",
          "name": "",
          "type": "uint256"
        }
      ],
      "name": "updateTrees",
      "outputs": [
        {
          "internalType": "string",
          "name": "updateSpecs",
          "type": "string"
        },
        {
          "internalType": "uint64",
          "name": "updateStatus",
          "type": "uint64"
        }
      ],
      "stateMutability": "view",
      "type": "function",
      "constant": true
    },
    {
      "inputs": [],
      "name": "versionRecipient",
      "outputs": [
        {
          "internalType": "string",
          "name": "",
          "type": "string"
        }
      ],
      "stateMutability": "pure",
      "type": "function",
      "constant": true
    },
    {
      "inputs": [
        {
          "internalType": "address",
          "name": "_accessRestrictionAddress",
          "type": "address"
        }
      ],
      "name": "initialize",
      "outputs": [],
      "stateMutability": "nonpayable",
      "type": "function"
    },
    {
      "inputs": [
        {
          "internalType": "address",
          "name": "_address",
          "type": "address"
        }
      ],
      "name": "setTrustedForwarder",
      "outputs": [],
      "stateMutability": "nonpayable",
      "type": "function"
    },
    {
      "inputs": [
        {
          "internalType": "address",
          "name": "_address",
          "type": "address"
        }
      ],
      "name": "setPlanterFundAddress",
      "outputs": [],
      "stateMutability": "nonpayable",
      "type": "function"
    },
    {
      "inputs": [
        {
          "internalType": "address",
          "name": "_address",
          "type": "address"
        }
      ],
      "name": "setPlanterAddress",
      "outputs": [],
      "stateMutability": "nonpayable",
      "type": "function"
    },
    {
      "inputs": [
        {
          "internalType": "address",
          "name": "_address",
          "type": "address"
        }
      ],
      "name": "setTreeTokenAddress",
      "outputs": [],
      "stateMutability": "nonpayable",
      "type": "function"
    },
    {
      "inputs": [
        {
          "internalType": "uint256",
          "name": "_treeId",
          "type": "uint256"
        },
        {
          "internalType": "string",
          "name": "_treeDescription",
          "type": "string"
        }
      ],
      "name": "addTree",
      "outputs": [],
      "stateMutability": "nonpayable",
      "type": "function"
    },
    {
      "inputs": [
        {
          "internalType": "uint256",
          "name": "_treeId",
          "type": "uint256"
        },
        {
          "internalType": "address",
          "name": "_planterId",
          "type": "address"
        }
      ],
      "name": "assignTreeToPlanter",
      "outputs": [],
      "stateMutability": "nonpayable",
      "type": "function"
    },
    {
      "inputs": [
        {
          "internalType": "uint256",
          "name": "_treeId",
          "type": "uint256"
        },
        {
          "internalType": "string",
          "name": "_treeSpecs",
          "type": "string"
        },
        {
          "internalType": "uint64",
          "name": "_birthDate",
          "type": "uint64"
        },
        {
          "internalType": "uint16",
          "name": "_countryCode",
          "type": "uint16"
        }
      ],
      "name": "plantTree",
      "outputs": [],
      "stateMutability": "nonpayable",
      "type": "function"
    },
    {
      "inputs": [
        {
          "internalType": "uint256",
          "name": "_treeId",
          "type": "uint256"
        },
        {
          "internalType": "bool",
          "name": "_isVerified",
          "type": "bool"
        }
      ],
      "name": "verifyPlant",
      "outputs": [],
      "stateMutability": "nonpayable",
      "type": "function"
    },
    {
      "inputs": [
        {
          "internalType": "uint256",
          "name": "_treeId",
          "type": "uint256"
        },
        {
          "internalType": "string",
          "name": "_treeSpecs",
          "type": "string"
        }
      ],
      "name": "updateTree",
      "outputs": [],
      "stateMutability": "nonpayable",
      "type": "function"
    },
    {
      "inputs": [
        {
          "internalType": "uint256",
          "name": "_treeId",
          "type": "uint256"
        },
        {
          "internalType": "bool",
          "name": "_isVerified",
          "type": "bool"
        }
      ],
      "name": "verifyUpdate",
      "outputs": [],
      "stateMutability": "nonpayable",
      "type": "function"
    },
    {
      "inputs": [
        {
          "internalType": "uint256",
          "name": "_treeId",
          "type": "uint256"
        },
        {
          "internalType": "uint32",
          "name": "_provideType",
          "type": "uint32"
        }
      ],
      "name": "availability",
      "outputs": [
        {
          "internalType": "uint32",
          "name": "",
          "type": "uint32"
        }
      ],
      "stateMutability": "nonpayable",
      "type": "function"
    },
    {
      "inputs": [
        {
          "internalType": "uint256",
          "name": "_treeId",
          "type": "uint256"
        },
        {
          "internalType": "address",
          "name": "_ownerId",
          "type": "address"
        },
        {
          "internalType": "uint16",
          "name": "_mintStatus",
          "type": "uint16"
        }
      ],
      "name": "updateOwner",
      "outputs": [],
      "stateMutability": "nonpayable",
      "type": "function"
    },
    {
      "inputs": [
        {
          "internalType": "uint256",
          "name": "_treeId",
          "type": "uint256"
        }
      ],
      "name": "updateAvailability",
      "outputs": [],
      "stateMutability": "nonpayable",
      "type": "function"
    },
    {
      "inputs": [
        {
          "internalType": "uint256",
          "name": "_startTreeId",
          "type": "uint256"
        },
        {
          "internalType": "uint256",
          "name": "_endTreeId",
          "type": "uint256"
        }
      ],
      "name": "bulkRevert",
      "outputs": [],
      "stateMutability": "nonpayable",
      "type": "function"
    },
    {
      "inputs": [
        {
          "internalType": "uint256",
          "name": "_startTreeId",
          "type": "uint256"
        },
        {
          "internalType": "uint256",
          "name": "_endTreeId",
          "type": "uint256"
        },
        {
          "internalType": "uint32",
          "name": "_provideStatus",
          "type": "uint32"
        }
      ],
      "name": "manageProvideStatus",
      "outputs": [
        {
          "internalType": "bool",
          "name": "",
          "type": "bool"
        }
      ],
      "stateMutability": "nonpayable",
      "type": "function"
    },
    {
      "inputs": [
        {
          "internalType": "uint256",
          "name": "_treeId",
          "type": "uint256"
        },
        {
          "internalType": "address",
          "name": "_buyer",
          "type": "address"
        }
      ],
      "name": "checkMintStatus",
      "outputs": [
        {
          "internalType": "bool",
          "name": "",
          "type": "bool"
        }
      ],
      "stateMutability": "view",
      "type": "function",
      "constant": true
    },
    {
      "inputs": [
        {
          "internalType": "string",
          "name": "_treeSpecs",
          "type": "string"
        },
        {
          "internalType": "uint64",
          "name": "_birthDate",
          "type": "uint64"
        },
        {
          "internalType": "uint16",
          "name": "_countryCode",
          "type": "uint16"
        }
      ],
      "name": "regularPlantTree",
      "outputs": [],
      "stateMutability": "nonpayable",
      "type": "function"
    },
    {
      "inputs": [
        {
          "internalType": "uint256",
          "name": "_regularTreeId",
          "type": "uint256"
        },
        {
          "internalType": "bool",
          "name": "_isVerified",
          "type": "bool"
        }
      ],
      "name": "verifyRegularPlant",
      "outputs": [],
      "stateMutability": "nonpayable",
      "type": "function"
    },
    {
      "inputs": [
        {
          "internalType": "uint256",
          "name": "_lastSold",
          "type": "uint256"
        },
        {
          "internalType": "address",
          "name": "_owner",
          "type": "address"
        }
      ],
      "name": "mintRegularTrees",
      "outputs": [
        {
          "internalType": "uint256",
          "name": "",
          "type": "uint256"
        }
      ],
      "stateMutability": "nonpayable",
      "type": "function"
    },
    {
      "inputs": [
        {
          "internalType": "uint256",
          "name": "_treeId",
          "type": "uint256"
        },
        {
          "internalType": "address",
          "name": "_owner",
          "type": "address"
        }
      ],
      "name": "requestRegularTree",
      "outputs": [],
      "stateMutability": "nonpayable",
      "type": "function"
    }
  ],
  "bytecode": "0x608060405234801561001057600080fd5b5061397f806100206000396000f3fe608060405234801561001057600080fd5b50600436106101fa5760003560e01c806390f343d31161011a578063c83a3065116100ad578063e0c89c1e1161007c578063e0c89c1e146104ce578063e0eb4eb9146104e1578063e9455157146104ee578063f5894a0314610501578063ff0c66e51461051457600080fd5b8063c83a306514610468578063d6762c4a1461047b578063da74222814610493578063dffc3c5c146104a657600080fd5b8063b7aad563116100e9578063b7aad56314610426578063bc3af8221461042f578063bc92ff3c14610442578063c4d66de81461045557600080fd5b806390f343d3146103cc5780639a27ccfa146103df578063b20cae54146103f2578063b225afcb1461041357600080fd5b80634dc933ef116101925780636b703cf5116101615780636b703cf51461036c5780636fd5214b1461038d5780637da0a877146103a057806383310b2f146103b957600080fd5b80634dc933ef146102fb578063572b6c051461030e5780635a54e88a146103465780635c8bbd2f1461035957600080fd5b806343579af6116101ce57806343579af61461028357806348330cf614610296578063486ff0cd146102a95780634ad07f9e146102e857600080fd5b8062615e72146101ff57806312cc3ab0146102305780633891577f1461025b57806338f1f40f1461026e575b600080fd5b61021261020d36600461338a565b610539565b60405161022799989796959493929190613670565b60405180910390f35b600354610243906001600160a01b031681565b6040516001600160a01b039091168152602001610227565b600454610243906001600160a01b031681565b61028161027c3660046132cf565b61063c565b005b610281610291366004613326565b610753565b6102816102a436600461338a565b6109a2565b604080518082018252601d81527f322e322e302b747265656a65722e6972656c6179726563697069656e740000006020820152905161022791906136ea565b6102816102f63660046132cf565b610a38565b6102816103093660046134ef565b610b4f565b61033661031c3660046132cf565b6000546201000090046001600160a01b0390811691161490565b6040519015158152602001610227565b610281610354366004613481565b610dcc565b6102816103673660046135a9565b611074565b61037f61037a36600461338a565b611152565b6040516102279291906136fd565b61028161039b366004613411565b6111ff565b600054610243906201000090046001600160a01b031681565b600554610243906001600160a01b031681565b6102816103da366004613436565b611735565b6103366103ed3660046133a3565b61187e565b6104056104003660046133a3565b61193f565b604051908152602001610227565b6102816104213660046133d3565b611bb8565b61040560065481565b61033661043d3660046135cb565b611cc0565b6102816104503660046132cf565b611dda565b6102816104633660046132cf565b611ef1565b610281610476366004613411565b612052565b6002546102439061010090046001600160a01b031681565b6102816104a13660046132cf565b61244a565b6104b96104b43660046135f7565b6124ea565b60405163ffffffff9091168152602001610227565b6102816104dc366004613411565b6126a6565b6002546103369060ff1681565b6102816104fc3660046133a3565b612b5a565b61028161050f3660046133a3565b612ca3565b61052761052236600461338a565b612e97565b604051610227969594939291906137a2565b60076020526000908152604090208054600182015460028301546003840180546001600160a01b0390941694929361ffff808416946201000085049091169363ffffffff600160201b820416936001600160401b03600160401b8304811694600160801b8404821694600160c01b9094049091169291906105b9906138a4565b80601f01602080910402602001604051908101604052809291908181526020018280546105e5906138a4565b80156106325780601f1061060757610100808354040283529160200191610632565b820191906000526020600020905b81548152906001019060200180831161061557829003601f168201915b5050505050905089565b60025461010090046001600160a01b0316638413ec1461065a612f79565b6040516001600160e01b031960e084901b1681526001600160a01b03909116600482015260240160006040518083038186803b15801561069957600080fd5b505afa1580156106ad573d6000803e3d6000fd5b505050506000819050806001600160a01b03166337b9fd776040518163ffffffff1660e01b815260040160206040518083038186803b1580156106ef57600080fd5b505afa158015610703573d6000803e3d6000fd5b505050506040513d601f19601f820116820180604052508101906107279190613309565b61073057600080fd5b600380546001600160a01b0319166001600160a01b039290921691909117905550565b6005546001600160a01b031663b2dbbded61076c612f79565b6040516001600160e01b031960e084901b1681526001600160a01b039091166004820152602401602060405180830381600087803b1580156107ad57600080fd5b505af11580156107c1573d6000803e3d6000fd5b505050506040513d601f19601f820116820180604052508101906107e59190613309565b6107ee57600080fd5b6040518060c00160405280836001600160401b0316815260200161081142612fb3565b6001600160401b0316815261ffff8316602082015260006040820152606001610838612f79565b6001600160a01b0316815260200185858080601f0160208091040260200160405190810160405280939291908181526020018383808284376000920182905250939094525050600154600992508152602080820192909252604090810160002083518154858501519386015160608701516001600160401b03908116600160c01b026001600160c01b03928216600160801b02929092166fffffffffffffffffffffffffffffffff968216600160401b026fffffffffffffffffffffffffffffffff19909416919094161791909117939093161791909117815560808301516001820180546001600160a01b039092166001600160a01b031990921691909117905560a08301518051919261095592600285019290910190613084565b50506001547f10c0a85809ada5011c1b0222076d7aebe7695eef1c0e500cbba5a0fb67aa48be915060405190815260200160405180910390a161099c600180546001019055565b50505050565b60025461010090046001600160a01b03166334d424546109c0612f79565b6040516001600160e01b031960e084901b1681526001600160a01b03909116600482015260240160006040518083038186803b1580156109ff57600080fd5b505afa158015610a13573d6000803e3d6000fd5b505050600091825250600760205260409020600201805463ffffffff60201b19169055565b60025461010090046001600160a01b0316638413ec14610a56612f79565b6040516001600160e01b031960e084901b1681526001600160a01b03909116600482015260240160006040518083038186803b158015610a9557600080fd5b505afa158015610aa9573d6000803e3d6000fd5b505050506000819050806001600160a01b031663349904da6040518163ffffffff1660e01b815260040160206040518083038186803b158015610aeb57600080fd5b505afa158015610aff573d6000803e3d6000fd5b505050506040513d601f19601f82011682018060405250810190610b239190613309565b610b2c57600080fd5b600480546001600160a01b0319166001600160a01b039290921691909117905550565b610b57612f79565b6000838152600760205260409020546001600160a01b03908116911614610bd15760405162461bcd60e51b8152602060048201526024808201527f4f6e6c7920506c616e746572206f6620747265652063616e2073656e642075706044820152636461746560e01b60648201526084015b60405180910390fd5b6000828152600760205260409020600201546003600160401b9091046001600160401b031611610c365760405162461bcd60e51b815260206004820152601060248201526f151c9959481b9bdd081c1b185b9d195960821b6044820152606401610bc8565b60008281526008602052604090206001908101546001600160401b03161415610ca15760405162461bcd60e51b815260206004820152601d60248201527f7570646174652074726565207374617475732069732070656e64696e670000006044820152606401610bc8565b600082815260076020526040902060020154610ccf90600160401b90046001600160401b0316610e1061385e565b610cdc9062015180613811565b600083815260076020526040902060020154610d089190600160801b90046001600160401b0316613811565b6001600160401b0316421015610d585760405162461bcd60e51b81526020600482015260156024820152740aae0c8c2e8ca40e8d2daca40dcdee840e4cac2c6d605b1b6044820152606401610bc8565b600082815260086020908152604090912082519091610d7b918391850190613084565b506001818101805467ffffffffffffffff191690911790556040518381527fb02fa78938a60840517eef874d53897819ea37cc053e40aac321dc45dcfed4a8906020015b60405180910390a1505050565b6000858152600760205260409020600280820154600160401b90046001600160401b031614610e3d5760405162461bcd60e51b815260206004820152601d60248201527f696e76616c696420747265652073746174757320666f7220706c616e740000006044820152606401610bc8565b6005546000906001600160a01b031663055644d6610e59612f79565b845460405160e084901b6001600160e01b03191681526001600160a01b03928316600482015291166024820152604401602060405180830381600087803b158015610ea357600080fd5b505af1158015610eb7573d6000803e3d6000fd5b505050506040513d601f19601f82011682018060405250810190610edb9190613309565b905080610f2a5760405162461bcd60e51b815260206004820152601a60248201527f706c616e74696e67207065726d697373696f6e2064656e6965640000000000006044820152606401610bc8565b81546001600160a01b0316610f3d612f79565b6001600160a01b031614610f6f57610f53612f79565b82546001600160a01b0319166001600160a01b03919091161782555b6000878152600860205260409020610f88818888613104565b506001818101805467ffffffffffffffff1916909117905560028301805463ffff0001600160c01b03166201000061ffff8716026001600160c01b031617600160c01b6001600160401b03881602179055610fe242612fb3565b60028401805477ffffffffffffffffffffffffffffffff00000000000000001916600160801b6001600160401b03939093169290920267ffffffffffffffff60401b191691909117680300000000000000001790556040518881527f6efeb6d0d0a494d52bc4a4c7fce81b3374786e440b2459f8ef1d87f1700219079060200160405180910390a15050505050505050565b60025461010090046001600160a01b0316632f0a0d4c611092612f79565b6040516001600160e01b031960e084901b1681526001600160a01b03909116600482015260240160006040518083038186803b1580156110d157600080fd5b505afa1580156110e5573d6000803e3d6000fd5b5084925050505b8181101561114d576000818152600760205260409020600290810154600160201b900463ffffffff16141561113b576000818152600760205260409020600201805463ffffffff60201b191690555b80611145816138df565b9150506110ec565b505050565b60086020526000908152604090208054819061116d906138a4565b80601f0160208091040260200160405190810160405280929190818152602001828054611199906138a4565b80156111e65780601f106111bb576101008083540402835291602001916111e6565b820191906000526020600020905b8154815290600101906020018083116111c957829003601f168201915b505050600190930154919250506001600160401b031682565b600260019054906101000a90046001600160a01b03166001600160a01b0316634d868f986040518163ffffffff1660e01b815260040160006040518083038186803b15801561124d57600080fd5b505afa158015611261573d6000803e3d6000fd5b5050505061126d612f79565b6000838152600760205260409020546001600160a01b03908116911614156112a75760405162461bcd60e51b8152600401610bc89061375f565b60008281526008602052604090206001908101546001600160401b0316146113115760405162461bcd60e51b815260206004820152601d60248201527f75706461746520737461747573206d7573742062652070656e64696e670000006044820152606401610bc8565b6000828152600760205260409020600201546003600160401b9091046001600160401b0316116113765760405162461bcd60e51b815260206004820152601060248201526f151c9959481b9bdd081c1b185b9d195960821b6044820152606401610bc8565b60025461010090046001600160a01b03166324d7806c611394612f79565b6040516001600160e01b031960e084901b1681526001600160a01b03909116600482015260240160206040518083038186803b1580156113d357600080fd5b505afa1580156113e7573d6000803e3d6000fd5b505050506040513d601f19601f8201168201806040525081019061140b9190613309565b806114bc57506005546000838152600760205260409020546001600160a01b03918216916355c3a79e911661143e612f79565b6040516001600160e01b031960e085901b1681526001600160a01b0392831660048201529116602482015260440160206040518083038186803b15801561148457600080fd5b505afa158015611498573d6000803e3d6000fd5b505050506040513d601f19601f820116820180604052508101906114bc9190613309565b6114d85760405162461bcd60e51b8152600401610bc890613728565b600082815260086020526040902081156116ed57600083815260076020526040812060018301805467ffffffffffffffff19166003179055600281015490919061154990610e109061153a90600160801b90046001600160401b03164261388d565b611544919061383c565b61301f565b6002830154909150600160401b90046001600160401b031663ffffffff821611156115935760028201805467ffffffffffffffff60401b191663ffffffff8316600160401b021790555b8254600383019084906115a5906138a4565b6115b0929190613178565b50600354604051634f558e7960e01b8152600481018790526001600160a01b0390911690634f558e799060240160206040518083038186803b1580156115f557600080fd5b505afa158015611609573d6000803e3d6000fd5b505050506040513d601f19601f8201168201806040525081019061162d9190613309565b156116b3576004805483546002850154604051635182e6f760e11b81529384018990526001600160a01b039182166024850152600160401b90046001600160401b03166044840152169063a305cdee90606401600060405180830381600087803b15801561169a57600080fd5b505af11580156116ae573d6000803e3d6000fd5b505050505b6040518581527f9a54caca395ee556cf002513d32eff0d2e5a089a5876960d1f91242c8fafedc39060200160405180910390a15050505050565b60018101805467ffffffffffffffff191660021790556040517f0a4273908b9362e571cacd5610879e3dfd7ddc7c9b3ce1d7ea7ea8b41869116490610dbf9085815260200190565b60025461010090046001600160a01b0316638413ec14611753612f79565b6040516001600160e01b031960e084901b1681526001600160a01b03909116600482015260240160006040518083038186803b15801561179257600080fd5b505afa1580156117a6573d6000803e3d6000fd5b505050600084815260076020526040902060020154600160401b90046001600160401b031615905061180b5760405162461bcd60e51b815260206004820152600e60248201526d6475706c6963617465207472656560901b6044820152606401610bc8565b600083815260076020526040902060028101805467ffffffffffffffff60401b1916600160411b179055611843600382018484613104565b506040518481527fed68cc5d92f462ed49c7dd3914cd5fa914276aaf26616595bb56343f86f559da906020015b60405180910390a150505050565b60008281526007602052604081206002015461ffff1660018114806118a757508061ffff166002145b801561193757506003546040516331a9108f60e11b8152600481018690526001600160a01b03858116921690636352211e9060240160206040518083038186803b1580156118f457600080fd5b505afa158015611908573d6000803e3d6000fd5b505050506040513d601f19601f8201168201806040525081019061192c91906132ec565b6001600160a01b0316145b949350505050565b60025460009061010090046001600160a01b0316632e0b2731611960612f79565b6040516001600160e01b031960e084901b1681526001600160a01b03909116600482015260240160006040518083038186803b15801561199f57600080fd5b505afa1580156119b3573d6000803e3d6000fd5b5050505060008360016119c691906137f9565b60008181526007602052604081206002015491925090600160401b90046001600160401b0316158015611a155750600082815260076020526040902060020154600160201b900463ffffffff16155b80611a6b5750600082815260076020526040902060020154600160401b90046001600160401b03166004148015611a6b575060008281526007602052604090206002015463ffffffff600160201b909104166004145b90505b80611b2957611a7e8260016137f9565b600081815260076020526040902060020154909250600160401b90046001600160401b0316158015611acc5750600082815260076020526040902060020154600160201b900463ffffffff16155b80611b225750600082815260076020526040902060020154600160401b90046001600160401b03166004148015611b22575060008281526007602052604090206002015463ffffffff600160201b909104166004145b9050611a6e565b60008281526007602052604090819020600201805463ffffffff60201b191690556003549051632851206560e21b81526001600160a01b038681166004830152602482018590529091169063a144819490604401600060405180830381600087803b158015611b9757600080fd5b505af1158015611bab573d6000803e3d6000fd5b5093979650505050505050565b60025461010090046001600160a01b031663e24ce60a611bd6612f79565b6040516001600160e01b031960e084901b1681526001600160a01b03909116600482015260240160006040518083038186803b158015611c1557600080fd5b505afa158015611c29573d6000803e3d6000fd5b50505060008481526007602052604090819020600201805467ffffffff0000ffff191661ffff85161790556003549051632851206560e21b81526001600160a01b03858116600483015260248201879052909116915063a1448194906044015b600060405180830381600087803b158015611ca357600080fd5b505af1158015611cb7573d6000803e3d6000fd5b50505050505050565b60025460009061010090046001600160a01b03166386d67d11611ce1612f79565b6040516001600160e01b031960e084901b1681526001600160a01b03909116600482015260240160006040518083038186803b158015611d2057600080fd5b505afa158015611d34573d6000803e3d6000fd5b5086925050505b83811015611d8357600081815260076020526040902060020154600160201b900463ffffffff1615611d71576000915050611dd3565b80611d7b816138df565b915050611d3b565b50835b83811015611dcd576000818152600760205260409020600201805463ffffffff60201b1916600160201b63ffffffff86160217905580611dc5816138df565b915050611d86565b50600190505b9392505050565b60025461010090046001600160a01b0316638413ec14611df8612f79565b6040516001600160e01b031960e084901b1681526001600160a01b03909116600482015260240160006040518083038186803b158015611e3757600080fd5b505afa158015611e4b573d6000803e3d6000fd5b505050506000819050806001600160a01b03166303dc8deb6040518163ffffffff1660e01b815260040160206040518083038186803b158015611e8d57600080fd5b505afa158015611ea1573d6000803e3d6000fd5b505050506040513d601f19601f82011682018060405250810190611ec59190613309565b611ece57600080fd5b600580546001600160a01b0319166001600160a01b039290921691909117905550565b600054610100900460ff1680611f0a575060005460ff16155b611f6d5760405162461bcd60e51b815260206004820152602e60248201527f496e697469616c697a61626c653a20636f6e747261637420697320616c72656160448201526d191e481a5b9a5d1a585b1a5e995960921b6064820152608401610bc8565b600054610100900460ff16158015611f8f576000805461ffff19166101011790555b6000829050806001600160a01b031663ba84fd696040518163ffffffff1660e01b815260040160206040518083038186803b158015611fcd57600080fd5b505afa158015611fe1573d6000803e3d6000fd5b505050506040513d601f19601f820116820180604052508101906120059190613309565b61200e57600080fd5b600280546001600160a01b03909216610100026001600160a81b0319909216919091176001179055612710600655801561204e576000805461ff00191690555b5050565b600260019054906101000a90046001600160a01b03166001600160a01b0316634d868f986040518163ffffffff1660e01b815260040160006040518083038186803b1580156120a057600080fd5b505afa1580156120b4573d6000803e3d6000fd5b50505060008381526007602052604090206002810154909150600160401b90046001600160401b03166003146121225760405162461bcd60e51b8152602060048201526013602482015272696e76616c696420747265652073746174757360681b6044820152606401610bc8565b61212a612f79565b81546001600160a01b03908116911614156121935760405162461bcd60e51b815260206004820152602360248201527f506c616e746572206f6620747265652063616e2774206163636570742075706460448201526261746560e81b6064820152608401610bc8565b60025461010090046001600160a01b03166324d7806c6121b1612f79565b6040516001600160e01b031960e084901b1681526001600160a01b03909116600482015260240160206040518083038186803b1580156121f057600080fd5b505afa158015612204573d6000803e3d6000fd5b505050506040513d601f19601f820116820180604052508101906122289190613309565b806122cc575060055481546001600160a01b03918216916355c3a79e911661224e612f79565b6040516001600160e01b031960e085901b1681526001600160a01b0392831660048201529116602482015260440160206040518083038186803b15801561229457600080fd5b505afa1580156122a8573d6000803e3d6000fd5b505050506040513d601f19601f820116820180604052508101906122cc9190613309565b6122e85760405162461bcd60e51b8152600401610bc890613728565b600083815260086020526040902082156123865780546003830190829061230e906138a4565b612319929190613178565b5060028201805467ffffffffffffffff60401b1916600160421b179055600181018054600367ffffffffffffffff199091161790556040518481527f6669191701e4d341365a455d2b62b30c5bf1c8af5e2c87a840393c082e9b0a559060200160405180910390a161099c565b6002828101805467ffffffffffffffff60401b1916600160411b17905560018201805467ffffffffffffffff191690911790556005548254604051630f937c7b60e31b81526001600160a01b039182166004820152911690637c9be3d890602401600060405180830381600087803b15801561240157600080fd5b505af1158015612415573d6000803e3d6000fd5b505050507f31a5e19037d478f1ff15cac02bada2e480111da92d1ebdcf9edd73b3560049fd8460405161187091815260200190565b60025461010090046001600160a01b0316638413ec14612468612f79565b6040516001600160e01b031960e084901b1681526001600160a01b03909116600482015260240160006040518083038186803b1580156124a757600080fd5b505afa1580156124bb573d6000803e3d6000fd5b5050600080546001600160a01b03909416620100000262010000600160b01b0319909416939093179092555050565b60025460009061010090046001600160a01b03166334d4245461250b612f79565b6040516001600160e01b031960e084901b1681526001600160a01b03909116600482015260240160006040518083038186803b15801561254a57600080fd5b505afa15801561255e573d6000803e3d6000fd5b505050600084815260076020526040902060020154849150600160401b90046001600160401b03166125c15760405162461bcd60e51b815260206004820152600c60248201526b696e76616c6964207472656560a01b6044820152606401610bc8565b600354604051634f558e7960e01b8152600481018690526001600160a01b0390911690634f558e799060240160206040518083038186803b15801561260557600080fd5b505afa158015612619573d6000803e3d6000fd5b505050506040513d601f19601f8201168201806040525081019061263d9190613309565b1561264b576001915061269f565b600084815260076020526040902060020154600160201b900463ffffffff1680611937576000858152600760205260409020600201805463ffffffff60201b1916600160201b63ffffffff87160217905591505b5092915050565b60008281526009602052604090206126bc612f79565b60018201546001600160a01b03908116911614156126ec5760405162461bcd60e51b8152600401610bc89061375f565b60025461010090046001600160a01b03166324d7806c61270a612f79565b6040516001600160e01b031960e084901b1681526001600160a01b03909116600482015260240160206040518083038186803b15801561274957600080fd5b505afa15801561275d573d6000803e3d6000fd5b505050506040513d601f19601f820116820180604052508101906127819190613309565b80612828575060055460018201546001600160a01b03918216916355c3a79e91166127aa612f79565b6040516001600160e01b031960e085901b1681526001600160a01b0392831660048201529116602482015260440160206040518083038186803b1580156127f057600080fd5b505afa158015612804573d6000803e3d6000fd5b505050506040513d601f19601f820116820180604052508101906128289190613309565b6128445760405162461bcd60e51b8152600401610bc890613728565b8054600160401b90046001600160401b031661289a5760405162461bcd60e51b81526020600482015260156024820152741c9959dd5b185c951c9959481b9bdd08195e1a5cdd605a1b6044820152606401610bc8565b8115612aee57600060065460016128b191906137f9565b90505b600081815260076020526040902060020154600160401b90046001600160401b03161580156128ff5750600081815260076020526040902060020154600160201b900463ffffffff16155b6129155761290e8160016137f9565b90506128b4565b60068190556000818152600760205260409020825460028083018054600160801b6001600160401b03600160401b9095048516810267ffffffffffffffff60801b19831681178455885461ffff92900491909116620100000263ffff00001990911677ffffffffffffffff000000000000000000000000ffff00001990921691909117178082558654600160c01b9416939093026001600160c01b0390931692909217909155830180546003830191906129ce906138a4565b6129d9929190613178565b50600183015481546001600160a01b039182166001600160a01b031990911617825560028201805467ffffffffffffffff60401b1916600160421b179055600354600654604051634f558e7960e01b81526004810191909152911690634f558e799060240160206040518083038186803b158015612a5657600080fd5b505afa158015612a6a573d6000803e3d6000fd5b505050506040513d601f19601f82011682018060405250810190612a8e9190613309565b612aac5760028101805463ffffffff60201b19166404000000001790555b7fd6300cad506c4878602f102fc33c886ad30ee45cdb158c12525b7ccba9af5518600654604051612adf91815260200190565b60405180910390a15050612b22565b6040518381527f2d5d033d28c61a193a3b59cd41d5daa0f6c1c19729c30c447d64c02c01485aad9060200160405180910390a15b60008381526009602052604081208181556001810180546001600160a01b031916905590612b5360028301826131f3565b5050505050565b60025461010090046001600160a01b0316632e0b2731612b78612f79565b6040516001600160e01b031960e084901b1681526001600160a01b03909116600482015260240160006040518083038186803b158015612bb757600080fd5b505afa158015612bcb573d6000803e3d6000fd5b50505060008381526007602052604090206002810154909150600160401b90046001600160401b03166004148015612c155750600281015463ffffffff600160201b909104166004145b612c585760405162461bcd60e51b81526020600482015260146024820152731d1c9959481b5d5cdd081899481c1b185b9d195960621b6044820152606401610bc8565b60028101805463ffffffff60201b19169055600354604051632851206560e21b81526001600160a01b038481166004830152602482018690529091169063a144819490604401611c89565b60025461010090046001600160a01b0316638413ec14612cc1612f79565b6040516001600160e01b031960e084901b1681526001600160a01b03909116600482015260240160006040518083038186803b158015612d0057600080fd5b505afa158015612d14573d6000803e3d6000fd5b5050506000838152600760205260409020600280820154919250600160401b9091046001600160401b031614612d855760405162461bcd60e51b815260206004820152601660248201527534b73b30b634b2103a3932b2903a379030b9b9b4b3b760511b6044820152606401610bc8565b60055460405163df385cbd60e01b81526001600160a01b0384811660048301529091169063df385cbd9060240160206040518083038186803b158015612dca57600080fd5b505afa158015612dde573d6000803e3d6000fd5b505050506040513d601f19601f82011682018060405250810190612e029190613309565b612e4e5760405162461bcd60e51b815260206004820152601c60248201527f63616e27742061737369676e207472656520746f20706c616e746572000000006044820152606401610bc8565b80546001600160a01b0319166001600160a01b0383161781556040518381527f5569e20f761862546a9a892a1fd4508e29978c6a2673afb7ec47675e8cf6b46590602001610dbf565b6009602052600090815260409020805460018201546002830180546001600160401b0380851695600160401b8604821695600160801b8104831695600160c01b909104909216936001600160a01b0390921692909190612ef6906138a4565b80601f0160208091040260200160405190810160405280929190818152602001828054612f22906138a4565b8015612f6f5780601f10612f4457610100808354040283529160200191612f6f565b820191906000526020600020905b815481529060010190602001808311612f5257829003601f168201915b5050505050905086565b600060143610801590612f9c57506000546201000090046001600160a01b031633145b15612fae575060131936013560601c90565b503390565b60006001600160401b0382111561301b5760405162461bcd60e51b815260206004820152602660248201527f53616665436173743a2076616c756520646f65736e27742066697420696e203660448201526534206269747360d01b6064820152608401610bc8565b5090565b600063ffffffff82111561301b5760405162461bcd60e51b815260206004820152602660248201527f53616665436173743a2076616c756520646f65736e27742066697420696e203360448201526532206269747360d01b6064820152608401610bc8565b828054613090906138a4565b90600052602060002090601f0160209004810192826130b257600085556130f8565b82601f106130cb57805160ff19168380011785556130f8565b828001600101855582156130f8579182015b828111156130f85782518255916020019190600101906130dd565b5061301b929150613230565b828054613110906138a4565b90600052602060002090601f01602090048101928261313257600085556130f8565b82601f1061314b5782800160ff198235161785556130f8565b828001600101855582156130f8579182015b828111156130f857823582559160200191906001019061315d565b828054613184906138a4565b90600052602060002090601f0160209004810192826131a657600085556130f8565b82601f106131b757805485556130f8565b828001600101855582156130f857600052602060002091601f016020900482015b828111156130f85782548255916001019190600101906131d8565b5080546131ff906138a4565b6000825580601f1061320f575050565b601f01602090049060005260206000209081019061322d9190613230565b50565b5b8082111561301b5760008155600101613231565b60008083601f84011261325757600080fd5b5081356001600160401b0381111561326e57600080fd5b60208301915083602082850101111561328657600080fd5b9250929050565b803561ffff8116811461329f57600080fd5b919050565b803563ffffffff8116811461329f57600080fd5b80356001600160401b038116811461329f57600080fd5b6000602082840312156132e157600080fd5b8135611dd381613926565b6000602082840312156132fe57600080fd5b8151611dd381613926565b60006020828403121561331b57600080fd5b8151611dd38161393b565b6000806000806060858703121561333c57600080fd5b84356001600160401b0381111561335257600080fd5b61335e87828801613245565b90955093506133719050602086016132b8565b915061337f6040860161328d565b905092959194509250565b60006020828403121561339c57600080fd5b5035919050565b600080604083850312156133b657600080fd5b8235915060208301356133c881613926565b809150509250929050565b6000806000606084860312156133e857600080fd5b8335925060208401356133fa81613926565b91506134086040850161328d565b90509250925092565b6000806040838503121561342457600080fd5b8235915060208301356133c88161393b565b60008060006040848603121561344b57600080fd5b8335925060208401356001600160401b0381111561346857600080fd5b61347486828701613245565b9497909650939450505050565b60008060008060006080868803121561349957600080fd5b8535945060208601356001600160401b038111156134b657600080fd5b6134c288828901613245565b90955093506134d59050604087016132b8565b91506134e36060870161328d565b90509295509295909350565b6000806040838503121561350257600080fd5b8235915060208301356001600160401b038082111561352057600080fd5b818501915085601f83011261353457600080fd5b81358181111561354657613546613910565b604051601f8201601f19908116603f0116810190838211818310171561356e5761356e613910565b8160405282815288602084870101111561358757600080fd5b8260208601602083013760006020848301015280955050505050509250929050565b600080604083850312156135bc57600080fd5b50508035926020909101359150565b6000806000606084860312156135e057600080fd5b8335925060208401359150613408604085016132a4565b6000806040838503121561360a57600080fd5b8235915061361a602084016132a4565b90509250929050565b6000815180845260005b818110156136495760208185018101518683018201520161362d565b8181111561365b576000602083870101525b50601f01601f19169290920160200192915050565b6001600160a01b038a1681526020810189905261ffff88811660408301528716606082015263ffffffff861660808201526001600160401b0385811660a083015284811660c0830152831660e082015261012061010082018190526000906136da83820185613623565b9c9b505050505050505050505050565b602081526000611dd36020830184613623565b6040815260006137106040830185613623565b90506001600160401b03831660208301529392505050565b60208082526018908201527f696e76616c69642061636365737320746f207665726966790000000000000000604082015260600190565b60208082526023908201527f506c616e746572206f6620747265652063616e2774207665726966792075706460408201526261746560e81b606082015260800190565b6001600160401b03878116825286811660208301528581166040830152841660608201526001600160a01b038316608082015260c060a082018190526000906137ed90830184613623565b98975050505050505050565b6000821982111561380c5761380c6138fa565b500190565b60006001600160401b03808316818516808303821115613833576138336138fa565b01949350505050565b60008261385957634e487b7160e01b600052601260045260246000fd5b500490565b60006001600160401b0380831681851681830481118215151615613884576138846138fa565b02949350505050565b60008282101561389f5761389f6138fa565b500390565b600181811c908216806138b857607f821691505b602082108114156138d957634e487b7160e01b600052602260045260246000fd5b50919050565b60006000198214156138f3576138f36138fa565b5060010190565b634e487b7160e01b600052601160045260246000fd5b634e487b7160e01b600052604160045260246000fd5b6001600160a01b038116811461322d57600080fd5b801515811461322d57600080fdfea2646970667358221220422ac6c47f9d23f5d488b1fc43790f85b8ed6795f72c28a38e30bb809c8176ea64736f6c63430008060033",
  "immutableReferences": {},
  "source": "//SPDX-License-Identifier: MIT\n\npragma solidity ^0.8.6;\n\nimport \"@openzeppelin/contracts-upgradeable/utils/math/SafeCastUpgradeable.sol\";\n\nimport \"@openzeppelin/contracts-upgradeable/utils/CountersUpgradeable.sol\";\nimport \"@openzeppelin/contracts-upgradeable/proxy/utils/Initializable.sol\";\nimport \"../access/IAccessRestriction.sol\";\nimport \"../gsn/RelayRecipient.sol\";\nimport \"../tree/ITree.sol\";\nimport \"../treasury/IPlanterFund.sol\";\nimport \"../planter/IPlanter.sol\";\n\ncontract TreeFactory is Initializable, RelayRecipient {\n    using CountersUpgradeable for CountersUpgradeable.Counter;\n    using SafeCastUpgradeable for uint256;\n    using SafeCastUpgradeable for uint32;\n\n    CountersUpgradeable.Counter private regularTreeId;\n\n    bool public isTreeFactory;\n\n    IAccessRestriction public accessRestriction;\n    ITree public treeToken;\n    IPlanterFund public planterFund;\n    IPlanter public planter;\n\n    uint256 public lastRegularPlantedTree;\n\n    struct TreeStruct {\n        address planterId;\n        uint256 treeType;\n        uint16 mintStatus;\n        uint16 countryCode;\n        uint32 provideStatus;\n        uint64 treeStatus;\n        uint64 plantDate;\n        uint64 birthDate;\n        string treeSpecs;\n    }\n\n    struct UpdateTree {\n        string updateSpecs;\n        uint64 updateStatus;\n    }\n\n    struct RegularTree {\n        uint64 birthDate;\n        uint64 plantDate;\n        uint64 countryCode;\n        uint64 otherData;\n        address planterAddress;\n        string treeSpecs;\n    }\n\n    mapping(uint256 => TreeStruct) public treeData; //tree id to TreeStruct struct\n    mapping(uint256 => UpdateTree) public updateTrees; //tree id to UpdateTree struct\n    mapping(uint256 => RegularTree) public regularTrees; //tree id to RegularTree struct\n\n    event TreeAdded(uint256 treeId);\n    event TreeAssigned(uint256 treeId);\n    event TreePlanted(uint256 treeId);\n    event PlantVerified(uint256 treeId);\n    event PlantRejected(uint256 treeId);\n    event TreeUpdated(uint256 treeId);\n    event UpdateVerified(uint256 treeId);\n    event UpdateRejected(uint256 treeId);\n    event RegularTreePlanted(uint256 treeId);\n    event RegularPlantVerified(uint256 treeId);\n    event RegularPlantRejected(uint256 treeId);\n\n    modifier onlyAdmin() {\n        accessRestriction.ifAdmin(_msgSender());\n        _;\n    }\n\n    modifier ifNotPaused() {\n        accessRestriction.ifNotPaused();\n        _;\n    }\n\n    modifier onlyAuction() {\n        accessRestriction.ifAuction(_msgSender());\n        _;\n    }\n\n    modifier onlyAuctionOrCommunityGifts() {\n        accessRestriction.ifAuctionOrCommunityGifts(_msgSender());\n        _;\n    }\n    modifier onlyCommunityGifts() {\n        accessRestriction.ifCommunityGifts(_msgSender());\n        _;\n    }\n    modifier onlyIncremental() {\n        accessRestriction.ifIncrementalSell(_msgSender());\n        _;\n    }\n\n    modifier onlyIncrementalSellOrAuction() {\n        accessRestriction.ifIncrementalSellOrAuction(_msgSender());\n        _;\n    }\n\n    modifier onlyIncrementalOrCommunityGifts() {\n        accessRestriction.ifIncrementalOrCommunityGifts(_msgSender());\n        _;\n    }\n\n    modifier onlyIncrementalSellOrAuctionOrCommunityGifts() {\n        accessRestriction.ifIncrementalSellOrAuctionOrCommunityGifts(\n            _msgSender()\n        );\n        _;\n    }\n\n    modifier validTree(uint256 _treeId) {\n        require(treeData[_treeId].treeStatus > 0, \"invalid tree\");\n        _;\n    }\n\n    modifier onlyRegularSellContract() {\n        accessRestriction.ifRegularSell(_msgSender());\n        _;\n    }\n\n    function initialize(address _accessRestrictionAddress) public initializer {\n        IAccessRestriction candidateContract = IAccessRestriction(\n            _accessRestrictionAddress\n        );\n\n        require(candidateContract.isAccessRestriction());\n\n        isTreeFactory = true;\n        accessRestriction = candidateContract;\n        lastRegularPlantedTree = 10000;\n    }\n\n    function setTrustedForwarder(address _address) external onlyAdmin {\n        trustedForwarder = _address;\n    }\n\n    function setPlanterFundAddress(address _address) external onlyAdmin {\n        IPlanterFund candidateContract = IPlanterFund(_address);\n\n        require(candidateContract.isPlanterFund());\n\n        planterFund = candidateContract;\n    }\n\n    function setPlanterAddress(address _address) external onlyAdmin {\n        IPlanter candidateContract = IPlanter(_address);\n\n        require(candidateContract.isPlanter());\n\n        planter = candidateContract;\n    }\n\n    function setTreeTokenAddress(address _address) external onlyAdmin {\n        ITree candidateContract = ITree(_address);\n\n        require(candidateContract.isTree());\n\n        treeToken = candidateContract;\n    }\n\n    function addTree(uint256 _treeId, string calldata _treeDescription)\n        external\n        onlyAdmin\n    {\n        require(treeData[_treeId].treeStatus == 0, \"duplicate tree\");\n\n        TreeStruct storage tree = treeData[_treeId];\n\n        tree.treeStatus = 2;\n        tree.treeSpecs = _treeDescription;\n\n        emit TreeAdded(_treeId);\n    }\n\n    function assignTreeToPlanter(uint256 _treeId, address _planterId)\n        external\n        onlyAdmin\n    {\n        TreeStruct storage tempTree = treeData[_treeId];\n\n        require(tempTree.treeStatus == 2, \"invalid tree to assign\");\n\n        require(\n            planter.canAssignTreeToPlanter(_planterId),\n            \"can't assign tree to planter\"\n        );\n\n        tempTree.planterId = _planterId;\n\n        emit TreeAssigned(_treeId);\n    }\n\n    function plantTree(\n        uint256 _treeId,\n        string calldata _treeSpecs,\n        uint64 _birthDate,\n        uint16 _countryCode\n    ) external {\n        TreeStruct storage tempGenTree = treeData[_treeId];\n\n        require(tempGenTree.treeStatus == 2, \"invalid tree status for plant\");\n\n        bool _canPlant = planter.plantingPermission(\n            _msgSender(),\n            tempGenTree.planterId\n        );\n\n        require(_canPlant, \"planting permission denied\");\n\n        if (_msgSender() != tempGenTree.planterId) {\n            tempGenTree.planterId = _msgSender();\n        }\n\n        UpdateTree storage updateGenTree = updateTrees[_treeId];\n\n        updateGenTree.updateSpecs = _treeSpecs;\n        updateGenTree.updateStatus = 1;\n\n        tempGenTree.countryCode = _countryCode;\n        tempGenTree.birthDate = _birthDate;\n        tempGenTree.plantDate = block.timestamp.toUint64();\n        tempGenTree.treeStatus = 3;\n\n        emit TreePlanted(_treeId);\n    }\n\n    function verifyPlant(uint256 _treeId, bool _isVerified)\n        external\n        ifNotPaused\n    {\n        TreeStruct storage tempGenTree = treeData[_treeId];\n\n        require(tempGenTree.treeStatus == 3, \"invalid tree status\");\n\n        require(\n            tempGenTree.planterId != _msgSender(),\n            \"Planter of tree can't accept update\"\n        );\n\n        require(\n            accessRestriction.isAdmin(_msgSender()) ||\n                planter.canVerify(tempGenTree.planterId, _msgSender()),\n            \"invalid access to verify\"\n        );\n\n        UpdateTree storage tempUpdateGenTree = updateTrees[_treeId];\n\n        if (_isVerified) {\n            tempGenTree.treeSpecs = tempUpdateGenTree.updateSpecs;\n            tempGenTree.treeStatus = 4;\n            tempUpdateGenTree.updateStatus = 3;\n\n            emit PlantVerified(_treeId);\n        } else {\n            tempGenTree.treeStatus = 2;\n            tempUpdateGenTree.updateStatus = 2;\n            planter.reducePlantCount(tempGenTree.planterId);\n\n            emit PlantRejected(_treeId);\n        }\n    }\n\n    function updateTree(uint256 _treeId, string memory _treeSpecs) external {\n        require(\n            treeData[_treeId].planterId == _msgSender(),\n            \"Only Planter of tree can send update\"\n        );\n\n        require(treeData[_treeId].treeStatus > 3, \"Tree not planted\");\n\n        require(\n            updateTrees[_treeId].updateStatus != 1,\n            \"update tree status is pending\"\n        );\n\n        require(\n            block.timestamp >=\n                treeData[_treeId].plantDate +\n                    ((treeData[_treeId].treeStatus * 3600) + 86400),\n            \"Update time not reach\"\n        );\n\n        UpdateTree storage updateGenTree = updateTrees[_treeId];\n\n        updateGenTree.updateSpecs = _treeSpecs;\n        updateGenTree.updateStatus = 1;\n\n        emit TreeUpdated(_treeId);\n    }\n\n    function verifyUpdate(uint256 _treeId, bool _isVerified)\n        external\n        ifNotPaused\n    {\n        require(\n            treeData[_treeId].planterId != _msgSender(),\n            \"Planter of tree can't verify update\"\n        );\n\n        require(\n            updateTrees[_treeId].updateStatus == 1,\n            \"update status must be pending\"\n        );\n\n        require(treeData[_treeId].treeStatus > 3, \"Tree not planted\");\n\n        require(\n            accessRestriction.isAdmin(_msgSender()) ||\n                planter.canVerify(treeData[_treeId].planterId, _msgSender()),\n            \"invalid access to verify\"\n        );\n\n        UpdateTree storage updateGenTree = updateTrees[_treeId];\n\n        if (_isVerified) {\n            TreeStruct storage tree = treeData[_treeId];\n\n            updateGenTree.updateStatus = 3;\n\n            uint32 age = ((block.timestamp - treeData[_treeId].plantDate) /\n                3600).toUint32();\n\n            if (age > tree.treeStatus) {\n                tree.treeStatus = age;\n            }\n\n            tree.treeSpecs = updateGenTree.updateSpecs;\n\n            if (treeToken.exists(_treeId)) {\n                planterFund.fundPlanter(\n                    _treeId,\n                    tree.planterId,\n                    tree.treeStatus\n                );\n            }\n\n            emit UpdateVerified(_treeId);\n        } else {\n            updateGenTree.updateStatus = 2;\n\n            emit UpdateRejected(_treeId);\n        }\n    }\n\n    function availability(uint256 _treeId, uint32 _provideType)\n        external\n        onlyAuction\n        validTree(_treeId)\n        returns (uint32)\n    {\n        if (treeToken.exists(_treeId)) {\n            return 1;\n        }\n\n        uint32 nowProvideStatus = treeData[_treeId].provideStatus;\n\n        if (nowProvideStatus == 0) {\n            treeData[_treeId].provideStatus = _provideType;\n        }\n\n        return nowProvideStatus;\n    }\n\n    function updateOwner(\n        uint256 _treeId,\n        address _ownerId,\n        uint16 _mintStatus\n    ) external onlyIncrementalSellOrAuctionOrCommunityGifts {\n        treeData[_treeId].provideStatus = 0;\n        treeData[_treeId].mintStatus = _mintStatus;\n        treeToken.safeMint(_ownerId, _treeId);\n    }\n\n    function updateAvailability(uint256 _treeId) external onlyAuction {\n        treeData[_treeId].provideStatus = 0;\n    }\n\n    //cancel all old incremental sell of trees\n    function bulkRevert(uint256 _startTreeId, uint256 _endTreeId)\n        external\n        onlyIncremental\n    {\n        for (uint256 i = _startTreeId; i < _endTreeId; i++) {\n            if (treeData[i].provideStatus == 2) {\n                treeData[i].provideStatus = 0;\n            }\n        }\n    }\n\n    //set incremental and communityGifts sell for trees\n    function manageProvideStatus(\n        uint256 _startTreeId,\n        uint256 _endTreeId,\n        uint32 _provideStatus\n    ) external onlyIncrementalOrCommunityGifts returns (bool) {\n        for (uint256 i = _startTreeId; i < _endTreeId; i++) {\n            if (treeData[i].provideStatus > 0) {\n                return false;\n            }\n        }\n        for (uint256 j = _startTreeId; j < _endTreeId; j++) {\n            treeData[j].provideStatus = _provideStatus;\n        }\n        return true;\n    }\n\n    function checkMintStatus(uint256 _treeId, address _buyer)\n        external\n        view\n        returns (bool)\n    {\n        uint16 minted = treeData[_treeId].mintStatus;\n        return ((minted == 1 || minted == 2) &&\n            treeToken.ownerOf(_treeId) == _buyer);\n    }\n\n    // function updateTreefromOffer(\n    //     uint256 _treeId,\n    //     string memory _specsCid,\n    //     address _owner\n    // ) external onlyAuction {\n    //     treeData[_treeId].provideStatus = 0;\n\n    //     treeData[_treeId].treeSpecs = _specsCid;\n\n    //     treeToken.safeMint(_owner, _treeId);\n    // }\n\n    /**\n     * @dev This function is called by planter who have planted a new tree\n     * The planter enters the information of the new tree\n     * Information is stored in The {regularTrees} mapping\n     * And finally the tree is waiting for approval\n     *\n     *\n     * @param _treeSpecs //TODO: what is _treeSpecs ??\n     * @param _birthDate birthDate of the tree\n     * @param _countryCode Code of the country where the tree was planted\n     */\n    function regularPlantTree(\n        string calldata _treeSpecs,\n        uint64 _birthDate,\n        uint16 _countryCode\n    ) external {\n        require(planter.planterCheck(_msgSender()));\n\n        regularTrees[regularTreeId.current()] = RegularTree(\n            _birthDate,\n            block.timestamp.toUint64(),\n            _countryCode,\n            0,\n            _msgSender(),\n            _treeSpecs\n        );\n\n        emit RegularTreePlanted(regularTreeId.current());\n\n        regularTreeId.increment();\n    }\n\n    /**\n     * @dev In this function, the admin approves or rejects the pending trees\n     * After calling this function, if the tree is approved the tree information will be transferred to the {treeData}\n     *\n     * @param _regularTreeId _regularTreeId\n     * @param _isVerified Tree approved or not\n     */\n    function verifyRegularPlant(uint256 _regularTreeId, bool _isVerified)\n        external\n    {\n        RegularTree storage regularTree = regularTrees[_regularTreeId];\n\n        require(\n            regularTree.planterAddress != _msgSender(),\n            \"Planter of tree can't verify update\"\n        );\n\n        require(\n            accessRestriction.isAdmin(_msgSender()) ||\n                planter.canVerify(regularTree.planterAddress, _msgSender()),\n            \"invalid access to verify\"\n        );\n\n        require(regularTree.plantDate > 0, \"regularTree not exist\");\n\n        if (_isVerified) {\n            uint256 tempLastRegularPlantedTree = lastRegularPlantedTree + 1;\n\n            while (\n                !(treeData[tempLastRegularPlantedTree].treeStatus == 0 &&\n                    treeData[tempLastRegularPlantedTree].provideStatus == 0)\n            ) {\n                tempLastRegularPlantedTree = tempLastRegularPlantedTree + 1;\n            }\n\n            lastRegularPlantedTree = tempLastRegularPlantedTree;\n\n            TreeStruct storage tree = treeData[lastRegularPlantedTree];\n\n            tree.plantDate = regularTree.plantDate;\n            tree.countryCode = uint16(regularTree.countryCode);\n            tree.birthDate = regularTree.birthDate;\n            tree.treeSpecs = regularTree.treeSpecs;\n            tree.planterId = regularTree.planterAddress;\n            tree.treeStatus = 4;\n\n            if (!treeToken.exists(lastRegularPlantedTree)) {\n                tree.provideStatus = 4;\n            }\n            emit RegularPlantVerified(lastRegularPlantedTree);\n        } else {\n            emit RegularPlantRejected(_regularTreeId);\n        }\n\n        delete regularTrees[_regularTreeId];\n    }\n\n    /**\n     * @dev Transfer ownership of trees purchased by funders and Update the last tree sold\n     * This function is called only by the regularSell contract\n     *\n     * @param _lastSold The last tree sold in the regular\n     * @param _owner Owner of a new tree sold in Regular\n     *\n     *\n     * @return The last tree sold after update\n     */\n    function mintRegularTrees(uint256 _lastSold, address _owner)\n        external\n        onlyRegularSellContract\n        returns (uint256)\n    {\n        uint256 localLastSold = _lastSold + 1;\n\n        bool flag = (treeData[localLastSold].treeStatus == 0 &&\n            treeData[localLastSold].provideStatus == 0) ||\n            (treeData[localLastSold].treeStatus == 4 &&\n                treeData[localLastSold].provideStatus == 4);\n\n        while (!flag) {\n            localLastSold = localLastSold + 1;\n\n            flag =\n                (treeData[localLastSold].treeStatus == 0 &&\n                    treeData[localLastSold].provideStatus == 0) ||\n                (treeData[localLastSold].treeStatus == 4 &&\n                    treeData[localLastSold].provideStatus == 4);\n        }\n\n        treeData[localLastSold].provideStatus = 0;\n\n        treeToken.safeMint(_owner, localLastSold);\n\n        return localLastSold;\n    }\n\n    /**\n     * @dev Request to buy a tree with a specific Id already planted and this function transfer ownership to funder\n     * This function is called only by the regularSell contract\n     * @param _treeId Tree with special Id (The Id must be larger than the last tree sold)\n     * @param _owner Owner of a new tree sold in Regular\n     */\n    function requestRegularTree(uint256 _treeId, address _owner)\n        external\n        onlyRegularSellContract\n    {\n        TreeStruct storage tree = treeData[_treeId];\n\n        require(\n            tree.treeStatus == 4 && tree.provideStatus == 4,\n            \"tree must be planted\"\n        );\n\n        tree.provideStatus = 0;\n\n        treeToken.safeMint(_owner, _treeId);\n    }\n}\n",
  "sourcePath": "/home/ali/Desktop/treejer/contract/contracts/tree/TreeFactory.sol",
  "compiler": {
    "name": "solc",
    "version": "0.8.6+commit.11564f7e.Emscripten.clang"
  },
  "schemaVersion": "3.4.1",
  "updatedAt": "2021-08-13T05:36:08.160Z",
  "networkType": "ethereum",
  "devdoc": {
    "kind": "dev",
    "methods": {
      "mintRegularTrees(uint256,address)": {
        "details": "Transfer ownership of trees purchased by funders and Update the last tree sold This function is called only by the regularSell contract",
        "params": {
          "_lastSold": "The last tree sold in the regular",
          "_owner": "Owner of a new tree sold in Regular"
        },
        "returns": {
          "_0": "The last tree sold after update"
        }
      },
      "regularPlantTree(string,uint64,uint16)": {
        "details": "This function is called by planter who have planted a new tree The planter enters the information of the new tree Information is stored in The {regularTrees} mapping And finally the tree is waiting for approval",
        "params": {
          "_birthDate": "birthDate of the tree",
          "_countryCode": "Code of the country where the tree was planted",
          "_treeSpecs": "//TODO: what is _treeSpecs ??"
        }
      },
      "requestRegularTree(uint256,address)": {
        "details": "Request to buy a tree with a specific Id already planted and this function transfer ownership to funder This function is called only by the regularSell contract",
        "params": {
          "_owner": "Owner of a new tree sold in Regular",
          "_treeId": "Tree with special Id (The Id must be larger than the last tree sold)"
        }
      },
      "verifyRegularPlant(uint256,bool)": {
        "details": "In this function, the admin approves or rejects the pending trees After calling this function, if the tree is approved the tree information will be transferred to the {treeData}",
        "params": {
          "_isVerified": "Tree approved or not",
          "_regularTreeId": "_regularTreeId"
        }
      }
    },
    "version": 1
  },
  "userdoc": {
    "kind": "user",
    "methods": {
      "isTrustedForwarder(address)": {
        "notice": "return if the forwarder is trusted to forward relayed transactions to us. the forwarder is required to verify the sender's signature, and verify the call is not a replay."
      }
    },
    "version": 1
  }
}