{
  "contractName": "TreeAttribute",
  "abi": [
    {
      "anonymous": false,
      "inputs": [
        {
          "indexed": false,
          "internalType": "address",
          "name": "buyer",
          "type": "address"
        },
        {
          "indexed": false,
          "internalType": "uint8",
          "name": "rank",
          "type": "uint8"
        }
      ],
      "name": "BuyerRankSet",
      "type": "event"
    },
    {
      "anonymous": false,
      "inputs": [
        {
          "indexed": false,
          "internalType": "uint256",
          "name": "treeId",
          "type": "uint256"
        }
      ],
      "name": "TreeAttributesGenerated",
      "type": "event"
    },
    {
      "anonymous": false,
      "inputs": [
        {
          "indexed": false,
          "internalType": "uint256",
          "name": "treeId",
          "type": "uint256"
        }
      ],
      "name": "TreeAttributesNotGenerated",
      "type": "event"
    },
    {
      "inputs": [],
      "name": "accessRestriction",
      "outputs": [
        {
          "internalType": "contract IAccessRestriction",
          "name": "",
          "type": "address"
        }
      ],
      "stateMutability": "view",
      "type": "function",
      "constant": true
    },
    {
      "inputs": [
        {
          "internalType": "uint32",
          "name": "",
          "type": "uint32"
        }
      ],
      "name": "generatedAttributes",
      "outputs": [
        {
          "internalType": "uint32",
          "name": "",
          "type": "uint32"
        }
      ],
      "stateMutability": "view",
      "type": "function",
      "constant": true
    },
    {
      "inputs": [],
      "name": "isTreeAttribute",
      "outputs": [
        {
          "internalType": "bool",
          "name": "",
          "type": "bool"
        }
      ],
      "stateMutability": "view",
      "type": "function",
      "constant": true
    },
    {
      "inputs": [
        {
          "internalType": "address",
          "name": "",
          "type": "address"
        }
      ],
      "name": "rankOf",
      "outputs": [
        {
          "internalType": "uint8",
          "name": "",
          "type": "uint8"
        }
      ],
      "stateMutability": "view",
      "type": "function",
      "constant": true
    },
    {
      "inputs": [
        {
          "internalType": "uint32",
          "name": "",
          "type": "uint32"
        }
      ],
      "name": "reservedAttributes",
      "outputs": [
        {
          "internalType": "uint8",
          "name": "",
          "type": "uint8"
        }
      ],
      "stateMutability": "view",
      "type": "function",
      "constant": true
    },
    {
      "inputs": [
        {
          "internalType": "uint256",
          "name": "",
          "type": "uint256"
        }
      ],
      "name": "treeAttributes",
      "outputs": [
        {
          "internalType": "uint32",
          "name": "treeType",
          "type": "uint32"
        },
        {
          "internalType": "uint32",
          "name": "groundType",
          "type": "uint32"
        },
        {
          "internalType": "uint32",
          "name": "trunkColor",
          "type": "uint32"
        },
        {
          "internalType": "uint32",
          "name": "crownColor",
          "type": "uint32"
        },
        {
          "internalType": "uint32",
          "name": "groundColor",
          "type": "uint32"
        },
        {
          "internalType": "uint32",
          "name": "specialEffects",
          "type": "uint32"
        },
        {
          "internalType": "uint32",
          "name": "universalCode",
          "type": "uint32"
        },
        {
          "internalType": "uint32",
          "name": "exists",
          "type": "uint32"
        }
      ],
      "stateMutability": "view",
      "type": "function",
      "constant": true
    },
    {
      "inputs": [],
      "name": "treeFactory",
      "outputs": [
        {
          "internalType": "contract ITreeFactory",
          "name": "",
          "type": "address"
        }
      ],
      "stateMutability": "view",
      "type": "function",
      "constant": true
    },
    {
      "inputs": [
        {
          "internalType": "address",
          "name": "_accessRestrictionAddress",
          "type": "address"
        }
      ],
      "name": "initialize",
      "outputs": [],
      "stateMutability": "nonpayable",
      "type": "function"
    },
    {
      "inputs": [
        {
          "internalType": "address",
          "name": "_address",
          "type": "address"
        }
      ],
      "name": "setTreeFactoryAddress",
      "outputs": [],
      "stateMutability": "nonpayable",
      "type": "function"
    },
    {
      "inputs": [
        {
          "internalType": "uint32",
          "name": "generatedCode",
          "type": "uint32"
        }
      ],
      "name": "reserveTreeAttributes",
      "outputs": [],
      "stateMutability": "nonpayable",
      "type": "function"
    },
    {
      "inputs": [
        {
          "internalType": "uint32",
          "name": "generatedCode",
          "type": "uint32"
        }
      ],
      "name": "freeReserveTreeAttributes",
      "outputs": [],
      "stateMutability": "nonpayable",
      "type": "function"
    },
    {
      "inputs": [
        {
          "internalType": "uint256",
          "name": "treeId",
          "type": "uint256"
        },
        {
          "internalType": "uint32",
          "name": "generatedCode",
          "type": "uint32"
        }
      ],
      "name": "setTreeAttributesByAdmin",
      "outputs": [],
      "stateMutability": "nonpayable",
      "type": "function"
    },
    {
      "inputs": [
        {
          "internalType": "uint256",
          "name": "treeId",
          "type": "uint256"
        },
        {
          "internalType": "uint256",
          "name": "paidAmount",
          "type": "uint256"
        }
      ],
      "name": "createTreeAttributes",
      "outputs": [
        {
          "internalType": "bool",
          "name": "",
          "type": "bool"
        }
      ],
      "stateMutability": "nonpayable",
      "type": "function"
    },
    {
      "inputs": [
        {
          "internalType": "address",
          "name": "buyer",
          "type": "address"
        },
        {
          "internalType": "uint256",
          "name": "treejerSpent",
          "type": "uint256"
        },
        {
          "internalType": "uint256",
          "name": "walletSpent",
          "type": "uint256"
        },
        {
          "internalType": "uint64",
          "name": "treesOwned",
          "type": "uint64"
        },
        {
          "internalType": "uint64",
          "name": "walletSpentCount",
          "type": "uint64"
        }
      ],
      "name": "setBuyerRank",
      "outputs": [],
      "stateMutability": "nonpayable",
      "type": "function"
    }
  ],
  "bytecode": "0x608060405234801561001057600080fd5b506121ee806100206000396000f3fe608060405234801561001057600080fd5b50600436106100ea5760003560e01c8063786354a61161008c578063ac689ec311610066578063ac689ec3146102bd578063b55c0a83146102d0578063c4d66de81461030b578063d6762c4a1461031e57600080fd5b8063786354a6146101c5578063874c1daf1461028757806389e2af18146102aa57600080fd5b8063421ef6d4116100c8578063421ef6d41461012a578063448e5d2b1461015a57806346efcdc11461018f5780635cd29886146101b257600080fd5b80630bf351f8146100ef57806329769253146101045780632a4ddf6d14610117575b600080fd5b6101026100fd366004611cc8565b610338565b005b610102610112366004611dc3565b61043b565b610102610125366004611d97565b61053d565b60015461013d906001600160a01b031681565b6040516001600160a01b0390911681526020015b60405180910390f35b61017d610168366004611dc3565b60056020526000908152604090205460ff1681565b60405160ff9091168152602001610151565b6000546101a29062010000900460ff1681565b6040519015158152602001610151565b6101a26101c0366004611d75565b610a15565b6102386101d3366004611d5c565b60036020526000908152604090205463ffffffff808216916401000000008104821691680100000000000000008204811691600160601b8104821691600160801b8204811691600160a01b8104821691600160c01b8204811691600160e01b90041688565b6040805163ffffffff998a16815297891660208901529588169587019590955292861660608601529085166080850152841660a0840152831660c083015290911660e082015261010001610151565b61017d610295366004611cc8565b60026020526000908152604090205460ff1681565b6101026102b8366004611dc3565b610ccf565b6101026102cb366004611ce3565b610dd2565b6102f66102de366004611dc3565b60046020526000908152604090205463ffffffff1681565b60405163ffffffff9091168152602001610151565b610102610319366004611cc8565b610f88565b60005461013d90630100000090046001600160a01b031681565b600054604051632104fb0560e21b815233600482015263010000009091046001600160a01b031690638413ec149060240160006040518083038186803b15801561038157600080fd5b505afa158015610395573d6000803e3d6000fd5b505050506000819050806001600160a01b031663e0eb4eb96040518163ffffffff1660e01b815260040160206040518083038186803b1580156103d757600080fd5b505afa1580156103eb573d6000803e3d6000fd5b505050506040513d601f19601f8201168201806040525081019061040f9190611d3a565b61041857600080fd5b600180546001600160a01b0319166001600160a01b039290921691909117905550565b60005460405163bfe6b9a960e01b815233600482015263010000009091046001600160a01b03169063bfe6b9a99060240160006040518083038186803b15801561048457600080fd5b505afa158015610498573d6000803e3d6000fd5b50505063ffffffff821660009081526005602052604090205460ff16600114905061050a5760405162461bcd60e51b815260206004820181905260248201527f74686520747265652061747472696275746573206e6f7420726573657276656460448201526064015b60405180910390fd5b63ffffffff166000908152600460209081526040808320805463ffffffff1916905560059091529020805460ff19169055565b60005460405163bfe6b9a960e01b815233600482015263010000009091046001600160a01b03169063bfe6b9a99060240160006040518083038186803b15801561058657600080fd5b505afa15801561059a573d6000803e3d6000fd5b5050505063ffffffff8181166000908152600460205260409020541615806105da575063ffffffff811660009081526005602052604090205460ff166001145b6106265760405162461bcd60e51b815260206004820152601d60248201527f74686520747265652061747472696275746573206172652074616b656e0000006044820152606401610501565b600082815260036020526040902054600160c01b900463ffffffff161561068f5760405162461bcd60e51b815260206004820152601e60248201527f7472656520617474726962757465732061726520736574206265666f726500006044820152606401610501565b63ffffffff81166000908152600460208181526040808420805463ffffffff1916600117905560058252808420805460ff19169055805160c080820183526006808352600383860181905283850187905260608401879052608084015260a0830195909552825185815260e081019093529094939192830190803683370190505090508260005b60068163ffffffff1610156107b85761074b82858363ffffffff1660068110610741576107416121a2565b60200201516110e9565b838263ffffffff1681518110610763576107636121a2565b63ffffffff9283166020918202929092010152849082166006811061078a5761078a6121a2565b602002015161079a906002611f19565b6107a49083611e57565b9150806107b081612152565b915050610716565b50604051806101000160405280836000815181106107d8576107d86121a2565b602002602001015163ffffffff168152602001836001815181106107fe576107fe6121a2565b602002602001015163ffffffff16815260200183600281518110610824576108246121a2565b602002602001015163ffffffff1681526020018360038151811061084a5761084a6121a2565b602002602001015163ffffffff16815260200183600481518110610870576108706121a2565b602002602001015163ffffffff16815260200183600581518110610896576108966121a2565b602002602001015163ffffffff1681526020018563ffffffff168152602001600163ffffffff168152506003600087815260200190815260200160002060008201518160000160006101000a81548163ffffffff021916908363ffffffff16021790555060208201518160000160046101000a81548163ffffffff021916908363ffffffff16021790555060408201518160000160086101000a81548163ffffffff021916908363ffffffff160217905550606082015181600001600c6101000a81548163ffffffff021916908363ffffffff16021790555060808201518160000160106101000a81548163ffffffff021916908363ffffffff16021790555060a08201518160000160146101000a81548163ffffffff021916908363ffffffff16021790555060c08201518160000160186101000a81548163ffffffff021916908363ffffffff16021790555060e082015181600001601c6101000a81548163ffffffff021916908363ffffffff1602179055509050505050505050565b600082815260036020526040812054600160e01b900463ffffffff1615610a7e5760405162461bcd60e51b815260206004820152601e60248201527f7472656520617474726962757465732061726520736574206265666f726500006044820152606401610501565b600154604051634d13e67d60e11b8152600481018590523360248201526001600160a01b0390911690639a27ccfa9060440160206040518083038186803b158015610ac857600080fd5b505afa158015610adc573d6000803e3d6000fd5b505050506040513d601f19601f82011682018060405250810190610b009190611d3a565b610b4c5760405162461bcd60e51b815260206004820152601a60248201527f6e6f206e65656420746f207472656520617474726962757465730000000000006044820152606401610501565b600160005b612710811015610c53576040805143602080830191909152600080356001600160e01b031916838501526044808401899052845180850390910181526064840185528051908301203360601b6bffffffffffffffffffffffff19166084850152609884015260b8830189905260d88084018690528451808503909101815260f89093019093528151910120905b6009811015610c3357610bfc3388610bf785601c61110d565b61113c565b93508315610c0957610c33565b610c15601c6002611f0a565b610c1f9083611e43565b915080610c2b81612137565b915050610bde565b508215610c405750610c53565b5080610c4b81612137565b915050610b51565b508015610c92576040518481527f7b0beeff91b466d396a030d3bc9aa08b615f761785566f170b4043050dd1c2139060200160405180910390a1610cc6565b6040518481527f1e6cc6ff2f54231b997f8c278077738189580fa7f6a31138364482a185b78b179060200160405180910390a15b90505b92915050565b60005460405163bfe6b9a960e01b815233600482015263010000009091046001600160a01b03169063bfe6b9a99060240160006040518083038186803b158015610d1857600080fd5b505afa158015610d2c573d6000803e3d6000fd5b5050505063ffffffff8181166000908152600460205260409020541615610d955760405162461bcd60e51b815260206004820152601d60248201527f74686520747265652061747472696275746573206172652074616b656e0000006044820152606401610501565b63ffffffff166000908152600460209081526040808320805463ffffffff191660019081179091556005909252909120805460ff19169091179055565b600054604051632104fb0560e21b815233600482015263010000009091046001600160a01b031690638413ec149060240160006040518083038186803b158015610e1b57600080fd5b505afa158015610e2f573d6000803e3d6000fd5b505050506000600485610e429190611e43565b610e4d90600a612089565b610e579082611dde565b9050610e6b670de0b6b3a764000085611e43565b610e76906002612089565b610e809082611dde565b9050610e9667ffffffffffffffff831682611dde565b9050610ea383600a6120d4565b610eb79067ffffffffffffffff1682611dde565b9050601e81118015610ec95750603d81105b15610ef6576001600160a01b0386166000908152600260205260409020805460ff19166001179055610f80565b60c9811015610f2a576001600160a01b0386166000908152600260208190526040909120805460ff19169091179055610f80565b6103e9811015610f5c576001600160a01b0386166000908152600260205260409020805460ff19166003179055610f80565b6001600160a01b0386166000908152600260205260409020805460ff191660041790555b505050505050565b600054610100900460ff1680610fa1575060005460ff16155b6110045760405162461bcd60e51b815260206004820152602e60248201527f496e697469616c697a61626c653a20636f6e747261637420697320616c72656160448201526d191e481a5b9a5d1a585b1a5e995960921b6064820152608401610501565b600054610100900460ff16158015611026576000805461ffff19166101011790555b6000829050806001600160a01b031663ba84fd696040518163ffffffff1660e01b815260040160206040518083038186803b15801561106457600080fd5b505afa158015611078573d6000803e3d6000fd5b505050506040513d601f19601f8201168201806040525081019061109c9190611d3a565b6110a557600080fd5b600080546001600160a01b0390921663010000000262010000600160b81b0319909216919091176201000017905580156110e5576000805461ff00191690555b5050565b60008060016110f9846002611f19565b6111039190612112565b9093169392505050565b600080600161111d846002611efa565b61112791906120fb565b8416905061113481611748565b949350505050565b6040805160c0810182526006808252600360208301819052600483850181905260608401526080830152600860a0830152825181815260e08101909352600092839181602001602082028036833701905050905060005b60068163ffffffff16101561122b576111be85848363ffffffff1660068110610741576107416121a2565b828263ffffffff16815181106111d6576111d66121a2565b63ffffffff928316602091820292909201015283908216600681106111fd576111fd6121a2565b602002015161120d906002611f19565b6112179086611e57565b94508061122381612152565b915050611193565b50606485111561128d5761125b8660008360058151811061124e5761124e6121a2565b60200260200101516117b1565b8160058151811061126e5761126e6121a2565b602002602001019063ffffffff16908163ffffffff16815250506112f6565b60328511156112af5761125b8660028360058151811061124e5761124e6121a2565b6112c88660038360058151811061124e5761124e6121a2565b816005815181106112db576112db6121a2565b602002602001019063ffffffff16908163ffffffff16815250505b60008160058151811061130b5761130b6121a2565b60200260200101516210000061132191906120a8565b82600481518110611334576113346121a2565b60200260200101516202000061134a91906120a8565b8360038151811061135d5761135d6121a2565b602002602001015161200061137291906120a8565b84600281518110611385576113856121a2565b602002602001015161020061139a91906120a8565b856001815181106113ad576113ad6121a2565b602002602001015160406113c191906120a8565b866000815181106113d4576113d46121a2565b60200260200101516113e69190611df6565b6113f09190611df6565b6113fa9190611df6565b6114049190611df6565b61140e9190611df6565b63ffffffff808216600090815260046020526040902054919250166116f15763ffffffff8116600090815260046020526040808220805463ffffffff1916600117905580516101008101909152835190918291859190611470576114706121a2565b602002602001015163ffffffff16815260200183600181518110611496576114966121a2565b602002602001015163ffffffff168152602001836002815181106114bc576114bc6121a2565b602002602001015163ffffffff168152602001836003815181106114e2576114e26121a2565b602002602001015163ffffffff16815260200183600481518110611508576115086121a2565b602002602001015163ffffffff1681526020018360058151811061152e5761152e6121a2565b602002602001015163ffffffff1681526020018263ffffffff168152602001600163ffffffff168152506003600088815260200190815260200160002060008201518160000160006101000a81548163ffffffff021916908363ffffffff16021790555060208201518160000160046101000a81548163ffffffff021916908363ffffffff16021790555060408201518160000160086101000a81548163ffffffff021916908363ffffffff160217905550606082015181600001600c6101000a81548163ffffffff021916908363ffffffff16021790555060808201518160000160106101000a81548163ffffffff021916908363ffffffff16021790555060a08201518160000160146101000a81548163ffffffff021916908363ffffffff16021790555060c08201518160000160186101000a81548163ffffffff021916908363ffffffff16021790555060e082015181600001601c6101000a81548163ffffffff021916908363ffffffff160217905550905050600060026000896001600160a01b03166001600160a01b0316815260200190815260200160002060006101000a81548160ff021916908360ff16021790555060019350505050611741565b63ffffffff8082166000908152600460205260408120805460019391929161171b91859116611df6565b92506101000a81548163ffffffff021916908363ffffffff160217905550600093505050505b9392505050565b600063ffffffff8211156117ad5760405162461bcd60e51b815260206004820152602660248201527f53616665436173743a2076616c756520646f65736e27742066697420696e203360448201526532206269747360d01b6064820152608401610501565b5090565b600080604051806102000160405280603261ffff168152602001606461ffff168152602001609661ffff16815260200160c861ffff16815260200160d261ffff16815260200160dc61ffff16815260200160e661ffff16815260200160eb61ffff16815260200160f061ffff16815260200160f561ffff16815260200160f861ffff16815260200160fb61ffff16815260200160fd61ffff16815260200160fe61ffff16815260200160ff61ffff16815260200161010061ffff1681525090506000604051806102000160405280602a61ffff168152602001605461ffff168152602001607e61ffff16815260200160a861ffff16815260200160b561ffff16815260200160c261ffff16815260200160cf61ffff16815260200160d861ffff16815260200160e161ffff16815260200160ea61ffff16815260200160f061ffff16815260200160f661ffff16815260200160fa61ffff16815260200160fc61ffff16815260200160fe61ffff16815260200161010061ffff1681525090506000604051806102000160405280602861ffff168152602001605061ffff168152602001607861ffff16815260200160a061ffff16815260200160ad61ffff16815260200160ba61ffff16815260200160c761ffff16815260200160d061ffff16815260200160d961ffff16815260200160e261ffff16815260200160e961ffff16815260200160f061ffff16815260200160f461ffff16815260200160f861ffff16815260200160fc61ffff16815260200161010061ffff1681525090506000604051806102000160405280602061ffff168152602001604061ffff168152602001605f61ffff168152602001607e61ffff168152602001608d61ffff168152602001609c61ffff16815260200160ab61ffff16815260200160b761ffff16815260200160c361ffff16815260200160cf61ffff16815260200160d961ffff16815260200160e361ffff16815260200160eb61ffff16815260200160f261ffff16815260200160f961ffff16815260200161010061ffff1681525090506000604051806102000160405280601961ffff168152602001603261ffff168152602001604b61ffff168152602001606461ffff168152602001607361ffff168152602001608261ffff168152602001609161ffff168152602001609c61ffff16815260200160a761ffff16815260200160b261ffff16815260200160bc61ffff16815260200160c661ffff16815260200160d661ffff16815260200160e461ffff16815260200160f261ffff16815260200161010061ffff168152509050611b75611c61565b6001600160a01b038a16600090815260026020526040812054611b9c908b9060ff16611e1e565b905060ff8116611bae57869150611bee565b8060ff1660011415611bc257859150611bee565b8060ff1660021415611bd657849150611bee565b8060ff1660031415611bea57839150611bee565b8291505b60005b60108163ffffffff161015611c4f57828163ffffffff1660108110611c1857611c186121a2565b602002015161ffff168a63ffffffff161015611c3d5797506117419650505050505050565b80611c4781612152565b915050611bf1565b5060009b9a5050505050505050505050565b6040518061020001604052806010906020820280368337509192915050565b80356001600160a01b0381168114611c9757600080fd5b919050565b803563ffffffff81168114611c9757600080fd5b803567ffffffffffffffff81168114611c9757600080fd5b600060208284031215611cda57600080fd5b61174182611c80565b600080600080600060a08688031215611cfb57600080fd5b611d0486611c80565b94506020860135935060408601359250611d2060608701611cb0565b9150611d2e60808701611cb0565b90509295509295909350565b600060208284031215611d4c57600080fd5b81518015158114610cc657600080fd5b600060208284031215611d6e57600080fd5b5035919050565b60008060408385031215611d8857600080fd5b50508035926020909101359150565b60008060408385031215611daa57600080fd5b82359150611dba60208401611c9c565b90509250929050565b600060208284031215611dd557600080fd5b61174182611c9c565b60008219821115611df157611df1612176565b500190565b600063ffffffff808316818516808303821115611e1557611e15612176565b01949350505050565b600060ff821660ff84168060ff03821115611e3b57611e3b612176565b019392505050565b600082611e5257611e5261218c565b500490565b600063ffffffff80841680611e6e57611e6e61218c565b92169190910492915050565b600181815b80851115611eb5578160001904821115611e9b57611e9b612176565b80851615611ea857918102915b93841c9390800290611e7f565b509250929050565b600181815b80851115611eb5578163ffffffff04821115611ee057611ee0612176565b80851615611eed57918102915b93841c9390800290611ec2565b600061174161ffff841683611f2e565b600061174160ff841683611f2e565b600061174160ff841663ffffffff8416611fcf565b600082611f3d57506001610cc9565b81611f4a57506000610cc9565b8160018114611f605760028114611f6a57611f86565b6001915050610cc9565b60ff841115611f7b57611f7b612176565b50506001821b610cc9565b5060208310610133831016604e8410600b8410161715611fa9575081810a610cc9565b611fb38383611e7a565b8060001904821115611fc757611fc7612176565b029392505050565b600082611fde57506001610cc9565b81611feb57506000610cc9565b8160018114611f60576002811461200157612032565b60ff84111561201257612012612176565b6001841b915063ffffffff82111561202c5761202c612176565b50610cc9565b5060208310610133831016604e8410600b8410161715612069575081810a63ffffffff81111561206457612064612176565b610cc9565b6120738383611ebd565b8063ffffffff04821115611fc757611fc7612176565b60008160001904831182151516156120a3576120a3612176565b500290565b600063ffffffff808316818516818304811182151516156120cb576120cb612176565b02949350505050565b600067ffffffffffffffff808316818516818304811182151516156120cb576120cb612176565b60008282101561210d5761210d612176565b500390565b600063ffffffff8381169083168181101561212f5761212f612176565b039392505050565b600060001982141561214b5761214b612176565b5060010190565b600063ffffffff8083168181141561216c5761216c612176565b6001019392505050565b634e487b7160e01b600052601160045260246000fd5b634e487b7160e01b600052601260045260246000fd5b634e487b7160e01b600052603260045260246000fdfea2646970667358221220cd5b086136814850d7866199a224e552ac52bbf1579e3a499016eccd7c32779d64736f6c63430008060033",
  "immutableReferences": {},
  "source": "// // SPDX-License-Identifier: MIT\n\npragma solidity ^0.8.6;\n\nimport \"@openzeppelin/contracts-upgradeable/proxy/utils/Initializable.sol\";\nimport \"@openzeppelin/contracts-upgradeable/utils/math/SafeCastUpgradeable.sol\";\nimport \"../access/IAccessRestriction.sol\";\nimport \"../tree/ITreeFactory.sol\";\n\ncontract TreeAttribute is Initializable {\n    using SafeCastUpgradeable for uint256;\n    bool public isTreeAttribute;\n    IAccessRestriction public accessRestriction;\n    ITreeFactory public treeFactory;\n    //parameters of randomTreeGeneration\n    struct Attributes {\n        uint32 treeType;\n        uint32 groundType;\n        uint32 trunkColor;\n        uint32 crownColor;\n        uint32 groundColor;\n        uint32 specialEffects;\n        uint32 universalCode;\n        uint32 exists;\n    }\n\n    //maping from buyer address to his/her rank\n    mapping(address => uint8) public rankOf;\n    // mapping from treeId to tree attributes\n    mapping(uint256 => Attributes) public treeAttributes;\n    // mapping from unique attributes id to number of generations\n    mapping(uint32 => uint32) public generatedAttributes;\n    mapping(uint32 => uint8) public reservedAttributes;\n\n    event BuyerRankSet(address buyer, uint8 rank);\n    event TreeAttributesGenerated(uint256 treeId);\n    event TreeAttributesNotGenerated(uint256 treeId);\n\n    modifier onlyAdmin() {\n        accessRestriction.ifAdmin(msg.sender);\n        _;\n    }\n    modifier onlyAdminOrCommunityGifts() {\n        accessRestriction.ifAdminOrCommunityGifts(msg.sender);\n        _;\n    }\n    modifier ifNotPaused() {\n        accessRestriction.ifNotPaused();\n        _;\n    }\n\n    function initialize(address _accessRestrictionAddress) public initializer {\n        IAccessRestriction candidateContract = IAccessRestriction(\n            _accessRestrictionAddress\n        );\n        require(candidateContract.isAccessRestriction());\n        isTreeAttribute = true;\n        accessRestriction = candidateContract;\n    }\n\n    function setTreeFactoryAddress(address _address) external onlyAdmin {\n        ITreeFactory candidateContract = ITreeFactory(_address);\n        require(candidateContract.isTreeFactory());\n        treeFactory = candidateContract;\n    }\n\n    function reserveTreeAttributes(uint32 generatedCode)\n        external\n        onlyAdminOrCommunityGifts\n    {\n        require(\n            generatedAttributes[generatedCode] == 0,\n            \"the tree attributes are taken\"\n        );\n        generatedAttributes[generatedCode] = 1;\n        reservedAttributes[generatedCode] = 1;\n    }\n\n    function freeReserveTreeAttributes(uint32 generatedCode)\n        external\n        onlyAdminOrCommunityGifts\n    {\n        require(\n            reservedAttributes[generatedCode] == 1,\n            \"the tree attributes not reserved\"\n        );\n\n        generatedAttributes[generatedCode] = 0;\n        reservedAttributes[generatedCode] = 0;\n    }\n\n    function setTreeAttributesByAdmin(uint256 treeId, uint32 generatedCode)\n        external\n        onlyAdminOrCommunityGifts\n    {\n        require(\n            generatedAttributes[generatedCode] == 0 ||\n                reservedAttributes[generatedCode] == 1,\n            \"the tree attributes are taken\"\n        );\n        require(\n            treeAttributes[treeId].universalCode == 0,\n            \"tree attributes are set before\"\n        );\n        generatedAttributes[generatedCode] = 1;\n        reservedAttributes[generatedCode] = 0;\n        uint8[6] memory bitCounts = [6, 3, 4, 4, 3, 4];\n        uint32[] memory results = new uint32[](6);\n\n        uint32 tempGeneratedCode = generatedCode;\n\n        for (uint32 i = 0; i < bitCounts.length; i++) {\n            results[i] = getFirstN32(tempGeneratedCode, bitCounts[i]);\n\n            tempGeneratedCode = tempGeneratedCode / uint32(2)**bitCounts[i];\n        }\n        treeAttributes[treeId] = Attributes(\n            results[0],\n            results[1],\n            results[2],\n            results[3],\n            results[4],\n            results[5],\n            generatedCode,\n            1\n        );\n    }\n\n    function calcRandAttributes(\n        address buyer,\n        uint256 treeId,\n        uint32 rand\n    ) private returns (bool) {\n        uint8[6] memory bitCounts = [6, 3, 4, 4, 3, 8];\n        uint32[] memory results = new uint32[](6);\n        for (uint32 i = 0; i < bitCounts.length; i++) {\n            results[i] = getFirstN32(rand, bitCounts[i]);\n            rand = rand / (uint32(2)**bitCounts[i]);\n        }\n        if (treeId > 100) {\n            results[5] = getSpecialEffect(buyer, 0, results[5]);\n        } else if (treeId > 50) {\n            results[5] = getSpecialEffect(buyer, 2, results[5]);\n        } else {\n            results[5] = getSpecialEffect(buyer, 3, results[5]);\n        }\n\n        //check Uniqueness\n        uint32 generatedCode = results[0] +\n            results[1] *\n            64 +\n            results[2] *\n            512 +\n            results[3] *\n            8192 +\n            results[4] *\n            131072 +\n            results[5] *\n            1048576;\n        if (generatedAttributes[generatedCode] == 0) {\n            generatedAttributes[generatedCode] = 1;\n            treeAttributes[treeId] = Attributes(\n                results[0],\n                results[1],\n                results[2],\n                results[3],\n                results[4],\n                results[5],\n                generatedCode,\n                1\n            );\n            rankOf[buyer] = 0;\n            return true;\n        }\n        generatedAttributes[generatedCode] += 1;\n        return false;\n    }\n\n    //the function creates\n    function createTreeAttributes(uint256 treeId, uint256 paidAmount)\n        external\n        returns (bool)\n    {\n        require(\n            treeAttributes[treeId].exists == 0,\n            \"tree attributes are set before\"\n        );\n\n        require(\n            treeFactory.checkMintStatus(treeId, msg.sender),\n            \"no need to tree attributes\"\n        );\n\n        bool flag = true;\n        for (uint256 j = 0; j < 10000; j++) {\n            uint256 rand = uint256(\n                keccak256(\n                    abi.encodePacked(\n                        msg.sender,\n                        keccak256(\n                            abi.encodePacked(block.number, msg.sig, paidAmount)\n                        ),\n                        treeId,\n                        j\n                    )\n                )\n            );\n            for (uint256 i = 0; i < 9; i++) {\n                flag = calcRandAttributes(\n                    msg.sender,\n                    treeId,\n                    getFirstN(rand, 28)\n                );\n                if (flag) {\n                    break;\n                }\n                rand = rand / (uint256(2)**28);\n            }\n            if (flag) {\n                break;\n            }\n        }\n        if (flag) {\n            emit TreeAttributesGenerated(treeId);\n        } else {\n            emit TreeAttributesNotGenerated(treeId);\n        }\n\n        return flag;\n    }\n\n    //to get n lowest bits of a uint256\n    function getFirstN(uint256 rnd, uint16 n) private pure returns (uint32) {\n        uint256 x = rnd & ((uint256(2)**n) - 1);\n\n        return x.toUint32();\n    }\n\n    //to get n lowest bits of a uint32\n    function getFirstN32(uint32 rnd, uint8 n) private pure returns (uint32) {\n        uint32 firN = (uint32(2)**n) - 1;\n        return rnd & firN;\n    }\n\n    // the function Tries to Calculate the rank of buyer based on transaction statistics of his/her wallet\n    function setBuyerRank(\n        address buyer,\n        uint256 treejerSpent,\n        uint256 walletSpent,\n        uint64 treesOwned,\n        uint64 walletSpentCount\n    ) external onlyAdmin {\n        uint256 points;\n        //each 0.004 ether spent in treejer has 10 points\n        points += (treejerSpent / (4 * 1 wei)) * 10;\n        //each 1 ether spent of wallet(sent or withdraw) has 2 points\n        points += (walletSpent / (1 * 1 ether)) * 2;\n        // each 1 send or withdraw of wallet has 1 point\n        points += walletSpentCount;\n        //each tree owned by buyer has 10 points\n        points += treesOwned * 10;\n        //points under 31 is rank of zero\n\n        if (points > 30 && points < 61) {\n            rankOf[buyer] = 1; //points under 61  is rank 1\n        } else if (points < 201) {\n            rankOf[buyer] = 2; //points under 201 is rank 2\n        } else if (points < 1001) {\n            rankOf[buyer] = 3; //points under 1001 is rank 3\n        } else {\n            rankOf[buyer] = 4; //points above 1000 is rank 4 or VIP\n        }\n    }\n\n    // The function manipulates probability of rare special effects based on rank of buyer\n    function getSpecialEffect(\n        address buyer,\n        uint8 bonusRank,\n        uint32 n\n    ) private view returns (uint32) {\n        uint16[16] memory specialEffectsRank0 = [\n            50,\n            100,\n            150,\n            200,\n            210,\n            220,\n            230,\n            235,\n            240,\n            245,\n            248,\n            251,\n            253,\n            254,\n            255,\n            256\n        ];\n        uint16[16] memory specialEffectsRank1 = [\n            42,\n            84,\n            126,\n            168,\n            181,\n            194,\n            207,\n            216,\n            225,\n            234,\n            240,\n            246,\n            250,\n            252,\n            254,\n            256\n        ];\n        uint16[16] memory specialEffectsRank2 = [\n            40,\n            80,\n            120,\n            160,\n            173,\n            186,\n            199,\n            208,\n            217,\n            226,\n            233,\n            240,\n            244,\n            248,\n            252,\n            256\n        ];\n        uint16[16] memory specialEffectsRank3 = [\n            32,\n            64,\n            95,\n            126,\n            141,\n            156,\n            171,\n            183,\n            195,\n            207,\n            217,\n            227,\n            235,\n            242,\n            249,\n            256\n        ];\n        uint16[16] memory specialEffectsVIP = [\n            25,\n            50,\n            75,\n            100,\n            115,\n            130,\n            145,\n            156,\n            167,\n            178,\n            188,\n            198,\n            214,\n            228,\n            242,\n            256\n        ];\n        uint16[16] memory suitedEffectStatistics;\n        uint8 rank = rankOf[buyer] + bonusRank; //bonus rank for special trees at auction\n        if (rank == 0) {\n            suitedEffectStatistics = specialEffectsRank0;\n        } else if (rank == 1) {\n            suitedEffectStatistics = specialEffectsRank1;\n        } else if (rank == 2) {\n            suitedEffectStatistics = specialEffectsRank2;\n        } else if (rank == 3) {\n            suitedEffectStatistics = specialEffectsRank3;\n        } else {\n            suitedEffectStatistics = specialEffectsVIP;\n        }\n        for (uint32 i = 0; i < suitedEffectStatistics.length; i++) {\n            if (n < suitedEffectStatistics[i]) {\n                return i;\n            }\n        }\n        return 0;\n    }\n}\n",
  "sourcePath": "/home/ali/Desktop/treejer/contract/contracts/tree/TreeAttribute.sol",
  "compiler": {
    "name": "solc",
    "version": "0.8.6+commit.11564f7e.Emscripten.clang"
  },
  "schemaVersion": "3.4.1",
  "updatedAt": "2021-08-13T05:35:08.636Z",
  "networkType": "ethereum",
  "devdoc": {
    "kind": "dev",
    "methods": {},
    "version": 1
  },
  "userdoc": {
    "kind": "user",
    "methods": {},
    "version": 1
  }
}