{
  "contractName": "TreeAuction",
  "abi": [
    {
      "anonymous": false,
      "inputs": [
        {
          "indexed": false,
          "internalType": "uint256",
          "name": "auctionId",
          "type": "uint256"
        }
      ],
      "name": "AuctionCreated",
      "type": "event"
    },
    {
      "anonymous": false,
      "inputs": [
        {
          "indexed": false,
          "internalType": "uint256",
          "name": "auctionId",
          "type": "uint256"
        },
        {
          "indexed": false,
          "internalType": "uint256",
          "name": "newAuctionEndTime",
          "type": "uint256"
        }
      ],
      "name": "AuctionEndTimeIncreased",
      "type": "event"
    },
    {
      "anonymous": false,
      "inputs": [
        {
          "indexed": false,
          "internalType": "uint256",
          "name": "auctionId",
          "type": "uint256"
        },
        {
          "indexed": false,
          "internalType": "uint256",
          "name": "treeId",
          "type": "uint256"
        }
      ],
      "name": "AuctionEnded",
      "type": "event"
    },
    {
      "anonymous": false,
      "inputs": [
        {
          "indexed": false,
          "internalType": "uint256",
          "name": "auctionId",
          "type": "uint256"
        },
        {
          "indexed": false,
          "internalType": "uint256",
          "name": "treeId",
          "type": "uint256"
        },
        {
          "indexed": false,
          "internalType": "address",
          "name": "winner",
          "type": "address"
        },
        {
          "indexed": false,
          "internalType": "uint256",
          "name": "amount",
          "type": "uint256"
        }
      ],
      "name": "AuctionSettled",
      "type": "event"
    },
    {
      "anonymous": false,
      "inputs": [
        {
          "indexed": false,
          "internalType": "uint256",
          "name": "auctionId",
          "type": "uint256"
        },
        {
          "indexed": false,
          "internalType": "uint256",
          "name": "treeId",
          "type": "uint256"
        },
        {
          "indexed": false,
          "internalType": "address",
          "name": "bidder",
          "type": "address"
        },
        {
          "indexed": false,
          "internalType": "uint256",
          "name": "amount",
          "type": "uint256"
        }
      ],
      "name": "HighestBidIncreased",
      "type": "event"
    },
    {
      "inputs": [],
      "name": "accessRestriction",
      "outputs": [
        {
          "internalType": "contract IAccessRestriction",
          "name": "",
          "type": "address"
        }
      ],
      "stateMutability": "view",
      "type": "function",
      "constant": true
    },
    {
      "inputs": [
        {
          "internalType": "uint256",
          "name": "",
          "type": "uint256"
        }
      ],
      "name": "auctions",
      "outputs": [
        {
          "internalType": "uint256",
          "name": "treeId",
          "type": "uint256"
        },
        {
          "internalType": "address",
          "name": "bidder",
          "type": "address"
        },
        {
          "internalType": "uint64",
          "name": "startDate",
          "type": "uint64"
        },
        {
          "internalType": "uint64",
          "name": "endDate",
          "type": "uint64"
        },
        {
          "internalType": "uint256",
          "name": "highestBid",
          "type": "uint256"
        },
        {
          "internalType": "uint256",
          "name": "bidInterval",
          "type": "uint256"
        }
      ],
      "stateMutability": "view",
      "type": "function",
      "constant": true
    },
    {
      "inputs": [],
      "name": "financialModel",
      "outputs": [
        {
          "internalType": "contract IFinancialModel",
          "name": "",
          "type": "address"
        }
      ],
      "stateMutability": "view",
      "type": "function",
      "constant": true
    },
    {
      "inputs": [],
      "name": "isTreeAuction",
      "outputs": [
        {
          "internalType": "bool",
          "name": "",
          "type": "bool"
        }
      ],
      "stateMutability": "view",
      "type": "function",
      "constant": true
    },
    {
      "inputs": [
        {
          "internalType": "address",
          "name": "forwarder",
          "type": "address"
        }
      ],
      "name": "isTrustedForwarder",
      "outputs": [
        {
          "internalType": "bool",
          "name": "",
          "type": "bool"
        }
      ],
      "stateMutability": "view",
      "type": "function",
      "constant": true
    },
    {
      "inputs": [],
      "name": "treeFactory",
      "outputs": [
        {
          "internalType": "contract ITreeFactory",
          "name": "",
          "type": "address"
        }
      ],
      "stateMutability": "view",
      "type": "function",
      "constant": true
    },
    {
      "inputs": [],
      "name": "trustedForwarder",
      "outputs": [
        {
          "internalType": "address",
          "name": "",
          "type": "address"
        }
      ],
      "stateMutability": "view",
      "type": "function",
      "constant": true
    },
    {
      "inputs": [],
      "name": "versionRecipient",
      "outputs": [
        {
          "internalType": "string",
          "name": "",
          "type": "string"
        }
      ],
      "stateMutability": "pure",
      "type": "function",
      "constant": true
    },
    {
      "inputs": [],
      "name": "wethFunds",
      "outputs": [
        {
          "internalType": "contract IWethFunds",
          "name": "",
          "type": "address"
        }
      ],
      "stateMutability": "view",
      "type": "function",
      "constant": true
    },
    {
      "inputs": [],
      "name": "wethToken",
      "outputs": [
        {
          "internalType": "contract IERC20Upgradeable",
          "name": "",
          "type": "address"
        }
      ],
      "stateMutability": "view",
      "type": "function",
      "constant": true
    },
    {
      "inputs": [
        {
          "internalType": "address",
          "name": "_accessRestrictionAddress",
          "type": "address"
        }
      ],
      "name": "initialize",
      "outputs": [],
      "stateMutability": "nonpayable",
      "type": "function"
    },
    {
      "inputs": [
        {
          "internalType": "address",
          "name": "_address",
          "type": "address"
        }
      ],
      "name": "setTrustedForwarder",
      "outputs": [],
      "stateMutability": "nonpayable",
      "type": "function"
    },
    {
      "inputs": [
        {
          "internalType": "address",
          "name": "_address",
          "type": "address"
        }
      ],
      "name": "setTreeFactoryAddress",
      "outputs": [],
      "stateMutability": "nonpayable",
      "type": "function"
    },
    {
      "inputs": [
        {
          "internalType": "address",
          "name": "_address",
          "type": "address"
        }
      ],
      "name": "setFinancialModelAddress",
      "outputs": [],
      "stateMutability": "nonpayable",
      "type": "function"
    },
    {
      "inputs": [
        {
          "internalType": "address",
          "name": "_address",
          "type": "address"
        }
      ],
      "name": "setWethFundsAddress",
      "outputs": [],
      "stateMutability": "nonpayable",
      "type": "function"
    },
    {
      "inputs": [
        {
          "internalType": "address",
          "name": "_address",
          "type": "address"
        }
      ],
      "name": "setWethTokenAddress",
      "outputs": [],
      "stateMutability": "nonpayable",
      "type": "function"
    },
    {
      "inputs": [
        {
          "internalType": "uint256",
          "name": "_treeId",
          "type": "uint256"
        },
        {
          "internalType": "uint64",
          "name": "_startDate",
          "type": "uint64"
        },
        {
          "internalType": "uint64",
          "name": "_endDate",
          "type": "uint64"
        },
        {
          "internalType": "uint256",
          "name": "_intialPrice",
          "type": "uint256"
        },
        {
          "internalType": "uint256",
          "name": "_bidInterval",
          "type": "uint256"
        }
      ],
      "name": "createAuction",
      "outputs": [],
      "stateMutability": "nonpayable",
      "type": "function"
    },
    {
      "inputs": [
        {
          "internalType": "uint256",
          "name": "_auctionId",
          "type": "uint256"
        },
        {
          "internalType": "uint256",
          "name": "_amount",
          "type": "uint256"
        }
      ],
      "name": "bid",
      "outputs": [],
      "stateMutability": "nonpayable",
      "type": "function"
    },
    {
      "inputs": [
        {
          "internalType": "uint256",
          "name": "_auctionId",
          "type": "uint256"
        }
      ],
      "name": "endAuction",
      "outputs": [],
      "stateMutability": "nonpayable",
      "type": "function"
    }
  ],
  "bytecode": "0x608060405234801561001057600080fd5b50611a00806100206000396000f3fe608060405234801561001057600080fd5b50600436106101215760003560e01c8063598647f8116100ad578063c4d66de811610071578063c4d66de814610331578063c56c367414610344578063d6762c4a14610351578063da74222814610369578063e787d40e1461037c57600080fd5b8063598647f8146102cc5780636acc9777146102df5780637da0a877146102f257806395b646031461030b578063b9a2de3a1461031e57600080fd5b8063486ff0cd116100f4578063486ff0cd146101915780634b57b0be146101d05780634fe044c4146101e3578063571a26a0146101f6578063572b6c051461029457600080fd5b806309172ea6146101265780630bf351f81461013b5780632aad7f761461014e578063421ef6d414610161575b600080fd5b610139610134366004611890565b61038f565b005b610139610149366004611753565b6106de565b61013961015c366004611753565b6107f5565b600354610174906001600160a01b031681565b6040516001600160a01b0390911681526020015b60405180910390f35b604080518082018252601d81527f322e322e302b747265656a65722e6972656c6179726563697069656e74000000602082015290516101889190611904565b600654610174906001600160a01b031681565b6101396101f1366004611753565b61090c565b61025161020436600461183c565b6007602052600090815260409020805460018201546002830154600384015460049094015492936001600160a01b03831693600160a01b90930467ffffffffffffffff9081169392169186565b604080519687526001600160a01b03909516602087015267ffffffffffffffff9384169486019490945291166060840152608083015260a082015260c001610188565b6102bc6102a2366004611753565b6000546201000090046001600160a01b0390811691161490565b6040519015158152602001610188565b6101396102da36600461186e565b610a23565b6101396102ed366004611753565b610dd0565b600054610174906201000090046001600160a01b031681565b600554610174906001600160a01b031681565b61013961032c36600461183c565b610e68565b61013961033f366004611753565b611386565b6002546102bc9060ff1681565b6002546101749061010090046001600160a01b031681565b610139610377366004611753565b6114e1565b600454610174906001600160a01b031681565b600260019054906101000a90046001600160a01b03166001600160a01b0316634d868f986040518163ffffffff1660e01b815260040160006040518083038186803b1580156103dd57600080fd5b505afa1580156103f1573d6000803e3d6000fd5b505060025461010090046001600160a01b03169150638413ec149050610415611581565b6040516001600160e01b031960e084901b1681526001600160a01b03909116600482015260240160006040518083038186803b15801561045457600080fd5b505afa158015610468573d6000803e3d6000fd5b505060055460405163cb8b5da360e01b8152600481018990526001600160a01b03909116925063cb8b5da3915060240160206040518083038186803b1580156104b057600080fd5b505afa1580156104c4573d6000803e3d6000fd5b505050506040513d601f19601f820116820180604052508101906104e89190611783565b6105395760405162461bcd60e51b815260206004820181905260248201527f6571756976616c616e742066756e64204d6f64656c206e6f742065786973747360448201526064015b60405180910390fd5b6003546040516337ff0f1760e21b815260048101879052600160248201526000916001600160a01b03169063dffc3c5c90604401602060405180830381600087803b15801561058757600080fd5b505af115801561059b573d6000803e3d6000fd5b505050506040513d601f19601f820116820180604052508101906105bf91906118de565b905063ffffffff8116156106155760405162461bcd60e51b815260206004820152601960248201527f6e6f7420617661696c61626c6520666f722061756374696f6e000000000000006044820152606401610530565b60006007600061062460015490565b815260208101919091526040016000208781556001808201805467ffffffffffffffff60a01b1916600160a01b67ffffffffffffffff8b8116919091029190911790915560028301805467ffffffffffffffff19169189169190911790556003820186905560048201859055549091507f7e0e356457a92dacd3760ddf327a24dd226c6ca01b2cc41a7fd6f28469c7ab9b9060405190815260200160405180910390a16106d5600180546001019055565b50505050505050565b60025461010090046001600160a01b0316638413ec146106fc611581565b6040516001600160e01b031960e084901b1681526001600160a01b03909116600482015260240160006040518083038186803b15801561073b57600080fd5b505afa15801561074f573d6000803e3d6000fd5b505050506000819050806001600160a01b031663e0eb4eb96040518163ffffffff1660e01b815260040160206040518083038186803b15801561079157600080fd5b505afa1580156107a5573d6000803e3d6000fd5b505050506040513d601f19601f820116820180604052508101906107c99190611783565b6107d257600080fd5b600380546001600160a01b0319166001600160a01b039290921691909117905550565b60025461010090046001600160a01b0316638413ec14610813611581565b6040516001600160e01b031960e084901b1681526001600160a01b03909116600482015260240160006040518083038186803b15801561085257600080fd5b505afa158015610866573d6000803e3d6000fd5b505050506000819050806001600160a01b031663313b39376040518163ffffffff1660e01b815260040160206040518083038186803b1580156108a857600080fd5b505afa1580156108bc573d6000803e3d6000fd5b505050506040513d601f19601f820116820180604052508101906108e09190611783565b6108e957600080fd5b600480546001600160a01b0319166001600160a01b039290921691909117905550565b60025461010090046001600160a01b0316638413ec1461092a611581565b6040516001600160e01b031960e084901b1681526001600160a01b03909116600482015260240160006040518083038186803b15801561096957600080fd5b505afa15801561097d573d6000803e3d6000fd5b505050506000819050806001600160a01b031663966da5fb6040518163ffffffff1660e01b815260040160206040518083038186803b1580156109bf57600080fd5b505afa1580156109d3573d6000803e3d6000fd5b505050506040513d601f19601f820116820180604052508101906109f79190611783565b610a0057600080fd5b600580546001600160a01b0319166001600160a01b039290921691909117905550565b600260019054906101000a90046001600160a01b03166001600160a01b0316634d868f986040518163ffffffff1660e01b815260040160006040518083038186803b158015610a7157600080fd5b505afa158015610a85573d6000803e3d6000fd5b5050506000838152600760205260409020600281015490915067ffffffffffffffff16421115610aef5760405162461bcd60e51b8152602060048201526015602482015274185d58dd1a5bdb88185b1c9958591e48195b991959605a1b6044820152606401610530565b6001810154600160a01b900467ffffffffffffffff16421015610b4a5760405162461bcd60e51b8152602060048201526013602482015272185d58dd1a5bdb881b9bdd081cdd185c9d1959606a1b6044820152606401610530565b80600401548160030154610b5e9190611959565b821015610b9e5760405162461bcd60e51b815260206004820152600e60248201526d1a5b9d985b1a5908185b5bdd5b9d60921b6044820152606401610530565b60065482906001600160a01b03166370a08231610bb9611581565b6040516001600160e01b031960e084901b1681526001600160a01b03909116600482015260240160206040518083038186803b158015610bf857600080fd5b505afa158015610c0c573d6000803e3d6000fd5b505050506040513d601f19601f82011682018060405250810190610c309190611855565b1015610c755760405162461bcd60e51b8152602060048201526014602482015273696e73756666696369656e742062616c616e636560601b6044820152606401610530565b6006546001600160a01b03166323b872dd610c8e611581565b6040516001600160e01b031960e084901b1681526001600160a01b03909116600482015230602482015260448101859052606401602060405180830381600087803b158015610cdc57600080fd5b505af1158015610cf0573d6000803e3d6000fd5b505050506040513d601f19601f82011682018060405250810190610d149190611783565b506001810154600382018054908490556001600160a01b0390911690610d38611581565b6001840180546001600160a01b0319166001600160a01b039290921691909117905582547f8e3b623fbb9b68a4ccf874370563de26312e47135a381cd16ea33becbbfa04b9908690610d88611581565b6040805193845260208401929092526001600160a01b0316908201526060810186905260800160405180910390a1610dbf856115bb565b610dc9818361168a565b5050505050565b60025461010090046001600160a01b0316638413ec14610dee611581565b6040516001600160e01b031960e084901b1681526001600160a01b03909116600482015260240160006040518083038186803b158015610e2d57600080fd5b505afa158015610e41573d6000803e3d6000fd5b5050600680546001600160a01b0319166001600160a01b0394909416939093179092555050565b600260019054906101000a90046001600160a01b03166001600160a01b0316634d868f986040518163ffffffff1660e01b815260040160006040518083038186803b158015610eb657600080fd5b505afa158015610eca573d6000803e3d6000fd5b5050506000828152600760205260409020600281015490915067ffffffffffffffff16610f325760405162461bcd60e51b815260206004820152601660248201527541756374696f6e20697320756e617661696c61626c6560501b6044820152606401610530565b600281015467ffffffffffffffff16421015610f885760405162461bcd60e51b8152602060048201526015602482015274105d58dd1a5bdb881b9bdd081e595d08195b991959605a1b6044820152606401610530565b60018101546001600160a01b03161561129e5760065460048054600384015460405163a9059cbb60e01b81526001600160a01b039283169381019390935260248301529091169063a9059cbb90604401602060405180830381600087803b158015610ff257600080fd5b505af1158015611006573d6000803e3d6000fd5b505050506040513d601f19601f8201168201806040525081019061102a9190611783565b506005548154604051631123660b60e31b815260009283928392839283928392839283926001600160a01b039091169163891b3058916110709160040190815260200190565b61010060405180830381600087803b15801561108b57600080fd5b505af115801561109f573d6000803e3d6000fd5b505050506040513d601f19601f820116820180604052508101906110c391906117a5565b97509750975097509750975097509750600460009054906101000a90046001600160a01b03166001600160a01b031663b36758328a600001548b600301548b8b8b8b8b8b8b8b6040518b63ffffffff1660e01b815260040161117b9a99989796959493929190998a5260208a019890985261ffff96871660408a01529486166060890152928516608088015290841660a0870152831660c0860152821660e08501528116610100840152166101208201526101400190565b600060405180830381600087803b15801561119557600080fd5b505af11580156111a9573d6000803e3d6000fd5b50506003548b5460018d015460405163b225afcb60e01b815260048101929092526001600160a01b03908116602483015260026044830152909116925063b225afcb9150606401600060405180830381600087803b15801561120a57600080fd5b505af115801561121e573d6000803e3d6000fd5b50508a5460018c015460038d01546040517fa3f81c0e157dc1e05cb31e254314bbde8e3878d9ff78b10ef6abfe316492bfbe955061128994508f93926001600160a01b0316919093845260208401929092526001600160a01b03166040830152606082015260800190565b60405180910390a15050505050505050611342565b6003548154604051632419867b60e11b81526001600160a01b03909216916348330cf6916112d29160040190815260200190565b600060405180830381600087803b1580156112ec57600080fd5b505af1158015611300573d6000803e3d6000fd5b505082546040805186815260208101929092527fe536ac546f86787f3ea4069f79235c6b5a681e87d051300a3ed19a6ebb0db71c935001905060405180910390a15b5060009081526007602052604081208181556001810180546001600160e01b031916905560028101805467ffffffffffffffff191690556003810182905560040155565b600054610100900460ff168061139f575060005460ff16155b6114025760405162461bcd60e51b815260206004820152602e60248201527f496e697469616c697a61626c653a20636f6e747261637420697320616c72656160448201526d191e481a5b9a5d1a585b1a5e995960921b6064820152608401610530565b600054610100900460ff16158015611424576000805461ffff19166101011790555b6000829050806001600160a01b031663ba84fd696040518163ffffffff1660e01b815260040160206040518083038186803b15801561146257600080fd5b505afa158015611476573d6000803e3d6000fd5b505050506040513d601f19601f8201168201806040525081019061149a9190611783565b6114a357600080fd5b600280546001600160a01b03909216610100026001600160a81b031990921691909117600117905580156114dd576000805461ff00191690555b5050565b60025461010090046001600160a01b0316638413ec146114ff611581565b6040516001600160e01b031960e084901b1681526001600160a01b03909116600482015260240160006040518083038186803b15801561153e57600080fd5b505afa158015611552573d6000803e3d6000fd5b5050600080546001600160a01b03909416620100000262010000600160b01b0319909416939093179092555050565b6000601436108015906115a457506000546201000090046001600160a01b031633145b156115b6575060131936013560601c90565b503390565b600081815260076020526040902060020154610258906115e690429067ffffffffffffffff1661199d565b116116875760008181526007602052604081206002018054610258929061161890849067ffffffffffffffff16611971565b82546101009290920a67ffffffffffffffff8181021990931691831602179091556000838152600760209081526040918290206002015482518681529316908301527f9c9cc6f8fa269c17bd097ed592ca8e0d3b4451b4c7bdbee9b802563aec9cd7b492500160405180910390a15b50565b6001600160a01b038116156114dd5760065460405163a9059cbb60e01b81526001600160a01b038381166004830152602482018590529091169063a9059cbb90604401602060405180830381600087803b1580156116e757600080fd5b505af11580156116fb573d6000803e3d6000fd5b505050506040513d601f19601f8201168201806040525081019061171f9190611783565b505050565b805161ffff8116811461173657600080fd5b919050565b803567ffffffffffffffff8116811461173657600080fd5b60006020828403121561176557600080fd5b81356001600160a01b038116811461177c57600080fd5b9392505050565b60006020828403121561179557600080fd5b8151801515811461177c57600080fd5b600080600080600080600080610100898b0312156117c257600080fd5b6117cb89611724565b97506117d960208a01611724565b96506117e760408a01611724565b95506117f560608a01611724565b945061180360808a01611724565b935061181160a08a01611724565b925061181f60c08a01611724565b915061182d60e08a01611724565b90509295985092959890939650565b60006020828403121561184e57600080fd5b5035919050565b60006020828403121561186757600080fd5b5051919050565b6000806040838503121561188157600080fd5b50508035926020909101359150565b600080600080600060a086880312156118a857600080fd5b853594506118b86020870161173b565b93506118c66040870161173b565b94979396509394606081013594506080013592915050565b6000602082840312156118f057600080fd5b815163ffffffff8116811461177c57600080fd5b600060208083528351808285015260005b8181101561193157858101830151858201604001528201611915565b81811115611943576000604083870101525b50601f01601f1916929092016040019392505050565b6000821982111561196c5761196c6119b4565b500190565b600067ffffffffffffffff808316818516808303821115611994576119946119b4565b01949350505050565b6000828210156119af576119af6119b4565b500390565b634e487b7160e01b600052601160045260246000fdfea2646970667358221220e054e71435fca6e279ff2a5c343088ff56ffb8a9274a01e9a1d43e45e89848b364736f6c63430008060033",
  "immutableReferences": {},
  "source": "// // SPDX-License-Identifier: MIT\n\npragma solidity ^0.8.6;\n\nimport \"@openzeppelin/contracts-upgradeable/proxy/utils/Initializable.sol\";\nimport \"@openzeppelin/contracts-upgradeable/utils/CountersUpgradeable.sol\";\nimport \"@openzeppelin/contracts-upgradeable/token/ERC20/IERC20Upgradeable.sol\";\nimport \"../access/IAccessRestriction.sol\";\nimport \"../tree/ITreeFactory.sol\";\nimport \"../treasury/IFinancialModel.sol\";\nimport \"../treasury/IWethFunds.sol\";\nimport \"../gsn/RelayRecipient.sol\";\n\n/** @title Tree Auction */\n\ncontract TreeAuction is Initializable, RelayRecipient {\n    using CountersUpgradeable for CountersUpgradeable.Counter;\n\n    CountersUpgradeable.Counter private auctionId;\n\n    /** NOTE {isTreeAuction} set inside the initialize to {true} */\n\n    bool public isTreeAuction;\n\n    IAccessRestriction public accessRestriction;\n    ITreeFactory public treeFactory;\n    // ITreasury public treasury;\n    IWethFunds public wethFunds;\n    IFinancialModel public financialModel;\n    IERC20Upgradeable public wethToken;\n\n    struct Auction {\n        uint256 treeId;\n        address bidder;\n        uint64 startDate;\n        uint64 endDate;\n        uint256 highestBid;\n        uint256 bidInterval;\n    }\n\n    /** NOTE mapping of auctionId to Auction struct */\n    mapping(uint256 => Auction) public auctions;\n\n    event HighestBidIncreased(\n        uint256 auctionId,\n        uint256 treeId,\n        address bidder,\n        uint256 amount\n    );\n    event AuctionSettled(\n        uint256 auctionId,\n        uint256 treeId,\n        address winner,\n        uint256 amount\n    );\n    event AuctionCreated(uint256 auctionId);\n    event AuctionEnded(uint256 auctionId, uint256 treeId);\n    event AuctionEndTimeIncreased(uint256 auctionId, uint256 newAuctionEndTime);\n\n    modifier onlyAdmin() {\n        accessRestriction.ifAdmin(_msgSender());\n        _;\n    }\n\n    modifier ifNotPaused() {\n        accessRestriction.ifNotPaused();\n        _;\n    }\n\n    /**\n     * @dev initialize accessRestriction contract and set true for isTreeAuction\n     * @param _accessRestrictionAddress set to the address of accessRestriction contract\n     */\n    function initialize(address _accessRestrictionAddress) public initializer {\n        IAccessRestriction candidateContract = IAccessRestriction(\n            _accessRestrictionAddress\n        );\n        require(candidateContract.isAccessRestriction());\n        isTreeAuction = true;\n        accessRestriction = candidateContract;\n    }\n\n    /**\n     * @dev admin set the trustedForwarder adress\n     * @param _address is the address of trusted forwarder\n     */\n\n    function setTrustedForwarder(address _address) external onlyAdmin {\n        trustedForwarder = _address;\n    }\n\n    /**\n     * @dev admin set TreeFactoryAddress\n     * @param _address set to the address of treeFactory\n     */\n\n    function setTreeFactoryAddress(address _address) external onlyAdmin {\n        ITreeFactory candidateContract = ITreeFactory(_address);\n        require(candidateContract.isTreeFactory());\n        treeFactory = candidateContract;\n    }\n\n    /**\n     * @dev admin set FinancialModel\n     * @param _address set to the address of financialModel\n     */\n\n    function setFinancialModelAddress(address _address) external onlyAdmin {\n        IFinancialModel candidateContract = IFinancialModel(_address);\n        require(candidateContract.isFinancialModel());\n        financialModel = candidateContract;\n    }\n\n    /**\n     * @dev admin set WethFunds\n     * @param _address set to the address of wethFunds\n     */\n\n    function setWethFundsAddress(address _address) external onlyAdmin {\n        IWethFunds candidateContract = IWethFunds(_address);\n        require(candidateContract.isWethFunds());\n        wethFunds = candidateContract;\n    }\n\n    /**\n     * @dev admin set WethToken\n     * @param _address set to the address of wethToken\n     */\n\n    function setWethTokenAddress(address _address) external onlyAdmin {\n        IERC20Upgradeable candidateContract = IERC20Upgradeable(_address);\n        wethToken = candidateContract;\n    }\n\n    /**\n     * @dev admin create auction to a tree with provideStatus of '0' and push that auction\n     * to {auctions[auctionId]} and increament auctionId by 1.\n     * NOTE its necessary that a fundDestributionModel has been assigned to {_treeId}\n     * @param _treeId treeId that auction create for\n     * @param _startDate strat time of auction\n     * @param _endDate end time of auction\n     * @param _intialPrice initial price of auction\n     * @param _bidInterval bid interval for auction . if it set to 10 for example and the last bid is 100.new bidder can bid for 110\n     */\n\n    function createAuction(\n        uint256 _treeId,\n        uint64 _startDate,\n        uint64 _endDate,\n        uint256 _intialPrice,\n        uint256 _bidInterval\n    ) external ifNotPaused onlyAdmin {\n        require(\n            financialModel.distributionModelExistance(_treeId),\n            \"equivalant fund Model not exists\"\n        );\n\n        uint32 provideStatus = treeFactory.availability(_treeId, 1);\n\n        require(provideStatus == 0, \"not available for auction\");\n\n        Auction storage auction = auctions[auctionId.current()];\n\n        auction.treeId = _treeId;\n        auction.startDate = _startDate;\n        auction.endDate = _endDate;\n        auction.highestBid = _intialPrice;\n        auction.bidInterval = _bidInterval;\n\n        emit AuctionCreated(auctionId.current());\n\n        auctionId.increment();\n    }\n\n    /**\n     * @dev bid to {auctions[_auctionId]} by user in a time beetwen start time and end time\n     * its require to send at least {higestBid + bidInterval } value.\n     * @param _auctionId auctionId that user bid for it.\n     */\n\n    function bid(uint256 _auctionId, uint256 _amount) external ifNotPaused {\n        Auction storage _storageAuction = auctions[_auctionId];\n\n        require(\n            block.timestamp <= _storageAuction.endDate,\n            \"auction already ended\"\n        );\n\n        require(\n            block.timestamp >= _storageAuction.startDate,\n            \"auction not started\"\n        );\n\n        require(\n            _amount >= _storageAuction.highestBid + _storageAuction.bidInterval,\n            \"invalid amount\"\n        );\n\n        require(\n            wethToken.balanceOf(_msgSender()) >= _amount,\n            \"insufficient balance\"\n        );\n\n        wethToken.transferFrom(_msgSender(), address(this), _amount);\n\n        address oldBidder = _storageAuction.bidder;\n        uint256 oldBid = _storageAuction.highestBid;\n\n        _storageAuction.highestBid = _amount;\n        _storageAuction.bidder = _msgSender();\n\n        emit HighestBidIncreased(\n            _auctionId,\n            _storageAuction.treeId,\n            _msgSender(),\n            _amount\n        );\n\n        _increaseAuctionEndTime(_auctionId);\n        _withdraw(oldBid, oldBidder);\n    }\n\n    /** @dev everyone can call this method  including the winner of auction after\n     * auction end time and if auction have bidder transfer owner of tree to bidder and fund tree.\n     * @param _auctionId id of auction that want to finish.\n     */\n    function endAuction(uint256 _auctionId) external ifNotPaused {\n        Auction storage auction = auctions[_auctionId];\n\n        require(auction.endDate > 0, \"Auction is unavailable\");\n\n        require(block.timestamp >= auction.endDate, \"Auction not yet ended\");\n\n        if (auction.bidder != address(0)) {\n            wethToken.transfer(address(wethFunds), auction.highestBid);\n\n            (\n                uint16 planterFund,\n                uint16 referralFund,\n                uint16 treeResearch,\n                uint16 localDevelop,\n                uint16 rescueFund,\n                uint16 treejerDevelop,\n                uint16 reserveFund1,\n                uint16 reserveFund2\n            ) = financialModel.findTreeDistribution(auction.treeId);\n\n            wethFunds.fundTree(\n                auction.treeId,\n                auction.highestBid,\n                planterFund,\n                referralFund,\n                treeResearch,\n                localDevelop,\n                rescueFund,\n                treejerDevelop,\n                reserveFund1,\n                reserveFund2\n            );\n\n            treeFactory.updateOwner(auction.treeId, auction.bidder, 2);\n\n            emit AuctionSettled(\n                _auctionId,\n                auction.treeId,\n                auction.bidder,\n                auction.highestBid\n            );\n        } else {\n            treeFactory.updateAvailability(auction.treeId);\n            emit AuctionEnded(_auctionId, auction.treeId);\n        }\n\n        delete auctions[_auctionId];\n    }\n\n    /** @dev if latest bid is less than 10 minutes to the end of auctionEndTime:\n     * we will increase auctionEndTime 600 seconds\n     * @param _auctionId id of auction that increase end time of it.\n     */\n    function _increaseAuctionEndTime(uint256 _auctionId) private {\n        if (auctions[_auctionId].endDate - block.timestamp <= 600) {\n            auctions[_auctionId].endDate += 600;\n            emit AuctionEndTimeIncreased(\n                _auctionId,\n                auctions[_auctionId].endDate\n            );\n        }\n    }\n\n    /** @dev when new bid take apart we charge the previous bidder as\n     * much as paid before using this function\n     */\n\n    function _withdraw(uint256 _oldBid, address _oldBidder) private {\n        if (_oldBidder != address(0)) {\n            wethToken.transfer(_oldBidder, _oldBid);\n        }\n    }\n}\n",
  "sourcePath": "/home/ali/Desktop/treejer/contract/contracts/auction/TreeAuction.sol",
  "compiler": {
    "name": "solc",
    "version": "0.8.6+commit.11564f7e.Emscripten.clang"
  },
  "schemaVersion": "3.4.1",
  "updatedAt": "2021-08-13T05:18:25.104Z",
  "networkType": "ethereum",
  "devdoc": {
    "kind": "dev",
    "methods": {
      "bid(uint256,uint256)": {
        "details": "bid to {auctions[_auctionId]} by user in a time beetwen start time and end time its require to send at least {higestBid + bidInterval } value.",
        "params": {
          "_auctionId": "auctionId that user bid for it."
        }
      },
      "createAuction(uint256,uint64,uint64,uint256,uint256)": {
        "details": "admin create auction to a tree with provideStatus of '0' and push that auction to {auctions[auctionId]} and increament auctionId by 1. NOTE its necessary that a fundDestributionModel has been assigned to {_treeId}",
        "params": {
          "_bidInterval": "bid interval for auction . if it set to 10 for example and the last bid is 100.new bidder can bid for 110",
          "_endDate": "end time of auction",
          "_intialPrice": "initial price of auction",
          "_startDate": "strat time of auction",
          "_treeId": "treeId that auction create for"
        }
      },
      "endAuction(uint256)": {
        "details": "everyone can call this method  including the winner of auction after auction end time and if auction have bidder transfer owner of tree to bidder and fund tree.",
        "params": {
          "_auctionId": "id of auction that want to finish."
        }
      },
      "initialize(address)": {
        "details": "initialize accessRestriction contract and set true for isTreeAuction",
        "params": {
          "_accessRestrictionAddress": "set to the address of accessRestriction contract"
        }
      },
      "setFinancialModelAddress(address)": {
        "details": "admin set FinancialModel",
        "params": {
          "_address": "set to the address of financialModel"
        }
      },
      "setTreeFactoryAddress(address)": {
        "details": "admin set TreeFactoryAddress",
        "params": {
          "_address": "set to the address of treeFactory"
        }
      },
      "setTrustedForwarder(address)": {
        "details": "admin set the trustedForwarder adress",
        "params": {
          "_address": "is the address of trusted forwarder"
        }
      },
      "setWethFundsAddress(address)": {
        "details": "admin set WethFunds",
        "params": {
          "_address": "set to the address of wethFunds"
        }
      },
      "setWethTokenAddress(address)": {
        "details": "admin set WethToken",
        "params": {
          "_address": "set to the address of wethToken"
        }
      }
    },
    "title": "Tree Auction ",
    "version": 1
  },
  "userdoc": {
    "kind": "user",
    "methods": {
      "auctions(uint256)": {
        "notice": "NOTE mapping of auctionId to Auction struct "
      },
      "isTreeAuction()": {
        "notice": "NOTE {isTreeAuction} set inside the initialize to {true} "
      },
      "isTrustedForwarder(address)": {
        "notice": "return if the forwarder is trusted to forward relayed transactions to us. the forwarder is required to verify the sender's signature, and verify the call is not a replay."
      }
    },
    "version": 1
  }
}