{
  "contractName": "TreeSale",
  "abi": [
    {
      "inputs": [
        {
          "internalType": "contract TreeFactory",
          "name": "_treeFactoryAddress",
          "type": "address"
        }
      ],
      "stateMutability": "nonpayable",
      "type": "constructor"
    },
    {
      "anonymous": false,
      "inputs": [
        {
          "indexed": false,
          "internalType": "address",
          "name": "account",
          "type": "address"
        }
      ],
      "name": "Paused",
      "type": "event"
    },
    {
      "anonymous": false,
      "inputs": [
        {
          "indexed": true,
          "internalType": "bytes32",
          "name": "role",
          "type": "bytes32"
        },
        {
          "indexed": true,
          "internalType": "bytes32",
          "name": "previousAdminRole",
          "type": "bytes32"
        },
        {
          "indexed": true,
          "internalType": "bytes32",
          "name": "newAdminRole",
          "type": "bytes32"
        }
      ],
      "name": "RoleAdminChanged",
      "type": "event"
    },
    {
      "anonymous": false,
      "inputs": [
        {
          "indexed": true,
          "internalType": "bytes32",
          "name": "role",
          "type": "bytes32"
        },
        {
          "indexed": true,
          "internalType": "address",
          "name": "account",
          "type": "address"
        },
        {
          "indexed": true,
          "internalType": "address",
          "name": "sender",
          "type": "address"
        }
      ],
      "name": "RoleGranted",
      "type": "event"
    },
    {
      "anonymous": false,
      "inputs": [
        {
          "indexed": true,
          "internalType": "bytes32",
          "name": "role",
          "type": "bytes32"
        },
        {
          "indexed": true,
          "internalType": "address",
          "name": "account",
          "type": "address"
        },
        {
          "indexed": true,
          "internalType": "address",
          "name": "sender",
          "type": "address"
        }
      ],
      "name": "RoleRevoked",
      "type": "event"
    },
    {
      "anonymous": false,
      "inputs": [
        {
          "indexed": false,
          "internalType": "uint256",
          "name": "id",
          "type": "uint256"
        },
        {
          "indexed": false,
          "internalType": "uint256",
          "name": "treeId",
          "type": "uint256"
        },
        {
          "indexed": false,
          "internalType": "uint256",
          "name": "price",
          "type": "uint256"
        }
      ],
      "name": "TreeAddedToSalesList",
      "type": "event"
    },
    {
      "anonymous": false,
      "inputs": [
        {
          "indexed": false,
          "internalType": "uint256",
          "name": "treeId",
          "type": "uint256"
        }
      ],
      "name": "TreeRemovedFromSalesList",
      "type": "event"
    },
    {
      "anonymous": false,
      "inputs": [
        {
          "indexed": false,
          "internalType": "address",
          "name": "account",
          "type": "address"
        }
      ],
      "name": "Unpaused",
      "type": "event"
    },
    {
      "inputs": [],
      "name": "AMBASSADOR_ROLE",
      "outputs": [
        {
          "internalType": "bytes32",
          "name": "",
          "type": "bytes32"
        }
      ],
      "stateMutability": "view",
      "type": "function",
      "constant": true
    },
    {
      "inputs": [],
      "name": "DEFAULT_ADMIN_ROLE",
      "outputs": [
        {
          "internalType": "bytes32",
          "name": "",
          "type": "bytes32"
        }
      ],
      "stateMutability": "view",
      "type": "function",
      "constant": true
    },
    {
      "inputs": [],
      "name": "PLANTER_ROLE",
      "outputs": [
        {
          "internalType": "bytes32",
          "name": "",
          "type": "bytes32"
        }
      ],
      "stateMutability": "view",
      "type": "function",
      "constant": true
    },
    {
      "inputs": [
        {
          "internalType": "bytes32",
          "name": "role",
          "type": "bytes32"
        }
      ],
      "name": "getRoleAdmin",
      "outputs": [
        {
          "internalType": "bytes32",
          "name": "",
          "type": "bytes32"
        }
      ],
      "stateMutability": "view",
      "type": "function",
      "constant": true
    },
    {
      "inputs": [
        {
          "internalType": "bytes32",
          "name": "role",
          "type": "bytes32"
        },
        {
          "internalType": "uint256",
          "name": "index",
          "type": "uint256"
        }
      ],
      "name": "getRoleMember",
      "outputs": [
        {
          "internalType": "address",
          "name": "",
          "type": "address"
        }
      ],
      "stateMutability": "view",
      "type": "function",
      "constant": true
    },
    {
      "inputs": [
        {
          "internalType": "bytes32",
          "name": "role",
          "type": "bytes32"
        }
      ],
      "name": "getRoleMemberCount",
      "outputs": [
        {
          "internalType": "uint256",
          "name": "",
          "type": "uint256"
        }
      ],
      "stateMutability": "view",
      "type": "function",
      "constant": true
    },
    {
      "inputs": [
        {
          "internalType": "bytes32",
          "name": "role",
          "type": "bytes32"
        },
        {
          "internalType": "address",
          "name": "account",
          "type": "address"
        }
      ],
      "name": "grantRole",
      "outputs": [],
      "stateMutability": "nonpayable",
      "type": "function"
    },
    {
      "inputs": [
        {
          "internalType": "bytes32",
          "name": "role",
          "type": "bytes32"
        },
        {
          "internalType": "address",
          "name": "account",
          "type": "address"
        }
      ],
      "name": "hasRole",
      "outputs": [
        {
          "internalType": "bool",
          "name": "",
          "type": "bool"
        }
      ],
      "stateMutability": "view",
      "type": "function",
      "constant": true
    },
    {
      "inputs": [],
      "name": "owner",
      "outputs": [
        {
          "internalType": "address",
          "name": "",
          "type": "address"
        }
      ],
      "stateMutability": "view",
      "type": "function",
      "constant": true
    },
    {
      "inputs": [],
      "name": "pause",
      "outputs": [],
      "stateMutability": "nonpayable",
      "type": "function"
    },
    {
      "inputs": [],
      "name": "paused",
      "outputs": [
        {
          "internalType": "bool",
          "name": "",
          "type": "bool"
        }
      ],
      "stateMutability": "view",
      "type": "function",
      "constant": true
    },
    {
      "inputs": [
        {
          "internalType": "bytes32",
          "name": "role",
          "type": "bytes32"
        },
        {
          "internalType": "address",
          "name": "account",
          "type": "address"
        }
      ],
      "name": "renounceRole",
      "outputs": [],
      "stateMutability": "nonpayable",
      "type": "function"
    },
    {
      "inputs": [
        {
          "internalType": "bytes32",
          "name": "role",
          "type": "bytes32"
        },
        {
          "internalType": "address",
          "name": "account",
          "type": "address"
        }
      ],
      "name": "revokeRole",
      "outputs": [],
      "stateMutability": "nonpayable",
      "type": "function"
    },
    {
      "inputs": [
        {
          "internalType": "uint256",
          "name": "",
          "type": "uint256"
        }
      ],
      "name": "salesArray",
      "outputs": [
        {
          "internalType": "uint256",
          "name": "",
          "type": "uint256"
        }
      ],
      "stateMutability": "view",
      "type": "function",
      "constant": true
    },
    {
      "inputs": [
        {
          "internalType": "uint256",
          "name": "",
          "type": "uint256"
        }
      ],
      "name": "salesLists",
      "outputs": [
        {
          "internalType": "uint256",
          "name": "treeId",
          "type": "uint256"
        },
        {
          "internalType": "uint256",
          "name": "price",
          "type": "uint256"
        }
      ],
      "stateMutability": "view",
      "type": "function",
      "constant": true
    },
    {
      "inputs": [],
      "name": "treeFactory",
      "outputs": [
        {
          "internalType": "contract TreeFactory",
          "name": "",
          "type": "address"
        }
      ],
      "stateMutability": "view",
      "type": "function",
      "constant": true
    },
    {
      "inputs": [],
      "name": "unpause",
      "outputs": [],
      "stateMutability": "nonpayable",
      "type": "function"
    },
    {
      "inputs": [
        {
          "internalType": "uint256",
          "name": "_treeId",
          "type": "uint256"
        },
        {
          "internalType": "uint256",
          "name": "_price",
          "type": "uint256"
        }
      ],
      "name": "addToSalesList",
      "outputs": [],
      "stateMutability": "nonpayable",
      "type": "function"
    },
    {
      "inputs": [],
      "name": "salesListCount",
      "outputs": [
        {
          "internalType": "uint256",
          "name": "",
          "type": "uint256"
        }
      ],
      "stateMutability": "view",
      "type": "function",
      "constant": true
    },
    {
      "inputs": [],
      "name": "allSalesList",
      "outputs": [
        {
          "internalType": "uint256[]",
          "name": "",
          "type": "uint256[]"
        }
      ],
      "stateMutability": "view",
      "type": "function",
      "constant": true
    },
    {
      "inputs": [
        {
          "internalType": "uint256",
          "name": "_saleId",
          "type": "uint256"
        }
      ],
      "name": "removeFromSalesList",
      "outputs": [],
      "stateMutability": "nonpayable",
      "type": "function"
    },
    {
      "inputs": [
        {
          "internalType": "uint256",
          "name": "_saleId",
          "type": "uint256"
        }
      ],
      "name": "getSaleData",
      "outputs": [
        {
          "internalType": "uint256",
          "name": "id",
          "type": "uint256"
        },
        {
          "internalType": "uint256",
          "name": "price",
          "type": "uint256"
        }
      ],
      "stateMutability": "view",
      "type": "function",
      "constant": true
    },
    {
      "inputs": [
        {
          "internalType": "uint256",
          "name": "_saleId",
          "type": "uint256"
        }
      ],
      "name": "getPrice",
      "outputs": [
        {
          "internalType": "uint256",
          "name": "",
          "type": "uint256"
        }
      ],
      "stateMutability": "view",
      "type": "function",
      "constant": true
    },
    {
      "inputs": [
        {
          "internalType": "uint256",
          "name": "_saleId",
          "type": "uint256"
        }
      ],
      "name": "getTreeId",
      "outputs": [
        {
          "internalType": "uint256",
          "name": "",
          "type": "uint256"
        }
      ],
      "stateMutability": "view",
      "type": "function",
      "constant": true
    }
  ],
  "bytecode": "0x6080604052336001806101000a81548173ffffffffffffffffffffffffffffffffffffffff021916908373ffffffffffffffffffffffffffffffffffffffff1602179055503480156200005157600080fd5b5060405162002040380380620020408339818101604052620000779190810190620002ea565b6000600160006101000a81548160ff021916908315150217905550620000a76000801b336200013d60201b60201c565b620000ce604051620000b990620003b1565b6040518091039020336200013d60201b60201c565b620000f5604051620000e0906200039a565b6040518091039020336200013d60201b60201c565b80600460006101000a81548173ffffffffffffffffffffffffffffffffffffffff021916908373ffffffffffffffffffffffffffffffffffffffff1602179055505062000435565b6200014f82826200015360201b60201c565b5050565b6200018181600080858152602001908152602001600020600001620001f660201b62000fd81790919060201c565b15620001f257620001976200022e60201b60201c565b73ffffffffffffffffffffffffffffffffffffffff168173ffffffffffffffffffffffffffffffffffffffff16837f2f8788117e7eff1d82e926ec794901d17c78024a50270940304540a733656f0d60405160405180910390a45b5050565b600062000226836000018373ffffffffffffffffffffffffffffffffffffffff1660001b6200023660201b60201c565b905092915050565b600033905090565b60006200024a8383620002b060201b60201c565b620002a5578260000182908060018154018082558091505060019003906000526020600020016000909190919091505582600001805490508360010160008481526020019081526020016000208190555060019050620002aa565b600090505b92915050565b600080836001016000848152602001908152602001600020541415905092915050565b600081519050620002e4816200041b565b92915050565b600060208284031215620002fd57600080fd5b60006200030d84828501620002d3565b91505092915050565b600062000325600f83620003c8565b91507f414d4241535341444f525f524f4c4500000000000000000000000000000000006000830152600f82019050919050565b600062000367600c83620003c8565b91507f504c414e5445525f524f4c4500000000000000000000000000000000000000006000830152600c82019050919050565b6000620003a78262000316565b9150819050919050565b6000620003be8262000358565b9150819050919050565b600081905092915050565b6000620003e082620003fb565b9050919050565b6000620003f482620003d3565b9050919050565b600073ffffffffffffffffffffffffffffffffffffffff82169050919050565b6200042681620003e7565b81146200043257600080fd5b50565b611bfb80620004456000396000f3fe608060405234801561001057600080fd5b50600436106101585760003560e01c80638456cb59116100c3578063c53992661161007c578063c5399266146103b9578063ca15c873146103e9578063d547741f14610419578063e757223014610435578063ef78553114610465578063f29bbde81461048157610158565b80638456cb59146102e257806386630b7b146102ec5780638da5cb5b1461031d5780639010d07c1461033b57806391d148541461036b578063a217fddf1461039b57610158565b80633f4ba83a116101155780633f4ba83a14610244578063421ef6d41461024e5780635ab8aebf1461026c5780635c975abb1461028a57806374a467f9146102a85780637e828e16146102c457610158565b80630adbdd9b1461015d5780630daa2e661461018d5780631013a527146101ab578063248a9ca3146101dc5780632f2ff15d1461020c57806336568abe14610228575b600080fd5b6101776004803603610172919081019061134f565b61049f565b6040516101849190611a04565b60405180910390f35b6101956104c0565b6040516101a291906118ae565b60405180910390f35b6101c560048036036101c0919081019061134f565b6104d7565b6040516101d3929190611a1f565b60405180910390f35b6101f660048036036101f191908101906112ae565b610508565b60405161020391906118ae565b60405180910390f35b610226600480360361022191908101906112d7565b610527565b005b610242600480360361023d91908101906112d7565b61059a565b005b61024c61061d565b005b610256610673565b60405161026391906118c9565b60405180910390f35b610274610699565b6040516102819190611a04565b60405180910390f35b6102926106a6565b60405161029f9190611893565b60405180910390f35b6102c260048036036102bd9190810190611378565b6106bd565b005b6102cc6108a3565b6040516102d99190611871565b60405180910390f35b6102ea6108fb565b005b6103066004803603610301919081019061134f565b610951565b604051610314929190611a1f565b60405180910390f35b6103256109e3565b604051610332919061183b565b60405180910390f35b61035560048036036103509190810190611313565b610a08565b604051610362919061183b565b60405180910390f35b610385600480360361038091908101906112d7565b610a39565b6040516103929190611893565b60405180910390f35b6103a3610a6a565b6040516103b091906118ae565b60405180910390f35b6103d360048036036103ce919081019061134f565b610a71565b6040516103e09190611a04565b60405180910390f35b61040360048036036103fe91908101906112ae565b610ae1565b6040516104109190611a04565b60405180910390f35b610433600480360361042e91908101906112d7565b610b07565b005b61044f600480360361044a919081019061134f565b610b7a565b60405161045c9190611a04565b60405180910390f35b61047f600480360361047a919081019061134f565b610bea565b005b610489610ce0565b60405161049691906118ae565b60405180910390f35b600381815481106104ac57fe5b906000526020600020016000915090505481565b6040516104cc90611811565b604051809103902081565b600281815481106104e457fe5b90600052602060002090600202016000915090508060000154908060010154905082565b6000806000838152602001908152602001600020600201549050919050565b61054d60008084815260200190815260200160002060020154610548610cf7565b610a39565b61058c576040517f08c379a000000000000000000000000000000000000000000000000000000000815260040161058390611904565b60405180910390fd5b6105968282610cff565b5050565b6105a2610cf7565b73ffffffffffffffffffffffffffffffffffffffff168173ffffffffffffffffffffffffffffffffffffffff161461060f576040517f08c379a0000000000000000000000000000000000000000000000000000000008152600401610606906119e4565b60405180910390fd5b6106198282610d92565b5050565b61062a6000801b33610a39565b610669576040517f08c379a0000000000000000000000000000000000000000000000000000000008152600401610660906119c4565b60405180910390fd5b610671610e25565b565b600460009054906101000a900473ffffffffffffffffffffffffffffffffffffffff1681565b6000600280549050905090565b6000600160009054906101000a900460ff16905090565b600460009054906101000a900473ffffffffffffffffffffffffffffffffffffffff1673ffffffffffffffffffffffffffffffffffffffff16630d4c055a836040518263ffffffff1660e01b81526004016107189190611a04565b60206040518083038186803b15801561073057600080fd5b505afa158015610744573d6000803e3d6000fd5b505050506040513d601f19601f820116820180604052506107689190810190611285565b8073ffffffffffffffffffffffffffffffffffffffff163373ffffffffffffffffffffffffffffffffffffffff16146107d6576040517f08c379a00000000000000000000000000000000000000000000000000000000081526004016107cd90611944565b60405180910390fd5b60026040518060400160405280858152602001848152509080600181540180825580915050600190039060005260206000209060020201600090919091909150600082015181600001556020820151816001015550506000600160028054905003905060038190806001815401808255809150506001900390600052602060002001600090919091909150557ffc2007a3b94f1f274839de3a2690a011b5dc2e22b3cce25ccdf6e46ace0f9a8581858560405161089593929190611a48565b60405180910390a150505050565b606060038054806020026020016040519081016040528092919081815260200182805480156108f157602002820191906000526020600020905b8154815260200190600101908083116108dd575b5050505050905090565b6109086000801b33610a39565b610947576040517f08c379a000000000000000000000000000000000000000000000000000000000815260040161093e906119c4565b60405180910390fd5b61094f610ecf565b565b60008060028054905083111561099c576040517f08c379a000000000000000000000000000000000000000000000000000000000815260040161099390611964565b60405180910390fd5b600283815481106109a957fe5b906000526020600020906002020160000154600284815481106109c857fe5b90600052602060002090600202016001015491509150915091565b6001809054906101000a900473ffffffffffffffffffffffffffffffffffffffff1681565b6000610a3182600080868152602001908152602001600020600001610f7990919063ffffffff16565b905092915050565b6000610a6282600080868152602001908152602001600020600001610f9390919063ffffffff16565b905092915050565b6000801b81565b6000600280549050821115610abb576040517f08c379a0000000000000000000000000000000000000000000000000000000008152600401610ab290611964565b60405180910390fd5b60028281548110610ac857fe5b9060005260206000209060020201600001549050919050565b6000610b00600080848152602001908152602001600020600001610fc3565b9050919050565b610b2d60008084815260200190815260200160002060020154610b28610cf7565b610a39565b610b6c576040517f08c379a0000000000000000000000000000000000000000000000000000000008152600401610b6390611984565b60405180910390fd5b610b768282610d92565b5050565b6000600280549050821115610bc4576040517f08c379a0000000000000000000000000000000000000000000000000000000008152600401610bbb90611964565b60405180910390fd5b60028281548110610bd157fe5b9060005260206000209060020201600101549050919050565b600280549050811115610c32576040517f08c379a0000000000000000000000000000000000000000000000000000000008152600401610c2990611964565b60405180910390fd5b60008190505b600160028054905003811015610ca55760026001820181548110610c5857fe5b906000526020600020906002020160028281548110610c7357fe5b906000526020600020906002020160008201548160000155600182015481600101559050508080600101915050610c38565b507f72cbceb9938d0023d31994195846fa72b4d073bd1a2cc74af0f717c1bcf4866981604051610cd59190611a04565b60405180910390a150565b604051610cec90611826565b604051809103902081565b600033905090565b610d2681600080858152602001908152602001600020600001610fd890919063ffffffff16565b15610d8e57610d33610cf7565b73ffffffffffffffffffffffffffffffffffffffff168173ffffffffffffffffffffffffffffffffffffffff16837f2f8788117e7eff1d82e926ec794901d17c78024a50270940304540a733656f0d60405160405180910390a45b5050565b610db98160008085815260200190815260200160002060000161100890919063ffffffff16565b15610e2157610dc6610cf7565b73ffffffffffffffffffffffffffffffffffffffff168173ffffffffffffffffffffffffffffffffffffffff16837ff6391f5c32d9c69d2a47ea670b442974b53935d1edc7fd64eb21e047a839171b60405160405180910390a45b5050565b600160009054906101000a900460ff16610e74576040517f08c379a0000000000000000000000000000000000000000000000000000000008152600401610e6b90611924565b60405180910390fd5b6000600160006101000a81548160ff0219169083151502179055507f5db9ee0a495bf2e6ff9c91a7834c1ba4fdd244a5e8aa4e537bd38aeae4b073aa610eb8610cf7565b604051610ec59190611856565b60405180910390a1565b600160009054906101000a900460ff1615610f1f576040517f08c379a0000000000000000000000000000000000000000000000000000000008152600401610f16906119a4565b60405180910390fd5b60018060006101000a81548160ff0219169083151502179055507f62e78cea01bee320cd4e420270b5ea74000d11b0c9f74754ebdbfc544b05a258610f62610cf7565b604051610f6f9190611856565b60405180910390a1565b6000610f888360000183611038565b60001c905092915050565b6000610fbb836000018373ffffffffffffffffffffffffffffffffffffffff1660001b6110a5565b905092915050565b6000610fd1826000016110c8565b9050919050565b6000611000836000018373ffffffffffffffffffffffffffffffffffffffff1660001b6110d9565b905092915050565b6000611030836000018373ffffffffffffffffffffffffffffffffffffffff1660001b611149565b905092915050565b600081836000018054905011611083576040517f08c379a000000000000000000000000000000000000000000000000000000000815260040161107a906118e4565b60405180910390fd5b82600001828154811061109257fe5b9060005260206000200154905092915050565b600080836001016000848152602001908152602001600020541415905092915050565b600081600001805490509050919050565b60006110e583836110a5565b61113e578260000182908060018154018082558091505060019003906000526020600020016000909190919091505582600001805490508360010160008481526020019081526020016000208190555060019050611143565b600090505b92915050565b60008083600101600084815260200190815260200160002054905060008114611225576000600182039050600060018660000180549050039050600086600001828154811061119457fe5b90600052602060002001549050808760000184815481106111b157fe5b90600052602060002001819055506001830187600101600083815260200190815260200160002081905550866000018054806111e957fe5b6001900381819060005260206000200160009055905586600101600087815260200190815260200160002060009055600194505050505061122b565b60009150505b92915050565b60008135905061124081611b80565b92915050565b60008151905061125581611b80565b92915050565b60008135905061126a81611b97565b92915050565b60008135905061127f81611bae565b92915050565b60006020828403121561129757600080fd5b60006112a584828501611246565b91505092915050565b6000602082840312156112c057600080fd5b60006112ce8482850161125b565b91505092915050565b600080604083850312156112ea57600080fd5b60006112f88582860161125b565b925050602061130985828601611231565b9150509250929050565b6000806040838503121561132657600080fd5b60006113348582860161125b565b925050602061134585828601611270565b9150509250929050565b60006020828403121561136157600080fd5b600061136f84828501611270565b91505092915050565b6000806040838503121561138b57600080fd5b600061139985828601611270565b92505060206113aa85828601611270565b9150509250929050565b60006113c083836117f3565b60208301905092915050565b6113d581611b26565b82525050565b6113e481611ad4565b82525050565b60006113f582611a8f565b6113ff8185611aa7565b935061140a83611a7f565b8060005b8381101561143b57815161142288826113b4565b975061142d83611a9a565b92505060018101905061140e565b5085935050505092915050565b61145181611ae6565b82525050565b61146081611af2565b82525050565b61146f81611b38565b82525050565b6000611482602283611ab8565b91507f456e756d657261626c655365743a20696e646578206f7574206f6620626f756e60008301527f64730000000000000000000000000000000000000000000000000000000000006020830152604082019050919050565b60006114e8602f83611ab8565b91507f416363657373436f6e74726f6c3a2073656e646572206d75737420626520616e60008301527f2061646d696e20746f206772616e7400000000000000000000000000000000006020830152604082019050919050565b600061154e601483611ab8565b91507f5061757361626c653a206e6f74207061757365640000000000000000000000006000830152602082019050919050565b600061158e600f83611ac9565b91507f414d4241535341444f525f524f4c4500000000000000000000000000000000006000830152600f82019050919050565b60006115ce603583611ab8565b91507f53656e646572206e6f7420617574686f72697a65642c204f6e6c79206f776e6560008301527f72206f66207472656520617574686f72697a65642100000000000000000000006020830152604082019050919050565b6000611634601383611ab8565b91507f53616c65206964206e6f742065786973747321000000000000000000000000006000830152602082019050919050565b6000611674600c83611ac9565b91507f504c414e5445525f524f4c4500000000000000000000000000000000000000006000830152600c82019050919050565b60006116b4603083611ab8565b91507f416363657373436f6e74726f6c3a2073656e646572206d75737420626520616e60008301527f2061646d696e20746f207265766f6b65000000000000000000000000000000006020830152604082019050919050565b600061171a601083611ab8565b91507f5061757361626c653a20706175736564000000000000000000000000000000006000830152602082019050919050565b600061175a601383611ab8565b91507f43616c6c6572206973206e6f742061646d696e000000000000000000000000006000830152602082019050919050565b600061179a602f83611ab8565b91507f416363657373436f6e74726f6c3a2063616e206f6e6c792072656e6f756e636560008301527f20726f6c657320666f722073656c6600000000000000000000000000000000006020830152604082019050919050565b6117fc81611b1c565b82525050565b61180b81611b1c565b82525050565b600061181c82611581565b9150819050919050565b600061183182611667565b9150819050919050565b600060208201905061185060008301846113db565b92915050565b600060208201905061186b60008301846113cc565b92915050565b6000602082019050818103600083015261188b81846113ea565b905092915050565b60006020820190506118a86000830184611448565b92915050565b60006020820190506118c36000830184611457565b92915050565b60006020820190506118de6000830184611466565b92915050565b600060208201905081810360008301526118fd81611475565b9050919050565b6000602082019050818103600083015261191d816114db565b9050919050565b6000602082019050818103600083015261193d81611541565b9050919050565b6000602082019050818103600083015261195d816115c1565b9050919050565b6000602082019050818103600083015261197d81611627565b9050919050565b6000602082019050818103600083015261199d816116a7565b9050919050565b600060208201905081810360008301526119bd8161170d565b9050919050565b600060208201905081810360008301526119dd8161174d565b9050919050565b600060208201905081810360008301526119fd8161178d565b9050919050565b6000602082019050611a196000830184611802565b92915050565b6000604082019050611a346000830185611802565b611a416020830184611802565b9392505050565b6000606082019050611a5d6000830186611802565b611a6a6020830185611802565b611a776040830184611802565b949350505050565b6000819050602082019050919050565b600081519050919050565b6000602082019050919050565b600082825260208201905092915050565b600082825260208201905092915050565b600081905092915050565b6000611adf82611afc565b9050919050565b60008115159050919050565b6000819050919050565b600073ffffffffffffffffffffffffffffffffffffffff82169050919050565b6000819050919050565b6000611b3182611b5c565b9050919050565b6000611b4382611b4a565b9050919050565b6000611b5582611afc565b9050919050565b6000611b6782611b6e565b9050919050565b6000611b7982611afc565b9050919050565b611b8981611ad4565b8114611b9457600080fd5b50565b611ba081611af2565b8114611bab57600080fd5b50565b611bb781611b1c565b8114611bc257600080fd5b5056fea2646970667358221220d1a9f349e2b6c58e4fdcf48eaffa4064ed905d35d489619c968fae296dceda9c64736f6c63430006020033",
  "source": "// SPDX-License-Identifier: GPL-3.0\n\npragma solidity >=0.4.21 <0.7.0;\npragma experimental ABIEncoderV2;\n\nimport \"./TreeFactory.sol\";\nimport \"../access/AccessRestriction.sol\";\n\ncontract TreeSale is AccessRestriction {\n    event TreeAddedToSalesList(uint256 id, uint256 treeId, uint256 price);\n\n    event TreeRemovedFromSalesList(uint256 treeId);\n\n    struct SalesList {\n        uint256 treeId;\n        uint256 price;\n    }\n\n    SalesList[] public salesLists;\n    uint256[] public salesArray;\n\n    TreeFactory public treeFactory;\n\n\n    constructor(TreeFactory _treeFactoryAddress) public {\n        treeFactory = _treeFactoryAddress;\n    }\n\n    function addToSalesList(uint256 _treeId, uint256 _price)\n        external\n        onlyOwnerOfTree(treeFactory.treeOwner(_treeId))\n    {\n        salesLists.push(SalesList(_treeId, _price));\n        uint256 id = salesLists.length - 1;\n        salesArray.push(id);\n\n        emit TreeAddedToSalesList(id, _treeId, _price);\n    }\n\n    function salesListCount() external view returns (uint256) {\n        return salesLists.length;\n    }\n\n    function allSalesList() external view returns (uint256[] memory) {\n        return salesArray;\n    }\n\n    function removeFromSalesList(uint256 _saleId) public {\n        require(_saleId <= salesLists.length, \"Sale id not exists!\");\n\n        for (uint256 i = _saleId; i < salesLists.length - 1; i++) {\n            salesLists[i] = salesLists[i + 1];\n        }\n\n        emit TreeRemovedFromSalesList(_saleId);\n    }\n\n    function getSaleData(uint256 _saleId)\n        external\n        view\n        returns (uint256 id, uint256 price)\n    {\n        require(_saleId <= salesLists.length, \"Sale id not exists!\");\n\n        return (salesLists[_saleId].treeId, salesLists[_saleId].price);\n    }\n\n    function getPrice(uint256 _saleId)\n        external\n        view\n        returns (uint256)\n    {\n        require(_saleId <= salesLists.length, \"Sale id not exists!\");\n\n        return salesLists[_saleId].price;\n    }\n\n    function getTreeId(uint256 _saleId)\n        external\n        view\n        returns (uint256)\n    {\n        require(_saleId <= salesLists.length, \"Sale id not exists!\");\n\n        return salesLists[_saleId].treeId;\n    }\n}\n",
  "sourcePath": "/home/amir/Projects/treejer/contract/contracts/tree/TreeSale.sol",
  "compiler": {
    "name": "solc",
    "version": "0.6.2+commit.bacdbe57.Emscripten.clang"
  },
  "schemaVersion": "3.0.22",
  "updatedAt": "2020-07-25T14:05:17.918Z",
  "networkType": "ethereum",
  "devdoc": {
    "methods": {
      "getRoleAdmin(bytes32)": {
        "details": "Returns the admin role that controls `role`. See {grantRole} and {revokeRole}.     * To change a role's admin, use {_setRoleAdmin}."
      },
      "getRoleMember(bytes32,uint256)": {
        "details": "Returns one of the accounts that have `role`. `index` must be a value between 0 and {getRoleMemberCount}, non-inclusive.     * Role bearers are not sorted in any particular way, and their ordering may change at any point.     * WARNING: When using {getRoleMember} and {getRoleMemberCount}, make sure you perform all queries on the same block. See the following https://forum.openzeppelin.com/t/iterating-over-elements-on-enumerableset-in-openzeppelin-contracts/2296[forum post] for more information."
      },
      "getRoleMemberCount(bytes32)": {
        "details": "Returns the number of accounts that have `role`. Can be used together with {getRoleMember} to enumerate all bearers of a role."
      },
      "grantRole(bytes32,address)": {
        "details": "Grants `role` to `account`.     * If `account` had not been already granted `role`, emits a {RoleGranted} event.     * Requirements:     * - the caller must have ``role``'s admin role."
      },
      "hasRole(bytes32,address)": {
        "details": "Returns `true` if `account` has been granted `role`."
      },
      "paused()": {
        "details": "Returns true if the contract is paused, and false otherwise."
      },
      "renounceRole(bytes32,address)": {
        "details": "Revokes `role` from the calling account.     * Roles are often managed via {grantRole} and {revokeRole}: this function's purpose is to provide a mechanism for accounts to lose their privileges if they are compromised (such as when a trusted device is misplaced).     * If the calling account had been granted `role`, emits a {RoleRevoked} event.     * Requirements:     * - the caller must be `account`."
      },
      "revokeRole(bytes32,address)": {
        "details": "Revokes `role` from `account`.     * If `account` had been granted `role`, emits a {RoleRevoked} event.     * Requirements:     * - the caller must have ``role``'s admin role."
      }
    }
  },
  "userdoc": {
    "methods": {}
  }
}