{
  "contractName": "UpdateFactory",
  "abi": [
    {
      "anonymous": false,
      "inputs": [
        {
          "indexed": false,
          "internalType": "uint256",
          "name": "updateId",
          "type": "uint256"
        }
      ],
      "name": "UpdateAccepted",
      "type": "event"
    },
    {
      "anonymous": false,
      "inputs": [
        {
          "indexed": false,
          "internalType": "uint256",
          "name": "updateId",
          "type": "uint256"
        },
        {
          "indexed": false,
          "internalType": "uint256",
          "name": "treeId",
          "type": "uint256"
        },
        {
          "indexed": false,
          "internalType": "string",
          "name": "imageHash",
          "type": "string"
        }
      ],
      "name": "UpdateAdded",
      "type": "event"
    },
    {
      "inputs": [
        {
          "internalType": "uint256",
          "name": "",
          "type": "uint256"
        },
        {
          "internalType": "uint256",
          "name": "",
          "type": "uint256"
        }
      ],
      "name": "treeUpdates",
      "outputs": [
        {
          "internalType": "uint256",
          "name": "",
          "type": "uint256"
        }
      ],
      "stateMutability": "view",
      "type": "function",
      "constant": true
    },
    {
      "inputs": [
        {
          "internalType": "uint256",
          "name": "",
          "type": "uint256"
        }
      ],
      "name": "updates",
      "outputs": [
        {
          "internalType": "uint256",
          "name": "treeId",
          "type": "uint256"
        },
        {
          "internalType": "string",
          "name": "imageHash",
          "type": "string"
        },
        {
          "internalType": "uint256",
          "name": "updateDate",
          "type": "uint256"
        },
        {
          "internalType": "uint8",
          "name": "status",
          "type": "uint8"
        },
        {
          "internalType": "bool",
          "name": "minted",
          "type": "bool"
        }
      ],
      "stateMutability": "view",
      "type": "function",
      "constant": true
    },
    {
      "inputs": [
        {
          "internalType": "uint256",
          "name": "_treeId",
          "type": "uint256"
        },
        {
          "internalType": "string",
          "name": "_imageHash",
          "type": "string"
        }
      ],
      "name": "post",
      "outputs": [],
      "stateMutability": "nonpayable",
      "type": "function"
    },
    {
      "inputs": [
        {
          "internalType": "uint256",
          "name": "_updateId",
          "type": "uint256"
        }
      ],
      "name": "acceptUpdate",
      "outputs": [],
      "stateMutability": "nonpayable",
      "type": "function"
    },
    {
      "inputs": [
        {
          "internalType": "uint256",
          "name": "_treeId",
          "type": "uint256"
        }
      ],
      "name": "getTreeUpdates",
      "outputs": [
        {
          "internalType": "uint256[]",
          "name": "",
          "type": "uint256[]"
        }
      ],
      "stateMutability": "view",
      "type": "function",
      "constant": true
    },
    {
      "inputs": [
        {
          "internalType": "uint256",
          "name": "_id",
          "type": "uint256"
        }
      ],
      "name": "getUpdateDate",
      "outputs": [
        {
          "internalType": "uint256",
          "name": "",
          "type": "uint256"
        }
      ],
      "stateMutability": "view",
      "type": "function",
      "constant": true
    },
    {
      "inputs": [
        {
          "internalType": "uint256",
          "name": "_id",
          "type": "uint256"
        }
      ],
      "name": "getTreeId",
      "outputs": [
        {
          "internalType": "uint256",
          "name": "",
          "type": "uint256"
        }
      ],
      "stateMutability": "view",
      "type": "function",
      "constant": true
    },
    {
      "inputs": [
        {
          "internalType": "uint256",
          "name": "_id",
          "type": "uint256"
        }
      ],
      "name": "getImageHash",
      "outputs": [
        {
          "internalType": "string",
          "name": "",
          "type": "string"
        }
      ],
      "stateMutability": "view",
      "type": "function",
      "constant": true
    },
    {
      "inputs": [
        {
          "internalType": "uint256",
          "name": "_id",
          "type": "uint256"
        }
      ],
      "name": "getStatus",
      "outputs": [
        {
          "internalType": "uint8",
          "name": "",
          "type": "uint8"
        }
      ],
      "stateMutability": "view",
      "type": "function",
      "constant": true
    },
    {
      "inputs": [
        {
          "internalType": "uint256",
          "name": "_id",
          "type": "uint256"
        }
      ],
      "name": "isMinted",
      "outputs": [
        {
          "internalType": "bool",
          "name": "",
          "type": "bool"
        }
      ],
      "stateMutability": "view",
      "type": "function",
      "constant": true
    },
    {
      "inputs": [
        {
          "internalType": "uint256",
          "name": "_treeId",
          "type": "uint256"
        }
      ],
      "name": "isTreeLastUpdateMinted",
      "outputs": [
        {
          "internalType": "bool",
          "name": "",
          "type": "bool"
        }
      ],
      "stateMutability": "view",
      "type": "function",
      "constant": true
    },
    {
      "inputs": [
        {
          "internalType": "uint256",
          "name": "_id",
          "type": "uint256"
        },
        {
          "internalType": "bool",
          "name": "_minted",
          "type": "bool"
        }
      ],
      "name": "setMinted",
      "outputs": [],
      "stateMutability": "nonpayable",
      "type": "function"
    }
  ],
  "bytecode": "0x608060405234801561001057600080fd5b50610e4c806100206000396000f3fe608060405234801561001057600080fd5b50600436106100b45760003560e01c80635c622a0e116100715780635c622a0e1461019d57806362834462146101cd5780639f3e5848146101fd578063b4c2f7271461022d578063c539926614610261578063f87bdcd214610291576100b4565b80632bfce493146100b957806333c41a90146100e957806333f1941114610119578063473fd50f14610149578063540bdfbe14610165578063591a5eb614610181575b600080fd5b6100d360048036036100ce9190810190610999565b6102c1565b6040516100e09190610c05565b60405180910390f35b61010360048036036100fe9190810190610999565b610335565b6040516101109190610c05565b60405180910390f35b610133600480360361012e9190810190610999565b610369565b6040516101409190610c42565b60405180910390f35b610163600480360361015e9190810190610999565b610390565b005b61017f600480360361017a91908101906109c2565b610402565b005b61019b600480360361019691908101906109fe565b61043c565b005b6101b760048036036101b29190810190610999565b6105d7565b6040516101c49190610cf7565b60405180910390f35b6101e760048036036101e29190810190610999565b61060b565b6040516101f49190610c20565b60405180910390f35b61021760048036036102129190810190610999565b6106cb565b6040516102249190610be3565b60405180910390f35b61024760048036036102429190810190610999565b610736565b604051610258959493929190610c5d565b60405180910390f35b61027b60048036036102769190810190610999565b61082b565b6040516102889190610c42565b60405180910390f35b6102ab60048036036102a69190810190610a56565b610852565b6040516102b89190610c42565b60405180910390f35b6000806001600084815260200190815260200160002060018060008681526020019081526020016000208054905003815481106102fa57fe5b90600052602060002001548154811061030f57fe5b906000526020600020906004020160030160019054906101000a900460ff169050919050565b600080828154811061034357fe5b906000526020600020906004020160030160019054906101000a900460ff169050919050565b600080828154811061037757fe5b9060005260206000209060040201600201549050919050565b60016000828154811061039f57fe5b906000526020600020906004020160030160006101000a81548160ff021916908360ff1602179055507fc2ec73998f2d5f5388ad7fcbdb8c7adec87f39fd5dbc1dcce587cf4f2270202e816040516103f79190610c42565b60405180910390a150565b806000838154811061041057fe5b906000526020600020906004020160030160016101000a81548160ff0219169083151502179055505050565b60006040518060a0016040528085815260200184848080601f016020809104026020016040519081016040528093929190818152602001838380828437600081840152601f19601f820116905080830192505050505050508152602001428152602001600060ff1681526020016000151581525090806001815401808255809150506001900390600052602060002090600402016000909190919091506000820151816000015560208201518160010190805190602001906104ff929190610880565b506040820151816002015560608201518160030160006101000a81548160ff021916908360ff16021790555060808201518160030160016101000a81548160ff021916908315150217905550505060006001600080549050039050600160008581526020019081526020016000208190806001815401808255809150506001900390600052602060002001600090919091909150557ff21895d501301debf8e85ad6a202415a1c431fdb019be7e01b71870841b827d9818585856040516105c99493929190610cb7565b60405180910390a150505050565b60008082815481106105e557fe5b906000526020600020906004020160030160009054906101000a900460ff169050919050565b60606000828154811061061a57fe5b90600052602060002090600402016001018054600181600116156101000203166002900480601f0160208091040260200160405190810160405280929190818152602001828054600181600116156101000203166002900480156106bf5780601f10610694576101008083540402835291602001916106bf565b820191906000526020600020905b8154815290600101906020018083116106a257829003601f168201915b50505050509050919050565b60606001600083815260200190815260200160002080548060200260200160405190810160405280929190818152602001828054801561072a57602002820191906000526020600020905b815481526020019060010190808311610716575b50505050509050919050565b6000818154811061074357fe5b9060005260206000209060040201600091509050806000015490806001018054600181600116156101000203166002900480601f0160208091040260200160405190810160405280929190818152602001828054600181600116156101000203166002900480156107f55780601f106107ca576101008083540402835291602001916107f5565b820191906000526020600020905b8154815290600101906020018083116107d857829003601f168201915b5050505050908060020154908060030160009054906101000a900460ff16908060030160019054906101000a900460ff16905085565b600080828154811061083957fe5b9060005260206000209060040201600001549050919050565b6001602052816000526040600020818154811061086b57fe5b90600052602060002001600091509150505481565b828054600181600116156101000203166002900490600052602060002090601f016020900481019282601f106108c157805160ff19168380011785556108ef565b828001600101855582156108ef579182015b828111156108ee5782518255916020019190600101906108d3565b5b5090506108fc9190610900565b5090565b61092291905b8082111561091e576000816000905550600101610906565b5090565b90565b60008135905061093481610de8565b92915050565b60008083601f84011261094c57600080fd5b8235905067ffffffffffffffff81111561096557600080fd5b60208301915083600182028301111561097d57600080fd5b9250929050565b60008135905061099381610dff565b92915050565b6000602082840312156109ab57600080fd5b60006109b984828501610984565b91505092915050565b600080604083850312156109d557600080fd5b60006109e385828601610984565b92505060206109f485828601610925565b9150509250929050565b600080600060408486031215610a1357600080fd5b6000610a2186828701610984565b935050602084013567ffffffffffffffff811115610a3e57600080fd5b610a4a8682870161093a565b92509250509250925092565b60008060408385031215610a6957600080fd5b6000610a7785828601610984565b9250506020610a8885828601610984565b9150509250929050565b6000610a9e8383610bb6565b60208301905092915050565b6000610ab582610d22565b610abf8185610d50565b9350610aca83610d12565b8060005b83811015610afb578151610ae28882610a92565b9750610aed83610d43565b925050600181019050610ace565b5085935050505092915050565b610b1181610d72565b82525050565b6000610b238385610d61565b9350610b30838584610d95565b610b3983610dd7565b840190509392505050565b6000610b4f82610d38565b610b598185610d61565b9350610b69818560208601610da4565b610b7281610dd7565b840191505092915050565b6000610b8882610d2d565b610b928185610d61565b9350610ba2818560208601610da4565b610bab81610dd7565b840191505092915050565b610bbf81610d7e565b82525050565b610bce81610d7e565b82525050565b610bdd81610d88565b82525050565b60006020820190508181036000830152610bfd8184610aaa565b905092915050565b6000602082019050610c1a6000830184610b08565b92915050565b60006020820190508181036000830152610c3a8184610b44565b905092915050565b6000602082019050610c576000830184610bc5565b92915050565b600060a082019050610c726000830188610bc5565b8181036020830152610c848187610b7d565b9050610c936040830186610bc5565b610ca06060830185610bd4565b610cad6080830184610b08565b9695505050505050565b6000606082019050610ccc6000830187610bc5565b610cd96020830186610bc5565b8181036040830152610cec818486610b17565b905095945050505050565b6000602082019050610d0c6000830184610bd4565b92915050565b6000819050602082019050919050565b600081519050919050565b600081519050919050565b600081519050919050565b6000602082019050919050565b600082825260208201905092915050565b600082825260208201905092915050565b60008115159050919050565b6000819050919050565b600060ff82169050919050565b82818337600083830152505050565b60005b83811015610dc2578082015181840152602081019050610da7565b83811115610dd1576000848401525b50505050565b6000601f19601f8301169050919050565b610df181610d72565b8114610dfc57600080fd5b50565b610e0881610d7e565b8114610e1357600080fd5b5056fea2646970667358221220eab6731594b9303ae6139ca4a4deafcd4806a63e234fd0719025a2f1a342b03264736f6c63430006020033",
  "source": "// SPDX-License-Identifier: GPL-3.0\n\npragma solidity >=0.4.21 <0.7.0;\npragma experimental ABIEncoderV2;\n\nimport \"./TreeFactory.sol\";\n\ncontract UpdateFactory {\n    event UpdateAdded(uint256 updateId, uint256 treeId, string imageHash);\n    event UpdateAccepted(uint256 updateId);\n\n    struct Update {\n        uint256 treeId;\n        string imageHash;\n        uint256 updateDate;\n        uint8 status;\n        bool minted;\n    }\n\n    Update[] public updates;\n    mapping(uint256 => uint256[]) public treeUpdates;\n\n    //@todo permission check\n    // must one pending update after delete or accpet can post other update\n    // update difference must check\n    function post(uint256 _treeId, string calldata _imageHash) external {\n        updates.push(Update(_treeId, _imageHash, now, 0, false));\n        uint256 id = updates.length - 1;\n\n        treeUpdates[_treeId].push(id);\n\n        emit UpdateAdded(id, _treeId, _imageHash);\n    }\n\n    function acceptUpdate(uint256 _updateId) external {\n        updates[_updateId].status = 1;\n        emit UpdateAccepted(_updateId);\n    }\n\n    function getTreeUpdates(uint _treeId) public view returns (uint256[] memory) {\n        return treeUpdates[_treeId];\n    }\n\n    function getUpdateDate(uint256 _id) public view returns (uint256) {\n        return updates[_id].updateDate;\n    }\n\n    function getTreeId(uint256 _id) public view returns (uint256) {\n        return updates[_id].treeId;\n    }\n\n    function getImageHash(uint256 _id) public view returns (string memory) {\n        return updates[_id].imageHash;\n    }\n\n    function getStatus(uint256 _id) public view returns (uint8) {\n        return updates[_id].status;\n    }\n\n    function isMinted(uint256 _id) public view returns (bool) {\n        return updates[_id].minted;\n    }\n\n    function isTreeLastUpdateMinted(uint256 _treeId) public view returns (bool) {\n        return updates[treeUpdates[_treeId][treeUpdates[_treeId].length - 1]].minted;\n    }\n\n    function setMinted(uint256 _id, bool _minted) public {\n        updates[_id].minted = _minted;\n    }\n\n\n    // function getUpdate(uint _id) public view returns (uint256[] memory) {\n    //     return treeUpdates[_id];\n    // }\n\n\n}\n",
  "sourcePath": "/home/amir/Projects/treejer/contract/contracts/tree/UpdateFactory.sol",
  "compiler": {
    "name": "solc",
    "version": "0.6.2+commit.bacdbe57.Emscripten.clang"
  },
  "schemaVersion": "3.0.22",
  "updatedAt": "2020-07-29T06:29:27.818Z",
  "networkType": "ethereum",
  "devdoc": {
    "methods": {}
  },
  "userdoc": {
    "methods": {}
  }
}