{
  "contractName": "UpdateFactory",
  "abi": [
    {
      "anonymous": false,
      "inputs": [
        {
          "indexed": false,
          "internalType": "address",
          "name": "account",
          "type": "address"
        }
      ],
      "name": "Paused",
      "type": "event"
    },
    {
      "anonymous": false,
      "inputs": [
        {
          "indexed": true,
          "internalType": "bytes32",
          "name": "role",
          "type": "bytes32"
        },
        {
          "indexed": true,
          "internalType": "bytes32",
          "name": "previousAdminRole",
          "type": "bytes32"
        },
        {
          "indexed": true,
          "internalType": "bytes32",
          "name": "newAdminRole",
          "type": "bytes32"
        }
      ],
      "name": "RoleAdminChanged",
      "type": "event"
    },
    {
      "anonymous": false,
      "inputs": [
        {
          "indexed": true,
          "internalType": "bytes32",
          "name": "role",
          "type": "bytes32"
        },
        {
          "indexed": true,
          "internalType": "address",
          "name": "account",
          "type": "address"
        },
        {
          "indexed": true,
          "internalType": "address",
          "name": "sender",
          "type": "address"
        }
      ],
      "name": "RoleGranted",
      "type": "event"
    },
    {
      "anonymous": false,
      "inputs": [
        {
          "indexed": true,
          "internalType": "bytes32",
          "name": "role",
          "type": "bytes32"
        },
        {
          "indexed": true,
          "internalType": "address",
          "name": "account",
          "type": "address"
        },
        {
          "indexed": true,
          "internalType": "address",
          "name": "sender",
          "type": "address"
        }
      ],
      "name": "RoleRevoked",
      "type": "event"
    },
    {
      "anonymous": false,
      "inputs": [
        {
          "indexed": false,
          "internalType": "address",
          "name": "account",
          "type": "address"
        }
      ],
      "name": "Unpaused",
      "type": "event"
    },
    {
      "anonymous": false,
      "inputs": [
        {
          "indexed": false,
          "internalType": "uint256",
          "name": "updateId",
          "type": "uint256"
        }
      ],
      "name": "UpdateAccepted",
      "type": "event"
    },
    {
      "anonymous": false,
      "inputs": [
        {
          "indexed": false,
          "internalType": "uint256",
          "name": "updateId",
          "type": "uint256"
        },
        {
          "indexed": false,
          "internalType": "uint256",
          "name": "treeId",
          "type": "uint256"
        },
        {
          "indexed": false,
          "internalType": "string",
          "name": "imageHash",
          "type": "string"
        }
      ],
      "name": "UpdateAdded",
      "type": "event"
    },
    {
      "inputs": [],
      "name": "AMBASSADOR_ROLE",
      "outputs": [
        {
          "internalType": "bytes32",
          "name": "",
          "type": "bytes32"
        }
      ],
      "stateMutability": "view",
      "type": "function",
      "constant": true
    },
    {
      "inputs": [],
      "name": "DEFAULT_ADMIN_ROLE",
      "outputs": [
        {
          "internalType": "bytes32",
          "name": "",
          "type": "bytes32"
        }
      ],
      "stateMutability": "view",
      "type": "function",
      "constant": true
    },
    {
      "inputs": [],
      "name": "PLANTER_ROLE",
      "outputs": [
        {
          "internalType": "bytes32",
          "name": "",
          "type": "bytes32"
        }
      ],
      "stateMutability": "view",
      "type": "function",
      "constant": true
    },
    {
      "inputs": [
        {
          "internalType": "bytes32",
          "name": "role",
          "type": "bytes32"
        }
      ],
      "name": "getRoleAdmin",
      "outputs": [
        {
          "internalType": "bytes32",
          "name": "",
          "type": "bytes32"
        }
      ],
      "stateMutability": "view",
      "type": "function",
      "constant": true
    },
    {
      "inputs": [
        {
          "internalType": "bytes32",
          "name": "role",
          "type": "bytes32"
        },
        {
          "internalType": "uint256",
          "name": "index",
          "type": "uint256"
        }
      ],
      "name": "getRoleMember",
      "outputs": [
        {
          "internalType": "address",
          "name": "",
          "type": "address"
        }
      ],
      "stateMutability": "view",
      "type": "function",
      "constant": true
    },
    {
      "inputs": [
        {
          "internalType": "bytes32",
          "name": "role",
          "type": "bytes32"
        }
      ],
      "name": "getRoleMemberCount",
      "outputs": [
        {
          "internalType": "uint256",
          "name": "",
          "type": "uint256"
        }
      ],
      "stateMutability": "view",
      "type": "function",
      "constant": true
    },
    {
      "inputs": [
        {
          "internalType": "bytes32",
          "name": "role",
          "type": "bytes32"
        },
        {
          "internalType": "address",
          "name": "account",
          "type": "address"
        }
      ],
      "name": "grantRole",
      "outputs": [],
      "stateMutability": "nonpayable",
      "type": "function"
    },
    {
      "inputs": [
        {
          "internalType": "bytes32",
          "name": "role",
          "type": "bytes32"
        },
        {
          "internalType": "address",
          "name": "account",
          "type": "address"
        }
      ],
      "name": "hasRole",
      "outputs": [
        {
          "internalType": "bool",
          "name": "",
          "type": "bool"
        }
      ],
      "stateMutability": "view",
      "type": "function",
      "constant": true
    },
    {
      "inputs": [],
      "name": "owner",
      "outputs": [
        {
          "internalType": "address",
          "name": "",
          "type": "address"
        }
      ],
      "stateMutability": "view",
      "type": "function",
      "constant": true
    },
    {
      "inputs": [],
      "name": "pause",
      "outputs": [],
      "stateMutability": "nonpayable",
      "type": "function"
    },
    {
      "inputs": [],
      "name": "paused",
      "outputs": [
        {
          "internalType": "bool",
          "name": "",
          "type": "bool"
        }
      ],
      "stateMutability": "view",
      "type": "function",
      "constant": true
    },
    {
      "inputs": [
        {
          "internalType": "bytes32",
          "name": "role",
          "type": "bytes32"
        },
        {
          "internalType": "address",
          "name": "account",
          "type": "address"
        }
      ],
      "name": "renounceRole",
      "outputs": [],
      "stateMutability": "nonpayable",
      "type": "function"
    },
    {
      "inputs": [
        {
          "internalType": "bytes32",
          "name": "role",
          "type": "bytes32"
        },
        {
          "internalType": "address",
          "name": "account",
          "type": "address"
        }
      ],
      "name": "revokeRole",
      "outputs": [],
      "stateMutability": "nonpayable",
      "type": "function"
    },
    {
      "inputs": [
        {
          "internalType": "uint256",
          "name": "",
          "type": "uint256"
        },
        {
          "internalType": "uint256",
          "name": "",
          "type": "uint256"
        }
      ],
      "name": "treeUpdates",
      "outputs": [
        {
          "internalType": "uint256",
          "name": "",
          "type": "uint256"
        }
      ],
      "stateMutability": "view",
      "type": "function",
      "constant": true
    },
    {
      "inputs": [],
      "name": "unpause",
      "outputs": [],
      "stateMutability": "nonpayable",
      "type": "function"
    },
    {
      "inputs": [
        {
          "internalType": "uint256",
          "name": "",
          "type": "uint256"
        }
      ],
      "name": "updates",
      "outputs": [
        {
          "internalType": "uint256",
          "name": "treeId",
          "type": "uint256"
        },
        {
          "internalType": "string",
          "name": "imageHash",
          "type": "string"
        },
        {
          "internalType": "uint256",
          "name": "updateDate",
          "type": "uint256"
        },
        {
          "internalType": "uint8",
          "name": "status",
          "type": "uint8"
        },
        {
          "internalType": "bool",
          "name": "minted",
          "type": "bool"
        }
      ],
      "stateMutability": "view",
      "type": "function",
      "constant": true
    },
    {
      "inputs": [
        {
          "internalType": "uint256",
          "name": "_treeId",
          "type": "uint256"
        },
        {
          "internalType": "string",
          "name": "_imageHash",
          "type": "string"
        }
      ],
      "name": "post",
      "outputs": [],
      "stateMutability": "nonpayable",
      "type": "function"
    },
    {
      "inputs": [
        {
          "internalType": "uint256",
          "name": "_updateId",
          "type": "uint256"
        }
      ],
      "name": "acceptUpdate",
      "outputs": [],
      "stateMutability": "nonpayable",
      "type": "function"
    },
    {
      "inputs": [
        {
          "internalType": "uint256",
          "name": "_treeId",
          "type": "uint256"
        }
      ],
      "name": "getTreeUpdates",
      "outputs": [
        {
          "internalType": "uint256[]",
          "name": "",
          "type": "uint256[]"
        }
      ],
      "stateMutability": "view",
      "type": "function",
      "constant": true
    },
    {
      "inputs": [
        {
          "internalType": "uint256",
          "name": "_id",
          "type": "uint256"
        }
      ],
      "name": "getUpdateDate",
      "outputs": [
        {
          "internalType": "uint256",
          "name": "",
          "type": "uint256"
        }
      ],
      "stateMutability": "view",
      "type": "function",
      "constant": true
    },
    {
      "inputs": [
        {
          "internalType": "uint256",
          "name": "_id",
          "type": "uint256"
        }
      ],
      "name": "getTreeId",
      "outputs": [
        {
          "internalType": "uint256",
          "name": "",
          "type": "uint256"
        }
      ],
      "stateMutability": "view",
      "type": "function",
      "constant": true
    },
    {
      "inputs": [
        {
          "internalType": "uint256",
          "name": "_id",
          "type": "uint256"
        }
      ],
      "name": "getImageHash",
      "outputs": [
        {
          "internalType": "string",
          "name": "",
          "type": "string"
        }
      ],
      "stateMutability": "view",
      "type": "function",
      "constant": true
    },
    {
      "inputs": [
        {
          "internalType": "uint256",
          "name": "_id",
          "type": "uint256"
        }
      ],
      "name": "getStatus",
      "outputs": [
        {
          "internalType": "uint8",
          "name": "",
          "type": "uint8"
        }
      ],
      "stateMutability": "view",
      "type": "function",
      "constant": true
    },
    {
      "inputs": [
        {
          "internalType": "uint256",
          "name": "_id",
          "type": "uint256"
        }
      ],
      "name": "isMinted",
      "outputs": [
        {
          "internalType": "bool",
          "name": "",
          "type": "bool"
        }
      ],
      "stateMutability": "view",
      "type": "function",
      "constant": true
    },
    {
      "inputs": [
        {
          "internalType": "uint256",
          "name": "_treeId",
          "type": "uint256"
        }
      ],
      "name": "isTreeLastUpdateMinted",
      "outputs": [
        {
          "internalType": "bool",
          "name": "",
          "type": "bool"
        }
      ],
      "stateMutability": "view",
      "type": "function",
      "constant": true
    },
    {
      "inputs": [
        {
          "internalType": "uint256",
          "name": "_id",
          "type": "uint256"
        },
        {
          "internalType": "bool",
          "name": "_minted",
          "type": "bool"
        }
      ],
      "name": "setMinted",
      "outputs": [],
      "stateMutability": "nonpayable",
      "type": "function"
    }
  ],
  "bytecode": "0x6080604052336001806101000a81548173ffffffffffffffffffffffffffffffffffffffff021916908373ffffffffffffffffffffffffffffffffffffffff1602179055503480156200005157600080fd5b506000600160006101000a81548160ff021916908315150217905550620000826000801b33620000d660201b60201c565b620000a9604051620000949062000307565b604051809103902033620000d660201b60201c565b620000d0604051620000bb90620002f0565b604051809103902033620000d660201b60201c565b62000329565b620000e88282620000ec60201b60201c565b5050565b6200011a816000808581526020019081526020016000206000016200018f60201b62000ef31790919060201c565b156200018b5762000130620001c760201b60201c565b73ffffffffffffffffffffffffffffffffffffffff168173ffffffffffffffffffffffffffffffffffffffff16837f2f8788117e7eff1d82e926ec794901d17c78024a50270940304540a733656f0d60405160405180910390a45b5050565b6000620001bf836000018373ffffffffffffffffffffffffffffffffffffffff1660001b620001cf60201b60201c565b905092915050565b600033905090565b6000620001e383836200024960201b60201c565b6200023e57826000018290806001815401808255809150506001900390600052602060002001600090919091909150558260000180549050836001016000848152602001908152602001600020819055506001905062000243565b600090505b92915050565b600080836001016000848152602001908152602001600020541415905092915050565b60006200027b600f836200031e565b91507f414d4241535341444f525f524f4c4500000000000000000000000000000000006000830152600f82019050919050565b6000620002bd600c836200031e565b91507f504c414e5445525f524f4c4500000000000000000000000000000000000000006000830152600c82019050919050565b6000620002fd826200026c565b9150819050919050565b60006200031482620002ae565b9150819050919050565b600081905092915050565b611feb80620003396000396000f3fe608060405234801561001057600080fd5b506004361061018e5760003560e01c806362834462116100de578063a217fddf11610097578063ca15c87311610071578063ca15c873146104bf578063d547741f146104ef578063f29bbde81461050b578063f87bdcd2146105295761018e565b8063a217fddf1461043d578063b4c2f7271461045b578063c53992661461048f5761018e565b806362834462146103555780638456cb59146103855780638da5cb5b1461038f5780639010d07c146103ad57806391d14854146103dd5780639f3e58481461040d5761018e565b806336568abe1161014b578063540bdfbe11610125578063540bdfbe146102cf578063591a5eb6146102eb5780635c622a0e146103075780635c975abb146103375761018e565b806336568abe1461028d5780633f4ba83a146102a9578063473fd50f146102b35761018e565b80630daa2e6614610193578063248a9ca3146101b15780632bfce493146101e15780632f2ff15d1461021157806333c41a901461022d57806333f194111461025d575b600080fd5b61019b610559565b6040516101a89190611c04565b60405180910390f35b6101cb60048036038101906101c69190611570565b610570565b6040516101d89190611c04565b60405180910390f35b6101fb60048036038101906101f69190611611565b61058f565b6040516102089190611be9565b60405180910390f35b61022b60048036038101906102269190611599565b610605565b005b61024760048036038101906102429190611611565b610678565b6040516102549190611be9565b60405180910390f35b61027760048036038101906102729190611611565b6106ad565b6040516102849190611d41565b60405180910390f35b6102a760048036038101906102a29190611599565b6106d5565b005b6102b1610758565b005b6102cd60048036038101906102c89190611611565b6107ae565b005b6102e960048036038101906102e4919061163a565b61086c565b005b61030560048036038101906103009190611676565b6108a6565b005b610321600480360381019061031c9190611611565b610a9d565b60405161032e9190611df6565b60405180910390f35b61033f610ad2565b60405161034c9190611be9565b60405180910390f35b61036f600480360381019061036a9190611611565b610ae9565b60405161037c9190611c1f565b60405180910390f35b61038d610ba9565b005b610397610bff565b6040516103a49190611b91565b60405180910390f35b6103c760048036038101906103c291906115d5565b610c24565b6040516103d49190611b91565b60405180910390f35b6103f760048036038101906103f29190611599565b610c55565b6040516104049190611be9565b60405180910390f35b61042760048036038101906104229190611611565b610c86565b6040516104349190611bc7565b60405180910390f35b610445610cf1565b6040516104529190611c04565b60405180910390f35b61047560048036038101906104709190611611565b610cf8565b604051610486959493929190611d5c565b60405180910390f35b6104a960048036038101906104a49190611611565b610ded565b6040516104b69190611d41565b60405180910390f35b6104d960048036038101906104d49190611570565b610e15565b6040516104e69190611d41565b60405180910390f35b61050960048036038101906105049190611599565b610e3b565b005b610513610eae565b6040516105209190611c04565b60405180910390f35b610543600480360381019061053e91906116ce565b610ec5565b6040516105509190611d41565b60405180910390f35b60405161056590611b67565b604051809103902081565b6000806000838152602001908152602001600020600201549050919050565b60006002600360008481526020019081526020016000206001600360008681526020019081526020016000208054905003815481106105ca57fe5b9060005260206000200154815481106105df57fe5b906000526020600020906004020160030160019054906101000a900460ff169050919050565b61062b60008084815260200190815260200160002060020154610626610f23565b610c55565b61066a576040517f08c379a000000000000000000000000000000000000000000000000000000000815260040161066190611c61565b60405180910390fd5b6106748282610f2b565b5050565b60006002828154811061068757fe5b906000526020600020906004020160030160019054906101000a900460ff169050919050565b6000600282815481106106bc57fe5b9060005260206000209060040201600201549050919050565b6106dd610f23565b73ffffffffffffffffffffffffffffffffffffffff168173ffffffffffffffffffffffffffffffffffffffff161461074a576040517f08c379a000000000000000000000000000000000000000000000000000000000815260040161074190611d21565b60405180910390fd5b6107548282610fbe565b5050565b6107656000801b33610c55565b6107a4576040517f08c379a000000000000000000000000000000000000000000000000000000000815260040161079b90611ce1565b60405180910390fd5b6107ac611051565b565b6107bb6000801b33610c55565b6107fa576040517f08c379a00000000000000000000000000000000000000000000000000000000081526004016107f190611ce1565b60405180910390fd5b60016002828154811061080957fe5b906000526020600020906004020160030160006101000a81548160ff021916908360ff1602179055507fc2ec73998f2d5f5388ad7fcbdb8c7adec87f39fd5dbc1dcce587cf4f2270202e816040516108619190611d41565b60405180910390a150565b806002838154811061087a57fe5b906000526020600020906004020160030160016101000a81548160ff0219169083151502179055505050565b6108c36040516108b590611b7c565b604051809103902033610c55565b610902576040517f08c379a00000000000000000000000000000000000000000000000000000000081526004016108f990611d01565b60405180910390fd5b60026040518060a0016040528085815260200184848080601f016020809104026020016040519081016040528093929190818152602001838380828437600081840152601f19601f820116905080830192505050505050508152602001428152602001600060ff1681526020016000151581525090806001815401808255809150506001900390600052602060002090600402016000909190919091506000820151816000015560208201518160010190805190602001906109c592919061142d565b506040820151816002015560608201518160030160006101000a81548160ff021916908360ff16021790555060808201518160030160016101000a81548160ff021916908315150217905550505060006001600280549050039050600360008581526020019081526020016000208190806001815401808255809150506001900390600052602060002001600090919091909150557ff21895d501301debf8e85ad6a202415a1c431fdb019be7e01b71870841b827d981858585604051610a8f9493929190611db6565b60405180910390a150505050565b600060028281548110610aac57fe5b906000526020600020906004020160030160009054906101000a900460ff169050919050565b6000600160009054906101000a900460ff16905090565b606060028281548110610af857fe5b90600052602060002090600402016001018054600181600116156101000203166002900480601f016020809104026020016040519081016040528092919081815260200182805460018160011615610100020316600290048015610b9d5780601f10610b7257610100808354040283529160200191610b9d565b820191906000526020600020905b815481529060010190602001808311610b8057829003601f168201915b50505050509050919050565b610bb66000801b33610c55565b610bf5576040517f08c379a0000000000000000000000000000000000000000000000000000000008152600401610bec90611ce1565b60405180910390fd5b610bfd6110fb565b565b6001809054906101000a900473ffffffffffffffffffffffffffffffffffffffff1681565b6000610c4d826000808681526020019081526020016000206000016111a590919063ffffffff16565b905092915050565b6000610c7e826000808681526020019081526020016000206000016111bf90919063ffffffff16565b905092915050565b606060036000838152602001908152602001600020805480602002602001604051908101604052809291908181526020018280548015610ce557602002820191906000526020600020905b815481526020019060010190808311610cd1575b50505050509050919050565b6000801b81565b60028181548110610d0557fe5b9060005260206000209060040201600091509050806000015490806001018054600181600116156101000203166002900480601f016020809104026020016040519081016040528092919081815260200182805460018160011615610100020316600290048015610db75780601f10610d8c57610100808354040283529160200191610db7565b820191906000526020600020905b815481529060010190602001808311610d9a57829003601f168201915b5050505050908060020154908060030160009054906101000a900460ff16908060030160019054906101000a900460ff16905085565b600060028281548110610dfc57fe5b9060005260206000209060040201600001549050919050565b6000610e346000808481526020019081526020016000206000016111ef565b9050919050565b610e6160008084815260200190815260200160002060020154610e5c610f23565b610c55565b610ea0576040517f08c379a0000000000000000000000000000000000000000000000000000000008152600401610e9790611ca1565b60405180910390fd5b610eaa8282610fbe565b5050565b604051610eba90611b7c565b604051809103902081565b60036020528160005260406000208181548110610ede57fe5b90600052602060002001600091509150505481565b6000610f1b836000018373ffffffffffffffffffffffffffffffffffffffff1660001b611204565b905092915050565b600033905090565b610f5281600080858152602001908152602001600020600001610ef390919063ffffffff16565b15610fba57610f5f610f23565b73ffffffffffffffffffffffffffffffffffffffff168173ffffffffffffffffffffffffffffffffffffffff16837f2f8788117e7eff1d82e926ec794901d17c78024a50270940304540a733656f0d60405160405180910390a45b5050565b610fe58160008085815260200190815260200160002060000161127490919063ffffffff16565b1561104d57610ff2610f23565b73ffffffffffffffffffffffffffffffffffffffff168173ffffffffffffffffffffffffffffffffffffffff16837ff6391f5c32d9c69d2a47ea670b442974b53935d1edc7fd64eb21e047a839171b60405160405180910390a45b5050565b600160009054906101000a900460ff166110a0576040517f08c379a000000000000000000000000000000000000000000000000000000000815260040161109790611c81565b60405180910390fd5b6000600160006101000a81548160ff0219169083151502179055507f5db9ee0a495bf2e6ff9c91a7834c1ba4fdd244a5e8aa4e537bd38aeae4b073aa6110e4610f23565b6040516110f19190611bac565b60405180910390a1565b600160009054906101000a900460ff161561114b576040517f08c379a000000000000000000000000000000000000000000000000000000000815260040161114290611cc1565b60405180910390fd5b60018060006101000a81548160ff0219169083151502179055507f62e78cea01bee320cd4e420270b5ea74000d11b0c9f74754ebdbfc544b05a25861118e610f23565b60405161119b9190611bac565b60405180910390a1565b60006111b483600001836112a4565b60001c905092915050565b60006111e7836000018373ffffffffffffffffffffffffffffffffffffffff1660001b611311565b905092915050565b60006111fd82600001611334565b9050919050565b60006112108383611311565b61126957826000018290806001815401808255809150506001900390600052602060002001600090919091909150558260000180549050836001016000848152602001908152602001600020819055506001905061126e565b600090505b92915050565b600061129c836000018373ffffffffffffffffffffffffffffffffffffffff1660001b611345565b905092915050565b6000818360000180549050116112ef576040517f08c379a00000000000000000000000000000000000000000000000000000000081526004016112e690611c41565b60405180910390fd5b8260000182815481106112fe57fe5b9060005260206000200154905092915050565b600080836001016000848152602001908152602001600020541415905092915050565b600081600001805490509050919050565b60008083600101600084815260200190815260200160002054905060008114611421576000600182039050600060018660000180549050039050600086600001828154811061139057fe5b90600052602060002001549050808760000184815481106113ad57fe5b90600052602060002001819055506001830187600101600083815260200190815260200160002081905550866000018054806113e557fe5b60019003818190600052602060002001600090559055866001016000878152602001908152602001600020600090556001945050505050611427565b60009150505b92915050565b828054600181600116156101000203166002900490600052602060002090601f016020900481019282601f1061146e57805160ff191683800117855561149c565b8280016001018555821561149c579182015b8281111561149b578251825591602001919060010190611480565b5b5090506114a991906114ad565b5090565b6114cf91905b808211156114cb5760008160009055506001016114b3565b5090565b90565b6000813590506114e181611f59565b92915050565b6000813590506114f681611f70565b92915050565b60008135905061150b81611f87565b92915050565b60008083601f84011261152357600080fd5b8235905067ffffffffffffffff81111561153c57600080fd5b60208301915083600182028301111561155457600080fd5b9250929050565b60008135905061156a81611f9e565b92915050565b60006020828403121561158257600080fd5b6000611590848285016114fc565b91505092915050565b600080604083850312156115ac57600080fd5b60006115ba858286016114fc565b92505060206115cb858286016114d2565b9150509250929050565b600080604083850312156115e857600080fd5b60006115f6858286016114fc565b92505060206116078582860161155b565b9150509250929050565b60006020828403121561162357600080fd5b60006116318482850161155b565b91505092915050565b6000806040838503121561164d57600080fd5b600061165b8582860161155b565b925050602061166c858286016114e7565b9150509250929050565b60008060006040848603121561168b57600080fd5b60006116998682870161155b565b935050602084013567ffffffffffffffff8111156116b657600080fd5b6116c286828701611511565b92509250509250925092565b600080604083850312156116e157600080fd5b60006116ef8582860161155b565b92505060206117008582860161155b565b9150509250929050565b60006117168383611b3a565b60208301905092915050565b61172b81611ed0565b82525050565b61173a81611e71565b82525050565b600061174b82611e21565b6117558185611e44565b935061176083611e11565b8060005b83811015611791578151611778888261170a565b975061178383611e37565b925050600181019050611764565b5085935050505092915050565b6117a781611e83565b82525050565b6117b681611e8f565b82525050565b60006117c88385611e55565b93506117d5838584611f06565b6117de83611f48565b840190509392505050565b60006117f482611e2c565b6117fe8185611e55565b935061180e818560208601611f15565b61181781611f48565b840191505092915050565b600061182f602283611e55565b91507f456e756d657261626c655365743a20696e646578206f7574206f6620626f756e60008301527f64730000000000000000000000000000000000000000000000000000000000006020830152604082019050919050565b6000611895602f83611e55565b91507f416363657373436f6e74726f6c3a2073656e646572206d75737420626520616e60008301527f2061646d696e20746f206772616e7400000000000000000000000000000000006020830152604082019050919050565b60006118fb601483611e55565b91507f5061757361626c653a206e6f74207061757365640000000000000000000000006000830152602082019050919050565b600061193b600f83611e66565b91507f414d4241535341444f525f524f4c4500000000000000000000000000000000006000830152600f82019050919050565b600061197b600c83611e66565b91507f504c414e5445525f524f4c4500000000000000000000000000000000000000006000830152600c82019050919050565b60006119bb603083611e55565b91507f416363657373436f6e74726f6c3a2073656e646572206d75737420626520616e60008301527f2061646d696e20746f207265766f6b65000000000000000000000000000000006020830152604082019050919050565b6000611a21601083611e55565b91507f5061757361626c653a20706175736564000000000000000000000000000000006000830152602082019050919050565b6000611a61601383611e55565b91507f43616c6c6572206973206e6f742061646d696e000000000000000000000000006000830152602082019050919050565b6000611aa1601783611e55565b91507f43616c6c6572206973206e6f74206120706c616e7465720000000000000000006000830152602082019050919050565b6000611ae1602f83611e55565b91507f416363657373436f6e74726f6c3a2063616e206f6e6c792072656e6f756e636560008301527f20726f6c657320666f722073656c6600000000000000000000000000000000006020830152604082019050919050565b611b4381611eb9565b82525050565b611b5281611eb9565b82525050565b611b6181611ec3565b82525050565b6000611b728261192e565b9150819050919050565b6000611b878261196e565b9150819050919050565b6000602082019050611ba66000830184611731565b92915050565b6000602082019050611bc16000830184611722565b92915050565b60006020820190508181036000830152611be18184611740565b905092915050565b6000602082019050611bfe600083018461179e565b92915050565b6000602082019050611c1960008301846117ad565b92915050565b60006020820190508181036000830152611c3981846117e9565b905092915050565b60006020820190508181036000830152611c5a81611822565b9050919050565b60006020820190508181036000830152611c7a81611888565b9050919050565b60006020820190508181036000830152611c9a816118ee565b9050919050565b60006020820190508181036000830152611cba816119ae565b9050919050565b60006020820190508181036000830152611cda81611a14565b9050919050565b60006020820190508181036000830152611cfa81611a54565b9050919050565b60006020820190508181036000830152611d1a81611a94565b9050919050565b60006020820190508181036000830152611d3a81611ad4565b9050919050565b6000602082019050611d566000830184611b49565b92915050565b600060a082019050611d716000830188611b49565b8181036020830152611d8381876117e9565b9050611d926040830186611b49565b611d9f6060830185611b58565b611dac608083018461179e565b9695505050505050565b6000606082019050611dcb6000830187611b49565b611dd86020830186611b49565b8181036040830152611deb8184866117bc565b905095945050505050565b6000602082019050611e0b6000830184611b58565b92915050565b6000819050602082019050919050565b600081519050919050565b600081519050919050565b6000602082019050919050565b600082825260208201905092915050565b600082825260208201905092915050565b600081905092915050565b6000611e7c82611e99565b9050919050565b60008115159050919050565b6000819050919050565b600073ffffffffffffffffffffffffffffffffffffffff82169050919050565b6000819050919050565b600060ff82169050919050565b6000611edb82611ee2565b9050919050565b6000611eed82611ef4565b9050919050565b6000611eff82611e99565b9050919050565b82818337600083830152505050565b60005b83811015611f33578082015181840152602081019050611f18565b83811115611f42576000848401525b50505050565b6000601f19601f8301169050919050565b611f6281611e71565b8114611f6d57600080fd5b50565b611f7981611e83565b8114611f8457600080fd5b50565b611f9081611e8f565b8114611f9b57600080fd5b50565b611fa781611eb9565b8114611fb257600080fd5b5056fea2646970667358221220f3ce09df9c40f6b991d10cf914e9a06c741407a0f4c35b0aaec220b9e89d7a1f64736f6c63430006090033",
  "source": "// SPDX-License-Identifier: GPL-3.0\n\npragma solidity >=0.4.21 <0.7.0;\npragma experimental ABIEncoderV2;\n\nimport \"../access/AccessRestriction.sol\";\nimport \"./TreeFactory.sol\";\n\ncontract UpdateFactory is AccessRestriction  {\n    event UpdateAdded(uint256 updateId, uint256 treeId, string imageHash);\n    event UpdateAccepted(uint256 updateId);\n\n    struct Update {\n        uint256 treeId;\n        string imageHash;\n        uint256 updateDate;\n        uint8 status;\n        bool minted;\n    }\n\n    Update[] public updates;\n    mapping(uint256 => uint256[]) public treeUpdates;\n\n    //@todo permission check\n    // must one pending update after delete or accpet can post other update\n    // update difference must check\n    function post(uint256 _treeId, string calldata _imageHash) external onlyPlanter {\n        updates.push(Update(_treeId, _imageHash, now, 0, false));\n        uint256 id = updates.length - 1;\n\n        treeUpdates[_treeId].push(id);\n\n        emit UpdateAdded(id, _treeId, _imageHash);\n    }\n\n    function acceptUpdate(uint256 _updateId) external onlyAdmin {\n        updates[_updateId].status = 1;\n        emit UpdateAccepted(_updateId);\n    }\n\n    function getTreeUpdates(uint _treeId) public view returns (uint256[] memory) {\n        return treeUpdates[_treeId];\n    }\n\n    function getUpdateDate(uint256 _id) public view returns (uint256) {\n        return updates[_id].updateDate;\n    }\n\n    function getTreeId(uint256 _id) public view returns (uint256) {\n        return updates[_id].treeId;\n    }\n\n    function getImageHash(uint256 _id) public view returns (string memory) {\n        return updates[_id].imageHash;\n    }\n\n    function getStatus(uint256 _id) public view returns (uint8) {\n        return updates[_id].status;\n    }\n\n    function isMinted(uint256 _id) public view returns (bool) {\n        return updates[_id].minted;\n    }\n\n    function isTreeLastUpdateMinted(uint256 _treeId) public view returns (bool) {\n        return updates[treeUpdates[_treeId][treeUpdates[_treeId].length - 1]].minted;\n    }\n\n    function setMinted(uint256 _id, bool _minted) public {\n        updates[_id].minted = _minted;\n    }\n\n\n    // function getUpdate(uint _id) public view returns (uint256[] memory) {\n    //     return treeUpdates[_id];\n    // }\n\n\n}\n",
  "sourcePath": "/home/amir/Projects/treejer/contract/contracts/tree/UpdateFactory.sol",
  "compiler": {
    "name": "solc",
    "version": "0.6.9+commit.3e3065ac.Emscripten.clang"
  },
  "schemaVersion": "3.0.22",
  "updatedAt": "2020-08-03T06:03:35.661Z",
  "networkType": "ethereum",
  "devdoc": {
    "methods": {
      "getRoleAdmin(bytes32)": {
        "details": "Returns the admin role that controls `role`. See {grantRole} and {revokeRole}. To change a role's admin, use {_setRoleAdmin}."
      },
      "getRoleMember(bytes32,uint256)": {
        "details": "Returns one of the accounts that have `role`. `index` must be a value between 0 and {getRoleMemberCount}, non-inclusive. Role bearers are not sorted in any particular way, and their ordering may change at any point. WARNING: When using {getRoleMember} and {getRoleMemberCount}, make sure you perform all queries on the same block. See the following https://forum.openzeppelin.com/t/iterating-over-elements-on-enumerableset-in-openzeppelin-contracts/2296[forum post] for more information."
      },
      "getRoleMemberCount(bytes32)": {
        "details": "Returns the number of accounts that have `role`. Can be used together with {getRoleMember} to enumerate all bearers of a role."
      },
      "grantRole(bytes32,address)": {
        "details": "Grants `role` to `account`. If `account` had not been already granted `role`, emits a {RoleGranted} event. Requirements: - the caller must have ``role``'s admin role."
      },
      "hasRole(bytes32,address)": {
        "details": "Returns `true` if `account` has been granted `role`."
      },
      "paused()": {
        "details": "Returns true if the contract is paused, and false otherwise."
      },
      "renounceRole(bytes32,address)": {
        "details": "Revokes `role` from the calling account. Roles are often managed via {grantRole} and {revokeRole}: this function's purpose is to provide a mechanism for accounts to lose their privileges if they are compromised (such as when a trusted device is misplaced). If the calling account had been granted `role`, emits a {RoleRevoked} event. Requirements: - the caller must be `account`."
      },
      "revokeRole(bytes32,address)": {
        "details": "Revokes `role` from `account`. If `account` had been granted `role`, emits a {RoleRevoked} event. Requirements: - the caller must have ``role``'s admin role."
      }
    }
  },
  "userdoc": {
    "methods": {}
  }
}