{
  "contractName": "WethFunds",
  "abi": [
    {
      "anonymous": false,
      "inputs": [
        {
          "indexed": false,
          "internalType": "uint256",
          "name": "amount",
          "type": "uint256"
        },
        {
          "indexed": false,
          "internalType": "address",
          "name": "account",
          "type": "address"
        },
        {
          "indexed": false,
          "internalType": "string",
          "name": "reason",
          "type": "string"
        }
      ],
      "name": "LocalDevelopBalanceWithdrawn",
      "type": "event"
    },
    {
      "anonymous": false,
      "inputs": [
        {
          "indexed": false,
          "internalType": "uint256",
          "name": "amount",
          "type": "uint256"
        },
        {
          "indexed": false,
          "internalType": "address",
          "name": "account",
          "type": "address"
        },
        {
          "indexed": false,
          "internalType": "string",
          "name": "reason",
          "type": "string"
        }
      ],
      "name": "RescueBalanceWithdrawn",
      "type": "event"
    },
    {
      "anonymous": false,
      "inputs": [
        {
          "indexed": false,
          "internalType": "uint256",
          "name": "treeId",
          "type": "uint256"
        },
        {
          "indexed": false,
          "internalType": "uint256",
          "name": "amount",
          "type": "uint256"
        },
        {
          "indexed": false,
          "internalType": "uint256",
          "name": "planterPart",
          "type": "uint256"
        }
      ],
      "name": "TreeFunded",
      "type": "event"
    },
    {
      "anonymous": false,
      "inputs": [
        {
          "indexed": false,
          "internalType": "uint256",
          "name": "amount",
          "type": "uint256"
        },
        {
          "indexed": false,
          "internalType": "address",
          "name": "account",
          "type": "address"
        },
        {
          "indexed": false,
          "internalType": "string",
          "name": "reason",
          "type": "string"
        }
      ],
      "name": "TreeResearchBalanceWithdrawn",
      "type": "event"
    },
    {
      "anonymous": false,
      "inputs": [
        {
          "indexed": false,
          "internalType": "uint256",
          "name": "amount",
          "type": "uint256"
        },
        {
          "indexed": false,
          "internalType": "address",
          "name": "account",
          "type": "address"
        },
        {
          "indexed": false,
          "internalType": "string",
          "name": "reason",
          "type": "string"
        }
      ],
      "name": "TreejerDevelopBalanceWithdrawn",
      "type": "event"
    },
    {
      "anonymous": false,
      "inputs": [
        {
          "indexed": false,
          "internalType": "uint256",
          "name": "amount",
          "type": "uint256"
        },
        {
          "indexed": false,
          "internalType": "address",
          "name": "account",
          "type": "address"
        },
        {
          "indexed": false,
          "internalType": "string",
          "name": "reason",
          "type": "string"
        }
      ],
      "name": "reserveBalanceWithdrawn1",
      "type": "event"
    },
    {
      "anonymous": false,
      "inputs": [
        {
          "indexed": false,
          "internalType": "uint256",
          "name": "amount",
          "type": "uint256"
        },
        {
          "indexed": false,
          "internalType": "address",
          "name": "account",
          "type": "address"
        },
        {
          "indexed": false,
          "internalType": "string",
          "name": "reason",
          "type": "string"
        }
      ],
      "name": "reserveBalanceWithdrawn2",
      "type": "event"
    },
    {
      "inputs": [],
      "name": "accessRestriction",
      "outputs": [
        {
          "internalType": "contract IAccessRestriction",
          "name": "",
          "type": "address"
        }
      ],
      "stateMutability": "view",
      "type": "function",
      "constant": true
    },
    {
      "inputs": [],
      "name": "daiAddress",
      "outputs": [
        {
          "internalType": "address",
          "name": "",
          "type": "address"
        }
      ],
      "stateMutability": "view",
      "type": "function",
      "constant": true
    },
    {
      "inputs": [],
      "name": "isWethFunds",
      "outputs": [
        {
          "internalType": "bool",
          "name": "",
          "type": "bool"
        }
      ],
      "stateMutability": "view",
      "type": "function",
      "constant": true
    },
    {
      "inputs": [],
      "name": "localDevelopAddress",
      "outputs": [
        {
          "internalType": "address",
          "name": "",
          "type": "address"
        }
      ],
      "stateMutability": "view",
      "type": "function",
      "constant": true
    },
    {
      "inputs": [],
      "name": "planterFundContract",
      "outputs": [
        {
          "internalType": "contract IPlanterFund",
          "name": "",
          "type": "address"
        }
      ],
      "stateMutability": "view",
      "type": "function",
      "constant": true
    },
    {
      "inputs": [],
      "name": "rescueFundAddress",
      "outputs": [
        {
          "internalType": "address",
          "name": "",
          "type": "address"
        }
      ],
      "stateMutability": "view",
      "type": "function",
      "constant": true
    },
    {
      "inputs": [],
      "name": "reserveFundAddress1",
      "outputs": [
        {
          "internalType": "address",
          "name": "",
          "type": "address"
        }
      ],
      "stateMutability": "view",
      "type": "function",
      "constant": true
    },
    {
      "inputs": [],
      "name": "reserveFundAddress2",
      "outputs": [
        {
          "internalType": "address",
          "name": "",
          "type": "address"
        }
      ],
      "stateMutability": "view",
      "type": "function",
      "constant": true
    },
    {
      "inputs": [],
      "name": "totalFunds",
      "outputs": [
        {
          "internalType": "uint256",
          "name": "treeResearch",
          "type": "uint256"
        },
        {
          "internalType": "uint256",
          "name": "localDevelop",
          "type": "uint256"
        },
        {
          "internalType": "uint256",
          "name": "rescueFund",
          "type": "uint256"
        },
        {
          "internalType": "uint256",
          "name": "treejerDevelop",
          "type": "uint256"
        },
        {
          "internalType": "uint256",
          "name": "reserveFund1",
          "type": "uint256"
        },
        {
          "internalType": "uint256",
          "name": "reserveFund2",
          "type": "uint256"
        }
      ],
      "stateMutability": "view",
      "type": "function",
      "constant": true
    },
    {
      "inputs": [],
      "name": "treeResearchAddress",
      "outputs": [
        {
          "internalType": "address",
          "name": "",
          "type": "address"
        }
      ],
      "stateMutability": "view",
      "type": "function",
      "constant": true
    },
    {
      "inputs": [],
      "name": "treejerDevelopAddress",
      "outputs": [
        {
          "internalType": "address",
          "name": "",
          "type": "address"
        }
      ],
      "stateMutability": "view",
      "type": "function",
      "constant": true
    },
    {
      "inputs": [],
      "name": "uniswapRouter",
      "outputs": [
        {
          "internalType": "contract IUniswapV2Router02",
          "name": "",
          "type": "address"
        }
      ],
      "stateMutability": "view",
      "type": "function",
      "constant": true
    },
    {
      "inputs": [],
      "name": "wethToken",
      "outputs": [
        {
          "internalType": "contract IERC20Upgradeable",
          "name": "",
          "type": "address"
        }
      ],
      "stateMutability": "view",
      "type": "function",
      "constant": true
    },
    {
      "inputs": [
        {
          "internalType": "address",
          "name": "_accessRestrictionAddress",
          "type": "address"
        }
      ],
      "name": "initialize",
      "outputs": [],
      "stateMutability": "nonpayable",
      "type": "function"
    },
    {
      "inputs": [
        {
          "internalType": "address",
          "name": "_daiAddress",
          "type": "address"
        }
      ],
      "name": "setDaiAddress",
      "outputs": [],
      "stateMutability": "nonpayable",
      "type": "function"
    },
    {
      "inputs": [
        {
          "internalType": "address",
          "name": "_wethTokenAddress",
          "type": "address"
        }
      ],
      "name": "setWethTokenAddress",
      "outputs": [],
      "stateMutability": "nonpayable",
      "type": "function"
    },
    {
      "inputs": [
        {
          "internalType": "address",
          "name": "_uniswapRouterAddress",
          "type": "address"
        }
      ],
      "name": "setUniswapRouterAddress",
      "outputs": [],
      "stateMutability": "nonpayable",
      "type": "function"
    },
    {
      "inputs": [
        {
          "internalType": "address",
          "name": "_address",
          "type": "address"
        }
      ],
      "name": "setPlanterFundContractAddress",
      "outputs": [],
      "stateMutability": "nonpayable",
      "type": "function"
    },
    {
      "inputs": [
        {
          "internalType": "address payable",
          "name": "_address",
          "type": "address"
        }
      ],
      "name": "setTreeResearchAddress",
      "outputs": [],
      "stateMutability": "nonpayable",
      "type": "function"
    },
    {
      "inputs": [
        {
          "internalType": "address payable",
          "name": "_address",
          "type": "address"
        }
      ],
      "name": "setLocalDevelopAddress",
      "outputs": [],
      "stateMutability": "nonpayable",
      "type": "function"
    },
    {
      "inputs": [
        {
          "internalType": "address payable",
          "name": "_address",
          "type": "address"
        }
      ],
      "name": "setRescueFundAddress",
      "outputs": [],
      "stateMutability": "nonpayable",
      "type": "function"
    },
    {
      "inputs": [
        {
          "internalType": "address payable",
          "name": "_address",
          "type": "address"
        }
      ],
      "name": "setTreejerDevelopAddress",
      "outputs": [],
      "stateMutability": "nonpayable",
      "type": "function"
    },
    {
      "inputs": [
        {
          "internalType": "address payable",
          "name": "_address",
          "type": "address"
        }
      ],
      "name": "setReserveFund1Address",
      "outputs": [],
      "stateMutability": "nonpayable",
      "type": "function"
    },
    {
      "inputs": [
        {
          "internalType": "address payable",
          "name": "_address",
          "type": "address"
        }
      ],
      "name": "setReserveFund2Address",
      "outputs": [],
      "stateMutability": "nonpayable",
      "type": "function"
    },
    {
      "inputs": [
        {
          "internalType": "uint256",
          "name": "_treeId",
          "type": "uint256"
        },
        {
          "internalType": "uint256",
          "name": "_amount",
          "type": "uint256"
        },
        {
          "internalType": "uint16",
          "name": "_planterFund",
          "type": "uint16"
        },
        {
          "internalType": "uint16",
          "name": "_referralFund",
          "type": "uint16"
        },
        {
          "internalType": "uint16",
          "name": "_treeResearch",
          "type": "uint16"
        },
        {
          "internalType": "uint16",
          "name": "_localDevelop",
          "type": "uint16"
        },
        {
          "internalType": "uint16",
          "name": "_rescueFund",
          "type": "uint16"
        },
        {
          "internalType": "uint16",
          "name": "_treejerDevelop",
          "type": "uint16"
        },
        {
          "internalType": "uint16",
          "name": "_reserveFund1",
          "type": "uint16"
        },
        {
          "internalType": "uint16",
          "name": "_reserveFund2",
          "type": "uint16"
        }
      ],
      "name": "fundTree",
      "outputs": [],
      "stateMutability": "nonpayable",
      "type": "function"
    },
    {
      "inputs": [
        {
          "internalType": "uint256",
          "name": "_amount",
          "type": "uint256"
        },
        {
          "internalType": "string",
          "name": "_reason",
          "type": "string"
        }
      ],
      "name": "withdrawTreeResearch",
      "outputs": [],
      "stateMutability": "nonpayable",
      "type": "function"
    },
    {
      "inputs": [
        {
          "internalType": "uint256",
          "name": "_amount",
          "type": "uint256"
        },
        {
          "internalType": "string",
          "name": "_reason",
          "type": "string"
        }
      ],
      "name": "withdrawLocalDevelop",
      "outputs": [],
      "stateMutability": "nonpayable",
      "type": "function"
    },
    {
      "inputs": [
        {
          "internalType": "uint256",
          "name": "_amount",
          "type": "uint256"
        },
        {
          "internalType": "string",
          "name": "_reason",
          "type": "string"
        }
      ],
      "name": "withdrawRescueFund",
      "outputs": [],
      "stateMutability": "nonpayable",
      "type": "function"
    },
    {
      "inputs": [
        {
          "internalType": "uint256",
          "name": "_amount",
          "type": "uint256"
        },
        {
          "internalType": "string",
          "name": "_reason",
          "type": "string"
        }
      ],
      "name": "withdrawTreejerDevelop",
      "outputs": [],
      "stateMutability": "nonpayable",
      "type": "function"
    },
    {
      "inputs": [
        {
          "internalType": "uint256",
          "name": "_amount",
          "type": "uint256"
        },
        {
          "internalType": "string",
          "name": "_reason",
          "type": "string"
        }
      ],
      "name": "withdrawReserveFund1",
      "outputs": [],
      "stateMutability": "nonpayable",
      "type": "function"
    },
    {
      "inputs": [
        {
          "internalType": "uint256",
          "name": "_amount",
          "type": "uint256"
        },
        {
          "internalType": "string",
          "name": "_reason",
          "type": "string"
        }
      ],
      "name": "withdrawReserveFund2",
      "outputs": [],
      "stateMutability": "nonpayable",
      "type": "function"
    }
  ],
  "bytecode": "0x608060405234801561001057600080fd5b50612149806100206000396000f3fe608060405234801561001057600080fd5b50600436106101e55760003560e01c80638194b85b1161010f578063b3675832116100a2578063d6762c4a11610071578063d6762c4a14610452578063db15d1851461046c578063e5356a651461047f578063ff4eb8bb1461049257600080fd5b8063b367583214610406578063ba6138a514610419578063c4d66de81461042c578063cb13011c1461043f57600080fd5b80639e6454aa116100de5780639e6454aa146103ba578063a037edcc146103cd578063a47fddb0146103e0578063a6693590146103f357600080fd5b80638194b85b1461033657806384457b6314610349578063968ed6001461035c57806399fece40146103a757600080fd5b8063536ad73a116101875780636acc9777116101565780636acc9777146102ea578063735de9f7146102fd5780637a876fd81461031057806380d663ea1461032357600080fd5b8063536ad73a1461029e5780635773780d146102b15780635f335a93146102c4578063673dba21146102d757600080fd5b8063310f6dec116101c3578063310f6dec14610242578063313b3937146102555780634b57b0be146102785780634fe496741461028b57600080fd5b80630a43649a146101ea578063233ac7aa1461021a5780632c3872751461022f575b600080fd5b600c546101fd906001600160a01b031681565b6040516001600160a01b0390911681526020015b60405180910390f35b61022d610228366004611ce2565b6104a5565b005b6004546101fd906001600160a01b031681565b600d546101fd906001600160a01b031681565b6000546102689062010000900460ff1681565b6040519015158152602001610211565b6002546101fd906001600160a01b031681565b61022d610299366004611ce2565b610529565b61022d6102ac366004611ded565b6105ad565b61022d6102bf366004611ce2565b6107c7565b6010546101fd906001600160a01b031681565b61022d6102e5366004611ded565b6108ca565b61022d6102f8366004611ce2565b610acd565b6003546101fd906001600160a01b031681565b600f546101fd906001600160a01b031681565b6001546101fd906001600160a01b031681565b61022d610344366004611ce2565b610b51565b61022d610357366004611ce2565b610bd5565b600554600654600754600854600954600a5461037a95949392919086565b604080519687526020870195909552938501929092526060840152608083015260a082015260c001610211565b61022d6103b5366004611ded565b610c59565b61022d6103c8366004611ce2565b610e5c565b600b546101fd906001600160a01b031681565b600e546101fd906001600160a01b031681565b61022d610401366004611ce2565b610ee0565b61022d610414366004611e69565b610f64565b61022d610427366004611ded565b611111565b61022d61043a366004611ce2565b611314565b61022d61044d366004611ce2565b611475565b6000546101fd90630100000090046001600160a01b031681565b61022d61047a366004611ce2565b6114f9565b61022d61048d366004611ded565b61157d565b61022d6104a0366004611ded565b61177f565b600054604051632104fb0560e21b815233600482015263010000009091046001600160a01b031690638413ec149060240160006040518083038186803b1580156104ee57600080fd5b505afa158015610502573d6000803e3d6000fd5b5050600e80546001600160a01b0319166001600160a01b0394909416939093179092555050565b600054604051632104fb0560e21b815233600482015263010000009091046001600160a01b031690638413ec149060240160006040518083038186803b15801561057257600080fd5b505afa158015610586573d6000803e3d6000fd5b5050601080546001600160a01b0319166001600160a01b0394909416939093179092555050565b600060039054906101000a90046001600160a01b03166001600160a01b0316634d868f986040518163ffffffff1660e01b815260040160006040518083038186803b1580156105fb57600080fd5b505afa15801561060f573d6000803e3d6000fd5b5050600054604051632104fb0560e21b815233600482015263010000009091046001600160a01b03169250638413ec14915060240160006040518083038186803b15801561065c57600080fd5b505afa158015610670573d6000803e3d6000fd5b5050600d546001600160a01b0316915050806106a75760405162461bcd60e51b815260040161069e90611f42565b60405180910390fd5b60075484118015906106b95750600084115b6106d55760405162461bcd60e51b815260040161069e90611f15565b83600560020160008282546106ea91906120a2565b9091555050600254600d5460405163a9059cbb60e01b81526001600160a01b0391821660048201526024810187905291169063a9059cbb90604401602060405180830381600087803b15801561073f57600080fd5b505af1158015610753573d6000803e3d6000fd5b505050506040513d601f19601f820116820180604052508101906107779190611dcb565b50600d546040517f85700b57d5ec89a15f491812de22a34a5bdca335fc68880dbab357cf81151fab916107b99187916001600160a01b03169087908790611f6b565b60405180910390a150505050565b600054604051632104fb0560e21b815233600482015263010000009091046001600160a01b031690638413ec149060240160006040518083038186803b15801561081057600080fd5b505afa158015610824573d6000803e3d6000fd5b505050506000819050806001600160a01b031663349904da6040518163ffffffff1660e01b815260040160206040518083038186803b15801561086657600080fd5b505afa15801561087a573d6000803e3d6000fd5b505050506040513d601f19601f8201168201806040525081019061089e9190611dcb565b6108a757600080fd5b600180546001600160a01b0319166001600160a01b039290921691909117905550565b600060039054906101000a90046001600160a01b03166001600160a01b0316634d868f986040518163ffffffff1660e01b815260040160006040518083038186803b15801561091857600080fd5b505afa15801561092c573d6000803e3d6000fd5b5050600054604051632104fb0560e21b815233600482015263010000009091046001600160a01b03169250638413ec14915060240160006040518083038186803b15801561097957600080fd5b505afa15801561098d573d6000803e3d6000fd5b5050600e546001600160a01b0316915050806109bb5760405162461bcd60e51b815260040161069e90611f42565b60085484118015906109cd5750600084115b6109e95760405162461bcd60e51b815260040161069e90611f15565b83600560030160008282546109fe91906120a2565b9091555050600254600e5460405163a9059cbb60e01b81526001600160a01b0391821660048201526024810187905291169063a9059cbb90604401602060405180830381600087803b158015610a5357600080fd5b505af1158015610a67573d6000803e3d6000fd5b505050506040513d601f19601f82011682018060405250810190610a8b9190611dcb565b50600e546040517f174f34055ef4d06c26032b349f20281a6e7b69b17352d03a658bb3c02561367b916107b99187916001600160a01b03169087908790611f6b565b600054604051632104fb0560e21b815233600482015263010000009091046001600160a01b031690638413ec149060240160006040518083038186803b158015610b1657600080fd5b505afa158015610b2a573d6000803e3d6000fd5b5050600280546001600160a01b0319166001600160a01b0394909416939093179092555050565b600054604051632104fb0560e21b815233600482015263010000009091046001600160a01b031690638413ec149060240160006040518083038186803b158015610b9a57600080fd5b505afa158015610bae573d6000803e3d6000fd5b5050600b80546001600160a01b0319166001600160a01b0394909416939093179092555050565b600054604051632104fb0560e21b815233600482015263010000009091046001600160a01b031690638413ec149060240160006040518083038186803b158015610c1e57600080fd5b505afa158015610c32573d6000803e3d6000fd5b5050600f80546001600160a01b0319166001600160a01b0394909416939093179092555050565b600060039054906101000a90046001600160a01b03166001600160a01b0316634d868f986040518163ffffffff1660e01b815260040160006040518083038186803b158015610ca757600080fd5b505afa158015610cbb573d6000803e3d6000fd5b5050600054604051632104fb0560e21b815233600482015263010000009091046001600160a01b03169250638413ec14915060240160006040518083038186803b158015610d0857600080fd5b505afa158015610d1c573d6000803e3d6000fd5b5050600c546001600160a01b031691505080610d4a5760405162461bcd60e51b815260040161069e90611f42565b6006548411801590610d5c5750600084115b610d785760405162461bcd60e51b815260040161069e90611f15565b8360056001016000828254610d8d91906120a2565b9091555050600254600c5460405163a9059cbb60e01b81526001600160a01b0391821660048201526024810187905291169063a9059cbb90604401602060405180830381600087803b158015610de257600080fd5b505af1158015610df6573d6000803e3d6000fd5b505050506040513d601f19601f82011682018060405250810190610e1a9190611dcb565b50600c546040517ff55afe4fbf5e2382822e10e484a70ef4849c01a0e4764cfb653bdeea7e47e728916107b99187916001600160a01b03169087908790611f6b565b600054604051632104fb0560e21b815233600482015263010000009091046001600160a01b031690638413ec149060240160006040518083038186803b158015610ea557600080fd5b505afa158015610eb9573d6000803e3d6000fd5b5050600c80546001600160a01b0319166001600160a01b0394909416939093179092555050565b600054604051632104fb0560e21b815233600482015263010000009091046001600160a01b031690638413ec149060240160006040518083038186803b158015610f2957600080fd5b505afa158015610f3d573d6000803e3d6000fd5b5050600480546001600160a01b0319166001600160a01b0394909416939093179092555050565b60005460405163d92f4a6560e01b815233600482015263010000009091046001600160a01b03169063d92f4a659060240160006040518083038186803b158015610fad57600080fd5b505afa158015610fc1573d6000803e3d6000fd5b505050506127108661ffff168a610fd89190612083565b610fe29190612061565b60058054600090610ff4908490612049565b90915550612710905061100b61ffff87168b612083565b6110159190612061565b60068054600090611027908490612049565b90915550612710905061103e61ffff86168b612083565b6110489190612061565b6007805460009061105a908490612049565b90915550612710905061107161ffff85168b612083565b61107b9190612061565b6008805460009061108d908490612049565b9091555061271090506110a461ffff84168b612083565b6110ae9190612061565b600980546000906110c0908490612049565b9091555061271090506110d761ffff83168b612083565b6110e19190612061565b600a80546000906110f3908490612049565b9091555061110590508a8a8a8a611982565b50505050505050505050565b600060039054906101000a90046001600160a01b03166001600160a01b0316634d868f986040518163ffffffff1660e01b815260040160006040518083038186803b15801561115f57600080fd5b505afa158015611173573d6000803e3d6000fd5b5050600054604051632104fb0560e21b815233600482015263010000009091046001600160a01b03169250638413ec14915060240160006040518083038186803b1580156111c057600080fd5b505afa1580156111d4573d6000803e3d6000fd5b5050600f546001600160a01b0316915050806112025760405162461bcd60e51b815260040161069e90611f42565b60095484118015906112145750600084115b6112305760405162461bcd60e51b815260040161069e90611f15565b836005600401600082825461124591906120a2565b9091555050600254600f5460405163a9059cbb60e01b81526001600160a01b0391821660048201526024810187905291169063a9059cbb90604401602060405180830381600087803b15801561129a57600080fd5b505af11580156112ae573d6000803e3d6000fd5b505050506040513d601f19601f820116820180604052508101906112d29190611dcb565b50600f546040517fb93ea389db0c106319d1175bbdeb3650e158f25a6555a0bb87a24905f6f2e97d916107b99187916001600160a01b03169087908790611f6b565b600054610100900460ff168061132d575060005460ff16155b6113905760405162461bcd60e51b815260206004820152602e60248201527f496e697469616c697a61626c653a20636f6e747261637420697320616c72656160448201526d191e481a5b9a5d1a585b1a5e995960921b606482015260840161069e565b600054610100900460ff161580156113b2576000805461ffff19166101011790555b6000829050806001600160a01b031663ba84fd696040518163ffffffff1660e01b815260040160206040518083038186803b1580156113f057600080fd5b505afa158015611404573d6000803e3d6000fd5b505050506040513d601f19601f820116820180604052508101906114289190611dcb565b61143157600080fd5b600080546001600160a01b0390921663010000000262010000600160b81b031990921691909117620100001790558015611471576000805461ff00191690555b5050565b600054604051632104fb0560e21b815233600482015263010000009091046001600160a01b031690638413ec149060240160006040518083038186803b1580156114be57600080fd5b505afa1580156114d2573d6000803e3d6000fd5b5050600d80546001600160a01b0319166001600160a01b0394909416939093179092555050565b600054604051632104fb0560e21b815233600482015263010000009091046001600160a01b031690638413ec149060240160006040518083038186803b15801561154257600080fd5b505afa158015611556573d6000803e3d6000fd5b5050600380546001600160a01b0319166001600160a01b0394909416939093179092555050565b600060039054906101000a90046001600160a01b03166001600160a01b0316634d868f986040518163ffffffff1660e01b815260040160006040518083038186803b1580156115cb57600080fd5b505afa1580156115df573d6000803e3d6000fd5b5050600054604051632104fb0560e21b815233600482015263010000009091046001600160a01b03169250638413ec14915060240160006040518083038186803b15801561162c57600080fd5b505afa158015611640573d6000803e3d6000fd5b50506010546001600160a01b03169150508061166e5760405162461bcd60e51b815260040161069e90611f42565b600a5484118015906116805750600084115b61169c5760405162461bcd60e51b815260040161069e90611f15565b836005800160008282546116b091906120a2565b909155505060025460105460405163a9059cbb60e01b81526001600160a01b0391821660048201526024810187905291169063a9059cbb90604401602060405180830381600087803b15801561170557600080fd5b505af1158015611719573d6000803e3d6000fd5b505050506040513d601f19601f8201168201806040525081019061173d9190611dcb565b506010546040517f5be55b518e0f0443e7c10810c49d83c3eabb7f8db1c053c593931c2742a3d259916107b99187916001600160a01b03169087908790611f6b565b600060039054906101000a90046001600160a01b03166001600160a01b0316634d868f986040518163ffffffff1660e01b815260040160006040518083038186803b1580156117cd57600080fd5b505afa1580156117e1573d6000803e3d6000fd5b5050600054604051632104fb0560e21b815233600482015263010000009091046001600160a01b03169250638413ec14915060240160006040518083038186803b15801561182e57600080fd5b505afa158015611842573d6000803e3d6000fd5b5050600b546001600160a01b0316915050806118705760405162461bcd60e51b815260040161069e90611f42565b60055484118015906118825750600084115b61189e5760405162461bcd60e51b815260040161069e90611f15565b83600560000160008282546118b391906120a2565b9091555050600254600b5460405163a9059cbb60e01b81526001600160a01b0391821660048201526024810187905291169063a9059cbb90604401602060405180830381600087803b15801561190857600080fd5b505af115801561191c573d6000803e3d6000fd5b505050506040513d601f19601f820116820180604052508101906119409190611dcb565b50600b546040517f346dd4608342f0849c2ae92a528abcdbde8cf41ca01d05ed0855ad4a3fe38bb5916107b99187916001600160a01b03169087908790611f6b565b600061271061199561ffff851686612083565b61199f9190612061565b905060006127106119b461ffff851687612083565b6119be9190612061565b905060006119cc8284612049565b905060006119da8587612023565b604080516002808252606080830184529394509091602083019080368337505060025482519293506001600160a01b031691839150600090611a1e57611a1e6120cf565b6001600160a01b039283166020918202929092010152600454825191169082906001908110611a4f57611a4f6120cf565b6001600160a01b03928316602091820292909201015260025460035460405163095ea7b360e01b815290831660048201526024810186905291169063095ea7b390604401602060405180830381600087803b158015611aad57600080fd5b505af1158015611ac1573d6000803e3d6000fd5b505050506040513d601f19601f82011682018060405250810190611ae59190611dcb565b50600354600180546000926001600160a01b03908116926338ed1739928892879116611b1342610708612049565b6040518663ffffffff1660e01b8152600401611b33959493929190611fb2565b600060405180830381600087803b158015611b4d57600080fd5b505af1158015611b61573d6000803e3d6000fd5b505050506040513d6000823e601f3d908101601f19168201604052611b899190810190611d06565b6001805482519293506001600160a01b031691633ad7c33b918d9161ffff88169186918110611bba57611bba6120cf565b60200260200101518c61ffff16611bd19190612083565b611bdb9190612061565b8661ffff1685600181518110611bf357611bf36120cf565b60200260200101518c61ffff16611c0a9190612083565b611c149190612061565b6040516001600160e01b031960e086901b168152600481019390935260248301919091526044820152606401600060405180830381600087803b158015611c5a57600080fd5b505af1158015611c6e573d6000803e3d6000fd5b505050507f347f488d341632b8f0297fc353e08cc384d9a8c7bb93600a7ede83515b56b9948a8a8789611ca19190612049565b6040805193845260208401929092529082015260600160405180910390a150505050505050505050565b803561ffff81168114611cdd57600080fd5b919050565b600060208284031215611cf457600080fd5b8135611cff816120fb565b9392505050565b60006020808385031215611d1957600080fd5b825167ffffffffffffffff80821115611d3157600080fd5b818501915085601f830112611d4557600080fd5b815181811115611d5757611d576120e5565b8060051b604051601f19603f83011681018181108582111715611d7c57611d7c6120e5565b604052828152858101935084860182860187018a1015611d9b57600080fd5b600095505b83861015611dbe578051855260019590950194938601938601611da0565b5098975050505050505050565b600060208284031215611ddd57600080fd5b81518015158114611cff57600080fd5b600080600060408486031215611e0257600080fd5b83359250602084013567ffffffffffffffff80821115611e2157600080fd5b818601915086601f830112611e3557600080fd5b813581811115611e4457600080fd5b876020828501011115611e5657600080fd5b6020830194508093505050509250925092565b6000806000806000806000806000806101408b8d031215611e8957600080fd5b8a35995060208b01359850611ea060408c01611ccb565b9750611eae60608c01611ccb565b9650611ebc60808c01611ccb565b9550611eca60a08c01611ccb565b9450611ed860c08c01611ccb565b9350611ee660e08c01611ccb565b9250611ef56101008c01611ccb565b9150611f046101208c01611ccb565b90509295989b9194979a5092959850565b6020808252601390820152721a5b9cdd59999a58da595b9d08185b5bdd5b9d606a1b604082015260600190565b6020808252600f908201526e696e76616c6964206164647265737360881b604082015260600190565b8481526001600160a01b03841660208201526060604082018190528101829052818360808301376000818301608090810191909152601f909201601f191601019392505050565b600060a082018783526020878185015260a0604085015281875180845260c086019150828901935060005b818110156120025784516001600160a01b031683529383019391830191600101611fdd565b50506001600160a01b03969096166060850152505050608001529392505050565b600061ffff808316818516808303821115612040576120406120b9565b01949350505050565b6000821982111561205c5761205c6120b9565b500190565b60008261207e57634e487b7160e01b600052601260045260246000fd5b500490565b600081600019048311821515161561209d5761209d6120b9565b500290565b6000828210156120b4576120b46120b9565b500390565b634e487b7160e01b600052601160045260246000fd5b634e487b7160e01b600052603260045260246000fd5b634e487b7160e01b600052604160045260246000fd5b6001600160a01b038116811461211057600080fd5b5056fea26469706673582212204f15beb6c8144418f26d08e47f340d3952c324057849fb6184332e1f90c9783e64736f6c63430008060033",
  "immutableReferences": {},
  "source": "// SPDX-License-Identifier: MIT\n\npragma solidity ^0.8.6;\n\nimport \"@openzeppelin/contracts-upgradeable/utils/CountersUpgradeable.sol\";\nimport \"@openzeppelin/contracts-upgradeable/proxy/utils/Initializable.sol\";\nimport \"@openzeppelin/contracts-upgradeable/token/ERC20/IERC20Upgradeable.sol\";\nimport \"../access/IAccessRestriction.sol\";\nimport \"./IPlanterFund.sol\";\nimport \"./interfaces/IUniswapV2Router02.sol\";\n\n/** @title WethFunds Contract */\n\ncontract WethFunds is Initializable {\n    bool public isWethFunds;\n\n    IAccessRestriction public accessRestriction;\n    IPlanterFund public planterFundContract;\n    IERC20Upgradeable public wethToken;\n    IUniswapV2Router02 public uniswapRouter;\n\n    address public daiAddress;\n\n    TotalFunds public totalFunds;\n\n    address public treeResearchAddress;\n    address public localDevelopAddress;\n    address public rescueFundAddress;\n    address public treejerDevelopAddress;\n    address public reserveFundAddress1;\n    address public reserveFundAddress2;\n\n    struct TotalFunds {\n        uint256 treeResearch;\n        uint256 localDevelop;\n        uint256 rescueFund;\n        uint256 treejerDevelop;\n        uint256 reserveFund1;\n        uint256 reserveFund2;\n    }\n\n    event TreeResearchBalanceWithdrawn(\n        uint256 amount,\n        address account,\n        string reason\n    );\n    event LocalDevelopBalanceWithdrawn(\n        uint256 amount,\n        address account,\n        string reason\n    );\n    event RescueBalanceWithdrawn(\n        uint256 amount,\n        address account,\n        string reason\n    );\n    event TreejerDevelopBalanceWithdrawn(\n        uint256 amount,\n        address account,\n        string reason\n    );\n    event reserveBalanceWithdrawn1(\n        uint256 amount,\n        address account,\n        string reason\n    );\n    event reserveBalanceWithdrawn2(\n        uint256 amount,\n        address account,\n        string reason\n    );\n    event TreeFunded(uint256 treeId, uint256 amount, uint256 planterPart);\n\n    modifier onlyAdmin() {\n        accessRestriction.ifAdmin(msg.sender);\n        _;\n    }\n\n    modifier onlyIncrementalSellOrAuction() {\n        accessRestriction.ifIncrementalSellOrAuction(msg.sender);\n        _;\n    }\n    modifier ifNotPaused() {\n        accessRestriction.ifNotPaused();\n        _;\n    }\n\n    modifier validAddress(address _address) {\n        require(_address != address(0), \"invalid address\");\n        _;\n    }\n\n    function initialize(address _accessRestrictionAddress) public initializer {\n        IAccessRestriction candidateContract = IAccessRestriction(\n            _accessRestrictionAddress\n        );\n\n        require(candidateContract.isAccessRestriction());\n\n        isWethFunds = true;\n        accessRestriction = candidateContract;\n    }\n\n    function setDaiAddress(address _daiAddress) external onlyAdmin {\n        daiAddress = _daiAddress;\n    }\n\n    function setWethTokenAddress(address _wethTokenAddress) external onlyAdmin {\n        IERC20Upgradeable candidateContract = IERC20Upgradeable(\n            _wethTokenAddress\n        );\n        wethToken = candidateContract;\n    }\n\n    function setUniswapRouterAddress(address _uniswapRouterAddress)\n        external\n        onlyAdmin\n    {\n        IUniswapV2Router02 candidateContract = IUniswapV2Router02(\n            _uniswapRouterAddress\n        );\n\n        uniswapRouter = candidateContract;\n    }\n\n    function setPlanterFundContractAddress(address _address)\n        external\n        onlyAdmin\n    {\n        IPlanterFund candidateContract = IPlanterFund(_address);\n        require(candidateContract.isPlanterFund());\n        planterFundContract = candidateContract;\n    }\n\n    /**\n     * @dev admin set treeResearch  address to fund\n     * @param _address tree research address\n     */\n    function setTreeResearchAddress(address payable _address)\n        external\n        onlyAdmin\n    {\n        treeResearchAddress = _address;\n    }\n\n    /**\n     * @dev admin set localDevelop  address to fund\n     * @param _address local develop address\n     */\n    function setLocalDevelopAddress(address payable _address)\n        external\n        onlyAdmin\n    {\n        localDevelopAddress = _address;\n    }\n\n    /**\n     * @dev admin set rescue address to fund\n     * @param _address rescue fund address\n     */\n    function setRescueFundAddress(address payable _address) external onlyAdmin {\n        rescueFundAddress = _address;\n    }\n\n    /**\n     * @dev admin set treejerDevelop  address to fund\n     * @param _address treejer develop address\n     */\n    function setTreejerDevelopAddress(address payable _address)\n        external\n        onlyAdmin\n    {\n        treejerDevelopAddress = _address;\n    }\n\n    /**\n     * @dev admin set reserveFund1  address to fund\n     * @param _address reserveFund1 address\n     */\n    function setReserveFund1Address(address payable _address)\n        external\n        onlyAdmin\n    {\n        reserveFundAddress1 = _address;\n    }\n\n    /**\n     * @dev admin set reserveFund2  address to fund\n     * @param _address reserveFund2 address\n     */\n    function setReserveFund2Address(address payable _address)\n        external\n        onlyAdmin\n    {\n        reserveFundAddress2 = _address;\n    }\n\n    function fundTree(\n        uint256 _treeId,\n        uint256 _amount,\n        uint16 _planterFund,\n        uint16 _referralFund,\n        uint16 _treeResearch,\n        uint16 _localDevelop,\n        uint16 _rescueFund,\n        uint16 _treejerDevelop,\n        uint16 _reserveFund1,\n        uint16 _reserveFund2\n    ) external onlyIncrementalSellOrAuction {\n        totalFunds.treeResearch += (_amount * _treeResearch) / 10000;\n\n        totalFunds.localDevelop += (_amount * _localDevelop) / 10000;\n\n        totalFunds.rescueFund += (_amount * _rescueFund) / 10000;\n\n        totalFunds.treejerDevelop += (_amount * _treejerDevelop) / 10000;\n\n        totalFunds.reserveFund1 += (_amount * _reserveFund1) / 10000;\n\n        totalFunds.reserveFund2 += (_amount * _reserveFund2) / 10000;\n\n        _swap(_treeId, _amount, _planterFund, _referralFund);\n    }\n\n    /**\n     * @dev admin withdraw {_amount} from treeResearch totalFund in case of valid {_amount}\n     * and money transfer to {treeResearchAddress}\n     * @param _amount amount to withdraw\n     * @param _reason reason to withdraw\n     */\n    function withdrawTreeResearch(uint256 _amount, string calldata _reason)\n        external\n        ifNotPaused\n        onlyAdmin\n        validAddress(treeResearchAddress)\n    {\n        require(\n            _amount <= totalFunds.treeResearch && _amount > 0,\n            \"insufficient amount\"\n        );\n\n        totalFunds.treeResearch -= _amount;\n\n        wethToken.transfer(treeResearchAddress, _amount);\n\n        emit TreeResearchBalanceWithdrawn(\n            _amount,\n            treeResearchAddress,\n            _reason\n        );\n    }\n\n    /**\n     * @dev admin withdraw {_amount} from localDevelop totalFund in case of valid {_amount}\n     * and money transfer to {localDevelopAddress}\n     * @param _amount amount to withdraw\n     * @param _reason reason to withdraw\n     */\n    function withdrawLocalDevelop(uint256 _amount, string calldata _reason)\n        external\n        ifNotPaused\n        onlyAdmin\n        validAddress(localDevelopAddress)\n    {\n        require(\n            _amount <= totalFunds.localDevelop && _amount > 0,\n            \"insufficient amount\"\n        );\n\n        totalFunds.localDevelop -= _amount;\n\n        wethToken.transfer(localDevelopAddress, _amount);\n\n        emit LocalDevelopBalanceWithdrawn(\n            _amount,\n            localDevelopAddress,\n            _reason\n        );\n    }\n\n    /**\n     * @dev admin withdraw {_amount} from rescueFund totalFund in case of valid {_amount}\n     * and money transfer to {rescueFundAddress}\n     * @param _amount amount to withdraw\n     * @param _reason reason to withdraw\n     */\n    function withdrawRescueFund(uint256 _amount, string calldata _reason)\n        external\n        ifNotPaused\n        onlyAdmin\n        validAddress(rescueFundAddress)\n    {\n        require(\n            _amount <= totalFunds.rescueFund && _amount > 0,\n            \"insufficient amount\"\n        );\n\n        totalFunds.rescueFund -= _amount;\n\n        wethToken.transfer(rescueFundAddress, _amount);\n\n        emit RescueBalanceWithdrawn(_amount, rescueFundAddress, _reason);\n    }\n\n    /**\n     * @dev admin withdraw {_amount} from treejerDevelop totalFund in case of valid {_amount}\n     * and money transfer to {treejerDevelopAddress}\n     * @param _amount amount to withdraw\n     * @param _reason reason to withdraw\n     */\n    function withdrawTreejerDevelop(uint256 _amount, string calldata _reason)\n        external\n        ifNotPaused\n        onlyAdmin\n        validAddress(treejerDevelopAddress)\n    {\n        require(\n            _amount <= totalFunds.treejerDevelop && _amount > 0,\n            \"insufficient amount\"\n        );\n\n        totalFunds.treejerDevelop -= _amount;\n\n        wethToken.transfer(treejerDevelopAddress, _amount);\n\n        emit TreejerDevelopBalanceWithdrawn(\n            _amount,\n            treejerDevelopAddress,\n            _reason\n        );\n    }\n\n    /**\n     * @dev admin withdraw {_amount} from reserveFund1 totalFund in case of valid {_amount}\n     * and money transfer to {reserveFundAddress1}\n     * @param _amount amount to withdraw\n     * @param _reason reason to withdraw\n     */\n    function withdrawReserveFund1(uint256 _amount, string calldata _reason)\n        external\n        ifNotPaused\n        onlyAdmin\n        validAddress(reserveFundAddress1)\n    {\n        require(\n            _amount <= totalFunds.reserveFund1 && _amount > 0,\n            \"insufficient amount\"\n        );\n\n        totalFunds.reserveFund1 -= _amount;\n\n        wethToken.transfer(reserveFundAddress1, _amount);\n\n        emit reserveBalanceWithdrawn1(_amount, reserveFundAddress1, _reason);\n    }\n\n    /**\n     * @dev admin withdraw {_amount} from reserveFund2 totalFund in case of valid {_amount}\n     * and money transfer to {reserveFundAddress2}\n     * @param _amount amount to withdraw\n     * @param _reason reason to withdraw\n     */\n    function withdrawReserveFund2(uint256 _amount, string calldata _reason)\n        external\n        ifNotPaused\n        onlyAdmin\n        validAddress(reserveFundAddress2)\n    {\n        require(\n            _amount <= totalFunds.reserveFund2 && _amount > 0,\n            \"insufficient amount\"\n        );\n\n        totalFunds.reserveFund2 -= _amount;\n\n        wethToken.transfer(reserveFundAddress2, _amount);\n\n        emit reserveBalanceWithdrawn2(_amount, reserveFundAddress2, _reason);\n    }\n\n    function _swap(\n        uint256 _treeId,\n        uint256 _amount,\n        uint16 _planterFund,\n        uint16 _referralFund\n    ) private {\n        uint256 planterFund = (_amount * _planterFund) / 10000;\n        uint256 referralFund = (_amount * _referralFund) / 10000;\n\n        uint256 sumFund = planterFund + referralFund;\n        uint16 sumPercent = _planterFund + _referralFund;\n\n        address[] memory path;\n        path = new address[](2);\n\n        path[0] = address(wethToken);\n        path[1] = daiAddress;\n\n        wethToken.approve(address(uniswapRouter), sumFund);\n\n        uint256[] memory amounts = uniswapRouter.swapExactTokensForTokens(\n            sumFund,\n            1,\n            path,\n            address(planterFundContract),\n            block.timestamp + 1800 // 30 * 60 (30 min)\n        );\n\n        planterFundContract.setPlanterFunds(\n            _treeId,\n            (_planterFund * amounts[1]) / sumPercent,\n            (_referralFund * amounts[1]) / sumPercent\n        );\n        emit TreeFunded(_treeId, _amount, planterFund + referralFund);\n    }\n}\n",
  "sourcePath": "/home/ali/Desktop/treejer/contract/contracts/treasury/WethFunds.sol",
  "compiler": {
    "name": "solc",
    "version": "0.8.6+commit.11564f7e.Emscripten.clang"
  },
  "schemaVersion": "3.4.1",
  "updatedAt": "2021-08-13T05:34:21.763Z",
  "networkType": "ethereum",
  "devdoc": {
    "kind": "dev",
    "methods": {
      "setLocalDevelopAddress(address)": {
        "details": "admin set localDevelop  address to fund",
        "params": {
          "_address": "local develop address"
        }
      },
      "setRescueFundAddress(address)": {
        "details": "admin set rescue address to fund",
        "params": {
          "_address": "rescue fund address"
        }
      },
      "setReserveFund1Address(address)": {
        "details": "admin set reserveFund1  address to fund",
        "params": {
          "_address": "reserveFund1 address"
        }
      },
      "setReserveFund2Address(address)": {
        "details": "admin set reserveFund2  address to fund",
        "params": {
          "_address": "reserveFund2 address"
        }
      },
      "setTreeResearchAddress(address)": {
        "details": "admin set treeResearch  address to fund",
        "params": {
          "_address": "tree research address"
        }
      },
      "setTreejerDevelopAddress(address)": {
        "details": "admin set treejerDevelop  address to fund",
        "params": {
          "_address": "treejer develop address"
        }
      },
      "withdrawLocalDevelop(uint256,string)": {
        "details": "admin withdraw {_amount} from localDevelop totalFund in case of valid {_amount} and money transfer to {localDevelopAddress}",
        "params": {
          "_amount": "amount to withdraw",
          "_reason": "reason to withdraw"
        }
      },
      "withdrawRescueFund(uint256,string)": {
        "details": "admin withdraw {_amount} from rescueFund totalFund in case of valid {_amount} and money transfer to {rescueFundAddress}",
        "params": {
          "_amount": "amount to withdraw",
          "_reason": "reason to withdraw"
        }
      },
      "withdrawReserveFund1(uint256,string)": {
        "details": "admin withdraw {_amount} from reserveFund1 totalFund in case of valid {_amount} and money transfer to {reserveFundAddress1}",
        "params": {
          "_amount": "amount to withdraw",
          "_reason": "reason to withdraw"
        }
      },
      "withdrawReserveFund2(uint256,string)": {
        "details": "admin withdraw {_amount} from reserveFund2 totalFund in case of valid {_amount} and money transfer to {reserveFundAddress2}",
        "params": {
          "_amount": "amount to withdraw",
          "_reason": "reason to withdraw"
        }
      },
      "withdrawTreeResearch(uint256,string)": {
        "details": "admin withdraw {_amount} from treeResearch totalFund in case of valid {_amount} and money transfer to {treeResearchAddress}",
        "params": {
          "_amount": "amount to withdraw",
          "_reason": "reason to withdraw"
        }
      },
      "withdrawTreejerDevelop(uint256,string)": {
        "details": "admin withdraw {_amount} from treejerDevelop totalFund in case of valid {_amount} and money transfer to {treejerDevelopAddress}",
        "params": {
          "_amount": "amount to withdraw",
          "_reason": "reason to withdraw"
        }
      }
    },
    "title": "WethFunds Contract ",
    "version": 1
  },
  "userdoc": {
    "kind": "user",
    "methods": {},
    "version": 1
  }
}